:020000022000DC
:106000000000012019620200016202000362020026
:10601000056202000762020009620200000000003F
:106020000000000000000000000000000B62020001
:106030000D620200000000000F6202001162020007
:1060400049F9020013620200E1FE0200590E03004A
:10605000710E030013620200DDFD020013620200F4
:10606000CD000300E500030013620200136202008A
:106070001362020013620200136202001362020044
:1060800013620200C92C03001362020013620200B3
:106090001362020013620200D17C0300136202004B
:1060A0001362020013620200136202001362020014
:1060B00013620200136202000000000000000000F2
:1060C00013620200136202001362020013620200F4
:1060D000136202001362020013620200000000005B
:1060E00000000000000000000000000000000000B0
:1060F00000000000000000000000000000000000A0
:10610000000000000000000000000000000000008F
:10611000000000000000000000000000000000007F
:10612000000000000000000000000000000000006F
:10613000000000000000000000000000000000005F
:10614000000000000000000000000000000000004F
:10615000000000000000000000000000000000003F
:10616000000000000000000000000000000000002F
:10617000000000000000000000000000000000001F
:10618000000000000000000000000000000000000F
:1061900000000000000000000000000000000000FF
:1061A00000000000000000000000000000000000EF
:1061B00000000000000000000000000000000000DF
:1061C00000000000000000000000000000000000CF
:1061D00000000000000000000000000000000000BF
:1061E00000000000000000000000000000000000AF
:1061F000000000000000000000000000000000009F
:10620000FEE7FEE7FEE7FEE7FEE7FEE7FEE7FEE766
:10621000FEE7FEE700F002B8FFF7FCBF0F484FF0C3
:106220000701884385460E4880470E48016841F4BF
:1062300070010160BFF34F8FBFF36F8F00F01AB88A
:1062400009480A490A4A884207D0521A05D00378F9
:1062500001300B700131013AF9D170470000012083
:10626000B98E020088ED00E0848E030070220020C9
:10627000842200203A493B480A1A02D0072291435F
:106280008D46394939480A1A06D00722914381F3CD
:106290000988022282F3148835483649364A00F0CC
:1062A00041F836483649374A00F03CF83648374915
:1062B000374A00F037F837483749384A00F032F8A3
:1062C00037483849384A00F02DF838483849394AB3
:1062D00000F028F838483949394A00F023F839489D
:1062E0003949002200F036F838483949002200F0D8
:1062F00031F838483849091A12F026FB374A9047D6
:1063000025482649884205D00268043003B49047E6
:1063100003BCF7E700208646EC4600200021304A07
:106320009047FEE7884214D0521A12D003460B431E
:1063300013430324234206D1036804300B60043165
:10634000043AF9D17047037801300B700131013AFA
:10635000F9D17047884202D002700130FAE77047E5
:106360000000012000E000200000012000000120CA
:10637000F0D70300842200200C230020E4630200F5
:10638000E4630200068D0300F0D70300842200209E
:1063900084220020988E0300988E0300988E0300BC
:1063A000988E0300988E0300988E0300988E030049
:1063B000988E0300EDD7030078D803000C2300204B
:1063C0000C2300200C230020685400206854002077
:1063D000705400207054002070740020416202004C
:0463E000296A020024
:1063E40000B585B00190019B002B0AD0074B43F008
:1063F40001030393019B9B010293039B029898471B
:1064040000E000BF05B05DF804FB00BF508F03003F
:1064140000B589B0059003921A460B468DF81330E7
:1064240013468DF8123000230793059B181D9DF821
:1064340012209DF813109DF8283000931346039AF8
:106444000AF01EFC0790079B184609B05DF804FB90
:1064540000B587B0039001921A460B468DF80B30B5
:1064640013468DF80A3000230593039B181D9DF8ED
:106474000A309DF80B10019A0AF02AFC0590059B3E
:10648400184607B05DF804FB00B583B00190019B8A
:10649400002B0AD04FF47A70FFF7A2FF019B013B57
:1064A4000193019B002BF5D100E000BF03B05DF820
:1064B40004FB000000B583B00A23019302E001202D
:1064C400FFF7E2FF134B1B78DBB283F00103DBB26F
:1064D400002B04D0019B5A1E0192002BEFD10D4BCF
:1064E4001B78DBB283F00103DBB2002B0CD00A4A29
:1064F4000A4BD31ADB081B0443F00103084918466E
:1065040010F02CFB002300E00123184603B05DF8D3
:1065140004FB00BF70230020B48D03007C8D0300B6
:10652400988E030000B587B003460A468DF80F30F5
:1065340013468DF80E309DF80F308DF810309DF80D
:106544000E308DF81130164B00221A7004AA002365
:106554000093022368211348FFF75AFF0590059B17
:10656400002B0DD0104A114BD31ADB081B0443F047
:106574000103059A0E49184610F0FEFA00230AE0BA
:10658400FFF798FF034683F00103DBB2002B01D031
:10659400002300E00123184607B05DF804FB00BFA8
:1065A4007023002010930300B48D03007C8D03003E
:1065B400B08E030000B587B0034602918DF80F300A
:1065C40013468DF80E30294B00221A700DF10F027C
:1065D40001230093012368212548FFF719FF059043
:1065E400059B002B0DD0234A234BD31ADB081B0435
:1065F40043F00103059A2149184610F0BDFA00231F
:1066040030E0FFF757FF034683F00103DBB2002BB2
:1066140001D0002326E0154B00221A709DF80E309D
:10662400029A68211248FFF713FF0590059B002B7F
:106634000DD0104A104BD31ADB081B0443F001039E
:10664400059A0F49184610F097FA00230AE0FFF75D
:1066540031FF034683F00103DBB2002B01D000239A
:1066640000E00123184607B05DF804FB7023002006
:1066740010930300B48D03007C8D0300CC8E0300C3
:10668400EC8E030000B583B0304A314BD31ADB08DB
:106694001B0443F003032F49184610F05FFA01234B
:1066A4008DF8073000216B20FFF73CFF03461A46A4
:1066B4009DF807301340002B14BF012300238DF8ED
:1066C40007306420FFF7E0FE00211A20FFF72AFFBD
:1066D40003461A469DF807301340002B14BF0123CC
:1066E40000238DF8073000211C20FFF71BFF034611
:1066F4001A469DF807301340002B14BF01230023D2
:106704008DF807309DF8073083F00103DBB2002BCE
:106714000BD00E4A0E4BD31ADB081B0443F00103C3
:106724000D49184610F01AFA0AE0084A084BD31A21
:10673400DB081B0443F003030849184610F00EFA63
:106744009DF80730184603B05DF804FBB48D0300D0
:106754007C8D0300088F0300248F0300408F030007
:1067640000B587B003900291019204AB062219464A
:106774003B20FFF71FFF034683F00103DBB2002B2E
:1067840001D0002324E09DF810301BB21B021AB282
:106794009DF811301BB213431AB2039B1A809DF863
:1067A40012301BB21B021AB29DF813301BB21343F2
:1067B4001AB2029B1A809DF814301BB21B021AB243
:1067C4009DF815301BB213431AB2019B1A800123A2
:1067D400184607B05DF804FB034B00221A60034B14
:1067E40000221A7000BF70470C23002010230020E1
:1067F40000B587B00DF1020201A90DF10603184698
:10680400FFF7AEFF034683F00103DBB2002B0BD08E
:106814003D4A3E4BD31ADB081B0443F002033C49B8
:10682400184610F09BF96BE0BDF9063007EE903A7C
:10683400B8EEE77ADFED376AC7EE267ACDED057A52
:10684400BDF9043007EE903AB8EEE77ADFED316A2D
:10685400C7EE267ACDED047ABDF9023007EE903A00
:10686400B8EEE77ADFED2B6AC7EE267ACDED037A30
:10687400DDED057A27EEA77ADDED047A67EEA77AD7
:1068840037EE277ADDED037A67EEA77A77EE277A7B
:10689400B0EE670A11F045FD8DED020ADDED027AD6
:1068A4009FED1D7AF4EEC77AF1EE10FA1CDD1B4B56
:1068B4001B7883F00103DBB2002B15D0174B0122A8
:1068C4001A70174B1B680133154A13600E4A0F4B9D
:1068D400D31ADB081B0443F00303114A126811495D
:1068E400184610F049F90BE0DDED027A9FED0E7ABF
:1068F400F4EEC77AF1EE10FA02D5084B00221A70B2
:1069040007B05DF804FB00BFB48D03007C8D030069
:10691400588F0300000080469A99993F1023002065
:106924000C2300206C8F03006666663F72DF70479D
:1069340073DF70477ADF70477CDF70477FDF704713
:106944008FDF704762DF704730B50388103B85B036
:106954000446112B17D8DFE803F00926364816162B
:10696400161616161616161616161618264B274839
:106974002749C01AC008000440F0030010F0EEF8E4
:10698400244BA2885A8105B030BD00238088ADF81D
:106994000C3003A9FFF7D4FF0028F4D01E4A642169
:1069A4000BF04EF8EFE7184B18481C49C01AC00802
:1069B400000440F0030010F0D1F8164B4FF6FF72BC
:1069C4005A8105B030BD104B1048A189E589228950
:1069D400C01AC0080004638940F00300CDE9001523
:1069E4000F4910F004F905B030BD002380881A4621
:1069F4008521FFF7A3FF0028C5D0074A782105B0F9
:106A0400BDE830400BF01CB87C8D0300B48D03004E
:106A1400788F030050230020948F0300848F030099
:106A24000C9003002DE9F04F9BB008F021FA0446C6
:106A3400002840F03281002008F010FB002008F00C
:106A44007DFA4FF4004100200FF066FD002840F06D
:106A540057810FF0F7FC032000F078FBDFF8FC927D
:106A640001F0D2FC01F004FDA84BA949A9EB0309EC
:106A74004FEAD9094FEA094949F00305284610F0BD
:106A84006DF8FFF7FFFD002840F00081A14949F0AF
:106A9400010010F063F800F099FF9F49284610F0B8
:106AA4005DF801F031F89D492246284610F064F85B
:106AB4000BF076FB002840F01D810023CDE9033361
:106AC400059311F023F8002840F00F810BAE00234A
:106AD400314601200B9311F02FF9002840F000817A
:106AE400304611F01DFA002840F0F5808C48FFF77D
:106AF40021FF8C4B0FCB86E80F008B493046FFF704
:106B040021FF002840F0E280112388498DF82C30C1
:106B140008223046FFF710FF002840F0D280844B53
:106B2400A02200219A6001243C223046C3E90011CE
:106B3400C3E9031159611C7012F028F87A4AADF8C0
:106B44003C40022312788DF82C3006214FF4A053D8
:106B54008DF82F108DF81A2006AFADF8183075494E
:106B640010971F230DF10A023046ADF80A3002F0E7
:106B74006AFF002840F0A0800023ADF82A30CDF849
:106B84002230CDF826306B4B0793694ABDF80A30A2
:106B94006948ADF8203007A9FFF7C8FE002840F087
:106BA4008680664800F0EAF8634B01211878FFF705
:106BB400BFFE002876D1624C6249DFF8A4A12846C2
:106BC4000FF0CCFF44F0010400F0E8FFFFF704FEEF
:106BD40001F00EFD78B9514628460FF0BFFF4FF47F
:106BE4007A784FF47A40A047B8F10108F9D101F05E
:106BF400FFFC0028EFD05449DFF86881DFF868B162
:106C040028460FF0ABFF49F00209FFF7F1FD3246C9
:106C140007A93846FFF7A4FD98B3BDF92C300093BB
:106C2400BDF91820BDF91C30484928460FF0C9FFAA
:106C340004AA03A905A801F0B6FDE8B1DDED057AC3
:106C4400B8EE670A01F012F8B8F80030834202D0B7
:106C540008B1A8F800004FF00A0A4FF47A40A047A0
:106C6400BAF1010AF9D110F01FF80028CDD010F0C4
:106C74001BF80028F7D1C8E7354928460FF06EFF06
:106C8400E9E7594648460FF069FFD1E7FFF7A4FD4D
:106C9400304928460FF062FFFDE62F4AE2210AF050
:106CA400CFFEC8E62C4AD5210AF0CAFE83E72A4A59
:106CB400CD210AF0C5FE74E7274ABE210AF0C0FEC2
:106CC4005AE7254A9D210AF0BBFE28E7224A4521BE
:106CD4000AF0B6FE18E7204A8E210AF0B1FE05E755
:106CE4001D4A8B210AF0ACFEFAE61B4A87210AF002
:106CF400A7FEEBE6184A4FF488710AF0A1FEDCE621
:106D0400154AE8210AF09CFEA3E600BF7C8D03002F
:106D1400409003005C90030088900300A49003005B
:106D2400842200209891030014230020C8900300BB
:106D340038230020182300208C2200205023002018
:106D440090910300D4900300189103003C91030038
:106D54007491030078900300948F0300B48D0300B2
:106D6400EC9003001223002060910300A8DF704719
:106D740000BF1846AADF704700BF184600B597B099
:106D840001904D4B1B788DF84A304FF4A053ADF869
:106D94004830019A12AB19460120FFF7E7FF15901E
:106DA400159B1493149B002B04D0444A132114986C
:106DB4000AF046FE0BAB00221A605A609A60DA6051
:106DC4001A615A619A619DF82C3043F002038DF8E0
:106DD4002C309DF82C3043F010038DF82C30364BBA
:106DE4001B788DF82A3041F20143ADF8283009AB05
:106DF40000210A461A800A469A709DF8243001221E
:106E040062F303038DF824309DF82430012262F3E9
:106E140007138DF824309DF8253023F00F038DF8E7
:106E240025309DF8253023F0F0038DF825309DF8AA
:106E34002630012262F342038DF8263004AB00228F
:106E44001A605A609A60DA601A610AAB049309AB5B
:106E540005930223ADF818300223ADF81C3000234B
:106E6400ADF80E300DF10E030893019B1888019BB9
:106E7400023304AA0BA9FFF77DFF1590159B13930A
:106E8400139B002B04D00D4A302113980AF0D8FD2F
:106E9400019B4FF6FF725A81094A0A4BD31ADB0849
:106EA4001B0443F00303084918460FF057FE00BFC4
:106EB40017B05DF804FB00BF14230020A891030061
:106EC400B48D03007C8D03003892030000B583B0B9
:106ED4000190019B1B68184600F0B5F80346002B8F
:106EE40004D105494FF4F6700DF052FA4FF0A04367
:106EF400184603B05DF804FB6C92030000B585B03E
:106F04000190084611461A4603468DF803300B4695
:106F14008DF8023013468DF8013001AB1846FFF7A7
:106F2400D5FF03909DF803209DF802305B001A43BF
:106F34009DF801309B001A439DF818301B0242EA69
:106F440003019DF81C301B04019A1943039B02F5AD
:106F5400E07243F8221000BF05B05DF804FB00B5F1
:106F640085B00390002301930023009300230122A2
:106F740001210398FFF7C2FF00BF05B05DF804FBD1
:106F840000B585B003900B468DF80B309DF80B309F
:106F94000022019200220092002200210398FFF7B0
:106FA400ADFF00BF05B05DF804FB00B585B00190EE
:106FB40001AB1846FFF78AFF0390019B012202FAF6
:106FC40003F31946039800F02AF800BF05B05DF8F2
:106FD40004FB00B585B0019001AB1846FFF776FFBE
:106FE4000390019B012202FA03F31946039800F06F
:106FF40020F800BF05B05DF804FB00B583B0019034
:107004000091009B002B03D10198FFF7E2FF02E0FF
:107014000198FFF7CAFF00BF03B05DF804FB82B01C
:1070240001900091019B009AC3F8082500BF02B0AB
:10703400704782B001900091019B009AC3F80C251F
:1070440000BF02B0704784B00190019B5B090293BA
:1070540000230393029B002B03D14FF0FF330393D0
:1070640000BF019B03F01F030193039A019B22FAC3
:1070740003F303F00103002B14BF01230023DBB24D
:10708400184604B07047000000B583B00190019B1E
:10709400032B03D9074947200DF07AF9064A019BCF
:1070A40013441B7801211846FFF7A7FF00BF03B064
:1070B4005DF804FB9C9203000893030000B583B0C1
:1070C4000023019305E00198FFF7DEFF019B0133E4
:1070D4000193019B032BF6D900BF00BF03B05DF8F9
:1070E40004FB000000B583B00023019309E0094AC2
:1070F400019B13441B781846FFF731FF019B0133B2
:107104000193019B032BF2D9FFF7D8FF00BF03B013
:107114005DF804FB0893030000B583B000230193DA
:107124000AE0094A019B13441B7803211846FFF720
:1071340027FF019B01330193019B032BF1D900BF6E
:1071440000BF03B05DF804FB0C93030000B583B0EB
:107154000190019B03F00103002B01D0FFF7C2FF54
:10716400019B03F00203002B01D0FFF7D5FF00BF02
:1071740003B05DF804FB000084B001900B468DF869
:10718400033013468DF8023000230393019B032B35
:107194003CD89DF80230012B0BD19DF80330012B14
:1071A40004D1019BDBB20E33DBB200E000238DF887
:1071B40002309DF80330022B0FD0022B23DC002B6E
:1071C40016D0012B1FD11449019A13465B001344B6
:1071D4000B449DF802201A701AE00F49019A1346D5
:1071E4005B0013440B4401339DF802201A700FE036
:1071F4000949019A13465B0013440B4402339DF87A
:1072040002201A7004E00723039301E00723039389
:10721400039B184604B070475C23002000B583B07C
:10722400012200210020FFF7A7FF0190019B002B02
:1072340004D0019B072B01D0019B1CE007220221F3
:107244000120FFF799FF0190019B002B04D0019BC3
:10725400072B01D0019B0EE0042202210020FFF73E
:107264008BFF0190019B002B04D0019B072B01D0C5
:10727400019B00E00023184603B05DF804FB00B551
:1072840083B0012202210020FFF776FF0190019BC9
:10729400002B04D0019B072B01D0019B1CE007228B
:1072A40002210120FFF768FF0190019B002B04D00D
:1072B400019B072B01D0019B0EE00A220021002034
:1072C400FFF75AFF0190019B002B04D0019B072B71
:1072D40001D0019B00E00023184603B05DF804FBD5
:1072E40000B585B001900091019B1B88102B02D042
:1072F400112B18D02FE01A4B1B68002B0DD1FFF770
:107304008DFF0390039B002B07D0164B1B68002BAB
:1073140003D0144B1B6803989847114B1B68013327
:107324000F4A136017E00E4B1B68013B0C4A1360B5
:107334000B4B1B68002B0DD1FFF7A1FF0390039BA0
:10734400002B07D0074B1B68002B03D0054B1B6891
:107354000398984700BF00BF05B05DF804FB00BF69
:107364006C2300206823002000B583B001900091B5
:10737400019B1B78022B19D0022B26DC002B02D098
:10738400012B04D021E0134B01221A701EE0124A93
:10739400124BD31ADB081B0443F0030310491846AD
:1073A4000FF0DCFB0B4B01221A700FE00A4A0B4B67
:1073B400D31ADB081B0443F003030A4918460FF0F1
:1073C400CDFB044B01221A7000E000BF00BF03B0E4
:1073D4005DF804FB70230020B48D03007C8D030052
:1073E4002093030034930300F0B58BB001900B4657
:1073F4008DF80330019B002B03D0019B1B78002BDD
:1074040004D14FF000024FF000034BE0002101983B
:1074140010F090FE8DED060B4FF00002254BDDE9D8
:10742400060111F03DF902460B461046194611F0CB
:1074340051FA03460593059B642202FB03F31846A5
:1074440011F06EFA02460B46DDE9060111F08CF8E4
:1074540002460B46CDE90223059811F061FA06466F
:107464000F464FF00002144BDDE9020111F018F948
:1074740002460B463046394610F056FF02460B468C
:10748400CDE908239DF80330532B03D09DF8033036
:10749400572B05D1089C099B83F00045CDE908458D
:1074A400DDE9082343EC172BB0EE470AF0EE670A38
:1074B4000BB0F0BD0000594000004E402DE9F041F2
:1074C400DEB05EABA3F5B27318605EABA3F5B27326
:1074D4000622A649186811F098FA0346002B40F0DA
:1074E4001D815EABA3F5B27312A84FF480721968C4
:1074F40011F06FFA5EABA3F5B073184630231A4649
:10750400002111F043FB00235D9312AB9849184608
:1075140011F0B2FA5C900DE05D9B5A1C5D925EAA7C
:10752400A2F5B0725C9942F823109149002011F041
:10753400A3FA5C905C9B002B02D05D9B0B2BEBD9D8
:107544005D9B062B40F22D825EABA3F5B0739B6866
:107554001B78412B40F025825EABA3F5B073DA684B
:107564005EABA3F5B0731B691B7819461046FFF791
:107574003BFF8DED540B5EABA3F5B0735A695EAB64
:10758400A3F5B0739B691B7819461046FFF72CFFCF
:107594008DED520B774A784BD31ADB081B0443F06A
:1075A40003054FF000024FF00003DDE9540111F030
:1075B40075F90346002B0BD04FF000026F4BDDE949
:1075C400540111F04FF90346002B01D06C4E00E03A
:1075D4006C4EDDE9540111F07DF9034698464FF0F5
:1075E40000024FF00003DDE9540111F03BF90346BA
:1075F400002B12D0DDE9540111F06CF90346184652
:1076040011F08EF902460B46DDE9540110F0ACFF8F
:1076140002460B46104619460FE0DDE9540111F00D
:1076240059F90346184611F07BF9DDE9542310F0AB
:107634009BFF02460B46104619464FF00002524B80
:1076440010F096FF02460B461046194611F042F917
:1076540003461F464FF000024FF00003DDE95201DC
:1076640011F01CF90346002B0BD04FF00002434BE2
:10767400DDE9520111F0F6F80346002B01D0404C2D
:1076840000E0404CDDE9520111F024F90346049373
:107694004FF000024FF00003DDE9520111F0E2F86F
:1076A4000346002B12D0DDE9520111F013F9034611
:1076B400184611F035F902460B46DDE9520110F087
:1076C40053FF02460B46104619460FE0DDE952010E
:1076D40011F000F90346184611F022F9DDE95223AE
:1076E40010F042FF02460B46104619464FF00002C6
:1076F400254B10F03DFF02460B461046194611F08B
:10770400E9F803460393049B0293019400974346CC
:1077140032461E4928460FF09CFA42E15EABA3F5BF
:10772400B27306221A49186811F06FF90346002B48
:1077340040F037815EABA3F5B27312A84FF48072A8
:10774400196811F046F95EABA3F5B0731846282307
:107754001A46002111F01AFA00235B9312AB044974
:10776400184611F089F95A9022E000BF44930300AF
:107774004C930300B48D03007C8D03000000F0BF24
:10778400509303005493030000005940589303009E
:10779400809303005B9B5A1C5B925EAAA2F5B072B5
:1077A4005A9942F823108149002011F065F95A9042
:1077B4005A9B002B02D05B9B092BEBD95B9B052BBF
:1077C40040F2EF805EABA3F5B0739B68002B00F032
:1077D400E8805EABA3F5B0731B69002B00F0E18079
:1077E4005EABA3F5B0739A685EABA3F5B073DB68C8
:1077F4001B7819461046FFF7F7FD8DED580B5EAB6D
:10780400A3F5B0731A695EABA3F5B0735B691B781B
:1078140019461046FFF7E8FD8DED560B644A654B9B
:10782400D31ADB081B0443F003054FF000024FF0AA
:107834000003DDE9580111F031F80346002B0BD0A9
:107844004FF000025C4BDDE9580111F00BF80346E0
:10785400002B01D0594E00E0594EDDE9580111F0DA
:1078640039F8034698464FF000024FF00003DDE973
:10787400580110F0F7FF0346002B12D0DDE9580140
:1078840011F028F80346184611F04AF802460B4650
:10789400DDE9580110F068FE02460B461046194611
:1078A4000FE0DDE9580111F015F80346184611F010
:1078B40037F8DDE9582310F057FE02460B46104610
:1078C40019464FF000023F4B10F052FE02460B46A1
:1078D4001046194610F0FEFF03461F464FF0000203
:1078E4004FF00003DDE9560110F0D8FF0346002BEA
:1078F4000BD04FF00002304BDDE9560110F0B2FF1F
:107904000346002B01D02D4C00E02D4CDDE956013F
:1079140010F0E0FF034604934FF000024FF0000321
:10792400DDE9560110F09EFF0346002B12D0DDE97D
:10793400560110F0CFFF0346184610F0F1FF02463F
:107944000B46DDE9560110F00FFE02460B461046C9
:1079540019460FE0DDE9560110F0BCFF0346184656
:1079640010F0DEFFDDE9562310F0FEFD02460B4663
:10797400104619464FF00002124B10F0F9FD024672
:107984000B461046194610F0A5FF03460393049BCB
:10799400029301940097434632460B4928460FF060
:1079A40058F900BF5EB0BDE8F08100BF4C930300FE
:1079B400B48D03007C8D03000000F0BF50930300DE
:1079C40054930300000059405893030008B5054B35
:1079D40000221A604FF480720021034811F0D6F897
:1079E40000BF08BD742400207423002010B582B0A9
:1079F40003468DF807309DF807300D2B03D09DF812
:107A040007300A2B1FD11A4B1B68002B2DD0184BA3
:107A14001B68184A0021D154174A184BD31ADB08A3
:107A24001B0443F0030413480FF000F803461A46FE
:107A3400134920460FF0A0F80E48FFF73FFD0C4B0A
:107A440000221A6011E00A4B1B68FE2B09D8084B70
:107A54001B685A1C06490A6006499DF80720CA5447
:107A640003E0034B00221A60FFE700BF02B010BD21
:107A74007424002074230020B48D03007C8D030043
:107A84008893030000B585B001900091019B1B7899
:107A9400012B18D1164B1B781846FFF7A7FF0122BC
:107AA4001349144809F046FD0390039B112BF6D0AB
:107AB400039B0293029B002B16D00F4A1D210298B0
:107AC40009F0BEFF10E0019B1B78022B0CD10B4A7E
:107AD4000B4BD31ADB081B0443F00100019BDB684A
:107AE4001A4608490FF048F800BF05B05DF804FBDA
:107AF40078240020949303009C930300B48D030026
:107B04007C8D03002894030030B58DB01D4B01AC6F
:107B14001D460FCD0FC495E80F0084E80F0006231F
:107B2400019308230293184B079300238DF8183010
:107B340000238DF8193001AB144A1946144809F092
:107B44002DFC0B900B9B0A930A9B002B04D0114A2B
:107B540032210A9809F074FF01220F490C4809F0F8
:107B6400E9FC0B900B9B112BF6D00B9B0993099B03
:107B7400002B04D0074A3821099809F061FF00BF9F
:107B84000DB030BD4094030000502700897A0200F4
:107B9400949303009C9303007824002000B583B0E1
:107BA400244A254BD31ADB081B0443F0030323495F
:107BB40018460EF0D3FF224B00221A60214B0022FC
:107BC4001A80214B00221A60204B00221A700023D5
:107BD400ADF806300CE0BDF806301D4A9B00134496
:107BE4004FF000021A60BDF806300133ADF80630DC
:107BF400BDF80630632BEED9164B4FF000021A6025
:107C0400154B164A1A60164B4FF000021A60124BBD
:107C14001B68144A1360074A074BD31ADB081B047A
:107C240043F00303104918460EF098FF00BF03B059
:107C34005DF804FBB48D03007C8D030060940300A5
:107C44007C24002080240020842400208C24002014
:107C540094240020282600209022002000803B4607
:107C640090240020882400208494030010B590B050
:107C74008DED030A9A4A9B4BD31ADB081B0443F08D
:107C84000303994918460EF069FF984B1B680133AA
:107C9400964A1360924A934BD31ADB081B0443F0B1
:107CA4000303924A1268924918460EF065FF9DED4F
:107CB400030A10F019FB0346002B06D19DED030ABD
:107CC40010F01AFB0346002B0DD1854A854BD31ABD
:107CD400DB081B0443F00103864918460EF03EFFFF
:107CE400854B1B88FEE2DDED037A9FED847A27EE57
:107CF400877A834BD3ED007ADFED826A67EEA67A4A
:107D040077EE277A7E4BC3ED007A7D4BD3ED007A74
:107D1400B0EE670A10F0E8FA0346002B09D1784B5D
:107D2400D3ED007AB0EE670A10F0E6FA0346002BB2
:107D34000DD16B4A6B4BD31ADB081B0443F00103D0
:107D4400714918460EF00AFF6D4B704A1A60704B69
:107D540093ED007A6A4BD3ED007A37EE277A6D4BB8
:107D6400D3ED007A77EE677AB6EE007A67EE877A1B
:107D7400674BC3ED007A664BD3ED007AB0EE670A29
:107D840010F0B2FA0346002B09D1614BD3ED007A0F
:107D9400B0EE670A10F0B0FA0346002B12D1504A35
:107DA400504BD31ADB081B0443F001035A4918460D
:107DB4000EF0D4FE564B4FF000021A60504B1B6875
:107DC400544A1360464A474BD31ADB081B0443F05A
:107DD40003004F4BD3ED007AF5EEC07AF1EE10FAC2
:107DE4000BD54B4BD3ED007ABFEE007AF4EEC77A95
:107DF400F1EE10FA01DD494A00E0494A444BD3ED63
:107E0400007AFDEEE77A17EE901A414BD3ED007A33
:107E1400F5EEC07AF1EE10FA0CDD3D4B93ED007AED
:107E24003B4BD3ED007AFDEEE77AF8EEE77A77EE96
:107E3400677A0BE0364BD3ED007AFDEEE77AB8EEC5
:107E4400E77A334BD3ED007A77EE677A9FED357A94
:107E540067EE877AFDEEE77A17EE903A00930B46C9
:107E640031490EF0AEFE264B1B682A4A1360284B9C
:107E740093ED007A2D4BD3ED007A77EE677ACDED52
:107E8400047A9DED040A10F02FFA0346002B06D164
:107E94009DED040A10F030FA0346002B0DD1104A70
:107EA400104BD31ADB081B0443F001032049184686
:107EB4000EF054FE4FF000030493154B1B681B4A4D
:107EC400136000238DF81730DDED047AF5EEC07AE7
:107ED400F1EE10FA2EDD01238DF8173034E000BFE7
:107EE400B48D03007C8D0300A89403007C2400203F
:107EF400C8940300E894030080240020CDCC4C3DBA
:107F0400902200203333733F2495030000803B46C6
:107F1400902400208824002064950300A495030085
:107F2400A89503000000C842AC9503002C2600204D
:107F3400D0950300DDED047AF5EEC07AF1EE10FA87
:107F440002D5FF238DF8173000238DF827309C4B82
:107F540093ED007A9B4B1B889B4A9B001344D3ED03
:107F6400007A77EE677A964BC3ED007A954B1B88BF
:107F74001846964B1A68944983000B441A60904B38
:107F840093ED007A914BD3ED007A77EE277A8C4B00
:107F9400C3ED007A8B4B1B8801338D4A82FB03129D
:107FA4005111DA178A1A642101FB02F29A1A92B269
:107FB400844B1A80824B93ED007ADFED866AC7EE1C
:107FC400267ACDED067A9DED060A10F08DF903466A
:107FD400002B06D19DED060A10F08EF90346002B06
:107FE40026D17D4A7D4BD31ADB081B0443F00103E1
:107FF4007B4918460EF0B2FD4FF000030693704B18
:108004004FF000021A600023ADF81E300CE0BDF8FA
:108014001E306D4A9B0013444FF000021A60BDF8F5
:108024001E300133ADF81E30BDF81E30632BEED97F
:108034004FF000030E930023ADF836301BE0BDF87B
:108044003630614A9B00134493ED007ADDED067AE5
:1080540077EE677ACDED0F7ADDED0F7A67EEA77ACA
:108064009DED0E7A77EE277ACDED0E7ABDF8363097
:108074000133ADF83630BDF83630632BDFD9DDED92
:108084000E7ADFED546A87EEA67AB0EE470A10F056
:1080940048F98DED080A9DED080A10F025F903460C
:1080A400002B06D19DED080A10F026F90346002B9B
:1080B4000DD1494A494BD31ADB081B0443F0010391
:1080C400484918460EF04AFD4FF000030893DDEDD1
:1080D400087A9FED457A67EE877A9DED067A77EE0A
:1080E400277ACDED0A7A9DED0A0A10F0FDF80346D1
:1080F400002B06D19DED0A0A10F0FEF80346002B72
:108104000CD1354A354BD31ADB081B0443F0010369
:10811400364918460EF022FD069B0A93344B93F918
:108124000030002B40F385809DF91730002B80F23E
:108134008080264BD3ED007A9DED0A7AB4EEE77A7F
:10814400F1EE10FA75D501238DF82730224A234B1E
:10815400D31ADB081B0443F00300264B1A681B4B9D
:10816400D3ED007AF5EEC07AF1EE10FA0BD5174B89
:10817400D3ED007ABFEE007AF4EEC77AF1EE10FA8E
:1081840001DD1D4B00E01D4B1049D1ED007AFDEEE1
:10819400E77A17EE904A0D49D1ED007AF5EEC07AF0
:1081A400F1EE10FA2CDD094991ED007A0749D1ED81
:1081B400007AFDEEE77AF8EEE77A77EE677A2BE05D
:1081C4002826002024260020942400209024002027
:1081D4001F85EB510000C842B48D03007C8D030061
:1081E40014960300609603009A99993FAC96030095
:1081F4008C2400207C240020A4950300A89503006F
:108204003A49D1ED007AFDEEE77AB8EEE77A3749DC
:10821400D1ED007A77EE677A9FED357A67EE877A4B
:10822400FDEEE77A17EE901A0191009431490EF0B1
:10823400DEFC314A9DF8173013709DF82730002B6F
:1082440050D02E4B1A682E4B1B68D31A0B932B4B12
:108254001B682B4A13600B9A13469B0013445B0064
:108264000C930C9BB3F5967F39D30C9B40F2DC52F4
:10827400934234D84EF660220C9BB2FBF3F39AB2CD
:10828400204B1A80204A214BD31ADB081B0443F0ED
:1082940003031C4A12881E4918460EF06DFC00F0B8
:1082A400BEFA034683F00103DBB2002B0BD0164A5F
:1082B400164BD31ADB081B0443F001031549184677
:1082C4000EF04CFC0BE0104A104BD31ADB081B04D5
:1082D40043F002030C9A104918460EF04DFC094B6A
:1082E4001B88FFE7184610B010BD00BF9024002083
:1082F4000000C842009703008C2400207C24002046
:108304008424002080240020B48D03007C8D03008D
:1083140034970300509703007C97030000B585B0A1
:108324000190019B002B0AD0074B43F001030393F8
:10833400019B9B010293039B0298984700E000BFB6
:1083440005B05DF804FB00BF5098030000B583B08E
:108354000190019B0433184608F04CF900BF03B0A8
:108364005DF804FB00B589B0059003921A460B46EC
:108374008DF8133013468DF8123000230793059BB4
:10838400181D9DF812209DF813109DF828300093B5
:108394001346039A08F074FC0790079B184609B02B
:1083A4005DF804FB00B587B0039001921A460B46B2
:1083B4008DF80B3013468DF80A3000230593039B88
:1083C400181D9DF80A309DF80B10019A08F080FCE6
:1083D4000590059B184607B05DF804FB00B583B013
:1083E4000190019B002B0AD04FF47A70FFF796FF9F
:1083F400019B013B0193019B002BF5D100E000BFE1
:1084040003B05DF804FB000000B587B06B460022A2
:108414001A605A609A60DA601B2300931A2301934E
:108424004FF0CD63029302238DF80C3001238DF8B5
:108434000D30694600230B4A0B4807F061F805909C
:10844400059B0493049B002B04D0084A1E21049826
:1084540009F0F6FA0448FFF779FF00BF07B05DF8AA
:1084640004FB00BF6D73020010930300A097030088
:1084740000B585B01C4A1D4BD31ADB081B0443F01E
:1084840003031B4918460EF069FB01238DF80F30D6
:1084940021E09DF80F1000230093002300221548CB
:1084A400FFF760FF0290029B002B0CD10E4A0F4B8A
:1084B400D31ADB081B0443F003039DF80F200E4975
:1084C40018460EF059FB0220FFF788FF9DF80F3085
:1084D40001338DF80F309DF80F307E2BD9D900BFB2
:1084E40000BF05B05DF804FBB48D03007C8D030070
:1084F40010980300109303002098030000B587B080
:1085040003460A468DF80F3013468DF80E309DF859
:108514000F308DF810309DF80E308DF811300F4B60
:1085240000221A7004AA00230093022357210C4846
:10853400FFF718FF059000BF084B1B78DBB283F0F0
:108544000103DBB2002BF7D1059B002B0CBF0123E9
:108554000023DBB2184607B05DF804FB702300204B
:108564001093030000B587B0034602918DF80F30D5
:1085740013468DF80E301C4B00221A700DF10F02B9
:1085840001230093012357211848FFF7EBFE0590C0
:1085940000BF154B1B78DBB283F00103DBB2002B69
:1085A400F7D1059B002B01D0002319E00E4B0022CC
:1085B4001A709DF80E30029A57210C48FFF7F2FE0C
:1085C400059000BF084B1B78DBB283F00103DBB2DC
:1085D400002BF7D1059B002B0CBF01230023DBB23A
:1085E400184607B05DF804FB7023002010930300C5
:1085F40000B583B001238DF8073040210920FFF72F
:108604007DFF03461A469DF807301340002B14BF24
:10861400012300238DF807306420FFF7DFFE0021DB
:108624000420FFF76BFF03461A469DF807301340FA
:10863400002B14BF012300238DF8073000210520EF
:10864400FFF75CFF03461A469DF807301340002BE2
:1086540014BF012300238DF8073000210620FFF703
:108664004DFF03461A469DF807301340002B14BFF4
:10867400012300238DF807301F210820FFF73EFF58
:1086840003461A469DF807301340002B14BF0123FC
:1086940000238DF8073007210920FFF72FFF034639
:1086A4001A469DF807301340002B14BF0123002302
:1086B4008DF8073047210A20FFF720FF03461A46AA
:1086C4009DF807301340002B14BF012300238DF8BD
:1086D400073001210C20FFF711FF03461A469DF8CD
:1086E40007301340002B14BF012300238DF80730FB
:1086F40001210D20FFF702FF03461A469DF80730BB
:108704001340002B14BF012300238DF807307F2171
:108714000E20FFF7F3FE03461A469DF80730134078
:10872400002B14BF012300238DF8073020210F20D4
:10873400FFF7E4FE03461A469DF807301340002B6A
:1087440014BF012300238DF8073021238DF8063050
:1087540003238DF805309DF8063019461120FFF7E4
:10876400CDFE03461A469DF807301340002B14BF74
:10877400012300238DF807309DF805301946122097
:10878400FFF7BCFE03461A469DF807301340002B42
:1087940014BF012300238DF807309DF807301846D5
:1087A40003B05DF804FB00B589B003900291019217
:1087B40005AB092219460720FFF7D4FE034683F0D0
:1087C4000103DBB2002B01D0002324E09DF8143018
:1087D4001A049DF815301B0213439DF816201A4302
:1087E400029B1A609DF817301A049DF818301B027A
:1087F40013439DF819201A43019B1A609DF81A30FF
:108804001A049DF81B301B0213439DF81C201A43C5
:10881400039B1A600123184609B05DF804FB00B5F8
:1088240083B001238DF8073000210420FFF766FE92
:1088340003461A469DF807301340002B14BF01234A
:1088440000238DF8073000210520FFF757FE03466B
:108854001A469DF807301340002B14BF0123002350
:108864008DF8073000210620FFF748FE03461A461C
:108874009DF807301340002B14BF012300238DF80B
:1088840007309DF80730184603B05DF804FB00007C
:10889400BFF34F8F00BF064BDB6803F4E06204496B
:1088A400044B1343CB60BFF34F8F00BF00BFFDE702
:1088B40000ED00E00400FA0582B01D4B1B68B3F123
:1088C400FF3F0AD11B4B1B68DBB201931A4B1B6899
:1088D4001B0903F00F03009305E0154B1B6801937C
:1088E400164B1B680093019B062B1DD1009B033B79
:1088F400042B17D801A252F823F000BF15890200F7
:10890400198902001D8902002189020025890200BB
:1089140001230AE0012308E0012306E0012304E027
:10892400012302E0012300E00023184602B070474F
:1089340030010010E00F00F0E80F00F034010010E7
:1089440082B0174B1B68DBB20193164B1B681B09E3
:1089540003F00F030093019B062B1DD1009B033BE7
:10896400042B17D801A252F823F000BF8589020016
:10897400898902008D89020091890200958902008B
:1089840001230AE0002308E0002306E0002304E0BA
:10899400002302E0002300E00023184602B07047E1
:1089A400E00F00F0E80F00F082B01D4B1B68B3F13C
:1089B400FF3F0AD11B4B1B68DBB201931A4B1B68A8
:1089C4001B0903F00F03009305E0154B1B6801938B
:1089D400164B1B680093019B062B1DD1009B033B88
:1089E400042B17D801A252F823F000BF058A020015
:1089F400098A02000D8A0200118A0200158A020007
:108A040001230AE0012308E0012306E0012304E036
:108A1400012302E0012300E00023184602B070475E
:108A240030010010E00F00F0E80F00F034010010F6
:108A340082B0174B1B68DBB20193164B1B681B09F2
:108A440003F00F030093019B062B1DD1009B033BF6
:108A5400042B17D801A252F823F000BF758A020034
:108A6400798A02007D8A0200818A0200858A0200D6
:108A740001230AE0002308E0002306E0002304E0C9
:108A8400002302E0002300E00023184602B07047F0
:108A9400E00F00F0E80F00F082B01D4B1B68B3F14B
:108AA400FF3F0AD11B4B1B68DBB201931A4B1B68B7
:108AB4001B0903F00F03009305E0154B1B6801939A
:108AC400164B1B680093019B062B1DD1009B033B97
:108AD400042B17D801A252F823F000BFF58A020034
:108AE400F98A0200FD8A0200018B0200058B020054
:108AF40001230AE0012308E0012306E0012304E046
:108B0400012302E0012300E00023184602B070476D
:108B140030010010E00F00F0E80F00F03401001005
:108B240082B0174B1B68DBB20193164B1B681B0901
:108B340003F00F030093019B062B1DD1009B033B05
:108B4400042B17D801A252F823F000BF658B020052
:108B5400698B02006D8B0200718B0200758B020021
:108B640001230AE0002308E0002306E0002304E0D8
:108B7400002302E0002300E00023184602B07047FF
:108B8400E00F00F0E80F00F082B0174B1B68DBB277
:108B94000193164B1B681B0903F00F030093019B01
:108BA400062B1DD1009B033B042B17D801A252F8BE
:108BB40023F000BFCD8B0200D18B0200D58B0200C5
:108BC400D98B0200DD8B020001230AE0002308E0B8
:108BD400002306E0002304E0002302E0002300E079
:108BE4000023184602B07047E00F00F0E80F00F0D1
:108BF40082B01D4B1B68B3F1FF3F0AD11B4B1B68AE
:108C0400DBB201931A4B1B681B0903F00F0300939B
:108C140005E0154B1B680193164B1B680093019BE1
:108C2400062B1DD1009B033B042B17D801A252F83D
:108C340023F000BF4D8C0200518C0200558C0200C1
:108C4400598C02005D8C020000230AE0002308E036
:108C5400012306E0012304E0012302E0012300E0F4
:108C64000023184602B0704730010010E00F00F0F6
:108C7400E80F00F03401001082B01D4B1B68B3F103
:108C8400FF3F0AD11B4B1B68DBB201931A4B1B68D5
:108C94001B0903F00F03009305E0154B1B680193B8
:108CA400164B1B680093019B062B1DD1009B033BB5
:108CB400042B17D801A252F823F000BFD58C020070
:108CC400D98C0200DD8C0200E18C0200E58C0200EC
:108CD40001230AE0012308E0012306E0012304E064
:108CE400012302E0012300E00023184602B070478C
:108CF40030010010E00F00F0E80F00F03401001024
:108D040082B01D4B1B68B3F1FF3F0AD11B4B1B689C
:108D1400DBB201931A4B1B681B0903F00F0300938A
:108D240005E0154B1B680193164B1B680093019BD0
:108D3400062B1DD1009B033B042B17D801A252F82C
:108D440023F000BF5D8D0200618D0200658D02007D
:108D5400698D02006D8D020001230AE0012308E001
:108D6400012306E0012304E0012302E0012300E0E3
:108D74000023184602B0704730010010E00F00F0E5
:108D8400E80F00F03401001082B0154B1B6801930A
:108D9400144B1B680093019B062B1DD1009B033BC6
:108DA400042B17D801A252F823F000BFC58D02008E
:108DB400C98D0200CD8D0200D18D0200D58D020037
:108DC40000230AE0002308E0002306E0012304E076
:108DD400012302E0012300E00023184602B070479B
:108DE400300100103401001082B0154B1B68019350
:108DF400144B1B680093019B062B1DD1009B033B66
:108E0400042B17D801A252F823F000BF258E0200CC
:108E1400298E02002D8E0200318E0200358E020052
:108E240000230AE0002308E0002306E0002304E016
:108E3400012302E0012300E00023184602B070473A
:108E4400300100103401001008B5FFF7CDFF0346D0
:108E5400002B07D04FF010234FF08042D3F8083294
:108E6400C2F8583500BF08BD00BF044BD3F8003426
:108E7400002BFAD000BF00BF704700BF00E00140E4
:108E840000B583B00190054A019BC2F80435FFF791
:108E9400EBFF00BF03B05DF804FB00BF00E001403E
:108EA400024B034A1A6000BF704700BF942200209F
:108EB4000090D00308B5FFF7FFFC0346002B06D053
:108EC400964B1B681B0A964A03F01F031360FFF7B7
:108ED40037FD0346002B02D0924B934A1A60FFF7EA
:108EE40063FD0346002B06D0904B1B685B0B904A36
:108EF40003F007031360FFF79BFD0346002B05D027
:108F04008C4BDB688B4A23F08073D360FFF7C4FD7E
:108F14000346002B0ED04FF080430022C3F80C21EF
:108F24004FF080430022C3F810214FF08043002209
:108F3400C3F83825FFF7F4FD0346002B02D07E4B1F
:108F440003221A60FFF720FE0346002B0BD07B4B55
:108F540005221A607A4B01221A607A4B00221A60A9
:108F6400794B3F221A60FFF743FE0346002B76D06D
:108F74004FF08053754AD3F80434C2F820354FF0CB
:108F84008053724AD3F80834C2F824354FF0805322
:108F94006E4AD3F80C34C2F828354FF080536B4A2C
:108FA400D3F81034C2F82C354FF08053674AD3F805
:108FB4001434C2F830354FF08053644AD3F818346F
:108FC400C2F834354FF08053604AD3F81C34C2F8E9
:108FD40040354FF080535D4AD3F82034C2F844350D
:108FE4004FF08053594AD3F82434C2F848354FF02F
:108FF4008053564AD3F82834C2F84C354FF0805386
:10900400524AD3F82C34C2F850354FF080534F4AAB
:10901400D3F83034C2F854354FF080534B4AD3F868
:109024003434C2F860354FF08053484AD3F83834AA
:10903400C2F864354FF08053444AD3F83C34C2F844
:1090440068354FF08053414AD3F84034C2F86C3548
:109054004FF080533D4AD3F84434C2F87035FFF7DB
:109064000BFE0346002B05D0394B1B68394A03F02D
:109074004F031360FFF744FE0346002B0DD04FF05F
:109084008043D3F8003403F00103002B05D04FF0E4
:1090940080436FF00102C3F80024FFF775FE034616
:1090A400002B05D02C4B1B682B4A43F480631360C0
:1090B4002A4BD3F88830294A43F47003C2F8883025
:1090C400BFF34F8F00BFBFF36F8F00BFFFF7BCFE2E
:1090D4004FF01023D3F80032002B05DB4FF01023A0
:1090E400D3F80432002B15DA0120FFF7C9FE4FF044
:1090F40010231522C3F80022FFF7B6FE4FF0102309
:109104001522C3F80422FFF7AFFE0020FFF7B8FED4
:10911400FFF7BEFBFFF7C4FE00BF08BD2403001029
:109124004035014074C007400DF0ADBA4402001050
:109134003C050040F0ED00E0A00500401056004062
:1091440088560040185600401456004000C00040A5
:1091540058020010E40E00403C17004000ED00E00F
:109164006DDF704700BF184679DF704700BF1846AF
:109174007DDF704700BF184664DF704700BF1846A4
:1091840082B003460091ADF80630BDF80630DAB27D
:10919400009B1A70BDF806301B0A9AB2009B01337B
:1091A400D2B21A700223184602B0704700B589B0D3
:1091B400039002911346ADF80630029B1B8803F11D
:1091C4000902BDF806309A4201D90C2353E004ABDE
:1091D4001846FFF7C5FF0790079B0693069B002BD5
:1091E40001D0069B47E0029B1B881A46039B13444D
:1091F40008221A70029B1B8801339AB2029B1A80C0
:10920400029B1B881A46039B13441B221A70029B61
:109214001B8801339AB2029B1A80029B1B881A4650
:10922400039B981804AB0133062219460FF07CFC0B
:10923400029B1B8806339AB2029B1A809DF8103059
:1092440023F00103DBB2002B07D1029B1B881A46D3
:10925400039B134400221A7006E0029B1B881A46E3
:10926400039B134401221A70029B1B8801339AB298
:10927400029B1A800023184609B05DF804FB00B570
:1092840089B0039002910192ADF80230039B1B78E0
:10929400012B05D1039B5B78002B01D1072391E0BF
:1092A400019B1B889A1CBDF802309A420ED8039B7E
:1092B4001B78012B0CD1019B1B881A46039B5B78FE
:1092C40013449A1CBDF802309A4201D90C2379E068
:1092D400019B1B88BDF80220D31A9BB2023BADF858
:1092E4001C30BDF81C30ADF81230019B1B880233D2
:1092F400029A13440DF1120211461846FFF738FF83
:109304000690069B0593059B002B01D0059B59E015
:10931400039B1B78022B06D0039B5B781A46BDF88F
:1093240012309A4209D3BDF81230BDF81C209A427B
:1093340003D309238DF81F3016E008238DF81F305E
:10934400039B1B78012B0BD1039B5B781A46BDF85A
:109354001C30934204D3039B5B78ADF8123003E0D6
:10936400BDF81C30ADF81230BDF81230FE2B01D917
:109374000C2327E0BDF81230DAB2019B1B88194692
:10938400029B0B440132D2B21A70019B1B88013339
:109394009AB2019B1A80019B1B881A46029B1344B4
:1093A4009DF81F201A70019B1B8801339AB2019B00
:1093B4001A80019B1A88BDF8123013449AB2019B9B
:1093C4001A800023184609B05DF804FB00B589B083
:1093D400039002911346ADF80630029B1B881A1DB8
:1093E400BDF806309A4201D90C233AE00DF1160378
:1093F4001846FFF7B9FE0790079B0693069B002BC0
:1094040001D0069B2DE0029B1B881A46039B134444
:1094140003221A70029B1B8801339AB2029B1A80A2
:10942400029B1B881A46039B134419221A70029B41
:109434001B8801339AB2029B1A80BDF81620029B46
:109444001B881946039B0B4419461046FFF798FEE8
:1094540003461A46029B1B8813449AB2029B1A8045
:109464000023184609B05DF804FB84B00291019210
:109474001A4603468DF80F301346ADF80C30019BA5
:109484001B88DA1CBDF80C309A4201D90C2328E061
:10949400019B1B881A46029B134402221A70019BEB
:1094A4001B8801339AB2019B1A80019B1B881A46C0
:1094B400029B134401221A70019B1B8801339AB248
:1094C400019B1A80019B1B881A46029B13449DF83A
:1094D4000F201A70019B1B8801339AB2019B1A80DA
:1094E4000023184604B0704784B0029101921A46D2
:1094F40003468DF80F301346ADF80C30019B1B88E2
:10950400DA1CBDF80C309A4201D90C2328E0019BE7
:109514001B881A46029B134402221A70019B1B8863
:1095240001339AB2019B1A80019B1B881A46029B45
:1095340013440A221A70019B1B8801339AB2019BBF
:109544001A80019B1B881A46029B13449DF80F2026
:109554001A70019B1B8801339AB2019B1A80002365
:10956400184604B0704700B58FB0039001930B46C2
:109574008DF80B3013468DF80A3000238DF8333004
:10958400109B1B88ADF8303000230D9370E0039BD3
:109594005A680D9B9B001A4405AB106818600DF1C6
:1095A4001B0105AB00221846FFF7E6FD0A900A9B53
:1095B4000993099B002B01D0099B7BE09DF81B308C
:1095C4009DF80A209A4250D19DF83330002B01D0E7
:1095D400002300E002238DF82330109B1B881A46D9
:1095E4009DF81B301A449DF823301A44BDF84430CA
:1095F4009A4201DD0C235DE09DF8333083F00103D2
:10960400DBB2002B16D0109B1B8801339AB2109B3F
:109614001A80109B1B881A46019B13449DF80B204B
:109624001A70109B1B8801339AB2109B1A80012375
:109634008DF83330109B1B881A46019B1A440DF198
:109644001B0105AB1846FFF797FD0A900A9B079389
:10965400079B002B01D0079B2CE0109B1B889DF8D7
:109664001B2013449AB2109B1A800D9B01330D9357
:10967400039B1B881A460D9B934288DB9DF833306D
:10968400002B16D0109B1A88BDF83030D31A9BB229
:10969400013BADF82E30BDF82E30FF2B01D90C2341
:1096A40008E0BDF83030019A1344BDF82E20D2B240
:1096B4001A70002318460FB05DF804FB00B58BB098
:1096C400059003930B468DF8133013468DF8123032
:1096D4009DF81310BDF8343001930C9B0093039B49
:1096E40002220598FFF73FFF0990099B0893089B06
:1096F400002B01D0089B14E09DF81210BDF8343003
:1097040001930C9B0093039B10220598FFF72BFFFA
:109714000990099B0793079B002B01D0079B00E04E
:10972400002318460BB05DF804FB82B00190019B46
:109734001B88052B0AD9019B1B88B3F5486F07D9F1
:10974400019B1B884FF6FF72934201D0072325E04B
:10975400019B5B88052B0AD9019B5B88B3F5486F95
:1097640007D9019B5B884FF6FF72934201D0072310
:1097740014E0019B1B884FF6FF7293420DD0019BAE
:109784005B884FF6FF72934207D0019B1A88019BB6
:109794005B889A4201D9072300E00023184602B0EF
:1097A400704700B587B0039002910192ADF8023082
:1097B400019B1B889A1DBDF802309A4201D90C23E3
:1097C4004BE00398FFF7B1FF0590059B0493049BBE
:1097D400002B01D0049B40E0019B1B881A46029B8E
:1097E400134405221A70019B1B8801339AB2019B12
:1097F4001A80019B1B881A46029B134412221A707A
:10980400019B1B8801339AB2019B1A80039B1A881F
:10981400019B1B881946029B0B4419461046FFF70F
:10982400AFFC03461A46019B1B8813449AB2019B62
:109834001A80039B5A88019B1B881946029B0B4480
:1098440019461046FFF79CFC03461A46019B1B88E9
:1098540013449AB2019B1A800023184607B05DF89E
:1098640004FB00B587B0039002910192ADF8023079
:10987400039B9B8802330593019B1B881A46059B17
:1098840013449A1CBDF802309A4201D90C2353E0C8
:10989400059BFE2B01D90C234EE0059BDAB2019BFC
:1098A4001B881946029B0B440132D2B21A70019BE9
:1098B4001B8801339AB2019B1A80019B1B881A46AC
:1098C400029B1344FF221A70019B1B8801339AB236
:1098D400019B1A80039B1A88019B1B881946029BD3
:1098E4000B4419461046FFF74BFC03461A46019BEE
:1098F4001B8813449AB2019B1A80039B9B88002BFC
:1099040019D0039B9B68002B01D1072314E0019B12
:109914001B881A46029B9818039B9968039B9B8893
:109924001A460FF001F9019B1A88039B9B88134484
:109934009AB2019B1A800023184607B05DF804FB15
:1099440000B589B0039002910192ADF80230039BF7
:109954009B6A002B01D1072371E000238DF81F308F
:1099640065E0039B996A9DF81F2013465B0013442E
:109974009B000B440693069B9B8802330593059B2F
:10998400FE2B01D90C235AE0059BDAB2019B1B88FC
:109994001946029B0B440132D2B21A70019B1B88F8
:1099A40001339AB2019B1A80019B1B881A46029BC1
:1099B400134416221A70019B1B8801339AB2019B2F
:1099C4001A80069B1A88019B1B881946029B0B442C
:1099D40019461046FFF7D4FB03461A46019B1B8821
:1099E40013449AB2019B1A80069B9B88002B19D0C2
:1099F400069B9B68002B01D1072320E0019B1B8859
:109A04001A46029B9818069B9968069B9B881A46DF
:109A14000FF08AF8019B1A88069B9B8813449AB21C
:109A2400019B1A809DF81F3001338DF81F30039B72
:109A340093F82C309DF81F209A4292D300231846A5
:109A440009B05DF804FB00B595B00590049103924C
:109A540000231393039B1B88ADF84A30039B002219
:109A64001A80059B93F82D30002B0ED0BDF84A3098
:109A74001A4603990498FFF799FB1390139B1193CB
:109A8400119B002B01D0119BD8E0059B9B78002BE8
:109A94000ED0BDF84A301A4603990498FFF796FC95
:109AA4001390139B1093109B002B01D0109BC5E0C7
:109AB400059BDB78002B10D0059BDB7858B2BDF8F2
:109AC4004A30039A0499FFF7D0FC1390139B0F9329
:109AD4000F9B002B01D00F9BB0E0059B5B68002B14
:109AE40011D0059B5B6893F90000BDF84A30039AD6
:109AF4000499FFF7F9FC1390139B0E930E9B002B14
:109B040001D00E9B9AE0059B1B89002B14D0059B6A
:109B140003F10800BDF84A300193039B0093049BB2
:109B240006220221FFF7CAFD1390139B0D930D9B90
:109B3400002B01D00D9B81E0059B1B8A002B14D0C8
:109B4400059B03F11000BDF84A300193039B009379
:109B5400049B07220321FFF7B1FD1390139B0C9381
:109B64000C9B002B01D00C9B68E0059B1B8B002BEE
:109B740014D0059B03F11800BDF84A300193039BF0
:109B84000093049B15221421FFF798FD1390139B57
:109B94000B930B9B002B01D00B9B4FE0059B1B6A87
:109BA400002B0FD0059B186ABDF84A30039A04991C
:109BB400FFF7F7FD1390139B0A930A9B002B01D028
:109BC4000A9B3BE0059B5B6A002B0FD0059B586A00
:109BD400BDF84A30039A0499FFF743FE1390139B90
:109BE4000993099B002B01D0099B27E0059B93F85F
:109BF4002C30002B0ED0BDF84A30039A04990598F6
:109C0400FFF79EFE1390139B0893089B002B01D033
:109C1400089B13E0059B1B78002B0ED0BDF84A303F
:109C2400039A04990598FFF72AFB1390139B079353
:109C3400079B002B01D0079B00E0139B184615B02F
:109C44005DF804FB84B00346ADF8063000230393AB
:109C540016E00F49039A13469B0013449B000B44E0
:109C64001B88BDF806209A4207D1039A13469B002D
:109C740013449B00064A134406E0039B01330393F9
:109C8400039B002BE5D00023184604B0704700BFA7
:109C94003026002082B001900B46ADF80230019BC3
:109CA400BDF802201A80019B00221A72019B05490B
:109CB40003F10A020B4603CB1060516000BF02B0EF
:109CC400704700BF6026002082B00190019B4FF6D0
:109CD400FF721A8000BF02B0704788B003900291EF
:109CE40011461A460B46ADF806301346ADF804305B
:109CF400039B9B881A46BDF8063013440793039BC5
:109D04009B881946039B9B88BDF80620934228BF75
:109D140013469BB2CB1A0693039BDB881A46BDF805
:109D2400043013440593039BDB881946039BDB88AB
:109D3400BDF80420934228BF13469BB2CB1A049368
:109D4400029B5A88039B1B889A4205D3029B5A881C
:109D5400039B5B889A4201D900231CE0029B9B88E9
:109D64001A46069B934205D8029B9B881A46079B7A
:109D7400934201D200230EE0029BDB881A46049B27
:109D8400934205D8029BDB881A46059B934201D275
:109D9400002300E00123184608B0704700B583B0E3
:109DA4000190064B9B69002B03D0044B9B690198DF
:109DB400984700BF03B05DF804FB00BF44260020B1
:109DC40000B587B003460091ADF80630009B5B7A7E
:109DD400002B1AD1009B1B7A002B03D1164B5B6816
:109DE400059302E0144B9B680593009B5B68BDF8E8
:109DF40006200599184608F011FA0490049B002BDC
:109E040016D00498FFF7CAFF12E0009B00221A72D2
:109E1400094B5B69002B0BD001238DF80C30BDF886
:109E24000630ADF80E30044B5B6903AA1046984720
:109E340000BF07B05DF804FB4426002000B585B0E0
:109E44000190019BDB7B8DF80F30019B9B88ADF863
:109E54000C309DF80F30012B2CD14FF6FF70FFF71B
:109E6400F1FE0290029B002B03D10420FFF796FF22
:109E740021E0BDF80C3019460298FFF70BFF029B56
:109E840003F10A00019B03F110014FF6FF7340F246
:109E9400F312FFF722FF03461A46029B5A72074B3E
:109EA400DB89002B07D1BDF80C3002991846FFF767
:109EB40087FF00E000BF05B05DF804FB44260020E6
:109EC40000B587B00190019B9B88ADF81630BDF8B2
:109ED40016301846FFF7B6FE0490049B002B0ED0F4
:109EE400049B5B68184608F0F1F90390039B002B70
:109EF40002D00398FFF752FF0498FFF7E5FE00BF76
:109F040007B05DF804FB000000B587B00190019B29
:109F140006330593059B1A88194BDB899A422BD18A
:109F2400059B5B89022B27D1019B9B88ADF81230DE
:109F3400BDF812301846FFF785FE0390039B002BF3
:109F44001AD0059B0C33184600F083FB0346002B04
:109F540006D0BDF8123003991846FFF731FF0BE025
:109F6400039B5B68184608F0B1F90290029B002B32
:109F740002D00298FFF712FF00BF07B05DF804FBA0
:109F84004426002000B585B00190019B9B88ADF864
:109F94000E30BDF80E301846FFF754FE0290029BB7
:109FA400002B15D0029B03F10A00019B03F1080169
:109FB4004FF6FF7340F2F312FFF78FFE03461A4683
:109FC400029B5A72BDF80E3002991846FFF7F8FE4C
:109FD40000BF05B05DF804FB00B583B001900091AB
:109FE400019B1B88502B12D0502B18DC122B12D043
:109FF400122B14DC102B02D0112B04D00FE001988B
:10A00400FFF71CFF0CE00198FFF75AFF08E00198E6
:10A01400FFF77AFF04E00198FFF7B4FF00E000BF08
:10A0240000BF03B05DF804FB30B58FB00190009120
:10A0340000230293009B002B1AD000230D9314E0FD
:10A044006B460D9918460AF010FB0346002B09D005
:10A05400029B5A1C02920D9A92B25B0038336B44F5
:10A0640023F82C2C0D9B01330D930D9B132BE7D957
:10A07400019B1D4602AC0FCC0FC50FCC0FC594E855
:10A08400070085E8070001980FB030BD00B583B024
:10A094000346ADF80630BDF80630132B01D9002372
:10A0A4000CE0BDF80630194606480AF089FABDF8F6
:10A0B4000630194604480AF083FA0123184603B00F
:10A0C4005DF804FB702600206C26002000B585B0E6
:10A0D4000346ADF80630002303930DE0039B9B0079
:10A0E400094A13440433BDF80620114618460AF001
:10A0F400A3FA039B01330393039B1D2BEED900BFEB
:10A1040000BF05B05DF804FB6826002000B583B0ED
:10A114000346ADF80630BDF80630194603480AF088
:10A124008BFA00BF03B05DF804FB00BF702600206B
:10A1340030B59BB0184B9B68DB431893164B5A6899
:10A1440018AB114618460AF066FB189A6B4611467E
:10A154001846FFF769FF0DAC6D460FCD0FC40FCD48
:10A164000FC495E8070084E80700002319930BE067
:10A17400199B5B0068336B4433F8303C1846FFF797
:10A18400A5FF199B013319930D9B199A9A42EFD39A
:10A1940000BF00BF1BB030BD6826002000B583B0EF
:10A1A40003468DF807309DF80730194603480AF036
:10A1B4005CFA0346184603B05DF804FB68260020E9
:10A1C40000B583B001900B46ADF8023013468DF80C
:10A1D40001309DF80130002B06D0BDF8023019463D
:10A1E40001980AF0EDF905E0BDF80230194601982E
:10A1F4000AF022FA00BF03B05DF804FB00B585B095
:10A2040001900091019B9B88ADF80E30019B1B8847
:10A21400103B0A2B00F2888001A252F823F000BF01
:10A2240051A202008DA202002DA302002DA3020060
:10A234002DA302002DA302002DA302002DA30200D2
:10A244002DA30200F7A2020099A20200FFF770FFFB
:10A25400BDF80E301846FFF719FF034683F00103DB
:10A26400DBB2002B05D0324AF021042007F0E8FBD2
:10A2740057E0019BDB7B022B53D1BDF80E3019460E
:10A284002C480AF09DF94CE0BDF80E301846FFF753
:10A294003DFF49E0019B1B7AC3F30313DBB28DF846
:10A2A4000D309DF80D30032B8CBF01230023DAB24F
:10A2B400BDF80E3019462048FFF782FF9DF80D3097
:10A2C400022B8CBF01230023DAB2BDF80E301946ED
:10A2D4001A48FFF775FF9DF80D30012B8CBF012341
:10A2E4000023DAB2BDF80E3019461548FFF768FFAF
:10A2F4001AE0019B1B7A002B15D1019B5B7AC3F3F7
:10A30400C003DBB2002B14BF012300238DF80C30F3
:10A314009DF80C20BDF80E3019460748FFF750FF92
:10A3240001E000BF00E000BF00BF05B05DF804FB22
:10A334005898030074260020802600207C260020E4
:10A344007826002000B583B00346ADF80630BDF88A
:10A354000630132B01D9002306E0BDF80630194658
:10A3640003480AF082F90346184603B05DF804FB7B
:10A374006C26002000B585B00346ADF806300023F6
:10A384008DF80F30BDF806301846FFF7DBFF0346A3
:10A39400002B11D0BDF8063019460A480AF065F9B9
:10A3A40003468DF80E309DF80E30002B01D00223A9
:10A3B40000E001238DF80F309DF80F30184605B0EA
:10A3C4005DF804FB7426002000B585B00346ADF8A3
:10A3D400063000238DF80F30BDF806301846FFF71D
:10A3E400B1FF0346002B11D0BDF8063019460A48C8
:10A3F4000AF03BF903468DF80E309DF80E30002B21
:10A4040001D0022300E001238DF80F309DF80F30B6
:10A41400184605B05DF804FB7026002000B583B033
:10A424000346ADF80630BDF806301846FFF78AFF3C
:10A434000346002B07D0BDF80630194604480AF03D
:10A4440014F9034600E00023184603B05DF804FB4A
:10A454007826002000B583B00346ADF80630BDF879
:10A4640006301846FFF76EFF0346002B07D0BDF8F1
:10A474000630194604480AF0F8F8034600E00023C1
:10A48400184603B05DF804FB7C26002000B583B0B9
:10A494000346ADF80630BDF806301846FFF752FF04
:10A4A4000346002B07D0BDF80630194604480AF0CD
:10A4B400DCF8034600E00023184603B05DF804FB13
:10A4C4008026002000B583B003460A46ADF8063066
:10A4D40013468DF805309DF805301846FFF75EFEEB
:10A4E4000346002B16D0BDF806301846FFF72AFFA6
:10A4F4000346002B0ED09DF8053006339B00084A16
:10A5040013440433BDF80620114618460AF0ADF88A
:10A51400034600E00023184603B05DF804FB00BFC7
:10A524006826002000B583B00346ADF806300B461C
:10A534008DF8053013468DF804309DF80530184623
:10A54400FFF72CFE0346002B15D0BDF80630184645
:10A55400FFF7F8FE0346002B0DD09DF805300633B7
:10A564009B00074A134404339DF80420BDF80610E9
:10A574001846FFF725FE00BF03B05DF804FB00BFDB
:10A584006826002000B587B0039002910192029BD7
:10A59400002B01D100231FE000230593039B002B14
:10A5A40019D00023049313E003AB049918460AF06E
:10A5B4005CF80346002B08D0049B9AB2029B0199D5
:10A5C40010469847059B01330593049B013304937C
:10A5D400049B132BE8D9059B184607B05DF804FBD0
:10A5E40000B585B00346029101928DF80F309DF8B5
:10A5F4000F301846FFF7D2FD034683F00103DBB2A8
:10A60400002B01D000230CE09DF80F30074A0633DD
:10A614009B0013445B68019A02991846FFF7B2FF46
:10A624000346184605B05DF804FB00BF6826002009
:10A6340082B00190019B1B781AB2019B01331B78F5
:10A644001BB21B021BB213431BB29BB2184602B0CF
:10A65400704700B585B001900198FFF7E9FF034604
:10A66400ADF80E30BDF80E3003F00103002B14BF1B
:10A6740001230023DBB2184605B05DF804FBA0DF1C
:10A68400704700BF1846A1DF704700BF1846ADDF12
:10A69400704700BF1846B3DF704700BF1846B4DFE9
:10A6A400704700BF1846000000B585B00190019BBB
:10A6B400002B03D10A49852009F06AFE0121019883
:10A6C4000AF04AF80390BFF35F8F00BF039B002B8F
:10A6D4000CBF01230023DBB2184605B05DF804FB70
:10A6E400E899030000B583B00190019B002B03D1CE
:10A6F4000A49922009F04CFE019B1B68012B03D0F0
:10A704000649932009F044FEBFF35F8F00BF019B0D
:10A7140000221A6000BF03B05DF804FBE89903004F
:10A7240000B585B00190019B5B88184601F05AFA88
:10A7340003461A46019B9A800023039308E0084AC3
:10A74400039B52F8233001989847039B01330393EA
:10A75400039B002BF3D000BF00BF05B05DF804FBE2
:10A764009822002082B00190019B9B79012B0BD190
:10A77400019B1B79012B07D1019B5B8842F60212D6
:10A78400934201D1012300E0002303F00103DBB273
:10A79400184602B0704700B589B003460091ADF881
:10A7A400063003AB00221A605A609A60DA601A61BC
:10A7B40008238DF80C30BDF80630ADF80E30009B40
:10A7C400059303AB1846FFF7ABFF00BF09B05DF874
:10A7D40004FB000010B58AB00346ADF80630002330
:10A7E4008DF8273003AB00221A605A609A60DA6051
:10A7F4001A61BDF80630ADF80E30BDF806304FF6DC
:10A80400FF72934261D0BDF80630184600F034FF61
:10A814000890089B43F2020293424BD0089B43F2F8
:10A82400020293422DD8089B112B11D0089B112BA7
:10A8340027D8089B002B03D0089B0B2B0CD020E0BF
:10A844000F238DF80C3003AB1846FFF769FF32E095
:10A8540001238DF827302EE010238DF80C301C4A8C
:10A864001C4BD31ADB081B0443F00203BDF806207B
:10A87400194918460CF080F903AB1846FFF750FF4E
:10A8840019E0134A134BD31ADB081B0443F00104E9
:10A8940008980BF061FC03461A46BDF806300F49D0
:10A8A40020460CF07AF9BDF8063008991846FFF7EF
:10A8B40072FF00E000BF0A4B19789DF82720BDF80D
:10A8C40006301846FFF72EFE00E000BF0AB010BDA8
:10A8D400248E03007C8D0300349A0300B49A030091
:10A8E400E926002000B583B003460A46ADF80630D9
:10A8F40013468DF80530064B19789DF80520BDF8F0
:10A9040006301846FFF70EFE00BF03B05DF804FBE7
:10A91400E826002010B58AB00346ADF806300023BF
:10A924008DF8273000238DF82630BDF80630184600
:10A9340000F0BAFD0890089B43F20202934258D0FB
:10A94400089B43F2020293423AD8089B862B17D005
:10A95400089B862B34D8089B112B0DD0089B112BF8
:10A964002ED8089B002B03D0089B0B2B41D027E04B
:10A9740001238DF826303DE001238DF8273039E09E
:10A9840003AB00221A605A609A60DA601A610723E6
:10A994008DF80C30BDF80630ADF80E301C4A1D4B56
:10A9A400D31ADB081B0443F00203BDF806201A493E
:10A9B40018460CF0E1F803AB1846FFF7B1FE19E0B6
:10A9C400134A144BD31ADB081B0443F00104089800
:10A9D4000BF0C2FB03461A46BDF806300F49204669
:10A9E4000CF0DBF8BDF8063008991846FFF7D3FEE3
:10A9F40000E000BF9DF82720BDF806301146184638
:10AA0400FFF770FF9DF8263018460AB010BD00BF4E
:10AA1400248E03007C8D0300089B0300409B0300ED
:10AA240000B589B003460091ADF8063000238DF8D7
:10AA34001F300DF116031846FFF72DFE0690069BF6
:10AA4400002B04D02A494FF4997009F0A1FC01238A
:10AA5400ADF81C3040E00223ADF808300023ADF817
:10AA64000A3004AB039304A9BDF81C300022184635
:10AA7400FFF715FE0690069B002B01D0069B32E0E3
:10AA84009DF81F3083F00103DBB2002B09D0BDF821
:10AA9400103042F60522934203D101238DF81F3072
:10AAA40015E09DF81F30002B11D0BDF8103042F690
:10AAB400021293420BD1009B039302AABDF81C100F
:10AAC400BDF806301846FFF7E2FD03460BE0BDF87B
:10AAD4001C300133ADF81C30BDF81630BDF81C2015
:10AAE4009A42B8D30523184609B05DF804FB00BFA9
:10AAF400809B030010B58AB00346ADF806300123ED
:10AB04008DF8273000238DF82630BDF8063018461E
:10AB140000F062FE0890089B43F2014293426AD01F
:10AB2400089B43F2014293426BD8089B112B29D80E
:10AB3400089B112B65D801A252F823F095AB0200B3
:10AB440007AC020007AC020007AC020007AC02002D
:10AB540007AC0200E1AB020007AC0200C1AB02008B
:10AB640007AC020007AC020007AC020007AC02000D
:10AB740007AC020007AC020007AC020007AC0200FD
:10AB840039AC0200089B43F20202934254D038E0ED
:10AB940003AB00221A605A609A60DA601A611123CA
:10ABA4008DF80C30BDF80630ADF80E3001238DF869
:10ABB400263003AB1846FFF7B3FD3EE00DF10A0261
:10ABC400BDF8063011461846FFF72AFF0890089B87
:10ABD400002B03D1BDF80A30002B2ED100238DF8B1
:10ABE4002730BDF80630184600F0FCFF034618462F
:10ABF40000F03AFE21E0BDF806301846FFF7EAFD02
:10AC04001BE0184A184BD31ADB081B0443F0010459
:10AC140008980BF0A1FA03461A46BDF8063013490A
:10AC240020460BF0BAFFBDF8063008991846FFF726
:10AC3400B2FD02E000BF00E000BF0D4B19789DF8A3
:10AC44002720BDF806301846FFF76CFC094B19782D
:10AC54009DF82620BDF806301846FFF763FC00BFB8
:10AC64000AB010BD248E03007C8D0300009C0300F9
:10AC7400EA260020EB26002000B583B003460091AD
:10AC8400ADF80630BDF806301846FFF7A3FD00BF47
:10AC940003B05DF804FB000008B5044B1B780022E8
:10ACA40003491846FFF79CFC00BF08BDE9260020B5
:10ACB4007DAC020000B583B003460091ADF80630C8
:10ACC4000A48FFF7F1FC0346002B0CD0BDF8063010
:10ACD4001846FFF71FFE0346002B03D10348FFF776
:10ACE40001FD00E000BF03B05DF804FBE426002092
:10ACF40000B583B003460091ADF806300B4B1A78CB
:10AD0400BDF8063011461846FFF7DCFB034683F016
:10AD14000103DBB2002B04D0BDF806301846FFF760
:10AD2400E9FE00BF03B05DF804FB00BFEB26002082
:10AD340008B5044B1B78002203491846FFF750FC62
:10AD440000BF08BDEA260020F5AC020000B583B0C0
:10AD54000346ADF80630BDF80630184600F018FD7D
:10AD64000346002B07D0064B1978BDF806300122A4
:10AD74001846FFF7D7FB00BF03B05DF804FB00BF24
:10AD8400EA26002000B587B003460091ADF80630EE
:10AD940004AB0422002118460DF0F8FE42F6A62367
:10ADA400ADF8103001238DF812300D4B1B6803935E
:10ADB40003AA04A9BDF806301846FFF760FC059005
:10ADC400059B002B07D1074B1978BDF806300122EB
:10ADD4001846FFF7A7FB00BF07B05DF804FB00BFF0
:10ADE400409C0300ED26002000B585B00346ADF875
:10ADF4000630BDF80630184600F0F4FE0346184647
:10AE040002AA0023092101F0EEF90346052B07D11C
:10AE1400054B1978BDF8063001221846FFF782FB6E
:10AE240000BF05B05DF804FBEC26002000B583B03C
:10AE34000B4B1B7800220B491846FFF7D1FB0190FE
:10AE4400019B002B07D1084B1B78002207491846A9
:10AE5400FFF7C6FB019000BF03B05DF804FB00BF21
:10AE6400E8260020B9AC0200EC26002089AD0200DF
:10AE740000B583B00190019B1B78002B11D1019B7D
:10AE84005B881846FFF7A6FC019B5B881846FFF712
:10AE94005DFF019B5B881846FFF7A6FFFFF7C6FF1F
:10AEA40000E000BF00BF03B05DF804FB00B589B04B
:10AEB4000190019B1B78092B5ED1019B5B7A002BCF
:10AEC4005AD1019B1B7A082B47D0082B4DDC012B50
:10AED4001BD0072B49D1019B9B88184600F02CFFFF
:10AEE4000346ADF81E30BDF81E304FF6FF72934294
:10AEF4003DD0BDF81E3001211846FFF7F3FCBDF824
:10AF04001E301846FFF770FF31E0019B9B8803AAAF
:10AF14000121184601F0B0FE0690069B002B28D1B3
:10AF2400049B1B78002B24D0019B9B88184600F0BF
:10AF340003FF0346ADF81630BDF816304FF6FF7226
:10AF4400934216D00F4B1978BDF8163001221846DB
:10AF5400FFF7E8FAFFF7ECFE0BE00B4B1B68012B45
:10AF640009D10948FFF7BEFB05E000BF04E000BFBC
:10AF740002E000BF00E000BFFFF758FF00BF09B0C8
:10AF84005DF804FBEA260020E426002010B586B014
:10AF940003460A46ADF8063013468DF8053003AB78
:10AFA40000221A605A600123ADF80C3009238DF891
:10AFB4000E30194B1978BDF8063000221846FFF7F9
:10AFC400B1FA9DF80530002B01D0144B00E0144B6E
:10AFD4000493BDF80630184600F004FE03461846F4
:10AFE40003AB0022194601F0C5F90590059B002B1F
:10AFF4000FD00C4A0C4BD31ADB081B0443F0020499
:10B0040005980BF0A9F803461A46084920460BF0A8
:10B01400B3FD00BF06B010BDEC260020C89D0300A0
:10B02400CC9D0300248E03007C8D0300B49C03009C
:10B0340000B58DB00190019B9B88ADF82C30019B2D
:10B044001B88353B1F2B00F2688101A252F823F0C4
:10B0540065B1020067B202001FB302001FB3020011
:10B064001FB302001FB302001FB302001FB302008C
:10B074001FB302001FB302001FB302001FB302007C
:10B084001FB302001FB302001FB302001FB302006C
:10B094001FB302001FB302001FB302001FB302005C
:10B0A4001FB302001FB302001FB302001FB302004C
:10B0B4001FB302001FB302001FB3020041B102001C
:10B0C4001FB30200D5B002001FB30200E1B00200BA
:10B0D400BDF82C301846FFF77DFB1EE103AB0022C0
:10B0E4001A605A609A60DA601A6112238DF80C3083
:10B0F400BDF82C30ADF80E30BDF82C30184600F0F9
:10B1040071FD0346ADF81030BDF81030184600F05C
:10B11400ABFB864B1978BDF82C3000221846FFF79C
:10B1240001FA834B1978BDF82C3000221846FFF73A
:10B13400F9F903AB1846FFF7F3FAEEE0019B063387
:10B144001846FFF70FFB0346002B00F0DF80BDF825
:10B154002C3001211846FFF7C5FBFFF767FED5E049
:10B1640000238DF82F30019B9B88ADF82C30019B78
:10B174000A3309936F4B1A78BDF82C3011461846E0
:10B18400FFF7A0F9034683F00103DBB2002B40F084
:10B19400BF80684B1978BDF82C3000221846FFF7A1
:10B1A400C1F9019BDB88B3F5857F4CD0019BDB881B
:10B1B400002B0DD0604A614BD31ADB081B0443F00B
:10B1C4000200019BDB881A465D490BF0D5FC3AE08E
:10B1D400099B1B88012B0CD0574A584BD31ADB0808
:10B1E4001B0443F00200099B1B881A4655490BF0C7
:10B1F400C3FC099B5B88012B0DD04F4A4F4BD31ADC
:10B20400DB081B0443F00200099B5B881A464E4985
:10B214000BF0B2FC17E0099B04331988BDF82C30FD
:10B2240000221846FFF72FFA0890089B002B0AD13A
:10B2340001238DF82F30454B1978BDF82C300122AD
:10B244001846FFF76FF99DF82F3083F00103DBB246
:10B25400002B5FD0BDF82C3000211846FFF796FE76
:10B2640058E000238DF82E30019B9B88ADF82C30DC
:10B27400019B0A330A93354B1A78BDF82C301146DA
:10B284001846FFF71FF9034683F00103DBB2002BD6
:10B2940042D12E4B1978BDF82C3000221846FFF706
:10B2A40041F9019BDB88002B0DD0234A234BD31A91
:10B2B400DB081B0443F00200019BDB881A4620498B
:10B2C4000BF05AFC19E00A9B9B88012B0DD01A4AFB
:10B2D4001A4BD31ADB081B0443F002000A9B9B8819
:10B2E4001A4619490BF048FC07E00A9B9B79002B8E
:10B2F40014BF012300238DF82E309DF82E20BDF8B5
:10B304002C3011461846FFF741FE06E000BF04E06A
:10B3140000BF02E000BF00E000BFFFF7BDFCFFF785
:10B3240007FD00BF0DB05DF804FB00BFEB26002055
:10B33400EA260020ED260020248E03007C8D0300E5
:10B34400149D0300509D03008C9D0300EE260020F5
:10B35400AFDF704700BF1846B1DF704700BF184623
:10B36400B2DF704700BF1846B3DF704700BF18460E
:10B3740000B585B00190019B9B88184600F0DCFC69
:10B3840003461A46019B5A800023039308E0084AA7
:10B39400039B52F8233001989847039B013303938E
:10B3A400039B002BF3D000BF00BF05B05DF804FB86
:10B3B4009C22002010B588B02D4A05AB92E803000A
:10B3C40083E8030048E02B4B1B8805A9002218469C
:10B3D40000F0D0FF0790079B002B34D06B4600226F
:10B3E4001A605A609A60DA601A61224B1B88ADF8C1
:10B3F4000430079B112B36D0079B862B07D10723DC
:10B404008DF800306B461846FFF7B2FF2BE01A4A5E
:10B414001A4BD31ADB081B0443F0010407980AF003
:10B424009BFE03461A46134B1B88154920460BF016
:10B43400B4FB08238DF80030079B02936B46184633
:10B44400FFF796FF0FE00B4B1B88184601F062F8DC
:10B4540003461A46074B1A80064B1B884FF6FF72A9
:10B464009342B0D100E000BF00BF08B010BD00BFE0
:10B474003C9E0300F02600202C8E03007C8D0300EC
:10B48400E49D030000B583B00190064B1B884FF682
:10B49400FF72934201D0FFF78DFF00BF03B05DF848
:10B4A40004FB00BFF026002030B58DB00346ADF894
:10B4B4000630BDF80630184600F094FB0346ADF89C
:10B4C4002630BDF826304FF6FF72934202D143F284
:10B4D4000203C5E00123ADF82A3000238DF829309A
:10B4E40000238DF82930BDF82A305A1CADF82A20E3
:10B4F4001A4604ABBDF82600082101F0D3FB0B90DB
:10B504000B9B002B40F0A180059B0893089B032212
:10B514001A60089B991D089B1A1D089B1B68BDF89F
:10B524000600FFF71DFF0B900B9B002B62D102AAB4
:10B53400BDF826300821184601F09EFB0B900B9BAA
:10B54400002B16D00B9B052B13D0474A474BD31A1D
:10B55400DB081B0443F001040B980AF0FDFD0346CD
:10B564001A46BDF80630424920460BF016FB032369
:10B5740076E00B9B052B11D0089B9A88039B9B8834
:10B584009A420BD1089B981D039B991D089B9B888D
:10B594001A460DF0E3F90346002B09D0BDF8262026
:10B5A400BDF826300821184601F03BFC0B9051E011
:10B5B400BDF826300821184601F014FC0690069BBD
:10B5C400002B02D10B230B9344E0274A274BD31AB9
:10B5D400DB081B0443F00104BDF8265006980AF06A
:10B5E400BBFD03462A46234920460BF0D6FA032323
:10B5F4000B932FE00B9B0C2B03D101238DF82930E7
:10B6040004E00B9B052B01D100230B93BDF82630DE
:10B614000821184601F0E6FB0790079B002B19D080
:10B62400114A124BD31ADB081B0443F00104BDF882
:10B63400265007980AF090FD03462A460D492046F5
:10B644000BF0ABFA03230B9304E00B9B072B01D104
:10B654000C230B939DF82930002B7FF441AF0B9BF7
:10B6640018460DB030BD00BF2C8E03007C8D030046
:10B67400449E03007C9E030000B58BB00346ADF8E6
:10B684000630BDF80630184600F0ACFA0346ADF8B3
:10B694001430002308930023ADF81E3003230693CF
:10B6A40001238DF81730BDF814304FF6FF72934222
:10B6B40016D002AABDF814300821184601F0DCFAAD
:10B6C4000990099B002B0BD1039B0493049B063325
:10B6D4000893049B9B88ADF81E30049B1B6806935B
:10B6E400BDF81E20BDF80600069B0899FFF734FE3E
:10B6F4000990099B042B02D11123099331E0099B82
:10B70400082B02D1002309932BE0099B0B2B28D192
:10B7140000238DF81730069B03F00203002B02D0A0
:10B72400012306931DE0089B002B03D1BDF81E30B6
:10B73400002B07D0002308930023ADF81E30032309
:10B7440006930EE00F4A104BD31ADB081B0443F098
:10B754000103BDF806200D4918460BF00DFA03232A
:10B764000993099B0B2BBBD09DF8173083F0010381
:10B77400DBB2002B01D00B230993099B18460BB0B5
:10B784005DF804FB2C8E03007C8D0300FC9E0300FB
:10B7940000B589B00346ADF806300DF117030493E4
:10B7A400BDF80630184600F01DFA0346ADF81E3009
:10B7B40003AABDF81E300121184601F05DFA069077
:10B7C400069B002B01D0002301E0049B1B78184644
:10B7D40009B05DF804FB000010B584B00346ADF871
:10B7E40006304FF6FF73ADF80E301B48FFF7BCFD73
:10B7F4000290029B002B11D0184A194BD31ADB0874
:10B804001B0443F0010402980AF0A6FC03461A46FE
:10B81400144920460BF0B0F903231AE00E4B1988A3
:10B82400BDF80E20BDF806301846FFF791FD0290D2
:10B83400029B43F20302934205D1074B1B88013359
:10B844009AB2054B1A80029B43F203029342E5D05D
:10B85400029B184604B010BDF22600202C8E030073
:10B864007C8D0300749F030000B585B00346ADF8DA
:10B874000630084A02AB92E8030083E8030002A9F9
:10B88400BDF806300022184600F074FD00BF05B074
:10B894005DF804FBC09F030046DF704700BF1846F5
:10B8A40000B585B001900023039308E0084A039B88
:10B8B40052F8233001989847039B01330393039B69
:10B8C400012BF3D900BF00BF05B05DF804FB00BF36
:10B8D400D0A0030084B00190002303930AE0019AEE
:10B8E400039B13441B78002B01D0012306E0039B28
:10B8F40001330393039B0F2BF1D90023184604B0A3
:10B90400704700B583B001900091019B002B02D0D9
:10B91400009B002B01D100231BE0019B1B78C3F388
:10B924004603DAB2009B1B78C3F34603DBB29A42A8
:10B9340001D000230DE0019B581C009B013306221B
:10B9440019460DF00BF80346002B0CBF012300230E
:10B95400DBB2184603B05DF804FB000030B597B0C5
:10B964000190019B1B88102B40F09180019B0AAC35
:10B974001D1D0FCD0FC40FCD0FC495E8070084E83B
:10B9840007004FF6FF73ADF856309DF82C3023F0C6
:10B994000103DBB2062B47D000F08EFC9DF82C305F
:10B9A400C3F34603DBB2012B02DC002B15DA3BE0C8
:10B9B400022B2ED038E0089B03F111020AAB0433AA
:10B9C40011461846FFF79DFF0346002B05D0BDF82E
:10B9D4002630ADF8563000BF26E007AA0DF1260345
:10B9E4001946072000F072FC0346002BE3D11BE04C
:10B9F400089B5A1C0AAB04331146184600F08FFA10
:10BA04000346002B05D0BDF82630ADF8563000BFF4
:10BA140009E007AA0DF126031946072000F056FC99
:10BA24000346002BE4D100BFBDF828301946194A5B
:10BA34000B469B000B445B001344BDF856201A8050
:10BA4400BDF828301946134A0B469B000B445B0093
:10BA5400134402330BAA1068186091889279998074
:10BA64009A71BDF856304FF6FF72934210D0BDF86C
:10BA74002830ADF80A30BDF85630ADF80C3000234C
:10BA84008DF8083002AB1846FFF70AFF00E000BF4C
:10BA940017B030BDF426002000B587B001900091A6
:10BAA400019B11330593009B11330493019B581C94
:10BAB400009B0133102219460CF050FF0346002B63
:10BAC40011D1019B01331846FFF704FF0346002BF5
