:020000022000DC
:106000000000012019620200016202000362020026
:10601000056202000762020009620200000000003F
:106020000000000000000000000000000B62020001
:106030000D620200000000000F6202001162020007
:10604000D9F702001362020071FD0200E90C03009F
:10605000010D0300136202006DFC020013620200D6
:106060005DFF020075FF020013620200136202006E
:106070001362020013620200136202001362020044
:1060800013620200592B0300136202001362020024
:106090001362020013620200617B030013620200BC
:1060A0001362020013620200136202001362020014
:1060B00013620200136202000000000000000000F2
:1060C00013620200136202001362020013620200F4
:1060D000136202001362020013620200000000005B
:1060E00000000000000000000000000000000000B0
:1060F00000000000000000000000000000000000A0
:10610000000000000000000000000000000000008F
:10611000000000000000000000000000000000007F
:10612000000000000000000000000000000000006F
:10613000000000000000000000000000000000005F
:10614000000000000000000000000000000000004F
:10615000000000000000000000000000000000003F
:10616000000000000000000000000000000000002F
:10617000000000000000000000000000000000001F
:10618000000000000000000000000000000000000F
:1061900000000000000000000000000000000000FF
:1061A00000000000000000000000000000000000EF
:1061B00000000000000000000000000000000000DF
:1061C00000000000000000000000000000000000CF
:1061D00000000000000000000000000000000000BF
:1061E00000000000000000000000000000000000AF
:1061F000000000000000000000000000000000009F
:10620000FEE7FEE7FEE7FEE7FEE7FEE7FEE7FEE766
:10621000FEE7FEE700F002B8FFF7FCBF0F484FF0C3
:106220000701884385460E4880470E48016841F4BF
:1062300070010160BFF34F8FBFF36F8F00F01AB88A
:1062400009480A490A4A884207D0521A05D00378F9
:1062500001300B700131013AF9D170470000012083
:10626000498D020088ED00E0748E0300702200204A
:10627000842200203A493B480A1A02D0072291435F
:106280008D46394939480A1A06D00722914381F3CD
:106290000988022282F3148835483649364A00F0CC
:1062A00041F836483649374A00F03CF83648374915
:1062B000374A00F037F837483749384A00F032F8A3
:1062C00037483849384A00F02DF838483849394AB3
:1062D00000F028F838483949394A00F023F839489D
:1062E0003949002200F036F838483949002200F0D8
:1062F00031F838483849091A12F01EFB374A9047DE
:1063000025482649884205D00268043003B49047E6
:1063100003BCF7E700208646EC4600200021304A07
:106320009047FEE7884214D0521A12D003460B431E
:1063300013430324234206D1036804300B60043165
:10634000043AF9D17047037801300B700131013AFA
:10635000F9D17047884202D002700130FAE77047E5
:106360000000012000E000200000012000000120CA
:10637000E4D703008422002004230020E463020009
:10638000E4630200F68C0300E4D7030084220020BB
:1063900084220020888E0300888E0300888E0300EC
:1063A000888E0300888E0300888E0300888E030089
:1063B000888E0300E1D7030064D803000423002083
:1063C0000423002004230020605400206054002097
:1063D0006854002068540020687400204162020064
:0463E000256A020028
:1063E40000B585B00190019B002B0AD0074B43F008
:1063F40001030393019B9B010293039B029898471B
:1064040000E000BF05B05DF804FB00BF408F03004F
:1064140000B589B0059003921A460B468DF81330E7
:1064240013468DF8123000230793059B181D9DF821
:1064340012209DF813109DF8283000931346039AF8
:106444000AF066FB0790079B184609B05DF804FB49
:1064540000B587B0039001921A460B468DF80B30B5
:1064640013468DF80A3000230593039B181D9DF8ED
:106474000A309DF80B10019A0AF072FB0590059BF7
:10648400184607B05DF804FB00B583B00190019B8A
:10649400002B0AD04FF47A70FFF7A2FF019B013B57
:1064A4000193019B002BF5D100E000BF03B05DF820
:1064B40004FB000000B583B00A23019302E001202D
:1064C400FFF7E2FF134B1B78DBB283F00103DBB26F
:1064D400002B04D0019B5A1E0192002BEFD10D4BCF
:1064E4001B78DBB283F00103DBB2002B0CD00A4A29
:1064F4000A4BD31ADB081B0443F00103084918466E
:1065040010F074FA002300E00123184603B05DF88C
:1065140004FB00BF68230020A48D03006C8D0300DE
:10652400888E030000B587B003460A468DF80F3005
:1065340013468DF80E309DF80F308DF810309DF80D
:106544000E308DF81130164B00221A7004AA002365
:106554000093022368211348FFF75AFF0590059B17
:10656400002B0DD0104A114BD31ADB081B0443F047
:106574000103059A0E49184610F046FA00230AE072
:10658400FFF798FF034683F00103DBB2002B01D031
:10659400002300E00123184607B05DF804FB00BFA8
:1065A400682300203C920300A48D03006C8D03003B
:1065B400A08E030000B587B0034602918DF80F301A
:1065C40013468DF80E30294B00221A700DF10F027C
:1065D40001230093012368212548FFF719FF059043
:1065E400059B002B0DD0234A234BD31ADB081B0435
:1065F40043F00103059A2149184610F005FA0023D7
:1066040030E0FFF757FF034683F00103DBB2002BB2
:1066140001D0002326E0154B00221A709DF80E309D
:10662400029A68211248FFF713FF0590059B002B7F
:106634000DD0104A104BD31ADB081B0443F001039E
:10664400059A0F49184610F0DFF900230AE0FFF716
:1066540031FF034683F00103DBB2002B01D000239A
:1066640000E00123184607B05DF804FB682300200E
:106674003C920300A48D03006C8D0300BC8E0300C8
:10668400DC8E030000B583B0304A314BD31ADB08EB
:106694001B0443F003032F49184610F0A7F9012304
:1066A4008DF8073000216B20FFF73CFF03461A46A4
:1066B4009DF807301340002B14BF012300238DF8ED
:1066C40007306420FFF7E0FE00211A20FFF72AFFBD
:1066D40003461A469DF807301340002B14BF0123CC
:1066E40000238DF8073000211C20FFF71BFF034611
:1066F4001A469DF807301340002B14BF01230023D2
:106704008DF807309DF8073083F00103DBB2002BCE
:106714000BD00E4A0E4BD31ADB081B0443F00103C3
:106724000D49184610F062F90AE0084A084BD31ADA
:10673400DB081B0443F003030849184610F056F91C
:106744009DF80730184603B05DF804FBA48D0300E0
:106754006C8D0300F88E0300148F0300308F030048
:1067640000B587B003900291019204AB062219464A
:106774003B20FFF71FFF034683F00103DBB2002B2E
:1067840001D0002324E09DF810301BB21B021AB282
:106794009DF811301BB213431AB2039B1A809DF863
:1067A40012301BB21B021AB29DF813301BB21343F2
:1067B4001AB2029B1A809DF814301BB21B021AB243
:1067C4009DF815301BB213431AB2019B1A800123A2
:1067D400184607B05DF804FB034B00221A60034B14
:1067E40000221A7000BF70470423002008230020F1
:1067F40000B587B00DF1020201A90DF10603184698
:10680400FFF7AEFF034683F00103DBB2002B0BD08E
:106814003D4A3E4BD31ADB081B0443F002033C49B8
:10682400184610F0E3F86BE0BDF9063007EE903A35
:10683400B8EEE77ADFED376AC7EE267ACDED057A52
:10684400BDF9043007EE903AB8EEE77ADFED316A2D
:10685400C7EE267ACDED047ABDF9023007EE903A00
:10686400B8EEE77ADFED2B6AC7EE267ACDED037A30
:10687400DDED057A27EEA77ADDED047A67EEA77AD7
:1068840037EE277ADDED037A67EEA77A77EE277A7B
:10689400B0EE670A11F03DFD8DED020ADDED027ADE
:1068A4009FED1D7AF4EEC77AF1EE10FA1CDD1B4B56
:1068B4001B7883F00103DBB2002B15D0174B0122A8
:1068C4001A70174B1B680133154A13600E4A0F4B9D
:1068D400D31ADB081B0443F00303114A126811495D
:1068E400184610F091F80BE0DDED027A9FED0E7A78
:1068F400F4EEC77AF1EE10FA02D5084B00221A70B2
:1069040007B05DF804FB00BFA48D03006C8D030089
:10691400488F0300000080469A99993F082300207D
:10692400042300205C8F03006666663F72DF7047B5
:1069340073DF70477CDF70477FDF70478FDF7047FE
:1069440062DF704730B50388103B85B00446112BD5
:1069540017D8DFE803F00926364816161616161659
:106964001616161616161618264B27482749C01A47
:10697400C008000440F0030010F038F8244BA2884B
:106984005A8105B030BD00238088ADF80C3003A9CE
:10699400FFF7D4FF0028F4D01E4A64210AF098FFC0
:1069A400EFE7184B18481C49C01AC008000440F00F
:1069B400030010F01BF8164B4FF6FF725A8105B016
:1069C40030BD104B1048A189E5892289C01AC0083E
:1069D4000004638940F00300CDE900150F4910F06D
:1069E4004EF805B030BD002380881A468521FFF794
:1069F400A3FF0028C5D0074A782105B0BDE8304080
:106A04000AF066BF6C8D0300A48D0300688F030039
:106A140048230020848F0300748F0300FC8F03003D
:106A24002DE9F04F9BB008F06BF90446002840F0C4
:106A34002F81002008F05AFA002008F0C7F94FF41B
:106A4400004100200FF0B0FC002840F054810FF00A
:106A540041FC032000F0C2FADFF8F09201F01CFCC4
:106A640001F04EFCA64BA749A9EB03094FEAD9094B
:106A74004FEA094949F0030528460FF0B7FFFFF72D
:106A840001FE002840F0FD809F4949F001000FF00D
:106A9400ADFF00F0E3FE9D4928460FF0A7FF00F08C
:106AA4007BFF9B49224628460FF0AEFF0BF0C0FA4D
:106AB400002840F01A810023CDE90333059310F038
:106AC4006DFF002840F00C810BAE002331460120FD
:106AD4000B9311F079F8002840F0FD80304611F056
:106AE40067F9002840F0F2808A4B0FCB86E80F004C
:106AF40089493046FFF724FF002840F0E280112343
:106B040086498DF82C3008223046FFF713FF002801
:106B140040F0D280824BA02200219A6001243C22C2
:106B24003046C3E90011C3E9031159611C7012F026
:106B340025F8794AADF83C40022312788DF82C30C0
:106B440006214FF4A0538DF82F108DF81A2006AFAC
:106B5400ADF81830734910971F230DF10A0230461F
:106B6400ADF80A3002F0B7FE002840F0A080002300
:106B7400ADF82A30CDF82230CDF82630694B079392
:106B8400674ABDF80A306848ADF8203007A9FFF716
:106B9400CDFE002840F08680644811F019FA624B5B
:106BA40001211878FFF7C4FE002876D1604C6149B2
:106BB400DFF89CA128460FF019FF44F0010400F00F
:106BC40035FFFFF709FE01F05BFC78B95146284612
:106BD4000FF00CFF4FF47A784FF47A40A047B8F1E5
:106BE4000108F9D101F04CFC0028EFD05249DFF83C
:106BF4006481DFF864B128460FF0F8FE49F0020919
:106C0400FFF7F6FD324607A93846FFF7A9FD98B30A
:106C1400BDF92C300093BDF91820BDF91C3047494B
:106C240028460FF016FF04AA03A905A801F003FDE6
:106C3400E8B1DDED057AB8EE670A00F05FFFB8F859
:106C44000030834202D008B1A8F800004FF00A0ACD
:106C54004FF47A40A047BAF1010AF9D10FF06CFF62
:106C64000028CDD00FF068FF0028F7D1C8E73449D9
:106C740028460FF0BBFEE9E7594648460FF0B6FE3A
:106C8400D1E7FFF7A9FD2F4928460FF0AFFE00E733
:106C94002D4AE2210AF01CFECBE62B4AD5210AF04C
:106CA40017FE83E7284ACD210AF012FE74E7264A2C
:106CB400BE210AF00DFE5AE7234A9D210AF008FE80
:106CC40028E7214A45210AF003FE18E71E4A8E21CF
:106CD4000AF0FEFD08E71C4A8B210AF0F9FDFDE6E7
:106CE400194A87210AF0F4FDEEE6174A4FF4887139
:106CF4000AF0EEFDDFE6144AE8210AF0E9FDA6E613
:106D04006C8D0300309003004C90030078900300D6
:106D140094900300889103000C230020B890030092
:106D24003023002010230020842200204823002048
:106D340080910300C4900300089103002C91030088
:106D44006491030068900300848F0300A48D030002
:106D5400DC9003000A2300205091030000B583B0A7
:106D64000190019B1B68184600F0B5F80346002B00
:106D740004D105494FF4F6700DF052FA4FF0A043D8
:106D8400184603B05DF804FB9891030000B585B084
:106D94000190084611461A4603468DF803300B4607
:106DA4008DF8023013468DF8013001AB1846FFF719
:106DB400D5FF03909DF803209DF802305B001A4331
:106DC4009DF801309B001A439DF818301B0242EADB
:106DD40003019DF81C301B04019A1943039B02F51F
:106DE400E07243F8221000BF05B05DF804FB00B563
:106DF40085B0039000230193002300930023012214
:106E040001210398FFF7C2FF00BF05B05DF804FB42
:106E140000B585B003900B468DF80B309DF80B3010
:106E24000022019200220092002200210398FFF721
:106E3400ADFF00BF05B05DF804FB00B585B001905F
:106E440001AB1846FFF78AFF0390019B012202FA67
:106E540003F31946039800F02AF800BF05B05DF863
:106E640004FB00B585B0019001AB1846FFF776FF2F
:106E74000390019B012202FA03F31946039800F0E0
:106E840020F800BF05B05DF804FB00B583B00190A5
:106E94000091009B002B03D10198FFF7E2FF02E071
:106EA4000198FFF7CAFF00BF03B05DF804FB82B08E
:106EB40001900091019B009AC3F8082500BF02B01D
:106EC400704782B001900091019B009AC3F80C2591
:106ED40000BF02B0704784B00190019B5B0902932C
:106EE40000230393029B002B03D14FF0FF33039342
:106EF40000BF019B03F01F030193039A019B22FA35
:106F040003F303F00103002B14BF01230023DBB2BE
:106F1400184604B07047000000B583B00190019B8F
:106F2400032B03D9074947200DF07AF9064A019B40
:106F340013441B7801211846FFF7A7FF00BF03B0D5
:106F44005DF804FBC89103003492030000B583B0DC
:106F54000023019305E00198FFF7DEFF019B013355
:106F64000193019B032BF6D900BF00BF03B05DF86A
:106F740004FB000000B583B00023019309E0094A33
:106F8400019B13441B781846FFF731FF019B013323
:106F94000193019B032BF2D9FFF7D8FF00BF03B085
:106FA4005DF804FB3492030000B583B00023019321
:106FB4000AE0094A019B13441B7803211846FFF792
:106FC40027FF019B01330193019B032BF1D900BFE0
:106FD40000BF03B05DF804FB3892030000B583B032
:106FE4000190019B03F00103002B01D0FFF7C2FFC6
:106FF400019B03F00203002B01D0FFF7D5FF00BF74
:1070040003B05DF804FB000084B001900B468DF8DA
:10701400033013468DF8023000230393019B032BA6
:107024003CD89DF80230012B0BD19DF80330012B85
:1070340004D1019BDBB20E33DBB200E000238DF8F8
:1070440002309DF80330022B0FD0022B23DC002BDF
:1070540016D0012B1FD11449019A13465B00134427
:107064000B449DF802201A701AE00F49019A134646
:107074005B0013440B4401339DF802201A700FE0A7
:107084000949019A13465B0013440B4402339DF8EB
:1070940002201A7004E00723039301E007230393FB
:1070A400039B184604B070475423002000B583B0F6
:1070B400012200210020FFF7A7FF0190019B002B74
:1070C40004D0019B072B01D0019B1CE00722022165
:1070D4000120FFF799FF0190019B002B04D0019B35
:1070E400072B01D0019B0EE0042202210020FFF7B0
:1070F4008BFF0190019B002B04D0019B072B01D037
:10710400019B00E00023184603B05DF804FB00B5C2
:1071140083B0012202210020FFF776FF0190019B3A
:10712400002B04D0019B072B01D0019B1CE00722FC
:1071340002210120FFF768FF0190019B002B04D07E
:10714400019B072B01D0019B0EE00A2200210020A5
:10715400FFF75AFF0190019B002B04D0019B072BE2
:1071640001D0019B00E00023184603B05DF804FB46
:1071740000B585B001900091019B1B88102B02D0B3
:10718400112B18D02FE01A4B1B68002B0DD1FFF7E1
:107194008DFF0390039B002B07D0164B1B68002B1D
:1071A40003D0144B1B6803989847114B1B68013399
:1071B4000F4A136017E00E4B1B68013B0C4A136027
:1071C4000B4B1B68002B0DD1FFF7A1FF0390039B12
:1071D400002B07D0074B1B68002B03D0054B1B6803
:1071E4000398984700BF00BF05B05DF804FB00BFDB
:1071F400642300206023002000B583B00190009137
:10720400019B1B78022B19D0022B26DC002B02D009
:10721400012B04D021E0134B01221A701EE0124A04
:10722400124BD31ADB081B0443F00303104918461E
:107234000FF0DCFB0B4B01221A700FE00A4A0B4BD8
:10724400D31ADB081B0443F003030A4918460FF062
:10725400CDFB044B01221A7000E000BF00BF03B055
:107264005DF804FB68230020A48D03006C8D0300EB
:107274004C92030060920300F0B58BB001900B4672
:107284008DF80330019B002B03D0019B1B78002B4E
:1072940004D14FF000024FF000034BE000210198AD
:1072A40010F040FF8DED060B4FF00002254BDDE999
:1072B400060111F0EDF902460B461046194611F08D
:1072C40001FB03460593059B642202FB03F3184666
:1072D40011F01EFB02460B46DDE9060111F03CF9F4
:1072E40002460B46CDE90223059811F011FB064630
:1072F4000F464FF00002144BDDE9020111F0C8F90A
:1073040002460B463046394611F006F802460B4653
:10731400CDE908239DF80330532B03D09DF80330A7
:10732400572B05D1089C099B83F00045CDE90845FE
:10733400DDE9082343EC172BB0EE470AF0EE670AA9
:107344000BB0F0BD0000594000004E402DE9F04163
:10735400DEB05EABA3F5B27318605EABA3F5B27397
:107364000622A649186811F048FB0346002B40F09A
:107374001D815EABA3F5B27312A84FF48072196835
:1073840011F01FFB5EABA3F5B073184630231A4609
:10739400002111F0F3FB00235D9312AB98491846CA
:1073A40011F062FB5C900DE05D9B5A1C5D925EAA3D
:1073B400A2F5B0725C9942F823109149002011F0B3
:1073C40053FB5C905C9B002B02D05D9B0B2BEBD999
:1073D4005D9B062B40F22D825EABA3F5B0739B68D8
:1073E4001B78412B40F025825EABA3F5B073DA68BD
:1073F4005EABA3F5B0731B691B7819461046FFF703
:107404003BFF8DED540B5EABA3F5B0735A695EABD5
:10741400A3F5B0739B691B7819461046FFF72CFF40
:107424008DED520B774A784BD31ADB081B0443F0DB
:1074340003054FF000024FF00003DDE9540111F0A1
:1074440025FA0346002B0BD04FF000026F4BDDE909
:10745400540111F0FFF90346002B01D06C4E00E0FB
:107464006C4EDDE9540111F02DFA034698464FF0B5
:1074740000024FF00003DDE9540111F0EBF903467B
:10748400002B12D0DDE9540111F01CFA0346184612
:1074940011F03EFA02460B46DDE9540111F05CF8A6
:1074A40002460B46104619460FE0DDE9540111F07F
:1074B40009FA0346184611F02BFADDE9542311F0BA
:1074C4004BF802460B46104619464FF00002524B49
:1074D40011F046F802460B461046194611F0F2F92F
:1074E40003461F464FF000024FF00003DDE952014E
:1074F40011F0CCF90346002B0BD04FF00002434BA4
:10750400DDE9520111F0A6F90346002B01D0404CED
:1075140000E0404CDDE9520111F0D4F90346049334
:107524004FF000024FF00003DDE9520111F092F92F
:107534000346002B12D0DDE9520111F0C3F90346D2
:10754400184611F0E5F902460B46DDE9520111F047
:1075540003F802460B46104619460FE0DDE95201D6
:1075640011F0B0F90346184611F0D2F9DDE95223BF
:1075740010F0F2FF02460B46104619464FF0000287
:10758400254B10F0EDFF02460B461046194611F04C
:1075940099F903460393049B02930194009743468D
:1075A40032461E4928460FF09CFA42E15EABA3F531
:1075B400B27306221A49186811F01FFA0346002B09
:1075C40040F037815EABA3F5B27312A84FF480721A
:1075D400196811F0F6F95EABA3F5B07318462823C9
:1075E4001A46002111F0CAFA00235B9312AB044936
:1075F400184611F039FA5A9022E000BF7092030045
:1076040078920300A48D03006C8D03000000F0BF8A
:107614007C9203008092030000005940849203008E
:10762400AC9203005B9B5A1C5B925EAAA2F5B072FB
:107634005A9942F823108149002011F015FA5A9002
:107644005A9B002B02D05B9B092BEBD95B9B052B30
:1076540040F2EF805EABA3F5B0739B68002B00F0A3
:10766400E8805EABA3F5B0731B69002B00F0E180EA
:107674005EABA3F5B0739A685EABA3F5B073DB6839
:107684001B7819461046FFF7F7FD8DED580B5EABDE
:10769400A3F5B0731A695EABA3F5B0735B691B788D
:1076A40019461046FFF7E8FD8DED560B644A654B0D
:1076B400D31ADB081B0443F003054FF000024FF01C
:1076C4000003DDE9580111F0E1F80346002B0BD06B
:1076D4004FF000025C4BDDE9580111F0BBF80346A2
:1076E400002B01D0594E00E0594EDDE9580111F04C
:1076F400E9F8034698464FF000024FF00003DDE935
:10770400580111F0A7F80346002B12D0DDE9580107
:1077140011F0D8F80346184611F0FAF802460B4661
:10772400DDE9580110F018FF02460B4610461946D1
:107734000FE0DDE9580111F0C5F80346184611F0D1
:10774400E7F8DDE9582310F007FF02460B46104620
:1077540019464FF000023F4B10F002FF02460B4661
:107764001046194611F0AEF803461F464FF00002CA
:107774004FF00003DDE9560111F088F80346002BB1
:107784000BD04FF00002304BDDE9560111F062F8E6
:107794000346002B01D02D4C00E02D4CDDE95601B1
:1077A40011F090F8034604934FF000024FF00003E9
:1077B400DDE9560111F04EF80346002B12D0DDE945
:1077C400560111F07FF80346184611F0A1F802465D
:1077D4000B46DDE9560110F0BFFE02460B4610468B
:1077E40019460FE0DDE9560111F06CF8034618461E
:1077F40011F08EF8DDE9562310F0AEFE02460B467A
:10780400104619464FF00002124B10F0A9FE024632
:107814000B461046194611F055F803460393049B92
:10782400029301940097434632460B4928460FF0D1
:1078340058F900BF5EB0BDE8F08100BF7892030044
:10784400A48D03006C8D03000000F0BF7C92030044
:1078540080920300000059408492030008B5054B50
:1078640000221A604FF480720021034811F086F957
:1078740000BF08BD6C2400206C23002010B582B02A
:1078840003468DF807309DF807300D2B03D09DF883
:1078940007300A2B1FD11A4B1B68002B2DD0184B15
:1078A4001B68184A0021D154174A184BD31ADB0815
:1078B4001B0443F0030413480FF000F803461A4670
:1078C400134920460FF0A0F80E48FFF73FFD0C4B7C
:1078D40000221A6011E00A4B1B68FE2B09D8084BE2
:1078E4001B685A1C06490A6006499DF80720CA54B9
:1078F40003E0034B00221A60FFE700BF02B010BD93
:107904006C2400206C230020A48D03006C8D0300E4
:10791400B492030000B585B001900091019B1B78DF
:10792400012B18D1164B1B781846FFF7A7FF01222D
:107934001349144809F046FD0390039B112BF6D01C
:10794400039B0293029B002B16D00F4A1D21029821
:1079540009F0BEFF10E0019B1B78022B0CD10B4AEF
:107964000B4BD31ADB081B0443F00100019BDB68BB
:107974001A4608490FF048F800BF05B05DF804FB4B
:1079840070240020C0920300C8920300A48D030059
:107994006C8D03005493030030B58DB01D4B01ACC6
:1079A4001D460FCD0FC495E80F0084E80F00062391
:1079B400019308230293184B079300238DF8183082
:1079C40000238DF8193001AB144A1946144809F004
:1079D4002DFC0B900B9B0A930A9B002B04D0114A9D
:1079E40032210A9809F074FF01220F490C4809F06A
:1079F400E9FC0B900B9B112BF6D00B9B0993099B75
:107A0400002B04D0074A3821099809F061FF00BF10
:107A14000DB030BD6C9303000050270019790200AB
:107A2400C0920300C89203007024002000B583B004
:107A3400244A254BD31ADB081B0443F003032349D0
:107A440018460EF0D3FF224B00221A60214B00226D
:107A54001A80214B00221A60204B00221A70002346
:107A6400ADF806300CE0BDF806301D4A9B00134407
:107A74004FF000021A60BDF806300133ADF806304D
:107A8400BDF80630632BEED9164B4FF000021A6096
:107A9400154B164A1A60164B4FF000021A60124B2F
:107AA4001B68144A1360074A074BD31ADB081B04EC
:107AB40043F00303104918460EF098FF00BF03B0CB
:107AC4005DF804FBA48D03006C8D03008C9303000C
:107AD40074240020782400207C24002084240020A6
:107AE4008C240020202600208822002000803B4691
:107AF4008824002080240020B093030010B590B0A7
:107B04008DED030A9A4A9B4BD31ADB081B0443F0FE
:107B14000303994918460EF069FF984B1B6801331B
:107B2400964A1360924A934BD31ADB081B0443F022
:107B34000303924A1268924918460EF065FF9DEDC0
:107B4400030A10F0C9FB0346002B06D19DED030A7E
:107B540010F0CAFB0346002B0DD1854A854BD31A7E
:107B6400DB081B0443F00103864918460EF03EFF70
:107B7400854B1B88FEE2DDED037A9FED847A27EEC8
:107B8400877A834BD3ED007ADFED826A67EEA67ABB
:107B940077EE277A7E4BC3ED007A7D4BD3ED007AE6
:107BA400B0EE670A10F098FB0346002B09D1784B1E
:107BB400D3ED007AB0EE670A10F096FB0346002B73
:107BC4000DD16B4A6B4BD31ADB081B0443F0010342
:107BD400714918460EF00AFF6D4B704A1A60704BDB
:107BE40093ED007A6A4BD3ED007A37EE277A6D4B2A
:107BF400D3ED007A77EE677AB6EE007A67EE877A8D
:107C0400674BC3ED007A664BD3ED007AB0EE670A9A
:107C140010F062FB0346002B09D1614BD3ED007ACF
:107C2400B0EE670A10F060FB0346002B12D1504AF5
:107C3400504BD31ADB081B0443F001035A4918467E
:107C44000EF0D4FE564B4FF000021A60504B1B68E6
:107C5400544A1360464A474BD31ADB081B0443F0CB
:107C640003004F4BD3ED007AF5EEC07AF1EE10FA33
:107C74000BD54B4BD3ED007ABFEE007AF4EEC77A06
:107C8400F1EE10FA01DD494A00E0494A444BD3EDD4
:107C9400007AFDEEE77A17EE901A414BD3ED007AA5
:107CA400F5EEC07AF1EE10FA0CDD3D4B93ED007A5F
:107CB4003B4BD3ED007AFDEEE77AF8EEE77A77EE08
:107CC400677A0BE0364BD3ED007AFDEEE77AB8EE37
:107CD400E77A334BD3ED007A77EE677A9FED357A06
:107CE40067EE877AFDEEE77A17EE903A00930B463B
:107CF40031490EF0AEFE264B1B682A4A1360284B0E
:107D040093ED007A2D4BD3ED007A77EE677ACDEDC3
:107D1400047A9DED040A10F0DFFA0346002B06D125
:107D24009DED040A10F0E0FA0346002B0DD1104A31
:107D3400104BD31ADB081B0443F0010320491846F7
:107D44000EF054FE4FF000030493154B1B681B4ABE
:107D5400136000238DF81730DDED047AF5EEC07A58
:107D6400F1EE10FA2EDD01238DF8173034E000BF58
:107D7400A48D03006C8D0300D493030074240020AD
:107D8400F49303001494030078240020CDCC4C3DDC
:107D9400882200203333733F5094030000803B4615
:107DA400882400208024002090940300D0940300B1
:107DB400D49403000000C842D89403002426002071
:107DC400FC940300DDED047AF5EEC07AF1EE10FACE
:107DD40002D5FF238DF8173000238DF827309C4BF4
:107DE40093ED007A9B4B1B889B4A9B001344D3ED75
:107DF400007A77EE677A964BC3ED007A954B1B8831
:107E04001846964B1A68944983000B441A60904BA9
:107E140093ED007A914BD3ED007A77EE277A8C4B71
:107E2400C3ED007A8B4B1B8801338D4A82FB03120E
:107E34005111DA178A1A642101FB02F29A1A92B2DA
:107E4400844B1A80824B93ED007ADFED866AC7EE8D
:107E5400267ACDED067A9DED060A10F03DFA03462A
:107E6400002B06D19DED060A10F03EFA0346002BC6
:107E740026D17D4A7D4BD31ADB081B0443F0010352
:107E84007B4918460EF0B2FD4FF000030693704B89
:107E94004FF000021A600023ADF81E300CE0BDF86C
:107EA4001E306D4A9B0013444FF000021A60BDF867
:107EB4001E300133ADF81E30BDF81E30632BEED9F1
:107EC4004FF000030E930023ADF836301BE0BDF8ED
:107ED4003630614A9B00134493ED007ADDED067A57
:107EE40077EE677ACDED0F7ADDED0F7A67EEA77A3C
:107EF4009DED0E7A77EE277ACDED0E7ABDF8363009
:107F04000133ADF83630BDF83630632BDFD9DDED03
:107F14000E7ADFED546A87EEA67AB0EE470A10F0C7
:107F2400F8F98DED080A9DED080A10F0D5F903461D
:107F3400002B06D19DED080A10F0D6F90346002B5C
:107F44000DD1494A494BD31ADB081B0443F0010302
:107F5400484918460EF04AFD4FF000030893DDED42
:107F6400087A9FED457A67EE877A9DED067A77EE7B
:107F7400277ACDED0A7A9DED0A0A10F0ADF9034691
:107F8400002B06D19DED0A0A10F0AEF90346002B32
:107F94000CD1354A354BD31ADB081B0443F00103DB
:107FA400364918460EF022FD069B0A93344B93F98A
:107FB4000030002B40F385809DF91730002B80F2B0
:107FC4008080264BD3ED007A9DED0A7AB4EEE77AF1
:107FD400F1EE10FA75D501238DF82730224A234B90
:107FE400D31ADB081B0443F00300264B1A681B4B0F
:107FF400D3ED007AF5EEC07AF1EE10FA0BD5174BFB
:10800400D3ED007ABFEE007AF4EEC77AF1EE10FAFF
:1080140001DD1D4B00E01D4B1049D1ED007AFDEE52
:10802400E77A17EE904A0D49D1ED007AF5EEC07A61
:10803400F1EE10FA2CDD094991ED007A0749D1EDF2
:10804400007AFDEEE77AF8EEE77A77EE677A2BE0CE
:10805400202600201C2600208C24002088240020B8
:108064001F85EB510000C842A48D03006C8D0300F2
:10807400409503008C9503009A99993FD895030085
:108084008424002074240020D0940300D49403009A
:108094003A49D1ED007AFDEEE77AB8EEE77A37494E
:1080A400D1ED007A77EE677A9FED357A67EE877ABD
:1080B400FDEEE77A17EE901A0191009431490EF023
:1080C400DEFC314A9DF8173013709DF82730002BE1
:1080D40050D02E4B1A682E4B1B68D31A0B932B4B84
:1080E4001B682B4A13600B9A13469B0013445B00D6
:1080F4000C930C9BB3F5967F39D30C9B40F2DC5266
:10810400934234D84EF660220C9BB2FBF3F39AB23E
:10811400204B1A80204A214BD31ADB081B0443F05E
:1081240003031C4A12881E4918460EF06DFC00F029
:10813400BEFA034683F00103DBB2002B0BD0164AD0
:10814400164BD31ADB081B0443F0010315491846E8
:108154000EF04CFC0BE0104A104BD31ADB081B0446
:1081640043F002030C9A104918460EF04DFC094BDB
:108174001B88FFE7184610B010BD00BF88240020FC
:108184000000C8422C96030084240020742400209C
:108194007C24002078240020A48D03006C8D03002F
:1081A400609603007C960300A896030000B585B092
:1081B4000190019B002B0AD0074B43F0010303936A
:1081C400019B9B010293039B0298984700E000BF28
:1081D40005B05DF804FB00BF8097030000B583B0D1
:1081E4000190019B0433184608F04CF900BF03B01A
:1081F4005DF804FB00B589B0059003921A460B465E
:108204008DF8133013468DF8123000230793059B25
:10821400181D9DF812209DF813109DF82830009326
:108224001346039A08F074FC0790079B184609B09C
:108234005DF804FB00B587B0039001921A460B4623
:108244008DF80B3013468DF80A3000230593039BF9
:10825400181D9DF80A309DF80B10019A08F080FC57
:108264000590059B184607B05DF804FB00B583B084
:108274000190019B002B0AD04FF47A70FFF796FF10
:10828400019B013B0193019B002BF5D100E000BF52
:1082940003B05DF804FB000000B587B06B46002214
:1082A4001A605A609A60DA601B2300931A230193C0
:1082B4004FF0CD63029302238DF80C3001238DF827
:1082C4000D30694600230B4A0B4807F061F805900E
:1082D400059B0493049B002B04D0084A1E21049898
:1082E40009F0F6FA0448FFF779FF00BF07B05DF81C
:1082F40004FB00BFFD7102003C920300CC96030016
:1083040000B585B01C4A1D4BD31ADB081B0443F08F
:1083140003031B4918460EF069FB01238DF80F3047
:1083240021E09DF80F10002300930023002215483C
:10833400FFF760FF0290029B002B0CD10E4A0F4BFB
:10834400D31ADB081B0443F003039DF80F200E49E6
:1083540018460EF059FB0220FFF788FF9DF80F30F6
:1083640001338DF80F309DF80F307E2BD9D900BF23
:1083740000BF05B05DF804FBA48D03006C8D030001
:108384003C9703003C9203004C97030000B587B070
:1083940003460A468DF80F3013468DF80E309DF8CB
:1083A4000F308DF810309DF80E308DF811300F4BD2
:1083B40000221A7004AA00230093022357210C48B8
:1083C400FFF718FF059000BF084B1B78DBB283F062
:1083D4000103DBB2002BF7D1059B002B0CBF01235B
:1083E4000023DBB2184607B05DF804FB68230020C5
:1083F4003C92030000B587B0034602918DF80F301C
:1084040013468DF80E301C4B00221A700DF10F022A
:1084140001230093012357211848FFF7EBFE059031
:1084240000BF154B1B78DBB283F00103DBB2002BDA
:10843400F7D1059B002B01D0002319E00E4B00223D
:108444001A709DF80E30029A57210C48FFF7F2FE7D
:10845400059000BF084B1B78DBB283F00103DBB24D
:10846400002BF7D1059B002B0CBF01230023DBB2AB
:10847400184607B05DF804FB682300203C92030013
:1084840000B583B001238DF8073040210920FFF7A0
:108494007DFF03461A469DF807301340002B14BF96
:1084A400012300238DF807306420FFF7DFFE00214D
:1084B4000420FFF76BFF03461A469DF8073013406C
:1084C400002B14BF012300238DF807300021052061
:1084D400FFF75CFF03461A469DF807301340002B54
:1084E40014BF012300238DF8073000210620FFF775
:1084F4004DFF03461A469DF807301340002B14BF66
:10850400012300238DF807301F210820FFF73EFFC9
:1085140003461A469DF807301340002B14BF01236D
:1085240000238DF8073007210920FFF72FFF0346AA
:108534001A469DF807301340002B14BF0123002373
:108544008DF8073047210A20FFF720FF03461A461B
:108554009DF807301340002B14BF012300238DF82E
:10856400073001210C20FFF711FF03461A469DF83E
:1085740007301340002B14BF012300238DF807306C
:1085840001210D20FFF702FF03461A469DF807302C
:108594001340002B14BF012300238DF807307F21E3
:1085A4000E20FFF7F3FE03461A469DF807301340EA
:1085B400002B14BF012300238DF8073020210F2046
:1085C400FFF7E4FE03461A469DF807301340002BDC
:1085D40014BF012300238DF8073021238DF80630C2
:1085E40003238DF805309DF8063019461120FFF756
:1085F400CDFE03461A469DF807301340002B14BFE6
:10860400012300238DF807309DF805301946122008
:10861400FFF7BCFE03461A469DF807301340002BB3
:1086240014BF012300238DF807309DF80730184646
:1086340003B05DF804FB00B589B003900291019288
:1086440005AB092219460720FFF7D4FE034683F041
:108654000103DBB2002B01D0002324E09DF8143089
:108664001A049DF815301B0213439DF816201A4373
:10867400029B1A609DF817301A049DF818301B02EB
:1086840013439DF819201A43019B1A609DF81A3070
:108694001A049DF81B301B0213439DF81C201A4337
:1086A400039B1A600123184609B05DF804FB00B56A
:1086B40083B001238DF8073000210420FFF766FE04
:1086C40003461A469DF807301340002B14BF0123BC
:1086D40000238DF8073000210520FFF757FE0346DD
:1086E4001A469DF807301340002B14BF01230023C2
:1086F4008DF8073000210620FFF748FE03461A468E
:108704009DF807301340002B14BF012300238DF87C
:1087140007309DF80730184603B05DF804FB0000ED
:10872400BFF34F8F00BF064BDB6803F4E0620449DC
:10873400044B1343CB60BFF34F8F00BF00BFFDE773
:1087440000ED00E00400FA0582B01D4B1B68B3F194
:10875400FF3F0AD11B4B1B68DBB201931A4B1B680A
:108764001B0903F00F03009305E0154B1B680193ED
:10877400164B1B680093019B062B1DD1009B033BEA
:10878400042B17D801A252F823F000BFA5870200DA
:10879400A9870200AD870200B1870200B5870200F5
:1087A40001230AE0012308E0012306E0012304E099
:1087B400012302E0012300E00023184602B07047C1
:1087C40030010010E00F00F0E80F00F03401001059
:1087D40082B0174B1B68DBB20193164B1B681B0955
:1087E40003F00F030093019B062B1DD1009B033B59
:1087F400042B17D801A252F823F000BF15880200F9
:10880400198802001D8802002188020025880200C0
:1088140001230AE0002308E0002306E0002304E02B
:10882400002302E0002300E00023184602B0704752
:10883400E00F00F0E80F00F082B01D4B1B68B3F1AD
:10884400FF3F0AD11B4B1B68DBB201931A4B1B6819
:108854001B0903F00F03009305E0154B1B680193FC
:10886400164B1B680093019B062B1DD1009B033BF9
:10887400042B17D801A252F823F000BF95880200F8
:10888400998802009D880200A1880200A588020040
:1088940001230AE0012308E0012306E0012304E0A8
:1088A400012302E0012300E00023184602B07047D0
:1088B40030010010E00F00F0E80F00F03401001068
:1088C40082B0174B1B68DBB20193164B1B681B0964
:1088D40003F00F030093019B062B1DD1009B033B68
:1088E400042B17D801A252F823F000BF0589020017
:1088F400098902000D89020011890200158902000C
:1089040001230AE0002308E0002306E0002304E03A
:10891400002302E0002300E00023184602B0704761
:10892400E00F00F0E80F00F082B01D4B1B68B3F1BC
:10893400FF3F0AD11B4B1B68DBB201931A4B1B6828
:108944001B0903F00F03009305E0154B1B6801930B
:10895400164B1B680093019B062B1DD1009B033B08
:10896400042B17D801A252F823F000BF8589020016
:10897400898902008D89020091890200958902008B
:1089840001230AE0012308E0012306E0012304E0B7
:10899400012302E0012300E00023184602B07047DF
:1089A40030010010E00F00F0E80F00F03401001077
:1089B40082B0174B1B68DBB20193164B1B681B0973
:1089C40003F00F030093019B062B1DD1009B033B77
:1089D400042B17D801A252F823F000BFF589020036
:1089E400F9890200FD890200018A0200058A020059
:1089F40001230AE0002308E0002306E0002304E04A
:108A0400002302E0002300E00023184602B0704770
:108A1400E00F00F0E80F00F082B0174B1B68DBB2E8
:108A24000193164B1B681B0903F00F030093019B72
:108A3400062B1DD1009B033B042B17D801A252F82F
:108A440023F000BF5D8A0200618A0200658A020089
:108A5400698A02006D8A020001230AE0002308E00B
:108A6400002306E0002304E0002302E0002300E0EA
:108A74000023184602B07047E00F00F0E80F00F042
:108A840082B01D4B1B68B3F1FF3F0AD11B4B1B681F
:108A9400DBB201931A4B1B681B0903F00F0300930D
:108AA40005E0154B1B680193164B1B680093019B53
:108AB400062B1DD1009B033B042B17D801A252F8AF
:108AC40023F000BFDD8A0200E18A0200E58A020089
:108AD400E98A0200ED8A020000230AE0002308E08C
:108AE400012306E0012304E0012302E0012300E066
:108AF4000023184602B0704730010010E00F00F068
:108B0400E80F00F03401001082B01D4B1B68B3F174
:108B1400FF3F0AD11B4B1B68DBB201931A4B1B6846
:108B24001B0903F00F03009305E0154B1B68019329
:108B3400164B1B680093019B062B1DD1009B033B26
:108B4400042B17D801A252F823F000BF658B020052
:108B5400698B02006D8B0200718B0200758B020021
:108B640001230AE0012308E0012306E0012304E0D5
:108B7400012302E0012300E00023184602B07047FD
:108B840030010010E00F00F0E80F00F03401001095
:108B940082B01D4B1B68B3F1FF3F0AD11B4B1B680E
:108BA400DBB201931A4B1B681B0903F00F030093FC
:108BB40005E0154B1B680193164B1B680093019B42
:108BC400062B1DD1009B033B042B17D801A252F89E
:108BD40023F000BFED8B0200F18B0200F58B020045
:108BE400F98B0200FD8B020001230AE0012308E057
:108BF400012306E0012304E0012302E0012300E055
:108C04000023184602B0704730010010E00F00F056
:108C1400E80F00F03401001082B0154B1B6801937B
:108C2400144B1B680093019B062B1DD1009B033B37
:108C3400042B17D801A252F823F000BF558C020070
:108C4400598C02005D8C0200618C0200658C02006C
:108C540000230AE0002308E0002306E0012304E0E7
:108C6400012302E0012300E00023184602B070470C
:108C7400300100103401001082B0154B1B680193C1
:108C8400144B1B680093019B062B1DD1009B033BD7
:108C9400042B17D801A252F823F000BFB58C0200B0
:108CA400B98C0200BD8C0200C18C0200C58C02008C
:108CB40000230AE0002308E0002306E0002304E088
:108CC400012302E0012300E00023184602B07047AC
:108CD400300100103401001008B5FFF7CDFF034642
:108CE400002B07D04FF010234FF08042D3F8083206
:108CF400C2F8583500BF08BD00BF044BD3F8003498
:108D0400002BFAD000BF00BF704700BF00E0014055
:108D140000B583B00190054A019BC2F80435FFF702
:108D2400EBFF00BF03B05DF804FB00BF00E00140AF
:108D3400024B034A1A6000BF704700BF8C22002018
:108D44000090D00308B5FFF7FFFC0346002B06D0C4
:108D5400964B1B681B0A964A03F01F031360FFF728
:108D640037FD0346002B02D0924B934A1A60FFF75B
:108D740063FD0346002B06D0904B1B685B0B904AA7
:108D840003F007031360FFF79BFD0346002B05D098
:108D94008C4BDB688B4A23F08073D360FFF7C4FDF0
:108DA4000346002B0ED04FF080430022C3F80C2161
:108DB4004FF080430022C3F810214FF0804300227B
:108DC400C3F83825FFF7F4FD0346002B02D07E4B91
:108DD40003221A60FFF720FE0346002B0BD07B4BC7
:108DE40005221A607A4B01221A607A4B00221A601B
:108DF400794B3F221A60FFF743FE0346002B76D0DF
:108E04004FF08053754AD3F80434C2F820354FF03C
:108E14008053724AD3F80834C2F824354FF0805393
:108E24006E4AD3F80C34C2F828354FF080536B4A9D
:108E3400D3F81034C2F82C354FF08053674AD3F876
:108E44001434C2F830354FF08053644AD3F81834E0
:108E5400C2F834354FF08053604AD3F81C34C2F85A
:108E640040354FF080535D4AD3F82034C2F844357E
:108E74004FF08053594AD3F82434C2F848354FF0A0
:108E84008053564AD3F82834C2F84C354FF08053F7
:108E9400524AD3F82C34C2F850354FF080534F4A1D
:108EA400D3F83034C2F854354FF080534B4AD3F8DA
:108EB4003434C2F860354FF08053484AD3F838341C
:108EC400C2F864354FF08053444AD3F83C34C2F8B6
:108ED40068354FF08053414AD3F84034C2F86C35BA
:108EE4004FF080533D4AD3F84434C2F87035FFF74D
:108EF4000BFE0346002B05D0394B1B68394A03F09F
:108F04004F031360FFF744FE0346002B0DD04FF0D0
:108F14008043D3F8003403F00103002B05D04FF055
:108F240080436FF00102C3F80024FFF775FE034687
:108F3400002B05D02C4B1B682B4A43F48063136031
:108F44002A4BD3F88830294A43F47003C2F8883096
:108F5400BFF34F8F00BFBFF36F8F00BFFFF7BCFE9F
:108F64004FF01023D3F80032002B05DB4FF0102311
:108F7400D3F80432002B15DA0120FFF7C9FE4FF0B5
:108F840010231522C3F80022FFF7B6FE4FF010237A
:108F94001522C3F80422FFF7AFFE0020FFF7B8FE46
:108FA400FFF7BEFBFFF7C4FE00BF08BD240300109B
:108FB4004035014074C007400DF0ADBA44020010C2
:108FC4003C050040F0ED00E0A005004010560040D4
:108FD40088560040185600401456004000C0004017
:108FE40058020010E40E00403C17004000ED00E081
:108FF4006DDF704700BF184679DF704700BF184621
:109004007DDF704700BF184664DF704700BF184615
:1090140082B003460091ADF80630BDF80630DAB2EE
:10902400009B1A70BDF806301B0A9AB2009B0133EC
:10903400D2B21A700223184602B0704700B589B044
:10904400039002911346ADF80630029B1B8803F18E
:109054000902BDF806309A4201D90C2353E004AB4F
:109064001846FFF7C5FF0790079B0693069B002B46
:1090740001D0069B47E0029B1B881A46039B1344BE
:1090840008221A70029B1B8801339AB2029B1A8031
:10909400029B1B881A46039B13441B221A70029BD3
:1090A4001B8801339AB2029B1A80029B1B881A46C2
:1090B400039B981804AB0133062219460FF02CFDCC
:1090C400029B1B8806339AB2029B1A809DF81030CB
:1090D40023F00103DBB2002B07D1029B1B881A4645
:1090E400039B134400221A7006E0029B1B881A4655
:1090F400039B134401221A70029B1B8801339AB20A
:10910400029B1A800023184609B05DF804FB00B5E1
:1091140089B0039002910192ADF80230039B1B7851
:10912400012B05D1039B5B78002B01D1072391E030
:10913400019B1B889A1CBDF802309A420ED8039BEF
:109144001B78012B0CD1019B1B881A46039B5B786F
:1091540013449A1CBDF802309A4201D90C2379E0D9
:10916400019B1B88BDF80220D31A9BB2023BADF8C9
:109174001C30BDF81C30ADF81230019B1B88023343
:10918400029A13440DF1120211461846FFF738FFF4
:109194000690069B0593059B002B01D0059B59E087
:1091A400039B1B78022B06D0039B5B781A46BDF801
:1091B40012309A4209D3BDF81230BDF81C209A42ED
:1091C40003D309238DF81F3016E008238DF81F30D0
:1091D400039B1B78012B0BD1039B5B781A46BDF8CC
:1091E4001C30934204D3039B5B78ADF8123003E048
:1091F400BDF81C30ADF81230BDF81230FE2B01D989
:109204000C2327E0BDF81230DAB2019B1B88194603
:10921400029B0B440132D2B21A70019B1B880133AA
:109224009AB2019B1A80019B1B881A46029B134425
:109234009DF81F201A70019B1B8801339AB2019B71
:109244001A80019B1A88BDF8123013449AB2019B0C
:109254001A800023184609B05DF804FB00B589B0F4
:10926400039002911346ADF80630029B1B881A1D29
:10927400BDF806309A4201D90C233AE00DF11603E9
:109284001846FFF7B9FE0790079B0693069B002B31
:1092940001D0069B2DE0029B1B881A46039B1344B6
:1092A40003221A70029B1B8801339AB2029B1A8014
:1092B400029B1B881A46039B134419221A70029BB3
:1092C4001B8801339AB2029B1A80BDF81620029BB8
:1092D4001B881946039B0B4419461046FFF798FE5A
:1092E40003461A46029B1B8813449AB2029B1A80B7
:1092F4000023184609B05DF804FB84B00291019282
:109304001A4603468DF80F301346ADF80C30019B16
:109314001B88DA1CBDF80C309A4201D90C2328E0D2
:10932400019B1B881A46029B134402221A70019B5C
:109334001B8801339AB2019B1A80019B1B881A4631
:10934400029B134401221A70019B1B8801339AB2B9
:10935400019B1A80019B1B881A46029B13449DF8AB
:109364000F201A70019B1B8801339AB2019B1A804B
:109374000023184604B0704784B0029101921A4643
:1093840003468DF80F301346ADF80C30019B1B8853
:10939400DA1CBDF80C309A4201D90C2328E0019B59
:1093A4001B881A46029B134402221A70019B1B88D5
:1093B40001339AB2019B1A80019B1B881A46029BB7
:1093C40013440A221A70019B1B8801339AB2019B31
:1093D4001A80019B1B881A46029B13449DF80F2098
:1093E4001A70019B1B8801339AB2019B1A800023D7
:1093F400184604B0704700B58FB0039001930B4634
:109404008DF80B3013468DF80A3000238DF8333075
:10941400109B1B88ADF8303000230D9370E0039B44
:109424005A680D9B9B001A4405AB106818600DF137
:109434001B0105AB00221846FFF7E6FD0A900A9BC4
:109444000993099B002B01D0099B7BE09DF81B30FD
:109454009DF80A209A4250D19DF83330002B01D058
:10946400002300E002238DF82330109B1B881A464A
:109474009DF81B301A449DF823301A44BDF844303B
:109484009A4201DD0C235DE09DF8333083F0010343
:10949400DBB2002B16D0109B1B8801339AB2109BB1
:1094A4001A80109B1B881A46019B13449DF80B20BD
:1094B4001A70109B1B8801339AB2109B1A800123E7
:1094C4008DF83330109B1B881A46019B1A440DF10A
:1094D4001B0105AB1846FFF797FD0A900A9B0793FB
:1094E400079B002B01D0079B2CE0109B1B889DF849
:1094F4001B2013449AB2109B1A800D9B01330D93C9
:10950400039B1B881A460D9B934288DB9DF83330DE
:10951400002B16D0109B1A88BDF83030D31A9BB29A
:10952400013BADF82E30BDF82E30FF2B01D90C23B2
:1095340008E0BDF83030019A1344BDF82E20D2B2B1
:109544001A70002318460FB05DF804FB00B58BB009
:10955400059003930B468DF8133013468DF81230A3
:109564009DF81310BDF8343001930C9B0093039BBA
:1095740002220598FFF73FFF0990099B0893089B77
:10958400002B01D0089B14E09DF81210BDF8343074
:1095940001930C9B0093039B10220598FFF72BFF6C
:1095A4000990099B0793079B002B01D0079B00E0C0
:1095B400002318460BB05DF804FB82B00190019BB8
:1095C4001B88052B0AD9019B1B88B3F5486F07D963
:1095D400019B1B884FF6FF72934201D0072325E0BD
:1095E400019B5B88052B0AD9019B5B88B3F5486F07
:1095F40007D9019B5B884FF6FF72934201D0072382
:1096040014E0019B1B884FF6FF7293420DD0019B1F
:109614005B884FF6FF72934207D0019B1A88019B27
:109624005B889A4201D9072300E00023184602B060
:10963400704700B587B0039002910192ADF80230F3
:10964400019B1B889A1DBDF802309A4201D90C2354
:109654004BE00398FFF7B1FF0590059B0493049B2F
:10966400002B01D0049B40E0019B1B881A46029BFF
:10967400134405221A70019B1B8801339AB2019B83
:109684001A80019B1B881A46029B134412221A70EB
:10969400019B1B8801339AB2019B1A80039B1A8891
:1096A400019B1B881946029B0B4419461046FFF781
:1096B400AFFC03461A46019B1B8813449AB2019BD4
:1096C4001A80039B5A88019B1B881946029B0B44F2
:1096D40019461046FFF79CFC03461A46019B1B885B
:1096E40013449AB2019B1A800023184607B05DF810
:1096F40004FB00B587B0039002910192ADF80230EB
:10970400039B9B8802330593019B1B881A46059B88
:1097140013449A1CBDF802309A4201D90C2353E039
:10972400059BFE2B01D90C234EE0059BDAB2019B6D
:109734001B881946029B0B440132D2B21A70019B5A
:109744001B8801339AB2019B1A80019B1B881A461D
:10975400029B1344FF221A70019B1B8801339AB2A7
:10976400019B1A80039B1A88019B1B881946029B44
:109774000B4419461046FFF74BFC03461A46019B5F
:109784001B8813449AB2019B1A80039B9B88002B6D
:1097940019D0039B9B68002B01D1072314E0019B84
:1097A4001B881A46029B9818039B9968039B9B8805
:1097B4001A460FF0B1F9019B1A88039B9B88134446
:1097C4009AB2019B1A800023184607B05DF804FB87
:1097D40000B589B0039002910192ADF80230039B69
:1097E4009B6A002B01D1072371E000238DF81F3001
:1097F40065E0039B996A9DF81F2013465B001344A0
:109804009B000B440693069B9B8802330593059BA0
:10981400FE2B01D90C235AE0059BDAB2019B1B886D
:109824001946029B0B440132D2B21A70019B1B8869
:1098340001339AB2019B1A80019B1B881A46029B32
:10984400134416221A70019B1B8801339AB2019BA0
:109854001A80069B1A88019B1B881946029B0B449D
:1098640019461046FFF7D4FB03461A46019B1B8892
:1098740013449AB2019B1A80069B9B88002B19D033
:10988400069B9B68002B01D1072320E0019B1B88CA
:109894001A46029B9818069B9968069B9B881A4651
:1098A4000FF03AF9019B1A88069B9B8813449AB2DD
:1098B400019B1A809DF81F3001338DF81F30039BE4
:1098C40093F82C309DF81F209A4292D30023184617
:1098D40009B05DF804FB00B595B0059004910392BE
:1098E40000231393039B1B88ADF84A30039B00228B
:1098F4001A80059B93F82D30002B0ED0BDF84A300A
:109904001A4603990498FFF799FB1390139B11933C
:10991400119B002B01D0119BD8E0059B9B78002B59
:109924000ED0BDF84A301A4603990498FFF796FC06
:109934001390139B1093109B002B01D0109BC5E038
:10994400059BDB78002B10D0059BDB7858B2BDF863
:109954004A30039A0499FFF7D0FC1390139B0F939A
:109964000F9B002B01D00F9BB0E0059B5B68002B85
:1099740011D0059B5B6893F90000BDF84A30039A47
:109984000499FFF7F9FC1390139B0E930E9B002B85
:1099940001D00E9B9AE0059B1B89002B14D0059BDC
:1099A40003F10800BDF84A300193039B0093049B24
:1099B40006220221FFF7CAFD1390139B0D930D9B02
:1099C400002B01D00D9B81E0059B1B8A002B14D03A
:1099D400059B03F11000BDF84A300193039B0093EB
:1099E400049B07220321FFF7B1FD1390139B0C93F3
:1099F4000C9B002B01D00C9B68E0059B1B8B002B60
:109A040014D0059B03F11800BDF84A300193039B61
:109A14000093049B15221421FFF798FD1390139BC8
:109A24000B930B9B002B01D00B9B4FE0059B1B6AF8
:109A3400002B0FD0059B186ABDF84A30039A04998D
:109A4400FFF7F7FD1390139B0A930A9B002B01D099
:109A54000A9B3BE0059B5B6A002B0FD0059B586A71
:109A6400BDF84A30039A0499FFF743FE1390139B01
:109A74000993099B002B01D0099B27E0059B93F8D0
:109A84002C30002B0ED0BDF84A30039A0499059867
:109A9400FFF79EFE1390139B0893089B002B01D0A5
:109AA400089B13E0059B1B78002B0ED0BDF84A30B1
:109AB400039A04990598FFF72AFB1390139B0793C5
:109AC400079B002B01D0079B00E0139B184615B0A1
:109AD4005DF804FB84B00346ADF80630002303931D
:109AE40016E00F49039A13469B0013449B000B4452
:109AF4001B88BDF806209A4207D1039A13469B009F
:109B040013449B00064A134406E0039B013303936A
:109B1400039B002BE5D00023184604B0704700BF18
:109B24002826002082B001900B46ADF80230019B3C
:109B3400BDF802201A80019B00221A72019B05497C
:109B440003F10A020B4603CB1060516000BF02B060
:109B5400704700BF5826002082B00190019B4FF649
:109B6400FF721A8000BF02B0704788B00390029160
:109B740011461A460B46ADF806301346ADF80430CC
:109B8400039B9B881A46BDF8063013440793039B36
:109B94009B881946039B9B88BDF80620934228BFE7
:109BA40013469BB2CB1A0693039BDB881A46BDF877
:109BB400043013440593039BDB881946039BDB881D
:109BC400BDF80420934228BF13469BB2CB1A0493DA
:109BD400029B5A88039B1B889A4205D3029B5A888E
:109BE400039B5B889A4201D900231CE0029B9B885B
:109BF4001A46069B934205D8029B9B881A46079BEC
:109C0400934201D200230EE0029BDB881A46049B98
:109C1400934205D8029BDB881A46059B934201D2E6
:109C2400002300E00123184608B0704700B583B054
:109C34000190064B9B69002B03D0044B9B69019850
:109C4400984700BF03B05DF804FB00BF3C2600202A
:109C540000B587B003460091ADF80630009B5B7AEF
:109C6400002B1AD1009B1B7A002B03D1164B5B6887
:109C7400059302E0144B9B680593009B5B68BDF859
:109C840006200599184608F011FA0490049B002B4D
:109C940016D00498FFF7CAFF12E0009B00221A7244
:109CA400094B5B69002B0BD001238DF80C30BDF8F8
:109CB4000630ADF80E30044B5B6903AA1046984792
:109CC40000BF07B05DF804FB3C26002000B585B05A
:109CD4000190019BDB7B8DF80F30019B9B88ADF8D5
:109CE4000C309DF80F30012B2CD14FF6FF70FFF78D
:109CF400F1FE0290029B002B03D10420FFF796FF94
:109D040021E0BDF80C3019460298FFF70BFF029BC7
:109D140003F10A00019B03F110014FF6FF7340F2B7
:109D2400F312FFF722FF03461A46029B5A72074BAF
:109D3400DB89002B07D1BDF80C3002991846FFF7D8
:109D440087FF00E000BF05B05DF804FB3C2600205F
:109D540000B587B00190019B9B88ADF81630BDF823
:109D640016301846FFF7B6FE0490049B002B0ED065
:109D7400049B5B68184608F0F1F90390039B002BE1
:109D840002D00398FFF752FF0498FFF7E5FE00BFE7
:109D940007B05DF804FB000000B587B00190019B9B
:109DA40006330593059B1A88194BDB899A422BD1FC
:109DB400059B5B89022B27D1019B9B88ADF8123050
:109DC400BDF812301846FFF785FE0390039B002B65
:109DD4001AD0059B0C33184600F083FB0346002B76
:109DE40006D0BDF8123003991846FFF731FF0BE097
:109DF400039B5B68184608F0B1F90290029B002BA4
:109E040002D00298FFF712FF00BF07B05DF804FB11
:109E14003C26002000B585B00190019B9B88ADF8DD
:109E24000E30BDF80E301846FFF754FE0290029B28
:109E3400002B15D0029B03F10A00019B03F10801DA
:109E44004FF6FF7340F2F312FFF78FFE03461A46F4
:109E5400029B5A72BDF80E3002991846FFF7F8FEBD
:109E640000BF05B05DF804FB00B583B0019000911C
:109E7400019B1B88502B12D0502B18DC122B12D0B4
:109E8400122B14DC102B02D0112B04D00FE00198FC
:109E9400FFF71CFF0CE00198FFF75AFF08E0019858
:109EA400FFF77AFF04E00198FFF7B4FF00E000BF7A
:109EB40000BF03B05DF804FB30B58FB00190009192
:109EC40000230293009B002B1AD000230D9314E06F
:109ED4006B460D9918460AF010FB0346002B09D077
:109EE400029B5A1C02920D9A92B25B0038336B4467
:109EF40023F82C2C0D9B01330D930D9B132BE7D9C9
:109F0400019B1D4602AC0FCC0FC50FCC0FC594E8C6
:109F1400070085E8070001980FB030BD00B583B095
:109F24000346ADF80630BDF80630132B01D90023E3
:109F34000CE0BDF80630194606480AF089FABDF867
:109F44000630194604480AF083FA0123184603B080
:109F54005DF804FB682600206426002000B585B067
:109F64000346ADF80630002303930DE0039B9B00EA
:109F7400094A13440433BDF80620114618460AF072
:109F8400A3FA039B01330393039B1D2BEED900BF5C
:109F940000BF05B05DF804FB6026002000B583B067
:109FA4000346ADF80630BDF80630194603480AF0FA
:109FB4008BFA00BF03B05DF804FB00BF68260020E5
:109FC40030B59BB0184B9B68DB431893164B5A680B
:109FD40018AB114618460AF066FB189A6B461146F0
:109FE4001846FFF769FF0DAC6D460FCD0FC40FCDBA
:109FF4000FC495E8070084E80700002319930BE0D9
:10A00400199B5B0068336B4433F8303C1846FFF708
:10A01400A5FF199B013319930D9B199A9A42EFD30B
:10A0240000BF00BF1BB030BD6026002000B583B068
:10A0340003468DF807309DF80730194603480AF0A7
:10A044005CFA0346184603B05DF804FB6026002062
:10A0540000B583B001900B46ADF8023013468DF87D
:10A0640001309DF80130002B06D0BDF802301946AE
:10A0740001980AF0EDF905E0BDF80230194601989F
:10A084000AF022FA00BF03B05DF804FB00B585B006
:10A0940001900091019B9B88ADF80E30019B1B88B9
:10A0A400103B0A2B00F2888001A252F823F000BF73
:10A0B400E1A002001DA10200BDA10200BDA1020099
:10A0C400BDA10200BDA10200BDA10200BDA102000C
:10A0D400BDA1020087A1020029A10200FFF770FFC1
:10A0E400BDF80E301846FFF719FF034683F001034D
:10A0F400DBB2002B05D0324AF021042007F0E8FB44
:10A1040057E0019BDB7B022B53D1BDF80E3019467F
:10A114002C480AF09DF94CE0BDF80E301846FFF7C4
:10A124003DFF49E0019B1B7AC3F30313DBB28DF8B7
:10A134000D309DF80D30032B8CBF01230023DAB2C0
:10A14400BDF80E3019462048FFF782FF9DF80D3008
:10A15400022B8CBF01230023DAB2BDF80E3019465E
:10A164001A48FFF775FF9DF80D30012B8CBF0123B2
:10A174000023DAB2BDF80E3019461548FFF768FF20
:10A184001AE0019B1B7A002B15D1019B5B7AC3F368
:10A19400C003DBB2002B14BF012300238DF80C3065
:10A1A4009DF80C20BDF80E3019460748FFF750FF04
:10A1B40001E000BF00E000BF00BF05B05DF804FB94
:10A1C400889703006C26002078260020742600203F
:10A1D4007026002000B583B00346ADF80630BDF804
:10A1E4000630132B01D9002306E0BDF806301946CA
:10A1F40003480AF082F90346184603B05DF804FBED
:10A204006426002000B585B00346ADF8063000236F
:10A214008DF80F30BDF806301846FFF7DBFF034614
:10A22400002B11D0BDF8063019460A480AF065F92A
:10A2340003468DF80E309DF80E30002B01D002231A
:10A2440000E001238DF80F309DF80F30184605B05B
:10A254005DF804FB6C26002000B585B00346ADF81C
:10A26400063000238DF80F30BDF806301846FFF78E
:10A27400B1FF0346002B11D0BDF8063019460A4839
:10A284000AF03BF903468DF80E309DF80E30002B92
:10A2940001D0022300E001238DF80F309DF80F3028
:10A2A400184605B05DF804FB6826002000B583B0AD
:10A2B4000346ADF80630BDF806301846FFF78AFFAE
:10A2C4000346002B07D0BDF80630194604480AF0AF
:10A2D40014F9034600E00023184603B05DF804FBBC
:10A2E4007026002000B583B00346ADF80630BDF8F3
:10A2F40006301846FFF76EFF0346002B07D0BDF863
:10A304000630194604480AF0F8F8034600E0002332
:10A31400184603B05DF804FB7426002000B583B032
:10A324000346ADF80630BDF806301846FFF752FF75
:10A334000346002B07D0BDF80630194604480AF03E
:10A34400DCF8034600E00023184603B05DF804FB84
:10A354007826002000B583B003460A46ADF80630DF
:10A3640013468DF805309DF805301846FFF75EFE5C
:10A374000346002B16D0BDF806301846FFF72AFF17
:10A384000346002B0ED09DF8053006339B00084A87
:10A3940013440433BDF80620114618460AF0ADF8FC
:10A3A400034600E00023184603B05DF804FB00BF39
:10A3B4006026002000B583B00346ADF806300B4696
:10A3C4008DF8053013468DF804309DF80530184695
:10A3D400FFF72CFE0346002B15D0BDF806301846B7
:10A3E400FFF7F8FE0346002B0DD09DF80530063329
:10A3F4009B00074A134404339DF80420BDF806105B
:10A404001846FFF725FE00BF03B05DF804FB00BF4C
:10A414006026002000B587B0039002910192029B50
:10A42400002B01D100231FE000230593039B002B85
:10A4340019D00023049313E003AB049918460AF0DF
:10A444005CF80346002B08D0049B9AB2029B019946
:10A4540010469847059B01330593049B01330493ED
:10A46400049B132BE8D9059B184607B05DF804FB41
:10A4740000B585B00346029101928DF80F309DF826
:10A484000F301846FFF7D2FD034683F00103DBB219
:10A49400002B01D000230CE09DF80F30074A06334F
:10A4A4009B0013445B68019A02991846FFF7B2FFB8
:10A4B4000346184605B05DF804FB00BF6026002083
:10A4C40082B00190019B1B781AB2019B01331B7867
:10A4D4001BB21B021BB213431BB29BB2184602B041
:10A4E400704700B585B001900198FFF7E9FF034676
:10A4F400ADF80E30BDF80E3003F00103002B14BF8D
:10A5040001230023DBB2184605B05DF804FBA0DF8D
:10A51400704700BF1846A1DF704700BF1846ADDF83
:10A52400704700BF1846B3DF704700BF1846B4DF5A
:10A53400704700BF1846000000B585B00190019B2C
:10A54400002B03D10A49852009F06AFE01210198F4
:10A554000AF04AF80390BFF35F8F00BF039B002B00
:10A564000CBF01230023DBB2184605B05DF804FBE1
:10A574001899030000B583B00190019B002B03D10F
:10A584000A49922009F04CFE019B1B68012B03D061
:10A594000649932009F044FEBFF35F8F00BF019B7F
:10A5A40000221A6000BF03B05DF804FB1899030091
:10A5B40000B585B00190019B5B88184601F05AFAFA
:10A5C40003461A46019B9A800023039308E0084A35
:10A5D400039B52F8233001989847039B013303935C
:10A5E400039B002BF3D000BF00BF05B05DF804FB54
:10A5F4009022002082B00190019B9B79012B0BD10A
:10A60400019B1B79012B07D1019B5B8842F6021247
:10A61400934201D1012300E0002303F00103DBB2E4
:10A62400184602B0704700B589B003460091ADF8F2
:10A63400063003AB00221A605A609A60DA601A612D
:10A6440008238DF80C30BDF80630ADF80E30009BB1
:10A65400059303AB1846FFF7ABFF00BF09B05DF8E5
:10A6640004FB000010B58AB00346ADF806300023A1
:10A674008DF8273003AB00221A605A609A60DA60C2
:10A684001A61BDF80630ADF80E30BDF806304FF64D
:10A69400FF72934261D0BDF80630184600F034FFD3
:10A6A4000890089B43F2020293424BD0089B43F26A
:10A6B400020293422DD8089B112B11D0089B112B19
:10A6C40027D8089B002B03D0089B0B2B0CD020E031
:10A6D4000F238DF80C3003AB1846FFF769FF32E007
:10A6E40001238DF827302EE010238DF80C301C4AFE
:10A6F4001C4BD31ADB081B0443F00203BDF80620ED
:10A70400194918460CF080F903AB1846FFF750FFBF
:10A7140019E0134A134BD31ADB081B0443F001045A
:10A7240008980BF061FC03461A46BDF806300F4941
:10A7340020460CF07AF9BDF8063008991846FFF760
:10A7440072FF00E000BF0A4B19789DF82720BDF87E
:10A7540006301846FFF72EFE00E000BF0AB010BD19
:10A76400148E03006C8D030064990300E4990300C4
:10A77400E126002000B583B003460A46ADF8063052
:10A7840013468DF80530064B19789DF80520BDF861
:10A7940006301846FFF70EFE00BF03B05DF804FB59
:10A7A400E026002010B58AB00346ADF80630002339
:10A7B4008DF8273000238DF82630BDF80630184672
:10A7C40000F0BAFD0890089B43F20202934258D06D
:10A7D400089B43F2020293423AD8089B862B17D077
:10A7E400089B862B34D8089B112B0DD0089B112B6A
:10A7F4002ED8089B002B03D0089B0B2B41D027E0BD
:10A8040001238DF826303DE001238DF8273039E00F
:10A8140003AB00221A605A609A60DA601A61072357
:10A824008DF80C30BDF80630ADF80E301C4A1D4BC7
:10A83400D31ADB081B0443F00203BDF806201A49AF
:10A8440018460CF0E1F803AB1846FFF7B1FE19E027
:10A85400134A144BD31ADB081B0443F00104089871
:10A864000BF0C2FB03461A46BDF806300F492046DA
:10A874000CF0DBF8BDF8063008991846FFF7D3FE54
:10A8840000E000BF9DF82720BDF8063011461846A9
:10A89400FFF770FF9DF8263018460AB010BD00BFC0
:10A8A400148E03006C8D0300389A0300709A030021
:10A8B40000B589B003460091ADF8063000238DF849
:10A8C4001F300DF116031846FFF72DFE0690069B68
:10A8D400002B04D02A494FF4997009F0A1FC0123FC
:10A8E400ADF81C3040E00223ADF808300023ADF889
:10A8F4000A3004AB039304A9BDF81C3000221846A7
:10A90400FFF715FE0690069B002B01D0069B32E054
:10A914009DF81F3083F00103DBB2002B09D0BDF892
:10A92400103042F60522934203D101238DF81F30E3
:10A9340015E09DF81F30002B11D0BDF8103042F601
:10A94400021293420BD1009B039302AABDF81C1080
:10A95400BDF806301846FFF7E2FD03460BE0BDF8EC
:10A964001C300133ADF81C30BDF81630BDF81C2086
:10A974009A42B8D30523184609B05DF804FB00BF1A
:10A98400B09A030010B58AB00346ADF8063001232F
:10A994008DF8273000238DF82630BDF80630184690
:10A9A40000F062FE0890089B43F2014293426AD091
:10A9B400089B43F2014293426BD8089B112B29D880
:10A9C400089B112B65D801A252F823F025AA020096
:10A9D40097AA020097AA020097AA020097AA020067
:10A9E40097AA020071AA020097AA020051AA0200C3
:10A9F40097AA020097AA020097AA020097AA020047
:10AA040097AA020097AA020097AA020097AA020036
:10AA1400C9AA0200089B43F20202934254D038E0D0
:10AA240003AB00221A605A609A60DA601A6111233B
:10AA34008DF80C30BDF80630ADF80E3001238DF8DA
:10AA4400263003AB1846FFF7B3FD3EE00DF10A02D2
:10AA5400BDF8063011461846FFF72AFF0890089BF8
:10AA6400002B03D1BDF80A30002B2ED100238DF822
:10AA74002730BDF80630184600F0FCFF03461846A0
:10AA840000F03AFE21E0BDF806301846FFF7EAFD73
:10AA94001BE0184A184BD31ADB081B0443F00104CB
:10AAA40008980BF0A1FA03461A46BDF8063013497C
:10AAB40020460BF0BAFFBDF8063008991846FFF798
:10AAC400B2FD02E000BF00E000BF0D4B19789DF815
:10AAD4002720BDF806301846FFF76CFC094B19789F
:10AAE4009DF82620BDF806301846FFF763FC00BF2A
:10AAF4000AB010BD148E03006C8D0300309B03005C
:10AB0400E2260020E326002000B583B0034600912E
:10AB1400ADF80630BDF806301846FFF7A3FD00BFB8
:10AB240003B05DF804FB000008B5044B1B78002259
:10AB340003491846FFF79CFC00BF08BDE12600202E
:10AB44000DAB020000B583B003460091ADF80630AA
:10AB54000A48FFF7F1FC0346002B0CD0BDF8063081
:10AB64001846FFF71FFE0346002B03D10348FFF7E7
:10AB740001FD00E000BF03B05DF804FBDC2600200B
:10AB840000B583B003460091ADF806300B4B1A783C
:10AB9400BDF8063011461846FFF7DCFB034683F088
:10ABA4000103DBB2002B04D0BDF806301846FFF7D2
:10ABB400E9FE00BF03B05DF804FB00BFE3260020FC
:10ABC40008B5044B1B78002203491846FFF750FCD4
:10ABD40000BF08BDE226002085AB020000B583B0AB
:10ABE4000346ADF80630BDF80630184600F018FDEF
:10ABF4000346002B07D0064B1978BDF80630012216
:10AC04001846FFF7D7FB00BF03B05DF804FB00BF95
:10AC1400E226002000B587B003460091ADF8063067
:10AC240004AB0422002118460DF0A8FF42F6A62327
:10AC3400ADF8103001238DF812300D4B1B680393CF
:10AC440003AA04A9BDF806301846FFF760FC059076
:10AC5400059B002B07D1074B1978BDF8063001225C
:10AC64001846FFF7A7FB00BF07B05DF804FB00BF61
:10AC7400709B0300E526002000B585B00346ADF8BF
:10AC84000630BDF80630184600F0F4FE03461846B8
:10AC940002AA0023092101F0EEF90346052B07D18E
:10ACA400054B1978BDF8063001221846FFF782FBE0
:10ACB40000BF05B05DF804FBE426002000B583B0B6
:10ACC4000B4B1B7800220B491846FFF7D1FB019070
:10ACD400019B002B07D1084B1B780022074918461B
:10ACE400FFF7C6FB019000BF03B05DF804FB00BF93
:10ACF400E026002049AB0200E426002019AC020043
:10AD040000B583B00190019B1B78002B11D1019BEE
:10AD14005B881846FFF7A6FC019B5B881846FFF783
:10AD24005DFF019B5B881846FFF7A6FFFFF7C6FF90
:10AD340000E000BF00BF03B05DF804FB00B589B0BC
:10AD44000190019B1B78092B5ED1019B5B7A002B40
:10AD54005AD1019B1B7A082B47D0082B4DDC012BC1
:10AD64001BD0072B49D1019B9B88184600F02CFF70
:10AD74000346ADF81E30BDF81E304FF6FF72934205
:10AD84003DD0BDF81E3001211846FFF7F3FCBDF895
:10AD94001E301846FFF770FF31E0019B9B8803AA21
:10ADA4000121184601F0B0FE0690069B002B28D125
:10ADB400049B1B78002B24D0019B9B88184600F031
:10ADC40003FF0346ADF81630BDF816304FF6FF7298
:10ADD400934216D00F4B1978BDF81630012218464D
:10ADE400FFF7E8FAFFF7ECFE0BE00B4B1B68012BB7
:10ADF40009D10948FFF7BEFB05E000BF04E000BF2E
:10AE040002E000BF00E000BFFFF758FF00BF09B039
:10AE14005DF804FBE2260020DC26002010B586B095
:10AE240003460A46ADF8063013468DF8053003ABE9
:10AE340000221A605A600123ADF80C3009238DF802
:10AE44000E30194B1978BDF8063000221846FFF76A
:10AE5400B1FA9DF80530002B01D0144B00E0144BDF
:10AE64000493BDF80630184600F004FE0346184665
:10AE740003AB0022194601F0C5F90590059B002B90
:10AE84000FD00C4A0C4BD31ADB081B0443F002040A
:10AE940005980BF0A9F803461A46084920460BF01A
:10AEA400B3FD00BF06B010BDE4260020F89C0300EB
:10AEB400FC9C0300148E03006C8D0300E49B0300D0
:10AEC40000B58DB00190019B9B88ADF82C30019B9F
:10AED4001B88353B1F2B00F2688101A252F823F036
:10AEE400F5AF0200F7B00200AFB10200AFB102004B
:10AEF400AFB10200AFB10200AFB10200AFB10200C6
:10AF0400AFB10200AFB10200AFB10200AFB10200B5
:10AF1400AFB10200AFB10200AFB10200AFB10200A5
:10AF2400AFB10200AFB10200AFB10200AFB1020095
:10AF3400AFB10200AFB10200AFB10200AFB1020085
:10AF4400AFB10200AFB10200AFB10200D1AF020055
:10AF5400AFB1020065AF0200AFB1020071AF0200F1
:10AF6400BDF82C301846FFF77DFB1EE103AB002231
:10AF74001A605A609A60DA601A6112238DF80C30F4
:10AF8400BDF82C30ADF80E30BDF82C30184600F06A
:10AF940071FD0346ADF81030BDF81030184600F0CE
:10AFA400ABFB864B1978BDF82C3000221846FFF70E
:10AFB40001FA834B1978BDF82C3000221846FFF7AC
:10AFC400F9F903AB1846FFF7F3FAEEE0019B0633F9
:10AFD4001846FFF70FFB0346002B00F0DF80BDF897
:10AFE4002C3001211846FFF7C5FBFFF767FED5E0BB
:10AFF40000238DF82F30019B9B88ADF82C30019BEA
:10B004000A3309936F4B1A78BDF82C301146184651
:10B01400FFF7A0F9034683F00103DBB2002B40F0F5
:10B02400BF80684B1978BDF82C3000221846FFF712
:10B03400C1F9019BDB88B3F5857F4CD0019BDB888C
:10B04400002B0DD0604A614BD31ADB081B0443F07C
:10B054000200019BDB881A465D490BF0D5FC3AE0FF
:10B06400099B1B88012B0CD0574A584BD31ADB0879
:10B074001B0443F00200099B1B881A4655490BF038
:10B08400C3FC099B5B88012B0DD04F4A4F4BD31A4D
:10B09400DB081B0443F00200099B5B881A464E49F7
:10B0A4000BF0B2FC17E0099B04331988BDF82C306F
:10B0B40000221846FFF72FFA0890089B002B0AD1AC
:10B0C40001238DF82F30454B1978BDF82C3001221F
:10B0D4001846FFF76FF99DF82F3083F00103DBB2B8
:10B0E400002B5FD0BDF82C3000211846FFF796FEE8
:10B0F40058E000238DF82E30019B9B88ADF82C304E
:10B10400019B0A330A93354B1A78BDF82C3011464B
:10B114001846FFF71FF9034683F00103DBB2002B47
:10B1240042D12E4B1978BDF82C3000221846FFF777
:10B1340041F9019BDB88002B0DD0234A234BD31A02
:10B14400DB081B0443F00200019BDB881A462049FC
:10B154000BF05AFC19E00A9B9B88012B0DD01A4A6C
:10B164001A4BD31ADB081B0443F002000A9B9B888A
:10B174001A4619490BF048FC07E00A9B9B79002BFF
:10B1840014BF012300238DF82E309DF82E20BDF826
:10B194002C3011461846FFF741FE06E000BF04E0DC
:10B1A40000BF02E000BF00E000BFFFF7BDFCFFF7F7
:10B1B40007FD00BF0DB05DF804FB00BFE3260020CF
:10B1C400E2260020E5260020148E03006C8D030087
:10B1D400449C0300809C0300BC9C0300E6260020E2
:10B1E400AFDF704700BF1846B1DF704700BF184695
:10B1F400B2DF704700BF1846B3DF704700BF184680
:10B2040000B585B00190019B9B88184600F0DCFCDA
:10B2140003461A46019B5A800023039308E0084A18
:10B22400039B52F8233001989847039B01330393FF
:10B23400039B002BF3D000BF00BF05B05DF804FBF7
:10B244009422002010B588B02D4A05AB92E8030083
:10B2540083E8030048E02B4B1B8805A9002218460D
:10B2640000F0D0FF0790079B002B34D06B460022E0
:10B274001A605A609A60DA601A61224B1B88ADF832
:10B284000430079B112B36D0079B862B07D107234D
:10B294008DF800306B461846FFF7B2FF2BE01A4AD0
:10B2A4001A4BD31ADB081B0443F0010407980AF075
:10B2B4009BFE03461A46134B1B88154920460BF088
:10B2C400B4FB08238DF80030079B02936B461846A5
:10B2D400FFF796FF0FE00B4B1B88184601F062F84E
:10B2E40003461A46074B1A80064B1B884FF6FF721B
:10B2F4009342B0D100E000BF00BF08B010BD00BF52
:10B304006C9D0300E82600201C8E03006C8D030056
:10B31400149D030000B583B00190064B1B884FF6C3
:10B32400FF72934201D0FFF78DFF00BF03B05DF8B9
:10B3340004FB00BFE826002030B58DB00346ADF80D
:10B344000630BDF80630184600F094FB0346ADF80D
:10B354002630BDF826304FF6FF72934202D143F2F5
:10B364000203C5E00123ADF82A3000238DF829300B
:10B3740000238DF82930BDF82A305A1CADF82A2054
:10B384001A4604ABBDF82600082101F0D3FB0B904C
:10B394000B9B002B40F0A180059B0893089B032284
:10B3A4001A60089B991D089B1A1D089B1B68BDF811
:10B3B4000600FFF71DFF0B900B9B002B62D102AA26
:10B3C400BDF826300821184601F09EFB0B900B9B1C
:10B3D400002B16D00B9B052B13D0474A474BD31A8F
:10B3E400DB081B0443F001040B980AF0FDFD03463F
:10B3F4001A46BDF80630424920460BF016FB0323DB
:10B4040076E00B9B052B11D0089B9A88039B9B88A5
:10B414009A420BD1089B981D039B991D089B9B88FE
:10B424001A460DF093FA0346002B09D0BDF82620E6
:10B43400BDF826300821184601F03BFC0B9051E082
:10B44400BDF826300821184601F014FC0690069B2E
:10B45400002B02D10B230B9344E0274A274BD31A2A
:10B46400DB081B0443F00104BDF8265006980AF0DB
:10B47400BBFD03462A46234920460BF0D6FA032394
:10B484000B932FE00B9B0C2B03D101238DF8293058
:10B4940004E00B9B052B01D100230B93BDF8263050
:10B4A4000821184601F0E6FB0790079B002B19D0F2
:10B4B400114A124BD31ADB081B0443F00104BDF8F4
:10B4C400265007980AF090FD03462A460D49204667
:10B4D4000BF0ABFA03230B9304E00B9B072B01D176
:10B4E4000C230B939DF82930002B7FF441AF0B9B69
:10B4F40018460DB030BD00BF1C8E03006C8D0300D8
:10B50400749D0300AC9D030000B58BB00346ADF8F9
:10B514000630BDF80630184600F0ACFA0346ADF824
:10B524001430002308930023ADF81E300323069340
:10B5340001238DF81730BDF814304FF6FF72934293
:10B5440016D002AABDF814300821184601F0DCFA1E
:10B554000990099B002B0BD1039B0493049B063396
:10B564000893049B9B88ADF81E30049B1B680693CC
:10B57400BDF81E20BDF80600069B0899FFF734FEAF
:10B584000990099B042B02D11123099331E0099BF3
:10B59400082B02D1002309932BE0099B0B2B28D104
:10B5A40000238DF81730069B03F00203002B02D012
:10B5B400012306931DE0089B002B03D1BDF81E3028
:10B5C400002B07D0002308930023ADF81E3003237B
:10B5D40006930EE00F4A104BD31ADB081B0443F00A
:10B5E4000103BDF806200D4918460BF00DFA03239C
:10B5F4000993099B0B2BBBD09DF8173083F00103F3
:10B60400DBB2002B01D00B230993099B18460BB026
:10B614005DF804FB1C8E03006C8D03002C9E03005C
:10B6240000B589B00346ADF806300DF11703049355
:10B63400BDF80630184600F01DFA0346ADF81E307A
:10B6440003AABDF81E300121184601F05DFA0690E8
:10B65400069B002B01D0002301E0049B1B781846B5
:10B6640009B05DF804FB000010B584B00346ADF8E2
:10B6740006304FF6FF73ADF80E301B48FFF7BCFDE4
:10B684000290029B002B11D0184A194BD31ADB08E5
:10B694001B0443F0010402980AF0A6FC03461A4670
:10B6A400144920460BF0B0F903231AE00E4B198815
:10B6B400BDF80E20BDF806301846FFF791FD029044
:10B6C400029B43F20302934205D1074B1B880133CB
:10B6D4009AB2054B1A80029B43F203029342E5D0CF
:10B6E400029B184604B010BDEA2600201C8E0300FD
:10B6F4006C8D0300A49E030000B585B00346ADF82D
:10B704000630084A02AB92E8030083E8030002A96A
:10B71400BDF806300022184600F074FD00BF05B0E5
:10B724005DF804FBF09E030046DF704700BF184637
:10B7340000B585B001900023039308E0084A039BF9
:10B7440052F8233001989847039B01330393039BDA
:10B75400012BF3D900BF00BF05B05DF804FB00BFA7
:10B7640000A0030084B00190002303930AE0019A2F
:10B77400039B13441B78002B01D0012306E0039B99
:10B7840001330393039B0F2BF1D90023184604B014
:10B79400704700B583B001900091019B002B02D04B
:10B7A400009B002B01D100231BE0019B1B78C3F3FA
:10B7B4004603DAB2009B1B78C3F34603DBB29A421A
:10B7C40001D000230DE0019B581C009B013306228D
:10B7D40019460DF0BBF80346002B0CBF01230023D0
:10B7E400DBB2184603B05DF804FB000030B597B037
:10B7F4000190019B1B88102B40F09180019B0AACA7
:10B804001D1D0FCD0FC40FCD0FC495E8070084E8AC
:10B8140007004FF6FF73ADF856309DF82C3023F037
:10B824000103DBB2062B47D000F08EFC9DF82C30D0
:10B83400C3F34603DBB2012B02DC002B15DA3BE039
:10B84400022B2ED038E0089B03F111020AAB04331B
:10B8540011461846FFF79DFF0346002B05D0BDF89F
:10B864002630ADF8563000BF26E007AA0DF12603B6
:10B874001946072000F072FC0346002BE3D11BE0BD
:10B88400089B5A1C0AAB04331146184600F08FFA81
:10B894000346002B05D0BDF82630ADF8563000BF66
:10B8A40009E007AA0DF126031946072000F056FC0B
:10B8B4000346002BE4D100BFBDF828301946194ACD
:10B8C4000B469B000B445B001344BDF856201A80C2
:10B8D400BDF828301946134A0B469B000B445B0005
:10B8E400134402330BAA10681860918892799980E6
:10B8F4009A71BDF856304FF6FF72934210D0BDF8DE
:10B904002830ADF80A30BDF85630ADF80C300023BD
:10B914008DF8083002AB1846FFF70AFF00E000BFBD
:10B9240017B030BDEC26002000B587B0019000911F
:10B93400019B11330593009B11330493019B581C05
:10B94400009B0133102219460DF000F80346002B2A
:10B9540011D1019B01331846FFF704FF0346002B66
:10B9640009D0009B01331846FFF7FCFE0346002B69
:10B9740001D0012300E000238DF80F309DF80F3033
:10B9840003F001038DF80F3004990598FFF701FFC8
:10B9940003468DF80E30059B1B7823F00103DBB2C0
:10B9A400042B16D0059B1B7823F00103DBB2062B76
:10B9B4000FD0049B1B7823F00103DBB2042B08D0C7
:10B9C400049B1B7823F00103DBB2062B01D0012377
:10B9D40000E000238DF80D309DF80D3003F00103D5
:10B9E4008DF80D309DF80E30002B03D09DF80D30EE
:10B9F400002B0AD19DF80F30002B08D09DF80D3094
:10BA040083F00103DBB2002B01D0012300E000230B
:10BA140003F00103DBB2184607B05DF804FB00B580
:10BA240087B001900B46ADF8023000F08DFB10E0BA
:10BA3400BDF81630BDF802209A420AD0049B19467C
:10BA44000198FFF771FF0346002B02D0BDF81630B2
:10BA54000BE003AA0DF116031946072000F07EFB44
:10BA64000346002BE4D14FF6FF73184607B05DF888
:10BA740004FB000000B583B00346ADF80630BDF802
:10BA84000630132B0AD8BDF806301846FEF7A2FB81
:10BA9400034683F00103DBB2002B02D04FF6FF73A1
:10BAA40008E0BDF80620054913469B0013445B00DB
:10BAB4000B441B88184603B05DF804FBEC260020F9
:10BAC40000B583B003460091ADF80630BDF80630EA
