:020000022000DC
:106000000000012019620200016202000362020026
:10601000056202000762020009620200000000003F
:106020000000000000000000000000000B62020001
:106030000D620200000000000F6202001162020007
:106040001DFA020013620200B5FF02002D0F0300CB
:10605000450F030013620200B1FE0200136202004A
:10606000A1010300B90103001362020013620200E0
:106070001362020013620200136202001362020044
:1060800013620200112E0300136202001362020069
:106090001362020013620200197E03001362020001
:1060A0001362020013620200136202001362020014
:1060B00013620200136202000000000000000000F2
:1060C00013620200136202001362020013620200F4
:1060D000136202001362020013620200000000005B
:1060E00000000000000000000000000000000000B0
:1060F00000000000000000000000000000000000A0
:10610000000000000000000000000000000000008F
:10611000000000000000000000000000000000007F
:10612000000000000000000000000000000000006F
:10613000000000000000000000000000000000005F
:10614000000000000000000000000000000000004F
:10615000000000000000000000000000000000003F
:10616000000000000000000000000000000000002F
:10617000000000000000000000000000000000001F
:10618000000000000000000000000000000000000F
:1061900000000000000000000000000000000000FF
:1061A00000000000000000000000000000000000EF
:1061B00000000000000000000000000000000000DF
:1061C00000000000000000000000000000000000CF
:1061D00000000000000000000000000000000000BF
:1061E00000000000000000000000000000000000AF
:1061F000000000000000000000000000000000009F
:10620000FEE7FEE7FEE7FEE7FEE7FEE7FEE7FEE766
:10621000FEE7FEE700F002B8FFF7FCBF0F484FF0C3
:106220000701884385460E4880470E48016841F4BF
:1062300070010160BFF34F8FBFF36F8F00F01AB88A
:1062400009480A490A4A884207D0521A05D00378F9
:1062500001300B700131013AF9D170470000012083
:10626000A98D020088ED00E0CC8F03007022002091
:10627000842200203A493B480A1A02D0072291435F
:106280008D46394939480A1A06D00722914381F3CD
:106290000988022282F3148835483649364A00F0CC
:1062A00041F836483649374A00F03CF83648374915
:1062B000374A00F037F837483749384A00F032F8A3
:1062C00037483849384A00F02DF838483849394AB3
:1062D00000F028F838483949394A00F023F839489D
:1062E0003949002200F036F838483949002200F0D8
:1062F00031F838483849091A12F0CAFB374A904732
:1063000025482649884205D00268043003B49047E6
:1063100003BCF7E700208646EC4600200021304A07
:106320009047FEE7884214D0521A12D003460B431E
:1063300013430324234206D1036804300B60043165
:10634000043AF9D17047037801300B700131013AFA
:10635000F9D17047884202D002700130FAE77047E5
:106360000000012000E000200000012000000120CA
:10637000F0D70300842200200C230020E4630200F5
:10638000E46302004E8E0300F0D703008422002055
:1063900084220020E08F0300E08F0300E08F0300E1
:1063A000E08F0300E08F0300E08F0300E08F030025
:1063B000E08F0300EDD7030078D803000C23002002
:1063C0000C2300200C230020885400208854002037
:1063D00090540020905400209074002041620200EC
:0463E000496A020004
:1063E40000B585B00190019B002B0AD0074B43F008
:1063F40001030393019B9B010293039B029898471B
:1064040000E000BF05B05DF804FB00BFA0900300EE
:1064140000B589B0059003921A460B468DF81330E7
:1064240013468DF8123000230793059B181D9DF821
:1064340012209DF813109DF8283000931346039AF8
:106444000AF088FC0790079B184609B05DF804FB26
:1064540000B587B0039001921A460B468DF80B30B5
:1064640013468DF80A3000230593039B181D9DF8ED
:106474000A309DF80B10019A0AF094FC0590059BD4
:10648400184607B05DF804FB00B583B00190019B8A
:10649400002B0AD04FF47A70FFF7A2FF019B013B57
:1064A4000193019B002BF5D100E000BF03B05DF820
:1064B40004FB000000B583B00A23019302E001202D
:1064C400FFF7E2FF134B1B78DBB283F00103DBB26F
:1064D400002B04D0019B5A1E0192002BEFD10D4BCF
:1064E4001B78DBB283F00103DBB2002B0CD00A4A29
:1064F4000A4BD31ADB081B0443F00103084918466E
:1065040010F0D0FB002300E00123184603B05DF82F
:1065140004FB00BF70230020FC8E0300C48E030024
:10652400E08F030000B587B003460A468DF80F30AC
:1065340013468DF80E309DF80F308DF810309DF80D
:106544000E308DF81130164B00221A7004AA002365
:106554000093022368211348FFF75AFF0590059B17
:10656400002B0DD0104A114BD31ADB081B0443F047
:106574000103059A0E49184610F0A2FB00230AE015
:10658400FFF798FF034683F00103DBB2002B01D031
:10659400002300E00123184607B05DF804FB00BFA8
:1065A40070230020BC930300FC8E0300C48E030000
:1065B400F88F030000B587B0034602918DF80F30C1
:1065C40013468DF80E30294B00221A700DF10F027C
:1065D40001230093012368212548FFF719FF059043
:1065E400059B002B0DD0234A234BD31ADB081B0435
:1065F40043F00103059A2149184610F061FB00237A
:1066040030E0FFF757FF034683F00103DBB2002BB2
:1066140001D0002326E0154B00221A709DF80E309D
:10662400029A68211248FFF713FF0590059B002B7F
:106634000DD0104A104BD31ADB081B0443F001039E
:10664400059A0F49184610F03BFB00230AE0FFF7B8
:1066540031FF034683F00103DBB2002B01D000239A
:1066640000E00123184607B05DF804FB7023002006
:10667400BC930300FC8E0300C48E0300149003003B
:106684003490030000B583B0304A314BD31ADB0891
:106694001B0443F003032F49184610F003FB0123A6
:1066A4008DF8073000216B20FFF73CFF03461A46A4
:1066B4009DF807301340002B14BF012300238DF8ED
:1066C40007306420FFF7E0FE00211A20FFF72AFFBD
:1066D40003461A469DF807301340002B14BF0123CC
:1066E40000238DF8073000211C20FFF71BFF034611
:1066F4001A469DF807301340002B14BF01230023D2
:106704008DF807309DF8073083F00103DBB2002BCE
:106714000BD00E4A0E4BD31ADB081B0443F00103C3
:106724000D49184610F0BEFA0AE0084A084BD31A7D
:10673400DB081B0443F003030849184610F0B2FABF
:106744009DF80730184603B05DF804FBFC8E030087
:10675400C48E0300509003006C90030088900300E3
:1067640000B587B003900291019204AB062219464A
:106774003B20FFF71FFF034683F00103DBB2002B2E
:1067840001D0002324E09DF810301BB21B021AB282
:106794009DF811301BB213431AB2039B1A809DF863
:1067A40012301BB21B021AB29DF813301BB21343F2
:1067B4001AB2029B1A809DF814301BB21B021AB243
:1067C4009DF815301BB213431AB2019B1A800123A2
:1067D400184607B05DF804FB034B00221A60034B14
:1067E40000221A7000BF70470C23002010230020E1
:1067F40000B587B00DF1020201A90DF10603184698
:10680400FFF7AEFF034683F00103DBB2002B0BD08E
:106814003D4A3E4BD31ADB081B0443F002033C49B8
:10682400184610F03FFA6BE0BDF9063007EE903AD7
:10683400B8EEE77ADFED376AC7EE267ACDED057A52
:10684400BDF9043007EE903AB8EEE77ADFED316A2D
:10685400C7EE267ACDED047ABDF9023007EE903A00
:10686400B8EEE77ADFED2B6AC7EE267ACDED037A30
:10687400DDED057A27EEA77ADDED047A67EEA77AD7
:1068840037EE277ADDED037A67EEA77A77EE277A7B
:10689400B0EE670A11F0E9FD8DED020ADDED027A32
:1068A4009FED1D7AF4EEC77AF1EE10FA1CDD1B4B56
:1068B4001B7883F00103DBB2002B15D0174B0122A8
:1068C4001A70174B1B680133154A13600E4A0F4B9D
:1068D400D31ADB081B0443F00303114A126811495D
:1068E400184610F0EDF90BE0DDED027A9FED0E7A1B
:1068F400F4EEC77AF1EE10FA02D5084B00221A70B2
:1069040007B05DF804FB00BFFC8E0300C48E0300D7
:10691400A8900300000080469A99993F1023002014
:106924000C230020BC9003006666663F72DF70474C
:1069340073DF70477ADF70477CDF70477FDF704713
:106944008FDF7047014AD3210BF0E4B8C8900300ED
:1069540010B50388103B84B00446112B14D8DFE82B
:1069640003F00932364713131313131313131313BA
:106974001313131A2A482B4B2B49C01AC0080004BE
:1069840040F0030010F08EF92848214604B0BDE819
:10699400104000F09FBA234B21482549C01AC00873
:1069A400000440F0030010F07DF90023A088ADF846
:1069B4000C3003A9FFF7C4FF0028E5D01D4A60216D
:1069C4000BF0A8F8E0E71648164B1B49D5E7E18918
:1069D400A289144B1248C01A6389CDE90021C0086A
:1069E40000042289154940F0030010F0A4F9CBE714
:1069F4000C4B0B481249C01AC008000440F00300B5
:106A040010F050F90023A0881A468521FFF796FF5D
:106A14000028B9D0074A74210BF07CF8B4E700BF12
:106A2400FC8E0300C48E0300409103005023002019
:106A34005C910300C89003004C9103007091030023
:106A4400A49103002DE9F0439BB008F07BFA0028E1
:106A540040F00C81002008F06BFB002008F0D8FA0D
:106A64004FF4004100200FF0FBFD002840F032817C
:106A74000FF08CFD032000F0C7FBDFF89C8201F0CF
:106A840081FCFFF7FFFD964BA8EB03084FEAD808FB
:106A94004FEA0848002840F0E680924948F0010097
:106AA40010F000F900F0F0FF01F08CF80BF0E2FBBD
:106AB400002840F009810023CDE90233049311F04A
:106AC400C9F8002840F0FB8000230AA901200A939A
:106AD40011F0D6F9002840F0ED800AA811F0C4FAAC
:106AE400002840F0E2808048804DFFF723FF012218
:106AF40011232A707E498DF8283008220AA8FFF74E
:106B04001BFF002840F0CC807A4BA02200219A6021
:106B140001243C220AA8C3E90011C3E90311596105
:106B24001C7012F0D7F802228DF8282006222B7848
:106B34008DF82B2041F60D02ADF8142005AE8DF82A
:106B440016306D49ADF838401F230DF106020AA82E
:106B54000F96ADF8063002F0EEFE002840F09B8060
:106B64000023ADF82630CDF81E30CDF82230624B2C
:106B74000693604ABDF806306048ADF81C3006A99B
:106B8400FFF7D4FE002840F081800023CDE90D33C7
:106B94000F93554B0A934FF420324FF47023CDE9F1
:106BA4000B2303238DF834300AA8554B109303F0BC
:106BB40007F9002865D1534800F0BAF84F4B01217A
:106BC4001878FFF7B5FE002856D14F4D4F4948F0CD
:106BD400030010F067F845F0010501F03DF8FFF7F8
:106BE400FBFD01F07DFC50B94FF47A744FF47A4008
:106BF400A847013CFAD101F073FC0028F4D0444FBB
:106C0400DFF8189148F00208FFF7F2FD0AAA06A976
:106C14003046FFF7A5FD08B303AA02A904A801F0B2
:106C24003AFD70B90A244FF47A40A847013CFAD1DE
:106C340010F0DEF80028E7D010F0DAF80028F7D1D9
:106C4400E2E7DDED047AB8EE670A01F04DF83B881F
:106C54008342E7D00028E5D03880E3E74946404640
:106C640010F020F8D8E7FFF7B7FD1BE7294A40F2F8
:106C74000D110AF04FFFEDE6264AF1210AF04AFF12
:106C8400A3E7244AE9210AF045FF94E7214ACD21EC
:106C94000AF040FF79E71F4ABE210AF03BFF5FE795
:106CA4001C4A9D210AF036FF2EE71A4A8E210AF06B
:106CB40031FF18E7174A8B210AF02CFF0DE7154A1C
:106CC40087210AF027FFFFE6124A40F23B110AF03F
:106CD40021FFF0E60F4A40F213110AF01BFFC7E64A
:106CE400C48E0300C49103008422002014230020D6
:106CF400E091030038230020182300208C22002078
:106D0400496902005023002020920300EC91030003
:106D140012230020C8900300FC8E03000492030099
:106D2400A8DF704700BF1846AADF704700BF1846A7
:106D340000B597B00190624B1B788DF84A3041F64C
:106D44000D03ADF84830019A12AB19460120FFF744
:106D5400E7FF1590159B1493149B002B04D0594AFC
:106D6400182114980AF0D6FE0BAB00221A605A6060
:106D74009A60DA601A615A619A619DF82C3043F086
:106D840002038DF82C309DF82C3043F010038DF85D
:106D94002C300AAB00210A461A800A469A709DF8E4
:106DA4002830012262F303038DF828309DF828303F
:106DB400012262F307138DF828309DF8293001224F
:106DC40062F303038DF829309DF82930012262F320
:106DD40007138DF829309DF82A30012262F342030B
:106DE4008DF82A300AAB1093354B1B788DF826307A
:106DF40042F63723ADF8243008AB00210A461A8046
:106E04000A469A709DF82030012262F303038DF83C
:106E140020309DF82030012262F307138DF82030D2
:106E24009DF8213023F00F038DF821309DF8213097
:106E340023F0F0038DF821309DF82230012262F313
:106E440042038DF8223003AB00221A605A609A6024
:106E5400DA601A6109AB039308AB04930223ADF81B
:106E640014300223ADF818300023ADF80A300DF1C8
:106E74000A030793019B1888019B023303AA0BA9F9
:106E8400FFF752FF1590159B1393139B002B04D00F
:106E94000C4A3E2113980AF03DFE019B4FF6FF7207
:106EA4005A81094A094BD31ADB081B0443F0030334
:106EB400074918460FF0F6FE00BF17B05DF804FB53
:106EC4001423002028920300FC8E0300C48E0300C8
:106ED400B892030000B585B001900091019B002B8E
:106EE4003FD0009B002B3CD0009B1B88502B10D024
:106EF400502B38DC102B02D0112B05D033E0009B33
:106F04009A88019B5A8131E0019B4FF6FF725A81A6
:106F14002CE0009B06330393039B1A88019BDB88B8
:106F24009A4222D1039B5B89022B1ED1039B0C3313
:106F3400184603F0F8FB03468DF80B300D4A0E4B50
:106F4400D31ADB081B0443F003009DF80B30002B1D
:106F540001D00A4B00E00A4B1A460A490FF0B0FE72
:106F640003E000BF02E000BF00E000BF05B05DF831
:106F740004FB00BFFC8E0300C48E0300D492030004
:106F8400DC920300E892030000B583B00190019BFA
:106F94001B68184600F0B5F80346002B04D10549D8
:106FA4004FF4F6700DF098FA4FF0A043184603B072
:106FB4005DF804FB1893030000B585B00190084602
:106FC40011461A4603468DF803300B468DF80230FD
:106FD40013468DF8013001AB1846FFF7D5FF039037
:106FE4009DF803209DF802305B001A439DF80130A0
:106FF4009B001A439DF818301B0242EA03019DF8D6
:107004001C301B04019A1943039B02F5E07243F8F8
:10701400221000BF05B05DF804FB00B585B00390F5
:1070240000230193002300930023012201210398EC
:10703400FFF7C2FF00BF05B05DF804FB00B585B0E3
:1070440003900B468DF80B309DF80B300022019213
:1070540000220092002200210398FFF7ADFF00BF39
:1070640005B05DF804FB00B585B0019001AB18468E
:10707400FFF78AFF0390019B012202FA03F31946EA
:10708400039800F02AF800BF05B05DF804FB00B5D2
:1070940085B0019001AB1846FFF776FF0390019B82
:1070A400012202FA03F31946039800F020F800BF06
:1070B40005B05DF804FB00B583B001900091009B1E
:1070C400002B03D10198FFF7E2FF02E00198FFF7DC
:1070D400CAFF00BF03B05DF804FB82B001900091C9
:1070E400019B009AC3F8082500BF02B0704782B024
:1070F40001900091019B009AC3F80C2500BF02B0D7
:10710400704784B00190019B5B09029300230393B1
:10711400029B002B03D14FF0FF33039300BF019B6D
:1071240003F01F030193039A019B22FA03F303F074
:107134000103002B14BF01230023DBB2184604B063
:107144007047000000B583B00190019B032B03D965
:10715400074947200DF0C0F9064A019B13441B78E8
:1071640001211846FFF7A7FF00BF03B05DF804FB39
:1071740048930300B493030000B583B00023019344
:1071840005E00198FFF7DEFF019B01330193019BAA
:10719400032BF6D900BF00BF03B05DF804FB000069
:1071A40000B583B00023019309E0094A019B13440D
:1071B4001B781846FFF731FF019B01330193019BB4
:1071C400032BF2D9FFF7D8FF00BF03B05DF804FB2F
:1071D400B493030000B583B0002301930AE0094A85
:1071E400019B13441B7803211846FFF727FF019BDB
:1071F40001330193019B032BF1D900BF00BF03B0FE
:107204005DF804FBB893030000B583B00190019BC3
:1072140003F00103002B01D0FFF7C2FF019B03F031
:107224000203002B01D0FFF7D5FF00BF03B05DF8C8
:1072340004FB000084B001900B468DF80330134624
:107244008DF8023000230393019B032B3CD89DF857
:107254000230012B0BD19DF80330012B04D1019B8B
:10726400DBB20E33DBB200E000238DF802309DF870
:107274000330022B0FD0022B23DC002B16D0012B62
:107284001FD11449019A13465B0013440B449DF823
:1072940002201A701AE00F49019A13465B00134446
:1072A4000B4401339DF802201A700FE00949019A3A
:1072B40013465B0013440B4402339DF802201A70FA
:1072C40004E00723039301E007230393039B184679
:1072D40004B070475C23002000B583B00122002174
:1072E4000020FFF7A7FF0190019B002B04D0019B16
:1072F400072B01D0019B1CE0072202210120FFF78C
:1073040099FF0190019B002B04D0019B072B01D016
:10731400019B0EE0042202210020FFF78BFF019065
:10732400019B002B04D0019B072B01D0019B00E0A3
:107334000023184603B05DF804FB00B583B00122B6
:1073440002210020FFF776FF0190019B002B04D05F
:10735400019B072B01D0019B1CE007220221012085
:10736400FFF768FF0190019B002B04D0019B072BC2
:1073740001D0019B0EE00A2200210020FFF75AFFF2
:107384000190019B002B04D0019B072B01D0019B92
:1073940000E00023184603B05DF804FB00B585B097
:1073A40001900091019B1B88102B02D0112B18D047
:1073B4002FE01A4B1B68002B0DD1FFF78DFF0390B4
:1073C400039B002B07D0164B1B68002B03D0144BD8
:1073D4001B6803989847114B1B6801330F4A1360CD
:1073E40017E00E4B1B68013B0C4A13600B4B1B68E8
:1073F400002B0DD1FFF7A1FF0390039B002B07D0B7
:10740400074B1B68002B03D0054B1B680398984758
:1074140000BF00BF05B05DF804FB00BF6C23002073
:107424006823002000B583B001900091019B1B7874
:10743400022B19D0022B26DC002B02D0012B04D006
:1074440021E0134B01221A701EE0124A124BD31A88
:10745400DB081B0443F00303104918460FF022FC19
:107464000B4B01221A700FE00A4A0B4BD31ADB08AC
:107474001B0443F003030A4918460FF013FC044BA2
:1074840001221A7000E000BF00BF03B05DF804FBE6
:1074940070230020FC8E0300C48E0300CC930300F1
:1074A400E0930300F0B58BB001900B468DF80330E8
:1074B400019B002B03D0019B1B78002B04D14FF0C0
:1074C40000024FF000034BE00021019810F0D6FEBB
:1074D4008DED060B4FF00002254BDDE9060111F09E
:1074E40083F902460B461046194611F097FA0346F3
:1074F4000593059B642202FB03F3184611F0B4FACA
:1075040002460B46DDE9060111F0D2F802460B46AD
:10751400CDE90223059811F0A7FA06460F464FF06D
:107524000002144BDDE9020111F05EF902460B463C
:107534003046394610F09CFF02460B46CDE908233D
:107544009DF80330532B03D09DF80330572B05D1FE
:10755400089C099B83F00045CDE90845DDE9082333
:1075640043EC172BB0EE470AF0EE670A0BB0F0BD00
:107574000000594000004E402DE9F041DEB05EAB02
:10758400A3F5B27318605EABA3F5B2730622A649E5
:10759400186811F0DEFA0346002B40F01D815EAB43
:1075A400A3F5B27312A84FF48072196811F0B5FAFA
:1075B4005EABA3F5B073184630231A46002111F0D0
:1075C40089FB00235D9312AB9849184611F0F8FA31
:1075D4005C900DE05D9B5A1C5D925EAAA2F5B072B0
:1075E4005C9942F823109149002011F0E9FA5C906B
:1075F4005C9B002B02D05D9B0B2BEBD95D9B062B78
:1076040040F22D825EABA3F5B0739B681B78412BCF
:1076140040F025825EABA3F5B073DA685EABA3F5E8
:10762400B0731B691B7819461046FFF73BFF8DEDBD
:10763400540B5EABA3F5B0735A695EABA3F5B0739C
:107644009B691B7819461046FFF72CFF8DED520BF2
:10765400774A784BD31ADB081B0443F003054FF039
:1076640000024FF00003DDE9540111F0BBF90346B9
:10767400002B0BD04FF000026F4BDDE9540111F0E9
:1076840095F90346002B01D06C4E00E06C4EDDE909
:10769400540111F0C3F9034698464FF000024FF02D
:1076A4000003DDE9540111F081F90346002B12D0E7
:1076B400DDE9540111F0B2F90346184611F0D4F98A
:1076C40002460B46DDE9540110F0F2FF02460B4678
:1076D400104619460FE0DDE9540111F09FF9034605
:1076E400184611F0C1F9DDE9542310F0E1FF024618
:1076F4000B46104619464FF00002524B10F0DCFFC7
:1077040002460B461046194611F088F903461F46F7
:107714004FF000024FF00003DDE9520111F062F96D
:107724000346002B0BD04FF00002434BDDE952011E
:1077340011F03CF90346002B01D0404C00E0404CD2
:10774400DDE9520111F06AF9034604934FF0000297
:107754004FF00003DDE9520111F028F90346002B34
:1077640012D0DDE9520111F059F90346184611F01F
:107774007BF902460B46DDE9520110F099FF0246FF
:107784000B46104619460FE0DDE9520111F046F9A7
:107794000346184611F068F9DDE9522310F088FF1A
:1077A40002460B46104619464FF00002254B10F0D6
:1077B40083FF02460B461046194611F02FF9034683
:1077C4000393049B029301940097434632461E4957
:1077D40028460FF0E2FA42E15EABA3F5B27306224B
:1077E4001A49186811F0B5F90346002B40F03781A7
:1077F4005EABA3F5B27312A84FF48072196811F04E
:107804008CF95EABA3F5B073184628231A46002101
:1078140011F060FA00235B9312AB0449184611F08F
:10782400CFF95A9022E000BFF0930300F8930300CD
:10783400FC8E0300C48E03000000F0BFFC93030021
:107844000094030000005940049403002C940300A6
:107854005B9B5A1C5B925EAAA2F5B0725A9942F8DD
:1078640023108149002011F0ABF95A905A9B002B48
:1078740002D05B9B092BEBD95B9B052B40F2EF807D
:107884005EABA3F5B0739B68002B00F0E8805EABA1
:10789400A3F5B0731B69002B00F0E1805EABA3F588
:1078A400B0739A685EABA3F5B073DB681B781946B6
:1078B4001046FFF7F7FD8DED580B5EABA3F5B073E3
:1078C4001A695EABA3F5B0735B691B781946104661
:1078D400FFF7E8FD8DED560B644A654BD31ADB08C0
:1078E4001B0443F003054FF000024FF00003DDE9F1
:1078F400580111F077F80346002B0BD04FF000022B
:107904005C4BDDE9580111F051F80346002B01D01E
:10791400594E00E0594EDDE9580111F07FF8034655
:1079240098464FF000024FF00003DDE9580111F0D2
:107934003DF80346002B12D0DDE9580111F06EF832
:107944000346184611F090F802460B46DDE958014B
:1079540010F0AEFE02460B46104619460FE0DDE974
:10796400580111F05BF80346184611F07DF8DDE983
:10797400582310F09DFE02460B46104619464FF060
:1079840000023F4B10F098FE02460B461046194683
:1079940011F044F803461F464FF000024FF0000375
:1079A400DDE9560111F01EF80346002B0BD04FF011
:1079B4000002304BDDE9560110F0F8FF0346002BBE
:1079C40001D02D4C00E02D4CDDE9560111F026F8D4
:1079D400034604934FF000024FF00003DDE9560123
:1079E40010F0E4FF0346002B12D0DDE9560111F03C
:1079F40015F80346184611F037F802460B46DDE940
:107A0400560110F055FE02460B46104619460FE08B
:107A1400DDE9560111F002F80346184611F024F886
:107A2400DDE9562310F044FE02460B461046194683
:107A34004FF00002124B10F03FFE02460B46104678
:107A4400194610F0EBFF03460393049B0293019441
:107A54000097434632460B4928460FF09EF900BF73
:107A64005EB0BDE8F08100BFF8930300FC8E030014
:107A7400C48E03000000F0BFFC93030000940300D5
:107A8400000059400494030008B5054B00221A6015
:107A94004FF480720021034811F01CF900BF08BDA7
:107AA400742400207423002010B582B003468DF89E
:107AB40007309DF807300D2B03D09DF807300A2BB3
:107AC4001FD11A4B1B68002B2DD0184B1B68184A6A
:107AD4000021D154174A184BD31ADB081B0443F076
:107AE400030413480FF046F803461A461349204688
:107AF4000FF0E6F80E48FFF73FFD0C4B00221A602A
:107B040011E00A4B1B68FE2B09D8084B1B685A1C52
:107B140006490A6006499DF80720CA5403E0034B4E
:107B240000221A60FFE700BF02B010BD74240020D9
:107B340074230020FC8E0300C48E030034940300DD
:107B440000B585B001900091019B1B78012B18D1E1
:107B5400164B1B781846FFF7A7FF01221349144858
:107B640009F052FD0390039B112BF6D0039B029363
:107B7400029B002B16D00F4A1D21029809F0CAFF60
:107B840010E0019B1B78022B0CD10B4A0B4BD31A30
:107B9400DB081B0443F00100019BDB681A4608491B
:107BA4000FF08EF800BF05B05DF804FB78240020C8
:107BB4004094030048940300FC8E0300C48E030029
:107BC400D494030030B58DB01D4B01AC1D460FCDD0
:107BD4000FC495E80F0084E80F00062301930823DF
:107BE4000293184B079300238DF8183000238DF867
:107BF400193001AB144A1946144809F039FC0B90AA
:107C04000B9B0A930A9B002B04D0114A32210A9839
:107C140009F080FF01220F490C4809F0F5FC0B9094
:107C24000B9B112BF6D00B9B0993099B002B04D0C3
:107C3400074A3821099809F06DFF00BF0DB030BD27
:107C4400EC94030000502700457B0200409403009D
:107C5400489403007824002082B0194B00221A6053
:107C6400184B00221A80184B00221A60174B00226E
:107C74001A700023ADF806300CE0BDF80630144A43
:107C84009B0013444FF000021A60BDF80630013324
:107C9400ADF80630BDF80630632BEED90D4B4FF02E
:107CA40000021A600C4B0D4A1A600D4B4FF0000293
:107CB4001A60094B1B680B4A136000BF02B070477F
:107CC4007C24002080240020842400208C24002094
:107CD40094240020282600209022002000803B4687
:107CE400902400208824002010B590B08DED030A64
:107CF400A84B1B680133A74A13609DED030A10F0DB
:107D040097FB0346002B06D19DED030A10F098FB68
:107D14000346002B0DD1A04AA04BD31ADB081B0449
:107D240043F001039E4918460EF0BCFF9D4B1B888F
:107D34008BE2DDED037A9FED9C7A27EE877A9B4BED
:107D4400D3ED007ADFED9A6A67EEA67A77EE277AAA
:107D5400964BC3ED007A954BD3ED007AB0EE670AEB
:107D640010F066FB0346002B09D1904BD3ED007A4B
:107D7400B0EE670A10F064FB0346002B0DD1864A6F
:107D8400864BD31ADB081B0443F0010389491846C8
:107D94000EF088FF854B884A1A60884B93ED007A71
:107DA400824BD3ED007A37EE277A854BD3ED007AF8
:107DB40077EE677AB6EE007A67EE877A7F4BC3ED8B
:107DC400007A7E4BD3ED007AB0EE670A10F030FBF8
:107DD4000346002B09D1794BD3ED007AB0EE670A44
:107DE40010F02EFB0346002B12D16B4A6B4BD31AB7
:107DF400DB081B0443F00103724918460EF052FFDE
:107E04006E4B4FF000021A60684B1B686C4A13609B
:107E1400664B1B686A4A1360684B93ED007A6A4BA1
:107E2400D3ED007A77EE677ACDED047A9DED040AFE
:107E340010F0FEFA0346002B06D19DED040A10F063
:107E4400FFFA0346002B0DD1534A544BD31ADB08D7
:107E54001B0443F001035D4918460EF023FF4FF065
:107E640000030493554B1B68574A136000238DF895
:107E74001730DDED047AF5EEC07AF1EE10FA03DD89
:107E840001238DF8173009E0DDED047AF5EEC07AB0
:107E9400F1EE10FA02D5FF238DF8173000238DF888
:107EA40027304B4B93ED007A4A4B1B884A4A9B0080
:107EB4001344D3ED007A77EE677A454BC3ED007A2D
:107EC400444B1B8818463D4B1A68434983000B44B6
:107ED4001A603F4B93ED007A384BD3ED007A77EE7E
:107EE400277A3B4BC3ED007A3A4B1B8801333B4A5C
:107EF40082FB03125111DA178A1A642101FB02F280
:107F04009A1A92B2334B1A80314B93ED007ADFED1B
:107F1400346AC7EE267ACDED067A9DED060A10F096
:107F240087FA0346002B06D19DED060A10F088FA65
:107F34000346002B26D1184A184BD31ADB081B041E
:107F440043F00103274918460EF0ACFE4FF000033E
:107F540006931F4B4FF000021A600023ADF81E3049
:107F64000CE0BDF81E301C4A9B0013444FF0000285
:107F74001A60BDF81E300133ADF81E30BDF81E3056
:107F8400632BEED94FF000030F930023ADF83A3082
:107F940046E000BF7C240020FC8E0300C48E030056
:107FA4000C95030080240020CDCC4C3D9022002071
:107FB4003333733F4895030000803B4690240020F0
:107FC40088240020889503002C260020C8950300EF
:107FD4002826002024260020942400201F85EB510D
:107FE4000000C8420C960300BDF83A30984A9B0042
:107FF400134493ED007ADDED067A77EE677ACDEDE2
:108004000D7ADDED0D7A67EEA77A9DED0F7A77EEA6
:10801400277ACDED0F7ABDF83A300133ADF83A3016
:10802400BDF83A30632BDFD9DDED0F7ADFED896AD5
:1080340087EEA67AB0EE470A10F017FA8DED080A1B
:108044009DED080A10F0F4F90346002B06D19DEDCE
:10805400080A10F0F5F90346002B0DD17E4A7F4B38
:10806400D31ADB081B0443F001037D4918460EF0C4
:1080740019FE4FF000030893DDED087A9FED797A3D
:1080840067EE877A9DED067A77EE277ACDED0A7A48
:108094009DED0A0A10F0CCF90346002B06D19DEDA4
:1080A4000A0A10F0CDF90346002B0CD16A4A6B4B37
:1080B400D31ADB081B0443F001036B4918460EF086
:1080C400F1FD069B0A93694B93F90030002B63DDA5
:1080D4009DF91730002B5FDA654BD3ED007A9DEDE7
:1080E4000A7AB4EEE77AF1EE10FA55D501238DF849
:1080F4002730594A594BD31ADB081B0443F00300B9
:108104005C4B1A685A4BD3ED007AF5EEC07AF1EE67
:1081140010FA0BD5564BD3ED007ABFEE007AF4EE8D
:10812400C77AF1EE10FA01DD534B00E0534B50498E
:10813400D1ED007AFDEEE77A17EE904A4C49D1ED85
:10814400007AF5EEC07AF1EE10FA0CDD484991EDB3
:10815400007A4749D1ED007AFDEEE77AF8EEE77A46
:1081640077EE677A0BE04249D1ED007AFDEEE77ACB
:10817400B8EEE77A3E49D1ED007A77EE677A9FED63
:10818400357A67EE877AFDEEE77A17EE901A019159
:1081940000943B490EF0CFFD344A9DF8173013701C
:1081A4009DF82730002B50D0324B1A68354B1B6892
:1081B400D31A0B932F4B1B68324A13600B9A134646
:1081C4009B0013445B000C930C9BB3F5967F39D34F
:1081D4000C9B40F2DC52934234D84EF660220C9B46
:1081E400B2FBF3F39AB2284B1A801B4A1B4BD31AE7
:1081F400DB081B0443F00303234A1288234918466F
:108204000EF05EFD00F083FA034683F00103DBB257
:10821400002B0BD0104A114BD31ADB081B0443F07C
:1082240001031B4918460EF03DFD0BE00A4A0B4BB7
:10823400D31ADB081B0443F002030C9A15491846B1
:108244000EF03EFD104B1B88FFE7184610B010BD22
:10825400942400200000C842FC8E0300C48E030056
:10826400589603009A99993FA49603008C24002001
:10827400902400207C240020F8960300FC96030040
:1082840000970300842400208024002034970300F6
:10829400509703007C97030000B585B00190019BC3
:1082A400002B0AD0074B43F001030393019B9B016E
:1082B4000293039B0298984700E000BF05B05DF865
:1082C40004FB00BF5098030000B583B00190019BEC
:1082D4000433184608F0F8F900BF03B05DF804FB56
:1082E40000B589B0059003921A460B468DF81330F9
:1082F40013468DF8123000230793059B181D9DF833
:1083040012209DF813109DF8283000931346039A09
:1083140008F020FD0790079B184609B05DF804FBA0
:1083240000B587B0039001921A460B468DF80B30C6
:1083340013468DF80A3000230593039B181D9DF8FE
:108344000A309DF80B10019A08F02CFD0590059B4E
:10835400184607B05DF804FB00B583B00190019B9B
:10836400002B0AD04FF47A70FFF796FF019B013B74
:108374000193019B002BF5D100E000BF03B05DF831
:1083840004FB000000B587B06B4600221A605A60F7
:108394009A60DA601B2300931A2301934FF0CD6394
:1083A400029302238DF80C3001238DF80D306946B9
:1083B40000230B4A0B4807F00DF90590059B049325
:1083C400049B002B04D0084A1E21049809F0A2FB48
:1083D4000448FFF779FF00BF07B05DF804FB00BF56
:1083E40029740200BC930300A097030000B587B072
:1083F40003460A468DF80F3013468DF80E309DF86B
:108404000F308DF810309DF80E308DF811300F4B71
:1084140000221A7004AA00230093022357210C4857
:10842400FFF75EFF059000BF084B1B78DBB283F0BB
:108434000103DBB2002BF7D1059B002B0CBF0123FA
:108444000023DBB2184607B05DF804FB702300205C
:10845400BC93030000B587B0034602918DF80F303A
:1084640013468DF80E301C4B00221A700DF10F02CA
:1084740001230093012357211848FFF731FF05908A
:1084840000BF154B1B78DBB283F00103DBB2002B7A
:10849400F7D1059B002B01D0002319E00E4B0022DD
:1084A4001A709DF80E30029A57210C48FFF738FFD6
:1084B400059000BF084B1B78DBB283F00103DBB2ED
:1084C400002BF7D1059B002B0CBF01230023DBB24B
:1084D400184607B05DF804FB70230020BC9303002A
:1084E40000B583B001238DF8073040210920FFF740
:1084F4007DFF03461A469DF807301340002B14BF36
:10850400012300238DF807306420FFF725FF0021A5
:108514000420FFF76BFF03461A469DF8073013400B
:10852400002B14BF012300238DF807300021052000
:10853400FFF75CFF03461A469DF807301340002BF3
:1085440014BF012300238DF8073000210620FFF714
:108554004DFF03461A469DF807301340002B14BF05
:10856400012300238DF807301F210820FFF73EFF69
:1085740003461A469DF807301340002B14BF01230D
:1085840000238DF8073007210920FFF72FFF03464A
:108594001A469DF807301340002B14BF0123002313
:1085A4008DF8073047210A20FFF720FF03461A46BB
:1085B4009DF807301340002B14BF012300238DF8CE
:1085C400073001210C20FFF711FF03461A469DF8DE
:1085D40007301340002B14BF012300238DF807300C
:1085E40001210D20FFF702FF03461A469DF80730CC
:1085F4001340002B14BF012300238DF807307F2183
:108604000E20FFF7F3FE03461A469DF80730134089
:10861400002B14BF012300238DF8073020210F20E5
:10862400FFF7E4FE03461A469DF807301340002B7B
:1086340014BF012300238DF8073021238DF8063061
:1086440003238DF805309DF8063019461120FFF7F5
:10865400CDFE03461A469DF807301340002B14BF85
:10866400012300238DF807309DF8053019461220A8
:10867400FFF7BCFE03461A469DF807301340002B53
:1086840014BF012300238DF807309DF807301846E6
:1086940003B05DF804FB00B589B003900291019228
:1086A40005AB092219460720FFF7D4FE034683F0E1
:1086B4000103DBB2002B01D0002324E09DF8143029
:1086C4001A049DF815301B0213439DF816201A4313
:1086D400029B1A609DF817301A049DF818301B028B
:1086E40013439DF819201A43019B1A609DF81A3010
:1086F4001A049DF81B301B0213439DF81C201A43D7
:10870400039B1A600123184609B05DF804FB00B509
:1087140083B001238DF8073000210420FFF766FEA3
:1087240003461A469DF807301340002B14BF01235B
:1087340000238DF8073000210520FFF757FE03467C
:108744001A469DF807301340002B14BF0123002361
:108754008DF8073000210620FFF748FE03461A462D
:108764009DF807301340002B14BF012300238DF81C
:1087740007309DF80730184603B05DF804FB00008D
:10878400BFF34F8F00BF064BDB6803F4E06204497C
:10879400044B1343CB60BFF34F8F00BF00BFFDE713
:1087A40000ED00E00400FA0582B01D4B1B68B3F134
:1087B400FF3F0AD11B4B1B68DBB201931A4B1B68AA
:1087C4001B0903F00F03009305E0154B1B6801938D
:1087D400164B1B680093019B062B1DD1009B033B8A
:1087E400042B17D801A252F823F000BF0588020019
:1087F400098802000D880200118802001588020011
:1088040001230AE0012308E0012306E0012304E038
:10881400012302E0012300E00023184602B0704760
:1088240030010010E00F00F0E80F00F034010010F8
:1088340082B0174B1B68DBB20193164B1B681B09F4
:1088440003F00F030093019B062B1DD1009B033BF8
:10885400042B17D801A252F823F000BF7588020038
:10886400798802007D8802008188020085880200E0
:1088740001230AE0002308E0002306E0002304E0CB
:10888400002302E0002300E00023184602B07047F2
:10889400E00F00F0E80F00F082B01D4B1B68B3F14D
:1088A400FF3F0AD11B4B1B68DBB201931A4B1B68B9
:1088B4001B0903F00F03009305E0154B1B6801939C
:1088C400164B1B680093019B062B1DD1009B033B99
:1088D400042B17D801A252F823F000BFF588020038
:1088E400F9880200FD88020001890200058902005E
:1088F40001230AE0012308E0012306E0012304E048
:10890400012302E0012300E00023184602B070476F
:1089140030010010E00F00F0E80F00F03401001007
:1089240082B0174B1B68DBB20193164B1B681B0903
:1089340003F00F030093019B062B1DD1009B033B07
:10894400042B17D801A252F823F000BF6589020056
:10895400698902006D89020071890200758902002B
:1089640001230AE0002308E0002306E0002304E0DA
:10897400002302E0002300E00023184602B0704701
:10898400E00F00F0E80F00F082B01D4B1B68B3F15C
:10899400FF3F0AD11B4B1B68DBB201931A4B1B68C8
:1089A4001B0903F00F03009305E0154B1B680193AB
:1089B400164B1B680093019B062B1DD1009B033BA8
:1089C400042B17D801A252F823F000BFE589020056
:1089D400E9890200ED890200F1890200F5890200AB
:1089E40001230AE0012308E0012306E0012304E057
:1089F400012302E0012300E00023184602B070477F
:108A040030010010E00F00F0E80F00F03401001016
:108A140082B0174B1B68DBB20193164B1B681B0912
:108A240003F00F030093019B062B1DD1009B033B16
:108A3400042B17D801A252F823F000BF558A020074
:108A4400598A02005D8A0200618A0200658A020076
:108A540001230AE0002308E0002306E0002304E0E9
:108A6400002302E0002300E00023184602B0704710
:108A7400E00F00F0E80F00F082B0174B1B68DBB288
:108A84000193164B1B681B0903F00F030093019B12
:108A9400062B1DD1009B033B042B17D801A252F8CF
:108AA40023F000BFBD8A0200C18A0200C58A020009
:108AB400C98A0200CD8A020001230AE0002308E0EB
:108AC400002306E0002304E0002302E0002300E08A
:108AD4000023184602B07047E00F00F0E80F00F0E2
:108AE40082B01D4B1B68B3F1FF3F0AD11B4B1B68BF
:108AF400DBB201931A4B1B681B0903F00F030093AD
:108B040005E0154B1B680193164B1B680093019BF2
:108B1400062B1DD1009B033B042B17D801A252F84E
:108B240023F000BF3D8B0200418B0200458B020005
:108B3400498B02004D8B020000230AE0002308E069
:108B4400012306E0012304E0012302E0012300E005
:108B54000023184602B0704730010010E00F00F007
:108B6400E80F00F03401001082B01D4B1B68B3F114
:108B7400FF3F0AD11B4B1B68DBB201931A4B1B68E6
:108B84001B0903F00F03009305E0154B1B680193C9
:108B9400164B1B680093019B062B1DD1009B033BC6
:108BA400042B17D801A252F823F000BFC58B020092
:108BB400C98B0200CD8B0200D18B0200D58B020041
:108BC40001230AE0012308E0012306E0012304E075
:108BD400012302E0012300E00023184602B070479D
:108BE40030010010E00F00F0E80F00F03401001035
:108BF40082B01D4B1B68B3F1FF3F0AD11B4B1B68AE
:108C0400DBB201931A4B1B681B0903F00F0300939B
:108C140005E0154B1B680193164B1B680093019BE1
:108C2400062B1DD1009B033B042B17D801A252F83D
:108C340023F000BF4D8C0200518C0200558C0200C1
:108C4400598C02005D8C020001230AE0012308E034
:108C5400012306E0012304E0012302E0012300E0F4
:108C64000023184602B0704730010010E00F00F0F6
:108C7400E80F00F03401001082B0154B1B6801931B
:108C8400144B1B680093019B062B1DD1009B033BD7
:108C9400042B17D801A252F823F000BFB58C0200B0
:108CA400B98C0200BD8C0200C18C0200C58C02008C
:108CB40000230AE0002308E0002306E0012304E087
:108CC400012302E0012300E00023184602B07047AC
:108CD400300100103401001082B0154B1B68019361
:108CE400144B1B680093019B062B1DD1009B033B77
:108CF400042B17D801A252F823F000BF158D0200EF
:108D0400198D02001D8D0200218D0200258D0200A7
:108D140000230AE0002308E0002306E0002304E027
:108D2400012302E0012300E00023184602B070474B
:108D3400300100103401001008B5FFF7CDFF0346E1
:108D4400002B07D04FF010234FF08042D3F80832A5
:108D5400C2F8583500BF08BD00BF044BD3F8003437
:108D6400002BFAD000BF00BF704700BF00E00140F5
:108D740000B583B00190054A019BC2F80435FFF7A2
:108D8400EBFF00BF03B05DF804FB00BF00E001404F
:108D9400024B034A1A6000BF704700BF94220020B0
:108DA4000090D00308B5FFF7FFFC0346002B06D064
:108DB400964B1B681B0A964A03F01F031360FFF7C8
:108DC40037FD0346002B02D0924B934A1A60FFF7FB
:108DD40063FD0346002B06D0904B1B685B0B904A47
:108DE40003F007031360FFF79BFD0346002B05D038
:108DF4008C4BDB688B4A23F08073D360FFF7C4FD90
:108E04000346002B0ED04FF080430022C3F80C2100
:108E14004FF080430022C3F810214FF0804300221A
:108E2400C3F83825FFF7F4FD0346002B02D07E4B30
:108E340003221A60FFF720FE0346002B0BD07B4B66
:108E440005221A607A4B01221A607A4B00221A60BA
:108E5400794B3F221A60FFF743FE0346002B76D07E
:108E64004FF08053754AD3F80434C2F820354FF0DC
:108E74008053724AD3F80834C2F824354FF0805333
:108E84006E4AD3F80C34C2F828354FF080536B4A3D
:108E9400D3F81034C2F82C354FF08053674AD3F816
:108EA4001434C2F830354FF08053644AD3F8183480
:108EB400C2F834354FF08053604AD3F81C34C2F8FA
:108EC40040354FF080535D4AD3F82034C2F844351E
:108ED4004FF08053594AD3F82434C2F848354FF040
:108EE4008053564AD3F82834C2F84C354FF0805397
:108EF400524AD3F82C34C2F850354FF080534F4ABD
:108F0400D3F83034C2F854354FF080534B4AD3F879
:108F14003434C2F860354FF08053484AD3F83834BB
:108F2400C2F864354FF08053444AD3F83C34C2F855
:108F340068354FF08053414AD3F84034C2F86C3559
:108F44004FF080533D4AD3F84434C2F87035FFF7EC
:108F54000BFE0346002B05D0394B1B68394A03F03E
:108F64004F031360FFF744FE0346002B0DD04FF070
:108F74008043D3F8003403F00103002B05D04FF0F5
:108F840080436FF00102C3F80024FFF775FE034627
:108F9400002B05D02C4B1B682B4A43F480631360D1
:108FA4002A4BD3F88830294A43F47003C2F8883036
:108FB400BFF34F8F00BFBFF36F8F00BFFFF7BCFE3F
:108FC4004FF01023D3F80032002B05DB4FF01023B1
:108FD400D3F80432002B15DA0120FFF7C9FE4FF055
:108FE40010231522C3F80022FFF7B6FE4FF010231A
:108FF4001522C3F80422FFF7AFFE0020FFF7B8FEE6
:10900400FFF7BEFBFFF7C4FE00BF08BD240300103A
:109014004035014074C007400DF0ADBA4402001061
:109024003C050040F0ED00E0A00500401056004073
:1090340088560040185600401456004000C00040B6
:1090440058020010E40E00403C17004000ED00E020
:109054006DDF704700BF184679DF704700BF1846C0
:109064007DDF704700BF184664DF704700BF1846B5
:1090740082B003460091ADF80630BDF80630DAB28E
:10908400009B1A70BDF806301B0A9AB2009B01338C
:10909400D2B21A700223184602B0704700B589B0E4
:1090A400039002911346ADF80630029B1B8803F12E
:1090B4000902BDF806309A4201D90C2353E004ABEF
:1090C4001846FFF7C5FF0790079B0693069B002BE6
:1090D40001D0069B47E0029B1B881A46039B13445E
:1090E40008221A70029B1B8801339AB2029B1A80D1
:1090F400029B1B881A46039B13441B221A70029B73
:109104001B8801339AB2029B1A80029B1B881A4661
:10911400039B981804AB0133062219460FF0A8FDEF
:10912400029B1B8806339AB2029B1A809DF810306A
:1091340023F00103DBB2002B07D1029B1B881A46E4
:10914400039B134400221A7006E0029B1B881A46F4
:10915400039B134401221A70029B1B8801339AB2A9
:10916400029B1A800023184609B05DF804FB00B581
:1091740089B0039002910192ADF80230039B1B78F1
:10918400012B05D1039B5B78002B01D1072391E0D0
:10919400019B1B889A1CBDF802309A420ED8039B8F
:1091A4001B78012B0CD1019B1B881A46039B5B780F
:1091B40013449A1CBDF802309A4201D90C2379E079
:1091C400019B1B88BDF80220D31A9BB2023BADF869
:1091D4001C30BDF81C30ADF81230019B1B880233E3
:1091E400029A13440DF1120211461846FFF738FF94
:1091F4000690069B0593059B002B01D0059B59E027
:10920400039B1B78022B06D0039B5B781A46BDF8A0
:1092140012309A4209D3BDF81230BDF81C209A428C
:1092240003D309238DF81F3016E008238DF81F306F
:10923400039B1B78012B0BD1039B5B781A46BDF86B
:109244001C30934204D3039B5B78ADF8123003E0E7
:10925400BDF81C30ADF81230BDF81230FE2B01D928
:109264000C2327E0BDF81230DAB2019B1B881946A3
:10927400029B0B440132D2B21A70019B1B8801334A
:109284009AB2019B1A80019B1B881A46029B1344C5
:109294009DF81F201A70019B1B8801339AB2019B11
:1092A4001A80019B1A88BDF8123013449AB2019BAC
:1092B4001A800023184609B05DF804FB00B589B094
:1092C400039002911346ADF80630029B1B881A1DC9
:1092D400BDF806309A4201D90C233AE00DF1160389
:1092E4001846FFF7B9FE0790079B0693069B002BD1
:1092F40001D0069B2DE0029B1B881A46039B134456
:1093040003221A70029B1B8801339AB2029B1A80B3
:10931400029B1B881A46039B134419221A70029B52
:109324001B8801339AB2029B1A80BDF81620029B57
:109334001B881946039B0B4419461046FFF798FEF9
:1093440003461A46029B1B8813449AB2029B1A8056
:109354000023184609B05DF804FB84B00291019221
:109364001A4603468DF80F301346ADF80C30019BB6
:109374001B88DA1CBDF80C309A4201D90C2328E072
:10938400019B1B881A46029B134402221A70019BFC
:109394001B8801339AB2019B1A80019B1B881A46D1
:1093A400029B134401221A70019B1B8801339AB259
:1093B400019B1A80019B1B881A46029B13449DF84B
:1093C4000F201A70019B1B8801339AB2019B1A80EB
:1093D4000023184604B0704784B0029101921A46E3
:1093E40003468DF80F301346ADF80C30019B1B88F3
:1093F400DA1CBDF80C309A4201D90C2328E0019BF9
:109404001B881A46029B134402221A70019B1B8874
:1094140001339AB2019B1A80019B1B881A46029B56
:1094240013440A221A70019B1B8801339AB2019BD0
:109434001A80019B1B881A46029B13449DF80F2037
:109444001A70019B1B8801339AB2019B1A80002376
:10945400184604B0704700B58FB0039001930B46D3
:109464008DF80B3013468DF80A3000238DF8333015
:10947400109B1B88ADF8303000230D9370E0039BE4
:109484005A680D9B9B001A4405AB106818600DF1D7
:109494001B0105AB00221846FFF7E6FD0A900A9B64
:1094A4000993099B002B01D0099B7BE09DF81B309D
:1094B4009DF80A209A4250D19DF83330002B01D0F8
:1094C400002300E002238DF82330109B1B881A46EA
:1094D4009DF81B301A449DF823301A44BDF84430DB
:1094E4009A4201DD0C235DE09DF8333083F00103E3
:1094F400DBB2002B16D0109B1B8801339AB2109B51
:109504001A80109B1B881A46019B13449DF80B205C
:109514001A70109B1B8801339AB2109B1A80012386
:109524008DF83330109B1B881A46019B1A440DF1A9
:109534001B0105AB1846FFF797FD0A900A9B07939A
:10954400079B002B01D0079B2CE0109B1B889DF8E8
:109554001B2013449AB2109B1A800D9B01330D9368
:10956400039B1B881A460D9B934288DB9DF833307E
:10957400002B16D0109B1A88BDF83030D31A9BB23A
:10958400013BADF82E30BDF82E30FF2B01D90C2352
:1095940008E0BDF83030019A1344BDF82E20D2B251
:1095A4001A70002318460FB05DF804FB00B58BB0A9
:1095B400059003930B468DF8133013468DF8123043
:1095C4009DF81310BDF8343001930C9B0093039B5A
:1095D40002220598FFF73FFF0990099B0893089B17
:1095E400002B01D0089B14E09DF81210BDF8343014
:1095F40001930C9B0093039B10220598FFF72BFF0C
:109604000990099B0793079B002B01D0079B00E05F
:10961400002318460BB05DF804FB82B00190019B57
:109624001B88052B0AD9019B1B88B3F5486F07D902
:10963400019B1B884FF6FF72934201D0072325E05C
:10964400019B5B88052B0AD9019B5B88B3F5486FA6
:1096540007D9019B5B884FF6FF72934201D0072321
:1096640014E0019B1B884FF6FF7293420DD0019BBF
:109674005B884FF6FF72934207D0019B1A88019BC7
:109684005B889A4201D9072300E00023184602B000
:10969400704700B587B0039002910192ADF8023093
:1096A400019B1B889A1DBDF802309A4201D90C23F4
:1096B4004BE00398FFF7B1FF0590059B0493049BCF
:1096C400002B01D0049B40E0019B1B881A46029B9F
:1096D400134405221A70019B1B8801339AB2019B23
:1096E4001A80019B1B881A46029B134412221A708B
:1096F400019B1B8801339AB2019B1A80039B1A8831
:10970400019B1B881946029B0B4419461046FFF720
:10971400AFFC03461A46019B1B8813449AB2019B73
:109724001A80039B5A88019B1B881946029B0B4491
:1097340019461046FFF79CFC03461A46019B1B88FA
:1097440013449AB2019B1A800023184607B05DF8AF
:1097540004FB00B587B0039002910192ADF802308A
:10976400039B9B8802330593019B1B881A46059B28
:1097740013449A1CBDF802309A4201D90C2353E0D9
:10978400059BFE2B01D90C234EE0059BDAB2019B0D
:109794001B881946029B0B440132D2B21A70019BFA
:1097A4001B8801339AB2019B1A80019B1B881A46BD
:1097B400029B1344FF221A70019B1B8801339AB247
:1097C400019B1A80039B1A88019B1B881946029BE4
:1097D4000B4419461046FFF74BFC03461A46019BFF
:1097E4001B8813449AB2019B1A80039B9B88002B0D
:1097F40019D0039B9B68002B01D1072314E0019B24
:109804001B881A46029B9818039B9968039B9B88A4
:109814001A460FF02DFA019B1A88039B9B88134468
:109824009AB2019B1A800023184607B05DF804FB26
:1098340000B589B0039002910192ADF80230039B08
:109844009B6A002B01D1072371E000238DF81F30A0
:1098540065E0039B996A9DF81F2013465B0013443F
:109864009B000B440693069B9B8802330593059B40
:10987400FE2B01D90C235AE0059BDAB2019B1B880D
:109884001946029B0B440132D2B21A70019B1B8809
:1098940001339AB2019B1A80019B1B881A46029BD2
:1098A400134416221A70019B1B8801339AB2019B40
:1098B4001A80069B1A88019B1B881946029B0B443D
:1098C40019461046FFF7D4FB03461A46019B1B8832
:1098D40013449AB2019B1A80069B9B88002B19D0D3
:1098E400069B9B68002B01D1072320E0019B1B886A
:1098F4001A46029B9818069B9968069B9B881A46F1
:109904000FF0B6F9019B1A88069B9B8813449AB200
:10991400019B1A809DF81F3001338DF81F30039B83
:1099240093F82C309DF81F209A4292D300231846B6
:1099340009B05DF804FB00B595B00590049103925D
:1099440000231393039B1B88ADF84A30039B00222A
:109954001A80059B93F82D30002B0ED0BDF84A30A9
:109964001A4603990498FFF799FB1390139B1193DC
:10997400119B002B01D0119BD8E0059B9B78002BF9
:109984000ED0BDF84A301A4603990498FFF796FCA6
:109994001390139B1093109B002B01D0109BC5E0D8
:1099A400059BDB78002B10D0059BDB7858B2BDF803
:1099B4004A30039A0499FFF7D0FC1390139B0F933A
:1099C4000F9B002B01D00F9BB0E0059B5B68002B25
:1099D40011D0059B5B6893F90000BDF84A30039AE7
:1099E4000499FFF7F9FC1390139B0E930E9B002B25
:1099F40001D00E9B9AE0059B1B89002B14D0059B7C
:109A040003F10800BDF84A300193039B0093049BC3
:109A140006220221FFF7CAFD1390139B0D930D9BA1
:109A2400002B01D00D9B81E0059B1B8A002B14D0D9
:109A3400059B03F11000BDF84A300193039B00938A
:109A4400049B07220321FFF7B1FD1390139B0C9392
:109A54000C9B002B01D00C9B68E0059B1B8B002BFF
:109A640014D0059B03F11800BDF84A300193039B01
:109A74000093049B15221421FFF798FD1390139B68
:109A84000B930B9B002B01D00B9B4FE0059B1B6A98
:109A9400002B0FD0059B186ABDF84A30039A04992D
:109AA400FFF7F7FD1390139B0A930A9B002B01D039
:109AB4000A9B3BE0059B5B6A002B0FD0059B586A11
:109AC400BDF84A30039A0499FFF743FE1390139BA1
:109AD4000993099B002B01D0099B27E0059B93F870
:109AE4002C30002B0ED0BDF84A30039A0499059807
:109AF400FFF79EFE1390139B0893089B002B01D045
:109B0400089B13E0059B1B78002B0ED0BDF84A3050
:109B1400039A04990598FFF72AFB1390139B079364
:109B2400079B002B01D0079B00E0139B184615B040
:109B34005DF804FB75DF704700BF184676DF704799
:109B440000BF18467ADF704700BF18467BDF7047B6
:109B540000BF184684B00346ADF8063000230393D3
:109B640016E00F49039A13469B0013449B000B44D1
:109B74001B88BDF806209A4207D1039A13469B001E
:109B840013449B00064A134406E0039B01330393EA
:109B9400039B002BE5D00023184604B0704700BF98
:109BA4005026002082B001900B46ADF80230019B94
:109BB400BDF802201A80019B00221A72019B0549FC
:109BC40003F10A020B4603CB1060516000BF02B0E0
:109BD400704700BF8026002082B00190019B4FF6A1
:109BE400FF721A8000BF02B0704788B003900291E0
:109BF40011461A460B46ADF806301346ADF804304C
:109C0400039B9B881A46BDF8063013440793039BB5
:109C14009B881946039B9B88BDF80620934228BF66
:109C240013469BB2CB1A0693039BDB881A46BDF8F6
:109C3400043013440593039BDB881946039BDB889C
:109C4400BDF80420934228BF13469BB2CB1A049359
:109C5400029B5A88039B1B889A4205D3029B5A880D
:109C6400039B5B889A4201D900231CE0029B9B88DA
:109C74001A46069B934205D8029B9B881A46079B6B
:109C8400934201D200230EE0029BDB881A46049B18
:109C9400934205D8029BDB881A46059B934201D266
:109CA400002300E00123184608B0704700B583B0D4
:109CB4000190064B9B69002B03D0044B9B690198D0
:109CC400984700BF03B05DF804FB00BF6426002082
:109CD40000B585B003460091ADF80630BDF80630F6
:109CE40000991846FFF726FF0390039B002B05D02D
:109CF400039B112B02D00398FFF7D8FF039B002B83
:109D04000CBF01230023DBB2184605B05DF804FB49
:109D140000B589B00190019B0793079B9BB218463D
:109D2400FFF718FF0690069B002B42D0069B1A7A79
:109D3400224B1B7B9A4215D2079B9AB2069B0A338D
:109D440019461046FFF7C4FF03468DF813309DF8FB
:109D54001330002B2DD0069B1B7A0133DAB2069BFD
:109D64001A7226E0069B00221A72144B1B7C002BED
:109D74000FD0079B9BB23B211846FFF7DFFE0590EF
:109D8400059B002B05D0059B082B02D00598FFF7F7
:109D94008DFF0A4B5B69002B0BD000238DF80C3030
:109DA400079B9BB2ADF80E30044B5B6903AA1046C7
:109DB400984700BF09B05DF804FB00BF642600208B
:109DC40030B587B00190019B002B01D10E2353E0E5
:109DD4002B4A019B14461D460FCD0FC495E807007E
:109DE40084E80700264B274A1A60019B1B68002B56
:109DF40011D0019B1B681846FFF7A4FE0490049B36
:109E0400002B01D0049B37E0019B1A681D4B10689E
:109E1400516803C308E01B48FFF798FE0490049BB5
:109E2400002B01D0049B27E00023059320E0059A32
:109E340013469B0013449B00134A13440393039853
:109E4400FFF7CAFE059B5B01104A1A44039B5A6044
:109E5400039B04330E4A0021184608F049FA049083
:109E6400049B002B01D0032306E0059B01330593DB
:109E7400059B002BDBD00023184607B030BD00BF84
:109E84006426002080260020502600203026002052
:109E9400159D020000B587B003460091ADF8063069
:109EA400009B5B7A002B1AD1009B1B7A002B03D1F9
:109EB400164B5B68059302E0144B9B680593009B6B
:109EC4005B68BDF806200599184608F04BFA049023
:109ED400049B002B16D00498FFF7E8FE12E0009BC9
:109EE40000221A72094B5B69002B0BD001238DF8F9
:109EF4000C30BDF80630ADF80E30044B5B6903AA94
:109F04001046984700BF07B05DF804FB64260020A4
:109F140000B585B00190019BDB7B8DF80F30019B70
:109F24009B88ADF80C309DF80F30012B2CD14FF6E7
:109F3400FF70FFF70FFE0290029B002B03D1042059
:109F4400FFF7B4FE21E0BDF80C3019460298FFF784
:109F540029FE029B03F10A00019B03F110014FF655
:109F6400FF7340F2F312FFF740FE03461A46029BCA
:109F74005A72074BDB89002B07D1BDF80C300299CC
:109F84001846FFF787FF00E000BF05B05DF804FB4B
:109F94006426002000B587B00190019B9B88ADF832
:109FA4001630BDF816301846FFF7D4FD0490049B14
:109FB400002B0ED0049B5B68184608F02BFA039024
:109FC400039B002B02D00398FFF770FE0498FFF761
:109FD40003FE00BF07B05DF804FB000000B587B0C6
:109FE4000190019B06330593059B1A88194BDB8965
:109FF4009A422BD1059B5B89022B27D1019B9B881D
:10A00400ADF81230BDF812301846FFF7A3FD0390E7
:10A01400039B002B1AD0059B0C33184600F083FBDE
:10A024000346002B06D0BDF8123003991846FFF7FB
:10A0340031FF0BE0039B5B68184608F0EBF90290D4
:10A04400029B002B02D00298FFF730FE00BF07B03E
:10A054005DF804FB6426002000B585B00190019BE7
:10A064009B88ADF80E30BDF80E301846FFF772FD30
:10A074000290029B002B15D0029B03F10A00019B66
:10A0840003F108014FF6FF7340F2F312FFF7ADFD41
:10A0940003461A46029B5A72BDF80E3002991846BE
:10A0A400FFF7F8FE00BF05B05DF804FB00B583B010
:10A0B40001900091019B1B88502B12D0502B18DC6F
:10A0C400122B12D0122B14DC102B02D0112B04D023
:10A0D4000FE00198FFF71CFF0CE00198FFF75AFF0F
:10A0E40008E00198FFF77AFF04E00198FFF7B4FF56
:10A0F40000E000BF00BF03B05DF804FB30B58FB0D3
:10A104000190009100230293009B002B1AD000239E
:10A114000D9314E06B460D9918460AF04AFB03466A
:10A12400002B09D0029B5A1C02920D9A92B25B003A
:10A1340038336B4423F82C2C0D9B01330D930D9B6A
:10A14400132BE7D9019B1D4602AC0FCC0FC50FCCD6
:10A154000FC594E8070085E8070001980FB030BDEB
:10A1640000B583B00346ADF80630BDF80630132BB6
:10A1740001D900230CE0BDF80630194606480AF060
:10A18400C3FABDF80630194604480AF0BDFA0123A3
:10A19400184603B05DF804FB902600208C260020AE
:10A1A40000B585B00346ADF80630002303930DE0F7
:10A1B400039B9B00094A13440433BDF8062011464F
:10A1C40018460AF0DDFA039B01330393039B1D2B0E
:10A1D400EED900BF00BF05B05DF804FB882600205F
:10A1E40000B583B00346ADF80630BDF80630194615
:10A1F40003480AF0C5FA00BF03B05DF804FB00BFD2
:10A204009026002030B59BB0184B9B68DB43189315
:10A21400164B5A6818AB114618460AF0A0FB189A58
:10A224006B4611461846FFF769FF0DAC6D460FCD1E
:10A234000FC40FCD0FC495E8070084E8070000237E
:10A2440019930BE0199B5B0068336B4433F8303C83
:10A254001846FFF7A5FF199B013319930D9B199A13
:10A264009A42EFD300BF00BF1BB030BD8826002048
:10A2740000B583B003468DF807309DF807301946C2
:10A2840003480AF096FA0346184603B05DF804FB47
:10A294008826002000B583B001900B46ADF802304B
:10A2A40013468DF801309DF80130002B06D0BDF81F
:10A2B4000230194601980AF027FA05E0BDF8023089
:10A2C400194601980AF05CFA00BF03B05DF804FB7C
:10A2D40000B585B001900091019B9B88ADF80E30CC
:10A2E400019B1B88103B0A2B00F2888001A252F8C4
:10A2F40023F000BF25A3020061A3020001A4020011
:10A3040001A4020001A4020001A4020001A40200AD
:10A3140001A4020001A40200CBA302006DA3020069
:10A32400FFF770FFBDF80E301846FFF719FF03461C
:10A3340083F00103DBB2002B05D0324AF021042064
:10A3440007F0E8FB57E0019BDB7B022B53D1BDF800
:10A354000E3019462C480AF0D7F94CE0BDF80E30FF
:10A364001846FFF73DFF49E0019B1B7AC3F3031333
:10A37400DBB28DF80D309DF80D30032B8CBF01231B
:10A384000023DAB2BDF80E3019462048FFF782FFE9
:10A394009DF80D30022B8CBF01230023DAB2BDF8E7
:10A3A4000E3019461A48FFF775FF9DF80D30012B42
:10A3B4008CBF01230023DAB2BDF80E3019461548CC
:10A3C400FFF768FF1AE0019B1B7A002B15D1019B54
:10A3D4005B7AC3F3C003DBB2002B14BF0123002359
:10A3E4008DF80C309DF80C20BDF80E301946074846
:10A3F400FFF750FF01E000BF00E000BF00BF05B061
:10A404005DF804FB5898030094260020A026002041
:10A414009C2600209826002000B583B00346ADF8A2
:10A424000630BDF80630132B01D9002306E0BDF831
:10A434000630194603480AF0BCF90346184603B02F
:10A444005DF804FB8C26002000B585B00346ADF80A
:10A45400063000238DF80F30BDF806301846FFF79C
:10A46400DBFF0346002B11D0BDF8063019460A481D
:10A474000AF09FF903468DF80E309DF80E30002B3C
:10A4840001D0022300E001238DF80F309DF80F3036
:10A49400184605B05DF804FB9426002000B585B08D
:10A4A4000346ADF8063000238DF80F30BDF80630B2
:10A4B4001846FFF7B1FF0346002B11D0BDF8063054
:10A4C40019460A480AF075F903468DF80E309DF8CE
:10A4D4000E30002B01D0022300E001238DF80F3051
:10A4E4009DF80F30184605B05DF804FB9026002057
:10A4F40000B583B00346ADF80630BDF80630184603
:10A50400FFF78AFF0346002B07D0BDF80630194633
:10A5140004480AF04EF9034600E00023184603B04D
:10A524005DF804FB9826002000B583B00346ADF81F
:10A534000630BDF806301846FFF76EFF0346002BC1
:10A5440007D0BDF80630194604480AF032F903462C
:10A5540000E00023184603B05DF804FB9C260020AD
:10A5640000B583B00346ADF80630BDF80630184692
:10A57400FFF752FF0346002B07D0BDF806301946FB
:10A5840004480AF016F9034600E00023184603B015
:10A594005DF804FBA026002000B583B003460A46FC
:10A5A400ADF8063013468DF805309DF80530184691
:10A5B400FFF75EFE0346002B16D0BDF806301846A2
:10A5C400FFF72AFF0346002B0ED09DF80530063313
:10A5D4009B00084A13440433BDF80620114618466C
:10A5E4000AF0E7F8034600E00023184603B05DF8DC
:10A5F40004FB00BF8826002000B583B00346ADF8F5
:10A6040006300B468DF8053013468DF804309DF85E
:10A6140005301846FFF72CFE0346002B15D0BDF875
:10A6240006301846FFF7F8FE0346002B0DD09DF8C0
:10A63400053006339B00074A134404339DF8042075
:10A64400BDF806101846FFF725FE00BF03B05DF8FD
:10A6540004FB00BF8826002000B587B00390029158
:10A664000192029B002B01D100231FE000230593DC
:10A67400039B002B19D00023049313E003AB04992C
:10A6840018460AF096F80346002B08D0049B9AB2A9
:10A69400029B019910469847059B01330593049B3F
:10A6A40001330493049B132BE8D9059B184607B088
:10A6B4005DF804FB00B585B00346029101928DF864
:10A6C4000F309DF80F301846FFF7D2FD034683F094
:10A6D4000103DBB2002B01D000230CE09DF80F3006
:10A6E400074A06339B0013445B68019A0299184693
:10A6F400FFF7B2FF0346184605B05DF804FB00BF40
:10A704008826002082B00190019B1B781AB2019B1D
:10A7140001331B781BB21B021BB213431BB29BB247
:10A72400184602B0704700B585B001900198FFF754
:10A73400E9FF0346ADF80E30BDF80E3003F0010317
:10A74400002B14BF01230023DBB2184605B05DF8CB
:10A7540004FBA0DF704700BF1846A1DF704700BFAD
:10A764001846ADDF704700BF1846B3DF704700BF1F
:10A774001846B4DF704700BF1846000000B585B026
:10A784000190019B002B03D10A49852009F0A4FE06
:10A79400012101980AF084F80390BFF35F8F00BF92
:10A7A400039B002B0CBF01230023DBB2184605B02A
:10A7B4005DF804FBE899030000B583B00190019BA8
:10A7C400002B03D10A49922009F086FE019B1B68E5
:10A7D400012B03D00649932009F07EFEBFF35F8F5F
:10A7E40000BF019B00221A6000BF03B05DF804FBA8
:10A7F400E899030000B585B00190019B5B88184679
:10A8040001F05AFA03461A46019B9A8000230393E7
:10A8140008E0084A039B52F8233001989847039BA9
:10A8240001330393039B002BF3D000BF00BF05B09B
:10A834005DF804FB9822002082B00190019B9B7973
:10A84400012B0BD1019B1B79012B07D1019B5B8849
:10A8540042F60212934201D1012300E0002303F0E7
:10A864000103DBB2184602B0704700B589B0034655
:10A874000091ADF8063003AB00221A605A609A606A
:10A88400DA601A6108238DF80C30BDF80630ADF893
:10A894000E30009B059303AB1846FFF7ABFF00BFD8
:10A8A40009B05DF804FB000010B58AB00346ADF8AA
:10A8B400063000238DF8273003AB00221A605A605B
:10A8C4009A60DA601A61BDF80630ADF80E30BDF852
:10A8D40006304FF6FF72934261D0BDF80630184639
:10A8E40000F034FF0890089B43F2020293424BD0DD
:10A8F400089B43F2020293422DD8089B112B11D0DE
:10A90400089B112B27D8089B002B03D0089B0B2BEB
:10A914000CD020E00F238DF80C3003AB1846FFF762
:10A9240069FF32E001238DF827302EE010238DF8E3
:10A934000C301C4A1C4BD31ADB081B0443F00203E3
:10A94400BDF80620194918460CF0BAF903AB1846AD
:10A95400FFF750FF19E0134A134BD31ADB081B040B
:10A9640043F0010408980BF09BFC03461A46BDF81B
:10A9740006300F4920460CF0B4F9BDF806300899AA
:10A984001846FFF772FF00E000BF0A4B19789DF8E4
:10A994002720BDF806301846FFF72EFE00E000BF62
:10A9A4000AB010BD6C8F0300C48E0300349A0300F8
:10A9B400B49A03000927002000B583B003460A4671
:10A9C400ADF8063013468DF80530064B19789DF81E
:10A9D4000520BDF806301846FFF70EFE00BF03B091
:10A9E4005DF804FB0827002010B58AB00346ADF8D3
:10A9F400063000238DF8273000238DF82630BDF86B
:10AA04000630184600F0BAFD0890089B43F2020293
:10AA1400934258D0089B43F2020293423AD8089BCF
:10AA2400862B17D0089B862B34D8089B112B0DD06E
:10AA3400089B112B2ED8089B002B03D0089B0B2BB3
:10AA440041D027E001238DF826303DE001238DF825
:10AA5400273039E003AB00221A605A609A60DA604A
:10AA64001A6107238DF80C30BDF80630ADF80E30AE
:10AA74001C4A1D4BD31ADB081B0443F00203BDF828
:10AA840006201A4918460CF01BF903AB1846FFF7C9
:10AA9400B1FE19E0134A144BD31ADB081B0443F02C
:10AAA400010408980BF0FCFB03461A46BDF8063077
:10AAB4000F4920460CF015F9BDF8063008991846E0
:10AAC400FFF7D3FE00E000BF9DF82720BDF8063055
:10AAD40011461846FFF770FF9DF8263018460AB055
:10AAE40010BD00BF6C8F0300C48E0300089B0300DD
:10AAF400409B030000B589B003460091ADF80630D1
:10AB040000238DF81F300DF116031846FFF72DFEB4
:10AB14000690069B002B04D02A494FF4997009F043
:10AB2400DBFC0123ADF81C3040E00223ADF8083013
:10AB34000023ADF80A3004AB039304A9BDF81C301C
:10AB440000221846FFF715FE0690069B002B01D045
:10AB5400069B32E09DF81F3083F00103DBB2002B2B
:10AB640009D0BDF8103042F60522934203D10123E7
:10AB74008DF81F3015E09DF81F30002B11D0BDF863
:10AB8400103042F6021293420BD1009B039302AAA7
:10AB9400BDF81C10BDF806301846FFF7E2FD034669
:10ABA4000BE0BDF81C300133ADF81C30BDF8163095
:10ABB400BDF81C209A42B8D30523184609B05DF8A5
:10ABC40004FB00BF809B030010B58AB00346ADF8B8
:10ABD400063001238DF8273000238DF82630BDF888
:10ABE4000630184600F062FE0890089B43F20142CA
:10ABF40093426AD0089B43F2014293426BD8089B6C
:10AC0400112B29D8089B112B65D801A252F823F0E7
:10AC140069AC0200DBAC0200DBAC0200DBAC02007E
:10AC2400DBAC0200DBAC0200B5AC0200DBAC020022
:10AC340095AC0200DBAC0200DBAC0200DBAC020032
:10AC4400DBAC0200DBAC0200DBAC0200DBAC0200DC
:10AC5400DBAC02000DAD0200089B43F202029342FA
:10AC640054D038E003AB00221A605A609A60DA606C
:10AC74001A6111238DF80C30BDF80630ADF80E3092
:10AC840001238DF8263003AB1846FFF7B3FD3EE0F1
:10AC94000DF10A02BDF8063011461846FFF72AFFE7
:10ACA4000890089B002B03D1BDF80A30002B2ED14D
:10ACB40000238DF82730BDF80630184600F0FCFF5D
:10ACC4000346184600F03AFE21E0BDF80630184667
:10ACD400FFF7EAFD1BE0184A184BD31ADB081B04E4
:10ACE40043F0010408980BF0DBFA03461A46BDF85A
:10ACF4000630134920460BF0F4FFBDF806300899DE
:10AD04001846FFF7B2FD02E000BF00E000BF0D4BA4
:10AD140019789DF82720BDF806301846FFF76CFC1B
:10AD2400094B19789DF82620BDF806301846FFF720
:10AD340063FC00BF0AB010BD6C8F0300C48E030017
:10AD4400009C03000A2700200B27002000B583B0D5
:10AD540003460091ADF80630BDF806301846FFF7FB
:10AD6400A3FD00BF03B05DF804FB000008B5044B6D
:10AD74001B78002203491846FFF79CFC00BF08BD5E
:10AD84000927002051AD020000B583B003460091AD
:10AD9400ADF806300A48FFF7F1FC0346002B0CD04F
:10ADA400BDF806301846FFF71FFE0346002B03D1FB
:10ADB4000348FFF701FD00E000BF03B05DF804FBAA
:10ADC4000427002000B583B003460091ADF8063097
:10ADD4000B4B1A78BDF8063011461846FFF7DCFB1A
:10ADE400034683F00103DBB2002B04D0BDF8063028
:10ADF4001846FFF7E9FE00BF03B05DF804FB00BF8F
:10AE04000B27002008B5044B1B7800220349184681
:10AE1400FFF750FC00BF08BD0A270020C9AD02009F
:10AE240000B583B00346ADF80630BDF806301846C9
:10AE340000F018FD0346002B07D0064B1978BDF827
:10AE4400063001221846FFF7D7FB00BF03B05DF8B8
:10AE540004FB00BF0A27002000B587B00346009119
:10AE6400ADF8063004AB0422002118460DF032FF81
:10AE740042F6A623ADF8103001238DF812300D4BA5
:10AE84001B68039303AA04A9BDF806301846FFF70C
:10AE940060FC0590059B002B07D1074B1978BDF882
:10AEA400063001221846FFF7A7FB00BF07B05DF884
:10AEB40004FB00BF409C03000D27002000B585B0B3
:10AEC4000346ADF80630BDF80630184600F0F4FE2F
:10AED4000346184602AA0023092101F0EEF90346AD
:10AEE400052B07D1054B1978BDF806300122184609
:10AEF400FFF782FB00BF05B05DF804FB0C270020C0
:10AF040000B583B00B4B1B7800220B491846FFF7A2
:10AF1400D1FB0190019B002B07D1084B1B78002229
:10AF240007491846FFF7C6FB019000BF03B05DF860
:10AF340004FB00BF082700208DAD02000C27002071
:10AF44005DAE020000B583B00190019B1B78002B1D
:10AF540011D1019B5B881846FFF7A6FC019B5B8817
:10AF64001846FFF75DFF019B5B881846FFF7A6FFB5
:10AF7400FFF7C6FF00E000BF00BF03B05DF804FBAD
:10AF840000B589B00190019B1B78092B5ED1019B10
:10AF94005B7A002B5AD1019B1B7A082B47D0082BD4
:10AFA4004DDC012B1BD0072B49D1019B9B881846F4
:10AFB40000F02CFF0346ADF81E30BDF81E304FF6EE
:10AFC400FF7293423DD0BDF81E3001211846FFF7B1
:10AFD400F3FCBDF81E301846FFF770FF31E0019B0B
:10AFE4009B8803AA0121184601F0B0FE0690069B37
:10AFF400002B28D1049B1B78002B24D0019B9B8819
:10B00400184600F003FF0346ADF81630BDF81630BD
:10B014004FF6FF72934216D00F4B1978BDF81630D5
:10B0240001221846FFF7E8FAFFF7ECFE0BE00B4BA2
:10B034001B68012B09D10948FFF7BEFB05E000BFDF
:10B0440004E000BF02E000BF00E000BFFFF758FFCC
:10B0540000BF09B05DF804FB0A2700200427002084
:10B0640010B586B003460A46ADF8063013468DF88F
:10B07400053003AB00221A605A600123ADF80C308E
:10B0840009238DF80E30194B1978BDF806300022CB
:10B094001846FFF7B1FA9DF80530002B01D0144B88
:10B0A40000E0144B0493BDF80630184600F004FE8B
:10B0B4000346184603AB0022194601F0C5F9059072
:10B0C400059B002B0FD00C4A0C4BD31ADB081B0436
:10B0D40043F0020405980BF0E3F803461A460849C6
:10B0E40020460BF0EDFD00BF06B010BD0C2700207C
:10B0F400C89D0300CC9D03006C8F0300C48E030025
:10B10400B49C030000B58DB00190019B9B88ADF801
:10B114002C30019B1B88353B1F2B00F2688101A258
:10B1240052F823F039B202003BB30200F3B3020039
:10B13400F3B30200F3B30200F3B30200F3B302006B
:10B14400F3B30200F3B30200F3B30200F3B302005B
:10B15400F3B30200F3B30200F3B30200F3B302004B
:10B16400F3B30200F3B30200F3B30200F3B302003B
:10B17400F3B30200F3B30200F3B30200F3B302002B
:10B18400F3B30200F3B30200F3B30200F3B302001B
:10B1940015B20200F3B30200A9B10200F3B3020036
:10B1A400B5B10200BDF82C301846FFF77DFB1EE157
:10B1B40003AB00221A605A609A60DA601A611223A3
:10B1C4008DF80C30BDF82C30ADF80E30BDF82C30B5
:10B1D400184600F071FD0346ADF81030BDF810308C
:10B1E400184600F0ABFB864B1978BDF82C300022D2
:10B1F4001846FFF701FA834B1978BDF82C3000226A
:10B204001846FFF7F9F903AB1846FFF7F3FAEEE037
:10B21400019B06331846FFF70FFB0346002B00F093
:10B22400DF80BDF82C3001211846FFF7C5FBFFF77E
:10B2340067FED5E000238DF82F30019B9B88ADF885
:10B244002C30019B0A3309936F4B1A78BDF82C30CC
:10B2540011461846FFF7A0F9034683F00103DBB259
:10B26400002B40F0BF80684B1978BDF82C300022C9
:10B274001846FFF7C1F9019BDB88B3F5857F4CD0F5
:10B28400019BDB88002B0DD0604A614BD31ADB088D
:10B294001B0443F00200019BDB881A465D490BF056
:10B2A4000FFD3AE0099B1B88012B0CD0574A584BE1
:10B2B400D31ADB081B0443F00200099B1B881A46BF
:10B2C40055490BF0FDFC099B5B88012B0DD04F4ABF
:10B2D4004F4BD31ADB081B0443F00200099B5B8825
:10B2E4001A464E490BF0ECFC17E0099B043319880D
:10B2F400BDF82C3000221846FFF72FFA0890089B5F
:10B30400002B0AD101238DF82F30454B1978BDF855
:10B314002C3001221846FFF76FF99DF82F3083F087
:10B324000103DBB2002B5FD0BDF82C30002118469E
:10B33400FFF796FE58E000238DF82E30019B9B8882
:10B34400ADF82C30019B0A330A93354B1A78BDF8BB
:10B354002C3011461846FFF71FF9034683F001030A
:10B36400DBB2002B42D12E4B1978BDF82C300022D1
:10B374001846FFF741F9019BDB88002B0DD0234AC7
:10B38400234BD31ADB081B0443F00200019BDB8828
:10B394001A4620490BF094FC19E00A9B9B88012B68
:10B3A4000DD01A4A1A4BD31ADB081B0443F00200CF
:10B3B4000A9B9B881A4619490BF082FC07E00A9BFA
:10B3C4009B79002B14BF012300238DF82E309DF8A8
:10B3D4002E20BDF82C3011461846FFF741FE06E03A
:10B3E40000BF04E000BF02E000BF00E000BFFFF7C1
:10B3F400BDFCFFF707FD00BF0DB05DF804FB00BF07
:10B404000B2700200A2700200D2700206C8F030043
:10B41400C48E0300149D0300509D03008C9D030003
:10B424000E270020AFDF704700BF1846B1DF70471A
:10B4340000BF1846B2DF704700BF1846B3DF70473D
:10B4440000BF184600B585B00190019B9B88184643
:10B4540000F0DCFC03461A46019B5A800023039348
:10B4640008E0084A039B52F8233001989847039B4D
:10B4740001330393039B002BF3D000BF00BF05B03F
:10B484005DF804FB9C22002010B588B02D4A05AB62
:10B4940092E8030083E8030048E02B4B1B8805A9CE
:10B4A4000022184600F0D0FF0790079B002B34D0F1
:10B4B4006B4600221A605A609A60DA601A61224B65
:10B4C4001B88ADF80430079B112B36D0079B862BC5
:10B4D40007D107238DF800306B461846FFF7B2FFFB
:10B4E4002BE01A4A1A4BD31ADB081B0443F001045D
:10B4F40007980AF0D5FE03461A46134B1B881549D4
:10B5040020460BF0EEFB08238DF80030079B0293D6
:10B514006B461846FFF796FF0FE00B4B1B88184647
:10B5240001F062F803461A46074B1A80064B1B8843
:10B534004FF6FF729342B0D100E000BF00BF08B0E5
:10B5440010BD00BF3C9E030010270020748F030031
:10B55400C48E0300E49D030000B583B00190064B44
:10B564001B884FF6FF72934201D0FFF78DFF00BF97
:10B5740003B05DF804FB00BF1027002030B58DB088
:10B584000346ADF80630BDF80630184600F094FBCB
:10B594000346ADF82630BDF826304FF6FF729342CD
:10B5A40002D143F20203C5E00123ADF82A3000239F
:10B5B4008DF8293000238DF82930BDF82A305A1C23
:10B5C400ADF82A201A4604ABBDF82600082101F084
:10B5D400D3FB0B900B9B002B40F0A180059B0893A1
:10B5E400089B03221A60089B991D089B1A1D089B3F
:10B5F4001B68BDF80600FFF71DFF0B900B9B002B8B
:10B6040062D102AABDF826300821184601F09EFB3B
:10B614000B900B9B002B16D00B9B052B13D0474A8A
:10B62400474BD31ADB081B0443F001040B980AF0C0
:10B6340037FE03461A46BDF80630424920460BF051
:10B6440050FB032376E00B9B052B11D0089B9A88B3
:10B65400039B9B889A420BD1089B981D039B991DC1
:10B66400089B9B881A460DF01DFA0346002B09D04F
:10B67400BDF82620BDF826300821184601F03BFC11
:10B684000B9051E0BDF826300821184601F014FC57
:10B694000690069B002B02D10B230B9344E0274A10
:10B6A400274BD31ADB081B0443F00104BDF82650D2
:10B6B40006980AF0F5FD03462A46234920460BF076
:10B6C40010FB03230B932FE00B9B0C2B03D10123C3
:10B6D4008DF8293004E00B9B052B01D100230B933B
:10B6E400BDF826300821184601F0E6FB0790079BB9
:10B6F400002B19D0114A124BD31ADB081B0443F058
:10B704000104BDF8265007980AF0CAFD03462A46EC
:10B714000D4920460BF0E5FA03230B9304E00B9B41
:10B72400072B01D10C230B939DF82930002B7FF4B8
:10B7340041AF0B9B18460DB030BD00BF748F0300A2
:10B74400C48E0300449E03007C9E030000B58BB0AE
:10B754000346ADF80630BDF80630184600F0ACFAE2
:10B764000346ADF81430002308930023ADF81E30CF
:10B774000323069301238DF81730BDF814304FF6D8
:10B78400FF72934216D002AABDF81430082118465D
:10B7940001F0DCFA0990099B002B0BD1039B049365
:10B7A400049B06330893049B9B88ADF81E30049BCE
:10B7B4001B680693BDF81E20BDF80600069B089979
:10B7C400FFF734FE0990099B042B02D1112309933E
:10B7D40031E0099B082B02D1002309932BE0099B3C
:10B7E4000B2B28D100238DF81730069B03F002039E
:10B7F400002B02D0012306931DE0089B002B03D1EC
:10B80400BDF81E30002B07D0002308930023ADF8A9
:10B814001E30032306930EE00F4A104BD31ADB08A5
:10B824001B0443F00103BDF806200D4918460BF034
:10B8340047FA03230993099B0B2BBBD09DF81730C0
:10B8440083F00103DBB2002B01D00B230993099B86
:10B8540018460BB05DF804FB748F0300C48E03001C
:10B86400FC9E030000B589B00346ADF806300DF127
:10B8740017030493BDF80630184600F01DFA03467A
:10B88400ADF81E3003AABDF81E300121184601F0A0
:10B894005DFA0690069B002B01D0002301E0049B77
:10B8A4001B78184609B05DF804FB000010B584B09D
:10B8B4000346ADF806304FF6FF73ADF80E301B4863
:10B8C400FFF7BCFD0290029B002B11D0184A194BC4
:10B8D400D31ADB081B0443F0010402980AF0E0FCCD
:10B8E40003461A46144920460BF0EAF903231AE0EA
:10B8F4000E4B1988BDF80E20BDF806301846FFF728
:10B9040091FD0290029B43F20302934205D1074B3F
:10B914001B8801339AB2054B1A80029B43F203023F
:10B924009342E5D0029B184604B010BD12270020B4
:10B93400748F0300C48E0300749F030000B585B0A8
:10B944000346ADF80630084A02AB92E8030083E8E8
:10B95400030002A9BDF806300022184600F074FD69
:10B9640000BF05B05DF804FBC09F030046DF7047CD
:10B9740000BF184600B585B001900023039308E08A
:10B98400084A039B52F8233001989847039B0133DC
:10B994000393039B012BF3D900BF00BF05B05DF8EF
:10B9A40004FB00BFD0A0030084B0019000230393E4
:10B9B4000AE0019A039B13441B78002B01D0012356
:10B9C40006E0039B01330393039B0F2BF1D9002360
:10B9D400184604B0704700B583B001900091019BF4
:10B9E400002B02D0009B002B01D100231BE0019B04
:10B9F4001B78C3F34603DAB2009B1B78C3F34603F8
:10BA0400DBB29A4201D000230DE0019B581C009B3D
:10BA14000133062219460DF045F80346002B0CBFEE
:10BA240001230023DBB2184603B05DF804FB0000D9
:10BA340030B597B00190019B1B88102B40F091808A
:10BA4400019B0AAC1D1D0FCD0FC40FCD0FC495E88B
:10BA5400070084E807004FF6FF73ADF856309DF8F1
:10BA64002C3023F00103DBB2062B47D000F08EFC10
:10BA74009DF82C30C3F34603DBB2012B02DC002B10
:10BA840015DA3BE0022B2ED038E0089B03F11102BB
:10BA94000AAB043311461846FFF79DFF0346002BFB
:10BAA40005D0BDF82630ADF8563000BF26E007AA11
:10BAB4000DF126031946072000F072FC0346002B03
:10BAC400E3D11BE0089B5A1C0AAB04331146184609
