:020000022000DC
:106000000000012019620200016202000362020026
:10601000056202000762020009620200000000003F
:106020000000000000000000000000000B62020001
:106030000D620200000000000F6202001162020007
:10604000C9F102001362020061F70200C5FF0200FD
:10605000DDFF0200136202005DF60200136202001F
:106060001362020013620200136202001362020054
:106070001362020013620200136202001362020044
:10608000136202008D2C03001362020013620200EF
:106090001362020013620200F57B03001362020028
:1060A0001362020013620200136202001362020014
:1060B00013620200136202000000000000000000F2
:1060C00013620200136202001362020013620200F4
:1060D000136202001362020013620200000000005B
:1060E00000000000000000000000000000000000B0
:1060F00000000000000000000000000000000000A0
:10610000000000000000000000000000000000008F
:10611000000000000000000000000000000000007F
:10612000000000000000000000000000000000006F
:10613000000000000000000000000000000000005F
:10614000000000000000000000000000000000004F
:10615000000000000000000000000000000000003F
:10616000000000000000000000000000000000002F
:10617000000000000000000000000000000000001F
:10618000000000000000000000000000000000000F
:1061900000000000000000000000000000000000FF
:1061A00000000000000000000000000000000000EF
:1061B00000000000000000000000000000000000DF
:1061C00000000000000000000000000000000000CF
:1061D00000000000000000000000000000000000BF
:1061E00000000000000000000000000000000000AF
:1061F000000000000000000000000000000000009F
:10620000FEE7FEE7FEE7FEE7FEE7FEE7FEE7FEE766
:10621000FEE7FEE700F002B8FFF7FCBF0F484FF0C3
:106220000701884385460E4880470E48016841F4BF
:1062300070010160BFF34F8FBFF36F8F00F01AB88A
:1062400009480A490A4A884207D0521A05D00378F9
:1062500001300B700131013AF9D170470000012083
:106260008D73020088ED00E010840300602200209E
:10627000742200203A493B480A1A02D0072291436F
:106280008D46394939480A1A06D00722914381F3CD
:106290000988022282F3148835483649364A00F0CC
:1062A00041F836483649374A00F03CF83648374915
:1062B000374A00F037F837483749384A00F032F8A3
:1062C00037483849384A00F02DF838483849394AB3
:1062D00000F028F838483949394A00F023F839489D
:1062E0003949002200F036F838483949002200F0D8
:1062F00031F838483849091A11F0AAFE374A904750
:1063000025482649884205D00268043003B49047E6
:1063100003BCF7E700208646EC4600200021304A07
:106320009047FEE7884214D0521A12D003460B431E
:1063300013430324234206D1036804300B60043165
:10634000043AF9D17047037801300B700131013AFA
:10635000F9D17047884202D002700130FAE77047E5
:106360000000012000E000200000012000000120CA
:10637000E8C703007422002034230020E4630200F5
:10638000E46302007A820300E8C70300742200205D
:106390007422002024840300248403002484030046
:1063A0002484030024840300248403002484030041
:1063B00024840300E5C70300A8C803003423002099
:1063C0003423002034230020CC550020CC5500205D
:1063D000CC550020CC550020CC7500204162020035
:0463E000416802000E
:1063E40078DF704700BF18467CDF704700BF18464F
:1063F40000B583B0019000911C4A1D4BD31ADB08F1
:106404001B0443F00300019B1B881A46194910F032
:1064140079FB019B1B88102B02D0112B10D021E09B
:10642400124A134BD31ADB081B0443F0030312492B
:10643400184610F059FB019B9A88104B1A8011E002
:106444000A4A0B4BD31ADB081B0443F003030C4921
:10645400184610F049FB094B4FF6FF721A8000F002
:106464003BF900BF00BF03B05DF804FB30830300B9
:1064740000830300D0840300E484030098220020F6
:10648400F084030000B587B011F0D2FA0590059BA3
:106494000493049B002B04D0144AC02104980BF0ED
:1064A40077FA0023019301AB1946012011F0D6FBC2
:1064B4000590059B0393039B002B04D00B4AC42136
:1064C40003980BF065FA01AB184611F0BBFC05907C
:1064D400059B0293029B002B04D0044AC721029817
:1064E4000BF056FA00BF07B05DF804FB008503000B
:1064F40000B585B09DF80430012262F303038DF8E2
:1065040004309DF80430012262F307138DF804303F
:1065140001AB082209491846FFF766FF0390039B65
:106524000293029B002B04D0054AD22102980BF05F
:106534002FFA00BF05B05DF804FB00BF848503009B
:106544000085030000B583B00021094805F0D0F8A8
:106554000190019B0093009B002B04D0054AD82195
:1065640000980BF015FA00BF03B05DF804FB00BF00
:10657400382300200085030000B583B00190019BFF
:106584001B78002B0ED1094A094BD31ADB081B04D4
:1065940043F00300019B9B8A1A46019B1B69054932
:1065A40010F0C1FA00BF03B05DF804FB30830300B0
:1065B400008303009085030000B585B001AB04227D
:1065C4000021184611F0BCFD0A4B019301AB19469A
:1065D400094808F0ABF90390039B0293029B002B3C
:1065E40004D0064AEE2102980BF0D2F900BF05B0A0
:1065F4005DF804FB7D6502007C2200200085030019
:1066040030B5CDB01FABAC220021184611F098FD77
:1066140010AB3C220021184611F092FD02238DF8A4
:10662400403001238DF8423006238DF8433001AB0E
:106634003C220021184611F083FD4CABA3F5967360
:1066440001221A824CABA3F59673204A5A611FACFF
:1066540010AD0FCD0FC40FCD0FC40FCD0FC495E8EF
:10666400070084E807004CABA3F596732EAC1D46D7
:106674000FCD0FC40FCD0FC40FCD0FC495E8070085
:1066840084E8070000238DF8F53001238DF8F830F5
:106694004023419300234293002348931FAB1946A0
:1066A4000B4801F095FF4B904B9B4A934A9B002B60
:1066B40005D0084A4FF488714A980BF069F9012112
:1066C400034801F078FF00BF4DB030BD9C2200208C
:1066D4004C2300200085030000B583B003210F483C
:1066E40002F04EF80190019B0093009B002B05D013
:1066F4000B4A4FF48C7100980BF04AF9094A0A4B83
:10670400D31ADB081B0443F003030849184610F0AE
:10671400EBF900BF03B05DF804FB00BF4C2300207D
:10672400008503003083030000830300AC8503006D
:1067340000B58BB001AB1C220021184611F000FDFE
:10674400002301934FF4203302934FF470230393F7
:1067540003238DF810300023ADF8123000238DF898
:106764001430002306930023079301AB184602F06C
:106774006BFA0990099B0893089B002B05D0054AE6
:1067840040F22B1108980BF003F900BF0BB05DF831
:1067940004FB00BF0085030000B583B0C120FFF7F0
:1067A4001FFE0190019B0093009B002B05D00B4A18
:1067B4004FF4A57100980BF0EBF8094A094BD31A72
:1067C400DB081B0443F00303C1220749184610F0F9
:1067D40099F900BF03B05DF804FB00BF0085030016
:1067E40030830300008303000486030000B583B0F4
:1067F4000BF07EFC0190019B0093009B002B05D0C5
:106804000A4A40F2B31100980BF0C2F8084A094B47
:10681400D31ADB081B0443F003030749184610F09E
:1068240063F900BF03B05DF804FB00BF00850300FB
:1068340030830300008303007C86030000B583B02B
:106844004FF4004100200FF079FE0190019B00936A
:10685400009B002B05D0184A40F2C11100980BF0A0
:1068640097F80FF0EDFD154A154BD31ADB081B04FE
:1068740043F003031349184610F036F9012000F0E1
:1068840063F9FFF7B3FFFFF7FDFDFFF731FEFFF7F5
:1068940059FEFFF791FEFFF7B3FEFFF749FFFFF73D
:1068A4007BFFFFF719FF00BF10F090F90346002BA0
:1068B400FAD120BFF8E700BF00850300308303004E
:1068C400008303009886030000B583B00190019B08
:1068D4001B68184600F0B5F80346002B04D105499F
:1068E4004FF4F6700DF036FD4FF0A043184603B098
:1068F4005DF804FBB086030000B585B0019008463E
:1069040011461A4603468DF803300B468DF80230C3
:1069140013468DF8013001AB1846FFF7D5FF0390FD
:106924009DF803209DF802305B001A439DF8013066
:106934009B001A439DF818301B0242EA03019DF89C
:106944001C301B04019A1943039B02F5E07243F8BF
:10695400221000BF05B05DF804FB00B585B00390BC
:1069640000230193002300930023012201210398B3
:10697400FFF7C2FF00BF05B05DF804FB00B585B0AA
:1069840003900B468DF80B309DF80B3000220192DA
:1069940000220092002200210398FFF7ADFF00BF00
:1069A40005B05DF804FB00B585B0019001AB184655
:1069B400FFF78AFF0390019B012202FA03F31946B1
:1069C400039800F02AF800BF05B05DF804FB00B599
:1069D40085B0019001AB1846FFF776FF0390019B49
:1069E400012202FA03F31946039800F020F800BFCD
:1069F40005B05DF804FB00B583B001900091009BE5
:106A0400002B03D10198FFF7E2FF02E00198FFF7A2
:106A1400CAFF00BF03B05DF804FB82B0019000918F
:106A2400019B009AC3F8082500BF02B0704782B0EA
:106A340001900091019B009AC3F80C2500BF02B09D
:106A4400704784B00190019B5B0902930023039378
:106A5400029B002B03D14FF0FF33039300BF019B34
:106A640003F01F030193039A019B22FA03F303F03B
:106A74000103002B14BF01230023DBB2184604B02A
:106A84007047000000B583B00190019B032B03D92C
:106A9400074947200DF05EFC064A019B13441B780E
:106AA40001211846FFF7A7FF00BF03B05DF804FB00
:106AB400E08603005887030000B583B000230193E8
:106AC40005E00198FFF7DEFF019B01330193019B71
:106AD400032BF6D900BF00BF03B05DF804FB000030
:106AE40000B583B00023019309E0094A019B1344D4
:106AF4001B781846FFF731FF019B01330193019B7B
:106B0400032BF2D9FFF7D8FF00BF03B05DF804FBF5
:106B14005887030000B583B0002301930AE0094AB3
:106B2400019B13441B7803211846FFF727FF019BA1
:106B340001330193019B032BF1D900BF00BF03B0C4
:106B44005DF804FB5C87030000B583B00190019BF2
:106B540003F00103002B01D0FFF7C2FF019B03F0F8
:106B64000203002B01D0FFF7D5FF00BF03B05DF88F
:106B740004FB000084B001900B468DF803301346EB
:106B84008DF8023000230393019B032B3CD89DF81E
:106B94000230012B0BD19DF80330012B04D1019B52
:106BA400DBB20E33DBB200E000238DF802309DF837
:106BB4000330022B0FD0022B23DC002B16D0012B29
:106BC4001FD11449019A13465B0013440B449DF8EA
:106BD40002201A701AE00F49019A13465B0013440D
:106BE4000B4401339DF802201A700FE00949019A01
:106BF40013465B0013440B4402339DF802201A70C1
:106C040004E00723039301E007230393039B18463F
:106C140004B070478027002000B583B00122002112
:106C24000020FFF7A7FF0190019B002B04D0019BDC
:106C3400072B01D0019B1CE0072202210120FFF752
:106C440099FF0190019B002B04D0019B072B01D0DD
:106C5400019B0EE0042202210020FFF78BFF01902C
:106C6400019B002B04D0019B072B01D0019B00E06A
:106C74000023184603B05DF804FB00B583B001227D
:106C840002210020FFF776FF0190019B002B04D026
:106C9400019B072B01D0019B1CE00722022101204C
:106CA400FFF768FF0190019B002B04D0019B072B89
:106CB40001D0019B0EE00A2200210020FFF75AFFB9
:106CC4000190019B002B04D0019B072B01D0019B59
:106CD40000E00023184603B05DF804FB00B585B05E
:106CE40001900091019B1B88102B02D0112B18D00E
:106CF4002FE01A4B1B68002B0DD1FFF78DFF03907B
:106D0400039B002B07D0164B1B68002B03D0144B9E
:106D14001B6803989847114B1B6801330F4A136093
:106D240017E00E4B1B68013B0C4A13600B4B1B68AE
:106D3400002B0DD1FFF7A1FF0390039B002B07D07D
:106D4400074B1B68002B03D0054B1B68039898471F
:106D540000BF00BF05B05DF804FB00BF9027002012
:106D64008C270020BFF34F8F00BF064BDB6803F472
:106D7400E0620449044B1343CB60BFF34F8F00BF61
:106D840000BFFDE700ED00E00400FA0582B01D4BF2
:106D94001B68B3F1FF3F0AD11B4B1B68DBB20193A5
:106DA4001A4B1B681B0903F00F03009305E0154BF6
:106DB4001B680193164B1B680093019B062B1DD186
:106DC400009B033B042B17D801A252F823F000BF09
:106DD400E96D0200ED6D0200F16D0200F56D020037
:106DE400F96D020001230AE0012308E0012306E013
:106DF400012304E0012302E0012300E000231846FC
:106E040002B0704730010010E00F00F0E80F00F00E
:106E14003401001082B0174B1B68DBB20193164B90
:106E24001B681B0903F00F030093019B062B1DD164
:106E3400009B033B042B17D801A252F823F000BF98
:106E4400596E02005D6E0200616E0200656E020002
:106E5400696E020001230AE0002308E0002306E033
:106E6400002304E0002302E0002300E0002318468E
:106E740002B07047E00F00F0E80F00F082B01D4B45
:106E84001B68B3F1FF3F0AD11B4B1B68DBB20193B4
:106E94001A4B1B681B0903F00F03009305E0154B05
:106EA4001B680193164B1B680093019B062B1DD195
:106EB400009B033B042B17D801A252F823F000BF18
:106EC400D96E0200DD6E0200E16E0200E56E020082
:106ED400E96E020001230AE0012308E0012306E031
:106EE400012304E0012302E0012300E0002318460B
:106EF40002B0704730010010E00F00F0E80F00F01E
:106F04003401001082B0174B1B68DBB20193164B9F
:106F14001B681B0903F00F030093019B062B1DD173
:106F2400009B033B042B17D801A252F823F000BFA7
:106F3400496F02004D6F0200516F0200556F02004D
:106F4400596F020001230AE0002308E0002306E051
:106F5400002304E0002302E0002300E0002318469D
:106F640002B07047E00F00F0E80F00F082B01D4B54
:106F74001B68B3F1FF3F0AD11B4B1B68DBB20193C3
:106F84001A4B1B681B0903F00F03009305E0154B14
:106F94001B680193164B1B680093019B062B1DD1A4
:106FA400009B033B042B17D801A252F823F000BF27
:106FB400C96F0200CD6F0200D16F0200D56F0200CD
:106FC400D96F020001230AE0012308E0012306E04F
:106FD400012304E0012302E0012300E0002318461A
:106FE40002B0704730010010E00F00F0E80F00F02D
:106FF4003401001082B0174B1B68DBB20193164BAF
:107004001B681B0903F00F030093019B062B1DD182
:10701400009B033B042B17D801A252F823F000BFB6
:10702400397002003D700200417002004570020098
:107034004970020001230AE0002308E0002306E06F
:10704400002304E0002302E0002300E000231846AC
:1070540002B07047E00F00F0E80F00F082B0174B69
:107064001B68DBB20193164B1B681B0903F00F036B
:107074000093019B062B1DD1009B033B042B17D8C7
:1070840001A252F823F000BFA1700200A570020013
:10709400A9700200AD700200B170020001230AE081
:1070A400002308E0002306E0002304E0002302E0BC
:1070B400002300E00023184602B07047E00F00F000
:1070C400E80F00F082B01D4B1B68B3F1FF3F0AD1FB
:1070D4001B4B1B68DBB201931A4B1B681B0903F0A3
:1070E4000F03009305E0154B1B680193164B1B68B7
:1070F4000093019B062B1DD1009B033B042B17D847
:1071040001A252F823F000BF217102002571020090
:10711400297102002D7102003171020000230AE07E
:10712400002308E0012306E0012304E0012302E038
:10713400012300E00023184602B07047300100101C
:10714400E00F00F0E80F00F03401001082B01D4B96
:107154001B68B3F1FF3F0AD11B4B1B68DBB20193E1
:107164001A4B1B681B0903F00F03009305E0154B32
:107174001B680193164B1B680093019B062B1DD1C2
:10718400009B033B042B17D801A252F823F000BF45
:10719400A9710200AD710200B1710200B571020063
:1071A400B971020001230AE0012308E0012306E08B
:1071B400012304E0012302E0012300E00023184638
:1071C40002B0704730010010E00F00F0E80F00F04B
:1071D4003401001082B01D4B1B68B3F1FF3F0AD18C
:1071E4001B4B1B68DBB201931A4B1B681B0903F092
:1071F4000F03009305E0154B1B680193164B1B68A6
:107204000093019B062B1DD1009B033B042B17D835
:1072140001A252F823F000BF31720200357202005D
:10722400397202003D7202004172020001230AE039
:10723400012308E0012306E0012304E0012302E026
:10724400012300E00023184602B07047300100100B
:10725400E00F00F0E80F00F03401001082B0154B8D
:107264001B680193144B1B680093019B062B1DD1D3
:10727400009B033B042B17D801A252F823F000BF54
:10728400997202009D720200A1720200A5720200AE
:10729400A972020000230AE0002308E0002306E0AC
:1072A400012304E0012302E0012300E00023184647
:1072B40002B07047300100103401001082B0154B49
:1072C4001B680193144B1B680093019B062B1DD173
:1072D400009B033B042B17D801A252F823F000BFF4
:1072E400F9720200FD7202000173020005730200CC
:1072F4000973020000230AE0002308E0002306E0EB
:10730400002304E0012302E0012300E000231846E7
:1073140002B07047300100103401001008B5FFF7C7
:10732400CDFF0346002B07D04FF010234FF08042CF
:10733400D3F80832C2F8583500BF08BD00BF044B6B
:10734400D3F80034002BFAD000BF00BF704700BF51
:1073540000E0014000B583B00190054A019BC2F8EA
:107364000435FFF7EBFF00BF03B05DF804FB00BF7B
:1073740000E00140024B034A1A6000BF704700BF9F
:10738400A02200200090D00308B5FFF7FFFC0346BD
:10739400002B06D0964B1B681B0A964A03F01F036A
:1073A4001360FFF737FD0346002B02D0924B934A3C
:1073B4001A60FFF763FD0346002B06D0904B1B6851
:1073C4005B0B904A03F007031360FFF79BFD034632
:1073D400002B05D08C4BDB688B4A23F08073D36081
:1073E400FFF7C4FD0346002B0ED04FF0804300226C
:1073F400C3F80C214FF080430022C3F810214FF052
:1074040080430022C3F83825FFF7F4FD0346002B20
:1074140002D07E4B03221A60FFF720FE0346002BA6
:107424000BD07B4B05221A607A4B01221A607A4BEF
:1074340000221A60794B3F221A60FFF743FE03468D
:10744400002B76D04FF08053754AD3F80434C2F839
:1074540020354FF08053724AD3F80834C2F82435EB
:107464004FF080536E4AD3F80C34C2F828354FF0ED
:1074740080536B4AD3F81034C2F82C354FF0805344
:10748400674AD3F81434C2F830354FF08053644A55
:10749400D3F81834C2F834354FF08053604AD3F827
:1074A4001C34C2F840354FF080535D4AD3F8203481
:1074B400C2F844354FF08053594AD3F82434C2F803
:1074C40048354FF08053564AD3F82834C2F84C3527
:1074D4004FF08053524AD3F82C34C2F850354FF051
:1074E40080534F4AD3F83034C2F854354FF08053A8
:1074F4004B4AD3F83434C2F860354FF08053484ACD
:10750400D3F83834C2F864354FF08053444AD3F882
:107514003C34C2F868354FF08053414AD3F84034C4
:10752400C2F86C354FF080533D4AD3F84434C2F866
:107534007035FFF70BFE0346002B05D0394B1B6853
:10754400394A03F04F031360FFF744FE0346002B50
:107554000DD04FF08043D3F8003403F00103002B27
:1075640005D04FF080436FF00102C3F80024FFF709
:1075740075FE0346002B05D02C4B1B682B4A43F4A5
:10758400806313602A4BD3F88830294A43F470038C
:10759400C2F88830BFF34F8F00BFBFF36F8F00BFB7
:1075A400FFF7BCFE4FF01023D3F80032002B05DBAD
:1075B4004FF01023D3F80432002B15DA0120FFF723
:1075C400C9FE4FF010231522C3F80022FFF7B6FEC0
:1075D4004FF010231522C3F80422FFF7AFFE00205A
:1075E400FFF7B8FEFFF7BEFBFFF7C4FE00BF08BD00
:1075F400240300104035014074C007400DF0ADBABB
:10760400440200103C050040F0ED00E0A0050040FD
:10761400105600408856004018560040145600404A
:1076240000C0004058020010E40E00403C17004027
:1076340000ED00E06DDF704700BF184679DF70474A
:1076440000BF18467DDF704700BF184664DF7047EF
:1076540000BF184682B003460091ADF80630BDF86D
:107664000630DAB2009B1A70BDF806301B0A9AB2D3
:10767400009B0133D2B21A700223184602B070473D
:1076840000B589B0039002911346ADF80630029B11
:107694001B8803F10902BDF806309A4201D90C2374
:1076A40053E004AB1846FFF7C5FF0790079B06930A
:1076B400069B002B01D0069B47E0029B1B881A46C1
:1076C400039B134408221A70029B1B8801339AB24D
:1076D400029B1A80029B1B881A46039B13441B229D
:1076E4001A70029B1B8801339AB2029B1A80029B78
:1076F4001B881A46039B981804AB013306221946CB
:1077040010F0ECFC029B1B8806339AB2029B1A8091
:107714009DF8103023F00103DBB2002B07D1029B4C
:107724001B881A46039B134400221A7006E0029B2E
:107734001B881A46039B134401221A70029B1B8860
:1077440001339AB2029B1A800023184609B05DF8EF
:1077540004FB00B589B0039002910192ADF80230A8
:10776400039B1B78012B05D1039B5B78002B01D174
:10777400072391E0019B1B889A1CBDF802309A42B2
:107784000ED8039B1B78012B0CD1019B1B881A4636
:10779400039B5B7813449A1CBDF802309A4201D9CA
:1077A4000C2379E0019B1B88BDF80220D31A9BB2FD
:1077B400023BADF81C30BDF81C30ADF81230019B13
:1077C4001B880233029A13440DF112021146184623
:1077D400FFF738FF0690069B0593059B002B01D00D
:1077E400059B59E0039B1B78022B06D0039B5B7817
:1077F4001A46BDF812309A4209D3BDF81230BDF8CA
:107804001C209A4203D309238DF81F3016E0082365
:107814008DF81F30039B1B78012B0BD1039B5B78E6
:107824001A46BDF81C30934204D3039B5B78ADF831
:10783400123003E0BDF81C30ADF81230BDF8123040
:10784400FE2B01D90C2327E0BDF81230DAB2019BDC
:107854001B881946029B0B440132D2B21A70019B59
:107864001B8801339AB2019B1A80019B1B881A461C
:10787400029B13449DF81F201A70019B1B8801333F
:107884009AB2019B1A80019B1A88BDF812301344E6
:107894009AB2019B1A800023184609B05DF804FBD4
:1078A40000B589B0039002911346ADF80630029BEF
:1078B4001B881A1DBDF806309A4201D90C233AE000
:1078C4000DF116031846FFF7B9FE0790079B0693C0
:1078D400069B002B01D0069B2DE0029B1B881A46B9
:1078E400039B134403221A70029B1B8801339AB230
:1078F400029B1A80029B1B881A46039B134419227D
:107904001A70029B1B8801339AB2029B1A80BDF83D
:107914001620029B1B881946039B0B4419461046EC
:10792400FFF798FE03461A46029B1B8813449AB23B
:10793400029B1A800023184609B05DF804FB84B04A
:10794400029101921A4603468DF80F301346ADF8A2
:107954000C30019B1B88DA1CBDF80C309A4201D90B
:107964000C2328E0019B1B881A46029B1344022225
:107974001A70019B1B8801339AB2019B1A80019BE8
:107984001B881A46029B134401221A70019B1B8810
:1079940001339AB2019B1A80019B1B881A46029BF1
:1079A40013449DF80F201A70019B1B8801339AB26F
:1079B400019B1A800023184604B0704784B00291DA
:1079C40001921A4603468DF80F301346ADF80C3079
:1079D400019B1B88DA1CBDF80C309A4201D90C2398
:1079E40028E0019B1B881A46029B134402221A704A
:1079F400019B1B8801339AB2019B1A80019B1B884F
:107A04001A46029B13440A221A70019B1B880133F5
:107A14009AB2019B1A80019B1B881A46029B13444D
:107A24009DF80F201A70019B1B8801339AB2019BA9
:107A34001A800023184604B0704700B58FB0039035
:107A440001930B468DF80B3013468DF80A30002352
:107A54008DF83330109B1B88ADF8303000230D9324
:107A640070E0039B5A680D9B9B001A4405AB106899
:107A740018600DF11B0105AB00221846FFF7E6FD67
:107A84000A900A9B0993099B002B01D0099B7BE078
:107A94009DF81B309DF80A209A4250D19DF833304E
:107AA400002B01D0002300E002238DF82330109B2B
:107AB4001B881A469DF81B301A449DF823301A443B
:107AC400BDF844309A4201DD0C235DE09DF833306B
:107AD40083F00103DBB2002B16D0109B1B8801330B
:107AE4009AB2109B1A80109B1B881A46019B134460
:107AF4009DF80B201A70109B1B8801339AB2109BBF
:107B04001A8001238DF83330109B1B881A46019B81
:107B14001A440DF11B0105AB1846FFF797FD0A90B7
:107B24000A9B0793079B002B01D0079B2CE0109B1B
:107B34001B889DF81B2013449AB2109B1A800D9B3E
:107B440001330D93039B1B881A460D9B934288DBDC
:107B54009DF83330002B16D0109B1A88BDF83030B6
:107B6400D31A9BB2013BADF82E30BDF82E30FF2B5B
:107B740001D90C2308E0BDF83030019A1344BDF854
:107B84002E20D2B21A70002318460FB05DF804FB01
:107B940000B58BB0059003930B468DF81330134654
:107BA4008DF812309DF81310BDF8343001930C9BFE
:107BB4000093039B02220598FFF73FFF0990099B5E
:107BC4000893089B002B01D0089B14E09DF8121029
:107BD400BDF8343001930C9B0093039B102205984D
:107BE400FFF72BFF0990099B0793079B002B01D0FC
:107BF400079B00E0002318460BB05DF804FB82B03D
:107C04000190019B1B88052B0AD9019B1B88B3F5A6
:107C1400486F07D9019B1B884FF6FF72934201D02E
:107C2400072325E0019B5B88052B0AD9019B5B8810
:107C3400B3F5486F07D9019B5B884FF6FF729342F7
:107C440001D0072314E0019B1B884FF6FF72934277
:107C54000DD0019B5B884FF6FF72934207D0019BC6
:107C64001A88019B5B889A4201D9072300E000230C
:107C7400184602B0704700B587B003900291019294
:107C8400ADF80230019B1B889A1DBDF802309A4260
:107C940001D90C234BE00398FFF7B1FF0590059B36
:107CA4000493049B002B01D0049B40E0019B1B88A0
:107CB4001A46029B134405221A70019B1B88013348
:107CC4009AB2019B1A80019B1B881A46029B13449B
:107CD40012221A70019B1B8801339AB2019B1A80ED
:107CE400039B1A88019B1B881946029B0B44194667
:107CF4001046FFF7AFFC03461A46019B1B8813444A
:107D04009AB2019B1A80039B5A88019B1B881946CF
:107D1400029B0B4419461046FFF79CFC03461A4687
:107D2400019B1B8813449AB2019B1A8000231846B6
:107D340007B05DF804FB00B587B00390029101928F
:107D4400ADF80230039B9B8802330593019B1B888B
:107D54001A46059B13449A1CBDF802309A4201D975
:107D64000C2353E0059BFE2B01D90C234EE0059B0D
:107D7400DAB2019B1B881946029B0B440132D2B232
:107D84001A70019B1B8801339AB2019B1A80019BD4
:107D94001B881A46029B1344FF221A70019B1B88FE
:107DA40001339AB2019B1A80039B1A88019B1B889A
:107DB4001946029B0B4419461046FFF74BFC034639
:107DC4001A46019B1B8813449AB2019B1A80039B99
:107DD4009B88002B19D0039B9B68002B01D10723A0
:107DE40014E0019B1B881A46029B9818039B996810
:107DF400039B9B881A4610F071F9019B1A88039B18
:107E04009B8813449AB2019B1A800023184607B03A
:107E14005DF804FB00B589B0039002910192ADF8BE
:107E24000230039B9B6A002B01D1072371E00023DE
:107E34008DF81F3065E0039B996A9DF81F20134657
:107E44005B0013449B000B440693069B9B88023300
:107E54000593059BFE2B01D90C235AE0059BDAB24E
:107E6400019B1B881946029B0B440132D2B21A7043
:107E7400019B1B8801339AB2019B1A80019B1B88CA
:107E84001A46029B134416221A70019B1B88013365
:107E94009AB2019B1A80069B1A88019B1B8819467B
:107EA400029B0B4419461046FFF7D4FB03461A46BF
:107EB400019B1B8813449AB2019B1A80069B9B88E2
:107EC400002B19D0069B9B68002B01D1072320E0CF
:107ED400019B1B881A46029B9818069B9968069B6F
:107EE4009B881A4610F0FAF8019B1A88069B9B8817
:107EF40013449AB2019B1A809DF81F3001338DF808
:107F04001F30039B93F82C309DF81F209A4292D384
:107F14000023184609B05DF804FB00B595B0059040
:107F24000491039200231393039B1B88ADF84A30FA
:107F3400039B00221A80059B93F82D30002B0ED052
:107F4400BDF84A301A4603990498FFF799FB139039
:107F5400139B1193119B002B01D0119BD8E0059B1F
:107F64009B78002B0ED0BDF84A301A46039904982A
:107F7400FFF796FC1390139B1093109B002B01D0DA
:107F8400109BC5E0059BDB78002B10D0059BDB78AC
:107F940058B2BDF84A30039A0499FFF7D0FC139005
:107FA400139B0F930F9B002B01D00F9BB0E0059BFD
:107FB4005B68002B11D0059B5B6893F90000BDF84A
:107FC4004A30039A0499FFF7F9FC1390139B0E931C
:107FD4000E9B002B01D00E9B9AE0059B1B89002B66
:107FE40014D0059B03F10800BDF84A300193039BAC
:107FF4000093049B06220221FFF7CAFD1390139BF2
:108004000D930D9B002B01D00D9B81E0059B1B8ADA
:10801400002B14D0059B03F11000BDF84A300193E6
:10802400039B0093049B07220321FFF7B1FD1390E8
:10803400139B0C930C9B002B01D00C9B68E0059BBD
:108044001B8B002B14D0059B03F11800BDF84A309C
:108054000193039B0093049B15221421FFF798FDC1
:108064001390139B0B930B9B002B01D00B9B4FE0A6
:10807400059B1B6A002B0FD0059B186ABDF84A307C
:10808400039A0499FFF7F7FD1390139B0A930A9B35
:10809400002B01D00A9B3BE0059B5B6A002B0FD0B1
:1080A400059B586ABDF84A30039A0499FFF743FECA
:1080B4001390139B0993099B002B01D0099B27E084
:1080C400059B93F82C30002B0ED0BDF84A30039A50
:1080D40004990598FFF79EFE1390139B0893089B41
:1080E400002B01D0089B13E0059B1B78002B0ED0BE
:1080F400BDF84A30039A04990598FFF72AFB1390B8
:10810400139B0793079B002B01D0079B00E0139B55
:10811400184615B05DF804FB86B0039001921A4628
:108124000B46ADF80A3013468DF80930039B002B3B
:1081340002D0019B002B01D100235BE00023ADF8AA
:1081440016300CE0BDF81630039A13441B781A4617
:10815400BDF8163013449BB20133ADF81630BDF8A8
:1081640016305A1CBDF80A309A420FDA019B1B885C
:10817400BDF816209A42E5D3BDF816300133039AB0
:1081840013441B789DF809209A42DBD1BDF81620D0
:10819400BDF80A309A4201D300232BE0BDF8163013
:1081A4000233ADF81430BDF81630039A13441B782B
:1081B400002B07D0BDF81630039A13441B78013BFB
:1081C4009BB200E00023ADF81230BDF81230002B52
:1081D40008D0BDF81420BDF812301A44BDF80A3096
:1081E4009A4201DD002305E0019BBDF814201A80AA
:1081F400BDF81230184606B0704700B585B001903E
:108204000B46ADF8023013468DF801300023ADF86B
:108214000C309DF8013003AABDF802100198FFF755
:108224007BFF0346ADF80E30BDF80E30002B01D1B4
:10823400002304E0BDF80C301A46019B1344184691
:1082440005B05DF804FB72DF704700BF184673DFAA
:10825400704700BF184682B00190019B93F83034F8
:10826400184602B0704784B00190002303930AE0DB
:10827400019A039B13441B78002B01D0012306E0D1
:10828400039B01330393039B052BF1D90023184669
:1082940004B0704700B585B001900B468DF80330EB
:1082A400019B03F227431846FFF7DDFF03468DF8D1
:1082B4000F309DF80330013B032B33D801A252F851
:1082C40023F000BFD9820200FD8202001183020064
:1082D4001D830200019B9B79002B0DD0019B93F819
:1082E400243083F00103DBB2002B05D09DF80F305E
:1082F400002B01D0012316E0019BDB79002B05D074
:108304009DF80F30002B01D002230CE0019B1B7A57
:10831400002B01D0032306E0019B5B7A002B01D0E4
:10832400042300E00023184605B05DF804FB00BFF9
:1083340082B001900091019B012283F83120019BBE
:108344000022C3F82024019B03F22642009B5A60BA
:10835400009B00229A60009B02221A70009B8022DC
:108364009A810023184602B0704782B001900091B0
:10837400019B022283F83120019B93F82430002BC7
:1083840003D0009B07221A7002E0009B03221A709C
:10839400019B1B699AB2009B9A81019B0022C3F83E
:1083A4002024019B03F22642009B5A60019BDA6859
:1083B400009B9A600023184602B0704700B583B052
:1083C4000190019B5B79002B0FD0019B93F82E3415
:1083D40083F00103DBB2002B07D00198FFF73BFFCA
:1083E4000346002B01D0012300E0002303F0010326
:1083F400DBB2184603B05DF804FB00B585B001900C
:108404000B468DF80330019BD3F81004019BB3F89D
:10841400143401221946FFF7F0FE0390039B002B4E
:1084240003D0039B9DF803201A70019B03F15400B1
:10843400019B03F58261019B3C331A46FFF703FF5E
:108444000346184605B05DF804FB00B585B00190FD
:108454000091019B5A69009B9A60019B9B699AB2A7
:10846400009B9A81019B93F82430002B04D0019B3C
:10847400062283F83C2003E0019B012283F83C2080
:108484000198FFF79BFF0346002B13D0009B0222A9
:108494001A7504210198FFF7B0FF0390039B029320
:1084A400029B002B01D0029B0FE0019B052283F865
:1084B400312003E0019B032283F83120019B03F563
:1084C4008262019BC3F820240023184605B05DF89E
:1084D40004FB00B585B001900091019BDA69009B13
:1084E4009A60019B1B6A9AB2009B9A81019B93F844
:1084F4002430002B04D0019B062283F83C2003E0A7
:10850400019B012283F83C200198FFF757FF0346A3
:10851400002B13D0009B02221A7504210198FFF747
:108524006CFF0390039B0293029B002B01D0029BE0
:108534000FE0019B062283F8312003E0019B042213
:1085440083F83120019B03F58262019BC3F8202448
:108554000023184605B05DF804FB82B00190019B2E
:108564009B78002B06D0019B93F82030002B01D080
:1085740000230AE0019B9B6A042B03D0019B5B6AE6
:10858400042B01D1002300E00123184602B07047F8
:1085940084B00190019B93F82430002B03D0EE2388
:1085A400ADF80E3002E01F23ADF80E30BDF80E30EA
:1085B400184604B0704782B001900B468DF8033022
:1085C400019B9DF8032083F8302000BF02B0704760
:1085D40030B587B001900091009B002B02D0019B25
:1085E400002B01D10E23B8E0009B78331846FFF727
:1085F400B4FF034683F00103DBB2002B01D0072351
:10860400ABE0019B00229A70019A009B141D03F1B8
:1086140078050FCD0FC40FCD0FC495E8070084E88B
:108624000700019B002283F83020009BD3F8A4208C
:10863400019B5A63009BD3F8A820019B9A63019B7A
:108644004FF6FF72A3F82424019B03F58262019B79
:10865400C3F82024019B03F2264307220021184675
:108664000FF06EFD019B1B7883F00103DBB2002B3E
:1086740003D0019BFF2283F85420019B03F1550290
:10868400019BC3F810240198FFF782FF03461A46A2
:10869400019BA3F814240098019B03F15501019B4D
:1086A40003F214431A46FFF738FC0590059B049324
:1086B400049B002B01D0049B4FE0019B03F2312269
:1086C400019BC3F818240198FFF762FF03461A467A
:1086D400019BA3F81C24009B03F13C00019BD3F8ED
:1086E4001814019B03F21C431A46FFF716FC05906D
:1086F400059B0393039B002B01D0039B2DE0019B5F
:10870400012283F85120019B9B699AB2019BA3F833
:108714004820019B012283F83C20019B00221A641B
:10872400019B002283F85020019B5A69019B5A64E3
:10873400019B03F15400019B3C331A460021FFF7CF
:1087440082FD0590059B0293029B002B01D0029BA6
:1087540003E0019B01221A70059B184607B030BD47
:1087640082B00190019B1B68012B03D0019B1B6805
:10877400022B01D1012300E00023184602B0704708
:1087840000B585B001900B468DF80330019B1B7832
:1087940083F00103DBB2002B01D0082309E1019B24
:1087A4009DF803209A70019B03F2264307220021BF
:1087B40018460FF0C5FC019B9B79002B03D0019B4D
:1087C4009B78012B0FD0019BDB79002B03D0019BFD
:1087D4009B78012B07D0019BDB79002B14D0019BE4
:1087E4009B78022B10D1019B5B6B002B08D0019B63
:1087F400012283F82D24019B5B6B0820984703E03A
:10880400019B002283F82D249DF80330194601981A
:10881400FFF740FD03461A46019B9A70019B5B6B70
:10882400002B20D0019B9B78032B03D0019B9B78CA
:10883400042B18D1019B5B79002B14D0019B93F876
:108844002E3483F00103DBB2002B0CD0019B0022F9
:1088540083F83024019B012283F82F24019B5B6B56
:108864000720984703E0019B002283F82F24019BF3
:108874003C331822002118460FF062FC019B0122B0
:1088840083F83C20019B2C331846FFF769FF03460D
:10889400002B06D0019BDB6ADAB2019B83F85120DE
:1088A40003E0019B012283F85120019B93F82430BB
:1088B400002B12D0019B28331846FFF751FF0346C3
:1088C400002B06D0019B9B6ADAB2019B83F85220ED
:1088D40003E0019B012283F85220019B002283F8CC
:1088E4005020019B9B78042B31D801A252F823F02D
:1088F40049890200098902001989020029890200B4
:1089040039890200019B3C3319460198FFF710FD99
:1089140003901DE0019B3C3319460198FFF725FDA8
:10892400039015E0019B3C3319460198FFF78DFD38
:1089340003900DE0019B3C3319460198FFF7C9FDF4
:10894400039005E0019B002283F8312000E000BF82
:10895400019B9B78002B20D0019B03F15400019BC9
:10896400D3F82014019B3C331A46FFF76CFC0390A8
:10897400039B002B01D0039B1BE0019B93F8542025
:10898400019B93F8303019461046FFF760FC0390C2
:10899400039B002B01D0039B0BE0019B5B6B002B23
:1089A40006D0019B5B6B019A92F8312010469847E0
:1089B4000023184605B05DF804FB00BF75DF70475F
:1089C40000BF184676DF704700BF18467ADF70474D
:1089D40000BF18467BDF704700BF184684B00346CB
:1089E400ADF806300023039316E00F49039A1346AB
:1089F4009B0013449B000B441B88BDF806209A423D
:108A040007D1039A13469B0013449B00064A134460
:108A140006E0039B01330393039B002BE5D0002363
:108A2400184604B0704700BFB827002082B00190F8
:108A34000B46ADF80230019BBDF802201A80019B61
:108A440000221A72019B054903F10A020B4603CB6B
:108A54001060516000BF02B0704700BFE8270020DB
:108A640082B00190019B4FF6FF721A8000BF02B0E2
:108A7400704788B00390029111461A460B46ADF830
:108A840006301346ADF80430039B9B881A46BDF8A4
:108A9400063013440793039B9B881946039B9B88CA
:108AA400BDF80620934228BF13469BB2CB1A069307
:108AB400039BDB881A46BDF8043013440593039BDB
:108AC400DB881946039BDB88BDF80420934228BF4A
:108AD40013469BB2CB1A0493029B5A88039B1B88B0
:108AE4009A4205D3029B5A88039B5B889A4201D918
:108AF40000231CE0029B9B881A46069B934205D8E0
:108B0400029B9B881A46079B934201D200230EE0E6
:108B1400029BDB881A46049B934205D8029BDB88A0
:108B24001A46059B934201D2002300E00123184614
:108B340008B0704700B583B00190064B9B69002BC9
:108B440003D0044B9B690198984700BF03B05DF8BC
:108B540004FB00BFCC27002000B585B0034600917C
:108B6400ADF80630BDF8063000991846FFF726FF29
:108B74000390039B002B05D0039B112B02D0039879
:108B8400FFF7D8FF039B002B0CBF01230023DBB2AC
:108B9400184605B05DF804FB00B589B00190019B4F
:108BA4000793079B9BB21846FFF718FF0690069B96
:108BB400002B42D0069B1A7A224B1B7B9A4215D279
:108BC400079B9AB2069B0A3319461046FFF7C4FF67
:108BD40003468DF813309DF81330002B2DD0069BDF
:108BE4001B7A0133DAB2069B1A7226E0069B002236
:108BF4001A72144B1B7C002B0FD0079B9BB23B219A
:108C04001846FFF7DFFE0590059B002B05D0059B5A
:108C1400082B02D00598FFF78DFF0A4B5B69002BE8
:108C24000BD000238DF80C30079B9BB2ADF80E30AF
:108C3400044B5B6903AA1046984700BF09B05DF86E
:108C440004FB00BFCC27002030B587B00190019B06
:108C5400002B01D10E2353E02B4A019B14461D46E1
:108C64000FCD0FC495E8070084E80700264B274A78
:108C74001A60019B1B68002B11D0019B1B681846CE
:108C8400FFF7A4FE0490049B002B01D0049B37E063
:108C9400019B1A681D4B1068516803C308E01B4808
:108CA400FFF798FE0490049B002B01D0049B27E05F
:108CB4000023059320E0059A13469B0013449B0070
:108CC400134A134403930398FFF7CAFE059B5B0101
:108CD400104A1A44039B5A60039B04330E4A002132
:108CE400184609F043FA0490049B002B01D0032397
:108CF40006E0059B01330593059B002BDBD0002385
:108D0400184607B030BD00BFCC270020E82700205C
:108D1400B8270020982700209D8B020000B587B05B
:108D240003460091ADF80630009B5B7A002B1AD104
:108D3400009B1B7A002B03D1164B5B68059302E062
:108D4400144B9B680593009B5B68BDF8062005994E
:108D5400184609F045FA0490049B002B16D0049899
:108D6400FFF7E8FE12E0009B00221A72094B5B69D0
:108D7400002B0BD001238DF80C30BDF80630ADF874
:108D84000E30044B5B6903AA1046984700BF07B036
:108D94005DF804FBCC27002000B585B00190019B51
:108DA400DB7B8DF80F30019B9B88ADF80C309DF870
:108DB4000F30012B2CD14FF6FF70FFF70FFE0290FE
:108DC400029B002B03D10420FFF7B4FE21E0BDF881
:108DD4000C3019460298FFF729FE029B03F10A00A2
:108DE400019B03F110014FF6FF7340F2F312FFF7FA
:108DF40040FE03461A46029B5A72074BDB89002B3E
:108E040007D1BDF80C3002991846FFF787FF00E040
:108E140000BF05B05DF804FBCC27002000B587B087
:108E24000190019B9B88ADF81630BDF816301846AA
:108E3400FFF7D4FD0490049B002B0ED0049B5B68C9
:108E4400184609F025FA0390039B002B02D00398DF
:108E5400FFF770FE0498FFF703FE00BF07B05DF84C
:108E640004FB000000B587B00190019B0633059315
:108E7400059B1A88194BDB899A422BD1059B5B8988
:108E8400022B27D1019B9B88ADF81230BDF812301C
:108E94001846FFF7A3FD0390039B002B1AD0059BF4
:108EA4000C33184600F0E6FB0346002B06D0BDF851
:108EB400123003991846FFF731FF0BE0039B5B6800
:108EC400184609F0E5F90290029B002B02D00298A3
:108ED400FFF730FE00BF07B05DF804FBCC2700208D
:108EE40000B585B00190019B9B88ADF80E30BDF8AC
:108EF4000E301846FFF772FD0290029B002B15D02E
:108F0400029B03F10A00019B03F108014FF6FF7372
:108F140040F2F312FFF7ADFD03461A46029B5A7264
:108F2400BDF80E3002991846FFF7F8FE00BF05B0F1
:108F34005DF804FB00B583B001900091019B1B8890
:108F4400502B12D0502B18DC122B12D0122B14DC05
:108F5400102B02D0112B04D00FE00198FFF71CFF57
:108F64000CE00198FFF75AFF08E00198FFF77AFF39
:108F740004E00198FFF7B4FF00E000BF00BF03B0B6
:108F84005DF804FB30B58FB001900091002302938B
:108F9400009B002B1AD000230D9314E06B460D990F
:108FA40018460BF044FB0346002B09D0029B5A1CC5
:108FB40002920D9A92B25B0038336B4423F82C2C46
:108FC4000D9B01330D930D9B132BE7D9019B1D467C
:108FD40002AC0FCC0FC50FCC0FC594E8070085E891
:108FE400070001980FB030BD00B583B00346ADF85B
:108FF4000630BDF80630132B01D900230CE0BDF870
:109004000630194606480BF0BDFABDF8063019467D
:1090140004480BF0B7FA0123184603B05DF804FBCB
:10902400F8270020F427002000B585B00346ADF8EA
:109034000630002303930DE0039B9B00094A13446D
:109044000433BDF80620114618460BF0D7FA039BEB
:1090540001330393039B1D2BEED900BF00BF05B062
:109064005DF804FBF027002000B583B00346ADF89B
:109074000630BDF80630194603480BF0BFFA00BFAE
:1090840003B05DF804FB00BFF827002030B59BB0A7
:10909400184B9B68DB431893164B5A6818AB114660
:1090A40018460BF09AFB189A6B4611461846FFF7C0
:1090B40069FF0DAC6D460FCD0FC40FCD0FC495E8FD
:1090C400070084E80700002319930BE0199B5B0059
:1090D40068336B4433F8303C1846FFF7A5FF199BFF
:1090E400013319930D9B199A9A42EFD300BF00BF25
:1090F4001BB030BDF027002000B583B003468DF8C7
:1091040007309DF80730194603480BF090FA0346E0
:10911400184603B05DF804FBF027002000B583B0C7
:1091240001900B46ADF8023013468DF801309DF8DE
:109134000130002B06D0BDF80230194601980BF01F
:1091440021FA05E0BDF80230194601980BF056FAF1
:1091540000BF03B05DF804FB00B585B00190009139
:10916400019B9B88ADF80E30019B1B88103B0A2B9A
:1091740000F2888001A252F823F000BFAD910200F2
:10918400E991020089920200899202008992020008
:109194008992020089920200899202008992020057
:1091A40053920200F5910200FFF770FFBDF80E30F4
:1091B4001846FFF719FF034683F00103DBB2002BC7
:1091C40005D0324AF021042008F0E2FB57E0019B6D
:1091D400DB7B022B53D1BDF80E3019462C480BF023
:1091E400D1F94CE0BDF80E301846FFF73DFF49E0D9
:1091F400019B1B7AC3F30313DBB28DF80D309DF88A
:109204000D30032B8CBF01230023DAB2BDF80E30DE
:1092140019462048FFF782FF9DF80D30022B8CBFC2
:1092240001230023DAB2BDF80E3019461A48FFF7BD
:1092340075FF9DF80D30012B8CBF01230023DAB29A
:10924400BDF80E3019461548FFF768FF1AE0019B78
:109254001B7A002B15D1019B5B7AC3F3C003DBB2ED
:10926400002B14BF012300238DF80C309DF80C2033
:10927400BDF80E3019460748FFF750FF01E000BF64
:1092840000E000BF00BF05B05DF804FB6087030089
:10929400FC270020082800200428002000280020A3
:1092A40000B583B00346ADF80630BDF80630132B85
:1092B40001D9002306E0BDF80630194603480BF037
:1092C400B6F90346184603B05DF804FBF427002002
:1092D40000B585B00346ADF8063000238DF80F3095
:1092E400BDF806301846FFF7DBFF0346002B11D00C
:1092F400BDF8063019460A480BF099F903468DF873
:109304000E309DF80E30002B01D0022300E0012323
:109314008DF80F309DF80F30184605B05DF804FB4A
:10932400FC27002000B585B00346ADF806300023C5
:109334008DF80F30BDF806301846FFF7B1FF03462D
:10934400002B11D0BDF8063019460A480BF06FF90E
:1093540003468DF80E309DF80E30002B01D0022309
:1093640000E001238DF80F309DF80F30184605B04A
:109374005DF804FBF827002000B583B00346ADF880
:109384000630BDF806301846FFF78AFF0346002B67
:1093940007D0BDF80630194604480BF048F90346D7
:1093A40000E00023184603B05DF804FB0028002009
:1093B40000B583B00346ADF80630BDF80630184654
:1093C400FFF76EFF0346002B07D0BDF806301946A1
:1093D40004480BF02CF9034600E00023184603B0C0
:1093E4005DF804FB0428002000B583B00346ADF803
:1093F4000630BDF806301846FFF752FF0346002B2F
:1094040007D0BDF80630194604480BF010F903469E
:1094140000E00023184603B05DF804FB0828002090
:1094240000B583B00346ADF80630BDF806301846E3
:10943400FFF736FF0346002B02D0BDF8063000E0EC
:109444001423184603B05DF804FB000000B583B094
:1094540003460A46ADF8063013468DF805309DF8EC
:1094640005301846FFF748FE0346002B16D0BDF81A
:1094740006301846FFF714FF0346002B0ED09DF864
:10948400053006339B00084A13440433BDF8062014
:10949400114618460BF0CBF8034600E000231846AB
:1094A40003B05DF804FB00BFF027002000B583B0D3
:1094B4000346ADF806300B468DF8053013468DF89B
:1094C40004309DF805301846FFF716FE0346002BBE
:1094D40015D0BDF806301846FFF7E2FE0346002B10
:1094E4000DD09DF8053006339B00074A134404331E
:1094F4009DF80420BDF806101846FFF70FFE00BFC4
:1095040003B05DF804FB00BFF027002000B587B06E
:10951400039002910192029B002B01D100231FE0D2
:1095240000230593039B002B19D00023049313E01D
:1095340003AB049918460BF07AF80346002B08D0C5
:10954400049B9AB2029B019910469847059B0133EC
:109554000593049B01330493049B132BE8D9059BC7
:10956400184607B05DF804FB00B585B003460291C8
:1095740001928DF80F309DF80F301846FFF7BCFDAF
:10958400034683F00103DBB2002B01D000230CE07F
:109594009DF80F30074A06339B0013445B68019A19
:1095A40002991846FFF7B2FF0346184605B05DF866
:1095B40004FB00BFF027002000B587B003900B46E2
:1095C4000192ADF80A30019B002B01D10E2338E043
:1095D400019B00221A60039B002B01D10E2330E073
:1095E400039B1B68002B01D10E232AE0039BDB881D
:1095F40003F003039BB2002B01D0072321E0BDF845
:109604000A301846FFF70CFF03468DF817309DF813
:109614001730142B01D1052313E0039B1B799DF80C
:1096240017209A4201D304230BE0039B1B689DF887
:1096340017200399C98801FB02F21A44019B1A609E
:109644000023184607B05DF804FB82B00190019B2B
:109654001B781AB2019B01331B781BB21B021BB28D
:1096640013431BB29BB2184602B07047AADF70477F
:1096740000BF184600B585B001900198FFF7E5FFDB
:109684000346ADF80E30BDF80E3003F00103002B95
:1096940014BF01230023DBB2184605B05DF804FBB8
:1096A40082B0034600918DF80730009A137823F0B6
:1096B4000F031370009A137823F0F00313709DF8CE
:1096C4000730052B5BD801A252F823F0E99602007B
:1096D400FF96020019970200339702004D9702008B
:1096E40067970200009A137823F00F031370009A0F
:1096F400137823F0F003137040E0009A13780121EB
:1097040061F303031370009A1378012161F30713C3
:10971400137033E0009A1378012161F3030313708B
:10972400009A1378022161F30713137026E0009A5C
:109734001378012161F303031370009A1378032152
:1097440061F30713137019E0009A1378022161F38F
:1097540003031370009A1378012161F30713137044
:109764000CE0009A1378022161F303031370009A4A
:109774001378022161F30713137000BF00BF00BF09
:1097840002B0704700B595B0034602910192ADF85E
:109794000E30029B9B78002B03D101238DF81E30E1
:1097A40003E0029B9B788DF81E30029B1B88ADF86A
:1097B4001C3006AB0322002118460EF0C1FC029BAC
:1097C4005B7C06AA11461846FFF76AFF029B9A7C47
:1097D40006AB013319461046FFF762FF029BDA7BA2
:1097E4009DF81A3062F3C3038DF81A30029B1A7C79
:1097F4009DF81A3062F304138DF81A30029B1A7B19
:109804009DF81A3062F300038DF81A30029B1B7D19
:10981400002B01D0022200E001229DF81A3062F3ED
:1098240042038DF81A300DAB1C22002118460EF0AD
:1098340087FC029B5B7B03F01003DBB2002B06D199
:10984400029B5B7B03F02003DBB2002B24D004AB30
:109854000322002118460EF073FC029BDA7C04AB51
:10986400013319461046FFF71BFF9DF81030012203
:1098740062F303038DF810309DF81030012262F377
:1098840007138DF810309DF81230012262F3420361
:109894008DF8123004AB1293029B5B7B8DF834304D
:1098A400029B9B7B8DF8353008AB142200211846AF
:1098B4000EF046FC07AB089306AB0993029B9B880A
:1098C400ADF82C30029B9B68002B06D0029BDB88F2
:1098D400ADF82830029B9B680C93029B9B69002B7C
:1098E4004FD005AB0322002118460EF029FC029B41
:1098F4009B691B88ADF83C30029B9B695B88ADF883
:109904003E30029B9B695B680E9305AB1193029BEF
:109914009B691B7B05AA11461846FFF7C1FE029BF3
:109924009B695A7B05AB013319461046FFF7B8FE15
:10993400029B9B699A7A9DF8163062F3C3038DF8F3
:109944001630029B9B69DA7A9DF8163062F3041391
:109954008DF81630029B9B691A7A9DF8163062F3D3
:1099640000038DF81630029B9B699B7B002B01D072
:10997400022200E001229DF8163062F342038DF8C2
:109984001630029BDB69002B02D0029BDB6910932B
:1099940008AA0DA9BDF80E00019BFFF767FE034658
:1099A400184615B05DF804FBA0DF704700BF1846E9
:1099B400A1DF704700BF1846ADDF704700BF1846EF
:1099C400B3DF704700BF1846B4DF704700BF1846C6
:1099D40000B585B00190019B002B03D10A49852075
:1099E4000AF0B8FC012101980AF098FE0390BFF335
:1099F4005F8F00BF039B002B0CBF01230023DBB24E
:109A0400184605B05DF804FBFC88030000B583B07C
:109A14000190019B002B03D10A4992200AF09AFC81
:109A2400019B1B68012B03D0064993200AF092FC8A
:109A3400BFF35F8F00BF019B00221A6000BF03B019
:109A44005DF804FBFC88030000B585B00190019B20
:109A54005B88184601F05AFA03461A46019B9A801D
:109A64000023039308E0084A039B52F8233001982B
:109A74009847039B01330393039B002BF3D000BF50
:109A840000BF05B05DF804FBA422002082B0019061
:109A9400019B9B79012B0BD1019B1B79012B07D1D6
:109AA400019B5B8842F60212934201D1012300E03C
:109AB400002303F00103DBB2184602B0704700B57F
:109AC40089B003460091ADF8063003AB00221A605A
:109AD4005A609A60DA601A6108238DF80C30BDF878
:109AE4000630ADF80E30009B059303AB1846FFF724
:109AF400ABFF00BF09B05DF804FB000010B58AB0ED
:109B04000346ADF8063000238DF8273003AB00225E
:109B14001A605A609A60DA601A61BDF80630ADF8CE
:109B24000E30BDF806304FF6FF72934261D0BDF897
:109B34000630184600F034FF0890089B43F20202F6
:109B440093424BD0089B43F2020293422DD8089BC8
:109B5400112B11D0089B112B27D8089B002B03D065
:109B6400089B0B2B0CD020E00F238DF80C3003AB9B
:109B74001846FFF769FF32E001238DF827302EE005
:109B840010238DF80C301C4A1C4BD31ADB081B0421
:109B940043F00203BDF80620194918460CF0B2FF41
:109BA40003AB1846FFF750FF19E0134A134BD31ABF
:109BB400DB081B0443F0010408980CF0B9F90346D0
:109BC4001A46BDF806300F4920460CF0ACFFBDF82C
:109BD400063008991846FFF772FF00E000BF0A4BF1
:109BE40019789DF82720BDF806301846FFF75EFC6B
:109BF40000E000BF0AB010BDA0830300008303008F
:109C040048890300C88903007128002000B583B087
:109C140003460A46ADF8063013468DF80530064B68
:109C240019789DF80520BDF806301846FFF73EFC6C
:109C340000BF03B05DF804FB7028002010B58AB0A3
:109C44000346ADF8063000238DF8273000238DF845
:109C54002630BDF80630184600F0BAFD0890089B7F
:109C640043F20202934258D0089B43F20202934209
:109C74003AD8089B862B17D0089B862B34D8089B90
:109C8400112B0DD0089B112B2ED8089B002B03D031
:109C9400089B0B2B41D027E001238DF826303DE0B3
:109CA40001238DF8273039E003AB00221A605A6093
:109CB4009A60DA601A6107238DF80C30BDF806301B
:109CC400ADF80E301C4A1D4BD31ADB081B0443F0BD
:109CD4000203BDF806201A4918460CF013FF03AB23
:109CE4001846FFF7B1FE19E0134A144BD31ADB08E8
:109CF4001B0443F0010408980CF01AF903461A46B1
:109D0400BDF806300F4920460CF00DFFBDF80630B3
:109D140008991846FFF7D3FE00E000BF9DF82720FE
:109D2400BDF8063011461846FFF770FF9DF826303F
:109D340018460AB010BD00BFA083030000830300CF
:109D44001C8A0300548A030000B589B003460091BD
:109D5400ADF8063000238DF81F300DF116031846B8
:109D6400FFF72EFE0690069B002B04D02A494FF4E1
:109D740099700AF0EFFA0123ADF81C3040E0022399
:109D8400ADF808300023ADF80A3004AB039304A9FE
:109D9400BDF81C3000221846FFF716FE0690069BFD
:109DA400002B01D0069B32E09DF81F3083F00103A5
:109DB400DBB2002B09D0BDF8103042F605229342E5
:109DC40003D101238DF81F3015E09DF81F30002BBF
:109DD40011D0BDF8103042F6021293420BD1009B11
:109DE400039302AABDF81C10BDF806301846FFF70D
:109DF400E3FD03460BE0BDF81C300133ADF81C3025
:109E0400BDF81630BDF81C209A42B8D30523184675
:109E140009B05DF804FB00BF948A030010B58AB052
:109E24000346ADF8063001238DF8273000238DF862
:109E34002630BDF80630184600F062FE0890089BF4
:109E440043F2014293426AD0089B43F20142934297
:109E54006BD8089B112B29D8089B112B65D801A21C
:109E640052F823F0BD9E02002F9F02002F9F020094
:109E74002F9F02002F9F02002F9F0200099F0200C4
:109E84002F9F0200E99E02002F9F02002F9F0200D5
:109E94002F9F02002F9F02002F9F02002F9F02007E
:109EA4002F9F02002F9F0200619F0200089B43F234
:109EB4000202934254D038E003AB00221A605A6085
:109EC4009A60DA601A6111238DF80C30BDF80630FF
:109ED400ADF80E3001238DF8263003AB1846FFF79A
:109EE400B3FD3EE00DF10A02BDF8063011461846F6
:109EF400FFF72AFF0890089B002B03D1BDF80A3016
:109F0400002B2ED100238DF82730BDF806301846DB
:109F140000F0FCFF0346184600F03AFE21E0BDF8CD
:109F240006301846FFF7EAFD1BE0184A184BD31A0F
:109F3400DB081B0443F0010408980BF0F9FF034607
:109F44001A46BDF80630134920460CF0ECFDBDF866
:109F5400063008991846FFF7B2FD02E000BF00E0A2
:109F640000BF0D4B19789DF82720BDF80630184620
:109F7400FFF79CFA094B19789DF82620BDF80630A6
:109F84001846FFF793FA00BF0AB010BDA083030080
:109F940000830300248B0300722800207328002010
:109FA40000B583B003460091ADF80630BDF8063025
:109FB4001846FFF7A3FD00BF03B05DF804FB0000E3
:109FC40008B5044B1B78002203491846FFF7CCFA66
:109FD40000BF08BD71280020A59F020000B583B012
:109FE40003460091ADF806300A48FFF7F1FC03463A
:109FF400002B0CD0BDF806301846FFF71FFE0346B1
:10A00400002B03D10348FFF701FD00E000BF03B0BC
:10A014005DF804FB6C28002000B583B00346009172
:10A02400ADF806300B4B1A78BDF8063011461846C9
:10A03400FFF70CFA034683F00103DBB2002B04D0D4
:10A04400BDF806301846FFF7E9FE00BF03B05DF81F
:10A0540004FB00BF7328002008B5044B1B780022C2
:10A0640003491846FFF780FA00BF08BD7228002094
:10A074001DA0020000B583B00346ADF80630BDF85C
:10A084000630184600F018FD0346002B07D0064B97
:10A094001978BDF8063001221846FFF707FA00BF09
:10A0A40003B05DF804FB00BF7228002000B587B040
:10A0B40003460091ADF8063004AB04220021184693
:10A0C4000EF03EF842F6A623ADF8103001238DF8C9
:10A0D40012300D4B1B68039303AA04A9BDF8063084
:10A0E4001846FFF761FC0590059B002B07D1074B31
:10A0F4001978BDF8063001221846FFF7D7F900BFDA
:10A1040007B05DF804FB00BF648B030075280020D2
:10A1140000B585B00346ADF80630BDF806301846E4
:10A1240000F0F4FE0346184602AA0023092101F0B8
:10A13400EEFC0346052B07D1054B1978BDF8063014
:10A1440001221846FFF7B2F900BF05B05DF804FB21
:10A154007428002000B583B00B4B1B7800220B49F8
:10A164001846FFF701FA0190019B002B07D1084B19
:10A174001B78002207491846FFF7F6F9019000BF43
:10A1840003B05DF804FB00BF70280020E19F0200CB
:10A1940074280020B1A0020000B583B00190019B97
:10A1A4001B78002B11D1019B5B881846FFF7A6FC96
:10A1B400019B5B881846FFF75DFF019B5B8818468F
:10A1C400FFF7A6FFFFF7C6FF00E000BF00BF03B024
:10A1D4005DF804FB00B589B00190019B1B78092B45
:10A1E4005ED1019B5B7A002B5AD1019B1B7A082B11
:10A1F40047D0082B4DDC012B1BD0072B49D1019BE9
:10A204009B88184600F02CFF0346ADF81E30BDF8BD
:10A214001E304FF6FF7293423DD0BDF81E3001212F
:10A224001846FFF7F3FCBDF81E301846FFF770FF21
:10A2340031E0019B9B8803AA0121184602F0B0F982
:10A244000690069B002B28D1049B1B78002B24D05E
:10A25400019B9B88184600F003FF0346ADF81630B7
:10A26400BDF816304FF6FF72934216D00F4B197893
:10A27400BDF8163001221846FFF718F9FFF7ECFE77
:10A284000BE00B4B1B68012B09D10948FFF7BEFB00
:10A2940005E000BF04E000BF02E000BF00E000BF33
:10A2A400FFF758FF00BF09B05DF804FB72280020D7
:10A2B4006C28002010B586B003460A46ADF8063077
:10A2C40013468DF8053003AB00221A605A6001234F
:10A2D400ADF80C3009238DF80E30194B1978BDF800
:10A2E400063000221846FFF7E1F89DF80530002BF0
:10A2F40001D0144B00E0144B0493BDF8063018460B
:10A3040000F004FE0346184603AB0022194601F090
:10A31400C5FC0590059B002B0FD00C4A0C4BD31A9F
:10A32400DB081B0443F0020405980BF001FE03460E
:10A334001A46084920460CF0E5FB00BF06B010BDE4
:10A3440074280020EC8C0300F08C0300A08303002D
:10A3540000830300D88B030000B58DB00190019BEE
:10A364009B88ADF82C30019B1B88353B1F2B00F2DA
:10A37400688101A252F823F08DA402008FA5020087
:10A3840047A6020047A6020047A6020047A602000D
:10A3940047A6020047A6020047A6020047A60200FD
:10A3A40047A6020047A6020047A6020047A60200ED
:10A3B40047A6020047A6020047A6020047A60200DD
:10A3C40047A6020047A6020047A6020047A60200CD
:10A3D40047A6020047A6020047A6020047A60200BD
:10A3E40047A6020069A4020047A60200FDA30200DA
:10A3F40047A6020009A40200BDF82C301846FFF756
:10A404007DFB1EE103AB00221A605A609A60DA6099
:10A414001A6112238DF80C30BDF82C30ADF80E30D3
:10A42400BDF82C30184600F071FD0346ADF810302D
:10A43400BDF81030184600F0ABFB864B1978BDF818
:10A444002C3000221846FFF731F8834B1978BDF8F9
:10A454002C3000221846FFF729F803AB1846FFF703
:10A46400F3FAEEE0019B06331846FFF70FFB0346B1
:10A47400002B00F0DF80BDF82C3001211846FFF7D7
:10A48400C5FBFFF767FED5E000238DF82F30019B55
:10A494009B88ADF82C30019B0A3309936F4B1A78D3
:10A4A400BDF82C3011461846FEF7D0FF034683F062
:10A4B4000103DBB2002B40F0BF80684B1978BDF874
:10A4C4002C3000221846FEF7F1FF019BDB88B3F520
:10A4D400857F4CD0019BDB88002B0DD0604A614BFB
:10A4E400D31ADB081B0443F00200019BDB881A46E5
:10A4F4005D490CF007FB3AE0099B1B88012B0CD04B
:10A50400574A584BD31ADB081B0443F00200099B3B
:10A514001B881A4655490CF0F5FA099B5B88012BF8
:10A524000DD04F4A4F4BD31ADB081B0443F00200F3
:10A53400099B5B881A464E490CF0E4FA17E0099B24
:10A5440004331988BDF82C3000221846FFF730FA7E
:10A554000890089B002B0AD101238DF82F30454B1E
:10A564001978BDF82C3001221846FEF79FFF9DF89C
:10A574002F3083F00103DBB2002B5FD0BDF82C3009
:10A5840000211846FFF796FE58E000238DF82E3080
:10A59400019B9B88ADF82C30019B0A330A93354B01
:10A5A4001A78BDF82C3011461846FEF74FFF0346C3
:10A5B40083F00103DBB2002B42D12E4B1978BDF896
:10A5C4002C3000221846FEF771FF019BDB88002B1C
:10A5D4000DD0234A234BD31ADB081B0443F002009B
:10A5E400019BDB881A4620490CF08CFA19E00A9B7F
:10A5F4009B88012B0DD01A4A1A4BD31ADB081B0473
:10A6040043F002000A9B9B881A4619490CF07AFA17
:10A6140007E00A9B9B79002B14BF012300238DF8CC
:10A624002E309DF82E20BDF82C3011461846FFF729
:10A6340041FE06E000BF04E000BF02E000BF00E00E
:10A6440000BFFFF7BDFCFFF707FD00BF0DB05DF8CD
:10A6540004FB00BF73280020722800207528002006
:10A66400A083030000830300388C0300748C030070
:10A67400B08C030076280020AFDF704700BF184677
:10A68400B1DF704700BF1846B2DF704700BF1846FD
:10A69400B3DF704700BF184600B585B00190019B39
:10A6A4009B88184600F0DCFC03461A46019B5A803E
:10A6B4000023039308E0084A039B52F823300198CF
:10A6C4009847039B01330393039B002BF3D000BFF4
:10A6D40000BF05B05DF804FBA822002010B588B0C7
:10A6E4002D4A05AB92E8030083E8030048E02B4BB6
:10A6F4001B8805A90022184601F0D0FA0790079B91
:10A70400002B34D06B4600221A605A609A60DA60DB
:10A714001A61224B1B88ADF80430079B112B36D0ED
:10A72400079B862B07D107238DF800306B4618460C
:10A73400FFF7B2FF2BE01A4A1A4BD31ADB081B04AB
:10A7440043F0010407980BF0F3FB03461A46134B3E
:10A754001B88154920460CF0E6F908238DF80030D3
:10A76400079B02936B461846FFF796FF0FE00B4BCF
:10A774001B88184601F062FB03461A46074B1A80F1
:10A78400064B1B884FF6FF729342B0D100E000BF26
:10A7940000BF08B010BD00BF608D03007828002002
:10A7A400A883030000830300088D030000B583B071
:10A7B4000190064B1B884FF6FF72934201D0FFF7BE
:10A7C4008DFF00BF03B05DF804FB00BF78280020B4
:10A7D40030B58DB00346ADF80630BDF806301846E6
:10A7E40000F094FB0346ADF82630BDF826304FF652
:10A7F400FF72934202D143F20203C5E00123ADF894
:10A804002A3000238DF8293000238DF82930BDF833
:10A814002A305A1CADF82A201A4604ABBDF826008B
:10A82400082101F0D3FE0B900B9B002B40F0A1807C
:10A83400059B0893089B03221A60089B991D089B9B
:10A844001A1D089B1B68BDF80600FFF71DFF0B903F
:10A854000B9B002B62D102AABDF8263008211846B2
:10A8640001F09EFE0B900B9B002B16D00B9B052B2F
:10A8740013D0474A474BD31ADB081B0443F00104A7
:10A884000B980BF055FB03461A46BDF806304249B7
:10A8940020460CF048F9032376E00B9B052B11D0DE
:10A8A400089B9A88039B9B889A420BD1089B981D0E
:10A8B400039B991D089B9B881A460DF0D3FB034606
:10A8C400002B09D0BDF82620BDF8263008211846F3
:10A8D40001F03BFF0B9051E0BDF8263008211846EB
:10A8E40001F014FF0690069B002B02D10B230B935F
:10A8F40044E0274A274BD31ADB081B0443F0010426
:10A90400BDF8265006980BF013FB03462A4623494C
:10A9140020460CF008F903230B932FE00B9B0C2B20
:10A9240003D101238DF8293004E00B9B052B01D1C1
:10A9340000230B93BDF826300821184601F0E6FEEB
:10A944000790079B002B19D0114A124BD31ADB082E
:10A954001B0443F00104BDF8265007980BF0E8FAF5
:10A9640003462A460D4920460CF0DDF803230B93D9
:10A9740004E00B9B072B01D10C230B939DF829308A
:10A98400002B7FF441AF0B9B18460DB030BD00BFC8
:10A99400A883030000830300688D0300A08D0300D7
:10A9A40000B58BB00346ADF80630BDF80630184646
:10A9B40000F0ACFA0346ADF81430002308930023EA
:10A9C400ADF81E300323069301238DF81730BDF82C
:10A9D40014304FF6FF72934216D002AABDF8143019
:10A9E4000821184601F0DCFD0990099B002B0BD1CE
:10A9F400039B0493049B06330893049B9B88ADF844
:10AA04001E30049B1B680693BDF81E20BDF806008B
:10AA1400069B0899FFF734FE0990099B042B02D189
:10AA24001123099331E0099B082B02D100230993D8
:10AA34002BE0099B0B2B28D100238DF81730069BA4
:10AA440003F00203002B02D0012306931DE0089BB0
:10AA5400002B03D1BDF81E30002B07D00023089330
:10AA64000023ADF81E30032306930EE00F4A104B6B
:10AA7400D31ADB081B0443F00103BDF806200D497B
:10AA840018460CF03FF803230993099B0B2BBBD00A
:10AA94009DF8173083F00103DBB2002B01D00B23A8
:10AAA4000993099B18460BB05DF804FBA8830300C7
:10AAB40000830300208E030000B589B00346ADF87F
:10AAC40006300DF117030493BDF80630184600F064
:10AAD4001DFA0346ADF81E3003AABDF81E3001214D
:10AAE400184601F05DFD0690069B002B01D0002363
:10AAF40001E0049B1B78184609B05DF804FB0000D4
:10AB040010B584B00346ADF806304FF6FF73ADF8C8
:10AB14000E301B48FFF7BCFD0290029B002B11D0A6
:10AB2400184A194BD31ADB081B0443F0010402989A
:10AB34000BF0FEF903461A46144920460BF0E2FFD7
:10AB440003231AE00E4B1988BDF80E20BDF8063019
:10AB54001846FFF791FD0290029B43F203029342D1
:10AB640005D1074B1B8801339AB2054B1A80029B0F
:10AB740043F203029342E5D0029B184604B010BD91
:10AB84007A280020A883030000830300988E030022
:10AB940000B585B00346ADF80630084A02AB92E82A
:10ABA400030083E8030002A9BDF80630002218461A
:10ABB40001F074F800BF05B05DF804FBE48E0300F7
:10ABC40046DF704700BF184600B585B001900023EA
:10ABD400039308E0084A039B52F8233001989847EE
:10ABE400039B01330393039B012BF3D900BF00BFE5
:10ABF40005B05DF804FB00BFF48F030084B001903E
:10AC0400002303930AE0019A039B13441B78002B4F
:10AC140001D0012306E0039B01330393039B0F2B15
:10AC2400F1D90023184604B0704700B583B00190F1
:10AC34000091019B002B02D0009B002B01D100232B
:10AC44001BE0019B1B78C3F34603DAB2009B1B781D
:10AC5400C3F34603DBB29A4201D000230DE0019B0B
:10AC6400581C009B0133062219460DF0FBF90346DC
:10AC7400002B0CBF01230023DBB2184603B05DF8A0
:10AC840004FB000030B597B00190019B1B88102B8A
:10AC940040F09180019B0AAC1D1D0FCD0FC40FCD58
:10ACA4000FC495E8070084E807004FF6FF73ADF87A
:10ACB40056309DF82C3023F00103DBB2062B47D02D
:10ACC40000F08EFF9DF82C30C3F34603DBB2012B5A
:10ACD40002DC002B15DA3BE0022B2ED038E0089B77
:10ACE40003F111020AAB043311461846FFF79DFF26
:10ACF4000346002B05D0BDF82630ADF8563000BF12
:10AD040026E007AA0DF126031946072000F072FF7A
:10AD14000346002BE3D11BE0089B5A1C0AAB043307
:10AD24001146184600F08FFA0346002B05D0BDF8F3
:10AD34002630ADF8563000BF09E007AA0DF126030E
:10AD44001946072000F056FF0346002BE4D100BF4C
:10AD5400BDF828301946194A0B469B000B445B008A
:10AD64001344BDF856201A80BDF828301946134AFA
:10AD74000B469B000B445B00134402330BAA106880
:10AD840018609188927999809A71BDF856304FF67F
:10AD9400FF72934210D0BDF82830ADF80A30BDF8E8
:10ADA4005630ADF80C3000238DF8083002AB18464D
:10ADB400FFF70AFF00E000BF17B030BD7C28002079
:10ADC40000B587B001900091019B11330593009B5E
:10ADD40011330493019B581C009B01331022194624
:10ADE4000DF040F90346002B11D1019B01331846A5
:10ADF400FFF704FF0346002B09D0009B01331846DC
:10AE0400FFF7FCFE0346002B01D0012300E00023E2
:10AE14008DF80F309DF80F3003F001038DF80F30DB
:10AE240004990598FFF701FF03468DF80E30059B42
:10AE34001B7823F00103DBB2042B16D0059B1B788F
:10AE440023F00103DBB2062B0FD0049B1B7823F005
:10AE54000103DBB2042B08D0049B1B7823F001030D
:10AE6400DBB2062B01D0012300E000238DF80D3066
:10AE74009DF80D3003F001038DF80D309DF80E3070
:10AE8400002B03D09DF80D30002B0AD19DF80F3014
:10AE9400002B08D09DF80D3083F00103DBB2002BAA
:10AEA40001D0012300E0002303F00103DBB21846C4
:10AEB40007B05DF804FB00B587B001900B46ADF810
:10AEC400023000F08DFE10E0BDF81630BDF802200F
:10AED4009A420AD0049B19460198FFF771FF034672
:10AEE400002B02D0BDF816300BE003AA0DF11603B7
:10AEF4001946072000F07EFE0346002BE4D14FF6EE
:10AF0400FF73184607B05DF804FB000000B583B07A
:10AF14000346ADF80630BDF80630132B0AD8BDF849
:10AF240006301846FEF7BCF9034683F00103DBB292
:10AF3400002B02D04FF6FF7308E0BDF80620054948
:10AF440013469B0013445B000B441B88184603B054
:10AF54005DF804FB7C28002000B583B00346009113
:10AF6400ADF80630BDF80630132B0AD8BDF806300C
:10AF74001846FEF795F9034683F00103DBB2002B74
:10AF840002D043F2020311E0BDF8062000980949FB
:10AF940013469B0013445B000B44024602331968BA
:10AFA400116099889B79918093710023184603B0AE
:10AFB4005DF804FB7C28002000B583B0019000916B
:10AFC400019800F089F8034683F00103DBB2002BFB
:10AFD40001D0002315E0019B1A88009B1B889A422C
:10AFE40001D000230DE0019B981C009B0233082232
:10AFF40019460DF037F80346002B0CBF012300233C
:10B00400DBB2184603B05DF804FB00B587B00190CD
:10B0140000F0E6FD14E0049B463319460198FFF75F
:10B02400CBFF0346002B08D1049B2A331946019811
:10B03400FFF7C2FF0346002B02D0BDF816300BE029
:10B0440003AA0DF116031946072000F0D3FD0346A9
:10B05400002BE0D14FF6FF73184607B05DF804FBF0
:10B0640000B585B00346ADF80630BDF806304FF69E
:10B07400FF72934202D14FF6FF7326E00023ADF82E
:10B084000E301CE0BDF80E20124913469B001344F9
:10B094005B000B441B88BDF806209A420AD1BDF818
:10B0A4000E301846FEF7FCF80346002B02D0BDF81C
:10B0B4000E300AE0BDF80E300133ADF80E30BDF8A5
:10B0C4000E30132BDED94FF6FF73184605B05DF82A
:10B0D40004FB00BF7C28002084B00190019B1B88E6
:10B0E400002B01D0012312E0002303930BE0019A0B
:10B0F400039B134402331B78002B01D0012306E089
:10B10400039B01330393039B072BF0D900231846B9
:10B1140004B0704782B003460A46ADF806301346C1
:10B12400ADF80430BDF80630132B0AD8BDF806205C
:10B13400054913469B0013445B000B44BDF80420EF
:10B144001A8000BF02B070477C28002000B585B08B
:10B154000346ADF80630BDF806301846FFF780FF09
:10B164000346ADF80E30BDF80630184601F0A6F9D6
:10B174000290029B002B0ED1BDF80E30132B0AD87F
:10B18400BDF80E20064913469B0013445B000B4494
:10B194004FF6FF721A80029B184605B05DF804FB57
:10B1A4007C28002000B595B0039002910192002301
:10B1B40013930DE0139BC3F10F03039A13441978FF
:10B1C40005AA139B13440A461A70139B0133139365
:10B1D400139B0F2BEED905AB10330D22002118461B
:10B1E4000CF0AEFF002312930DE0029A129B1A4456
:10B1F400129BC3F10F03127850336B4403F82C2CC9
:10B20400129B01331293129B022BEED905AB184605
:10B21400FFF7D6FC002311930DE0119BC3F10F023D
:10B224000199119B0B4450326A4412F81C2C1A7079
:10B23400119B01331193119B022BEED900BF00BF68
:10B2440015B05DF804FB00B587B001900091019B37
:10B254001B7823F00103DBB2042B01D000231FE091
:10B26400019B5A1C05AB1188927819809A70019B36
:10B274001A1D03AB1188927819809A70009B04AA56
:10B2840003A91846FFF78EFF04A905AB032218464D
:10B294000CF0E8FE0346002B0CBF01230023DBB2B5
:10B2A400184607B05DF804FB90DF704700BF1846EE
:10B2B400A5DF704700BF1846B5DF704700BF1846CA
:10B2C40082B00190019B17221A80019B17225A8099
:10B2D400019B00221A71019B00225A71019B1B22BF
:10B2E4009A71019B1B22DA7100BF02B07047000003
:10B2F40030B589B003460A46ADF806301346ADF8BA
:10B304000430BDF80430ADF81430BDF80430ADF8A5
:10B3140016300023ADF818300023ADF81A3003AB13
:10B3240000221A609A8003AA05A9BDF806301846BF
:10B33400FFF7BAFF0790079B002B39D01E4A1F4B1B
:10B34400D31ADB081B0443F00104BDF80650079828
:10B354000AF0EEFD03462A46194920460BF0E3FBAA
:10B36400BDF80C30002B03D1BDF80E30002B0ED0ED
:10B37400114A124BD31ADB081B0443F00100BDF839
:10B384000C301A46BDF80E300E490BF0CCFBBDF85C
:10B394001030002B0CD0084A084BD31ADB081B04CE
:10B3A40043F00103BDF81020074918460BF0AAFB2F
:10B3B400079B184609B030BD68830300008303006F
:10B3C4000C900300589003009890030010B586B0C9
:10B3D40001900091009B9B88ADF80E30BDF80E30B3
:10B3E400DB00019A134406330593019B1A79059BEC
:10B3F4009A71009BDB7B012B02D0022B05D009E064
:10B40400019B1A88059B1A8004E0019B5A88059BBE
:10B414001A8000BF059B1A88059B5B889A4226D92F
:10B42400059B1A88BDF80E3011461846FFF740FFF9
:10B434000490049B002B03D1059B01225A7116E052
:10B44400049B112B03D1059B01221A710FE0114AB1
:10B45400114BD31ADB081B0443F0010404980AF0CF
:10B4640067FD03461A460D4920460BF04BFB059B2E
:10B474009A79059BDB799A4208D9059B9B791A46F0
:10B48400BDF80E3011461846FFF732FF00BF06B074
:10B4940010BD00BF6883030000830300F090030025
:10B4A40000B583B001900091009B9B88DB00019A5A
:10B4B400134406331846FFF703FF00BF03B05DF8DB
:10B4C40004FB00B587B001900091009B9B88ADF808
:10B4D4001630009B5B89ADF81430BDF81630DB00E4
:10B4E400019A134406330493049B1B88BDF814206B
:10B4F400934228BF13469AB2049B5A80049B5B88EC
:10B50400172B38BF17239AB2049B5A80019B1B69DF
:10B51400002B15D0049B5B79002B11D040F67723C8
:10B52400ADF80830BDF81630ADF80A30049B5B88DE
:10B53400ADF80C30019B1B6902AA1146019898478B
:10B54400049B00225A71049B00221A7100BF07B0A9
:10B554005DF804FB10B588B001900091009B9B88B6
:10B56400ADF81A30009BDB88ADF81830BDF81A30FE
:10B57400DB00019A134406330593BDF81830172BEA
:10B5840038BF1723ADF81830059B1B88BDF8182069
:10B59400934228BF13469AB2059B5A80059B00220A
:10B5A4001A71059B1A88BDF81A3011461846FFF720
:10B5B40083FE0790079B002B0FD0174A174BD31A13
:10B5C400DB081B0443F0010407980AF0B1FC0346AE
:10B5D4001A46134920460BF095FA059B5B79002B1C
:10B5E40016D1019B1B69002B13D040F67723ADF8CD
:10B5F4000C30BDF81A30ADF80E30059B5B88ADF801
:10B604001030019B1B6903AA11460198984700E07A
:10B6140000BF08B010BD00BF6883030000830300AF
:10B624002491030030B591B001900091009B04ACCB
:10B634001D1D0FCD0FC40FCD0FC495E8070084E87E
:10B644000700BDF81030ADF83E30BDF81420BDF849
:10B654003E30D1B2019ADB0013440A465A73019B6F
:10B664001B69002B19D002AB00221A609A804DF698
:10B674007A23ADF80830BDF83E30ADF80A30BDF895
:10B684003E30019ADB0013445B7B8DF80C30019B48
:10B694001B6902AA11460198984700BF11B030BD3A
:10B6A40000B587B001900091009B04330593059B7E
:10B6B4001B88DB00019A134406330493059B9B8883
:10B6C4008DF80F30049B9B799DF80F20934228BF7F
:10B6D40013468DF80E30059B1B889DF80E2092B200
:10B6E40011461846FFF704FE00BF07B05DF804FBDF
:10B6F40000B585B001900091019B002B01D10E2370
:10B704001DE0019B009A1A61019B17221A80019B7C
:10B7140017225A80019B1B221A71002303930AE00B
:10B72400039BDB00019A134406331846FFF7C8FD58
:10B73400039B01330393039B002BF1D00023184692
:10B7440005B05DF804FB000010B586B001900091CF
:10B75400009B0593019B9B88ADF81230BDF8123015
:10B76400002B40F09880019B1B88552B48D0552B0B
:10B7740055DC242B32DC102B51DB103B142B4ED820
:10B7840001A252F823F000BFE7B70200F1B70200AC
:10B7940023B8020023B8020023B8020023B8020031
:10B7A40023B8020023B8020023B8020023B8020021
:10B7B40023B8020023B8020023B8020023B8020011
:10B7C40023B8020023B8020023B8020023B8020001
:10B7D40023B8020019B802000FB802003A2B0AD0AD
:10B7E4001DE001990598FFF7F1FD19E0019905980D
:10B7F400FFF756FE14E001990598FFF762FE0FE08B
:10B8040001990598FFF7A6FE0AE001990598FFF74C
:10B8140009FF05E001990598FFF742FF00E000BF2A
:10B82400BDF81230059ADB0013449B7A002B33D009
:10B83400BDF81230059ADB001344DA88BDF81230E3
:10B8440011461846FFF734FD0390039B002B0ED1DD
:10B85400BDF81230059ADB00134400229A72BDF839
:10B864001230059ADB0013440122DA7214E0039BC0
:10B87400112B11D0094A0A4BD31ADB081B0443F0DD
:10B88400010403980AF054FB03461A46054920466E
:10B894000BF038F900E000BF06B010BD6883030068
:10B8A40000830300F090030000B585B00190019B74
:10B8B4004FF6FF725A800023039305E0064B01986C
:10B8C4009847039B01330393039B002BF6D000BFDF
:10B8D40000BF05B05DF804FB15C4020082B0034646
:10B8E400ADF80630BDF80630A3F580439BB2184688
:10B8F40002B0704782B00346ADF80630BDF806309A
:10B9040003F580439BB2184602B0704782B00346E9
:10B914008DF807309DF807309BB2A3F580439BB2A6
:10B92400184602B0704782B003468DF807309DF880
:10B934000730072B17D09DF80730012B13D09DF843
:10B944000730082B0FD09DF80730052B0BD09DF83E
:10B954000730062B07D09DF80730092B03D09DF83C
:10B964000730042B01D1012300E0002303F001037D
:10B97400DBB2184602B0704700B589B003460091A7
:10B98400ADF8063003AB00221A605A609A60DA60A0
:10B994001A6108238DF80C30BDF80630ADF810306C
:10B9A400009B059303AB1846FFF77EFF00BF09B069
:10B9B4005DF804FB00B589B0354B00221A7001AB69
:10B9C4000822002118460CF0BBFB4FF6FF7001F073
:10B9D40045F80346ADF81E300CE0BDF81E3018469D
:10B9E40000F08EFFBDF81E30184601F037F803460C
:10B9F400ADF81E30BDF81E304FF6FF72934210D0E2
:10BA0400BDF81E301846FFF769FF0346184601AA21
:10BA140003AB194608F077FC034648F209629342E7
:10BA2400DBD0BDF81E304FF6FF7293422CD0BDF828
:10BA34001E301846FFF752FF0346ADF81C30BDF820
:10BA44001C30184608F0FAFB0690069B48F2076281
:10BA5400934203D10E4B01221A7015E0069B002B72
:10BA640012D00C4A0C4BD31ADB081B0443F0010020
:10BA7400BDF81E30069A09490BF055F8BDF81E3082
:10BA840006991846FFF778FF00BF09B05DF804FB7C
:10BA940044290020C883030000830300DC910300D1
:10BAA40000B587B003460092ADF806300B468DF81A
:10BAB40005309DF805301846FFF735FF02AB082224
:10BAC400002118460CF03CFBBDF806301846FFF781
