:020000022000DC
:106000000000012019620200016202000362020026
:10601000056202000762020009620200000000003F
:106020000000000000000000000000000B62020001
:106030000D620200000000000F6202001162020007
:10604000B5DA0200136202004DE00200ADEE02007C
:10605000C5EE02001362020049DF02001362020073
:106060001362020013620200136202001362020054
:106070001362020013620200136202001362020044
:1060800013620200010E0300136202001362020099
:106090001362020013620200AD5B03001362020090
:1060A0001362020013620200136202001362020014
:1060B00013620200136202000000000000000000F2
:1060C00013620200136202001362020013620200F4
:1060D000136202001362020013620200000000005B
:1060E00000000000000000000000000000000000B0
:1060F00000000000000000000000000000000000A0
:10610000000000000000000000000000000000008F
:10611000000000000000000000000000000000007F
:10612000000000000000000000000000000000006F
:10613000000000000000000000000000000000005F
:10614000000000000000000000000000000000004F
:10615000000000000000000000000000000000003F
:10616000000000000000000000000000000000002F
:10617000000000000000000000000000000000001F
:10618000000000000000000000000000000000000F
:1061900000000000000000000000000000000000FF
:1061A00000000000000000000000000000000000EF
:1061B00000000000000000000000000000000000DF
:1061C00000000000000000000000000000000000CF
:1061D00000000000000000000000000000000000BF
:1061E00000000000000000000000000000000000AF
:1061F000000000000000000000000000000000009F
:10620000FEE7FEE7FEE7FEE7FEE7FEE7FEE7FEE766
:10621000FEE7FEE700F002B8FFF7FCBF0F484FF0C3
:106220000701884385460E4880470E48016841F4BF
:1062300070010160BFF34F8FBFF36F8F00F01AB88A
:1062400009480A490A4A884207D0521A05D00378F9
:1062500001300B700131013AF9D170470000012083
:10626000497C020088ED00E01061030060220020FC
:10627000742200203A493B480A1A02D0072291436F
:106280008D46394939480A1A06D00722914381F3CD
:106290000988022282F3148835483649364A00F0CC
:1062A00041F836483649374A00F03CF83648374915
:1062B000374A00F037F837483749384A00F032F8A3
:1062C00037483849384A00F02DF838483849394AB3
:1062D00000F028F838483949394A00F023F839489D
:1062E0003949002200F036F838483949002200F0D8
:1062F00031F838483849091A0FF037FD374A9047C6
:1063000025482649884205D00268043003B49047E6
:1063100003BCF7E700208646EC4600200021304A07
:106320009047FEE7884214D0521A12D003460B431E
:1063300013430324234206D1036804300B60043165
:10634000043AF9D17047037801300B700131013AFA
:10635000F9D17047884202D002700130FAE77047E5
:106360000000012000E000200000012000000120CA
:10637000A8A403007422002008230020E463020084
:10638000E4630200925F0300A8A4030074220020CB
:1063900074220020246103002461030024610300AF
:1063A00024610300246103002461030024610300CD
:1063B00024610300A5A403003CA5030008230020DA
:1063C00008230020082300207C5100207C5100205D
:1063D0007C5100207C5100207C7100204162020031
:0463E000B1660200A0
:1063E40000B585B00190019B002B0AD0074B43F008
:1063F40001030393019B9B010293039B029898471B
:1064040000E000BF05B05DF804FB00BF306103008D
:1064140000B583B00190019B002B0AD04FF47A7031
:10642400FFF7DEFF019B013B0193019B002BF5D19C
:1064340000E000BF03B05DF804FB000000B583B0CA
:106444000E4A01AB1268114619800233120C1A70FD
:1064540001A90123032238200FF074FC034683F0C2
:106464000103DBB2002B01D0002303E01420FFF76B
:10647400CFFF0123184603B05DF804FB2461030039
:1064840000B589B00190019B002B01D100235CE091
:10649400304A05AB1268114619800233120C1A7087
:1064A40005A90123032238200FF04CFC034683F096
:1064B4000103DBB2002B01D0002346E05020FFF79C
:1064C400A7FF03AB00221A609A8003A900230622C7
:1064D40038200FF037FC034683F00103DBB2002BB6
:1064E40001D0002331E09DF80F301B0403F4702227
:1064F4009DF810301B0213439DF81120134307939A
:10650400079B07EE903AF8EE677A9FED137A27EE31
:10651400877ADFED126AC7EE267A9FED117A77EE5D
:10652400C77ACDED067ADDED067AB2EE027A27EE71
:10653400877AF1EE046AC7EE267A9FED0A7A77EE3F
:10654400877A019BC3ED007A0123184609B05DF8F0
:1065540004FB00BF2861030000004843F0FF7F49AB
:10656400000048420000004200B585B00190019B44
:10657400002B0AD0074B43F001030393019B9B01BB
:106584000293039B0298984700E000BF05B05DF8B2
:1065940004FB00BF9063030000B583B00190019B2E
:1065A400002B0AD04FF47A70FFF7DEFF019B013B0A
:1065B4000193019B002BF5D100E000BF03B05DF80F
:1065C40004FB000084B0019000914FF0000303939A
:1065D400009B002B0DD0019B07EE903AF8EE676A02
:1065E400009B07EE903AB8EE677AC6EE877ACDED57
:1065F400037ADDED037AB3EE097A67EE877A9FEDCD
:10660400067A77EE677ACDED027A029B07EE903A2E
:10661400B0EE670A04B070470000DC4284B0034661
:10662400ADF806300B46ADF804301346ADF8023031
:10663400BDF90630BDF9062003FB02F2BDF90430B2
:10664400BDF9041001FB03F31A44BDF90230BDF98E
:10665400021001FB03F313440393114B0293039AB7
:10666400029B9A420FDD0F4B1B7883F00103DBB2D0
:10667400002B08D00C4B1B6801330B4A1360094BE9
:1066840001221A7006E0039A029B9A4202DA054B31
:1066940000221A70044B1B68184604B0704700BFF0
:1066A40040420F00082300200C23002000B58BB0CB
:1066B4004FF4004100200DF021FF0890089B002BAF
:1066C40004D09B4A412108980AF0D6F80DF098FEB0
:1066D400032000F09BFA00F05FFC4FF47A70FFF7A0
:1066E4005BFF0EE0934A944BD31ADB081B0443F080
:1066F4000303924918460EF0D3F94FF47A70FFF76A
:106704004BFF00F094FE034683F00103DBB2002B41
:10671400E8D1884A884BD31ADB081B0443F00303EF
:10672400874918460EF0BCF90EE0824A824BD31A10
:10673400DB081B0443F00303824918460EF0B0F94A
:106744004FF47A70FFF728FF00F0D0FC034683F083
:106754000103DBB2002BE8D1764A774BD31ADB086E
:106764001B0443F00303784918460EF099F90EE030
:10677400704A714BD31ADB081B0443F003037349BB
:1067840018460EF08DF94FF47A70FFF705FFFFF706
:1067940055FE034683F00103DBB2002BE8D1654AC2
:1067A400654BD31ADB081B0443F0030368491846FE
:1067B4000EF076F95F4A604BD31ADB081B0443F0F2
:1067C4000303644918460EF06BF94FF4FA60FFF7BF
:1067D400E3FE00230493002303934FF0000302938A
:1067E400002309935C4A5D495D4800F0B6FE034608
:1067F400002B0AD14F4A504BD31ADB081B0443F039
:106804000303584918460EF04BF9574A574958485C
:1068140000F047FE0346002B0AD1464A464BD31AE2
:10682400DB081B0443F00303524918460EF038F901
:106834004B4BB3F900304A4AB2F90210484AB2F954
:1068440004201846FFF7EAFE079003AA04AB11469A
:10685400184600F0DDFC0346002B20D0354A364BA9
:10686400D31ADB081B0443F00303049A4249184675
:106874000EF024F9049B184600F0D6FA0346ADF84E
:106884001A302C4A2C4BD31ADB081B0443F00303A5
:10689400BDF81A20394918460EF010F90AE0254AC5
:1068A400254BD31ADB081B0443F003033449184671
:1068B4000EF0F6F8049B039A11461846FFF782FE81
:1068C4008DED050A02AB1846FFF7DAFD0346002BEF
:1068D4000AD1184A184BD31ADB081B0443F00303EC
:1068E400284918460EF0DCF8124A134BD31ADB0879
:1068F4001B0443F00300DDED057ABCEEE77ADDED21
:10690400027AFCEEE77A17EE903A0093079B17EEB3
:10691400102A1D490EF0F7F80A20FFF73DFE099BE7
:106924000A3309930EF02EF90346002BFAD159E7E6
:10693400386103003060030000600300BC610300A1
:10694400E86103000C620300386203005C62030028
:1069540084620300A4620300142300201223002095
:1069640010230020C46203001C2300201A230020EB
:1069740018230020E86203000C630300146303007F
:106984001C630300406303006063030000B583B02D
:106994000190019B1B68184600F0B5F80346002BD4
:1069A40004D105494FF4F6700BF08EFD4FF0A0436F
:1069B400184603B05DF804FB9863030000B585B086
:1069C4000190084611461A4603468DF803300B46DB
:1069D4008DF8023013468DF8013001AB1846FFF7ED
:1069E400D5FF03909DF803209DF802305B001A4305
:1069F4009DF801309B001A439DF818301B0242EAAF
:106A040003019DF81C301B04019A1943039B02F5F2
:106A1400E07243F8221000BF05B05DF804FB00B536
:106A240085B00390002301930023009300230122E7
:106A340001210398FFF7C2FF00BF05B05DF804FB16
:106A440000B585B003900B468DF80B309DF80B30E4
:106A54000022019200220092002200210398FFF7F5
:106A6400ADFF00BF05B05DF804FB00B585B0019033
:106A740001AB1846FFF78AFF0390019B012202FA3B
:106A840003F31946039800F02AF800BF05B05DF837
:106A940004FB00B585B0019001AB1846FFF776FF03
:106AA4000390019B012202FA03F31946039800F0B4
:106AB40020F800BF05B05DF804FB00B583B0019079
:106AC4000091009B002B03D10198FFF7E2FF02E045
:106AD4000198FFF7CAFF00BF03B05DF804FB82B062
:106AE40001900091019B009AC3F8082500BF02B0F1
:106AF400704782B001900091019B009AC3F80C2565
:106B040000BF02B0704784B00190019B5B090293FF
:106B140000230393029B002B03D14FF0FF33039315
:106B240000BF019B03F01F030193039A019B22FA08
:106B340003F303F00103002B14BF01230023DBB292
:106B4400184604B07047000000B583B00190019B63
:106B5400032B03D9074947200BF0B6FC064A019BD7
:106B640013441B7801211846FFF7A7FF00BF03B0A9
:106B74005DF804FBC86303004064030000B583B000
:106B84000023019305E00198FFF7DEFF019B013329
:106B94000193019B032BF6D900BF00BF03B05DF83E
:106BA40004FB000000B583B00023019309E0094A07
:106BB400019B13441B781846FFF731FF019B0133F7
:106BC4000193019B032BF2D9FFF7D8FF00BF03B059
:106BD4005DF804FB4064030000B583B00023019317
:106BE4000AE0094A019B13441B7803211846FFF766
:106BF40027FF019B01330193019B032BF1D900BFB4
:106C040000BF03B05DF804FB4464030000B583B027
:106C14000190019B03F00103002B01D0FFF7C2FF99
:106C2400019B03F00203002B01D0FFF7D5FF00BF47
:106C340003B05DF804FB000084B001900B468DF8AE
:106C4400033013468DF8023000230393019B032B7A
:106C54003CD89DF80230012B0BD19DF80330012B59
:106C640004D1019BDBB20E33DBB200E000238DF8CC
:106C740002309DF80330022B0FD0022B23DC002BB3
:106C840016D0012B1FD11449019A13465B001344FB
:106C94000B449DF802201A701AE00F49019A13461A
:106CA4005B0013440B4401339DF802201A700FE07B
:106CB4000949019A13465B0013440B4402339DF8BF
:106CC40002201A7004E00723039301E007230393CF
:106CD400039B184604B070472023002000B583B0FE
:106CE400012200210020FFF7A7FF0190019B002B48
:106CF40004D0019B072B01D0019B1CE00722022139
:106D04000120FFF799FF0190019B002B04D0019B08
:106D1400072B01D0019B0EE0042202210020FFF783
:106D24008BFF0190019B002B04D0019B072B01D00A
:106D3400019B00E00023184603B05DF804FB00B596
:106D440083B0012202210020FFF776FF0190019B0E
:106D5400002B04D0019B072B01D0019B1CE00722D0
:106D640002210120FFF768FF0190019B002B04D052
:106D7400019B072B01D0019B0EE00A220021002079
:106D8400FFF75AFF0190019B002B04D0019B072BB6
:106D940001D0019B00E00023184603B05DF804FB1A
:106DA40000B585B001900091019B1B88102B02D087
:106DB400112B18D02FE01A4B1B68002B0DD1FFF7B5
:106DC4008DFF0390039B002B07D0164B1B68002BF1
:106DD40003D0144B1B6803989847114B1B6801336D
:106DE4000F4A136017E00E4B1B68013B0C4A1360FB
:106DF4000B4B1B68002B0DD1FFF7A1FF0390039BE6
:106E0400002B07D0074B1B68002B03D0054B1B68D6
:106E14000398984700BF00BF05B05DF804FB00BFAE
:106E2400302300202C23002086B00190314B1B68B6
:106E34000133304A1360019A2F4B1B68D31A049311
:106E440000238DF81730049B002B03DD01238DF8FC
:106E5400173005E0049B002B02DAFF238DF817306E
:106E640000238DF81630254B93F90030002B10DDEC
:106E74009DF91730002B0CDA019B44F61F629342F4
:106E840007D9019B45F6C052934202D801238DF8DD
:106E940016309DF81630002B20D0164B1A68184B6C
:106EA4001B68D31A0393134B1B68154A1360039A88
:106EB40013469B0013445B000293029BB3F5967F39
:106EC4000CD3029B40F2DC52934207D84EF6602268
:106ED400029BB2FBF3F39AB20A4B1A80074A9DF85D
:106EE40017301370019B044A1360064B1B88184625
:106EF40006B07047342300203C23002040230020A8
:106F0400442300203823002000B583B00190019B66
:106F14000433184607F098FB00BF03B05DF804FB88
:106F240000B589B0059003921A460B468DF81330CC
:106F340013468DF8123000230793059B181D9DF806
:106F440012209DF813109DF8283000931346039ADD
:106F540007F0C0FE0790079B184609B05DF804FBD4
:106F640000B587B0039001921A460B468DF80B309A
:106F740013468DF80A3000230593039B181D9DF8D2
:106F84000A309DF80B10019A07F0CCFE0590059B82
:106F9400184607B05DF804FB00B587B06B460022C5
:106FA4001A605A609A60DA601B2300931A230193D3
:106FB4004FF0CD63029302238DF80C306946002311
:106FC4000A4A0B4806F00CFB0590059B0493049BAE
:106FD400002B04D0074A1C21049809F04DFC0448F6
:106FE400FFF792FF00BF07B05DF804FB295D0300C3
:106FF40074A203004864030000B587B003460A4640
:107004008DF80F3013468DF80E309DF80F308DF843
:1070140010309DF80E308DF811300F4B00221A708D
:1070240004AA00230093022357210C48FFF778FF9A
:10703400059000BF084B1B78DBB283F00103DBB281
:10704400002BF7D1059B002B01D0002300E0012386
:10705400184607B05DF804FB7051002074A20300C9
:1070640000B587B0034602918DF80F3013468DF8B2
:107074000E301C4B00221A700DF10F0201230093F5
:10708400012357211848FFF74BFF059000BF154B0C
:107094001B78DBB283F00103DBB2002BF7D1059B35
:1070A400002B01D0002319E00E4B00221A709DF82A
:1070B4000E30029A57210C48FFF752FF059000BF8B
:1070C400084B1B78DBB283F00103DBB2002BF7D152
:1070D400059B002B01D0002300E00123184607B0D4
:1070E4005DF804FB7051002074A2030000B583B066
:1070F40001238DF8073040210920FFF77DFF034667
:107104001A469DF807301340002B14BF01230023B7
:107114008DF8073000210420FFF76EFF03461A465E
:107124009DF807301340002B14BF012300238DF872
:10713400073000210520FFF75FFF03461A469DF83C
:1071440007301340002B14BF012300238DF80730B0
:1071540000210620FFF750FF03461A469DF807302A
:107164001340002B14BF012300238DF807304F2157
:107174000820FFF741FF03461A469DF807301340E5
:10718400002B14BF012300238DF8073003210920AD
:10719400FFF732FF03461A469DF807301340002BD1
:1071A40014BF012300238DF8073047210A20FFF77D
:1071B40023FF03461A469DF807301340002B14BFE3
:1071C400012300238DF807307F210C20FFF714FFE3
:1071D40003461A469DF807301340002B14BF0123C1
:1071E40000238DF807307F210D20FFF705FF0346AC
:1071F4001A469DF807301340002B14BF01230023C7
:107204008DF807309DF80730184603B05DF804FB8D
:1072140000B585B00190009102AB00221A609A80FB
:1072240002AB062219460720FFF71AFF034683F034
:107234000103DBB2002B01D0002324E09DF80830C9
:107244001A049DF809301B0213439DF80A201A43BF
:10725400019B1A60019B1B68C3F31102019B1A6016
:107264009DF80B301A049DF80C301B0213439DF853
:107274000D201A43009B1A60009B1B68C3F3110284
:10728400009B1A600123184605B05DF804FB00B5A5
:1072940089B0059003921A460B468DF813301346B5
:1072A4008DF8123000230793059B181D9DF81220BA
:1072B4009DF813109DF8283000931346039A07F0A5
:1072C40009FD0790079B184609B05DF804FB00B55B
:1072D40087B0039001921A460B468DF80B30134683
:1072E4008DF80A3000230593039B181D9DF80A307E
:1072F4009DF80B10019A07F015FD0590059B1846A3
:1073040007B05DF804FB000000B587B003460A46E9
:107314008DF80F3013468DF80E309DF80F308DF830
:1073240010309DF80E308DF811300F4B00221A707A
:1073340004AA00230093022368210C48FFF7A7FF47
:10734400059000BF084B1B78DBB283F00103DBB26E
:10735400002BF7D1059B002B01D0002300E0012373
:10736400184607B05DF804FB7051002074A20300B6
:1073740000B587B0034602918DF80F3013468DF89F
:107384000E301C4B00221A700DF10F0201230093E2
:10739400012368211848FFF77AFF059000BF154BB9
:1073A4001B78DBB283F00103DBB2002BF7D1059B22
:1073B400002B01D0002319E00E4B00221A709DF817
:1073C4000E30029A68210C48FFF781FF059000BF38
:1073D400084B1B78DBB283F00103DBB2002BF7D13F
:1073E400059B002B01D0002300E00123184607B0C1
:1073F4005DF804FB7051002074A2030000B583B053
:107404000DF10703012219467520FFF7B1FF03466A
:10741400002B07D09DF80730682B01D0002302E031
:10742400012300E00023184603B05DF804FB00B517
:1074340083B001238DF80730FFF7E0FF03461A46B7
:107444009DF807301340002B14BF012300238DF84F
:107454000730FFF7D3FF034683F00103DBB2002BB1
:1074640001D0002319E000216B20FFF74DFF072115
:107474001920FFF749FF06211A20FFF745FF0021D5
:107484003820FFF741FF18211B20FFF73DFF0021A3
:107494001C20FFF739FF9DF80730184603B05DF84C
:1074A40004FB00B587B003900291019200238DF88C
:1074B400173004AB062219464320FFF759FF034651
:1074C400002B44D09DF810301BB21B021AB29DF859
:1074D40011301BB213431AB2039B1A80039BB3F9F6
:1074E4000030002B04DA039BB3F90020039B1A80BD
:1074F4009DF812301BB21B021AB29DF813301BB256
:1075040013431AB2029B1A80029BB3F90030002B7A
:1075140004DA029BB3F90020029B1A809DF8143010
:107524001BB21B021AB29DF815301BB213431AB2D8
:10753400019B1A80019BB3F90030002B04DA019BF4
:10754400B3F90020019B1A8001238DF817309DF8B0
:107554001730184607B05DF804FB00B587B00390F8
:107564000291019200238DF8173004AB06221946CC
:107574003B20FFF7FDFE0346002B4AD004AB062256
:1075840019463B20FFF7F4FE9DF810301BB21B0296
:107594001AB29DF811301BB213431AB2039B1A801E
:1075A400039BB3F90030002B04DA039BB3F90020EA
:1075B400039B1A809DF812301BB21B021AB29DF86D
:1075C40013301BB213431AB2029B1A80029BB3F905
:1075D4000030002B04DA029BB3F90020029B1A80CE
:1075E4009DF814301BB21B021AB29DF815301BB261
:1075F40013431AB2019B1A80019BB3F90030002B8C
:1076040004DA019BB3F90020019B1A8001238DF851
:1076140017309DF81730184607B05DF804FB0000DA
:10762400BFF34F8F00BF064BDB6803F4E0620449ED
:10763400044B1343CB60BFF34F8F00BF00BFFDE784
:1076440000ED00E00400FA0582B01D4B1B68B3F1A5
:10765400FF3F0AD11B4B1B68DBB201931A4B1B681B
:107664001B0903F00F03009305E0154B1B680193FE
:10767400164B1B680093019B062B1DD1009B033BFB
:10768400042B17D801A252F823F000BFA5760200FC
:10769400A9760200AD760200B1760200B57602004A
:1076A40001230AE0012308E0012306E0012304E0AA
:1076B400012302E0012300E00023184602B07047D2
:1076C40030010010E00F00F0E80F00F0340100106A
:1076D40082B0174B1B68DBB20193164B1B681B0966
:1076E40003F00F030093019B062B1DD1009B033B6A
:1076F400042B17D801A252F823F000BF157702001B
:10770400197702001D770200217702002577020015
:1077140001230AE0002308E0002306E0002304E03C
:10772400002302E0002300E00023184602B0704763
:10773400E00F00F0E80F00F082B01D4B1B68B3F1BE
:10774400FF3F0AD11B4B1B68DBB201931A4B1B682A
:107754001B0903F00F03009305E0154B1B6801930D
:10776400164B1B680093019B062B1DD1009B033B0A
:10777400042B17D801A252F823F000BF957702001A
:10778400997702009D770200A1770200A577020095
:1077940001230AE0012308E0012306E0012304E0B9
:1077A400012302E0012300E00023184602B07047E1
:1077B40030010010E00F00F0E80F00F03401001079
:1077C40082B0174B1B68DBB20193164B1B681B0975
:1077D40003F00F030093019B062B1DD1009B033B79
:1077E400042B17D801A252F823F000BF0578020039
:1077F400097802000D780200117802001578020061
:1078040001230AE0002308E0002306E0002304E04B
:10781400002302E0002300E00023184602B0704772
:10782400E00F00F0E80F00F082B01D4B1B68B3F1CD
:10783400FF3F0AD11B4B1B68DBB201931A4B1B6839
:107844001B0903F00F03009305E0154B1B6801931C
:10785400164B1B680093019B062B1DD1009B033B19
:10786400042B17D801A252F823F000BF8578020038
:10787400897802008D7802009178020095780200E0
:1078840001230AE0012308E0012306E0012304E0C8
:10789400012302E0012300E00023184602B07047F0
:1078A40030010010E00F00F0E80F00F03401001088
:1078B40082B0174B1B68DBB20193164B1B681B0984
:1078C40003F00F030093019B062B1DD1009B033B88
:1078D400042B17D801A252F823F000BFF578020058
:1078E400F9780200FD7802000179020005790200AE
:1078F40001230AE0002308E0002306E0002304E05B
:10790400002302E0002300E00023184602B0704781
:10791400E00F00F0E80F00F082B0174B1B68DBB2F9
:107924000193164B1B681B0903F00F030093019B83
:10793400062B1DD1009B033B042B17D801A252F840
:1079440023F000BF5D7902006179020065790200CD
:10795400697902006D79020001230AE0002308E03E
:10796400002306E0002304E0002302E0002300E0FB
:107974000023184602B07047E00F00F0E80F00F053
:1079840082B01D4B1B68B3F1FF3F0AD11B4B1B6830
:10799400DBB201931A4B1B681B0903F00F0300931E
:1079A40005E0154B1B680193164B1B680093019B64
:1079B400062B1DD1009B033B042B17D801A252F8C0
:1079C40023F000BFDD790200E1790200E5790200CD
:1079D400E9790200ED79020000230AE0002308E0BF
:1079E400012306E0012304E0012302E0012300E077
:1079F4000023184602B0704730010010E00F00F079
:107A0400E80F00F03401001082B01D4B1B68B3F185
:107A1400FF3F0AD11B4B1B68DBB201931A4B1B6857
:107A24001B0903F00F03009305E0154B1B6801933A
:107A3400164B1B680093019B062B1DD1009B033B37
:107A4400042B17D801A252F823F000BF657A020074
:107A5400697A02006D7A0200717A0200757A020076
:107A640001230AE0012308E0012306E0012304E0E6
:107A7400012302E0012300E00023184602B070470E
:107A840030010010E00F00F0E80F00F034010010A6
:107A940082B01D4B1B68B3F1FF3F0AD11B4B1B681F
:107AA400DBB201931A4B1B681B0903F00F0300930D
:107AB40005E0154B1B680193164B1B680093019B53
:107AC400062B1DD1009B033B042B17D801A252F8AF
:107AD40023F000BFED7A0200F17A0200F57A020089
:107AE400F97A0200FD7A020001230AE0012308E08A
:107AF400012306E0012304E0012302E0012300E066
:107B04000023184602B0704730010010E00F00F067
:107B1400E80F00F03401001082B0154B1B6801938C
:107B2400144B1B680093019B062B1DD1009B033B48
:107B3400042B17D801A252F823F000BF557B020092
:107B4400597B02005D7B0200617B0200657B0200C1
:107B540000230AE0002308E0002306E0012304E0F8
:107B6400012302E0012300E00023184602B070471D
:107B7400300100103401001082B0154B1B680193D2
:107B8400144B1B680093019B062B1DD1009B033BE8
:107B9400042B17D801A252F823F000BFB57B0200D2
:107BA400B97B0200BD7B0200C17B0200C57B0200E1
:107BB40000230AE0002308E0002306E0002304E099
:107BC400012302E0012300E00023184602B07047BD
:107BD400300100103401001008B5FFF7CDFF034653
:107BE400002B07D04FF010234FF08042D3F8083217
:107BF400C2F8583500BF08BD00BF044BD3F80034A9
:107C0400002BFAD000BF00BF704700BF00E0014066
:107C140000B583B00190054A019BC2F80435FFF713
:107C2400EBFF00BF03B05DF804FB00BF00E00140C0
:107C3400024B034A1A6000BF704700BF7422002041
:107C44000090D00308B5FFF7FFFC0346002B06D0D5
:107C5400964B1B681B0A964A03F01F031360FFF739
:107C640037FD0346002B02D0924B934A1A60FFF76C
:107C740063FD0346002B06D0904B1B685B0B904AB8
:107C840003F007031360FFF79BFD0346002B05D0A9
:107C94008C4BDB688B4A23F08073D360FFF7C4FD01
:107CA4000346002B0ED04FF080430022C3F80C2172
:107CB4004FF080430022C3F810214FF0804300228C
:107CC400C3F83825FFF7F4FD0346002B02D07E4BA2
:107CD40003221A60FFF720FE0346002B0BD07B4BD8
:107CE40005221A607A4B01221A607A4B00221A602C
:107CF400794B3F221A60FFF743FE0346002B76D0F0
:107D04004FF08053754AD3F80434C2F820354FF04D
:107D14008053724AD3F80834C2F824354FF08053A4
:107D24006E4AD3F80C34C2F828354FF080536B4AAE
:107D3400D3F81034C2F82C354FF08053674AD3F887
:107D44001434C2F830354FF08053644AD3F81834F1
:107D5400C2F834354FF08053604AD3F81C34C2F86B
:107D640040354FF080535D4AD3F82034C2F844358F
:107D74004FF08053594AD3F82434C2F848354FF0B1
:107D84008053564AD3F82834C2F84C354FF0805308
:107D9400524AD3F82C34C2F850354FF080534F4A2E
:107DA400D3F83034C2F854354FF080534B4AD3F8EB
:107DB4003434C2F860354FF08053484AD3F838342D
:107DC400C2F864354FF08053444AD3F83C34C2F8C7
:107DD40068354FF08053414AD3F84034C2F86C35CB
:107DE4004FF080533D4AD3F84434C2F87035FFF75E
:107DF4000BFE0346002B05D0394B1B68394A03F0B0
:107E04004F031360FFF744FE0346002B0DD04FF0E1
:107E14008043D3F8003403F00103002B05D04FF066
:107E240080436FF00102C3F80024FFF775FE034698
:107E3400002B05D02C4B1B682B4A43F48063136042
:107E44002A4BD3F88830294A43F47003C2F88830A7
:107E5400BFF34F8F00BFBFF36F8F00BFFFF7BCFEB0
:107E64004FF01023D3F80032002B05DB4FF0102322
:107E7400D3F80432002B15DA0120FFF7C9FE4FF0C6
:107E840010231522C3F80022FFF7B6FE4FF010238B
:107E94001522C3F80422FFF7AFFE0020FFF7B8FE57
:107EA400FFF7BEFBFFF7C4FE00BF08BD24030010AC
:107EB4004035014074C007400DF0ADBA44020010D3
:107EC4003C050040F0ED00E0A005004010560040E5
:107ED40088560040185600401456004000C0004028
:107EE40058020010E40E00403C17004000ED00E092
:107EF40084B00346ADF806300023039316E00F491F
:107F0400039A13469B0013449B000B441B88BDF843
:107F140006209A4207D1039A13469B0013449B0000
:107F2400064A134406E0039B01330393039B002B8F
:107F3400E5D00023184604B0704700BF4823002052
:107F440082B001900B46ADF80230019BBDF80220CF
:107F54001A80019B00221A72019B054903F10A024F
:107F64000B4603CB1060516000BF02B0704700BFE6
:107F74007823002082B00190019B4FF6FF721A8093
:107F840000BF02B0704788B00390029111461A46B0
:107F94000B46ADF806301346ADF80430039B9B88BE
:107FA4001A46BDF8063013440793039B9B88194671
:107FB400039B9B88BDF80620934228BF13469BB2BF
:107FC400CB1A0693039BDB881A46BDF8043013448E
:107FD4000593039BDB881946039BDB88BDF80420CB
:107FE400934228BF13469BB2CB1A0493029B5A8830
:107FF400039B1B889A4205D3029B5A88039B5B8888
:108004009A4201D900231CE0029B9B881A46069BD6
:10801400934205D8029B9B881A46079B934201D240
:1080240000230EE0029BDB881A46049B934205D88A
:10803400029BDB881A46059B934201D2002300E091
:108044000123184608B0704700B583B00190064B71
:108054009B69002B03D0044B9B690198984700BF90
:1080640003B05DF804FB00BF5C23002000B587B0BB
:1080740003460091ADF80630009B5B7A002B1AD1C1
:10808400009B1B7A002B03D1164B5B68059302E01F
:10809400144B9B680593009B5B68BDF8062005990B
:1080A400184608F00DFD0490049B002B16D004988C
:1080B400FFF7CAFF12E0009B00221A72094B5B69AA
:1080C400002B0BD001238DF80C30BDF80630ADF831
:1080D4000E30044B5B6903AA1046984700BF07B0F3
:1080E4005DF804FB5C23002000B585B00190019B82
:1080F400DB7B8DF80F30019B9B88ADF80C309DF82D
:108104000F30012B2CD14FF6FF70FFF7F1FE0290D8
:10811400029B002B03D10420FFF796FF21E0BDF85A
:108124000C3019460298FFF70BFF029B03F10A007B
:10813400019B03F110014FF6FF7340F2F312FFF7B6
:1081440022FF03461A46029B5A72074BDB89002B17
:1081540007D1BDF80C3002991846FFF787FF00E0FD
:1081640000BF05B05DF804FB5C23002000B587B0B8
:108174000190019B9B88ADF81630BDF81630184667
:10818400FFF7B6FE0490049B002B0ED0049B5B68A3
:10819400184608F0EDFC0390039B002B02D00398D3
:1081A400FFF752FF0498FFF7E5FE00BF07B05DF844
:1081B40004FB000000B587B00190019B06330593D2
:1081C400059B1A88194BDB899A422BD1059B5B8945
:1081D400022B27D1019B9B88ADF81230BDF81230D9
:1081E4001846FFF785FE0390039B002B1AD0059BCE
:1081F4000C33184600F083FB0346002B06D0BDF871
:10820400123003991846FFF731FF0BE0039B5B68BC
:10821400184608F0ADFC0290029B002B02D0029895
:10822400FFF712FF00BF07B05DF804FB5C230020DA
:1082340000B585B00190019B9B88ADF80E30BDF868
:108244000E301846FFF754FE0290029B002B15D007
:10825400029B03F10A00019B03F108014FF6FF732F
:1082640040F2F312FFF78FFE03461A46029B5A723E
:10827400BDF80E3002991846FFF7F8FE00BF05B0AE
:108284005DF804FB00B583B001900091019B1B884D
:10829400502B12D0502B18DC122B12D0122B14DCC2
:1082A400102B02D0112B04D00FE00198FFF71CFF14
:1082B4000CE00198FFF75AFF08E00198FFF77AFFF6
:1082C40004E00198FFF7B4FF00E000BF00BF03B073
:1082D4005DF804FB30B58FB0019000910023029348
:1082E400009B002B1AD000230D9314E06B460D99CC
:1082F40018460AF023FA0346002B09D0029B5A1CA5
:1083040002920D9A92B25B0038336B4423F82C2C02
:108314000D9B01330D930D9B132BE7D9019B1D4638
:1083240002AC0FCC0FC50FCC0FC594E8070085E84D
:10833400070001980FB030BD00B583B00346ADF817
:108344000630BDF80630132B01D900230CE0BDF82C
:108354000630194606480AF09CF9BDF8063019465D
:1083640004480AF096F90123184603B05DF804FBAB
:10837400882300208423002000B585B00346ADF88F
:108384000630002303930DE0039B9B00094A13442A
:108394000433BDF80620114618460AF0B6F9039BCB
:1083A40001330393039B1D2BEED900BF00BF05B01F
:1083B4005DF804FB8023002000B583B00346ADF8CC
:1083C4000630BDF80630194603480AF09EF900BF8E
:1083D40003B05DF804FB00BF8823002030B59BB0D8
:1083E400184B9B68DB431893164B5A6818AB11461D
:1083F40018460AF079FA189A6B4611461846FFF7A0
:1084040069FF0DAC6D460FCD0FC40FCD0FC495E8B9
:10841400070084E80700002319930BE0199B5B0015
:1084240068336B4433F8303C1846FFF7A5FF199BBB
:10843400013319930D9B199A9A42EFD300BF00BFE1
:108444001BB030BD8023002000B583B003468DF8F7
:1084540007309DF80730194603480AF06FF90346C0
:10846400184603B05DF804FB8023002000B583B0F8
:1084740001900B46ADF8023013468DF801309DF89B
:108484000130002B06D0BDF80230194601980AF0DD
:1084940000F905E0BDF80230194601980AF035F9F3
:1084A40000BF03B05DF804FB00B585B001900091F6
:1084B400019B9B88ADF80E30019B1B88103B0A2B57
:1084C40000F2888001A252F823F000BFFD8402006C
:1084D40039850200D9850200D9850200D9850200B8
:1084E400D9850200D9850200D9850200D985020008
:1084F400A385020045850200FFF770FFBDF80E302A
:108504001846FFF719FF034683F00103DBB2002B83
:1085140005D0324AF021042008F0AEF957E0019B5F
:10852400DB7B022B53D1BDF80E3019462C480AF0E0
:10853400B0F84CE0BDF80E301846FFF73DFF49E0B7
:10854400019B1B7AC3F30313DBB28DF80D309DF846
:108554000D30032B8CBF01230023DAB2BDF80E309B
:1085640019462048FFF782FF9DF80D30022B8CBF7F
:1085740001230023DAB2BDF80E3019461A48FFF77A
:1085840075FF9DF80D30012B8CBF01230023DAB257
:10859400BDF80E3019461548FFF768FF1AE0019B35
:1085A4001B7A002B15D1019B5B7AC3F3C003DBB2AA
:1085B400002B14BF012300238DF80C309DF80C20F0
:1085C400BDF80E3019460748FFF750FF01E000BF21
:1085D40000E000BF00BF05B05DF804FB24650300A4
:1085E4008C23002098230020942300209023002033
:1085F40000B583B00346ADF80630BDF80630132B42
:1086040001D9002306E0BDF80630194603480AF0F4
:1086140095F80346184603B05DF804FB8423002054
:1086240000B585B00346ADF8063000238DF80F3051
:10863400BDF806301846FFF7DBFF0346002B11D0C8
:10864400BDF8063019460A480AF078F803468DF852
:108654000E309DF80E30002B01D0022300E00123E0
:108664008DF80F309DF80F30184605B05DF804FB07
:108674008C23002000B585B00346ADF806300023F6
:108684008DF80F30BDF806301846FFF7B1FF0346EA
:10869400002B11D0BDF8063019460A480AF04EF8EE
:1086A40003468DF80E309DF80E30002B01D00223C6
:1086B40000E001238DF80F309DF80F30184605B007
:1086C4005DF804FB8823002000B583B00346ADF8B1
:1086D4000630BDF806301846FFF78AFF0346002B24
:1086E40007D0BDF80630194604480AF027F80346B7
:1086F40000E00023184603B05DF804FB902300203B
:1087040000B583B00346ADF80630BDF80630184610
:10871400FFF76EFF0346002B07D0BDF8063019465D
:1087240004480AF00BF8034600E00023184603B09F
:108734005DF804FB9423002000B583B00346ADF834
:108744000630BDF806301846FFF752FF0346002BEB
:1087540007D0BDF806301946044809F0EFFF034678
:1087640000E00023184603B05DF804FB98230020C2
:1087740000B583B003460A46ADF8063013468DF8BB
:1087840005309DF805301846FFF75EFE0346002BC2
:1087940016D0BDF806301846FFF72AFF0346002B13
:1087A4000ED09DF8053006339B00084A1344043369
:1087B400BDF806201146184609F0C0FF034600E044
:1087C4000023184603B05DF804FB00BF802300209B
:1087D40000B583B00346ADF806300B468DF805307E
:1087E40013468DF804309DF805301846FFF72CFE2B
:1087F4000346002B15D0BDF806301846FFF7F8FEE7
:108804000346002B0DD09DF8053006339B00074A24
:10881400134404339DF80420BDF806101846FFF7EE
:1088240025FE00BF03B05DF804FB00BF80230020D9
:1088340000B587B0039002910192029B002B01D1F5
:1088440000231FE000230593039B002B19D0002372
:10885400049313E003AB0499184609F06FFF034631
:10886400002B08D0049B9AB2029B019910469847AA
:10887400059B01330593049B01330493049B132B41
:10888400E8D9059B184607B05DF804FB00B585B030
:108894000346029101928DF80F309DF80F3018466F
:1088A400FFF7D2FD034683F00103DBB2002B01D0B6
:1088B40000230CE09DF80F30074A06339B00134455
:1088C4005B68019A02991846FFF7B2FF03461846FF
:1088D40005B05DF804FB00BF8023002082B0019046
:1088E400019B1B781AB2019B01331B781BB21B023C
:1088F4001BB213431BB29BB2184602B0704700B5BB
:1089040085B001900198FFF7E9FF0346ADF80E30FA
:10891400BDF80E3003F00103002B14BF0123002324
:10892400DBB2184605B05DF804FBA0DF704700BF5A
:108934001846A1DF704700BF1846ADDF704700BF7F
:108944001846B3DF704700BF1846B4DF704700BF56
:108954001846000000B585B00190019B002B03D19F
:108964000A49852009F0B0FD0121019809F05DFF55
:108974000390BFF35F8F00BF039B002B0CBF012349
:108984000023DBB2184605B05DF804FBC0660300A3
:1089940000B583B00190019B002B03D10A499220BA
:1089A40009F092FD019B1B68012B03D0064993201B
:1089B40009F08AFDBFF35F8F00BF019B00221A609C
:1089C40000BF03B05DF804FBC066030000B585B0CA
:1089D4000190019B5B88184601F05AFA03461A4637
:1089E400019B9A800023039308E0084A039B52F8F2
:1089F400233001989847039B01330393039B002B77
:108A0400F3D000BF00BF05B05DF804FB782200205E
:108A140082B00190019B9B79012B0BD1019B1B79A7
:108A2400012B07D1019B5B8842F60212934201D1CC
:108A3400012300E0002303F00103DBB2184602B077
:108A4400704700B589B003460091ADF8063003AB1A
:108A540000221A605A609A60DA601A6108238DF85D
:108A64000C30BDF80630ADF80E30009B059303AB17
:108A74001846FFF7ABFF00BF09B05DF804FB000028
:108A840010B58AB00346ADF8063000238DF82730C0
:108A940003AB00221A605A609A60DA601A61BDF86A
:108AA4000630ADF80E30BDF806304FF6FF72934233
:108AB40061D0BDF80630184600F034FF0890089BDA
:108AC40043F2020293424BD0089B43F202029342C8
:108AD4002DD8089B112B11D0089B112B27D8089B4C
:108AE400002B03D0089B0B2B0CD020E00F238DF818
:108AF4000C3003AB1846FFF769FF32E001238DF811
:108B040027302EE010238DF80C301C4A1C4BD31A4E
:108B1400DB081B0443F00203BDF80620194918467C
:108B24000BF0CCFF03AB1846FFF750FF19E0134AD4
:108B3400134BD31ADB081B0443F0010408980BF011
:108B4400D7F903461A46BDF806300F4920460BF004
:108B5400C6FFBDF8063008991846FFF772FF00E01B
:108B640000BF0A4B19789DF82720BDF80630184637
:108B7400FFF72EFE00E000BF0AB010BDA0600300A6
:108B8400006003000C6703008C67030001240020CD
:108B940000B583B003460A46ADF8063013468DF897
:108BA4000530064B19789DF80520BDF806301846A7
:108BB400FFF70EFE00BF03B05DF804FB00240020A5
:108BC40010B58AB00346ADF8063000238DF827307F
:108BD40000238DF82630BDF80630184600F0BAFDA3
:108BE4000890089B43F20202934258D0089B43F238
:108BF400020293423AD8089B862B17D0089B862BF7
:108C040034D8089B112B0DD0089B112B2ED8089B10
:108C1400002B03D0089B0B2B41D027E001238DF8B8
:108C240026303DE001238DF8273039E003AB0022E4
:108C34001A605A609A60DA601A6107238DF80C3062
:108C4400BDF80630ADF80E301C4A1D4BD31ADB08B4
:108C54001B0443F00203BDF806201A4918460BF022
:108C64002DFF03AB1846FFF7B1FE19E0134A144B6E
:108C7400D31ADB081B0443F0010408980BF038F9FD
:108C840003461A46BDF806300F4920460BF027FF6D
:108C9400BDF8063008991846FFF7D3FE00E000BF80
:108CA4009DF82720BDF8063011461846FFF770FFDF
:108CB4009DF8263018460AB010BD00BFA06003001E
:108CC40000600300E06703001868030000B589B082
:108CD40003460091ADF8063000238DF81F300DF1E6
:108CE40016031846FFF72DFE0690069B002B04D0B2
:108CF4002A494FF4997009F0E7FB0123ADF81C30C1
:108D040040E00223ADF808300023ADF80A3004AB8C
:108D1400039304A9BDF81C3000221846FFF715FE82
:108D24000690069B002B01D0069B32E09DF81F3075
:108D340083F00103DBB2002B09D0BDF8103042F6FA
:108D44000522934203D101238DF81F3015E09DF8CD
:108D54001F30002B11D0BDF8103042F6021293429E
:108D64000BD1009B039302AABDF81C10BDF806307A
:108D74001846FFF7E2FD03460BE0BDF81C30013353
:108D8400ADF81C30BDF81630BDF81C209A42B8D39B
:108D94000523184609B05DF804FB00BF58680300BA
:108DA40010B58AB00346ADF8063001238DF827309C
:108DB40000238DF82630BDF80630184600F062FE18
:108DC4000890089B43F2014293426AD0089B43F205
:108DD400014293426BD8089B112B29D8089B112B75
:108DE40065D801A252F823F0418E0200B38E02002E
:108DF400B38E0200B38E0200B38E0200B38E020063
:108E04008D8E0200B38E02006D8E0200B38E0200BE
:108E1400B38E0200B38E0200B38E0200B38E020042
:108E2400B38E0200B38E0200B38E0200E58E020000
:108E3400089B43F20202934254D038E003AB002271
:108E44001A605A609A60DA601A6111238DF80C3046
:108E5400BDF80630ADF80E3001238DF8263003AB93
:108E64001846FFF7B3FD3EE00DF10A02BDF80630E7
:108E740011461846FFF72AFF0890089B002B03D1E0
:108E8400BDF80A30002B2ED100238DF82730BDF811
:108E94000630184600F0FCFF0346184600F03AFE80
:108EA40021E0BDF806301846FFF7EAFD1BE0184A3A
:108EB400184BD31ADB081B0443F0010408980BF089
:108EC40017F803461A46BDF80630134920460BF03E
:108ED40006FEBDF8063008991846FFF7B2FD02E019
:108EE40000BF00E000BF0D4B19789DF82720BDF8A6
:108EF40006301846FFF76CFC094B19789DF82620BC
:108F0400BDF806301846FFF763FC00BF0AB010BD79
:108F1400A060030000600300E8680300022400204E
:108F24000324002000B583B003460091ADF8063059
:108F3400BDF806301846FFF7A3FD00BF03B05DF887
:108F440004FB000008B5044B1B78002203491846B3
:108F5400FFF79CFC00BF08BD01240020298F0200FC
:108F640000B583B003460091ADF806300A48FFF718
:108F7400F1FC0346002B0CD0BDF806301846FFF771
:108F84001FFE0346002B03D10348FFF701FD00E059
:108F940000BF03B05DF804FBFC23002000B583B0E0
:108FA40003460091ADF806300B4B1A78BDF8063035
:108FB40011461846FFF7DCFB034683F00103DBB2DE
:108FC400002B04D0BDF806301846FFF7E9FE00BFB9
:108FD40003B05DF804FB00BF0324002008B5044B74
:108FE4001B78002203491846FFF750FC00BF08BD58
:108FF40002240020A18F020000B583B00346ADF81F
:109004000630BDF80630184600F018FD0346002B64
:1090140007D0064B1978BDF8063001221846FFF731
:10902400D7FB00BF03B05DF804FB00BF022400209F
:1090340000B587B003460091ADF8063004AB0422B6
:10904400002118460CF008FF42F6A623ADF81030B4
:1090540001238DF812300D4B1B68039303AA04A956
:10906400BDF806301846FFF760FC0590059B002B01
:1090740007D1074B1978BDF8063001221846FFF7CF
:10908400A7FB00BF07B05DF804FB00BF286903001D
:109094000524002000B585B00346ADF80630BDF8C0
:1090A4000630184600F0F4FE0346184602AA0023D0
:1090B400092101F0EEF90346052B07D1054B197878
:1090C400BDF8063001221846FFF782FB00BF05B049
:1090D4005DF804FB0424002000B583B00B4B1B781F
:1090E40000220B491846FFF7D1FB0190019B002B8E
:1090F40007D1084B1B78002207491846FFF7C6FB27
:10910400019000BF03B05DF804FB00BF0024002001
:10911400658F0200042400203590020000B583B05E
:109124000190019B1B78002B11D1019B5B88184691
:10913400FFF7A6FC019B5B881846FFF75DFF019BC8
:109144005B881846FFF7A6FFFFF7C6FF00E000BFE5
:1091540000BF03B05DF804FB00B589B00190019B2A
:109164001B78092B5ED1019B5B7A002B5AD1019BA2
:109174001B7A082B47D0082B4DDC012B1BD0072B67
:1091840049D1019B9B88184600F02CFF0346ADF89B
:109194001E30BDF81E304FF6FF7293423DD0BDF82D
:1091A4001E3001211846FFF7F3FCBDF81E301846A7
:1091B400FFF770FF31E0019B9B8803AA0121184649
:1091C40001F0B0FE0690069B002B28D1049B1B786F
:1091D400002B24D0019B9B88184600F003FF034614
:1091E400ADF81630BDF816304FF6FF72934216D024
:1091F4000F4B1978BDF8163001221846FFF7E8FA2C
:10920400FFF7ECFE0BE00B4B1B68012B09D109485F
:10921400FFF7BEFB05E000BF04E000BF02E000BFB3
:1092240000E000BFFFF758FF00BF09B05DF804FB82
:1092340002240020FC23002010B586B003460A4611
:10924400ADF8063013468DF8053003AB00221A60E2
:109254005A600123ADF80C3009238DF80E30194BF8
:109264001978BDF8063000221846FFF7B1FA9DF8C8
:109274000530002B01D0144B00E0144B0493BDF8CF
:109284000630184600F004FE0346184603AB0022DD
:10929400194601F0C5F90590059B002B0FD00C4A27
:1092A4000C4BD31ADB081B0443F0020405980AF0A4
:1092B4001FFE03461A46084920460BF0FFFB00BF79
:1092C40006B010BD04240020B06A0300B46A030091
:1092D400A0600300006003009C69030000B58DB02A
:1092E4000190019B9B88ADF82C30019B1B88353B7A
:1092F4001F2B00F2688101A252F823F0119402009E
:1093040013950200CB950200CB950200CB95020089
:10931400CB950200CB950200CB950200CB950200C1
:10932400CB950200CB950200CB950200CB950200B1
:10933400CB950200CB950200CB950200CB950200A1
:10934400CB950200CB950200CB950200CB95020091
:10935400CB950200CB950200CB950200CB95020081
:10936400CB950200CB950200ED930200CB95020051
:1093740081930200CB9502008D930200BDF82C303E
:109384001846FFF77DFB1EE103AB00221A605A600A
:109394009A60DA601A6112238DF80C30BDF82C3013
:1093A400ADF80E30BDF82C30184600F071FD0346C0
:1093B400ADF81030BDF81030184600F0ABFB864B0A
:1093C4001978BDF82C3000221846FFF701FA834BB8
:1093D4001978BDF82C3000221846FFF7F9F903ABD1
:1093E4001846FFF7F3FAEEE0019B06331846FFF741
:1093F4000FFB0346002B00F0DF80BDF82C30012169
:109404001846FFF7C5FBFFF767FED5E000238DF88C
:109414002F30019B9B88ADF82C30019B0A330993B4
:109424006F4B1A78BDF82C3011461846FFF7A0F997
:10943400034683F00103DBB2002B40F0BF80684B8E
:109444001978BDF82C3000221846FFF7C1F9019BAA
:10945400DB88B3F5857F4CD0019BDB88002B0DD0D6
:10946400604A614BD31ADB081B0443F00200019BE2
:10947400DB881A465D490BF021FB3AE0099B1B8807
:10948400012B0CD0574A584BD31ADB081B0443F06A
:109494000200099B1B881A4655490BF00FFB099BD8
:1094A4005B88012B0DD04F4A4F4BD31ADB081B04AA
:1094B40043F00200099B5B881A464E490BF0FEFA02
:1094C40017E0099B04331988BDF82C300022184694
:1094D400FFF72FFA0890089B002B0AD101238DF87F
:1094E4002F30454B1978BDF82C3001221846FFF770
:1094F4006FF99DF82F3083F00103DBB2002B5FD0AE
:10950400BDF82C3000211846FFF796FE58E00023E2
:109514008DF82E30019B9B88ADF82C30019B0A33CB
:109524000A93354B1A78BDF82C3011461846FFF7CC
:109534001FF9034683F00103DBB2002B42D12E4B0B
:109544001978BDF82C3000221846FFF741F9019B29
:10955400DB88002B0DD0234A234BD31ADB081B04D2
:1095640043F00200019BDB881A4620490BF0A6FA5F
:1095740019E00A9B9B88012B0DD01A4A1A4BD31A67
:10958400DB081B0443F002000A9B9B881A46194916
:109594000BF094FA07E00A9B9B79002B14BF01237C
:1095A40000238DF82E309DF82E20BDF82C30114666
:1095B4001846FFF741FE06E000BF04E000BF02E0EA
:1095C40000BF00E000BFFFF7BDFCFFF707FD00BFD1
:1095D4000DB05DF804FB00BF03240020022400202A
:1095E40005240020A060030000600300FC69030060
:1095F400386A0300746A030006240020AFDF704752
:1096040000BF1846B1DF704700BF1846B2DF70478D
:1096140000BF1846B3DF704700BF184600B585B0D9
:109624000190019B9B88184600F0DCFC03461A4617
:10963400019B5A800023039308E0084A039B52F8D5
:10964400233001989847039B01330393039B002B1A
:10965400F3D000BF00BF05B05DF804FB7C220020FE
:1096640010B588B02D4A05AB92E8030083E80300E7
:1096740048E02B4B1B8805A90022184600F0D0FFB8
:109684000790079B002B34D06B4600221A605A6067
:109694009A60DA601A61224B1B88ADF80430079B8C
:1096A400112B36D0079B862B07D107238DF800306A
:1096B4006B461846FFF7B2FF2BE01A4A1A4BD31A2F
:1096C400DB081B0443F0010407980AF011FC03466D
:1096D4001A46134B1B88154920460BF000FA082341
:1096E4008DF80030079B02936B461846FFF796FFF0
:1096F4000FE00B4B1B88184601F062F803461A462C
:10970400074B1A80064B1B884FF6FF729342B0D169
:1097140000E000BF00BF08B010BD00BF246B030011
:1097240008240020A860030000600300CC6A030042
:1097340000B583B00190064B1B884FF6FF7293422D
:1097440001D0FFF78DFF00BF03B05DF804FB00BF3D
:109754000824002030B58DB00346ADF80630BDF8BE
:109764000630184600F094FB0346ADF82630BDF8E9
:1097740026304FF6FF72934202D143F20203C5E052
:109784000123ADF82A3000238DF8293000238DF809
:109794002930BDF82A305A1CADF82A201A4604ABE9
:1097A400BDF82600082101F0D3FB0B900B9B002B86
:1097B40040F0A180059B0893089B03221A60089B34
:1097C400991D089B1A1D089B1B68BDF80600FFF72E
:1097D4001DFF0B900B9B002B62D102AABDF8263013
:1097E4000821184601F09EFB0B900B9B002B16D012
:1097F4000B9B052B13D0474A474BD31ADB081B049A
:1098040043F001040B980AF073FB03461A46BDF8B3
:109814000630424920460BF062F9032376E00B9BA5
:10982400052B11D0089B9A88039B9B889A420BD1E5
:10983400089B981D039B991D089B9B881A460CF056
:109844009EFA0346002B09D0BDF82620BDF8263029
:109854000821184601F03BFC0B9051E0BDF826307E
:109864000821184601F014FC0690069B002B02D137
:109874000B230B9344E0274A274BD31ADB081B0422
:1098840043F00104BDF8265006980AF031FB034664
:109894002A46234920460BF022F903230B932FE099
:1098A4000B9B0C2B03D101238DF8293004E00B9B77
:1098B400052B01D100230B93BDF82630082118464F
:1098C40001F0E6FB0790079B002B19D0114A124BBD
:1098D400D31ADB081B0443F00104BDF82650079893
:1098E4000AF006FB03462A460D4920460BF0F7F81A
:1098F40003230B9304E00B9B072B01D10C230B9345
:109904009DF82930002B7FF441AF0B9B18460DB016
:1099140030BD00BFA8600300006003002C6B03008F
:10992400646B030000B58BB00346ADF80630BDF898
:109934000630184600F0ACFA0346ADF814300023A4
:1099440008930023ADF81E300323069301238DF8FA
:109954001730BDF814304FF6FF72934216D002AAA6
:10996400BDF814300821184601F0DCFA0990099B6F
:10997400002B0BD1039B0493049B06330893049B95
:109984009B88ADF81E30049B1B680693BDF81E200F
:10999400BDF80600069B0899FFF734FE0990099B61
:1099A400042B02D11123099331E0099B082B02D126
:1099B400002309932BE0099B0B2B28D100238DF85E
:1099C4001730069B03F00203002B02D001230693F9
:1099D4001DE0089B002B03D1BDF81E30002B07D0DF
:1099E400002308930023ADF81E30032306930EE0F2
:1099F4000F4A104BD31ADB081B0443F00103BDF8D4
:109A040006200D4918460BF059F803230993099BC6
:109A14000B2BBBD09DF8173083F00103DBB2002B76
:109A240001D00B230993099B18460BB05DF804FB86
:109A3400A860030000600300E46B030000B589B074
:109A44000346ADF806300DF117030493BDF8063054
:109A5400184600F01DFA0346ADF81E3003AABDF8FF
:109A64001E300121184601F05DFA0690069B002B7A
:109A740001D0002301E0049B1B78184609B05DF86F
:109A840004FB000010B584B00346ADF806304FF671
:109A9400FF73ADF80E301B48FFF7BCFD0290029B2C
:109AA400002B11D0184A194BD31ADB081B0443F0BE
:109AB400010402980AF01CFA03461A461449204687
:109AC4000AF0FCFF03231AE00E4B1988BDF80E20A0
:109AD400BDF806301846FFF791FD0290029B43F251
:109AE4000302934205D1074B1B8801339AB2054BFD
:109AF4001A80029B43F203029342E5D0029B18466C
:109B040004B010BD0A240020A86003000060030014
:109B14005C6C030000B585B00346ADF80630084A16
:109B240002AB92E8030083E8030002A9BDF8063003
:109B34000022184600F074FD00BF05B05DF804FB78
:109B4400A86C030046DF704700BF184600B585B017
:109B540001900023039308E0084A039B52F8233042
:109B640001989847039B01330393039B012BF3D97B
:109B740000BF00BF05B05DF804FB00BFB86D030073
:109B840084B00190002303930AE0019A039B1344D9
:109B94001B78002B01D0012306E0039B01330393C0
:109BA400039B0F2BF1D90023184604B0704700B56E
:109BB40083B001900091019B002B02D0009B002BED
:109BC40001D100231BE0019B1B78C3F34603DAB2E7
:109BD400009B1B78C3F34603DBB29A4201D00023F7
:109BE4000DE0019B581C009B0133062219460CF022
:109BF400C6F80346002B0CBF01230023DBB2184632
:109C040003B05DF804FB000030B597B00190019BF0
:109C14001B88102B40F09180019B0AAC1D1D0FCDB9
:109C24000FC40FCD0FC495E8070084E807004FF672
:109C3400FF73ADF856309DF82C3023F00103DBB2EE
:109C4400062B47D000F08EFC9DF82C30C3F346035E
:109C5400DBB2012B02DC002B15DA3BE0022B2ED009
:109C640038E0089B03F111020AAB0433114618468D
:109C7400FFF79DFF0346002B05D0BDF82630ADF855
:109C8400563000BF26E007AA0DF126031946072027
:109C940000F072FC0346002BE3D11BE0089B5A1C26
:109CA4000AAB04331146184600F08FFA0346002B22
:109CB40005D0BDF82630ADF8563000BF09E007AA3C
:109CC4000DF126031946072000F056FC0346002B2D
:109CD400E4D100BFBDF828301946194A0B469B0051
:109CE4000B445B001344BDF856201A80BDF828309D
:109CF4001946134A0B469B000B445B001344023382
:109D04000BAA106818609188927999809A71BDF8AD
:109D140056304FF6FF72934210D0BDF82830ADF89C
:109D24000A30BDF85630ADF80C3000238DF80830F9
:109D340002AB1846FFF70AFF00E000BF17B030BDC2
:109D44000C24002000B587B001900091019B1133D1
:109D54000593009B11330493019B581C009B013312
:109D6400102219460CF00BF80346002B11D1019B6D
:109D740001331846FFF704FF0346002B09D0009B6C
:109D840001331846FFF7FCFE0346002B01D00123E4
:109D940000E000238DF80F309DF80F3003F001032D
:109DA4008DF80F3004990598FFF701FF03468DF8ED
:109DB4000E30059B1B7823F00103DBB2042B16D075
:109DC400059B1B7823F00103DBB2062B0FD0049B09
:109DD4001B7823F00103DBB2042B08D0049B1B780F
:109DE40023F00103DBB2062B01D0012300E00023A2
:109DF4008DF80D309DF80D3003F001038DF80D3012
:109E04009DF80E30002B03D09DF80D30002B0AD1A5
:109E14009DF80F30002B08D09DF80D3083F001031E
:109E2400DBB2002B01D0012300E0002303F0010387
:109E3400DBB2184607B05DF804FB00B587B00190AB
:109E44000B46ADF8023000F08DFB10E0BDF8163083
:109E5400BDF802209A420AD0049B19460198FFF7E4
:109E640071FF0346002B02D0BDF816300BE003AAA5
:109E74000DF116031946072000F07EFB0346002B64
:109E8400E4D14FF6FF73184607B05DF804FB0000F9
:109E940000B583B00346ADF80630BDF80630132B89
:109EA4000AD8BDF806301846FEF7A2FB034683F035
:109EB4000103DBB2002B02D04FF6FF7308E0BDF8BC
:109EC4000620054913469B0013445B000B441B8882
:109ED400184603B05DF804FB0C24002000B583B0E1
:109EE40003460091ADF80630BDF80630132B0AD8AE
:109EF400BDF806301846FEF77BFB034683F00103EA
:109F0400DBB2002B02D043F2020311E0BDF80620BD
:109F14000098094913469B0013445B000B44024616
:109F240002331968116099889B7991809371002399
:109F3400184603B05DF804FB0C24002000B583B080
:109F440001900091019800F089F8034683F0010321
:109F5400DBB2002B01D0002315E0019B1A88009B83
:109F64001B889A4201D000230DE0019B981C009BA2
:109F74000233082219460BF002FF0346002B0CBFE4
:109F840001230023DBB2184603B05DF804FB00B5DF
:109F940087B0019000F0E6FA14E0049B46331946BA
:109FA4000198FFF7CBFF0346002B08D1049B2A330B
:109FB40019460198FFF7C2FF0346002B02D0BDF8F3
:109FC40016300BE003AA0DF116031946072000F022
:109FD400D3FA0346002BE0D14FF6FF73184607B0BF
:109FE4005DF804FB00B585B00346ADF80630BDF856
:109FF40006304FF6FF72934202D14FF6FF7326E00C
:10A004000023ADF80E301CE0BDF80E2012491346B3
:10A014009B0013445B000B441B88BDF806209A4246
:10A024000AD1BDF80E301846FEF7E2FA0346002BBB
:10A0340002D0BDF80E300AE0BDF80E300133ADF8A1
:10A044000E30BDF80E30132BDED94FF6FF731846D1
:10A0540005B05DF804FB00BF0C24002084B001901F
:10A06400019B1B88002B01D0012312E000230393E2
:10A074000BE0019A039B134402331B78002B01D09D
:10A08400012306E0039B01330393039B072BF0D9C1
:10A094000023184604B0704782B003460A46ADF860
:10A0A40006301346ADF80430BDF80630132B0AD839
:10A0B400BDF80620054913469B0013445B000B447E
:10A0C400BDF804201A8000BF02B070470C240020A1
:10A0D40000B585B00346ADF80630BDF80630184625
:10A0E400FFF780FF0346ADF80E30BDF80630184682
:10A0F40000F0A6FE0290029B002B0ED1BDF80E309C
:10A10400132B0AD8BDF80E20064913469B001344AE
:10A114005B000B444FF6FF721A80029B184605B091
:10A124005DF804FB0C24002000B595B00390029167
:10A134000192002313930DE0139BC3F10F03039AC1
:10A144001344197805AA139B13440A461A70139BE7
:10A1540001331393139B0F2BEED905AB10330D2250
:10A16400002118460BF078FE002312930DE0029AAA
:10A17400129B1A44129BC3F10F03127850336B44A1
:10A1840003F82C2C129B01331293129B022BEED951
:10A1940005AB1846FFF7D6FC002311930DE0119B85
:10A1A400C3F10F020199119B0B4450326A4412F817
:10A1B4001C2C1A70119B01331193119B022BEED9A5
:10A1C40000BF00BF15B05DF804FB00B587B0019077
:10A1D4000091019B1B7823F00103DBB2042B01D017
:10A1E40000231FE0019B5A1C05AB1188927819804B
:10A1F4009A70019B1A1D03AB1188927819809A708A
:10A20400009B04AA03A91846FFF78EFF04A905AB17
:10A21400032218460BF0B3FD0346002B0CBF0123A9
:10A224000023DBB2184607B05DF804FB00B585B027
:10A234000190019B4FF6FF725A800023039305E0BF
:10A24400064B01989847039B01330393039B002B10
:10A25400F6D000BF00BF05B05DF804FB99AD020065
:10A2640082B00346ADF80630BDF80630A3F580434E
:10A274009BB2184602B0704782B00346ADF8063070
:10A28400BDF8063003F580439BB2184602B0704710
:10A2940082B003468DF807309DF807309BB2A3F5D2
:10A2A40080439BB2184602B0704782B003468DF8D3
:10A2B40007309DF80730072B17D09DF80730012B86
:10A2C40013D09DF80730082B0FD09DF80730052BCD
:10A2D4000BD09DF80730062B07D09DF80730092BCB
:10A2E40003D09DF80730042B01D1012300E00023A3
:10A2F40003F00103DBB2184602B0704700B589B021
:10A3040003460091ADF8063003AB00221A605A6090
:10A314009A60DA601A6108238DF80C30BDF80630B3
:10A32400ADF81030009B059303AB1846FFF77EFF92
:10A3340000BF09B05DF804FB00B589B0354B0022BD
:10A344001A7001AB0822002118460BF085FD4FF668
:10A35400FF7001F045F80346ADF81E300CE0BDF87F
:10A364001E30184600F08EFFBDF81E30184601F06E
:10A3740037F80346ADF81E30BDF81E304FF6FF72B5
:10A38400934210D0BDF81E301846FFF769FF03460C
:10A39400184601AA03AB194608F06FF8034648F2C1
:10A3A40009629342DBD0BDF81E304FF6FF72934230
:10A3B4002CD0BDF81E301846FFF752FF0346ADF807
:10A3C4001C30BDF81C30184607F0F2FF0690069BBF
:10A3D40048F20762934203D10E4B01221A7015E032
:10A3E400069B002B12D00C4A0C4BD31ADB081B041F
:10A3F40043F00100BDF81E30069A09490AF06FFBCC
:10A40400BDF81E3006991846FFF778FF00BF09B063
:10A414005DF804FBD4240020C8600300006003003E
:10A42400A06F030000B587B003460092ADF8063074
:10A434000B468DF805309DF805301846FFF735FFBB
:10A4440002AB0822002118460BF006FDBDF80630C9
:10A454001846FFF705FF0346ADF816309DF80530A2
:10A464001846FFF715FF0346ADF8143002ABBDF8EC
:10A474001410BDF81600009A07F0D6FF0490049B50
:10A48400002B01D0052300E00023184607B05DF837
:10A4940004FB00B58DB0029201930346ADF80E3073
:10A4A4000B468DF80D30BDF80E30FF2B01D9072374
:10A4B40054E09DF80D301846FFF7F7FE034683F08D
:10A4C4000103DBB2002B01D0072347E006AA9DF865
:10A4D4000D10BDF80E301846FFF7A4FF0B900B9B30
:10A4E400002B01D0052339E004AA06AB1146184617
:10A4F40007F0B0FE0B900B9B002B01D005232DE041
:10A50400029B9DF80D209A70049B5A88029B1A8026
:10A51400019B002B03D1059A029B5A6019E0029B10
:10A524001B889B000A93029B1B889A00019B1B6853
:10A53400934228BF13460993029B5B680599099AC5
:10A5440018460BF057FC099A0A9B9A4201D20C2335
:10A5540004E006AB184607F0BBFE002318460DB016
:10A564005DF804FB08B50822002102480BF074FCD6
:10A5740000BF08BDD824002000B58DB00346029169
:10A5840001928DF80F309DF80F301846FFF78DFEBD
:10A59400034683F00103DBB2002B01D0012338E032
:10A5A4009DF80F301846FFF773FE0346ADF82E30C2
:10A5B40007A9BDF82E30194A184607F04BFF034689
:10A5C400002B01D0002324E005AA07AB114618464E
:10A5D40007F040FE0A900A9B002B01D0002318E0EC
:10A5E400019B9DF80F209A70059B5A88019B1A8045
:10A5F400069A019B5A60059B9B881846FFF73CFE10
:10A6040003461A46029B1A8007AB184607F060FE01
:10A61400012318460DB05DF804FB00BFD8240020C8
:10A6240000B58DB0034602910192ADF80E30BDF82D
:10A634000E30FF2B01D907238AE0029B9B78184632
:10A64400FFF733FE034683F00103DBB2002B01D096
:10A6540007237DE0BDF80E301846FFF701FE0346E0
:10A66400ADF82030029B9B781846FFF711FE034695
:10A67400ADF82230029B5B680993029B1B880A9306
:10A68400029B997805AABDF80E301846FFF7CAFE5A
:10A694000B900B9B052B07D108AA05AB1146184656
:10A6A40007F062FE0B9006E008AA05AB11461846B7
:10A6B40007F069FE0B900B9B002B2BD00B9B48F2F1
:10A6C4000D62934236D80B9B48F20262934231D317
:10A6D4000B9BA3F50643023B0B2B2BD801A252F88C
:10A6E40023F000BF35A7020039A7020039A70200F2
:10A6F40039A7020031A702002DA7020039A70200E2
:10A7040039A7020039A7020039A7020039A70200BD
:10A714002DA70200019B002B04D005AB019918461C
:10A7240007F0BEFE002313E0112311E086230FE09F
:10A7340010230DE0084A094BD31ADB081B0443F02D
:10A744000100BDF80E300B9A05490AF0C8F903233D
:10A7540018460DB05DF804FBC860030000600300F8
:10A764007070030008B54FF6FF7000F053FD034608
:10A77400184608BD00B583B00346ADF80630BDF8F1
:10A784000630FF2B01D9072307E0BDF80630184631
:10A7940000F052FDFFF7D0FD0023184603B05DF82A
:10A7A40004FB00B583B00346ADF80630BDF80630AF
:10A7B400184600F081FD0346184603B05DF804FB1B
:10A7C40000B583B00346ADF80630BDF80630184630
:10A7D40000F0D2FD0346184603B05DF804FB00B553
:10A7E40083B00346ADF80630BDF80630184600F0D5
:10A7F400F7FD0346184603B05DF804FB82B00190F0
:10A80400019B4FF6FF721A80019BFF229A70019BF5
:10A81400FF225A72019A937A23F002039372019AE7
:10A82400937A23F001039372019B00221A72019B15
:10A8340000225A6000BF02B07047000084B0034693
:10A844000091ADF80630009B1B68039319E0104992
:10A85400039A13465B0013449B000B441B88BDF80A
:10A8640006209A420AD1009B039A1A60039A13465F
:10A874005B0013449B00064A134406E0039B013328
:10A884000393039B032BE2D90023184604B07047BB
:10A89400F024002000B585B003460A46ADF8063022
:10A8A40013468DF805300023029302AABDF8063042
:10A8B40011461846FFF7C2FF03900AE0029B0133DA
:10A8C400029302AABDF8063011461846FFF7B6FFF8
:10A8D4000390039B002B17D0039B9B789DF80520C6
:10A8E4009A42EBD1039B9B7A03F00203DBB2002B69
:10A8F400E4D1039B9B7A03F00103DBB2002BDDD18F
:10A90400039B5B68002BD9D1039B184605B05DF807
:10A9140004FB000084B001900023039316E00F4968
:10A92400039A13465B0013449B000B4404331B68D7
:10A93400019A9A4207D1039A13465B0013449B0081
:10A94400064A134406E0039B01330393039B032B42
:10A95400E5DD0023184604B0704700BFF024002052
:10A9640008B5FF214FF6FF70FFF794FF0346184622
:10A9740008BD000000B585B00190002303930CE0EE
:10A98400019B5A7A039BDBB21344DBB21946094894
:10A9940001F0AAF8039B01330393019B1B7A1A4627
:10A9A400039B9342ECD30198FFF728FF00BF05B047
:10A9B4005DF804FBE024002000B583B001900B4651
:10A9C400ADF8023013468DF80130019B002B13D0F3
:10A9D400FFF7C6FF0246019B1A60019B1B68002B10
:10A9E4000CD0019B1B68BDF802201A80019B1B68D8
:10A9F4009DF801209A7002E000BF00E000BF03B0A0
:10AA04005DF804FB00B585B001900023039308E0D2
:10AA1400084A039B52F8233001989847039B01335B
:10AA24000393039B032BF3D900BF00BF05B05DF86C
:10AA340004FB00BF4073030086B0039001921A46E2
:10AA44000B468DF80B301346ADF80830BDF80830CE
:10AA54001A46920013441B01ADF81630039B9DF86F
:10AA64000B209A70039B019A5A60BDF81630033389
:10AA74009B109AB2039B1A8000BF06B0704700B5C2
:10AA840085B00390019200930B468DF80B30009B28
:10AA94009BB29DF80B10019A0398FFF7CDFF00BFFE
:10AAA40005B05DF804FB000082B00190019B9B7827
:10AAB400013B072B27D801A252F823F0E9AA020090
:10AAC4000BAB02000BAB02000BAB02000BAB0200A2
:10AAD400F1AA0200E1AA0200F9AA0200019B1422D1
:10AAE4001A8011E0019B01221A800DE0019B0122D2
:10AAF4001A8009E0019B5B689B8809339B089AB222
:10AB0400019B1A8000E000BF00BF02B0704700BF85
:10AB140010B586B001900023059302AB00221A60A1
:10AB24005A60019B9B788DF80A30019B5B7A194629
:10AB3400404800F0A8FF0490049B002B0ED13E4A2D
:10AB44003E4BD31ADB081B0443F00100019B5B7AE4
:10AB54001A463B4909F0B2FF032367E0019B997849
:10AB6400019B1B7A02A8049AFFF789FF02AB1846DF
:10AB7400FFF79AFF019B1888019B1A1D02AB194627
:10AB8400FFF74EFD0590059B862B2AD0059B862B4F
:10AB940035D8059B112B14D0059B112B2FD8059B61
:10ABA400002B03D0059B072B3ED028E0019A937A13
:10ABB40023F002039372019A937A23F001039372B0
:10ABC40033E0019A937A43F002039372019A937AE1
:10ABD40023F0010393721B4B01221A700023059387
:10ABE40023E0019A937A23F002039372019A937AF1
:10ABF40043F001039372134B01221A7015E00E4ABD
:10AC04000E4BD31ADB081B0443F00104059809F02A
:10AC14006FF903461A46019B1B880B49204609F02D
:10AC24005EFF0323059300E000BF059B184606B0B2
:10AC340010BD00BFE0240020C060030000600300DA
:10AC440030710300202500207071030010B588B016
:10AC540001900198FFF75CFF0790079B002B2BD016
:10AC64004FF6FF73ADF80A30019B1B88ADF80C302A
:10AC7400079B862B03D107238DF8083016E00823A1
:10AC84008DF80830079B04930D4A0E4BD31ADB084A
:10AC94001B0443F00104079809F02AF903461A46F5
:10ACA400019B1B880849204609F019FF02AB18468E
:10ACB400FFF7A8FE002300E00123184608B010BDEA
:10ACC400C060030000600300A071030000B585B0FC
:10ACD40003468DF807302D4B1B7883F00103DBB25C
:10ACE400002B4DD1294B00221A700023039343E01B
:10ACF4002749039A13465B0013449B000B44083313
:10AD04009B78C3F34003DBB2002B0DD12049039A97
:10AD140013465B0013449B000B4408339B78C3F336
:10AD24000003DBB2002B24D0184B01221A701849FF
:10AD3400039A13465B0013449B000B4408339B782F
:10AD4400C3F34003DBB2002B03D19DF80730002B83
:10AD54000FD0039A13465B0013449B000C4A134420
:10AD64001846FFF773FF034683F00103DBB2002BA1
:10AD740008D1039B01330393039B032BB8D902E04F
:10AD840000BF00E000BF05B05DF804FB20250020F3
:10AD9400F024002000B585B0019001238DF80F3018
:10ADA40000238DF80E30019BDB681846FFF7B2FDD7
:10ADB4000290019B1B78142B27D0142B29DC092B20
:10ADC40002D00A2B0BD024E0019B5B7A002B22D10A
:10ADD400029B002B1FD00298FFF7CCFD1BE0019BC8
:10ADE4005B7A002B19D1029B002B16D0029B002208
:10ADF4005A60029A937A43F0020393720F4B012232
:10AE04001A7000238DF80F3007E001238DF80E30FF
:10AE140004E000BF02E000BF00E000BF9DF80F3077
:10AE2400002B02D00198FFF7EDFD9DF80E30184677
:10AE3400FFF74CFF00BF05B05DF804FB20250020A0
:10AE440030B589B00346ADF80E300023059305AA4A
:10AE5400BDF80E3011461846FFF7F0FC079032E0BB
:10AE6400079B9A78BDF80E301146184600F010F989
:10AE74000690069B002B1BD0069B052B18D0254A59
:10AE8400254BD31ADB081B0443F00104069809F090
:10AE94002FF803461946BDF80E20079B9B780093B4
:10AEA40013460A461D49204609F02DFE03232EE0D1
:10AEB400059B0133059305AABDF80E3011461846CB
:10AEC400FFF7BCFC0790079B002BC9D1BDF80E30DF
:10AED4001846FFF74FFC0690069B002B02D0069BFA
:10AEE400072B01D1069B12E00A4A0B4BD31ADB084D
:10AEF4001B0443F00104BDF80E50069808F0F8FF57
:10AF040003462A460649204609F0E9FD032318466C
:10AF140009B030BDC060030000600300207203006C
:10AF24007872030000B583B003460092ADF8063092
:10AF34000B468DF805309DF80510BDF8060000237A
:10AF4400009AFFF7A6FA0346184603B05DF804FB1F
:10AF540010B588B0029201930346ADF80E300B464B
:10AF64008DF80D30019B002B01D10E2385E09DF857
:10AF74000D30072B05D09DF80D30082B01D0072389
:10AF84007BE0029B002B02D0029B042B01D90723F8
:10AF940073E000238DF81F309DF80D20BDF80E30AE
:10AFA40011461846FFF776FC03460593059B002BD4
:10AFB4000CD19DF80D20BDF80E1005AB1846FFF717
:10AFC400FBFC059B002B09D1112356E0059B1B7A42
:10AFD4001A46029B934201D00F234EE0059B5B7AF5
:10AFE400FF2B13D1059C0299254800F0E8FC034689
:10AFF4006372059B5B7AFF2B05D1059B1846FFF70F
:10B00400FDFB112339E001238DF81F30059B029AC3
:10B01400D2B21A72059B5B7A1946194800F033FDC7
:10B024000690069B002B0ED1164A174BD31ADB0849
:10B034001B0443F00100059B5B7A1A46134909F08F
:10B044003DFD032319E0029B9BB29DF80D10069A67
:10B054000198FFF7F1FC9DF81F30002B0CD09DF8F0
:10B064000D30082B08D1019B1B889B009AB2019BD1
:10B074005B68063A92B29A800023184608B010BD65
:10B08400E0240020C060030000600300CC720300D1
:10B0940000B585B003460A46ADF8063013468DF870
:10B0A40005309DF80520BDF8063011461846FFF717
:10B0B400F1FB0390039B002B01D1052303E00398CC
:10B0C400FFF758FC0023184605B05DF804FB00B5F3
:10B0D40085B00346ADF806300B468DF805301346AF
:10B0E400ADF802309DF80530072B05D09DF80530EA
:10B0F400082B01D0072326E0BDF802301846FFF7DD
:10B1040050FB034683F00103DBB2002B01D007237D
:10B1140019E09DF80520BDF8063011461846FFF7E2
:10B12400B9FB0390039B002B01D105230BE0039B88
:10B13400BDF802201A80039B9DF805209A7003989D
:10B14400FFF7E6FC0346184605B05DF804FB00B5BE
:10B1540085B003460091ADF806304FF6FF73ADF8A5
:10B164000E30BDF806304FF6FF72934211D14FF402
:10B174008071009807F0FAFA0346ADF80E30BDF876
:10B184000E30B3F5807F2AD14FF6FF73ADF80E3041
:10B1940025E0BDF80630FF2B21D8BDF8063019464E
:10B1A400009807F08EFA0346002B14BF01230023F6
:10B1B400DBB283F00103DBB28DF80D309DF80D3066
:10B1C40003F001038DF80D309DF80D30002B02D0F3
:10B1D400BDF8063001E04FF6FF73ADF80E30BDF850
:10B1E4000E30184605B05DF804FB00B583B0034685
:10B1F4000091ADF80630BDF80630FF2B05D8BDF838
:10B2040006301946009807F080FA00BF03B05DF8D5
:10B2140004FB000000B583B00346ADF80630BDF86A
:10B22400063004491846FFF792FF0346184603B058
:10B234005DF804FB2425002000B585B00346ADF875
:10B244000630BDF806304FF6FF72934201D1002359
:10B2540011E0BDF806300A491846FFF778FF0346A7
:10B26400ADF80E30BDF80E20BDF806309A420CBF82
:10B2740001230023DBB2184605B05DF804FB00BFD0
:10B284004425002000B583B00346ADF80630BDF870
:10B29400063007491846FFF7A8FFBDF806300549F0
:10B2A4001846FFF7A2FF00BF03B05DF804FB00BF20
:10B2B400242500204425002000B583B00346ADF8C2
:10B2C4000630BDF80630FF2B07D8BDF80630194606
:10B2D400044807F033FA034600E00023184603B09D
:10B2E4005DF804FB2425002000B583B00346ADF8C7
:10B2F4000630BDF80630FF2B07D8BDF806301946D6
:10B30400044807F01BFA034600E00023184603B084
:10B314005DF804FB4425002000B585B00346009188
:10B32400ADF80630BDF806304FF6FF72934204D0F4
:10B33400BDF8063001339BB200E00023ADF80E30B7
:10B3440010E0BDF80E301946009807F0F7F90346EF
:10B35400002B02D0BDF80E300AE0BDF80E300133E8
:10B36400ADF80E30BDF80E30FF2BEAD94FF6FF735F
:10B37400184605B05DF804FB00B583B00346ADF88C
:10B384000630BDF8063015491846FFF7C5FF0346D9
:10B39400ADF8063016E0BDF806301846FFF7A4FFF6
:10B3A400034683F00103DBB2002B02D0BDF8063064
:10B3B40010E0BDF8063009491846FFF7ADFF034613
:10B3C400ADF80630BDF806304FF6FF729342E2D175
:10B3D400BDF80630184603B05DF804FB24250020B0
:10B3E40000B583B00346ADF80630BDF80630044915
:10B3F4001846FFF791FF0346184603B05DF804FBB7
:10B404004425002000B585B001900023039308E093
:10B41400094A039B52F8233001989847039B013350
:10B424000393064B1B781A46039B9342F0DB00BF41
:10B4340000BF05B05DF804FB7425002080250020C2
:10B4440000B583B0002300221049114800F0BCF974
:10B454000190019B052B06D10D4B4FF6FF721A800C
:10B464000A4B00221A60019B002B02D0019B052B82
:10B4740001D1012300E0002303F00103DAB2054BFC
:10B484001A7000BF03B05DF804FB00BF6C250020F8
:10B49400702500206525002000B58FB001900123A0
:10B4A4008DF83730019B9B881846FEF79BFD0346B9
:10B4B4001A46019B5A80019B1B78093B032B00F21F
:10B4C400D58001A252F823F0DDB4020069B5020070
:10B4D4009FB5020025B60200019B5B7A002B28D1A0
:10B4E4006C4B1B68002B10D0019BDA68694B1B68FE
:10B4F4009A420AD1674B00221A60019B9A88664BD4
:10B504001A80019B0022DA60B2E0644B1B78002BA6
:10B5140000F0AE80019B9A885F4B1B889A4240F0F2
:10B52400A780019B1B7A062B40F0A280FFF788FFBF
:10B534009EE0019B5B7A012B40F09A80574B1B786D
:10B54400002B00F09580019B9A88534B1B889A42EC
:10B5540040F08E80019B1B7A062B40F08980FFF718
:10B564006FFF85E0019B5B7A002B40F08380494BA1
:10B574001B68002B7ED0019BDA68464B1B689A42FD
:10B5840078D1444B00221A60454B1B68013B444A66
:10B594001360019B0022DA606CE0424B1B78002BA5
:10B5A40031D04FF6FF70FFF70BF903461A464FF6FA
:10B5B400FF739A4227D14FF6FF70FFF710F9034645
:10B5C4001A464FF6FF739A421DD1364B00221A7069
:10B5D40008AB1422002118460AF03EFC0D238DF816
:10B5E40020304FF6FF73ADF824304FF6FF73ADF8FB
:10B5F400223000238DF837300198FFF703FF08ABA2
:10B604001846FFF7FFFE254B1B78002B34D0019B17
:10B614009A88214B1B889A422ED1FFF711FF2BE009
:10B62400204B1B78002B29D01E4B00221A7003AB31
:10B634001422002118460AF00FFC0E238DF80C305A
:10B644004FF6FF73ADF810304FF6FF73ADF80E30C0
:10B65400019B9B68059300238DF837300198FFF711
:10B66400D1FE03AB1846FFF7CDFE07E000BF06E0AE
:10B6740000BF04E000BF02E000BF00E000BF9DF88F
:10B684003730002B02D00198FFF7BCFE00BF0FB08B
:10B694005DF804FB68250020702500206525002046
:10B6A4006C2500206625002000B583B00190019B25
:10B6B400002B02D00198FFF7A5FE03B05DF804FB50
:10B6C40000B583B001900198FFF79CFE00BF03B062
:10B6D4005DF804FB00B583B001900198FFF792FE7A
:10B6E40000BF03B05DF804FB00B583B0019001987E
:10B6F400FFF788FE00BF03B05DF804FB00B58BB014
:10B704000190019B9B88ADF82630019B1B88102B70
:10B7140029D100238DF80F3004AB142200211846E0
:10B724000AF09AFB01238DF810304FF6FF73ADF841
:10B734001430BDF82630ADF81230019B083306935F
:10B744000DF10F03079304AB1846FFF75BFE0C4B98
:10B7540019789DF80F20BDF826301846FDF738F803
:10B764009DF80F3008E0064B1A78BDF826301146D4
:10B774001846FCF7FDFF034618460BB05DF804FBC2
:10B784008022002000B583B0019000910D4B1B78FE
:10B7940083F00103DBB2002B10D10198FFF7AEFF59
:10B7A4000346002B09D10198FEF72EFA019801F007
:10B7B40037FC0198FDF792FD00E000BF03B05DF88F
:10B7C40004FB00BF6425002010B58EB003900291E5
:10B7D40001920093554B1B7883F00103DBB2002BDD
:10B7E40001D008239EE04FF6FF70FEF7E9FF034601
:10B7F400ADF83630002308930423079305AB0022E9
:10B804001A605A6008AB069307AB05AABDF8360068
:10B814000621FEF73EFE0C9000230B934FF0FF33FE
:10B824000A934FF6FF73ADF826304FF6FF73ADF869
:10B8340024300C9B072B28D1052373E00C9B002B91
:10B8440013D1089B0B9A9A4205D8089B0B93BDF819
:10B854003630ADF82630089B0A9A9A4205D9089BDF
:10B864000A93BDF83630ADF82430BDF836301846AA
:10B87400FEF7A6FF0346ADF8363007AB05AABDF8C0
:10B8840036000621FEF705FE0C900C9B002BD5D04C
:10B894000C9B052BD2D0BDF836304FF6FF72934285
:10B8A4002BD1BDF826304FF6FF72934205D0BDF878
:10B8B40024304FF6FF72934202D105230C9301E02A
:10B8C40000230C93039B002B03D0039BBDF826207D
:10B8D4001A80029B002B02D0029B0B9A1A60019BD8
:10B8E400002B03D0019BBDF824201A80009B002B61
:10B8F40017D0009B0A9A1A6013E00D4A0D4BD31A15
:10B90400DB081B0443F001040C9808F0F1FA034629
:10B914001A46BDF836300849204609F0E0F80323FA
:10B924000C930C9B18460EB010BD00BF642500207C
:10B9340098600300006003000C75030000B585B037
:10B94400019000910099019806F0BBFE0346002B7C
:10B9540014BF01230023DBB283F00103DBB28DF8B3
:10B964000F309DF80F3003F001038DF80F30BFF353
:10B974005F8F00BF9DF80F30184605B05DF804FBDB
:10B9840000B583B001900091BFF35F8F00BF0099B1
:10B99400019806F0BAFE00BF03B05DF804FB00B5E1
:10B9A40083B001900091BFF35F8F00BF00990198AD
:10B9B40006F0C4FE0346184603B05DF804FB00B568
:10B9C40085B001900091019B002B07D0019B1B685F
:10B9D400002B03D0019B5B68002B01D1FF234EE0B9
:10B9E400FF238DF80F3000238DF80E3040E0019BCB
:10B9F4005B689DF80E2011461846FFF79FFF03462B
:10BA0400002B13D09DF80F30FF2B03D19DF80E307F
:10BA14008DF80F309DF80E209DF80F30D31A0133A6
:10BA2400009A9A421FD19DF80F3028E09DF80F30FC
:10BA3400FF2B18D09DF80F308DF80D300AE09DF8DB
:10BA44000D301946019800F04FF89DF80D30013380
:10BA54008DF80D309DF80D209DF80E309A42EED3EE
:10BA6400FF238DF80F309DF80E3001338DF80E3022
:10BA74009DF80E20019B9B689A42B8D3FF23184679
:10BA840005B05DF804FB00B583B001900B468DF85A
:10BA94000330019B002B07D0019B1B68002B03D0B4
:10BAA400019B5B68002B01D1002319E09DF8033052
:10BAB400FF2B14D0019B5B689DF8032011461846A8
:10BAC400FFF76DFF0346002B09D0019B1A689DF810
