:020000022000DC
:106000000000012019620200016202000362020026
:10601000056202000762020009620200000000003F
:106020000000000000000000000000000B62020001
:106030000D620200000000000F6202001162020007
:106040005DE1020013620200F5E6020055F5020070
:106050006DF5020013620200F1E502001362020016
:10606000D9730300F173030013620200136202008C
:106070001362020013620200136202001362020044
:1060800013620200A92103001362020013620200DE
:1060900013620200136202003971030013620200EE
:1060A0001362020013620200136202001362020014
:1060B00013620200136202000000000000000000F2
:1060C00013620200136202001362020013620200F4
:1060D000136202001362020013620200000000005B
:1060E00000000000000000000000000000000000B0
:1060F00000000000000000000000000000000000A0
:10610000000000000000000000000000000000008F
:10611000000000000000000000000000000000007F
:10612000000000000000000000000000000000006F
:10613000000000000000000000000000000000005F
:10614000000000000000000000000000000000004F
:10615000000000000000000000000000000000003F
:10616000000000000000000000000000000000002F
:10617000000000000000000000000000000000001F
:10618000000000000000000000000000000000000F
:1061900000000000000000000000000000000000FF
:1061A00000000000000000000000000000000000EF
:1061B00000000000000000000000000000000000DF
:1061C00000000000000000000000000000000000CF
:1061D00000000000000000000000000000000000BF
:1061E00000000000000000000000000000000000AF
:1061F000000000000000000000000000000000009F
:10620000FEE7FEE7FEE7FEE7FEE7FEE7FEE7FEE766
:10621000FEE7FEE700F002B8FFF7FCBF0F484FF0C3
:106220000701884385460E4880470E48016841F4BF
:1062300070010160BFF34F8FBFF36F8F00F01AB88A
:1062400009480A490A4A884207D0521A05D00378F9
:1062500001300B700131013AF9D170470000012083
:10626000F182020088ED00E0DC770300602200206C
:10627000742200203A493B480A1A02D0072291436F
:106280008D46394939480A1A06D00722914381F3CD
:106290000988022282F3148835483649364A00F0CC
:1062A00041F836483649374A00F03CF83648374915
:1062B000374A00F037F837483749384A00F032F8A3
:1062C00037483849384A00F02DF838483849394AB3
:1062D00000F028F838483949394A00F023F839489D
:1062E0003949002200F036F838483949002200F0D8
:1062F00031F838483849091A11F099F8374A904767
:1063000025482649884205D00268043003B49047E6
:1063100003BCF7E700208646EC4600200021304A07
:106320009047FEE7884214D0521A12D003460B431E
:1063300013430324234206D1036804300B60043165
:10634000043AF9D17047037801300B700131013AFA
:10635000F9D17047884202D002700130FAE77047E5
:106360000000012000E000200000012000000120CA
:1063700004BF0300742200200C230020E463020009
:10638000E46302005676030004BF03007422002079
:1063900074220020F0770300F0770300F077030009
:1063A000F0770300F0770300F0770300F077030045
:1063B000F077030001BF03009CBF03000C23002003
:1063C0000C2300200C2300208C5300208C53002031
:1063D0008C5300208C5300208C73002041620200FB
:0463E000E56302006F
:1063E4002DE9F04F4FF4004189B000200FF034FB49
:1063F400002840F096800FF0B1FA032000F0F6F97F
:10640400DFF8588100F076FF00F0A8FF4A4B4B49B3
:10641400A8EB03084FEAD8084FEA084848F00306F7
:1064240030460FF0EBFD01F0FBFA002872D144492D
:1064340048F001000FF0E2FD0BF022F9002875D1BD
:10644400404D414F0023CDE90533079345F0010545
:1064540000F01AFB01F08EFB01F040F870B93946E8
:1064640030460FF0CBFD4FF47A744FF47A40A847CE
:10647400013CFAD101F032F80028F0D03349344F0E
:10648400DFF8DCB0DFF8DCA0DFF8DC9030460FF09A
:10649400B5FD48F0020801F079FB0DF1120204A9E0
:1064A4000DF10E0001F02AFB78B3BDF91230009310
:1064B400BDF90E20BDF91030514630460FF0D1FD24
:1064C40006AA05A907A801F0E4F8C8B1DDED077A2A
:1064D400B8EE670A00F040FB3B88834201D000B16C
:1064E40038800A244FF47A40A847013CFAD10FF0CF
:1064F4000FFE0028CFD00FF00BFE0028F7D1CAE71B
:10650400494630460FF07AFDEBE7594640460FF016
:1065140075FDD5E701F02EFB0E4930460FF06EFDF8
:106524008AE70D4ABB210AF0FBFC64E70A4ADB2137
:106534000AF0F6FC84E700BFC47603006878030021
:106544008478030060790300B0780300DC780300EA
:106554000C230020A0780300F0770300FC760300EE
:1065640024790300007903003879030000B583B06F
:106574000190019B1B68184600F0B5F80346002BF8
:1065840004D105494FF4F6700DF072F94FF0A043B1
:10659400184603B05DF804FB6879030000B585B0C4
:1065A4000190084611461A4603468DF803300B46FF
:1065B4008DF8023013468DF8013001AB1846FFF711
:1065C400D5FF03909DF803209DF802305B001A4329
:1065D4009DF801309B001A439DF818301B0242EAD3
:1065E40003019DF81C301B04019A1943039B02F517
:1065F400E07243F8221000BF05B05DF804FB00B55B
:1066040085B003900023019300230093002301220B
:1066140001210398FFF7C2FF00BF05B05DF804FB3A
:1066240000B585B003900B468DF80B309DF80B3008
:106634000022019200220092002200210398FFF719
:10664400ADFF00BF05B05DF804FB00B585B0019057
:1066540001AB1846FFF78AFF0390019B012202FA5F
:1066640003F31946039800F02AF800BF05B05DF85B
:1066740004FB00B585B0019001AB1846FFF776FF27
:106684000390019B012202FA03F31946039800F0D8
:1066940020F800BF05B05DF804FB00B583B001909D
:1066A4000091009B002B03D10198FFF7E2FF02E069
:1066B4000198FFF7CAFF00BF03B05DF804FB82B086
:1066C40001900091019B009AC3F8082500BF02B015
:1066D400704782B001900091019B009AC3F80C2589
:1066E40000BF02B0704784B00190019B5B09029324
:1066F40000230393029B002B03D14FF0FF3303933A
:1067040000BF019B03F01F030193039A019B22FA2C
:1067140003F303F00103002B14BF01230023DBB2B6
:10672400184604B07047000000B583B00190019B87
:10673400032B03D9074947200DF09AF8064A019B19
:1067440013441B7801211846FFF7A7FF00BF03B0CD
:106754005DF804FB98790300047A030000B583B064
:106764000023019305E00198FFF7DEFF019B01334D
:106774000193019B032BF6D900BF00BF03B05DF862
:1067840004FB000000B583B00023019309E0094A2B
:10679400019B13441B781846FFF731FF019B01331B
:1067A4000193019B032BF2D9FFF7D8FF00BF03B07D
:1067B4005DF804FB047A030000B583B00023019361
:1067C4000AE0094A019B13441B7803211846FFF78A
:1067D40027FF019B01330193019B032BF1D900BFD8
:1067E40000BF03B05DF804FB087A030000B583B072
:1067F4000190019B03F00103002B01D0FFF7C2FFBE
:10680400019B03F00203002B01D0FFF7D5FF00BF6B
:1068140003B05DF804FB000084B001900B468DF8D2
:10682400033013468DF8023000230393019B032B9E
:106834003CD89DF80230012B0BD19DF80330012B7D
:1068440004D1019BDBB20E33DBB200E000238DF8F0
:1068540002309DF80330022B0FD0022B23DC002BD7
:1068640016D0012B1FD11449019A13465B0013441F
:106874000B449DF802201A701AE00F49019A13463E
:106884005B0013440B4401339DF802201A700FE09F
:106894000949019A13465B0013440B4402339DF8E3
:1068A40002201A7004E00723039301E007230393F3
:1068B400039B184604B070471023002000B583B032
:1068C400012200210020FFF7A7FF0190019B002B6C
:1068D40004D0019B072B01D0019B1CE0072202215D
:1068E4000120FFF799FF0190019B002B04D0019B2D
:1068F400072B01D0019B0EE0042202210020FFF7A8
:106904008BFF0190019B002B04D0019B072B01D02E
:10691400019B00E00023184603B05DF804FB00B5BA
:1069240083B0012202210020FFF776FF0190019B32
:10693400002B04D0019B072B01D0019B1CE00722F4
:1069440002210120FFF768FF0190019B002B04D076
:10695400019B072B01D0019B0EE00A22002100209D
:10696400FFF75AFF0190019B002B04D0019B072BDA
:1069740001D0019B00E00023184603B05DF804FB3E
:1069840000B585B001900091019B1B88102B02D0AB
:10699400112B18D02FE01A4B1B68002B0DD1FFF7D9
:1069A4008DFF0390039B002B07D0164B1B68002B15
:1069B40003D0144B1B6803989847114B1B68013391
:1069C4000F4A136017E00E4B1B68013B0C4A13601F
:1069D4000B4B1B68002B0DD1FFF7A1FF0390039B0A
:1069E400002B07D0074B1B68002B03D0054B1B68FB
:1069F4000398984700BF00BF05B05DF804FB00BFD3
:106A0400202300201C23002000B583B001900091B6
:106A1400019B1B78022B19D0022B26DC002B02D001
:106A2400012B04D021E0134B01221A701EE0124AFC
:106A3400124BD31ADB081B0443F003031049184616
:106A44000FF0DCFA0B4B01221A700FE00A4A0B4BD1
:106A5400D31ADB081B0443F003030A4918460FF05A
:106A6400CDFA044B01221A7000E000BF00BF03B04E
:106A74005DF804FB24230020FC760300C4760300A5
:106A84001C7A0300307A030000B583B0244A254BF6
:106A9400D31ADB081B0443F00303234918460FF001
:106AA400ADFA224B00221A60214B00221A80214B9E
:106AB40000221A60204B00221A700023ADF8063021
:106AC4000CE0BDF806301D4A9B0013444FF0000251
:106AD4001A60BDF806300133ADF80630BDF8063053
:106AE400632BEED9164B4FF000021A60154B164A71
:106AF4001A60164B4FF000021A60124B1B68144ABE
:106B04001360074A074BD31ADB081B0443F0030343
:106B1400104918460FF072FA00BF03B05DF804FB89
:106B2400FC760300C4760300407A03002823002087
:106B34002C23002030230020382300204023002071
:106B4400D42400207422002000803B463C230020F3
:106B540034230020647A030010B590B08DED030A4D
:106B64009A4A9B4BD31ADB081B0443F0030399494D
:106B740018460FF043FA984B1B680133964A13608A
:106B8400924A934BD31ADB081B0443F00303924A43
:106B94001268924918460FF03FFA9DED030A10F06F
:106BA40031FC0346002B06D19DED030A10F032FCA4
:106BB4000346002B0DD1854A854BD31ADB081B04F1
:106BC40043F00103864918460FF018FA854B1B88D9
:106BD400FEE2DDED037A9FED847A27EE877A834B1C
:106BE400D3ED007ADFED826A67EEA67A77EE277A34
:106BF4007E4BC3ED007A7D4BD3ED007AB0EE670A8D
:106C040010F000FC0346002B09D1784BD3ED007A39
:106C1400B0EE670A10F0FEFB0346002B0DD16B4A61
:106C24006B4BD31ADB081B0443F00103714918466C
:106C34000FF0E4F96D4B704A1A60704B93ED007AD3
:106C44006A4BD3ED007A37EE277A6D4BD3ED007A99
:106C540077EE677AB6EE007A67EE877A674BC3ED14
:106C6400007A664BD3ED007AB0EE670A10F0CAFBE7
:106C74000346002B09D1614BD3ED007AB0EE670ACD
:106C840010F0C8FB0346002B12D1504A504BD31AC4
:106C9400DB081B0443F001035A4918460FF0AEF910
:106CA400564B4FF000021A60504B1B68544A136055
:106CB400464A474BD31ADB081B0443F003004F4BEF
:106CC400D3ED007AF5EEC07AF1EE10FA0BD54B4B0A
:106CD400D3ED007ABFEE007AF4EEC77AF1EE10FA43
:106CE40001DD494A00E0494A444BD3ED007AFDEE08
:106CF400E77A17EE901A414BD3ED007AF5EEC07A9D
:106D0400F1EE10FA0CDD3D4B93ED007A3B4BD3EDE5
:106D1400007AFDEEE77AF8EEE77A77EE677A0BE031
:106D2400364BD3ED007AFDEEE77AB8EEE77A334BD3
:106D3400D3ED007A77EE677A9FED357A67EE877A3E
:106D4400FDEEE77A17EE903A00930B4631490FF0C7
:106D540088F9264B1B682A4A1360284B93ED007A66
:106D64002D4BD3ED007A77EE677ACDED047A9DED65
:106D7400040A10F047FB0346002B06D19DED040ADC
:106D840010F048FB0346002B0DD1104A104BD31AC8
:106D9400DB081B0443F00103204918460FF02EF9C9
:106DA4004FF000030493154B1B681B4A1360002328
:106DB4008DF81730DDED047AF5EEC07AF1EE10FAB5
:106DC4002EDD01238DF8173034E000BFFC7603007C
:106DD400C4760300887A030028230020A87A0300DD
:106DE400C87A03002C230020CDCC4C3D7422002013
:106DF4003333733F047B030000803B463C23002075
:106E040034230020447B0300847B0300887B03003D
:106E14000000C8428C7B0300D8240020B07B030010
:106E2400DDED047AF5EEC07AF1EE10FA02D5FF2317
:106E34008DF8173000238DF827309C4B93ED007AA2
:106E44009B4B1B889B4A9B001344D3ED007A77EE3F
:106E5400677A964BC3ED007A954B1B881846964B80
:106E64001A68944983000B441A60904B93ED007A9E
:106E7400914BD3ED007A77EE277A8C4BC3ED007AF1
:106E84008B4B1B8801338D4A82FB03125111DA1795
:106E94008A1A642101FB02F29A1A92B2844B1A8074
:106EA400824B93ED007ADFED866AC7EE267ACDED4C
:106EB400067A9DED060A10F0A5FA0346002B06D1CA
:106EC4009DED060A10F0A6FA0346002B26D17D4A52
:106ED4007D4BD31ADB081B0443F001037B4918469E
:106EE4000FF08CF84FF000030693704B4FF0000244
:106EF4001A600023ADF81E300CE0BDF81E306D4A58
:106F04009B0013444FF000021A60BDF81E30013399
:106F1400ADF81E30BDF81E30632BEED94FF00003E0
:106F24000E930023ADF836301BE0BDF83630614ACD
:106F34009B00134493ED007ADDED067A77EE677AD1
:106F4400CDED0F7ADDED0F7A67EEA77A9DED0E7A1F
:106F540077EE277ACDED0E7ABDF836300133ADF8F1
:106F64003630BDF83630632BDFD9DDED0E7ADFED38
:106F7400546A87EEA67AB0EE470A10F053FA8DED04
:106F8400080A9DED080A10F03DFA0346002B06D1CD
:106F94009DED080A10F03EFA0346002B0DD1494A34
:106FA400494BD31ADB081B0443F001034849184634
:106FB4000FF024F84FF000030893DDED087A9FEDFD
:106FC400457A67EE877A9DED067A77EE277ACDEDDE
:106FD4000A7A9DED0A0A10F015FA0346002B06D131
:106FE4009DED0A0A10F016FA0346002B0CD1354A1F
:106FF400354BD31ADB081B0443F00103364918460A
:107004000EF0FCFF069B0A93344B93F90030002BDF
:1070140040F385809DF91730002B80F28080264B49
:10702400D3ED007A9DED0A7AB4EEE77AF1EE10FA28
:1070340075D501238DF82730224A234BD31ADB0858
:107044001B0443F00300264B1A681B4BD3ED007A54
:10705400F5EEC07AF1EE10FA0BD5174BD3ED007AAA
:10706400BFEE007AF4EEC77AF1EE10FA01DD1D4BA3
:1070740000E01D4B1049D1ED007AFDEEE77A17EEE2
:10708400904A0D49D1ED007AF5EEC07AF1EE10FA8E
:107094002CDD094991ED007A0749D1ED007AFDEE26
:1070A400E77AF8EEE77A77EE677A2BE0D4240020CB
:1070B400D0240020402300203C2300201F85EB51D6
:1070C4000000C842FC760300C4760300F47B03008E
:1070D400407C03009A99993F8C7C0300382300205C
:1070E40028230020847B0300887B03003A49D1EDE8
:1070F400007AFDEEE77AB8EEE77A3749D1ED007A07
:1071040077EE677A9FED357A67EE877AFDEEE77A58
:1071140017EE901A0191009431490EF0B8FF314AEC
:107124009DF8173013709DF82730002B50D02E4B4C
:107134001A682E4B1B68D31A0B932B4B1B682B4AD4
:1071440013600B9A13469B0013445B000C930C9B37
:10715400B3F5967F39D30C9B40F2DC52934234D87A
:107164004EF660220C9BB2FBF3F39AB2204B1A80CA
:10717400204A214BD31ADB081B0443F003031C4AA7
:1071840012881E4918460EF047FF00F0BEFA034667
:1071940083F00103DBB2002B0BD0164A164BD31A33
:1071A400DB081B0443F00103154918460EF026FFC3
:1071B4000BE0104A104BD31ADB081B0443F0020304
:1071C4000C9A104918460EF027FF094B1B88FFE75D
:1071D400184610B010BD00BF3C2300200000C84278
:1071E400E07C0300382300202823002030230020E3
:1071F4002C230020FC760300C4760300147D0300D6
:10720400307D03005C7D030000B585B00190019BD7
:10721400002B0AD0074B43F001030393019B9B010E
:107224000293039B0298984700E000BF05B05DF805
:1072340004FB00BF307E030000B583B00190019BC6
:107244000433184607F054FD00BF03B05DF804FB97
:1072540000B589B0059003921A460B468DF8133099
:1072640013468DF8123000230793059B181D9DF8D3
:1072740012209DF813109DF8283000931346039AAA
:1072840008F07CF80790079B184609B05DF804FBEA
:1072940000B587B0039001921A460B468DF80B3067
:1072A40013468DF80A3000230593039B181D9DF89F
:1072B4000A309DF80B10019A08F088F80590059B98
:1072C400184607B05DF804FB00B583B00190019B3C
:1072D400002B0AD04FF47A70FFF796FF019B013B15
:1072E4000193019B002BF5D100E000BF03B05DF8D2
:1072F40004FB000000B587B06B4600221A605A6098
:107304009A60DA601B2300931A2301934FF0CD6334
:10731400029302238DF80C3001238DF80D30694659
:1073240000230B4A0B4806F0AFFC0590059B049321
:10733400049B002B04D0084A1E21049809F0F0FD98
:107344000448FFF779FF00BF07B05DF804FB00BFF6
:107354000D6A02000C7A0300807D030000B585B03D
:107364001C4A1D4BD31ADB081B0443F003031B49BF
:1073740018460EF043FE01238DF80F3021E09DF8EE
:107384000F1000230093002300221548FFF760FF2D
:107394000290029B002B0CD10E4A0F4BD31ADB0830
:1073A4001B0443F003039DF80F200E4918460EF00A
:1073B40033FE0220FFF788FF9DF80F3001338DF86C
:1073C4000F309DF80F307E2BD9D900BF00BF05B018
:1073D4005DF804FBFC760300C4760300F07D030033
:1073E4000C7A0300007E030000B587B003460A460A
:1073F4008DF80F3013468DF80E309DF80F308DF850
:1074040010309DF80E308DF811300F4B00221A7099
:1074140004AA00230093022357210C48FFF718FF06
:10742400059000BF084B1B78DBB283F00103DBB28D
:10743400002BF7D1059B002B0CBF01230023DBB2EB
:10744400184607B05DF804FB242300200C7A0300DF
:1074540000B587B0034602918DF80F3013468DF8BE
:107464000E301C4B00221A700DF10F020123009301
:10747400012357211848FFF7EBFE059000BF154B79
:107484001B78DBB283F00103DBB2002BF7D1059B41
:10749400002B01D0002319E00E4B00221A709DF836
:1074A4000E30029A57210C48FFF7F2FE059000BFF8
:1074B400084B1B78DBB283F00103DBB2002BF7D15E
:1074C400059B002B0CBF01230023DBB2184607B039
:1074D4005DF804FB242300200C7A030000B583B07C
:1074E40001238DF8073040210920FFF77DFF034673
:1074F4001A469DF807301340002B14BF01230023C4
:107504008DF807306420FFF7DFFE00210420FFF729
:107514006BFF03461A469DF807301340002B14BF37
:10752400012300238DF8073000210520FFF75CFFBD
:1075340003461A469DF807301340002B14BF01235D
:1075440000238DF8073000210620FFF74DFF034686
:107554001A469DF807301340002B14BF0123002363
:107564008DF807301F210820FFF73EFF03461A4617
:107574009DF807301340002B14BF012300238DF81E
:10758400073007210920FFF72FFF03461A469DF80D
:1075940007301340002B14BF012300238DF807305C
:1075A40047210A20FFF720FF03461A469DF80730BB
:1075B4001340002B14BF012300238DF80730012151
:1075C4000C20FFF711FF03461A469DF807301340BD
:1075D400002B14BF012300238DF8073001210D2057
:1075E400FFF702FF03461A469DF807301340002BAD
:1075F40014BF012300238DF807307F210E20FFF7ED
:10760400F3FE03461A469DF807301340002B14BFBF
:10761400012300238DF8073020210F20FFF7E4FE1B
:1076240003461A469DF807301340002B14BF01236C
:1076340000238DF8073021238DF8063003238DF8BD
:1076440005309DF8063019461120FFF7CDFE03469C
:107654001A469DF807301340002B14BF0123002362
:107664008DF807309DF8053019461220FFF7BCFE4F
:1076740003461A469DF807301340002B14BF01231C
:1076840000238DF807309DF80730184603B05DF8E5
:1076940004FB00B589B003900291019205AB092265
:1076A40019460720FFF7D4FE034683F00103DBB23B
:1076B400002B01D0002324E09DF814301A049DF817
:1076C40015301B0213439DF816201A43029B1A60BF
:1076D4009DF817301A049DF818301B0213439DF8C7
:1076E40019201A43019B1A609DF81A301A049DF858
:1076F4001B301B0213439DF81C201A43039B1A6082
:107704000123184609B05DF804FB00B583B00123DA
:107714008DF8073000210420FFF766FE03461A4661
:107724009DF807301340002B14BF012300238DF86C
:10773400073000210520FFF757FE03461A469DF83F
:1077440007301340002B14BF012300238DF80730AA
:1077540000210620FFF748FE03461A469DF807302D
:107764001340002B14BF012300238DF807309DF82C
:107774000730184603B05DF804FB000000B585B07F
:107784000190019B002B0AD0074B43F001030393A4
:10779400019B9B010293039B0298984700E000BF62
:1077A40005B05DF804FB00BFF07E030000B589B0AE
:1077B400059003921A460B468DF8133013468DF844
:1077C400123000230793059B181D9DF812209DF885
:1077D40013109DF8283000931346039A07F0CEFD4A
:1077E4000790079B184609B05DF804FB00B587B005
:1077F400039001921A460B468DF80B3013468DF810
:107804000A3000230593039B181D9DF80A309DF848
:107814000B10019A07F0DAFD0590059B184607B096
:107824005DF804FB00B583B00190019B002B0AD0E6
:107834004FF47A70FFF7A2FF019B013B0193019B78
:10784400002BF5D100E000BF03B05DF804FB00009D
:1078540000B583B00A23019302E00120FFF7E2FFA1
:10786400134B1B78DBB283F00103DBB2002B04D093
:10787400019B5A1E0192002BEFD10D4B1B78DBB2FA
:1078840083F00103DBB2002B0CD00A4A0A4BD31A53
:10789400DB081B0443F00103084918460EF0AEFB55
:1078A400002300E00123184603B05DF804FB00BF89
:1078B40024230020FC760300C4760300387E0300F2
:1078C40000B587B003460A468DF80F3013468DF88D
:1078D4000E309DF80F308DF810309DF80E308DF875
:1078E4001130164B00221A7004AA002300930223BD
:1078F40068211348FFF75AFF0590059B002B0DD014
:10790400104A114BD31ADB081B0443F00103059AF8
:107914000E4918460EF080FB00230AE0FFF798FF9B
:10792400034683F00103DBB2002B01D0002300E007
:107934000123184607B05DF804FB00BF2423002090
:107944000C7A0300FC760300C4760300507E030027
:1079540000B587B0034602918DF80F3013468DF8B9
:107964000E30294B00221A700DF10F0201230093EF
:10797400012368212548FFF719FF0590059B002B7B
:107984000DD0234A234BD31ADB081B0443F0010315
:10799400059A214918460EF03FFB002330E0FFF71B
:1079A40057FF034683F00103DBB2002B01D0002311
:1079B40026E0154B00221A709DF80E30029A6821B9
:1079C4001248FFF713FF0590059B002B0DD0104ABA
:1079D400104BD31ADB081B0443F00103059A0F492B
:1079E40018460EF019FB00230AE0FFF731FF0346A7
:1079F40083F00103DBB2002B01D0002300E001235C
:107A0400184607B05DF804FB242300200C7A030019
:107A1400FC760300C47603006C7E03008C7E0300B6
:107A240000B583B0304A314BD31ADB081B0443F052
:107A340003032F4918460EF0E1FA01238DF80730AD
:107A440000216B20FFF73CFF03461A469DF80730E0
:107A54001340002B14BF012300238DF8073064204A
:107A6400FFF7E0FE00211A20FFF72AFF03461A461B
:107A74009DF807301340002B14BF012300238DF819
:107A8400073000211C20FFF71BFF03461A469DF810
:107A940007301340002B14BF012300238DF8073057
:107AA4009DF8073083F00103DBB2002B0BD00E4AA4
:107AB4000E4BD31ADB081B0443F001030D4918468F
:107AC4000EF09CFA0AE0084A084BD31ADB081B04A0
:107AD40043F00303084918460EF090FA9DF8073066
:107AE400184603B05DF804FBFC760300C47603007B
:107AF400A87E0300C47E0300E07E030000B587B0C7
:107B040003900291019204AB062219463B20FFF731
:107B14001FFF034683F00103DBB2002B01D00023D7
:107B240024E09DF810301BB21B021AB29DF81130EC
:107B34001BB213431AB2039B1A809DF812301BB276
:107B44001B021AB29DF813301BB213431AB2029BE4
:107B54001A809DF814301BB21B021AB29DF815301E
:107B64001BB213431AB2019B1A800123184607B0B3
:107B74005DF804FB034B00221A60034B00221A70C9
:107B840000BF7047DC240020E024002000B587B04B
:107B94000DF1020201A90DF106031846FFF7AEFF2D
:107BA400034683F00103DBB2002B0BD03D4A3E4B6E
:107BB400D31ADB081B0443F002033C4918460EF0B9
:107BC4001DFA6BE0BDF9063007EE903AB8EEE77A9D
:107BD400DFED376AC7EE267ACDED057ABDF90430BC
:107BE40007EE903AB8EEE77ADFED316AC7EE267A0F
:107BF400CDED047ABDF9023007EE903AB8EEE77A9B
:107C0400DFED2B6AC7EE267ACDED037ADDED057A3A
:107C140027EEA77ADDED047A67EEA77A37EE277AA6
:107C2400DDED037A67EEA77A77EE277AB0EE670A7E
:107C34000FF0F8FB8DED020ADDED027A9FED1D7A5F
:107C4400F4EEC77AF1EE10FA1CDD1B4B1B7883F0BF
:107C54000103DBB2002B15D0174B01221A70174B0E
:107C64001B680133154A13600E4A0F4BD31ADB0805
:107C74001B0443F00303114A1268114918460EF01D
:107C8400CBF90BE0DDED027A9FED0E7AF4EEC77AC4
:107C9400F1EE10FA02D5084B00221A7007B05DF815
:107CA40004FB00BFFC760300C4760300F87E0300E7
:107CB400000080469A99993FE0240020DC240020AB
:107CC4000C7F03006666663FBFF34F8F00BF064B11
:107CD400DB6803F4E0620449044B1343CB60BFF355
:107CE4004F8F00BF00BFFDE700ED00E00400FA0580
:107CF40082B01D4B1B68B3F1FF3F0AD11B4B1B68BD
:107D0400DBB201931A4B1B681B0903F00F030093AA
:107D140005E0154B1B680193164B1B680093019BF0
:107D2400062B1DD1009B033B042B17D801A252F84C
:107D340023F000BF4D7D0200517D0200557D0200FD
:107D4400597D02005D7D020001230AE0012308E061
:107D5400012306E0012304E0012302E0012300E003
:107D64000023184602B0704730010010E00F00F005
:107D7400E80F00F03401001082B0174B1B68DBB22F
:107D84000193164B1B681B0903F00F030093019B1F
:107D9400062B1DD1009B033B042B17D801A252F8DC
:107DA40023F000BFBD7D0200C17D0200C57D02003D
:107DB400C97D0200CD7D020001230AE0002308E012
:107DC400002306E0002304E0002302E0002300E097
:107DD4000023184602B07047E00F00F0E80F00F0EF
:107DE40082B01D4B1B68B3F1FF3F0AD11B4B1B68CC
:107DF400DBB201931A4B1B681B0903F00F030093BA
:107E040005E0154B1B680193164B1B680093019BFF
:107E1400062B1DD1009B033B042B17D801A252F85B
:107E240023F000BF3D7E0200417E0200457E020039
:107E3400497E02004D7E020001230AE0012308E08E
:107E4400012306E0012304E0012302E0012300E012
:107E54000023184602B0704730010010E00F00F014
:107E6400E80F00F03401001082B0174B1B68DBB23E
:107E74000193164B1B681B0903F00F030093019B2E
:107E8400062B1DD1009B033B042B17D801A252F8EB
:107E940023F000BFAD7E0200B17E0200B57E020079
:107EA400B97E0200BD7E020001230AE0002308E03F
:107EB400002306E0002304E0002302E0002300E0A6
:107EC4000023184602B07047E00F00F0E80F00F0FE
:107ED40082B01D4B1B68B3F1FF3F0AD11B4B1B68DB
:107EE400DBB201931A4B1B681B0903F00F030093C9
:107EF40005E0154B1B680193164B1B680093019B0F
:107F0400062B1DD1009B033B042B17D801A252F86A
:107F140023F000BF2D7F0200317F0200357F020075
:107F2400397F02003D7F020001230AE0012308E0BB
:107F3400012306E0012304E0012302E0012300E021
:107F44000023184602B0704730010010E00F00F023
:107F5400E80F00F03401001082B0174B1B68DBB24D
:107F64000193164B1B681B0903F00F030093019B3D
:107F7400062B1DD1009B033B042B17D801A252F8FA
:107F840023F000BF9D7F0200A17F0200A57F0200B5
:107F9400A97F0200AD7F020001230AE0002308E06C
:107FA400002306E0002304E0002302E0002300E0B5
:107FB4000023184602B07047E00F00F0E80F00F00D
:107FC40082B0174B1B68DBB20193164B1B681B096D
:107FD40003F00F030093019B062B1DD1009B033B71
:107FE400042B17D801A252F823F000BF0580020029
:107FF400098002000D800200118002001580020039
:1080040001230AE0002308E0002306E0002304E043
:10801400002302E0002300E00023184602B070476A
:10802400E00F00F0E80F00F082B01D4B1B68B3F1C5
:10803400FF3F0AD11B4B1B68DBB201931A4B1B6831
:108044001B0903F00F03009305E0154B1B68019314
:10805400164B1B680093019B062B1DD1009B033B11
:10806400042B17D801A252F823F000BF8580020028
:10807400898002008D8002009180020095800200B8
:1080840000230AE0002308E0012306E0012304E0C2
:10809400012302E0012300E00023184602B07047E8
:1080A40030010010E00F00F0E80F00F03401001080
:1080B40082B01D4B1B68B3F1FF3F0AD11B4B1B68F9
:1080C400DBB201931A4B1B681B0903F00F030093E7
:1080D40005E0154B1B680193164B1B680093019B2D
:1080E400062B1DD1009B033B042B17D801A252F889
:1080F40023F000BF0D8102001181020015810200EE
:10810400198102001D81020001230AE0012308E015
:10811400012306E0012304E0012302E0012300E03F
:108124000023184602B0704730010010E00F00F041
:10813400E80F00F03401001082B01D4B1B68B3F14E
:10814400FF3F0AD11B4B1B68DBB201931A4B1B6820
:108154001B0903F00F03009305E0154B1B68019303
:10816400164B1B680093019B062B1DD1009B033B00
:10817400042B17D801A252F823F000BF9581020006
:10818400998102009D810200A1810200A581020063
:1081940001230AE0012308E0012306E0012304E0AF
:1081A400012302E0012300E00023184602B07047D7
:1081B40030010010E00F00F0E80F00F0340100106F
:1081C40082B0154B1B680193144B1B680093019BF1
:1081D400062B1DD1009B033B042B17D801A252F898
:1081E40023F000BFFD81020001820200058202002B
:1081F400098202000D82020000230AE0002308E045
:10820400002306E0012304E0012302E0012300E04F
:108214000023184602B070473001001034010010EA
:1082240082B0154B1B680193144B1B680093019B90
:10823400062B1DD1009B033B042B17D801A252F837
:1082440023F000BF5D8202006182020065820200A9
:10825400698202006D82020000230AE0002308E024
:10826400002306E0002304E0012302E0012300E0F0
:108274000023184602B0704730010010340100108A
:1082840008B5FFF7CDFF0346002B07D04FF01023AE
:108294004FF08042D3F80832C2F8583500BF08BD09
:1082A40000BF044BD3F80034002BFAD000BF00BF4A
:1082B400704700BF00E0014000B583B00190054A5B
:1082C400019BC2F80435FFF7EBFF00BF03B05DF874
:1082D40004FB00BF00E00140024B034A1A6000BFE8
:1082E400704700BF782200200090D00308B5FFF744
:1082F400FFFC0346002B06D0964B1B681B0A964ACC
:1083040003F01F031360FFF737FD0346002B02D071
:10831400924B934A1A60FFF763FD0346002B06D085
:10832400904B1B685B0B904A03F007031360FFF745
:108334009BFD0346002B05D08C4BDB688B4A23F056
:108344008073D360FFF7C4FD0346002B0ED04FF0BB
:1083540080430022C3F80C214FF080430022C3F86D
:1083640010214FF080430022C3F83825FFF7F4FDB5
:108374000346002B02D07E4B03221A60FFF720FE37
:108384000346002B0BD07B4B05221A607A4B01224B
:108394001A607A4B00221A60794B3F221A60FFF769
:1083A40043FE0346002B76D04FF08053754AD3F832
:1083B4000434C2F820354FF08053724AD3F808349D
:1083C400C2F824354FF080536E4AD3F80C34C2F807
:1083D40028354FF080536B4AD3F81034C2F82C354B
:1083E4004FF08053674AD3F81434C2F830354FF055
:1083F4008053644AD3F81834C2F834354FF08053AC
:10840400604AD3F81C34C2F840354FF080535D4ABB
:10841400D3F82034C2F844354FF08053594AD3F886
:108424002434C2F848354FF08053564AD3F82834E0
:10843400C2F84C354FF08053524AD3F82C34C2F86A
:1084440050354FF080534F4AD3F83034C2F8543586
:108454004FF080534B4AD3F83434C2F860354FF0B0
:108464008053484AD3F83834C2F864354FF0805307
:10847400444AD3F83C34C2F868354FF08053414A3B
:10848400D3F84034C2F86C354FF080533D4AD3F8EA
:108494004434C2F87035FFF70BFE0346002B05D0B9
:1084A400394B1B68394A03F04F031360FFF744FE4E
:1084B4000346002B0DD04FF08043D3F8003403F073
:1084C4000103002B05D04FF080436FF00102C3F885
:1084D4000024FFF775FE0346002B05D02C4B1B68C8
:1084E4002B4A43F4806313602A4BD3F88830294A1B
:1084F40043F47003C2F88830BFF34F8F00BFBFF35B
:108504006F8F00BFFFF7BCFE4FF01023D3F800328B
:10851400002B05DB4FF01023D3F80432002B15DABF
:108524000120FFF7C9FE4FF010231522C3F80022E3
:10853400FFF7B6FE4FF010231522C3F80422FFF70D
:10854400AFFE0020FFF7B8FEFFF7BEFBFFF7C4FE47
:1085540000BF08BD240300104035014074C007402B
:108564000DF0ADBA440200103C050040F0ED00E00F
:10857400A0050040105600408856004018560040A0
:108584001456004000C0004058020010E40E0040A1
:108594003C17004000ED00E084B00346ADF806301F
:1085A4000023039316E00F49039A13469B001344D8
:1085B4009B000B441B88BDF806209A4207D1039AFE
:1085C40013469B0013449B00064A134406E0039B96
:1085D40001330393039B002BE5D00023184604B01A
:1085E400704700BFE424002082B001900B46ADF830
:1085F4000230019BBDF802201A80019B00221A72EE
:10860400019B054903F10A020B4603CB106051603C
:1086140000BF02B0704700BF1425002082B0019053
:10862400019B4FF6FF721A8000BF02B0704788B0FA
:108634000390029111461A460B46ADF806301346D4
:10864400ADF80430039B9B881A46BDF806301344EA
:108654000793039B9B881946039B9B88BDF80620C0
:10866400934228BF13469BB2CB1A0693039BDB8825
:108674001A46BDF8043013440593039BDB8819465E
:10868400039BDB88BDF80420934228BF13469BB2AA
:10869400CB1A0493029B5A88039B1B889A4205D3E6
:1086A400029B5A88039B5B889A4201D900231CE0F1
:1086B400029B9B881A46069B934205D8029B9B8883
:1086C4001A46079B934201D200230EE0029BDB88EB
:1086D4001A46049B934205D8029BDB881A46059BE5
:1086E400934201D2002300E00123184608B07047EA
:1086F40000B583B00190064B9B69002B03D0044B5B
:108704009B690198984700BF03B05DF804FB00BF64
:10871400F824002000B587B003460091ADF8063078
:10872400009B5B7A002B1AD1009B1B7A002B03D190
:10873400164B5B68059302E0144B9B680593009B02
:108744005B68BDF806200599184608F0D7FF049029
:10875400049B002B16D00498FFF7CAFF12E0009B7D
:1087640000221A72094B5B69002B0BD001238DF890
:108774000C30BDF80630ADF80E30044B5B6903AA2B
:108784001046984700BF07B05DF804FBF8240020AA
:1087940000B585B00190019BDB7B8DF80F30019B08
:1087A4009B88ADF80C309DF80F30012B2CD14FF67F
:1087B400FF70FFF7F1FE0290029B002B03D104200F
:1087C400FFF796FF21E0BDF80C3019460298FFF739
:1087D4000BFF029B03F10A00019B03F110014FF60A
:1087E400FF7340F2F312FFF722FF03461A46029B7F
:1087F4005A72074BDB89002B07D1BDF80C30029964
:108804001846FFF787FF00E000BF05B05DF804FBE2
:10881400F824002000B587B00190019B9B88ADF837
:108824001630BDF816301846FFF7B6FE0490049BC8
:10883400002B0ED0049B5B68184608F0B7FF03902A
:10884400039B002B02D00398FFF752FF0498FFF715
:10885400E5FE00BF07B05DF804FB000000B587B07B
:108864000190019B06330593059B1A88194BDB89FC
:108874009A422BD1059B5B89022B27D1019B9B88B4
:10888400ADF81230BDF812301846FFF785FE03909C
:10889400039B002B1AD0059B0C33184600F083FB76
:1088A4000346002B06D0BDF8123003991846FFF793
:1088B40031FF0BE0039B5B68184608F077FF0290DA
:1088C400029B002B02D00298FFF712FF00BF07B0F3
:1088D4005DF804FBF824002000B585B00190019BED
:1088E4009B88ADF80E30BDF80E301846FFF754FEE5
:1088F4000290029B002B15D0029B03F10A00019BFE
:1089040003F108014FF6FF7340F2F312FFF78FFEF5
:1089140003461A46029B5A72BDF80E300299184655
:10892400FFF7F8FE00BF05B05DF804FB00B583B0A7
:1089340001900091019B1B88502B12D0502B18DC06
:10894400122B12D0122B14DC102B02D0112B04D0BA
:108954000FE00198FFF71CFF0CE00198FFF75AFFA6
:1089640008E00198FFF77AFF04E00198FFF7B4FFED
:1089740000E000BF00BF03B05DF804FB30B58FB06A
:108984000190009100230293009B002B1AD0002336
:108994000D9314E06B460D9918460BF0D6F8034678
:1089A400002B09D0029B5A1C02920D9A92B25B00D2
:1089B40038336B4423F82C2C0D9B01330D930D9B02
:1089C400132BE7D9019B1D4602AC0FCC0FC50FCC6E
:1089D4000FC594E8070085E8070001980FB030BD83
:1089E40000B583B00346ADF80630BDF80630132B4E
:1089F40001D900230CE0BDF80630194606480BF0F7
:108A04004FF8BDF80630194604480BF049F8012325
:108A1400184603B05DF804FB24250020202500201F
:108A240000B585B00346ADF80630002303930DE08E
:108A3400039B9B00094A13440433BDF806201146E6
:108A440018460BF069F8039B01330393039B1D2B1A
:108A5400EED900BF00BF05B05DF804FB1C25002063
:108A640000B583B00346ADF80630BDF806301946AC
:108A740003480BF051F800BF03B05DF804FB00BFDE
:108A84002425002030B59BB0184B9B68DB4318931A
:108A9400164B5A6818AB114618460BF02CF9189A65
:108AA4006B4611461846FFF769FF0DAC6D460FCDB6
:108AB4000FC40FCD0FC495E8070084E80700002316
:108AC40019930BE0199B5B0068336B4433F8303C1B
:108AD4001846FFF7A5FF199B013319930D9B199AAB
:108AE4009A42EFD300BF00BF1BB030BD1C2500204D
:108AF40000B583B003468DF807309DF8073019465A
:108B040003480BF022F80346184603B05DF804FB53
:108B14001C25002000B583B001900B46ADF802304F
:108B240013468DF801309DF80130002B06D0BDF8B6
:108B34000230194601980AF0B3FF05E0BDF802308F
:108B4400194601980AF0E8FF00BF03B05DF804FB82
:108B540000B585B001900091019B9B88ADF80E3063
:108B6400019B1B88103B0A2B00F2888001A252F85B
:108B740023F000BFA58B0200E18B0200818C020070
:108B8400818C0200818C0200818C0200818C0200A5
:108B9400818C0200818C02004B8C0200ED8B020060
:108BA400FFF770FFBDF80E301846FFF719FF0346B4
:108BB40083F00103DBB2002B05D0324AF0210420FC
:108BC40008F0AEF957E0019BDB7B022B53D1BDF8D3
:108BD4000E3019462C480AF063FF4CE0BDF80E3005
:108BE4001846FFF73DFF49E0019B1B7AC3F30313CB
:108BF400DBB28DF80D309DF80D30032B8CBF0123B3
:108C04000023DAB2BDF80E3019462048FFF782FF80
:108C14009DF80D30022B8CBF01230023DAB2BDF87E
:108C24000E3019461A48FFF775FF9DF80D30012BD9
:108C34008CBF01230023DAB2BDF80E301946154863
:108C4400FFF768FF1AE0019B1B7A002B15D1019BEB
:108C54005B7AC3F3C003DBB2002B14BF01230023F0
:108C64008DF80C309DF80C20BDF80E3019460748DD
:108C7400FFF750FF01E000BF00E000BF00BF05B0F8
:108C84005DF804FB187F030028250020342500200C
:108C9400302500202C25002000B583B00346ADF814
:108CA4000630BDF80630132B01D9002306E0BDF8C9
:108CB4000630194603480AF048FF0346184603B035
:108CC4005DF804FB2025002000B585B00346ADF80F
:108CD400063000238DF80F30BDF806301846FFF734
:108CE400DBFF0346002B11D0BDF8063019460A48B5
:108CF4000AF02BFF03468DF80E309DF80E30002B42
:108D040001D0022300E001238DF80F309DF80F30CD
:108D1400184605B05DF804FB2825002000B585B091
:108D24000346ADF8063000238DF80F30BDF8063049
:108D34001846FFF7B1FF0346002B11D0BDF80630EB
:108D440019460A480AF001FF03468DF80E309DF8D3
:108D54000E30002B01D0022300E001238DF80F30E8
:108D64009DF80F30184605B05DF804FB242500205B
:108D740000B583B00346ADF80630BDF8063018469A
:108D8400FFF78AFF0346002B07D0BDF806301946CB
:108D940004480AF0DAFE034600E00023184603B054
:108DA4005DF804FB2C25002000B583B00346ADF824
:108DB4000630BDF806301846FFF76EFF0346002B59
:108DC40007D0BDF80630194604480AF0BEFE034633
:108DD40000E00023184603B05DF804FB30250020B2
:108DE40000B583B00346ADF80630BDF8063018462A
:108DF400FFF752FF0346002B07D0BDF80630194693
:108E040004480AF0A2FE034600E00023184603B01B
:108E14005DF804FB3425002000B583B003460A4600
:108E2400ADF8063013468DF805309DF80530184628
:108E3400FFF75EFE0346002B16D0BDF80630184639
:108E4400FFF72AFF0346002B0ED09DF805300633AA
:108E54009B00084A13440433BDF806201146184603
:108E64000AF073FE034600E00023184603B05DF8E1
:108E740004FB00BF1C25002000B583B00346ADF8F9
:108E840006300B468DF8053013468DF804309DF8F6
:108E940005301846FFF72CFE0346002B15D0BDF80D
:108EA40006301846FFF7F8FE0346002B0DD09DF858
:108EB400053006339B00074A134404339DF804200D
:108EC400BDF806101846FFF725FE00BF03B05DF895
:108ED40004FB00BF1C25002000B587B0039002915D
:108EE4000192029B002B01D100231FE00023059374
:108EF400039B002B19D00023049313E003AB0499C4
:108F040018460AF022FE0346002B08D0049B9AB2AE
:108F1400029B019910469847059B01330593049BD6
:108F240001330493049B132BE8D9059B184607B01F
:108F34005DF804FB00B585B00346029101928DF8FB
:108F44000F309DF80F301846FFF7D2FD034683F02B
:108F54000103DBB2002B01D000230CE09DF80F309D
:108F6400074A06339B0013445B68019A029918462A
:108F7400FFF7B2FF0346184605B05DF804FB00BFD7
:108F84001C25002082B00190019B1B781AB2019B22
:108F940001331B781BB21B021BB213431BB29BB2DF
:108FA400184602B0704700B585B001900198FFF7EC
:108FB400E9FF0346ADF80E30BDF80E3003F00103AF
:108FC400002B14BF01230023DBB2184605B05DF863
:108FD40004FBA0DF704700BF1846A1DF704700BF45
:108FE4001846ADDF704700BF1846B3DF704700BFB7
:108FF4001846B4DF704700BF1846000000B585B0BE
:109004000190019B002B03D10A4985200AF030FC12
:10901400012101980AF010FE0390BFF35F8F00BF97
:10902400039B002B0CBF01230023DBB2184605B0C1
:109034005DF804FBA880030000B583B00190019B98
:10904400002B03D10A4992200AF012FC019B1B68F1
:10905400012B03D0064993200AF00AFCBFF35F8F6B
:1090640000BF019B00221A6000BF03B05DF804FB3F
:10907400A880030000B585B00190019B5B88184669
:1090840001F05AFA03461A46019B9A80002303937F
:1090940008E0084A039B52F8233001989847039B41
:1090A40001330393039B002BF3D000BF00BF05B033
:1090B4005DF804FB7C22002082B00190019B9B7927
:1090C400012B0BD1019B1B79012B07D1019B5B88E1
:1090D40042F60212934201D1012300E0002303F07F
:1090E4000103DBB2184602B0704700B589B00346ED
:1090F4000091ADF8063003AB00221A605A609A6002
:10910400DA601A6108238DF80C30BDF80630ADF82A
:109114000E30009B059303AB1846FFF7ABFF00BF6F
:1091240009B05DF804FB000010B58AB00346ADF841
:10913400063000238DF8273003AB00221A605A60F2
:109144009A60DA601A61BDF80630ADF80E30BDF8E9
:1091540006304FF6FF72934261D0BDF806301846D0
:1091640000F034FF0890089B43F2020293424BD074
:10917400089B43F2020293422DD8089B112B11D075
:10918400089B112B27D8089B002B03D0089B0B2B83
:109194000CD020E00F238DF80C3003AB1846FFF7FA
:1091A40069FF32E001238DF827302EE010238DF87B
:1091B4000C301C4A1C4BD31ADB081B0443F002037B
:1091C400BDF80620194918460CF026FF03AB1846D3
:1091D400FFF750FF19E0134A134BD31ADB081B04A3
:1091E40043F0010408980CF031F903461A46BDF81F
:1091F40006300F4920460CF020FFBDF806300899D0
:109204001846FFF772FF00E000BF0A4B19789DF87B
:109214002720BDF806301846FFF72EFE00E000BFF9
:109224000AB010BD6C770300C4760300F480030019
:10923400748103009D25002000B583B003460A46CF
:10924400ADF8063013468DF80530064B19789DF8B5
:109254000520BDF806301846FFF70EFE00BF03B028
:109264005DF804FB9C25002010B58AB00346ADF8D8
:10927400063000238DF8273000238DF82630BDF802
:109284000630184600F0BAFD0890089B43F202022B
:10929400934258D0089B43F2020293423AD8089B67
:1092A400862B17D0089B862B34D8089B112B0DD006
:1092B400089B112B2ED8089B002B03D0089B0B2B4B
:1092C40041D027E001238DF826303DE001238DF8BD
:1092D400273039E003AB00221A605A609A60DA60E2
:1092E4001A6107238DF80C30BDF80630ADF80E3046
:1092F4001C4A1D4BD31ADB081B0443F00203BDF8C0
:1093040006201A4918460CF087FE03AB1846FFF7EF
:10931400B1FE19E0134A144BD31ADB081B0443F0C3
:10932400010408980CF092F803461A46BDF806307A
:109334000F4920460CF081FEBDF806300899184606
:10934400FFF7D3FE00E000BF9DF82720BDF80630EC
:1093540011461846FFF770FF9DF8263018460AB0EC
:1093640010BD00BF6C770300C4760300C8810300FE
:109374000082030000B589B003460091ADF80630C1
:1093840000238DF81F300DF116031846FFF72DFE4C
:109394000690069B002B04D02A494FF499700AF0DA
:1093A40067FA0123ADF81C3040E00223ADF8083021
:1093B4000023ADF80A3004AB039304A9BDF81C30B4
:1093C40000221846FFF715FE0690069B002B01D0DD
:1093D400069B32E09DF81F3083F00103DBB2002BC3
:1093E40009D0BDF8103042F60522934203D101237F
:1093F4008DF81F3015E09DF81F30002B11D0BDF8FB
:10940400103042F6021293420BD1009B039302AA3E
:10941400BDF81C10BDF806301846FFF7E2FD034600
:109424000BE0BDF81C300133ADF81C30BDF816302C
:10943400BDF81C209A42B8D30523184609B05DF83C
:1094440004FB00BF4082030010B58AB00346ADF8A8
:10945400063001238DF8273000238DF82630BDF81F
:109464000630184600F062FE0890089B43F2014261
:1094740093426AD0089B43F2014293426BD8089B03
:10948400112B29D8089B112B65D801A252F823F07F
:10949400E99402005B9502005B9502005B95020073
:1094A4005B9502005B950200359502005B95020016
:1094B400159502005B9502005B9502005B95020026
:1094C4005B9502005B9502005B9502005B950200D0
:1094D4005B9502008D950200089B43F202029342C1
:1094E40054D038E003AB00221A605A609A60DA6004
:1094F4001A6111238DF80C30BDF80630ADF80E302A
:1095040001238DF8263003AB1846FFF7B3FD3EE088
:109514000DF10A02BDF8063011461846FFF72AFF7E
:109524000890089B002B03D1BDF80A30002B2ED1E4
:1095340000238DF82730BDF80630184600F0FCFFF4
:109544000346184600F03AFE21E0BDF806301846FE
:10955400FFF7EAFD1BE0184A184BD31ADB081B047B
:1095640043F0010408980BF071FF03461A46BDF856
:109574000630134920460CF060FDBDF8063008990A
:109584001846FFF7B2FD02E000BF00E000BF0D4B3C
:1095940019789DF82720BDF806301846FFF76CFCB3
:1095A400094B19789DF82620BDF806301846FFF7B8
:1095B40063FC00BF0AB010BD6C770300C4760300DF
:1095C400C08203009E2500209F25002000B583B0A3
:1095D40003460091ADF80630BDF806301846FFF793
:1095E400A3FD00BF03B05DF804FB000008B5044B05
:1095F4001B78002203491846FFF79CFC00BF08BDF6
:109604009D250020D195020000B583B0034600914A
:10961400ADF806300A48FFF7F1FC0346002B0CD0E6
:10962400BDF806301846FFF71FFE0346002B03D192
:109634000348FFF701FD00E000BF03B05DF804FB41
:109644009825002000B583B003460091ADF806309C
:109654000B4B1A78BDF8063011461846FFF7DCFBB1
:10966400034683F00103DBB2002B04D0BDF80630BF
:109674001846FFF7E9FE00BF03B05DF804FB00BF26
:109684009F25002008B5044B1B7800220349184687
:10969400FFF750FC00BF08BD9E250020499602003C
:1096A40000B583B00346ADF80630BDF80630184661
:1096B40000F018FD0346002B07D0064B1978BDF8BF
:1096C400063001221846FFF7D7FB00BF03B05DF850
:1096D40004FB00BF9E25002000B587B0034600911F
:1096E400ADF8063004AB0422002118460DF016FF35
:1096F40042F6A623ADF8103001238DF812300D4B3D
:109704001B68039303AA04A9BDF806301846FFF7A3
:1097140060FC0590059B002B07D1074B1978BDF819
:10972400063001221846FFF7A7FB00BF07B05DF81B
:1097340004FB00BF00830300A125002000B585B011
:109744000346ADF80630BDF80630184600F0F4FEC6
:109754000346184602AA0023092101F0EEF9034644
:10976400052B07D1054B1978BDF8063001221846A0
:10977400FFF782FB00BF05B05DF804FBA0250020C5
:1097840000B583B00B4B1B7800220B491846FFF73A
:10979400D1FB0190019B002B07D1084B1B780022C1
:1097A40007491846FFF7C6FB019000BF03B05DF8F8
:1097B40004FB00BF9C2500200D960200A02500207C
:1097C400DD96020000B583B00190019B1B78002B4D
:1097D40011D1019B5B881846FFF7A6FC019B5B88AF
:1097E4001846FFF75DFF019B5B881846FFF7A6FF4D
:1097F400FFF7C6FF00E000BF00BF03B05DF804FB45
:1098040000B589B00190019B1B78092B5ED1019BA7
:109814005B7A002B5AD1019B1B7A082B47D0082B6B
:109824004DDC012B1BD0072B49D1019B9B8818468B
:1098340000F02CFF0346ADF81E30BDF81E304FF685
:10984400FF7293423DD0BDF81E3001211846FFF748
:10985400F3FCBDF81E301846FFF770FF31E0019BA2
:109864009B8803AA0121184601F0B0FE0690069BCE
:10987400002B28D1049B1B78002B24D0019B9B88B0
:10988400184600F003FF0346ADF81630BDF8163055
:109894004FF6FF72934216D00F4B1978BDF816306D
:1098A40001221846FFF7E8FAFFF7ECFE0BE00B4B3A
:1098B4001B68012B09D10948FFF7BEFB05E000BF77
:1098C40004E000BF02E000BF00E000BFFFF758FF64
:1098D40000BF09B05DF804FB9E25002098250020F8
:1098E40010B586B003460A46ADF8063013468DF827
:1098F400053003AB00221A605A600123ADF80C3026
:1099040009238DF80E30194B1978BDF80630002262
:109914001846FFF7B1FA9DF80530002B01D0144B1F
:1099240000E0144B0493BDF80630184600F004FE22
:109934000346184603AB0022194601F0C5F9059009
:10994400059B002B0FD00C4A0C4BD31ADB081B04CD
:1099540043F0020405980BF079FD03461A460849C2
:1099640020460CF059FB00BF06B010BDA025002016
:10997400888403008C8403006C770300C47603009E
:109984007483030000B58DB00190019B9B88ADF8F2
:109994002C30019B1B88353B1F2B00F2688101A2F0
:1099A40052F823F0B99A0200BB9B0200739C020098
:1099B400739C0200739C0200739C0200739C02005F
:1099C400739C0200739C0200739C0200739C02004F
:1099D400739C0200739C0200739C0200739C02003F
:1099E400739C0200739C0200739C0200739C02002F
:1099F400739C0200739C0200739C0200739C02001F
:109A0400739C0200739C0200739C0200739C02000E
:109A1400959A0200739C0200299A0200739C02002A
:109A2400359A0200BDF82C301846FFF77DFB1EE185
:109A340003AB00221A605A609A60DA601A6112233A
:109A44008DF80C30BDF82C30ADF80E30BDF82C304C
:109A5400184600F071FD0346ADF81030BDF8103023
:109A6400184600F0ABFB864B1978BDF82C30002269
:109A74001846FFF701FA834B1978BDF82C30002201
:109A84001846FFF7F9F903AB1846FFF7F3FAEEE0CF
:109A9400019B06331846FFF70FFB0346002B00F02B
:109AA400DF80BDF82C3001211846FFF7C5FBFFF716
:109AB40067FED5E000238DF82F30019B9B88ADF81D
:109AC4002C30019B0A3309936F4B1A78BDF82C3064
:109AD40011461846FFF7A0F9034683F00103DBB2F1
:109AE400002B40F0BF80684B1978BDF82C30002261
:109AF4001846FFF7C1F9019BDB88B3F5857F4CD08D
:109B0400019BDB88002B0DD0604A614BD31ADB0824
:109B14001B0443F00200019BDB881A465D490CF0EC
:109B24007BFA3AE0099B1B88012B0CD0574A584B0F
:109B3400D31ADB081B0443F00200099B1B881A4656
:109B440055490CF069FA099B5B88012B0DD04F4AEB
:109B54004F4BD31ADB081B0443F00200099B5B88BC
:109B64001A464E490CF058FA17E0099B0433198839
:109B7400BDF82C3000221846FFF72FFA0890089BF6
:109B8400002B0AD101238DF82F30454B1978BDF8ED
:109B94002C3001221846FFF76FF99DF82F3083F01F
:109BA4000103DBB2002B5FD0BDF82C300021184636
:109BB400FFF796FE58E000238DF82E30019B9B881A
:109BC400ADF82C30019B0A330A93354B1A78BDF853
:109BD4002C3011461846FFF71FF9034683F00103A2
:109BE400DBB2002B42D12E4B1978BDF82C30002269
:109BF4001846FFF741F9019BDB88002B0DD0234A5F
:109C0400234BD31ADB081B0443F00200019BDB88BF
:109C14001A4620490CF000FA19E00A9B9B88012B94
:109C24000DD01A4A1A4BD31ADB081B0443F0020066
:109C34000A9B9B881A4619490CF0EEF907E00A9B27
:109C44009B79002B14BF012300238DF82E309DF83F
:109C54002E20BDF82C3011461846FFF741FE06E0D1
:109C640000BF04E000BF02E000BF00E000BFFFF758
:109C7400BDFCFFF707FD00BF0DB05DF804FB00BF9E
:109C84009F2500209E250020A12500206C7703003D
:109C9400C4760300D4830300108403004C840300BF
:109CA400A2250020AFDF704700BF1846B1DF704720
:109CB40000BF1846B2DF704700BF1846B3DF7047D5
:109CC40000BF184600B585B00190019B9B881846DB
:109CD40000F0DCFC03461A46019B5A8000230393E0
:109CE40008E0084A039B52F8233001989847039BE5
:109CF40001330393039B002BF3D000BF00BF05B0D7
:109D04005DF804FB8022002010B588B02D4A05AB15
:109D140092E8030083E8030048E02B4B1B8805A965
:109D24000022184600F0D0FF0790079B002B34D088
:109D34006B4600221A605A609A60DA601A61224BFC
:109D44001B88ADF80430079B112B36D0079B862B5C
:109D540007D107238DF800306B461846FFF7B2FF92
:109D64002BE01A4A1A4BD31ADB081B0443F00104F4
:109D740007980BF06BFB03461A46134B1B881549D7
:109D840020460CF05AF908238DF80030079B029303
:109D94006B461846FFF796FF0FE00B4B1B881846DF
:109DA40001F062F803461A46074B1A80064B1B88DB
:109DB4004FF6FF729342B0D100E000BF00BF08B07D
:109DC40010BD00BFFC840300A425002074770300A9
:109DD400C4760300A484030000B583B00190064B4D
:109DE4001B884FF6FF72934201D0FFF78DFF00BF2F
:109DF40003B05DF804FB00BFA425002030B58DB08E
:109E04000346ADF80630BDF80630184600F094FB62
:109E14000346ADF82630BDF826304FF6FF72934264
:109E240002D143F20203C5E00123ADF82A30002336
:109E34008DF8293000238DF82930BDF82A305A1CBA
:109E4400ADF82A201A4604ABBDF82600082101F01B
:109E5400D3FB0B900B9B002B40F0A180059B089338
:109E6400089B03221A60089B991D089B1A1D089BD6
:109E74001B68BDF80600FFF71DFF0B900B9B002B22
:109E840062D102AABDF826300821184601F09EFBD3
:109E94000B900B9B002B16D00B9B052B13D0474A22
:109EA400474BD31ADB081B0443F001040B980BF057
:109EB400CDFA03461A46BDF80630424920460CF056
:109EC400BCF8032376E00B9B052B11D0089B9A88E2
:109ED400039B9B889A420BD1089B981D039B991D59
:109EE400089B9B881A460DF0ACFA0346002B09D058
:109EF400BDF82620BDF826300821184601F03BFCA9
:109F04000B9051E0BDF826300821184601F014FCEE
:109F14000690069B002B02D10B230B9344E0274AA7
:109F2400274BD31ADB081B0443F00104BDF8265069
:109F340006980BF08BFA03462A46234920460CF078
:109F44007CF803230B932FE00B9B0C2B03D10123F1
:109F54008DF8293004E00B9B052B01D100230B93D2
:109F6400BDF826300821184601F0E6FB0790079B50
:109F7400002B19D0114A124BD31ADB081B0443F0EF
:109F84000104BDF8265007980BF060FA03462A46F0
:109F94000D4920460CF051F803230B9304E00B9B6E
:109FA400072B01D10C230B939DF82930002B7FF450
:109FB40041AF0B9B18460DB030BD00BF7477030052
:109FC400C4760300048503003C85030000B58BB010
:109FD4000346ADF80630BDF80630184600F0ACFA7A
:109FE4000346ADF81430002308930023ADF81E3067
:109FF4000323069301238DF81730BDF814304FF670
:10A00400FF72934216D002AABDF8143008211846F4
:10A0140001F0DCFA0990099B002B0BD1039B0493FC
:10A02400049B06330893049B9B88ADF81E30049B65
:10A034001B680693BDF81E20BDF80600069B089910
:10A04400FFF734FE0990099B042B02D111230993D5
:10A0540031E0099B082B02D1002309932BE0099BD3
:10A064000B2B28D100238DF81730069B03F0020335
:10A07400002B02D0012306931DE0089B002B03D183
:10A08400BDF81E30002B07D0002308930023ADF841
:10A094001E30032306930EE00F4A104BD31ADB083D
:10A0A4001B0443F00103BDF806200D4918460BF0CC
:10A0B400B3FF03230993099B0B2BBBD09DF81730E7
:10A0C40083F00103DBB2002B01D00B230993099B1E
:10A0D40018460BB05DF804FB74770300C4760300E4
:10A0E400BC85030000B589B00346ADF806300DF118
:10A0F40017030493BDF80630184600F01DFA034612
:10A10400ADF81E3003AABDF81E300121184601F037
:10A114005DFA0690069B002B01D0002301E0049B0E
:10A124001B78184609B05DF804FB000010B584B034
:10A134000346ADF806304FF6FF73ADF80E301B48FA
:10A14400FFF7BCFD0290029B002B11D0184A194B5B
:10A15400D31ADB081B0443F0010402980BF076F9D0
:10A1640003461A46144920460BF056FF03231AE00F
:10A174000E4B1988BDF80E20BDF806301846FFF7BF
:10A1840091FD0290029B43F20302934205D1074BD7
:10A194001B8801339AB2054B1A80029B43F20302D7
:10A1A4009342E5D0029B184604B010BDA6250020BA
:10A1B40074770300C47603003486030000B585B0C9
:10A1C4000346ADF80630084A02AB92E8030083E880
:10A1D400030002A9BDF806300022184600F074FD01
:10A1E40000BF05B05DF804FB8086030046DF7047BE
:10A1F40000BF184600B585B001900023039308E022
:10A20400084A039B52F8233001989847039B013373
:10A214000393039B012BF3D900BF00BF05B05DF886
:10A2240004FB00BF9087030084B0019000230393D4
:10A234000AE0019A039B13441B78002B01D00123ED
:10A2440006E0039B01330393039B0F2BF1D90023F7
:10A25400184604B0704700B583B001900091019B8B
:10A26400002B02D0009B002B01D100231BE0019B9B
:10A274001B78C3F34603DAB2009B1B78C3F346038F
:10A28400DBB29A4201D000230DE0019B581C009BD5
:10A294000133062219460DF0D4F80346002B0CBFF7
:10A2A40001230023DBB2184603B05DF804FB000071
:10A2B40030B597B00190019B1B88102B40F0918022
:10A2C400019B0AAC1D1D0FCD0FC40FCD0FC495E823
:10A2D400070084E807004FF6FF73ADF856309DF889
:10A2E4002C3023F00103DBB2062B47D000F08EFCA8
:10A2F4009DF82C30C3F34603DBB2012B02DC002BA8
:10A3040015DA3BE0022B2ED038E0089B03F1110252
:10A314000AAB043311461846FFF79DFF0346002B92
:10A3240005D0BDF82630ADF8563000BF26E007AAA8
:10A334000DF126031946072000F072FC0346002B9A
:10A34400E3D11BE0089B5A1C0AAB043311461846A0
:10A3540000F08FFA0346002B05D0BDF82630ADF887
:10A36400563000BF09E007AA0DF12603194607205D
:10A3740000F056FC0346002BE4D100BFBDF82830A2
:10A384001946194A0B469B000B445B001344BDF865
:10A3940056201A80BDF828301946134A0B469B00F4
:10A3A4000B445B00134402330BAA106818609188B5
:10A3B400927999809A71BDF856304FF6FF729342A4
:10A3C40010D0BDF82830ADF80A30BDF85630ADF8DD
:10A3D4000C3000238DF8083002AB1846FFF70AFF53
:10A3E40000E000BF17B030BDA825002000B587B03D
:10A3F40001900091019B11330593009B1133049349
:10A40400019B581C009B0133102219460DF019F8CA
:10A414000346002B11D1019B01331846FFF704FFBB
:10A424000346002B09D0009B01331846FFF7FCFEBE
:10A434000346002B01D0012300E000238DF80F30E8
:10A444009DF80F3003F001038DF80F30049905983F
:10A45400FFF701FF03468DF80E30059B1B7823F0B0
:10A464000103DBB2042B16D0059B1B7823F00103F8
:10A47400DBB2062B0FD0049B1B7823F00103DBB265
:10A48400042B08D0049B1B7823F00103DBB2062BBA
:10A4940001D0012300E000238DF80D309DF80D302C
:10A4A40003F001038DF80D309DF80E30002B03D01E
:10A4B4009DF80D30002B0AD19DF80F30002B08D0E9
:10A4C4009DF80D3083F00103DBB2002B01D0012392
:10A4D40000E0002303F00103DBB2184607B05DF887
:10A4E40004FB00B587B001900B46ADF8023000F0D4
:10A4F4008DFB10E0BDF81630BDF802209A420AD058
:10A50400049B19460198FFF771FF0346002B02D004
:10A51400BDF816300BE003AA0DF116031946072007
:10A5240000F07EFB0346002BE4D14FF6FF73184680
:10A5340007B05DF804FB000000B583B00346ADF836
:10A544000630BDF80630132B0AD8BDF8063018467D
:10A55400FEF7A2FB034683F00103DBB2002B02D01B
:10A564004FF6FF7308E0BDF80620054913469B002B
:10A5740013445B000B441B88184603B05DF804FBCE
:10A58400A825002000B583B003460091ADF806303D
:10A59400BDF80630132B0AD8BDF806301846FEF76E
:10A5A4007BFB034683F00103DBB2002B02D043F2B2
:10A5B400020311E0BDF806200098094913469B00E8
:10A5C40013445B000B4402460233196811609988F6
:10A5D4009B79918093710023184603B05DF804FBC6
:10A5E400A825002000B583B001900091019800F0E7
:10A5F40089F8034683F00103DBB2002B01D000236A
:10A6040015E0019B1A88009B1B889A4201D0002305
:10A614000DE0019B981C009B0233082219460CF0A4
:10A6240010FF0346002B0CBF01230023DBB21846A6
:10A6340003B05DF804FB00B587B0019000F0E6FAC2
:10A6440014E0049B463319460198FFF7CBFF0346F9
:10A65400002B08D1049B2A3319460198FFF7C2FF47
:10A664000346002B02D0BDF816300BE003AA0DF10F
:10A6740016031946072000F0D3FA0346002BE0D155
:10A684004FF6FF73184607B05DF804FB00B585B0BC
:10A694000346ADF80630BDF806304FF6FF7293421C
:10A6A40002D14FF6FF7326E00023ADF80E301CE014
:10A6B400BDF80E20124913469B0013445B000B4463
:10A6C4001B88BDF806209A420AD1BDF80E30184600
:10A6D400FEF7E2FA0346002B02D0BDF80E300AE082
:10A6E400BDF80E300133ADF80E30BDF80E30132B2B
:10A6F400DED94FF6FF73184605B05DF804FB00BFC2
:10A70400A825002084B00190019B1B88002B01D058
:10A71400012312E0002303930BE0019A039B1344EB
:10A7240002331B78002B01D0012306E0039B013385
:10A734000393039B072BF0D90023184604B07047FA
:10A7440082B003460A46ADF806301346ADF804302D
:10A75400BDF80630132B0AD8BDF806200549134668
:10A764009B0013445B000B44BDF804201A8000BF17
:10A7740002B07047A825002000B585B00346ADF8A7
:10A784000630BDF806301846FFF780FF0346ADF8E3
:10A794000E30BDF80630184600F0A6FE0290029B6B
:10A7A400002B0ED1BDF80E30132B0AD8BDF80E20A5
:10A7B400064913469B0013445B000B444FF6FF729B
:10A7C4001A80029B184605B05DF804FBA8250020FA
:10A7D40000B595B0039002910192002313930DE00C
:10A7E400139BC3F10F03039A1344197805AA139B0F
:10A7F40013440A461A70139B01331393139B0F2BB4
:10A80400EED905AB10330D22002118460CF086FE5C
:10A81400002312930DE0029A129B1A44129BC3F177
:10A824000F03127850336B4403F82C2C129B013322
:10A834001293129B022BEED905AB1846FFF7D6FCF8
:10A84400002311930DE0119BC3F10F020199119B99
:10A854000B4450326A4412F81C2C1A70119B0133B9
:10A864001193119B022BEED900BF00BF15B05DF808
:10A8740004FB00B587B001900091019B1B7823F085
:10A884000103DBB2042B01D000231FE0019B5A1CFF
:10A8940005AB1188927819809A70019B1A1D03AB3D
:10A8A4001188927819809A70009B04AA03A918460B
:10A8B400FFF78EFF04A905AB032218460CF0C1FD77
:10A8C4000346002B0CBF01230023DBB2184607B05C
:10A8D4005DF804FB00B585B00190019B4FF6FF7253
:10A8E4005A800023039305E0064B01989847039B85
:10A8F40001330393039B002BF6D000BF00BF05B0C8
:10A904005DF804FB41B4020082B00346ADF80630A2
:10A91400BDF80630A3F580439BB2184602B07047D9
:10A9240082B00346ADF80630BDF8063003F5804327
:10A934009BB2184602B0704782B003468DF80730C8
:10A944009DF807309BB2A3F580439BB2184602B032
:10A95400704782B003468DF807309DF80730072B07
:10A9640017D09DF80730012B13D09DF80730082B22
:10A974000FD09DF80730052B0BD09DF80730062B20
:10A9840007D09DF80730092B03D09DF80730042B1E
:10A9940001D1012300E0002303F00103DBB21846D8
:10A9A40002B0704700B589B003460091ADF8063097
:10A9B40003AB00221A605A609A60DA601A610823B5
:10A9C4008DF80C30BDF80630ADF81030009B0593BF
:10A9D40003AB1846FFF77EFF00BF09B05DF804FB28
:10A9E40000B589B0354B00221A7001AB0822002152
:10A9F40018460CF093FD4FF6FF7001F045F803463E
:10AA0400ADF81E300CE0BDF81E30184600F08EFF85
:10AA1400BDF81E30184601F037F80346ADF81E3075
:10AA2400BDF81E304FF6FF72934210D0BDF81E30B1
:10AA34001846FFF769FF0346184601AA03AB1946F7
:10AA440008F0EFFE034648F209629342DBD0BDF8FA
:10AA54001E304FF6FF7293422CD0BDF81E301846BC
:10AA6400FFF752FF0346ADF81C30BDF81C30184602
:10AA740008F072FE0690069B48F20762934203D1E7
:10AA84000E4B01221A7015E0069B002B12D00C4AC3
:10AA94000C4BD31ADB081B0443F00100BDF81E3035
:10AAA400069A09490BF0C9FABDF81E3006991846F2
:10AAB400FFF778FF00BF09B05DF804FB70260020A3
:10AAC40094770300C47603007889030000B587B047
:10AAD40003460092ADF806300B468DF805309DF81C
:10AAE40005301846FFF735FF02AB0822002118464F
:10AAF4000CF014FDBDF806301846FFF705FF0346B9
:10AB0400ADF816309DF805301846FFF715FF0346DB
:10AB1400ADF8143002ABBDF81410BDF81600009A5D
:10AB240008F056FE0490049B002B01D0052300E09E
:10AB34000023184607B05DF804FB00B58DB00292FF
:10AB440001930346ADF80E300B468DF80D30BDF879
:10AB54000E30FF2B01D9072354E09DF80D30184621
:10AB6400FFF7F7FE034683F00103DBB2002B01D0AD
:10AB7400072347E006AA9DF80D10BDF80E301846CD
:10AB8400FFF7A4FF0B900B9B002B01D0052339E0AA
:10AB940004AA06AB1146184608F030FD0B900B9B37
:10ABA400002B01D005232DE0029B9DF80D209A7007
:10ABB400049B5A88029B1A80019B002B03D1059A9F
:10ABC400029B5A6019E0029B1B889B000A93029B1C
:10ABD4001B889A00019B1B68934228BF1346099364
:10ABE400029B5B680599099A18460CF065FC099A62
:10ABF4000A9B9A4201D20C2304E006AB184608F0E3
:10AC04003BFD002318460DB05DF804FB08B508228F
:10AC1400002102480CF082FC00BF08BD742600200D
:10AC240000B58DB00346029101928DF80F309DF866
:10AC34000F301846FFF78DFE034683F00103DBB2A5
:10AC4400002B01D0012338E09DF80F301846FFF7A0
:10AC540073FE0346ADF82E3007A9BDF82E30194A0D
:10AC6400184608F0CBFD0346002B01D0002324E056
:10AC740005AA07AB1146184608F0C0FC0A900A9BC7
:10AC8400002B01D0002318E0019B9DF80F209A703F
:10AC9400059B5A88019B1A80069A019B5A60059B62
:10ACA4009B881846FFF73CFE03461A46029B1A800F
:10ACB40007AB184608F0E0FC012318460DB05DF818
:10ACC40004FB00BF7426002000B58DB0034602913A
:10ACD4000192ADF80E30BDF80E30FF2B01D90723D9
:10ACE4008AE0029B9B781846FFF733FE034683F005
:10ACF4000103DBB2002B01D007237DE0BDF80E3049
:10AD04001846FFF701FE0346ADF82030029B9B78FE
:10AD14001846FFF711FE0346ADF82230029B5B682C
:10AD24000993029B1B880A93029B997805AABDF894
:10AD34000E301846FFF7CAFE0B900B9B052B07D16C
:10AD440008AA05AB1146184608F0E2FC0B9006E091
:10AD540008AA05AB1146184608F0E9FC0B900B9BBA
:10AD6400002B2BD00B9B48F20D62934236D80B9BE1
:10AD740048F20262934231D30B9BA3F50643023B94
:10AD84000B2B2BD801A252F823F000BFDDAD02003B
:10AD9400E1AD0200E1AD0200E1AD0200D9AD020077
:10ADA400D5AD0200E1AD0200E1AD0200E1AD02006B
:10ADB400E1AD0200E1AD0200D5AD0200019B002B24
:10ADC40004D005AB0199184608F03EFD002313E0BA
:10ADD400112311E086230FE010230DE0084A094BEC
:10ADE400D31ADB081B0443F00100BDF80E300B9AA4
:10ADF40005490BF022F9032318460DB05DF804FB56
:10AE040094770300C4760300488A030008B54FF61C
:10AE1400FF7000F053FD0346184608BD00B583B02B
:10AE24000346ADF80630BDF80630FF2B01D90723E1
:10AE340007E0BDF80630184600F052FDFFF7D0FDDC
:10AE44000023184603B05DF804FB00B583B0034645
:10AE5400ADF80630BDF80630184600F081FD034613
:10AE6400184603B05DF804FB00B583B00346ADF8A3
:10AE74000630BDF80630184600F0D2FD03461846E9
:10AE840003B05DF804FB00B583B00346ADF80630AB
:10AE9400BDF80630184600F0F7FD0346184603B027
:10AEA4005DF804FB82B00190019B4FF6FF721A809B
:10AEB400019BFF229A70019BFF225A72019A937A96
:10AEC40023F002039372019A937A23F0010393729D
:10AED400019B00221A72019B00225A6000BF02B03B
:10AEE4007047000084B003460091ADF80630009B23
:10AEF4001B68039319E01049039A13465B0013443B
:10AF04009B000B441B88BDF806209A420AD1009B83
:10AF1400039A1A60039A13465B0013449B00064A83
:10AF2400134406E0039B01330393039B032BE2D9F1
:10AF34000023184604B070478C26002000B585B065
:10AF440003460A46ADF8063013468DF80530002353
:10AF5400029302AABDF8063011461846FFF7C2FF55
:10AF640003900AE0029B0133029302AABDF8063063
:10AF740011461846FFF7B6FF0390039B002B17D02A
:10AF8400039B9B789DF805209A42EBD1039B9B7A07
:10AF940003F00203DBB2002BE4D1039B9B7A03F0A2
:10AFA4000103DBB2002BDDD1039B5B68002BD9D1FD
:10AFB400039B184605B05DF804FB000084B00190C3
:10AFC4000023039316E00F49039A13465B001344CE
:10AFD4009B000B4404331B68019A9A4207D1039ADD
:10AFE40013465B0013449B00064A134406E0039B8C
:10AFF40001330393039B032BE5DD0023184604B0C0
:10B00400704700BF8C26002008B5FF214FF6FF7063
:10B01400FFF794FF0346184608BD000000B585B04D
:10B024000190002303930CE0019B5A7A039BDBB24B
:10B034001344DBB21946094801F0AAF8039B013313
:10B044000393019B1B7A1A46039B9342ECD301980A
:10B05400FFF728FF00BF05B05DF804FB7C26002045
:10B0640000B583B001900B46ADF8023013468DF85D
:10B074000130019B002B13D0FFF7C6FF0246019B52
:10B084001A60019B1B68002B0CD0019B1B68BDF848
:10B0940002201A80019B1B689DF801209A7002E02F
:10B0A40000BF00E000BF03B05DF804FB00B585B04D
:10B0B40001900023039308E0084A039B52F82330CD
:10B0C40001989847039B01330393039B032BF3D904
:10B0D40000BF00BF05B05DF804FB00BF188D03007E
:10B0E40086B0039001921A460B468DF80B30134636
:10B0F400ADF80830BDF808301A46920013441B011D
:10B10400ADF81630039B9DF80B209A70039B019AAF
:10B114005A60BDF8163003339B109AB2039B1A8011
:10B1240000BF06B0704700B585B00390019200934C
:10B134000B468DF80B30009B9BB29DF80B10019AC7
:10B144000398FFF7CDFF00BF05B05DF804FB0000D6
:10B1540082B00190019B9B78013B072B27D801A269
:10B1640052F823F091B10200B3B10200B3B102006E
:10B17400B3B10200B3B1020099B1020089B1020077
:10B18400A1B10200019B14221A8011E0019B01224B
:10B194001A800DE0019B01221A8009E0019B5B6883
:10B1A4009B8809339B089AB2019B1A8000E000BF78
:10B1B40000BF02B0704700BF10B586B001900023F5
:10B1C400059302AB00221A605A60019B9B788DF8AC
:10B1D4000A30019B5B7A1946404800F0A8FF0490AE
:10B1E400049B002B0ED13E4A3E4BD31ADB081B04B2
:10B1F40043F00100019B5B7A1A463B490AF00CFFBD
:10B20400032367E0019B9978019B1B7A02A8049AA7
:10B21400FFF789FF02AB1846FFF79AFF019B1888D6
:10B22400019B1A1D02AB1946FFF74EFD0590059BC5
:10B23400862B2AD0059B862B35D8059B112B14D041
:10B24400059B112B2FD8059B002B03D0059B072BA7
:10B254003ED028E0019A937A23F002039372019A74
:10B26400937A23F00103937233E0019A937A43F0C3
:10B2740002039372019A937A23F0010393721B4B96
:10B2840001221A700023059323E0019A937A23F094
:10B2940002039372019A937A43F001039372134B5E
:10B2A40001221A7015E00E4A0E4BD31ADB081B0458
:10B2B40043F0010405980AF0C9F803461A46019BB5
:10B2C4001B880B4920460AF0B8FE0323059300E0CF
:10B2D40000BF059B184606B010BD00BF7C260020A9
:10B2E4008C770300C4760300088B0300BC2600207F
:10B2F400488B030010B588B001900198FFF75CFFFC
:10B304000790079B002B2BD04FF6FF73ADF80A3044
:10B31400019B1B88ADF80C30079B862B03D10723B8
:10B324008DF8083016E008238DF80830079B049345
:10B334000D4A0E4BD31ADB081B0443F00104079893
:10B344000AF084F803461A46019B1B8808492046E4
:10B354000AF073FE02AB1846FFF7A8FE002300E0D4
:10B364000123184608B010BD8C770300C47603008F
:10B37400788B030000B585B003468DF807302D4B5C
:10B384001B7883F00103DBB2002B4DD1294B002243
:10B394001A700023039343E02749039A13465B0082
:10B3A40013449B000B4408339B78C3F34003DBB284
:10B3B400002B0DD12049039A13465B0013449B00D4
:10B3C4000B4408339B78C3F30003DBB2002B24D077
:10B3D400184B01221A701849039A13465B00134450
:10B3E4009B000B4408339B78C3F34003DBB2002B70
:10B3F40003D19DF80730002B0FD0039A13465B004E
:10B4040013449B000C4A13441846FFF773FF03468A
:10B4140083F00103DBB2002B08D1039B01330393B8
:10B42400039B032BB8D902E000BF00E000BF05B0C6
:10B434005DF804FBBC2600208C26002000B585B0F6
:10B44400019001238DF80F3000238DF80E30019BFD
:10B45400DB681846FFF7B2FD0290019B1B78142BA2
:10B4640027D0142B29DC092B02D00A2B0BD024E083
:10B47400019B5B7A002B22D1029B002B1FD00298E8
:10B48400FFF7CCFD1BE0019B5B7A002B19D1029BDB
:10B49400002B16D0029B00225A60029A937A43F042
:10B4A400020393720F4B01221A7000238DF80F30A0
:10B4B40007E001238DF80E3004E000BF02E000BF76
:10B4C40000E000BF9DF80F30002B02D00198FFF779
:10B4D400EDFD9DF80E301846FFF74CFF00BF05B098
:10B4E4005DF804FBBC26002030B589B00346ADF8F6
:10B4F4000E300023059305AABDF80E3011461846F8
:10B50400FFF7F0FC079032E0079B9A78BDF80E3005
:10B514001146184600F010F90690069B002B1BD02C
:10B52400069B052B18D0254A254BD31ADB081B0490
:10B5340043F00104069809F089FF03461946BDF853
:10B544000E20079B9B78009313460A461D4920460C
:10B554000AF087FD03232EE0059B0133059305AA1A
:10B56400BDF80E3011461846FFF7BCFC0790079B48
:10B57400002BC9D1BDF80E301846FFF74FFC0690DA
:10B58400069B002B02D0069B072B01D1069B12E0E1
:10B594000A4A0B4BD31ADB081B0443F00104BDF821
:10B5A4000E50069809F052FF03462A4606492046E3
:10B5B4000AF043FD0323184609B030BD8C7703001D
:10B5C400C4760300F88B0300508C030000B583B0ED
:10B5D40003460092ADF806300B468DF805309DF811
:10B5E4000510BDF806000023009AFFF7A6FA0346EB
:10B5F400184603B05DF804FB10B588B002920193BD
:10B604000346ADF80E300B468DF80D30019B002B30
:10B6140001D10E2385E09DF80D30072B05D09DF850
:10B624000D30082B01D007237BE0029B002B02D0B6
:10B63400029B042B01D9072373E000238DF81F30EC
:10B644009DF80D20BDF80E3011461846FFF776FC24
:10B6540003460593059B002B0CD19DF80D20BDF8E6
:10B664000E1005AB1846FFF7FBFC059B002B09D118
:10B67400112356E0059B1B7A1A46029B934201D084
:10B684000F234EE0059B5B7AFF2B13D1059C029997
:10B69400254800F0E8FC03466372059B5B7AFF2BA8
:10B6A40005D1059B1846FFF7FDFB112339E0012363
:10B6B4008DF81F30059B029AD2B21A72059B5B7AF1
:10B6C4001946194800F033FD0690069B002B0ED155
:10B6D400164A174BD31ADB081B0443F00100059BE1
:10B6E4005B7A1A4613490AF097FC032319E0029B7C
:10B6F4009BB29DF80D10069A0198FFF7F1FC9DF896
:10B704001F30002B0CD09DF80D30082B08D1019B65
:10B714001B889B009AB2019B5B68063A92B29A809E
:10B724000023184608B010BD7C2600208C77030047
:10B73400C4760300A48C030000B585B003460A4612
:10B74400ADF8063013468DF805309DF80520BDF898
:10B75400063011461846FFF7F1FB0390039B002BBC
:10B7640001D1052303E00398FFF758FC0023184692
:10B7740005B05DF804FB00B585B00346ADF80630AE
:10B784000B468DF805301346ADF802309DF80530B0
:10B79400072B05D09DF80530082B01D0072326E0A0
:10B7A400BDF802301846FFF750FB034683F001034F
:10B7B400DBB2002B01D0072319E09DF80520BDF86A
:10B7C400063011461846FFF7B9FB0390039B002B84
:10B7D40001D105230BE0039BBDF802201A80039BD3
:10B7E4009DF805209A700398FFF7E6FC0346184677
:10B7F40005B05DF804FB00B585B003460091ADF8D3
:10B8040006304FF6FF73ADF80E30BDF806304FF634
:10B81400FF72934211D14FF48071009808F0ADF992
:10B824000346ADF80E30BDF80E30B3F5807F2AD153
:10B834004FF6FF73ADF80E3025E0BDF80630FF2B50
:10B8440021D8BDF806301946009808F041F903469E
:10B85400002B14BF01230023DBB283F00103DBB20E
:10B864008DF80D309DF80D3003F001038DF80D3087
:10B874009DF80D30002B02D0BDF8063001E04FF6E4
:10B88400FF73ADF80E30BDF80E30184605B05DF804
:10B8940004FB00B583B003460091ADF80630BDF853
:10B8A4000630FF2B05D8BDF806301946009808F07D
:10B8B40033F900BF03B05DF804FB000000B583B0AA
:10B8C4000346ADF80630BDF8063004491846FFF7C4
:10B8D40092FF0346184603B05DF804FBC02600201F
:10B8E40000B585B00346ADF80630BDF806304FF616
:10B8F400FF72934201D1002311E0BDF806300A49DA
:10B904001846FFF778FF0346ADF80E30BDF80E2059
:10B91400BDF806309A420CBF01230023DBB218465F
:10B9240005B05DF804FB00BFE026002000B583B03D
:10B934000346ADF80630BDF8063007491846FFF750
:10B94400A8FFBDF8063005491846FFF7A2FF00BF5F
:10B9540003B05DF804FB00BFC0260020E0260020F1
:10B9640000B583B00346ADF80630BDF80630FF2BB2
:10B9740007D8BDF806301946044808F0E6F803462F
:10B9840000E00023184603B05DF804FBC026002045
:10B9940000B583B00346ADF80630BDF80630FF2B82
:10B9A40007D8BDF806301946044808F0CEF8034617
:10B9B40000E00023184603B05DF804FBE0260020F5
:10B9C40000B585B003460091ADF80630BDF80630E9
:10B9D4004FF6FF72934204D0BDF8063001339BB298
:10B9E40000E00023ADF80E3010E0BDF80E3019462B
:10B9F400009808F0AAF80346002B02D0BDF80E30D8
:10BA04000AE0BDF80E300133ADF80E30BDF80E304B
:10BA1400FF2BEAD94FF6FF73184605B05DF804FB17
:10BA240000B583B00346ADF80630BDF806301549BD
:10BA34001846FFF7C5FF0346ADF8063016E0BDF81B
:10BA440006301846FFF7A4FF034683F00103DBB278
:10BA5400002B02D0BDF8063010E0BDF806300949CD
:10BA64001846FFF7ADFF0346ADF80630BDF80630C3
:10BA74004FF6FF729342E2D1BDF80630184603B088
:10BA84005DF804FBC026002000B583B00346ADF882
:10BA94000630BDF8063004491846FFF791FF034607
:10BAA400184603B05DF804FBE026002000B585B01D
:10BAB40001900023039308E0094A039B52F82330C2
:10BAC40001989847039B01330393064B1B781A464E
