:020000022000DC
:106000000000012019620200016202000362020026
:10601000056202000762020009620200000000003F
:106020000000000000000000000000000B62020001
:106030000D620200000000000F6202001162020007
:10604000E9E702001362020081ED020035FD020063
:106050004DFD0200136202007DEC0200136202009B
:10606000A9EF0200C1EF02001362020013620200F6
:106070001362020013620200136202001362020044
:1060800013620200D92B03001362020013620200A4
:106090001362020013620200F57D03001362020026
:1060A0001362020013620200136202001362020014
:1060B00013620200136202000000000000000000F2
:1060C00013620200136202001362020013620200F4
:1060D000136202001362020013620200000000005B
:1060E00000000000000000000000000000000000B0
:1060F00000000000000000000000000000000000A0
:10610000000000000000000000000000000000008F
:10611000000000000000000000000000000000007F
:10612000000000000000000000000000000000006F
:10613000000000000000000000000000000000005F
:10614000000000000000000000000000000000004F
:10615000000000000000000000000000000000003F
:10616000000000000000000000000000000000002F
:10617000000000000000000000000000000000001F
:10618000000000000000000000000000000000000F
:1061900000000000000000000000000000000000FF
:1061A00000000000000000000000000000000000EF
:1061B00000000000000000000000000000000000DF
:1061C00000000000000000000000000000000000CF
:1061D00000000000000000000000000000000000BF
:1061E00000000000000000000000000000000000AF
:1061F000000000000000000000000000000000009F
:10620000FEE7FEE7FEE7FEE7FEE7FEE7FEE7FEE766
:10621000FEE7FEE700F002B8FFF7FCBF0F484FF0C3
:106220000701884385460E4880470E48016841F4BF
:1062300070010160BFF34F8FBFF36F8F00F01AB88A
:1062400009480A490A4A884207D0521A05D00378F9
:1062500001300B700131013AF9D170470000012083
:10626000DD86020088ED00E0A484030060220020A7
:10627000742200203A493B480A1A02D0072291436F
:106280008D46394939480A1A06D00722914381F3CD
:106290000988022282F3148835483649364A00F0CC
:1062A00041F836483649374A00F03CF83648374915
:1062B000374A00F037F837483749384A00F032F8A3
:1062C00037483849384A00F02DF838483849394AB3
:1062D00000F028F838483949394A00F023F839489D
:1062E0003949002200F036F838483949002200F0D8
:1062F00031F838483849091A11F051FE374A9047A9
:1063000025482649884205D00268043003B49047E6
:1063100003BCF7E700208646EC4600200021304A07
:106320009047FEE7884214D0521A12D003460B431E
:1063300013430324234206D1036804300B60043165
:10634000043AF9D17047037801300B700131013AFA
:10635000F9D17047884202D002700130FAE77047E5
:106360000000012000E000200000012000000120CA
:1063700084CD0300742200200C230020E46302007B
:10638000E46302001E83030084CD03007422002016
:1063900074220020B8840300B8840300B88403008A
:1063A000B8840300B8840300B8840300B8840300F1
:1063B000B884030081CD03001CCE03000C23002011
:1063C0000C2300200C23002094540020945400201F
:1063D00098540020985400209874002041620200D4
:0463E000316902001D
:1063E40000B585B00190019B002B0AD0074B43F008
:1063F40001030393019B9B010293039B029898471B
:1064040000E000BF05B05DF804FB00BF7085030029
:1064140000B589B0059003921A460B468DF81330E7
:1064240013468DF8123000230793059B181D9DF821
:1064340012209DF813109DF8283000931346039AF8
:1064440009F08CFB0790079B184609B05DF804FB24
:1064540000B587B0039001921A460B468DF80B30B5
:1064640013468DF80A3000230593039B181D9DF8ED
:106474000A309DF80B10019A09F098FB0590059BD2
:10648400184607B05DF804FB00B583B00190019B8A
:10649400002B0AD04FF47A70FFF7A2FF019B013B57
:1064A4000193019B002BF5D100E000BF03B05DF820
:1064B40004FB000000B583B00A23019302E001202D
:1064C400FFF7E2FF134B1B78DBB283F00103DBB26F
:1064D400002B04D0019B5A1E0192002BEFD10D4BCF
:1064E4001B78DBB283F00103DBB2002B0CD00A4A29
:1064F4000A4BD31ADB081B0443F00103084918466E
:1065040010F0DAFB002300E00123184603B05DF825
:1065140004FB00BF28230020C48303008C830300F2
:10652400B884030000B587B003460A468DF80F30DF
:1065340013468DF80E309DF80F308DF810309DF80D
:106544000E308DF81130164B00221A7004AA002365
:106554000093022368211348FFF75AFF0590059B17
:10656400002B0DD0104A114BD31ADB081B0443F047
:106574000103059A0E49184610F0ACFB00230AE00B
:10658400FFF798FF034683F00103DBB2002B01D031
:10659400002300E00123184607B05DF804FB00BFA8
:1065A40028230020EC870300C48303008C830300AA
:1065B400D084030000B587B0034602918DF80F30F4
:1065C40013468DF80E30294B00221A700DF10F027C
:1065D40001230093012368212548FFF719FF059043
:1065E400059B002B0DD0234A234BD31ADB081B0435
:1065F40043F00103059A2149184610F06BFB002370
:1066040030E0FFF757FF034683F00103DBB2002BB2
:1066140001D0002326E0154B00221A709DF80E309D
:10662400029A68211248FFF713FF0590059B002B7F
:106634000DD0104A104BD31ADB081B0443F001039E
:10664400059A0F49184610F045FB00230AE0FFF7AE
:1066540031FF034683F00103DBB2002B01D000239A
:1066640000E00123184607B05DF804FB282300204E
:10667400EC870300C48303008C830300EC840300D1
:106684000C85030000B583B0304A314BD31ADB08C4
:106694001B0443F003032F49184610F00DFB01239C
:1066A4008DF8073000216B20FFF73CFF03461A46A4
:1066B4009DF807301340002B14BF012300238DF8ED
:1066C40007306420FFF7E0FE00211A20FFF72AFFBD
:1066D40003461A469DF807301340002B14BF0123CC
:1066E40000238DF8073000211C20FFF71BFF034611
:1066F4001A469DF807301340002B14BF01230023D2
:106704008DF807309DF8073083F00103DBB2002BCE
:106714000BD00E4A0E4BD31ADB081B0443F00103C3
:106724000D49184610F0C8FA0AE0084A084BD31A73
:10673400DB081B0443F003030849184610F0BCFAB5
:106744009DF80730184603B05DF804FBC4830300CA
:106754008C830300288503004485030060850300BF
:1067640000B587B003900291019204AB062219464A
:106774003B20FFF71FFF034683F00103DBB2002B2E
:1067840001D0002324E09DF810301BB21B021AB282
:106794009DF811301BB213431AB2039B1A809DF863
:1067A40012301BB21B021AB29DF813301BB21343F2
:1067B4001AB2029B1A809DF814301BB21B021AB243
:1067C4009DF815301BB213431AB2019B1A800123A2
:1067D400184607B05DF804FB034B00221A60034B14
:1067E40000221A7000BF70470C23002010230020E1
:1067F40000B587B00DF1020201A90DF10603184698
:10680400FFF7AEFF034683F00103DBB2002B0BD08E
:106814003D4A3E4BD31ADB081B0443F002033C49B8
:10682400184610F049FA6BE0BDF9063007EE903ACD
:10683400B8EEE77ADFED376AC7EE267ACDED057A52
:10684400BDF9043007EE903AB8EEE77ADFED316A2D
:10685400C7EE267ACDED047ABDF9023007EE903A00
:10686400B8EEE77ADFED2B6AC7EE267ACDED037A30
:10687400DDED057A27EEA77ADDED047A67EEA77AD7
:1068840037EE277ADDED037A67EEA77A77EE277A7B
:10689400B0EE670A11F07EFB8DED020ADDED027A9F
:1068A4009FED1D7AF4EEC77AF1EE10FA1CDD1B4B56
:1068B4001B7883F00103DBB2002B15D0174B0122A8
:1068C4001A70174B1B680133154A13600E4A0F4B9D
:1068D400D31ADB081B0443F00303114A126811495D
:1068E400184610F0F7F90BE0DDED027A9FED0E7A11
:1068F400F4EEC77AF1EE10FA02D5084B00221A70B2
:1069040007B05DF804FB00BFC48303008C8303005D
:1069140078850300000080469A99993F102300204F
:106924000C2300208C8503006666663F2DE9F04F3A
:1069340089B007F03DF90446002840F0B1800020FA
:1069440007F02CFA002007F099F94FF400410020D9
:106954000FF090FE002840F0AD800FF00DFE0320F4
:1069640000F00CFADFF8848101F060F901F092F98B
:10697400534B5449A8EB03084FEAD8084FEA084898
:1069840048F00306304610F097F9FFF77BFE002825
:106994007FD14D4948F0010010F08EF900F028FC39
:1069A4004A49304610F088F900F0C0FC48492246B4
:1069B400304610F08FF90BF07BFB002875D1454D64
:1069C400454F0023CDE90533079345F0010500F059
:1069D400F7FCFFF701FF01F01DFA70B939463046A4
:1069E40010F06AF94FF47A744FF47A40A847013CE6
:1069F400FAD101F00FFA0028F0D03849384FDFF807
:106A0400F0B0DFF8F0A0DFF8F090304610F054F961
:106A140048F00208FFF7ECFE0DF1120204A90DF193
:106A24000E00FFF79DFE78B3BDF912300093BDF957
:106A34000E20BDF910305146304610F070F906AA08
:106A440005A907A801F0C1FAC8B1DDED077AB8EECF
:106A5400670A00F01DFD3B88834201D000B13880F5
:106A64000A244FF47A40A847013CFAD110F0AEF959
:106A74000028CFD010F0AAF90028F7D1CAE7494678
:106A8400304610F019F9EBE75946404610F014F976
:106A9400D5E7FFF7A1FE1349304610F00DF97DE765
:106AA400114AC0210AF054FF49E70F4AEE210AF0C7
:106AB4004FFF84E70C4AC6210AF04AFF4DE700BFA6
:106AC4008C830300108603002C8603005886030081
:106AD400748603004087030098860300C48603007D
:106AE400122300204886030098850300C483030012
:106AF4000C870300E88603002087030000B583B0F9
:106B04000190019B1B68184600F0B5F80346002B62
:106B140004D105494FF4F6700DF0C2FB4FF0A043C9
:106B2400184603B05DF804FB4887030000B585B040
:106B34000190084611461A4603468DF803300B4669
:106B44008DF8023013468DF8013001AB1846FFF77B
:106B5400D5FF03909DF803209DF802305B001A4393
:106B64009DF801309B001A439DF818301B0242EA3D
:106B740003019DF81C301B04019A1943039B02F581
:106B8400E07243F8221000BF05B05DF804FB00B5C5
:106B940085B0039000230193002300930023012276
:106BA40001210398FFF7C2FF00BF05B05DF804FBA5
:106BB40000B585B003900B468DF80B309DF80B3073
:106BC4000022019200220092002200210398FFF784
:106BD400ADFF00BF05B05DF804FB00B585B00190C2
:106BE40001AB1846FFF78AFF0390019B012202FACA
:106BF40003F31946039800F02AF800BF05B05DF8C6
:106C040004FB00B585B0019001AB1846FFF776FF91
:106C14000390019B012202FA03F31946039800F042
:106C240020F800BF05B05DF804FB00B583B0019007
:106C34000091009B002B03D10198FFF7E2FF02E0D3
:106C44000198FFF7CAFF00BF03B05DF804FB82B0F0
:106C540001900091019B009AC3F8082500BF02B07F
:106C6400704782B001900091019B009AC3F80C25F3
:106C740000BF02B0704784B00190019B5B0902938E
:106C840000230393029B002B03D14FF0FF330393A4
:106C940000BF019B03F01F030193039A019B22FA97
:106CA40003F303F00103002B14BF01230023DBB221
:106CB400184604B07047000000B583B00190019BF2
:106CC400032B03D9074947200DF0EAFA064A019B32
:106CD40013441B7801211846FFF7A7FF00BF03B038
:106CE4005DF804FB78870300E487030000B583B0F4
:106CF4000023019305E00198FFF7DEFF019B0133B8
:106D04000193019B032BF6D900BF00BF03B05DF8CC
:106D140004FB000000B583B00023019309E0094A95
:106D2400019B13441B781846FFF731FF019B013385
:106D34000193019B032BF2D9FFF7D8FF00BF03B0E7
:106D44005DF804FBE487030000B583B000230193DE
:106D54000AE0094A019B13441B7803211846FFF7F4
:106D640027FF019B01330193019B032BF1D900BF42
:106D740000BF03B05DF804FBE887030000B583B0EF
:106D84000190019B03F00103002B01D0FFF7C2FF28
:106D9400019B03F00203002B01D0FFF7D5FF00BFD6
:106DA40003B05DF804FB000084B001900B468DF83D
:106DB400033013468DF8023000230393019B032B09
:106DC4003CD89DF80230012B0BD19DF80330012BE8
:106DD40004D1019BDBB20E33DBB200E000238DF85B
:106DE40002309DF80330022B0FD0022B23DC002B42
:106DF40016D0012B1FD11449019A13465B0013448A
:106E04000B449DF802201A701AE00F49019A1346A8
:106E14005B0013440B4401339DF802201A700FE009
:106E24000949019A13465B0013440B4402339DF84D
:106E340002201A7004E00723039301E0072303935D
:106E4400039B184604B070471423002000B583B098
:106E5400012200210020FFF7A7FF0190019B002BD6
:106E640004D0019B072B01D0019B1CE007220221C7
:106E74000120FFF799FF0190019B002B04D0019B97
:106E8400072B01D0019B0EE0042202210020FFF712
:106E94008BFF0190019B002B04D0019B072B01D099
:106EA400019B00E00023184603B05DF804FB00B525
:106EB40083B0012202210020FFF776FF0190019B9D
:106EC400002B04D0019B072B01D0019B1CE007225F
:106ED40002210120FFF768FF0190019B002B04D0E1
:106EE400019B072B01D0019B0EE00A220021002008
:106EF400FFF75AFF0190019B002B04D0019B072B45
:106F040001D0019B00E00023184603B05DF804FBA8
:106F140000B585B001900091019B1B88102B02D015
:106F2400112B18D02FE01A4B1B68002B0DD1FFF743
:106F34008DFF0390039B002B07D0164B1B68002B7F
:106F440003D0144B1B6803989847114B1B680133FB
:106F54000F4A136017E00E4B1B68013B0C4A136089
:106F64000B4B1B68002B0DD1FFF7A1FF0390039B74
:106F7400002B07D0074B1B68002B03D0054B1B6865
:106F84000398984700BF00BF05B05DF804FB00BF3D
:106F9400242300202023002000B583B00190009119
:106FA400019B1B78022B19D0022B26DC002B02D06C
:106FB400012B04D021E0134B01221A701EE0124A67
:106FC400124BD31ADB081B0443F003031049184681
:106FD4000FF072FE0B4B01221A700FE00A4A0B4BA2
:106FE400D31ADB081B0443F003030A4918460FF0C5
:106FF40063FE044B01221A7000E000BF00BF03B01F
:107004005DF804FB28230020C48303008C83030061
:10701400FC8703001088030010B5D4B054ABA3F56B
:10702400A273186054ABA3F5A27306226A491868C8
:1070340011F016F80346002B5ED154ABA3F5A273EE
:1070440010A84FF48072196810F0EEFF54ABA3F54A
:10705400A073184630231A46002111F0C3F8002308
:10706400539310AB5D49184611F032F852900DE07D
:10707400539B5A1C539254AAA2F5A072529942F8F7
:1070840023105649002011F023F85290529B002BF4
:1070940002D0539B0B2BEBD9539B062B40F29880C9
:1070A40054ABA3F5A0739B681B78412B40F09080F0
:1070B4004B4A4C4BD31ADB081B0443F0030054AB7C
:1070C400A3F5A073DB68194654ABA3F5A0731B6941
:1070D4001B781C4654ABA3F5A0735B691A4654ABEA
:1070E400A3F5A0739B691B780193009223460A467B
:1070F4003D490FF02AFE6BE054ABA3F5A2730622C0
:107104003A49186810F0ACFF0346002B60D154AB29
:10711400A3F5A27310A84FF48072196810F084FFCD
:1071240054ABA3F5A073184628231A46002111F086
:1071340059F80023519310AB2849184610F0C8FFA2
:1071440050900DE0519B5A1C519254AAA2F5A07282
:10715400509942F823102149002010F0B9FF5090B3
:10716400509B002B02D0519B092BEBD9519B052B33
:107174002ED954ABA3F5A0739B68002B28D054AB35
:10718400A3F5A0731B69002B22D0154A154BD31A03
:10719400DB081B0443F0030054ABA3F5A0739B6806
:1071A400194654ABA3F5A073DB681B781C4654AB9B
:1071B400A3F5A0731B691A4654ABA3F5A0735B69CE
:1071C4001B780193009223460A4607490FF0BDFD40
:1071D40000BF54B010BD00BF2088030028880300FE
:1071E400C48303008C8303002C88030044880300B9
:1071F40008B5054B00221A604FF480720021034841
:1072040010F0F0FF00BF08BD2C2400202C23002028
:1072140010B582B003468DF807309DF807300D2B6A
:1072240003D09DF807300A2B1FD11A4B1B68002B83
:107234002DD0184B1B68184A0021D154174A184BFB
:10724400D31ADB081B0443F0030413480FF09CFC1F
:1072540003461A46134920460FF03CFD0E48FFF73B
:10726400DBFE0C4B00221A6011E00A4B1B68FE2B5C
:1072740009D8084B1B685A1C06490A6006499DF840
:107284000720CA5403E0034B00221A60FFE700BF43
:1072940002B010BD2C2400202C230020C483030042
:1072A4008C8303004C88030000B585B001900091E5
:1072B400019B1B78012B18D1164B1B781846FFF73E
:1072C400A7FF01221349144809F07CFA0390039B99
:1072D400112BF6D0039B0293029B002B16D00F4A6E
:1072E4001D2102980AF034FB10E0019B1B78022B4D
:1072F4000CD10B4A0B4BD31ADB081B0443F00100DF
:10730400019BDB681A4608490FF0E4FC00BF05B096
:107314005DF804FB302400205888030060880300D3
:10732400C48303008C830300EC88030030B58DB064
:107334001D4B01AC1D460FCD0FC495E80F0084E82A
:107344000F000623019308230293184B079300238D
:107354008DF8183000238DF8193001AB144A194602
:10736400144809F06DF80B900B9B0A930A9B002BB1
:1073740004D0114A32210A980AF0EAFA01220F498C
:107384000C4809F01FFA0B900B9B112BF6D00B9BAA
:107394000993099B002B04D0074A382109980AF065
:1073A400D7FA00BF0DB030BD048903000050270098
:1073B400AD72020058880300608803003024002066
:1073C40000B583B0244A254BD31ADB081B0443F0D1
:1073D4000303234918460FF06FFC224B00221A6066
:1073E400214B00221A80214B00221A60204B0022DC
:1073F4001A700023ADF806300CE0BDF806301D4AC3
:107404009B0013444FF000021A60BDF806300133AC
:10741400ADF80630BDF80630632BEED9164B4FF0AD
:1074240000021A60154B164A1A60164B4FF0000200
:107434001A60124B1B68144A1360074A074BD31A8D
:10744400DB081B0443F00303104918460FF034FC17
:1074540000BF03B05DF804FBC48303008C83030006
:107464002489030034240020382400203C240020F4
:10747400442400204C240020E02500207422002015
:1074840000803B4648240020402400204889030013
:1074940010B590B08DED030A9A4A9B4BD31ADB08C2
:1074A4001B0443F00303994918460FF005FC984B5D
:1074B4001B680133964A1360924A934BD31ADB0834
:1074C4001B0443F00303924A1268924918460FF0D2
:1074D40001FC9DED030A10F04DFD0346002B06D17F
:1074E4009DED030A10F04EFD0346002B0DD1854A95
:1074F400854BD31ADB081B0443F001038649184665
:107504000FF0DAFB854B1B88FEE2DDED037A9FED7D
:10751400847A27EE877A834BD3ED007ADFED826A93
:1075240067EEA67A77EE277A7E4BC3ED007A7D4B21
:10753400D3ED007AB0EE670A10F01CFD0346002B71
:1075440009D1784BD3ED007AB0EE670A10F01AFD3A
:107554000346002B0DD16B4A6B4BD31ADB081B047B
:1075640043F00103714918460FF0A6FB6D4B704AB6
:107574001A60704B93ED007A6A4BD3ED007A37EEC4
:10758400277A6D4BD3ED007A77EE677AB6EE007A00
:1075940067EE877A674BC3ED007A664BD3ED007ACA
:1075A400B0EE670A10F0E6FC0346002B09D1614BEC
:1075B400D3ED007AB0EE670A10F0E4FC0346002B2A
:1075C40012D1504A504BD31ADB081B0443F0010379
:1075D4005A4918460FF070FB564B4FF000021A60E0
:1075E400504B1B68544A1360464A474BD31ADB0876
:1075F4001B0443F003004F4BD3ED007AF5EEC07A41
:10760400F1EE10FA0BD54B4BD3ED007ABFEE007AB6
:10761400F4EEC77AF1EE10FA01DD494A00E0494A76
:10762400444BD3ED007AFDEEE77A17EE901A414B06
:10763400D3ED007AF5EEC07AF1EE10FA0CDD3D4B95
:1076440093ED007A3B4BD3ED007AFDEEE77AF8EE4A
:10765400E77A77EE677A0BE0364BD3ED007AFDEEEE
:10766400E77AB8EEE77A334BD3ED007A77EE677AB0
:107674009FED357A67EE877AFDEEE77A17EE903A5A
:1076840000930B4631490FF04AFB264B1B682A4AEC
:107694001360284B93ED007A2D4BD3ED007A77EEEF
:1076A400677ACDED047A9DED040A10F063FC03467D
:1076B400002B06D19DED040A10F064FC0346002B58
:1076C4000DD1104A104BD31ADB081B0443F00103FD
:1076D400204918460FF0F0FA4FF000030493154BBD
:1076E4001B681B4A136000238DF81730DDED047A04
:1076F400F5EEC07AF1EE10FA2EDD01238DF8173085
:1077040034E000BFC48303008C8303006C8903004E
:10771400342400208C890300AC8903003824002021
:10772400CDCC4C3D742200203333733FE8890300F1
:1077340000803B464824002040240020288A03007F
:10774400688A03006C8A03000000C842708A030040
:10775400E4250020948A0300DDED047AF5EEC07A76
:10776400F1EE10FA02D5FF238DF8173000238DF8BF
:1077740027309C4B93ED007A9B4B1B889B4A9B00C4
:107784001344D3ED007A77EE677A964BC3ED007A13
:10779400954B1B881846964B1A68944983000B44F2
:1077A4001A60904B93ED007A914BD3ED007A77EE0B
:1077B400277A8C4BC3ED007A8B4B1B8801338D4A9F
:1077C40082FB03125111DA178A1A642101FB02F2B7
:1077D4009A1A92B2844B1A80824B93ED007ADFEDB1
:1077E400866AC7EE267ACDED067A9DED060A10F07C
:1077F400C1FB0346002B06D19DED060A10F0C2FB27
:107804000346002B26D17D4A7D4BD31ADB081B048B
:1078140043F001037B4918460FF04EFA4FF0000382
:107824000693704B4FF000021A600023ADF81E302F
:107834000CE0BDF81E306D4A9B0013444FF000026B
:107844001A60BDF81E300133ADF81E30BDF81E308D
:10785400632BEED94FF000030E930023ADF83630BE
:107864001BE0BDF83630614A9B00134493ED007A67
:10787400DDED067A77EE677ACDED0F7ADDED0F7ADE
:1078840067EEA77A9DED0E7A77EE277ACDED0E7A24
:10789400BDF836300133ADF83630BDF83630632BE1
:1078A400DFD9DDED0E7ADFED546A87EEA67AB0EE0D
:1078B400470A10F06FFB8DED080A9DED080A10F0E1
:1078C40059FB0346002B06D19DED080A10F05AFB24
:1078D4000346002B0DD1494A494BD31ADB081B043C
:1078E40043F00103484918460FF0E6F94FF000034E
:1078F4000893DDED087A9FED457A67EE877A9DED72
:10790400067A77EE277ACDED0A7A9DED0A0A10F011
:1079140031FB0346002B06D19DED0A0A10F032FB21
:107924000346002B0CD1354A354BD31ADB081B0414
:1079340043F00103364918460FF0BEF9069B0A933B
:10794400344B93F90030002B40F385809DF91730B8
:10795400002B80F28080264BD3ED007A9DED0A7ACD
:10796400B4EEE77AF1EE10FA75D501238DF82730DD
:10797400224A234BD31ADB081B0443F00300264B93
:107984001A681B4BD3ED007AF5EEC07AF1EE10FACB
:107994000BD5174BD3ED007ABFEE007AF4EEC77A1D
:1079A400F1EE10FA01DD1D4B00E01D4B1049D1ED45
:1079B400007AFDEEE77A17EE904A0D49D1ED007A90
:1079C400F5EEC07AF1EE10FA2CDD094991ED007A5A
:1079D4000749D1ED007AFDEEE77AF8EEE77A77EE23
:1079E400677A2BE0E0250020DC2500204C240020D1
:1079F400482400201F85EB510000C842C4830300C3
:107A04008C830300D88A0300248B03009A99993F3E
:107A1400708B03004424002034240020688A03006F
:107A24006C8A03003A49D1ED007AFDEEE77AB8EEAC
:107A3400E77A3749D1ED007A77EE677A9FED357AA8
:107A440067EE877AFDEEE77A17EE901A01910094BB
:107A540031490FF07AF9314A9DF8173013709DF8C7
:107A64002730002B50D02E4B1A682E4B1B68D31A8C
:107A74000B932B4B1B682B4A13600B9A13469B00EA
:107A840013445B000C930C9BB3F5967F39D30C9B8A
:107A940040F2DC52934234D84EF660220C9BB2FB87
:107AA400F3F39AB2204B1A80204A214BD31ADB08F5
:107AB4001B0443F003031C4A12881E4918460FF0A6
:107AC40009F900F0BEFA034683F00103DBB2002B90
:107AD4000BD0164A164BD31ADB081B0443F00103E0
:107AE400154918460FF0E8F80BE0104A104BD31A6A
:107AF400DB081B0443F002030C9A104918460FF0EC
:107B0400E9F8094B1B88FFE7184610B010BD00BF09
:107B1400482400200000C842C48B030044240020F1
:107B2400342400203C24002038240020C483030093
:107B34008C830300F88B0300148C0300408C030037
:107B440000B585B00190019B002B0AD0074B43F090
:107B540001030393019B9B010293039B02989847A3
:107B640000E000BF05B05DF804FB00BF208D0300FA
:107B740000B583B00190019B0433184607F0A8FCBC
:107B840000BF03B05DF804FB00B589B00590039213
:107B94001A460B468DF8133013468DF81230002325
:107BA4000793059B181D9DF812209DF813109DF84E
:107BB400283000931346039A07F0D0FF0790079BE1
:107BC400184609B05DF804FB00B587B00390019234
:107BD4001A460B468DF80B3013468DF80A300023F5
:107BE4000593039B181D9DF80A309DF80B10019A0C
:107BF40007F0DCFF0590059B184607B05DF804FB11
:107C040000B583B00190019B002B0AD04FF47A7029
:107C1400FFF796FF019B013B0193019B002BF5D1DC
:107C240000E000BF03B05DF804FB000000B587B0BE
:107C34006B4600221A605A609A60DA601B23009334
:107C44001A2301934FF0CD63029302238DF80C3075
:107C540001238DF80D30694600230B4A0B4806F0CA
:107C6400EFFA0590059B0493049B002B04D0084A6B
:107C74001E21049809F06CFE0448FFF779FF00BF49
:107C840007B05DF804FB00BF9D6F0200EC870300A2
:107C9400648C030000B585B01C4A1D4BD31ADB0865
:107CA4001B0443F003031B4918460FF005F8012396
:107CB4008DF80F3021E09DF80F100023009300236E
:107CC40000221548FFF760FF0290029B002B0CD1A5
:107CD4000E4A0F4BD31ADB081B0443F003039DF831
:107CE4000F200E4918460EF0F5FF0220FFF788FF1B
:107CF4009DF80F3001338DF80F309DF80F307E2B37
:107D0400D9D900BF00BF05B05DF804FBC4830300EC
:107D14008C830300D48C0300EC870300E48C030001
:107D240000B587B003460A468DF80F3013468DF828
:107D34000E309DF80F308DF810309DF80E308DF810
:107D440011300F4B00221A7004AA0023009302235F
:107D540057210C48FFF718FF059000BF084B1B780C
:107D6400DBB283F00103DBB2002BF7D1059B002BC0
:107D74000CBF01230023DBB2184607B05DF804FBF7
:107D840028230020EC87030000B587B00346029146
:107D94008DF80F3013468DF80E301C4B00221A70EC
:107DA4000DF10F0201230093012357211848FFF717
:107DB400EBFE059000BF154B1B78DBB283F001038B
:107DC400DBB2002BF7D1059B002B01D0002319E077
:107DD4000E4B00221A709DF80E30029A57210C485F
:107DE400FFF7F2FE059000BF084B1B78DBB283F06F
:107DF4000103DBB2002BF7D1059B002B0CBF012341
:107E04000023DBB2184607B05DF804FB28230020EA
:107E1400EC87030000B583B001238DF807304021BF
:107E24000920FFF77DFF03461A469DF807301340EB
:107E3400002B14BF012300238DF807306420FFF7C3
:107E4400DFFE00210420FFF76BFF03461A469DF86E
:107E540007301340002B14BF012300238DF8073093
:107E640000210520FFF75CFF03461A469DF8073002
:107E74001340002B14BF012300238DF80730002189
:107E84000620FFF74DFF03461A469DF807301340BE
:107E9400002B14BF012300238DF807301F21082075
:107EA400FFF73EFF03461A469DF807301340002BA8
:107EB40014BF012300238DF8073007210920FFF7A1
:107EC4002FFF03461A469DF807301340002B14BFBA
:107ED400012300238DF8073047210A20FFF720FFF4
:107EE40003461A469DF807301340002B14BF0123A4
:107EF40000238DF8073001210C20FFF711FF034602
:107F04001A469DF807301340002B14BF01230023A9
:107F14008DF8073001210D20FFF702FF03461A46B2
:107F24009DF807301340002B14BF012300238DF864
:107F340007307F210E20FFF7F3FE03461A469DF813
:107F440007301340002B14BF012300238DF80730A2
:107F540020210F20FFF7E4FE03461A469DF8073060
:107F64001340002B14BF012300238DF80730212375
:107F74008DF8063003238DF805309DF80630194638
:107F84001120FFF7CDFE03461A469DF80730134033
:107F9400002B14BF012300238DF807309DF8053012
:107FA40019461220FFF7BCFE03461A469DF8073017
:107FB4001340002B14BF012300238DF807309DF8D4
:107FC4000730184603B05DF804FB00B589B0039090
:107FD4000291019205AB092219460720FFF7D4FE4E
:107FE400034683F00103DBB2002B01D0002324E01D
:107FF4009DF814301A049DF815301B0213439DF8A4
:1080040016201A43029B1A609DF817301A049DF833
:1080140018301B0213439DF819201A43019B1A6060
:108024009DF81A301A049DF81B301B0213439DF867
:108034001C201A43039B1A600123184609B05DF8FB
:1080440004FB00B583B001238DF807300021042020
:10805400FFF766FE03461A469DF807301340002BCF
:1080640014BF012300238DF8073000210520FFF7FA
:1080740057FE03461A469DF807301340002B14BFE1
:10808400012300238DF8073000210620FFF748FE66
:1080940003461A469DF807301340002B14BF0123F2
:1080A40000238DF807309DF80730184603B05DF8BB
:1080B40004FB0000BFF34F8F00BF064BDB6803F4E3
:1080C400E0620449044B1343CB60BFF34F8F00BFFE
:1080D40000BFFDE700ED00E00400FA0582B01D4B8F
:1080E4001B68B3F1FF3F0AD11B4B1B68DBB2019342
:1080F4001A4B1B681B0903F00F03009305E0154B93
:108104001B680193164B1B680093019B062B1DD122
:10811400009B033B042B17D801A252F823F000BFA5
:10812400398102003D810200418102004581020043
:108134004981020001230AE0012308E0012306E04B
:10814400012304E0012302E0012300E00023184698
:1081540002B0704730010010E00F00F0E80F00F0AB
:108164003401001082B0174B1B68DBB20193164B2D
:108174001B681B0903F00F030093019B062B1DD101
:10818400009B033B042B17D801A252F823F000BF35
:10819400A9810200AD810200B1810200B581020013
:1081A400B981020001230AE0002308E0002306E06D
:1081B400002304E0002302E0002300E0002318462B
:1081C40002B07047E00F00F0E80F00F082B01D4BE2
:1081D4001B68B3F1FF3F0AD11B4B1B68DBB2019351
:1081E4001A4B1B681B0903F00F03009305E0154BA2
:1081F4001B680193164B1B680093019B062B1DD132
:10820400009B033B042B17D801A252F823F000BFB4
:10821400298202002D82020031820200358202008E
:108224003982020001230AE0012308E0012306E069
:10823400012304E0012302E0012300E000231846A7
:1082440002B0704730010010E00F00F0E80F00F0BA
:108254003401001082B0174B1B68DBB20193164B3C
:108264001B681B0903F00F030093019B062B1DD110
:10827400009B033B042B17D801A252F823F000BF44
:10828400998202009D820200A1820200A58202005E
:10829400A982020001230AE0002308E0002306E08B
:1082A400002304E0002302E0002300E0002318463A
:1082B40002B07047E00F00F0E80F00F082B01D4BF1
:1082C4001B68B3F1FF3F0AD11B4B1B68DBB2019360
:1082D4001A4B1B681B0903F00F03009305E0154BB1
:1082E4001B680193164B1B680093019B062B1DD141
:1082F400009B033B042B17D801A252F823F000BFC4
:10830400198302001D8302002183020025830200D9
:108314002983020001230AE0012308E0012306E087
:10832400012304E0012302E0012300E000231846B6
:1083340002B0704730010010E00F00F0E80F00F0C9
:108344003401001082B0174B1B68DBB20193164B4B
:108354001B681B0903F00F030093019B062B1DD11F
:10836400009B033B042B17D801A252F823F000BF53
:10837400898302008D8302009183020095830200A9
:108384009983020001230AE0002308E0002306E0A9
:10839400002304E0002302E0002300E00023184649
:1083A40002B07047E00F00F0E80F00F082B0174B06
:1083B4001B68DBB20193164B1B681B0903F00F0308
:1083C4000093019B062B1DD1009B033B042B17D864
:1083D40001A252F823F000BFF1830200F5830200EA
:1083E400F9830200FD8302000184020001230AE0F4
:1083F400002308E0002306E0002304E0002302E059
:10840400002300E00023184602B07047E00F00F09C
:10841400E80F00F082B01D4B1B68B3F1FF3F0AD197
:108424001B4B1B68DBB201931A4B1B681B0903F03F
:108434000F03009305E0154B1B680193164B1B6853
:108444000093019B062B1DD1009B033B042B17D8E3
:1084540001A252F823F000BF718402007584020067
:10846400798402007D8402008184020000230AE0F2
:10847400002308E0012306E0012304E0012302E0D5
:10848400012300E00023184602B0704730010010B9
:10849400E00F00F0E80F00F03401001082B01D4B33
:1084A4001B68B3F1FF3F0AD11B4B1B68DBB201937E
:1084B4001A4B1B681B0903F00F03009305E0154BCF
:1084C4001B680193164B1B680093019B062B1DD15F
:1084D400009B033B042B17D801A252F823F000BFE2
:1084E400F9840200FD840200018502000585020072
:1084F4000985020001230AE0012308E0012306E0C4
:10850400012304E0012302E0012300E000231846D4
:1085140002B0704730010010E00F00F0E80F00F0E7
:108524003401001082B01D4B1B68B3F1FF3F0AD128
:108534001B4B1B68DBB201931A4B1B681B0903F02E
:108544000F03009305E0154B1B680193164B1B6842
:108554000093019B062B1DD1009B033B042B17D8D2
:1085640001A252F823F000BF818502008585020034
:10857400898502008D8502009185020001230AE0AD
:10858400012308E0012306E0012304E0012302E0C3
:10859400012300E00023184602B0704730010010A8
:1085A400E00F00F0E80F00F03401001082B0154B2A
:1085B4001B680193144B1B680093019B062B1DD170
:1085C400009B033B042B17D801A252F823F000BFF1
:1085D400E9850200ED850200F1850200F5850200BF
:1085E400F985020000230AE0002308E0002306E0E6
:1085F400012304E0012302E0012300E000231846E4
:1086040002B07047300100103401001082B0154BE5
:108614001B680193144B1B680093019B062B1DD10F
:10862400009B033B042B17D801A252F823F000BF90
:10863400498602004D8602005186020055860200DA
:108644005986020000230AE0002308E0002306E024
:10865400002304E0012302E0012300E00023184684
:1086640002B07047300100103401001008B5FFF764
:10867400CDFF0346002B07D04FF010234FF080426C
:10868400D3F80832C2F8583500BF08BD00BF044B08
:10869400D3F80034002BFAD000BF00BF704700BFEE
:1086A40000E0014000B583B00190054A019BC2F887
:1086B4000435FFF7EBFF00BF03B05DF804FB00BF18
:1086C40000E00140024B034A1A6000BF704700BF3C
:1086D400782200200090D00308B5FFF7FFFC034682
:1086E400002B06D0964B1B681B0A964A03F01F0307
:1086F4001360FFF737FD0346002B02D0924B934AD9
:108704001A60FFF763FD0346002B06D0904B1B68ED
:108714005B0B904A03F007031360FFF79BFD0346CE
:10872400002B05D08C4BDB688B4A23F08073D3601D
:10873400FFF7C4FD0346002B0ED04FF08043002208
:10874400C3F80C214FF080430022C3F810214FF0EE
:1087540080430022C3F83825FFF7F4FD0346002BBD
:1087640002D07E4B03221A60FFF720FE0346002B43
:108774000BD07B4B05221A607A4B01221A607A4B8C
:1087840000221A60794B3F221A60FFF743FE03462A
:10879400002B76D04FF08053754AD3F80434C2F8D6
:1087A40020354FF08053724AD3F80834C2F8243588
:1087B4004FF080536E4AD3F80C34C2F828354FF08A
:1087C40080536B4AD3F81034C2F82C354FF08053E1
:1087D400674AD3F81434C2F830354FF08053644AF2
:1087E400D3F81834C2F834354FF08053604AD3F8C4
:1087F4001C34C2F840354FF080535D4AD3F820341E
:10880400C2F844354FF08053594AD3F82434C2F89F
:1088140048354FF08053564AD3F82834C2F84C35C3
:108824004FF08053524AD3F82C34C2F850354FF0ED
:1088340080534F4AD3F83034C2F854354FF0805344
:108844004B4AD3F83434C2F860354FF08053484A69
:10885400D3F83834C2F864354FF08053444AD3F81F
:108864003C34C2F868354FF08053414AD3F8403461
:10887400C2F86C354FF080533D4AD3F84434C2F803
:108884007035FFF70BFE0346002B05D0394B1B68F0
:10889400394A03F04F031360FFF744FE0346002BED
:1088A4000DD04FF08043D3F8003403F00103002BC4
:1088B40005D04FF080436FF00102C3F80024FFF7A6
:1088C40075FE0346002B05D02C4B1B682B4A43F442
:1088D400806313602A4BD3F88830294A43F4700329
:1088E400C2F88830BFF34F8F00BFBFF36F8F00BF54
:1088F400FFF7BCFE4FF01023D3F80032002B05DB4A
:108904004FF01023D3F80432002B15DA0120FFF7BF
:10891400C9FE4FF010231522C3F80022FFF7B6FE5C
:108924004FF010231522C3F80422FFF7AFFE0020F6
:10893400FFF7B8FEFFF7BEFBFFF7C4FE00BF08BD9C
:10894400240300104035014074C007400DF0ADBA57
:10895400440200103C050040F0ED00E0A00500409A
:1089640010560040885600401856004014560040E7
:1089740000C0004058020010E40E00403C170040C4
:1089840000ED00E084B00346ADF806300023039305
:1089940016E00F49039A13469B0013449B000B44B3
:1089A4001B88BDF806209A4207D1039A13469B0000
:1089B40013449B00064A134406E0039B01330393CC
:1089C400039B002BE5D00023184604B0704700BF7A
:1089D400E825002082B001900B46ADF80230019BDF
:1089E400BDF802201A80019B00221A72019B0549DE
:1089F40003F10A020B4603CB1060516000BF02B0C2
:108A0400704700BF1826002082B00190019B4FF6EA
:108A1400FF721A8000BF02B0704788B003900291C1
:108A240011461A460B46ADF806301346ADF804302D
:108A3400039B9B881A46BDF8063013440793039B97
:108A44009B881946039B9B88BDF80620934228BF48
:108A540013469BB2CB1A0693039BDB881A46BDF8D8
:108A6400043013440593039BDB881946039BDB887E
:108A7400BDF80420934228BF13469BB2CB1A04933B
:108A8400029B5A88039B1B889A4205D3029B5A88EF
:108A9400039B5B889A4201D900231CE0029B9B88BC
:108AA4001A46069B934205D8029B9B881A46079B4D
:108AB400934201D200230EE0029BDB881A46049BFA
:108AC400934205D8029BDB881A46059B934201D248
:108AD400002300E00123184608B0704700B583B0B6
:108AE4000190064B9B69002B03D0044B9B690198B2
:108AF400984700BF03B05DF804FB00BFFC250020CD
:108B040000B587B003460091ADF80630009B5B7A50
:108B1400002B1AD1009B1B7A002B03D1164B5B68E8
:108B2400059302E0144B9B680593009B5B68BDF8BA
:108B340006200599184609F0F9FA0490049B002BC5
:108B440016D00498FFF7CAFF12E0009B00221A72A5
:108B5400094B5B69002B0BD001238DF80C30BDF859
:108B64000630ADF80E30044B5B6903AA10469847F3
:108B740000BF07B05DF804FBFC25002000B585B0FC
:108B84000190019BDB7B8DF80F30019B9B88ADF836
:108B94000C309DF80F30012B2CD14FF6FF70FFF7EE
:108BA400F1FE0290029B002B03D10420FFF796FFF5
:108BB40021E0BDF80C3019460298FFF70BFF029B29
:108BC40003F10A00019B03F110014FF6FF7340F219
:108BD400F312FFF722FF03461A46029B5A72074B11
:108BE400DB89002B07D1BDF80C3002991846FFF73A
:108BF40087FF00E000BF05B05DF804FBFC25002002
:108C040000B587B00190019B9B88ADF81630BDF884
:108C140016301846FFF7B6FE0490049B002B0ED0C6
:108C2400049B5B68184609F0D9FA0390039B002B58
:108C340002D00398FFF752FF0498FFF7E5FE00BF48
:108C440007B05DF804FB000000B587B00190019BFC
:108C540006330593059B1A88194BDB899A422BD15D
:108C6400059B5B89022B27D1019B9B88ADF81230B1
:108C7400BDF812301846FFF785FE0390039B002BC6
:108C84001AD0059B0C33184600F083FB0346002BD7
:108C940006D0BDF8123003991846FFF731FF0BE0F8
:108CA400039B5B68184609F099FA0290029B002B1B
:108CB40002D00298FFF712FF00BF07B05DF804FB73
:108CC400FC25002000B585B00190019B9B88ADF880
:108CD4000E30BDF80E301846FFF754FE0290029B8A
:108CE400002B15D0029B03F10A00019B03F108013C
:108CF4004FF6FF7340F2F312FFF78FFE03461A4656
:108D0400029B5A72BDF80E3002991846FFF7F8FE1E
:108D140000BF05B05DF804FB00B583B0019000917D
:108D2400019B1B88502B12D0502B18DC122B12D015
:108D3400122B14DC102B02D0112B04D00FE001985D
:108D4400FFF71CFF0CE00198FFF75AFF08E00198B9
:108D5400FFF77AFF04E00198FFF7B4FF00E000BFDB
:108D640000BF03B05DF804FB30B58FB001900091F3
:108D740000230293009B002B1AD000230D9314E0D0
:108D84006B460D9918460BF0F8FB0346002B09D0EF
:108D9400029B5A1C02920D9A92B25B0038336B44C8
:108DA40023F82C2C0D9B01330D930D9B132BE7D92A
:108DB400019B1D4602AC0FCC0FC50FCC0FC594E828
:108DC400070085E8070001980FB030BD00B583B0F7
:108DD4000346ADF80630BDF80630132B01D9002345
:108DE4000CE0BDF80630194606480BF071FBBDF8DF
:108DF4000630194604480BF06BFB0123184603B0F8
:108E04005DF804FB282600202426002000B585B048
:108E14000346ADF80630002303930DE0039B9B004B
:108E2400094A13440433BDF80620114618460BF0D2
:108E34008BFB039B01330393039B1D2BEED900BFD4
:108E440000BF05B05DF804FB2026002000B583B008
:108E54000346ADF80630BDF80630194603480BF05A
:108E640073FB00BF03B05DF804FB00BF282600209D
:108E740030B59BB0184B9B68DB431893164B5A686C
:108E840018AB114618460BF04EFC189A6B46114667
:108E94001846FFF769FF0DAC6D460FCD0FC40FCD1B
:108EA4000FC495E8070084E80700002319930BE03A
:108EB400199B5B0068336B4433F8303C1846FFF76A
:108EC400A5FF199B013319930D9B199A9A42EFD36D
:108ED40000BF00BF1BB030BD2026002000B583B00A
:108EE40003468DF807309DF80730194603480BF008
:108EF40044FB0346184603B05DF804FB202600201B
:108F040000B583B001900B46ADF8023013468DF8DE
:108F140001309DF80130002B06D0BDF8023019460F
:108F240001980BF0D5FA05E0BDF802301946019816
:108F34000BF00AFB00BF03B05DF804FB00B585B07D
:108F440001900091019B9B88ADF80E30019B1B881A
:108F5400103B0A2B00F2888001A252F823F000BFD4
:108F6400918F0200CD8F02006D9002006D9002007F
:108F74006D9002006D9002006D9002006D900200F1
:108F84006D90020037900200D98F0200FFF770FF46
:108F9400BDF80E301846FFF719FF034683F00103AE
:108FA400DBB2002B05D0324AF021042008F0D0FCBB
:108FB40057E0019BDB7B022B53D1BDF80E301946E1
:108FC4002C480BF085FA4CE0BDF80E301846FFF73C
:108FD4003DFF49E0019B1B7AC3F30313DBB28DF819
:108FE4000D309DF80D30032B8CBF01230023DAB222
:108FF400BDF80E3019462048FFF782FF9DF80D306A
:10900400022B8CBF01230023DAB2BDF80E301946BF
:109014001A48FFF775FF9DF80D30012B8CBF012313
:109024000023DAB2BDF80E3019461548FFF768FF81
:109034001AE0019B1B7A002B15D1019B5B7AC3F3C9
:10904400C003DBB2002B14BF012300238DF80C30C6
:109054009DF80C20BDF80E3019460748FFF750FF65
:1090640001E000BF00E000BF00BF05B05DF804FBF5
:10907400288D03002C2600203826002034260020CA
:109084003026002000B583B00346ADF80630BDF8A5
:109094000630132B01D9002306E0BDF8063019462B
:1090A40003480BF06AFA0346184603B05DF804FB64
:1090B4002426002000B585B00346ADF80630002311
:1090C4008DF80F30BDF806301846FFF7DBFF034676
:1090D400002B11D0BDF8063019460A480BF04DFAA2
:1090E40003468DF80E309DF80E30002B01D002237C
:1090F40000E001238DF80F309DF80F30184605B0BD
:109104005DF804FB2C26002000B585B00346ADF8BD
:10911400063000238DF80F30BDF806301846FFF7EF
:10912400B1FF0346002B11D0BDF8063019460A489A
:109134000BF023FA03468DF80E309DF80E30002B09
:1091440001D0022300E001238DF80F309DF80F3089
:10915400184605B05DF804FB2826002000B583B04E
:109164000346ADF80630BDF806301846FFF78AFF0F
:109174000346002B07D0BDF80630194604480BF00F
:10918400FCF9034600E00023184603B05DF804FB35
:109194003026002000B583B00346ADF80630BDF894
:1091A40006301846FFF76EFF0346002B07D0BDF8C4
:1091B4000630194604480BF0E0F9034600E00023AA
:1091C400184603B05DF804FB3426002000B583B0D4
:1091D4000346ADF80630BDF806301846FFF752FFD7
:1091E4000346002B07D0BDF80630194604480BF09F
:1091F400C4F9034600E00023184603B05DF804FBFD
:109204003826002000B583B003460A46ADF8063080
:1092140013468DF805309DF805301846FFF75EFEBD
:109224000346002B16D0BDF806301846FFF72AFF78
:109234000346002B0ED09DF8053006339B00084AE8
:1092440013440433BDF80620114618460BF095F973
:10925400034600E00023184603B05DF804FB00BF9A
:109264002026002000B583B00346ADF806300B4637
:109274008DF8053013468DF804309DF805301846F6
:10928400FFF72CFE0346002B15D0BDF80630184618
:10929400FFF7F8FE0346002B0DD09DF8053006338A
:1092A4009B00074A134404339DF80420BDF80610BC
:1092B4001846FFF725FE00BF03B05DF804FB00BFAE
:1092C4002026002000B587B0039002910192029BF2
:1092D400002B01D100231FE000230593039B002BE7
:1092E40019D00023049313E003AB049918460BF040
:1092F40044F90346002B08D0049B9AB2029B0199BF
:1093040010469847059B01330593049B013304934E
:10931400049B132BE8D9059B184607B05DF804FBA2
:1093240000B585B00346029101928DF80F309DF887
:109334000F301846FFF7D2FD034683F00103DBB27A
:10934400002B01D000230CE09DF80F30074A0633B0
:109354009B0013445B68019A02991846FFF7B2FF19
:109364000346184605B05DF804FB00BF2026002024
:1093740082B00190019B1B781AB2019B01331B78C8
:109384001BB21B021BB213431BB29BB2184602B0A2
:10939400704700B585B001900198FFF7E9FF0346D7
:1093A400ADF80E30BDF80E3003F00103002B14BFEE
:1093B40001230023DBB2184605B05DF804FBA0DFEF
:1093C400704700BF1846A1DF704700BF1846ADDFE5
:1093D400704700BF1846B3DF704700BF1846B4DFBC
:1093E400704700BF1846000000B585B00190019B8E
:1093F400002B03D10A4985200AF052FF012101986C
:109404000BF032F90390BFF35F8F00BF039B002B77
:109414000CBF01230023DBB2184605B05DF804FB42
:10942400B88E030000B583B00190019B002B03D1DB
:109434000A4992200AF034FF019B1B68012B03D0D8
:10944400064993200AF02CFFBFF35F8F00BF019BF6
:1094540000221A6000BF03B05DF804FBB88E03005D
:1094640000B585B00190019B5B88184601F05AFA5B
:1094740003461A46019B9A800023039308E0084A96
:10948400039B52F8233001989847039B01330393BD
:10949400039B002BF3D000BF00BF05B05DF804FBB5
:1094A4007C22002082B00190019B9B79012B0BD17F
:1094B400019B1B79012B07D1019B5B8842F60212A9
:1094C400934201D1012300E0002303F00103DBB246
:1094D400184602B0704700B589B003460091ADF854
:1094E400063003AB00221A605A609A60DA601A618F
:1094F40008238DF80C30BDF80630ADF80E30009B13
:10950400059303AB1846FFF7ABFF00BF09B05DF846
:1095140004FB000010B58AB00346ADF80630002302
:109524008DF8273003AB00221A605A609A60DA6023
:109534001A61BDF80630ADF80E30BDF806304FF6AE
:10954400FF72934261D0BDF80630184600F034FF34
:109554000890089B43F2020293424BD0089B43F2CB
:10956400020293422DD8089B112B11D0089B112B7A
:1095740027D8089B002B03D0089B0B2B0CD020E092
:109584000F238DF80C3003AB1846FFF769FF32E068
:1095940001238DF827302EE010238DF80C301C4A5F
:1095A4001C4BD31ADB081B0443F00203BDF806204E
:1095B400194918460DF08EFB03AB1846FFF750FF10
:1095C40019E0134A134BD31ADB081B0443F00104BC
:1095D40008980CF049FD03461A46BDF806300F49B9
:1095E40020460DF088FBBDF8063008991846FFF7B1
:1095F40072FF00E000BF0A4B19789DF82720BDF8E0
:1096040006301846FFF72EFE00E000BF0AB010BD7A
:10961400348403008C830300048F0300848F0300CD
:10962400A126002000B583B003460A46ADF80630F3
:1096340013468DF80530064B19789DF80520BDF8C2
:1096440006301846FFF70EFE00BF03B05DF804FBBA
:10965400A026002010B58AB00346ADF806300023DA
:109664008DF8273000238DF82630BDF806301846D3
:1096740000F0BAFD0890089B43F20202934258D0CE
:10968400089B43F2020293423AD8089B862B17D0D8
:10969400089B862B34D8089B112B0DD0089B112BCB
:1096A4002ED8089B002B03D0089B0B2B41D027E01E
:1096B40001238DF826303DE001238DF8273039E071
:1096C40003AB00221A605A609A60DA601A610723B9
:1096D4008DF80C30BDF80630ADF80E301C4A1D4B29
:1096E400D31ADB081B0443F00203BDF806201A4911
:1096F40018460DF0EFFA03AB1846FFF7B1FE19E078
:10970400134A144BD31ADB081B0443F001040898D2
:109714000CF0AAFC03461A46BDF806300F49204651
:109724000DF0E9FABDF8063008991846FFF7D3FEA4
:1097340000E000BF9DF82720BDF80630114618460A
:10974400FFF770FF9DF8263018460AB010BD00BF21
:10975400348403008C830300D88F0300109003002B
:1097640000B589B003460091ADF8063000238DF8AA
:109774001F300DF116031846FFF72DFE0690069BC9
:10978400002B04D02A494FF499700AF089FD012373
:10979400ADF81C3040E00223ADF808300023ADF8EA
:1097A4000A3004AB039304A9BDF81C300022184608
:1097B400FFF715FE0690069B002B01D0069B32E0B6
:1097C4009DF81F3083F00103DBB2002B09D0BDF8F4
:1097D400103042F60522934203D101238DF81F3045
:1097E40015E09DF81F30002B11D0BDF8103042F663
:1097F400021293420BD1009B039302AABDF81C10E2
:10980400BDF806301846FFF7E2FD03460BE0BDF84D
:109814001C300133ADF81C30BDF81630BDF81C20E7
:109824009A42B8D30523184609B05DF804FB00BF7B
:109834005090030010B58AB00346ADF806300123FA
:109844008DF8273000238DF82630BDF806301846F1
:1098540000F062FE0890089B43F2014293426AD0F2
:10986400089B43F2014293426BD8089B112B29D8E1
:10987400089B112B65D801A252F823F0D598020059
:10988400479902004799020047990200479902004C
:1098940047990200219902004799020001990200A8
:1098A400479902004799020047990200479902002C
:1098B400479902004799020047990200479902001C
:1098C40079990200089B43F20202934254D038E093
:1098D40003AB00221A605A609A60DA601A6111239D
:1098E4008DF80C30BDF80630ADF80E3001238DF83C
:1098F400263003AB1846FFF7B3FD3EE00DF10A0234
:10990400BDF8063011461846FFF72AFF0890089B59
:10991400002B03D1BDF80A30002B2ED100238DF883
:109924002730BDF80630184600F0FCFF0346184601
:1099340000F03AFE21E0BDF806301846FFF7EAFDD4
:109944001BE0184A184BD31ADB081B0443F001042C
:1099540008980CF089FB03461A46BDF806301349F3
:1099640020460DF0C8F9BDF8063008991846FFF7EF
:10997400B2FD02E000BF00E000BF0D4B19789DF876
:109984002720BDF806301846FFF76CFC094B197800
:109994009DF82620BDF806301846FFF763FC00BF8B
:1099A4000AB010BD348403008C830300D0900300FC
:1099B400A2260020A326002000B583B00346009110
:1099C400ADF80630BDF806301846FFF7A3FD00BF1A
:1099D40003B05DF804FB000008B5044B1B780022BB
:1099E40003491846FFF79CFC00BF08BDA1260020D0
:1099F400BD99020000B583B003460091ADF806306E
:109A04000A48FFF7F1FC0346002B0CD0BDF80630E2
:109A14001846FFF71FFE0346002B03D10348FFF748
:109A240001FD00E000BF03B05DF804FB9C260020AC
:109A340000B583B003460091ADF806300B4B1A789D
:109A4400BDF8063011461846FFF7DCFB034683F0E9
:109A54000103DBB2002B04D0BDF806301846FFF733
:109A6400E9FE00BF03B05DF804FB00BFA32600209D
:109A740008B5044B1B78002203491846FFF750FC35
:109A840000BF08BDA2260020359A020000B583B0AD
:109A94000346ADF80630BDF80630184600F018FD50
:109AA4000346002B07D0064B1978BDF80630012277
:109AB4001846FFF7D7FB00BF03B05DF804FB00BFF7
:109AC400A226002000B587B003460091ADF8063009
:109AD40004AB0422002118460EF084FB42F6A623B0
:109AE400ADF8103001238DF812300D4B1B68039331
:109AF40003AA04A9BDF806301846FFF760FC0590D8
:109B0400059B002B07D1074B1978BDF806300122BD
:109B14001846FFF7A7FB00BF07B05DF804FB00BFC2
:109B240010910300A526002000B585B00346ADF8CA
:109B34000630BDF80630184600F0F4FE0346184619
:109B440002AA0023092101F0EEF90346052B07D1EF
:109B5400054B1978BDF8063001221846FFF782FB41
:109B640000BF05B05DF804FBA426002000B583B057
:109B74000B4B1B7800220B491846FFF7D1FB0190D1
:109B8400019B002B07D1084B1B780022074918467C
:109B9400FFF7C6FB019000BF03B05DF804FB00BFF4
:109BA400A0260020F9990200A4260020C99A0200E8
:109BB40000B583B00190019B1B78002B11D1019B50
:109BC4005B881846FFF7A6FC019B5B881846FFF7E5
:109BD4005DFF019B5B881846FFF7A6FFFFF7C6FFF2
:109BE40000E000BF00BF03B05DF804FB00B589B01E
:109BF4000190019B1B78092B5ED1019B5B7A002BA2
:109C04005AD1019B1B7A082B47D0082B4DDC012B22
:109C14001BD0072B49D1019B9B88184600F02CFFD1
:109C24000346ADF81E30BDF81E304FF6FF72934266
:109C34003DD0BDF81E3001211846FFF7F3FCBDF8F6
:109C44001E301846FFF770FF31E0019B9B8803AA82
:109C54000121184601F0B0FE0690069B002B28D186
:109C6400049B1B78002B24D0019B9B88184600F092
:109C740003FF0346ADF81630BDF816304FF6FF72F9
:109C8400934216D00F4B1978BDF8163001221846AE
:109C9400FFF7E8FAFFF7ECFE0BE00B4B1B68012B18
:109CA40009D10948FFF7BEFB05E000BF04E000BF8F
:109CB40002E000BF00E000BFFFF758FF00BF09B09B
:109CC4005DF804FBA22600209C26002010B586B077
:109CD40003460A46ADF8063013468DF8053003AB4B
:109CE40000221A605A600123ADF80C3009238DF864
:109CF4000E30194B1978BDF8063000221846FFF7CC
:109D0400B1FA9DF80530002B01D0144B00E0144B40
:109D14000493BDF80630184600F004FE03461846C6
:109D240003AB0022194601F0C5F90590059B002BF1
:109D34000FD00C4A0C4BD31ADB081B0443F002046B
:109D440005980CF091F903461A46084920460CF090
:109D5400C1FF00BF06B010BDA426002098920300E6
:109D64009C920300348403008C83030084910300D9
:109D740000B58DB00190019B9B88ADF82C30019B00
:109D84001B88353B1F2B00F2688101A252F823F097
:109D9400A59E0200A79F02005FA002005FA0020030
:109DA4005FA002005FA002005FA002005FA00200AB
:109DB4005FA002005FA002005FA002005FA002009B
:109DC4005FA002005FA002005FA002005FA002008B
:109DD4005FA002005FA002005FA002005FA002007B
:109DE4005FA002005FA002005FA002005FA002006B
:109DF4005FA002005FA002005FA00200819E02003B
:109E04005FA00200159E02005FA00200219E0200D6
:109E1400BDF82C301846FFF77DFB1EE103AB002292
:109E24001A605A609A60DA601A6112238DF80C3055
:109E3400BDF82C30ADF80E30BDF82C30184600F0CB
:109E440071FD0346ADF81030BDF81030184600F02F
:109E5400ABFB864B1978BDF82C3000221846FFF76F
:109E640001FA834B1978BDF82C3000221846FFF70D
:109E7400F9F903AB1846FFF7F3FAEEE0019B06335A
:109E84001846FFF70FFB0346002B00F0DF80BDF8F8
:109E94002C3001211846FFF7C5FBFFF767FED5E01C
:109EA40000238DF82F30019B9B88ADF82C30019B4B
:109EB4000A3309936F4B1A78BDF82C3011461846B3
:109EC400FFF7A0F9034683F00103DBB2002B40F057
:109ED400BF80684B1978BDF82C3000221846FFF774
:109EE400C1F9019BDB88B3F5857F4CD0019BDB88EE
:109EF400002B0DD0604A614BD31ADB081B0443F0DE
:109F04000200019BDB881A465D490CF0E3FE3AE04F
:109F1400099B1B88012B0CD0574A584BD31ADB08DA
:109F24001B0443F00200099B1B881A4655490CF098
:109F3400D1FE099B5B88012B0DD04F4A4F4BD31A9E
:109F4400DB081B0443F00200099B5B881A464E4958
:109F54000CF0C0FE17E0099B04331988BDF82C30BF
:109F640000221846FFF72FFA0890089B002B0AD10D
:109F740001238DF82F30454B1978BDF82C30012280
:109F84001846FFF76FF99DF82F3083F00103DBB219
:109F9400002B5FD0BDF82C3000211846FFF796FE49
:109FA40058E000238DF82E30019B9B88ADF82C30AF
:109FB400019B0A330A93354B1A78BDF82C301146AD
:109FC4001846FFF71FF9034683F00103DBB2002BA9
:109FD40042D12E4B1978BDF82C3000221846FFF7D9
:109FE40041F9019BDB88002B0DD0234A234BD31A64
:109FF400DB081B0443F00200019BDB881A4620495E
:10A004000CF068FE19E00A9B9B88012B0DD01A4ABC
:10A014001A4BD31ADB081B0443F002000A9B9B88EB
:10A024001A4619490CF056FE07E00A9B9B79002B4F
:10A0340014BF012300238DF82E309DF82E20BDF887
:10A044002C3011461846FFF741FE06E000BF04E03D
:10A0540000BF02E000BF00E000BFFFF7BDFCFFF758
:10A0640007FD00BF0DB05DF804FB00BFA326002070
:10A07400A2260020A5260020348403008C8303003C
:10A08400E4910300209203005C920300A6260020C2
:10A09400AFDF704700BF1846B1DF704700BF1846F6
:10A0A400B2DF704700BF1846B3DF704700BF1846E1
:10A0B40000B585B00190019B9B88184600F0DCFC3C
:10A0C40003461A46019B5A800023039308E0084A7A
:10A0D400039B52F8233001989847039B0133039361
:10A0E400039B002BF3D000BF00BF05B05DF804FB59
:10A0F4008022002010B588B02D4A05AB92E80300F9
:10A1040083E8030048E02B4B1B8805A9002218466E
:10A1140000F0D0FF0790079B002B34D06B46002241
:10A124001A605A609A60DA601A61224B1B88ADF893
:10A134000430079B112B36D0079B862B07D10723AE
:10A144008DF800306B461846FFF7B2FF2BE01A4A31
:10A154001A4BD31ADB081B0443F0010407980BF0D5
:10A1640083FF03461A46134B1B88154920460CF0FF
:10A17400C2FD08238DF80030079B02936B461846F6
:10A18400FFF796FF0FE00B4B1B88184601F062F8AF
:10A1940003461A46074B1A80064B1B884FF6FF727C
:10A1A4009342B0D100E000BF00BF08B010BD00BFB3
:10A1B4000C930300A82600203C8403008C83030036
:10A1C400B492030000B583B00190064B1B884FF690
:10A1D400FF72934201D0FFF78DFF00BF03B05DF81B
:10A1E40004FB00BFA826002030B58DB00346ADF8AF
:10A1F4000630BDF80630184600F094FB0346ADF86F
:10A204002630BDF826304FF6FF72934202D143F256
:10A214000203C5E00123ADF82A3000238DF829306C
:10A2240000238DF82930BDF82A305A1CADF82A20B5
:10A234001A4604ABBDF82600082101F0D3FB0B90AD
:10A244000B9B002B40F0A180059B0893089B0322E5
:10A254001A60089B991D089B1A1D089B1B68BDF872
:10A264000600FFF71DFF0B900B9B002B62D102AA87
:10A27400BDF826300821184601F09EFB0B900B9B7D
:10A28400002B16D00B9B052B13D0474A474BD31AF0
:10A29400DB081B0443F001040B980BF0E5FE0346B6
:10A2A4001A46BDF80630424920460CF024FD03232B
:10A2B40076E00B9B052B11D0089B9A88039B9B8807
:10A2C4009A420BD1089B981D039B991D089B9B8860
:10A2D4001A460DF06EFE0346002B09D0BDF8262069
:10A2E400BDF826300821184601F03BFC0B9051E0E4
:10A2F400BDF826300821184601F014FC0690069B90
:10A30400002B02D10B230B9344E0274A274BD31A8B
:10A31400DB081B0443F00104BDF8265006980BF03B
:10A32400A3FE03462A46234920460CF0E4FC0323FB
:10A334000B932FE00B9B0C2B03D101238DF82930B9
:10A3440004E00B9B052B01D100230B93BDF82630B1
:10A354000821184601F0E6FB0790079B002B19D053
:10A36400114A124BD31ADB081B0443F00104BDF855
:10A37400265007980BF078FE03462A460D492046DE
:10A384000CF0B9FC03230B9304E00B9B072B01D1C6
:10A394000C230B939DF82930002B7FF441AF0B9BCA
:10A3A40018460DB030BD00BF3C8403008C8303000D
:10A3B400149303004C93030000B58BB00346ADF82F
:10A3C4000630BDF80630184600F0ACFA0346ADF886
:10A3D4001430002308930023ADF81E3003230693A2
:10A3E40001238DF81730BDF814304FF6FF729342F5
:10A3F40016D002AABDF814300821184601F0DCFA80
:10A404000990099B002B0BD1039B0493049B0633F7
:10A414000893049B9B88ADF81E30049B1B6806932D
:10A42400BDF81E20BDF80600069B0899FFF734FE10
:10A434000990099B042B02D11123099331E0099B54
:10A44400082B02D1002309932BE0099B0B2B28D165
:10A4540000238DF81730069B03F00203002B02D073
:10A46400012306931DE0089B002B03D1BDF81E3089
:10A47400002B07D0002308930023ADF81E300323DC
:10A4840006930EE00F4A104BD31ADB081B0443F06B
:10A494000103BDF806200D4918460CF01BFC0323EC
:10A4A4000993099B0B2BBBD09DF8173083F0010354
:10A4B400DBB2002B01D00B230993099B18460BB088
:10A4C4005DF804FB3C8403008C830300CC930300FD
:10A4D40000B589B00346ADF806300DF117030493B7
:10A4E400BDF80630184600F01DFA0346ADF81E30DC
:10A4F40003AABDF81E300121184601F05DFA06904A
:10A50400069B002B01D0002301E0049B1B78184616
:10A5140009B05DF804FB000010B584B00346ADF843
:10A5240006304FF6FF73ADF80E301B48FFF7BCFD45
:10A534000290029B002B11D0184A194BD31ADB0846
:10A544001B0443F0010402980BF08EFD03461A46E7
:10A55400144920460CF0BEFB03231AE00E4B198865
:10A56400BDF80E20BDF806301846FFF791FD0290A5
:10A57400029B43F20302934205D1074B1B8801332C
:10A584009AB2054B1A80029B43F203029342E5D030
:10A59400029B184604B010BDAA2600203C84030088
:10A5A4008C8303004494030000B585B00346ADF8E2
:10A5B4000630084A02AB92E8030083E8030002A9CC
:10A5C400BDF806300022184600F074FD00BF05B047
:10A5D4005DF804FB9094030046DF704700BF184603
:10A5E40000B585B001900023039308E0084A039B5B
:10A5F40052F8233001989847039B01330393039B3C
:10A60400012BF3D900BF00BF05B05DF804FB00BF08
:10A61400A095030084B00190002303930AE0019AFB
:10A62400039B13441B78002B01D0012306E0039BFA
:10A6340001330393039B0F2BF1D90023184604B075
:10A64400704700B583B001900091019B002B02D0AC
:10A65400009B002B01D100231BE0019B1B78C3F35B
:10A664004603DAB2009B1B78C3F34603DBB29A427B
:10A6740001D000230DE0019B581C009B01330622EE
:10A6840019460DF096FC0346002B0CBF0123002352
:10A69400DBB2184603B05DF804FB000030B597B098
:10A6A4000190019B1B88102B40F09180019B0AAC08
:10A6B4001D1D0FCD0FC40FCD0FC495E8070084E80E
:10A6C40007004FF6FF73ADF856309DF82C3023F099
:10A6D4000103DBB2062B47D000F08EFC9DF82C3032
:10A6E400C3F34603DBB2012B02DC002B15DA3BE09B
:10A6F400022B2ED038E0089B03F111020AAB04337D
:10A7040011461846FFF79DFF0346002B05D0BDF800
:10A714002630ADF8563000BF26E007AA0DF1260317
:10A724001946072000F072FC0346002BE3D11BE01E
:10A73400089B5A1C0AAB04331146184600F08FFAE2
:10A744000346002B05D0BDF82630ADF8563000BFC7
:10A7540009E007AA0DF126031946072000F056FC6C
:10A764000346002BE4D100BFBDF828301946194A2E
:10A774000B469B000B445B001344BDF856201A8023
:10A78400BDF828301946134A0B469B000B445B0066
:10A79400134402330BAA1068186091889279998047
:10A7A4009A71BDF856304FF6FF72934210D0BDF83F
:10A7B4002830ADF80A30BDF85630ADF80C3000231F
:10A7C4008DF8083002AB1846FFF70AFF00E000BF1F
:10A7D40017B030BDAC26002000B587B001900091C1
:10A7E400019B11330593009B11330493019B581C67
:10A7F400009B0133102219460DF0DBFB0346002BAE
:10A8040011D1019B01331846FFF704FF0346002BC7
:10A8140009D0009B01331846FFF7FCFE0346002BCA
:10A8240001D0012300E000238DF80F309DF80F3094
:10A8340003F001038DF80F3004990598FFF701FF29
:10A8440003468DF80E30059B1B7823F00103DBB221
:10A85400042B16D0059B1B7823F00103DBB2062BD7
:10A864000FD0049B1B7823F00103DBB2042B08D028
:10A87400049B1B7823F00103DBB2062B01D00123D8
:10A8840000E000238DF80D309DF80D3003F0010336
:10A894008DF80D309DF80E30002B03D09DF80D304F
:10A8A400002B0AD19DF80F30002B08D09DF80D30F5
:10A8B40083F00103DBB2002B01D0012300E000236D
:10A8C40003F00103DBB2184607B05DF804FB00B5E2
:10A8D40087B001900B46ADF8023000F08DFB10E01C
:10A8E400BDF81630BDF802209A420AD0049B1946DE
:10A8F4000198FFF771FF0346002B02D0BDF8163014
:10A904000BE003AA0DF116031946072000F07EFBA5
:10A914000346002BE4D14FF6FF73184607B05DF8E9
:10A9240004FB000000B583B00346ADF80630BDF863
:10A934000630132B0AD8BDF806301846FEF7A2FBE2
:10A94400034683F00103DBB2002B02D04FF6FF7302
:10A9540008E0BDF80620054913469B0013445B003C
:10A964000B441B88184603B05DF804FBAC2600209A
:10A9740000B583B003460091ADF80630BDF806304B
:10A98400132B0AD8BDF806301846FEF77BFB0346A6
:10A9940083F00103DBB2002B02D043F2020311E087
:10A9A400BDF806200098094913469B0013445B0038
:10A9B4000B44024602331968116099889B7991808F
:10A9C40093710023184603B05DF804FBAC26002005
:10A9D40000B583B001900091019800F089F8034616
:10A9E40083F00103DBB2002B01D0002315E0019BAF
:10A9F4001A88009B1B889A4201D000230DE0019B1A
:10AA0400981C009B0233082219460DF0D2FA034623
:10AA1400002B0CBF01230023DBB2184603B05DF802
:10AA240004FB00B587B0019000F0E6FA14E0049B43
:10AA3400463319460198FFF7CBFF0346002B08D194
:10AA4400049B2A3319460198FFF7C2FF0346002BE3
:10AA540002D0BDF816300BE003AA0DF11603194617
:10AA6400072000F0D3FA0346002BE0D14FF6FF7322
:10AA7400184607B05DF804FB00B585B00346ADF891
:10AA84000630BDF806304FF6FF72934202D14FF6FE
:10AA9400FF7326E00023ADF80E301CE0BDF80E2055
:10AAA400124913469B0013445B000B441B88BDF8FA
:10AAB40006209A420AD1BDF80E301846FEF7E2FA93
:10AAC4000346002B02D0BDF80E300AE0BDF80E306C
:10AAD4000133ADF80E30BDF80E30132BDED94FF62E
:10AAE400FF73184605B05DF804FB00BFAC260020D8
:10AAF40084B00190019B1B88002B01D0012312E03C
:10AB0400002303930BE0019A039B134402331B7845
:10AB1400002B01D0012306E0039B01330393039B25
:10AB2400072BF0D90023184604B0704782B00346BF
:10AB34000A46ADF806301346ADF80430BDF80630C9
:10AB4400132B0AD8BDF80620054913469B0013446D
:10AB54005B000B44BDF804201A8000BF02B07047AC
:10AB6400AC26002000B585B00346ADF80630BDF82C
:10AB740006301846FFF780FF0346ADF80E30BDF8E7
:10AB84000630184600F0A6FE0290029B002B0ED160
:10AB9400BDF80E30132B0AD8BDF80E200649134613
:10ABA4009B0013445B000B444FF6FF721A80029B18
:10ABB400184605B05DF804FBAC26002000B595B03E
:10ABC400039002910192002313930DE0139BC3F1B0
:10ABD4000F03039A1344197805AA139B13440A46D6
:10ABE4001A70139B01331393139B0F2BEED905ABF0
:10ABF40010330D22002118460DF0F4FA00231293AD
:10AC04000DE0029A129B1A44129BC3F10F031278AF
:10AC140050336B4403F82C2C129B01331293129B78
:10AC2400022BEED905AB1846FFF7D6FC002311938F
:10AC34000DE0119BC3F10F020199119B0B4450329B
:10AC44006A4412F81C2C1A70119B01331193119B46
:10AC5400022BEED900BF00BF15B05DF804FB00B5B0
:10AC640087B001900091019B1B7823F00103DBB2B4
:10AC7400042B01D000231FE0019B5A1C05AB118853
:10AC8400927819809A70019B1A1D03AB11889278EF
:10AC940019809A70009B04AA03A91846FFF78EFF37
:10ACA40004A905AB032218460DF083F90346002BD3
:10ACB4000CBF01230023DBB2184607B05DF804FB88
:10ACC40000B585B00190019B4FF6FF725A800023B6
:10ACD400039305E0064B01989847039B01330393C4
:10ACE400039B002BF6D000BF00BF05B05DF804FB4A
:10ACF4002DB8020082B00346ADF80630BDF8063028
:10AD0400A3F580439BB2184602B0704782B0034655
:10AD1400ADF80630BDF8063003F580439BB2184603
:10AD240002B0704782B003468DF807309DF80730B3
:10AD34009BB2A3F580439BB2184602B0704782B021
:10AD440003468DF807309DF80730072B17D09DF880
:10AD54000730012B13D09DF80730082B0FD09DF836
:10AD64000730052B0BD09DF80730062B07D09DF834
:10AD74000730092B03D09DF80730042B01D10123A0
:10AD840000E0002303F00103DBB2184602B0704771
:10AD940000B589B003460091ADF8063003AB00223C
:10ADA4001A605A609A60DA601A6108238DF80C30D0
:10ADB400BDF80630ADF81030009B059303AB184680
:10ADC400FFF77EFF00BF09B05DF804FB00B589B052
:10ADD400354B00221A7001AB0822002118460DF0F1
:10ADE40001FA4FF6FF7001F045F80346ADF81E3046
:10ADF4000CE0BDF81E30184600F08EFFBDF81E3082
:10AE0400184601F037F80346ADF81E30BDF81E3081
:10AE14004FF6FF72934210D0BDF81E301846FFF76C
:10AE240069FF0346184601AA03AB194609F011FA53
:10AE3400034648F209629342DBD0BDF81E304FF658
:10AE4400FF7293422CD0BDF81E301846FFF752FF14
:10AE54000346ADF81C30BDF81C30184609F094F9CF
:10AE64000690069B48F20762934203D10E4B0122DF
:10AE74001A7015E0069B002B12D00C4A0C4BD31A07
:10AE8400DB081B0443F00100BDF81E30069A094993
:10AE94000BF031FFBDF81E3006991846FFF778FF16
:10AEA40000BF09B05DF804FB742700205C84030034
:10AEB4008C8303008897030000B587B00346009293
:10AEC400ADF806300B468DF805309DF80530184670
:10AED400FFF735FF02AB0822002118460DF082F976
:10AEE400BDF806301846FFF705FF0346ADF81630E7
:10AEF4009DF805301846FFF715FF0346ADF81430EA
:10AF040002ABBDF81410BDF81600009A09F078F9E8
:10AF14000490049B002B01D0052300E00023184675
:10AF240007B05DF804FB00B58DB0029201930346AF
:10AF3400ADF80E300B468DF80D30BDF80E30FF2BFA
:10AF440001D9072354E09DF80D301846FFF7F7FEAA
:10AF5400034683F00103DBB2002B01D0072347E053
:10AF640006AA9DF80D10BDF80E301846FFF7A4FF91
:10AF74000B900B9B002B01D0052339E004AA06ABF0
:10AF84001146184609F052F80B900B9B002B01D088
:10AF940005232DE0029B9DF80D209A70049B5A888E
:10AFA400029B1A80019B002B03D1059A029B5A60D5
:10AFB40019E0029B1B889B000A93029B1B889A0042
:10AFC400019B1B68934228BF13460993029B5B684D
:10AFD4000599099A18460DF0D3F8099A0A9B9A42E2
:10AFE40001D20C2304E006AB184609F05DF80023F7
:10AFF40018460DB05DF804FB08B50822002102488C
:10B004000DF0F0F800BF08BD7827002000B58DB022
:10B014000346029101928DF80F309DF80F301846C7
:10B02400FFF78DFE034683F00103DBB2002B01D052
:10B03400012338E09DF80F301846FFF773FE0346EE
:10B04400ADF82E3007A9BDF82E30194A184609F07C
:10B05400EDF80346002B01D0002324E005AA07AB3A
:10B064001146184608F0E2FF0A900A9B002B01D013
:10B07400002318E0019B9DF80F209A70059B5A88C5
:10B08400019B1A80069A019B5A60059B9B8818466F
:10B09400FFF73CFE03461A46029B1A8007AB18468C
:10B0A40009F002F8012318460DB05DF804FB00BF57
:10B0B4007827002000B58DB0034602910192ADF8C7
:10B0C4000E30BDF80E30FF2B01D907238AE0029B16
:10B0D4009B781846FFF733FE034683F00103DBB287
:10B0E400002B01D007237DE0BDF80E301846FFF792
:10B0F40001FE0346ADF82030029B9B781846FFF70B
:10B1040011FE0346ADF82230029B5B680993029B53
:10B114001B880A93029B997805AABDF80E3018463D
:10B12400FFF7CAFE0B900B9B052B07D108AA05ABB2
:10B134001146184609F004F80B9006E008AA05AB7E
:10B144001146184609F00BF80B900B9B002B2BD0E3
:10B154000B9B48F20D62934236D80B9B48F2026275
:10B16400934231D30B9BA3F50643023B0B2B2BD805
:10B1740001A252F823F000BFC9B10200CDB1020010
:10B18400CDB10200CDB10200C5B10200C1B10200CF
:10B19400CDB10200CDB10200CDB10200CDB10200AB
:10B1A400CDB10200C1B10200019B002B04D005AB5C
:10B1B4000199184609F060F8002313E0112311E007
:10B1C40086230FE010230DE0084A094BD31ADB084D
:10B1D4001B0443F00100BDF80E300B9A05490BF037
:10B1E4008AFD032318460DB05DF804FB5C8403005C
:10B1F4008C8303005898030008B54FF6FF7000F0E5
:10B2040053FD0346184608BD00B583B00346ADF8A8
:10B214000630BDF80630FF2B01D9072307E0BDF83F
:10B224000630184600F052FDFFF7D0FD0023184603
:10B2340003B05DF804FB00B583B00346ADF80630F7
:10B24400BDF80630184600F081FD0346184603B0E9
:10B254005DF804FB00B583B00346ADF80630BDF8D5
:10B264000630184600F0D2FD0346184603B05DF8D8
:10B2740004FB00B583B00346ADF80630BDF80630D4
:10B28400184600F0F7FD0346184603B05DF804FBCA
:10B2940082B00190019B4FF6FF721A80019BFF223E
:10B2A4009A70019BFF225A72019A937A23F0020347
:10B2B4009372019A937A23F001039372019B002203
:10B2C4001A72019B00225A6000BF02B0704700004E
:10B2D40084B003460091ADF80630009B1B680393CD
:10B2E40019E01049039A13465B0013449B000B4476
:10B2F4001B88BDF806209A420AD1009B039A1A6063
:10B30400039A13465B0013449B00064A134406E069
:10B31400039B01330393039B032BE2D900231846B9
:10B3240004B070479027002000B585B003460A4654
:10B33400ADF8063013468DF805300023029302AAB7
:10B34400BDF8063011461846FFF7C2FF03900AE025
:10B35400029B0133029302AABDF806301146184637
:10B36400FFF7B6FF0390039B002B17D0039B9B783A
:10B374009DF805209A42EBD1039B9B7A03F00203CC
:10B38400DBB2002BE4D1039B9B7A03F00103DBB215
:10B39400002BDDD1039B5B68002BD9D1039B18469E
:10B3A40005B05DF804FB000084B001900023039312
:10B3B40016E00F49039A13465B0013449B000B44A9
:10B3C40004331B68019A9A4207D1039A13465B001F
:10B3D40013449B00064A134406E0039B0133039382
:10B3E400039B032BE5DD0023184604B0704700BF20
:10B3F4009027002008B5FF214FF6FF70FFF794FF58
:10B404000346184608BD000000B585B0019000232E
:10B4140003930CE0019B5A7A039BDBB21344DBB227
:10B424001946094801F0AAF8039B01330393019BD1
:10B434001B7A1A46039B9342ECD30198FFF728FF2B
:10B4440000BF05B05DF804FB8027002000B583B081
:10B4540001900B46ADF8023013468DF80130019B84
:10B46400002B13D0FFF7C6FF0246019B1A60019B15
:10B474001B68002B0CD0019B1B68BDF802201A80AE
:10B48400019B1B689DF801209A7002E000BF00E058
:10B4940000BF03B05DF804FB00B585B00190002344
:10B4A400039308E0084A039B52F823300198984715
:10B4B400039B01330393039B032BF3D900BF00BF0A
:10B4C40005B05DF804FB00BF289B030086B0039021
:10B4D40001921A460B468DF80B301346ADF808302E
:10B4E400BDF808301A46920013441B01ADF816301B
:10B4F400039B9DF80B209A70039B019A5A60BDF838
:10B50400163003339B109AB2039B1A8000BF06B017
:10B51400704700B585B00390019200930B468DF8F7
:10B524000B30009B9BB29DF80B10019A0398FFF718
:10B53400CDFF00BF05B05DF804FB000082B00190B0
:10B54400019B9B78013B072B27D801A252F823F0DB
:10B554007DB502009FB502009FB502009FB50200B1
:10B564009FB5020085B5020075B502008DB50200D5
:10B57400019B14221A8011E0019B01221A800DE024
:10B58400019B01221A8009E0019B5B689B880933B7
:10B594009B089AB2019B1A8000E000BF00BF02B072
:10B5A400704700BF10B586B001900023059302AB2D
:10B5B40000221A605A60019B9B788DF80A30019B27
:10B5C4005B7A1946404800F0A8FF0490049B002BC6
:10B5D4000ED13E4A3E4BD31ADB081B0443F0010054
:10B5E400019B5B7A1A463B490BF074FB032367E02B
:10B5F400019B9978019B1B7A02A8049AFFF789FFA3
:10B6040002AB1846FFF79AFF019B1888019B1A1D8D
:10B6140002AB1946FFF74EFD0590059B862B2AD0F9
:10B62400059B862B35D8059B112B14D0059B112B1C
:10B634002FD8059B002B03D0059B072B3ED028E079
:10B64400019A937A23F002039372019A937A23F076
:10B654000103937233E0019A937A43F002039372E5
:10B66400019A937A23F0010393721B4B01221A70FF
:10B674000023059323E0019A937A23F00203937243
:10B68400019A937A43F001039372134B01221A70C7
:10B6940015E00E4A0E4BD31ADB081B0443F00104D9
:10B6A40005980AF0E1FC03461A46019B1B880B49E6
:10B6B40020460BF020FB0323059300E000BF059B0D
:10B6C400184606B010BD00BF802700205484030034
:10B6D4008C83030018990300C027002058990300A5
:10B6E40010B588B001900198FFF75CFF0790079BA5
:10B6F400002B2BD04FF6FF73ADF80A30019B1B884B
:10B70400ADF80C30079B862B03D107238DF8083046
:10B7140016E008238DF80830079B04930D4A0E4B5E
:10B72400D31ADB081B0443F0010407980AF09CFCBD
:10B7340003461A46019B1B88084920460BF0DBFA96
:10B7440002AB1846FFF7A8FE002300E001231846C9
:10B7540008B010BD548403008C830300889903004F
:10B7640000B585B003468DF807302D4B1B7883F068
:10B774000103DBB2002B4DD1294B00221A700023A8
:10B78400039343E02749039A13465B0013449B0049
:10B794000B4408339B78C3F34003DBB2002B0DD179
:10B7A4002049039A13465B0013449B000B4408335F
:10B7B4009B78C3F30003DBB2002B24D0184B012287
:10B7C4001A701849039A13465B0013449B000B44F8
:10B7D40008339B78C3F34003DBB2002B03D19DF8FD
:10B7E4000730002B0FD0039A13465B0013449B00D1
:10B7F4000C4A13441846FFF773FF034683F0010312
:10B80400DBB2002B08D1039B01330393039B032B6F
:10B81400B8D902E000BF00E000BF05B05DF804FB4A
:10B82400C02700209027002000B585B00190012397
:10B834008DF80F3000238DF80E30019BDB6818461D
:10B84400FFF7B2FD0290019B1B78142B27D0142B19
:10B8540029DC092B02D00A2B0BD024E0019B5B7A54
:10B86400002B22D1029B002B1FD00298FFF7CCFDA6
:10B874001BE0019B5B7A002B19D1029B002B16D095
:10B88400029B00225A60029A937A43F00203937255
:10B894000F4B01221A7000238DF80F3007E00123AB
:10B8A4008DF80E3004E000BF02E000BF00E000BFEE
:10B8B4009DF80F30002B02D00198FFF7EDFD9DF8A5
:10B8C4000E301846FFF74CFF00BF05B05DF804FBCF
:10B8D400C027002030B589B00346ADF80E300023F0
:10B8E400059305AABDF80E3011461846FFF7F0FC83
:10B8F400079032E0079B9A78BDF80E30114618463F
:10B9040000F010F90690069B002B1BD0069B052B1C
:10B9140018D0254A254BD31ADB081B0443F0010435
:10B9240006980AF0A1FB03461946BDF80E20079BB2
:10B934009B78009313460A461D4920460BF0EFF905
:10B9440003232EE0059B0133059305AABDF80E30B1
:10B9540011461846FFF7BCFC0790079B002BC9D182
:10B96400BDF80E301846FFF74FFC0690069B002BDF
:10B9740002D0069B072B01D1069B12E00A4A0B4B0F
:10B98400D31ADB081B0443F00104BDF80E500698DB
:10B994000AF06AFB03462A46064920460BF0ABF937
:10B9A4000323184609B030BD548403008C8303007C
:10B9B400089A0300609A030000B583B0034600921E
:10B9C400ADF806300B468DF805309DF80510BDF82E
:10B9D40006000023009AFFF7A6FA0346184603B0B0
:10B9E4005DF804FB10B588B0029201930346ADF8EC
:10B9F4000E300B468DF80D30019B002B01D10E2328
:10BA040085E09DF80D30072B05D09DF80D30082BEF
:10BA140001D007237BE0029B002B02D0029B042B66
:10BA240001D9072373E000238DF81F309DF80D2002
:10BA3400BDF80E3011461846FFF776FC0346059311
:10BA4400059B002B0CD19DF80D20BDF80E1005AB05
:10BA54001846FFF7FBFC059B002B09D1112356E088
:10BA6400059B1B7A1A46029B934201D00F234EE09A
:10BA7400059B5B7AFF2B13D1059C0299254800F0A6
:10BA8400E8FC03466372059B5B7AFF2B05D1059B9B
:10BA94001846FFF7FDFB112339E001238DF81F3011
:10BAA400059B029AD2B21A72059B5B7A1946194811
:10BAB40000F033FD0690069B002B0ED1164A174B5F
:10BAC400D31ADB081B0443F00100059B5B7A1A467A
