:020000022000DC
:106000000000012019620200016202000362020026
:10601000056202000762020009620200000000003F
:106020000000000000000000000000000B62020001
:106030000D620200000000000F6202001162020007
:106040000DDB020013620200A5E0020005EF020072
:106050001DEF020013620200A1DF020013620200C2
:10606000A96D0300C16D03001362020013620200F8
:106070001362020013620200136202001362020044
:1060800013620200591B0300136202001362020034
:106090001362020013620200E96A03001362020045
:1060A0001362020013620200136202001362020014
:1060B00013620200136202000000000000000000F2
:1060C00013620200136202001362020013620200F4
:1060D000136202001362020013620200000000005B
:1060E00000000000000000000000000000000000B0
:1060F00000000000000000000000000000000000A0
:10610000000000000000000000000000000000008F
:10611000000000000000000000000000000000007F
:10612000000000000000000000000000000000006F
:10613000000000000000000000000000000000005F
:10614000000000000000000000000000000000004F
:10615000000000000000000000000000000000003F
:10616000000000000000000000000000000000002F
:10617000000000000000000000000000000000001F
:10618000000000000000000000000000000000000F
:1061900000000000000000000000000000000000FF
:1061A00000000000000000000000000000000000EF
:1061B00000000000000000000000000000000000DF
:1061C00000000000000000000000000000000000CF
:1061D00000000000000000000000000000000000BF
:1061E00000000000000000000000000000000000AF
:1061F000000000000000000000000000000000009F
:10620000FEE7FEE7FEE7FEE7FEE7FEE7FEE7FEE766
:10621000FEE7FEE700F002B8FFF7FCBF0F484FF0C3
:106220000701884385460E4880470E48016841F4BF
:1062300070010160BFF34F8FBFF36F8F00F01AB88A
:1062400009480A490A4A884207D0521A05D00378F9
:1062500001300B700131013AF9D170470000012083
:10626000A17C020088ED00E0AC71030060220020F8
:10627000742200203A493B480A1A02D0072291436F
:106280008D46394939480A1A06D00722914381F3CD
:106290000988022282F3148835483649364A00F0CC
:1062A00041F836483649374A00F03CF83648374915
:1062B000374A00F037F837483749384A00F032F8A3
:1062C00037483849384A00F02DF838483849394AB3
:1062D00000F028F838483949394A00F023F839489D
:1062E0003949002200F036F838483949002200F0D8
:1062F00031F838483849091A10F081FD374A90477B
:1063000025482649884205D00268043003B49047E6
:1063100003BCF7E700208646EC4600200021304A07
:106320009047FEE7884214D0521A12D003460B431E
:1063300013430324234206D1036804300B60043165
:10634000043AF9D17047037801300B700131013AFA
:10635000F9D17047884202D002700130FAE77047E5
:106360000000012000E000200000012000000120CA
:1063700044B70300742200200C230020E4630200D1
:10638000E46302002670030044B703007422002077
:1063900074220020C0710300C0710300C0710300AB
:1063A000C0710300C0710300C0710300C07103001D
:1063B000C071030041B70300DCB703000C230020C9
:1063C0000C2300200C230020885300208853002039
:1063D0008853002088530020887300204162020007
:0463E000E56302006F
:1063E4002DE9F0414FF4004184B000200FF00CF887
:1063F400002859D10EF08AFF032000F0AFF900F015
:106404003DFF0AF015FE002853D10023CDE90133E6
:1064140003932A4F2A4D2B4E00F0AEFA2A4BFF1A53
:10642400FF083F0447F0030745F0010500F0D4FFDF
:1064340070B9314638460FF0B9FA4FF47A744FF414
:106444007A40A847013CFAD100F0C6FF0028F0D0FA
:106454001E491F4EDFF8808038460FF0A7FA02AAC3
:1064640001A903A801F093F8C8B1DDED037AB8EEF1
:10647400670A00F0E9FA3388834201D000B1308022
:106484000A244FF47A40A847013CFAD10FF018FBD4
:106494000028E4D00FF014FB0028F7D1DFE74146D1
:1064A40038460FF083FAEBE70A4AB7210AF010FAEC
:1064B400A0E7084AC3210AF00BFAA6E7CC70030050
:1064C400B072030038720300947003006472030016
:1064D4000C230020C07103008872030000B583B050
:1064E4000190019B1B68184600F0B5F80346002B89
:1064F40004D105494FF4F6700CF092FE4FF0A0431E
:10650400184603B05DF804FBB872030000B585B00B
:106514000190084611461A4603468DF803300B468F
:106524008DF8023013468DF8013001AB1846FFF7A1
:10653400D5FF03909DF803209DF802305B001A43B9
:106544009DF801309B001A439DF818301B0242EA63
:1065540003019DF81C301B04019A1943039B02F5A7
:10656400E07243F8221000BF05B05DF804FB00B5EB
:1065740085B003900023019300230093002301229C
:1065840001210398FFF7C2FF00BF05B05DF804FBCB
:1065940000B585B003900B468DF80B309DF80B3099
:1065A4000022019200220092002200210398FFF7AA
:1065B400ADFF00BF05B05DF804FB00B585B00190E8
:1065C40001AB1846FFF78AFF0390019B012202FAF0
:1065D40003F31946039800F02AF800BF05B05DF8EC
:1065E40004FB00B585B0019001AB1846FFF776FFB8
:1065F4000390019B012202FA03F31946039800F069
:1066040020F800BF05B05DF804FB00B583B001902D
:106614000091009B002B03D10198FFF7E2FF02E0F9
:106624000198FFF7CAFF00BF03B05DF804FB82B016
:1066340001900091019B009AC3F8082500BF02B0A5
:10664400704782B001900091019B009AC3F80C2519
:1066540000BF02B0704784B00190019B5B090293B4
:1066640000230393029B002B03D14FF0FF330393CA
:1066740000BF019B03F01F030193039A019B22FABD
:1066840003F303F00103002B14BF01230023DBB247
:10669400184604B07047000000B583B00190019B18
:1066A400032B03D9074947200CF0BAFD064A019B86
:1066B40013441B7801211846FFF7A7FF00BF03B05E
:1066C4005DF804FBE87203005473030000B583B063
:1066D4000023019305E00198FFF7DEFF019B0133DE
:1066E4000193019B032BF6D900BF00BF03B05DF8F3
:1066F40004FB000000B583B00023019309E0094ABC
:10670400019B13441B781846FFF731FF019B0133AB
:106714000193019B032BF2D9FFF7D8FF00BF03B00D
:106724005DF804FB5473030000B583B000230193A8
:106734000AE0094A019B13441B7803211846FFF71A
:1067440027FF019B01330193019B032BF1D900BF68
:1067540000BF03B05DF804FB5873030000B583B0B9
:106764000190019B03F00103002B01D0FFF7C2FF4E
:10677400019B03F00203002B01D0FFF7D5FF00BFFC
:1067840003B05DF804FB000084B001900B468DF863
:10679400033013468DF8023000230393019B032B2F
:1067A4003CD89DF80230012B0BD19DF80330012B0E
:1067B40004D1019BDBB20E33DBB200E000238DF881
:1067C40002309DF80330022B0FD0022B23DC002B68
:1067D40016D0012B1FD11449019A13465B001344B0
:1067E4000B449DF802201A701AE00F49019A1346CF
:1067F4005B0013440B4401339DF802201A700FE030
:106804000949019A13465B0013440B4402339DF873
:1068140002201A7004E00723039301E00723039383
:10682400039B184604B070471023002000B583B0C2
:10683400012200210020FFF7A7FF0190019B002BFC
:1068440004D0019B072B01D0019B1CE007220221ED
:106854000120FFF799FF0190019B002B04D0019BBD
:10686400072B01D0019B0EE0042202210020FFF738
:106874008BFF0190019B002B04D0019B072B01D0BF
:10688400019B00E00023184603B05DF804FB00B54B
:1068940083B0012202210020FFF776FF0190019BC3
:1068A400002B04D0019B072B01D0019B1CE0072285
:1068B40002210120FFF768FF0190019B002B04D007
:1068C400019B072B01D0019B0EE00A22002100202E
:1068D400FFF75AFF0190019B002B04D0019B072B6B
:1068E40001D0019B00E00023184603B05DF804FBCF
:1068F40000B585B001900091019B1B88102B02D03C
:10690400112B18D02FE01A4B1B68002B0DD1FFF769
:106914008DFF0390039B002B07D0164B1B68002BA5
:1069240003D0144B1B6803989847114B1B68013321
:106934000F4A136017E00E4B1B68013B0C4A1360AF
:106944000B4B1B68002B0DD1FFF7A1FF0390039B9A
:10695400002B07D0074B1B68002B03D0054B1B688B
:106964000398984700BF00BF05B05DF804FB00BF63
:10697400202300201C23002000B583B0244A254B8B
:10698400D31ADB081B0443F00303234918460FF012
:106994000DF8224B00221A60214B00221A80214B51
:1069A40000221A60204B00221A700023ADF8063032
:1069B4000CE0BDF806301D4A9B0013444FF0000262
:1069C4001A60BDF806300133ADF80630BDF8063064
:1069D400632BEED9164B4FF000021A60154B164A82
:1069E4001A60164B4FF000021A60124B1B68144ACF
:1069F4001360074A074BD31ADB081B0443F0030355
:106A0400104918460EF0D2FF00BF03B05DF804FB36
:106A1400CC700300947003005C73030024230020F3
:106A2400282300202C230020342300203C23002092
:106A3400D02400207422002000803B46382300200C
:106A4400302300208073030010B590B08DED030A4D
:106A54009B4A9C4BD31ADB081B0443F003039A495B
:106A640018460EF0A3FF994B1B680133974A136035
:106A7400934A944BD31ADB081B0443F00303934A51
:106A84001268934918460EF09FFF9DED030A10F01B
:106A9400A1F90346002B06D19DED030A10F0A2F9DB
:106AA4000346002B0DD1864A864BD31ADB081B0400
:106AB40043F00103874918460EF078FF864B1B8884
:106AC4004AE3DDED037AB6EE007A27EE877A834B4C
:106AD400D3ED007AF6EE006A67EEA67A77EE277AAF
:106AE4007E4BC3ED007A7D4BD3ED007AB0EE670A9E
:106AF40010F070F90346002B09D1784BD3ED007ADE
:106B0400B0EE670A10F06EF90346002B0DD16C4A03
:106B14006C4BD31ADB081B0443F00103704918467D
:106B24000EF044FF6D4B6F4A1A606F4B93ED007A81
:106B34006A4BD3ED007A37EE277A6C4BD3ED007AAB
:106B440077EE677A9FED6A7A67EE877AF1EE677A75
:106B5400654BC3ED007A644BD3ED007AB0EE670A5F
:106B640010F038F90346002B09D15F4BD3ED007ABE
:106B7400B0EE670A10F036F90346002B12D1504AE2
:106B8400504BD31ADB081B0443F001035949184640
:106B94000EF00CFF544B4FF000021A604F4B1B6871
:106BA400524A1360464A474BD31ADB081B0443F08E
:106BB40003004D4BD3ED007AF5EEC07AF1EE10FAF6
:106BC4000BD5494BD3ED007ABFEE007AF4EEC77AC9
:106BD400F1EE10FA01DD484A00E0484A424BD3ED99
:106BE400007AFDEEE77A17EE901A3F4BD3ED007A68
:106BF400F5EEC07AF1EE10FA0CDD3B4B93ED007A22
:106C0400394BD3ED007AFDEEE77AF8EEE77A77EECA
:106C1400677A0BE0344BD3ED007AFDEEE77AB8EEF9
:106C2400E77A314BD3ED007A77EE677A9FED347AC9
:106C340067EE877AFDEEE77A17EE903A00930B46FB
:106C440030490EF0E6FE254B1B68284A1360264B9C
:106C540093ED007A2C4BD3ED007A77EE677ACDED85
:106C6400087A9DED080A10F0B5F80346002B06D10A
:106C74009DED080A10F0B6F80346002B0DD1104A1A
:106C8400104BD31ADB081B0443F001031F491846B9
:106C94000EF08CFE4FF000030893134B1B681A4A46
:106CA400136000238DF81F30DDED087AF5EEC07A0D
:106CB400F1EE10FA2CDD01238DF81F3032E000BF15
:106CC400CC70030094700300A473030024230020F9
:106CD400C4730300E47303002823002074220020FB
:106CE4002074030000E6AA49382300203023002042
:106CF400CDCCCC3D60740300A0740300A4740300E5
:106D04000000C842A8740300D4240020CC740300FB
:106D1400DDED087AF5EEC07AF1EE10FA02D5FF2324
:106D24008DF81F3000238DF83F30C14B93ED007A6E
:106D3400C04B1B88C04A9B001344D3ED007A77EE06
:106D4400677ABB4BC3ED007ABA4B1B881846BB4B22
:106D54001A68B94983000B441A60B54B93ED007A65
:106D6400B64BD3ED007A77EE277AB14BC3ED007AB8
:106D7400B04B1B880133B24A82FB03125111DA175C
:106D84008A1A642101FB02F29A1A92B2A94B1A8060
:106D9400A74B93ED007ADFEDAB6AC7EE267ACDED13
:106DA4000B7A9DED0B0A10F015F80346002B06D163
:106DB4009DED0B0A10F016F80346002B26D1A24ACB
:106DC400A24BD31ADB081B0443F00103A049184665
:106DD4000EF0ECFD4FF000030B93954B4FF00002C7
:106DE4001A600023ADF82A300CE0BDF82A30924A2C
:106DF4009B0013444FF000021A60BDF82A3001339F
:106E0400ADF82A30BDF82A30632BEED94FF00003D9
:106E140009930023ADF832301BE0BDF83230864AC6
:106E24009B00134493ED007ADDED0B7A77EE677ADD
:106E3400CDED047ADDED047A67EEA77A9DED097A4B
:106E440077EE277ACDED097ABDF832300133ADF80B
:106E54003230BDF83230632BDFD9DDED097ADFED56
:106E6400796A87EEA67AB0EE470A0FF0C3FF8DED7C
:106E74000D0A9DED0D0A0FF0ADFF0346002B06D160
:106E84009DED0D0A0FF0AEFF0346002B0DD16E4AA7
:106E94006E4BD31ADB081B0443F001036D491846FB
:106EA4000EF084FD4FF000030D93DDED0D7A9FEDA0
:106EB4006A7A67EE877A9DED0B7A77EE277ACDEDC5
:106EC4000E7A9DED0E0A0FF085FF0346002B06D1C6
:106ED4009DED0E0A0FF086FF0346002B0CD15A4A93
:106EE4005A4BD31ADB081B0443F001035B491846D1
:106EF4000EF05CFD0B9B0E93534A544BD31ADB08E4
:106F04001B0443F00300DDED0E7AF5EEC07AF1EEDA
:106F140010FA0AD5DDED0E7ABFEE007AF4EEC77AE8
:106F2400F1EE10FA01DD4E4A00E04E4ADDED0E7A34
:106F3400FDEEE77A17EE901ADDED0E7AF5EEC07AE3
:106F4400F1EE10FA0ADDDDED0E7AFDEEE77AF8EEE9
:106F5400E77A9DED0E7A77EE677A09E0DDED0E7A39
:106F6400FDEEE77AB8EEE77ADDED0E7A77EE677A32
:106F74009FED347A67EE877AFDEEE77A17EE903A62
:106F840000930B4638490EF044FD384B93F900301A
:106F9400002B40F388809DF91F30002B80F2838002
:106FA400264BD3ED007A9DED0E7AB4EEE77AF1EE3E
:106FB40010FA78D501238DF83F30234A234BD31A96
:106FC400DB081B0443F00300294B1A681B4BD3ED69
:106FD400007AF5EEC07AF1EE10FA0BD5174BD3ED2B
:106FE400007ABFEE007AF4EEC77AF1EE10FA01DD12
:106FF4001B4B00E01B4B1149D1ED007AFDEEE77A03
:1070040017EE904A0D49D1ED007AF5EEC07AF1EE13
:1070140010FA2FDD094991ED007A0849D1ED007A83
:10702400FDEEE77AF8EEE77A77EE677A2EE000BFB6
:10703400D0240020CC2400203C230020382300202E
:107044001F85EB510000C842CC700300947003000C
:10705400107503005C7503009A99D93FA875030065
:10706400A0740300A4740300FC75030034230020FF
:10707400242300203A49D1ED007AFDEEE77AB8EEF8
:10708400E77A3749D1ED007A77EE677A9FED357A62
:1070940067EE877AFDEEE77A17EE901A0191009475
:1070A40031490EF0CCFC314A9DF81F3013709DF825
:1070B4003F30002B50D02E4B1A682E4B1B68D31A2E
:1070C40006932B4B1B682B4A1360069A13469B00AE
:1070D40013445B000593059BB3F5967F39D3059B59
:1070E40040F2DC52934234D84EF66022059BB2FB48
:1070F400F3F39AB2204B1A80204A214BD31ADB08AF
:107104001B0443F003031C4A12881E4918460EF060
:107114005BFC00F078FA034683F00103DBB2002B3A
:107124000BD0164A164BD31ADB081B0443F0010399
:10713400154918460EF03AFC0BE0104A104BD31ACE
:10714400DB081B0443F00203059A104918460EF0AD
:107154003BFC094B1B88FFE7184610B010BD00BF6D
:10716400382300200000C84218760300342300208E
:10717400242300202C23002028230020CC7003008B
:10718400947003004C760300687603009476030041
:1071940000B585B00190019B002B0AD0074B43F04A
:1071A40001030393019B9B010293039B029898475D
:1071B40000E000BF05B05DF804FB00BF40770300AA
:1071C40000B583B00190019B0433184607F068FAB8
:1071D40000BF03B05DF804FB00B589B005900392CD
:1071E4001A460B468DF8133013468DF812300023DF
:1071F4000793059B181D9DF812209DF813109DF808
:10720400283000931346039A07F090FD0790079BDC
:10721400184609B05DF804FB00B587B003900192ED
:107224001A460B468DF80B3013468DF80A300023AE
:107234000593039B181D9DF80A309DF80B10019AC5
:1072440007F09CFD0590059B184607B05DF804FB0C
:1072540000B583B00190019B002B0AD04FF47A70E3
:10726400FFF796FF019B013B0193019B002BF5D196
:1072740000E000BF03B05DF804FB000000B587B078
:107284006B4600221A605A609A60DA601B230093EE
:107294001A2301934FF0CD63029302238DF80C302F
:1072A40001238DF80D30694600230B4A0B4806F084
:1072B400C3F90590059B0493049B002B04D0084A52
:1072C4001E21049809F004FB0448FFF779FF00BF6E
:1072D40007B05DF804FB00BF656C030060B40300F5
:1072E400B876030000B587B003460A468DF80F3020
:1072F40013468DF80E309DF80F308DF810309DF840
:107304000E308DF811300F4B00221A7004AA00239E
:107314000093022357210C48FFF75EFF059000BF3E
:10732400084B1B78DBB283F00103DBB2002BF7D1EF
:10733400059B002B0CBF01230023DBB2184607B0CA
:107344005DF804FB6453002060B4030000B587B00B
:10735400034602918DF80F3013468DF80E301C4B06
:1073640000221A700DF10F0201230093012357210B
:107374001848FFF731FF059000BF154B1B78DBB2AF
:1073840083F00103DBB2002BF7D1059B002B01D066
:10739400002319E00E4B00221A709DF80E30029A59
:1073A40057210C48FFF738FF059000BF084B1B78A6
:1073B400DBB283F00103DBB2002BF7D1059B002B7A
:1073C4000CBF01230023DBB2184607B05DF804FBB1
:1073D4006453002060B4030000B583B001238DF82A
:1073E400073040210920FFF77DFF03461A469DF828
:1073F40007301340002B14BF012300238DF80730FE
:107404006420FFF725FF00210420FFF76BFF0346EC
:107414001A469DF807301340002B14BF01230023A4
:107424008DF8073000210520FFF75CFF03461A465C
:107434009DF807301340002B14BF012300238DF85F
:10744400073000210620FFF74DFF03461A469DF83A
:1074540007301340002B14BF012300238DF807309D
:107464001F210820FFF73EFF03461A469DF8073008
:107474001340002B14BF012300238DF8073007218C
:107484000920FFF72FFF03461A469DF807301340E3
:10749400002B14BF012300238DF8073047210A2055
:1074A400FFF720FF03461A469DF807301340002BD0
:1074B40014BF012300238DF807303F210C20FFF770
:1074C40011FF03461A469DF807301340002B14BFE2
:1074D400012300238DF807303F210D20FFF702FF21
:1074E40003461A469DF807301340002B14BF0123AE
:1074F40000238DF807303F210E20FFF7F3FE0346EB
:107504001A469DF807301340002B14BF01230023B3
:107514008DF8073020210F20FFF7E4FE03461A46BA
:107524009DF807301340002B14BF012300238DF86E
:10753400073021238DF8063003238DF805309DF89C
:10754400063019461120FFF7CDFE03461A469DF872
:1075540007301340002B14BF012300238DF807309C
:107564009DF8053019461220FFF7BCFE03461A4663
:107574009DF807301340002B14BF012300238DF81E
:1075840007309DF80730184603B05DF804FB00B5DA
:1075940089B003900291019205AB09221946072094
:1075A400FFF7D4FE034683F00103DBB2002B01D0C6
:1075B400002324E09DF814301A049DF815301B02B2
:1075C40013439DF816201A43029B1A609DF8173046
:1075D4001A049DF818301B0213439DF819201A430E
:1075E400019B1A609DF81A301A049DF81B301B0287
:1075F40013439DF81C201A43039B1A600123184669
:1076040009B05DF804FB00B583B001238DF80730A1
:1076140000210420FFF766FE03461A469DF8073052
:107624001340002B14BF012300238DF807300021E1
:107634000520FFF757FE03461A469DF8073013400E
:10764400002B14BF012300238DF8073000210620EE
:10765400FFF748FE03461A469DF807301340002BF7
:1076640014BF012300238DF807309DF80730184616
:1076740003B05DF804FB0000BFF34F8F00BF064B5F
:10768400DB6803F4E0620449044B1343CB60BFF3AB
:107694004F8F00BF00BFFDE700ED00E00400FA05D6
:1076A40082B01D4B1B68B3F1FF3F0AD11B4B1B6813
:1076B400DBB201931A4B1B681B0903F00F03009301
:1076C40005E0154B1B680193164B1B680093019B47
:1076D400062B1DD1009B033B042B17D801A252F8A3
:1076E40023F000BFFD760200017702000577020057
:1076F400097702000D77020001230AE0012308E064
:10770400012306E0012304E0012302E0012300E059
:107714000023184602B0704730010010E00F00F05B
:10772400E80F00F03401001082B0174B1B68DBB285
:107734000193164B1B681B0903F00F030093019B75
:10774400062B1DD1009B033B042B17D801A252F832
:1077540023F000BF6D770200717702007577020095
:10776400797702007D77020001230AE0002308E014
:10777400002306E0002304E0002302E0002300E0ED
:107784000023184602B07047E00F00F0E80F00F045
:1077940082B01D4B1B68B3F1FF3F0AD11B4B1B6822
:1077A400DBB201931A4B1B681B0903F00F03009310
:1077B40005E0154B1B680193164B1B680093019B56
:1077C400062B1DD1009B033B042B17D801A252F8B2
:1077D40023F000BFED770200F1770200F577020095
:1077E400F9770200FD77020001230AE0012308E093
:1077F400012306E0012304E0012302E0012300E069
:107804000023184602B0704730010010E00F00F06A
:10781400E80F00F03401001082B0174B1B68DBB294
:107824000193164B1B681B0903F00F030093019B84
:10783400062B1DD1009B033B042B17D801A252F841
:1078440023F000BF5D7802006178020065780200D1
:10785400697802006D78020001230AE0002308E041
:10786400002306E0002304E0002302E0002300E0FC
:107874000023184602B07047E00F00F0E80F00F054
:1078840082B01D4B1B68B3F1FF3F0AD11B4B1B6831
:10789400DBB201931A4B1B681B0903F00F0300931F
:1078A40005E0154B1B680193164B1B680093019B65
:1078B400062B1DD1009B033B042B17D801A252F8C1
:1078C40023F000BFDD780200E1780200E5780200D1
:1078D400E9780200ED78020001230AE0012308E0C0
:1078E400012306E0012304E0012302E0012300E078
:1078F4000023184602B0704730010010E00F00F07A
:10790400E80F00F03401001082B0174B1B68DBB2A3
:107914000193164B1B681B0903F00F030093019B93
:10792400062B1DD1009B033B042B17D801A252F850
:1079340023F000BF4D79020051790200557902000D
:10794400597902005D79020001230AE0002308E06E
:10795400002306E0002304E0002302E0002300E00B
:107964000023184602B07047E00F00F0E80F00F063
:1079740082B0174B1B68DBB20193164B1B681B09C3
:1079840003F00F030093019B062B1DD1009B033BC7
:10799400042B17D801A252F823F000BFB5790200D6
:1079A400B9790200BD790200C1790200C5790200EB
:1079B40001230AE0002308E0002306E0002304E09A
:1079C400002302E0002300E00023184602B07047C1
:1079D400E00F00F0E80F00F082B01D4B1B68B3F11C
:1079E400FF3F0AD11B4B1B68DBB201931A4B1B6888
:1079F4001B0903F00F03009305E0154B1B6801936B
:107A0400164B1B680093019B062B1DD1009B033B67
:107A1400042B17D801A252F823F000BF357A0200D4
:107A2400397A02003D7A0200417A0200457A020066
:107A340000230AE0002308E0012306E0012304E018
:107A4400012302E0012300E00023184602B070473E
:107A540030010010E00F00F0E80F00F034010010D6
:107A640082B01D4B1B68B3F1FF3F0AD11B4B1B684F
:107A7400DBB201931A4B1B681B0903F00F0300933D
:107A840005E0154B1B680193164B1B680093019B83
:107A9400062B1DD1009B033B042B17D801A252F8DF
:107AA40023F000BFBD7A0200C17A0200C57A020049
:107AB400C97A0200CD7A020001230AE0012308E01A
:107AC400012306E0012304E0012302E0012300E096
:107AD4000023184602B0704730010010E00F00F098
:107AE400E80F00F03401001082B01D4B1B68B3F1A5
:107AF400FF3F0AD11B4B1B68DBB201931A4B1B6877
:107B04001B0903F00F03009305E0154B1B68019359
:107B1400164B1B680093019B062B1DD1009B033B56
:107B2400042B17D801A252F823F000BF457B0200B2
:107B3400497B02004D7B0200517B0200557B020011
:107B440001230AE0012308E0012306E0012304E005
:107B5400012302E0012300E00023184602B070472D
:107B640030010010E00F00F0E80F00F034010010C5
:107B740082B0154B1B680193144B1B680093019B47
:107B8400062B1DD1009B033B042B17D801A252F8EE
:107B940023F000BFAD7B0200B17B0200B57B020085
:107BA400B97B0200BD7B020000230AE0002308E049
:107BB400002306E0012304E0012302E0012300E0A6
:107BC4000023184602B07047300100103401001041
:107BD40082B0154B1B680193144B1B680093019BE7
:107BE400062B1DD1009B033B042B17D801A252F88E
:107BF40023F000BF0D7C0200117C0200157C020002
:107C0400197C02001D7C020000230AE0002308E026
:107C1400002306E0002304E0012302E0012300E046
:107C24000023184602B070473001001034010010E0
:107C340008B5FFF7CDFF0346002B07D04FF0102304
:107C44004FF08042D3F80832C2F8583500BF08BD5F
:107C540000BF044BD3F80034002BFAD000BF00BFA0
:107C6400704700BF00E0014000B583B00190054AB1
:107C7400019BC2F80435FFF7EBFF00BF03B05DF8CA
:107C840004FB00BF00E00140024B034A1A6000BF3E
:107C9400704700BF782200200090D00308B5FFF79A
:107CA400FFFC0346002B06D0964B1B681B0A964A22
:107CB40003F01F031360FFF737FD0346002B02D0C8
:107CC400924B934A1A60FFF763FD0346002B06D0DC
:107CD400904B1B685B0B904A03F007031360FFF79C
:107CE4009BFD0346002B05D08C4BDB688B4A23F0AD
:107CF4008073D360FFF7C4FD0346002B0ED04FF012
:107D040080430022C3F80C214FF080430022C3F8C3
:107D140010214FF080430022C3F83825FFF7F4FD0B
:107D24000346002B02D07E4B03221A60FFF720FE8D
:107D34000346002B0BD07B4B05221A607A4B0122A1
:107D44001A607A4B00221A60794B3F221A60FFF7BF
:107D540043FE0346002B76D04FF08053754AD3F888
:107D64000434C2F820354FF08053724AD3F80834F3
:107D7400C2F824354FF080536E4AD3F80C34C2F85D
:107D840028354FF080536B4AD3F81034C2F82C35A1
:107D94004FF08053674AD3F81434C2F830354FF0AB
:107DA4008053644AD3F81834C2F834354FF0805302
:107DB400604AD3F81C34C2F840354FF080535D4A12
:107DC400D3F82034C2F844354FF08053594AD3F8DD
:107DD4002434C2F848354FF08053564AD3F8283437
:107DE400C2F84C354FF08053524AD3F82C34C2F8C1
:107DF40050354FF080534F4AD3F83034C2F85435DD
:107E04004FF080534B4AD3F83434C2F860354FF006
:107E14008053484AD3F83834C2F864354FF080535D
:107E2400444AD3F83C34C2F868354FF08053414A91
:107E3400D3F84034C2F86C354FF080533D4AD3F840
:107E44004434C2F87035FFF70BFE0346002B05D00F
:107E5400394B1B68394A03F04F031360FFF744FEA4
:107E64000346002B0DD04FF08043D3F8003403F0C9
:107E74000103002B05D04FF080436FF00102C3F8DB
:107E84000024FFF775FE0346002B05D02C4B1B681E
:107E94002B4A43F4806313602A4BD3F88830294A71
:107EA40043F47003C2F88830BFF34F8F00BFBFF3B1
:107EB4006F8F00BFFFF7BCFE4FF01023D3F80032E2
:107EC400002B05DB4FF01023D3F80432002B15DA16
:107ED4000120FFF7C9FE4FF010231522C3F800223A
:107EE400FFF7B6FE4FF010231522C3F80422FFF764
:107EF400AFFE0020FFF7B8FEFFF7BEFBFFF7C4FE9E
:107F040000BF08BD240300104035014074C0074081
:107F14000DF0ADBA440200103C050040F0ED00E065
:107F2400A0050040105600408856004018560040F6
:107F34001456004000C0004058020010E40E0040F7
:107F44003C17004000ED00E084B00346ADF8063075
:107F54000023039316E00F49039A13469B0013442E
:107F64009B000B441B88BDF806209A4207D1039A54
:107F740013469B0013449B00064A134406E0039BEC
:107F840001330393039B002BE5D00023184604B070
:107F9400704700BFD824002082B001900B46ADF892
:107FA4000230019BBDF802201A80019B00221A7244
:107FB400019B054903F10A020B4603CB1060516093
:107FC40000BF02B0704700BF0825002082B00190B6
:107FD400019B4FF6FF721A8000BF02B0704788B051
:107FE4000390029111461A460B46ADF8063013462B
:107FF400ADF80430039B9B881A46BDF80630134441
:108004000793039B9B881946039B9B88BDF8062016
:10801400934228BF13469BB2CB1A0693039BDB887B
:108024001A46BDF8043013440593039BDB881946B4
:10803400039BDB88BDF80420934228BF13469BB200
:10804400CB1A0493029B5A88039B1B889A4205D33C
:10805400029B5A88039B5B889A4201D900231CE047
:10806400029B9B881A46069B934205D8029B9B88D9
:108074001A46079B934201D200230EE0029BDB8841
:108084001A46049B934205D8029BDB881A46059B3B
:10809400934201D2002300E00123184608B0704740
:1080A40000B583B00190064B9B69002B03D0044BB1
:1080B4009B690198984700BF03B05DF804FB00BFBB
:1080C400EC24002000B587B003460091ADF80630DB
:1080D400009B5B7A002B1AD1009B1B7A002B03D1E7
:1080E400164B5B68059302E0144B9B680593009B59
:1080F4005B68BDF806200599184608F0D7FF049080
:10810400049B002B16D00498FFF7CAFF12E0009BD3
:1081140000221A72094B5B69002B0BD001238DF8E6
:108124000C30BDF80630ADF80E30044B5B6903AA81
:108134001046984700BF07B05DF804FBEC2400200C
:1081440000B585B00190019BDB7B8DF80F30019B5E
:108154009B88ADF80C309DF80F30012B2CD14FF6D5
:10816400FF70FFF7F1FE0290029B002B03D1042065
:10817400FFF796FF21E0BDF80C3019460298FFF78F
:108184000BFF029B03F10A00019B03F110014FF660
:10819400FF7340F2F312FFF722FF03461A46029BD5
:1081A4005A72074BDB89002B07D1BDF80C300299BA
:1081B4001846FFF787FF00E000BF05B05DF804FB39
:1081C400EC24002000B587B00190019B9B88ADF89A
:1081D4001630BDF816301846FFF7B6FE0490049B1F
:1081E400002B0ED0049B5B68184608F0B7FF039081
:1081F400039B002B02D00398FFF752FF0498FFF76C
:10820400E5FE00BF07B05DF804FB000000B587B0D1
:108214000190019B06330593059B1A88194BDB8952
:108224009A422BD1059B5B89022B27D1019B9B880A
:10823400ADF81230BDF812301846FFF785FE0390F2
:10824400039B002B1AD0059B0C33184600F083FBCC
:108254000346002B06D0BDF8123003991846FFF7E9
:1082640031FF0BE0039B5B68184608F077FF029030
:10827400029B002B02D00298FFF712FF00BF07B049
:108284005DF804FBEC24002000B585B00190019B4F
:108294009B88ADF80E30BDF80E301846FFF754FE3B
:1082A4000290029B002B15D0029B03F10A00019B54
:1082B40003F108014FF6FF7340F2F312FFF78FFE4C
:1082C40003461A46029B5A72BDF80E3002991846AC
:1082D400FFF7F8FE00BF05B05DF804FB00B583B0FE
:1082E40001900091019B1B88502B12D0502B18DC5D
:1082F400122B12D0122B14DC102B02D0112B04D011
:108304000FE00198FFF71CFF0CE00198FFF75AFFFC
:1083140008E00198FFF77AFF04E00198FFF7B4FF43
:1083240000E000BF00BF03B05DF804FB30B58FB0C0
:108334000190009100230293009B002B1AD000238C
:108344000D9314E06B460D9918460BF0D6F80346CE
:10835400002B09D0029B5A1C02920D9A92B25B0028
:1083640038336B4423F82C2C0D9B01330D930D9B58
:10837400132BE7D9019B1D4602AC0FCC0FC50FCCC4
:108384000FC594E8070085E8070001980FB030BDD9
:1083940000B583B00346ADF80630BDF80630132BA4
:1083A40001D900230CE0BDF80630194606480BF04D
:1083B4004FF8BDF80630194604480BF049F801237C
:1083C400184603B05DF804FB18250020142500208E
:1083D40000B585B00346ADF80630002303930DE0E5
:1083E400039B9B00094A13440433BDF8062011463D
:1083F40018460BF069F8039B01330393039B1D2B71
:10840400EED900BF00BF05B05DF804FB10250020C5
:1084140000B583B00346ADF80630BDF80630194602
:1084240003480BF051F800BF03B05DF804FB00BF34
:108434001825002030B59BB0184B9B68DB4318937C
:10844400164B5A6818AB114618460BF02CF9189ABB
:108454006B4611461846FFF769FF0DAC6D460FCD0C
:108464000FC40FCD0FC495E8070084E8070000236C
:1084740019930BE0199B5B0068336B4433F8303C71
:108484001846FFF7A5FF199B013319930D9B199A01
:108494009A42EFD300BF00BF1BB030BD10250020AF
:1084A40000B583B003468DF807309DF807301946B0
:1084B40003480BF022F80346184603B05DF804FBAA
:1084C4001025002000B583B001900B46ADF80230B2
:1084D40013468DF801309DF80130002B06D0BDF80D
:1084E4000230194601980AF0B3FF05E0BDF80230E6
:1084F400194601980AF0E8FF00BF03B05DF804FBD9
:1085040000B585B001900091019B9B88ADF80E30B9
:10851400019B1B88103B0A2B00F2888001A252F8B1
:1085240023F000BF558502009185020031860200C8
:108534003186020031860200318602003186020053
:108544003186020031860200FB8502009D8502000F
:10855400FFF770FFBDF80E301846FFF719FF03460A
:1085640083F00103DBB2002B05D0324AF021042052
:1085740008F0AEF957E0019BDB7B022B53D1BDF829
:108584000E3019462C480AF063FF4CE0BDF80E305B
:108594001846FFF73DFF49E0019B1B7AC3F3031321
:1085A400DBB28DF80D309DF80D30032B8CBF012309
:1085B4000023DAB2BDF80E3019462048FFF782FFD7
:1085C4009DF80D30022B8CBF01230023DAB2BDF8D5
:1085D4000E3019461A48FFF775FF9DF80D30012B30
:1085E4008CBF01230023DAB2BDF80E3019461548BA
:1085F400FFF768FF1AE0019B1B7A002B15D1019B42
:108604005B7AC3F3C003DBB2002B14BF0123002346
:108614008DF80C309DF80C20BDF80E301946074833
:10862400FFF750FF01E000BF00E000BF00BF05B04E
:108634005DF804FB487703001C2500202825002052
:10864400242500202025002000B583B00346ADF882
:108654000630BDF80630132B01D9002306E0BDF81F
:108664000630194603480AF048FF0346184603B08B
:108674005DF804FB1425002000B585B00346ADF871
:10868400063000238DF80F30BDF806301846FFF78A
:10869400DBFF0346002B11D0BDF8063019460A480B
:1086A4000AF02BFF03468DF80E309DF80E30002B98
:1086B40001D0022300E001238DF80F309DF80F3024
:1086C400184605B05DF804FB1C25002000B585B0F4
:1086D4000346ADF8063000238DF80F30BDF80630A0
:1086E4001846FFF7B1FF0346002B11D0BDF8063042
:1086F40019460A480AF001FF03468DF80E309DF82A
:108704000E30002B01D0022300E001238DF80F303E
:108714009DF80F30184605B05DF804FB18250020BD
:1087240000B583B00346ADF80630BDF806301846F0
:10873400FFF78AFF0346002B07D0BDF80630194621
:1087440004480AF0DAFE034600E00023184603B0AA
:108754005DF804FB2025002000B583B00346ADF886
:108764000630BDF806301846FFF76EFF0346002BAF
:1087740007D0BDF80630194604480AF0BEFE034689
:1087840000E00023184603B05DF804FB2425002014
:1087940000B583B00346ADF80630BDF80630184680
:1087A400FFF752FF0346002B07D0BDF806301946E9
:1087B40004480AF0A2FE034600E00023184603B072
:1087C4005DF804FB2825002000B583B003460A4663
:1087D400ADF8063013468DF805309DF8053018467F
:1087E400FFF75EFE0346002B16D0BDF80630184690
:1087F400FFF72AFF0346002B0ED09DF80530063301
:108804009B00084A13440433BDF806201146184659
:108814000AF073FE034600E00023184603B05DF837
:1088240004FB00BF1025002000B583B00346ADF85B
:1088340006300B468DF8053013468DF804309DF84C
:1088440005301846FFF72CFE0346002B15D0BDF863
:1088540006301846FFF7F8FE0346002B0DD09DF8AE
:10886400053006339B00074A134404339DF8042063
:10887400BDF806101846FFF725FE00BF03B05DF8EB
:1088840004FB00BF1025002000B587B003900291BF
:108894000192029B002B01D100231FE000230593CA
:1088A400039B002B19D00023049313E003AB04991A
:1088B40018460AF022FE0346002B08D0049B9AB205
:1088C400029B019910469847059B01330593049B2D
:1088D40001330493049B132BE8D9059B184607B076
:1088E4005DF804FB00B585B00346029101928DF852
:1088F4000F309DF80F301846FFF7D2FD034683F082
:108904000103DBB2002B01D000230CE09DF80F30F3
:10891400074A06339B0013445B68019A0299184680
:10892400FFF7B2FF0346184605B05DF804FB00BF2D
:108934001025002082B00190019B1B781AB2019B84
:1089440001331B781BB21B021BB213431BB29BB235
:10895400184602B0704700B585B001900198FFF742
:10896400E9FF0346ADF80E30BDF80E3003F0010305
:10897400002B14BF01230023DBB2184605B05DF8B9
:1089840004FBA0DF704700BF1846A1DF704700BF9B
:108994001846ADDF704700BF1846B3DF704700BF0D
:1089A4001846B4DF704700BF1846000000B585B014
:1089B4000190019B002B03D10A4985200AF030FC69
:1089C400012101980AF010FE0390BFF35F8F00BFEE
:1089D400039B002B0CBF01230023DBB2184605B018
:1089E4005DF804FBD878030000B583B00190019BC7
:1089F400002B03D10A4992200AF012FC019B1B6848
:108A0400012B03D0064993200AF00AFCBFF35F8FC1
:108A140000BF019B00221A6000BF03B05DF804FB95
:108A2400D878030000B585B00190019B5B88184697
:108A340001F05AFA03461A46019B9A8000230393D5
:108A440008E0084A039B52F8233001989847039B97
:108A540001330393039B002BF3D000BF00BF05B089
:108A64005DF804FB7C22002082B00190019B9B797D
:108A7400012B0BD1019B1B79012B07D1019B5B8837
:108A840042F60212934201D1012300E0002303F0D5
:108A94000103DBB2184602B0704700B589B0034643
:108AA4000091ADF8063003AB00221A605A609A6058
:108AB400DA601A6108238DF80C30BDF80630ADF881
:108AC4000E30009B059303AB1846FFF7ABFF00BFC6
:108AD40009B05DF804FB000010B58AB00346ADF898
:108AE400063000238DF8273003AB00221A605A6049
:108AF4009A60DA601A61BDF80630ADF80E30BDF840
:108B040006304FF6FF72934261D0BDF80630184626
:108B140000F034FF0890089B43F2020293424BD0CA
:108B2400089B43F2020293422DD8089B112B11D0CB
:108B3400089B112B27D8089B002B03D0089B0B2BD9
:108B44000CD020E00F238DF80C3003AB1846FFF750
:108B540069FF32E001238DF827302EE010238DF8D1
:108B64000C301C4A1C4BD31ADB081B0443F00203D1
:108B7400BDF80620194918460CF026FF03AB184629
:108B8400FFF750FF19E0134A134BD31ADB081B04F9
:108B940043F0010408980CF031F903461A46BDF875
:108BA40006300F4920460CF020FFBDF80630089926
:108BB4001846FFF772FF00E000BF0A4B19789DF8D2
:108BC4002720BDF806301846FFF72EFE00E000BF50
:108BD4000AB010BD3C7103009470030024790300B3
:108BE400A47903009125002000B583B003460A460A
:108BF400ADF8063013468DF80530064B19789DF80C
:108C04000520BDF806301846FFF70EFE00BF03B07E
:108C14005DF804FB9025002010B58AB00346ADF83A
:108C2400063000238DF8273000238DF82630BDF858
:108C34000630184600F0BAFD0890089B43F2020281
:108C4400934258D0089B43F2020293423AD8089BBD
:108C5400862B17D0089B862B34D8089B112B0DD05C
:108C6400089B112B2ED8089B002B03D0089B0B2BA1
:108C740041D027E001238DF826303DE001238DF813
:108C8400273039E003AB00221A605A609A60DA6038
:108C94001A6107238DF80C30BDF80630ADF80E309C
:108CA4001C4A1D4BD31ADB081B0443F00203BDF816
:108CB40006201A4918460CF087FE03AB1846FFF746
:108CC400B1FE19E0134A144BD31ADB081B0443F01A
:108CD400010408980CF092F803461A46BDF80630D1
:108CE4000F4920460CF081FEBDF80630089918465D
:108CF400FFF7D3FE00E000BF9DF82720BDF8063043
:108D040011461846FFF770FF9DF8263018460AB042
:108D140010BD00BF3C71030094700300F879030098
:108D2400307A030000B589B003460091ADF80630EF
:108D340000238DF81F300DF116031846FFF72DFEA2
:108D44000690069B002B04D02A494FF499700AF030
:108D540067FA0123ADF81C3040E00223ADF8083077
:108D64000023ADF80A3004AB039304A9BDF81C300A
:108D740000221846FFF715FE0690069B002B01D033
:108D8400069B32E09DF81F3083F00103DBB2002B19
:108D940009D0BDF8103042F60522934203D10123D5
:108DA4008DF81F3015E09DF81F30002B11D0BDF851
:108DB400103042F6021293420BD1009B039302AA95
:108DC400BDF81C10BDF806301846FFF7E2FD034657
:108DD4000BE0BDF81C300133ADF81C30BDF8163083
:108DE400BDF81C209A42B8D30523184609B05DF893
:108DF40004FB00BF707A030010B58AB00346ADF8D7
:108E0400063001238DF8273000238DF82630BDF875
:108E14000630184600F062FE0890089B43F20142B7
:108E240093426AD0089B43F2014293426BD8089B59
:108E3400112B29D8089B112B65D801A252F823F0D5
:108E4400998E02000B8F02000B8F02000B8F020021
:108E54000B8F02000B8F0200E58E02000B8F0200C5
:108E6400C58E02000B8F02000B8F02000B8F0200D5
:108E74000B8F02000B8F02000B8F02000B8F02007E
:108E84000B8F02003D8F0200089B43F202029342C3
:108E940054D038E003AB00221A605A609A60DA605A
:108EA4001A6111238DF80C30BDF80630ADF80E3080
:108EB40001238DF8263003AB1846FFF7B3FD3EE0DF
:108EC4000DF10A02BDF8063011461846FFF72AFFD5
:108ED4000890089B002B03D1BDF80A30002B2ED13B
:108EE40000238DF82730BDF80630184600F0FCFF4B
:108EF4000346184600F03AFE21E0BDF80630184655
:108F0400FFF7EAFD1BE0184A184BD31ADB081B04D1
:108F140043F0010408980BF071FF03461A46BDF8AC
:108F24000630134920460CF060FDBDF80630089960
:108F34001846FFF7B2FD02E000BF00E000BF0D4B92
:108F440019789DF82720BDF806301846FFF76CFC09
:108F5400094B19789DF82620BDF806301846FFF70E
:108F640063FC00BF0AB010BD3C71030094700300A1
:108F7400F07A0300922500209325002000B583B0E9
:108F840003460091ADF80630BDF806301846FFF7E9
:108F9400A3FD00BF03B05DF804FB000008B5044B5B
:108FA4001B78002203491846FFF79CFC00BF08BD4C
:108FB40091250020818F020000B583B00346009103
:108FC400ADF806300A48FFF7F1FC0346002B0CD03D
:108FD400BDF806301846FFF71FFE0346002B03D1E9
:108FE4000348FFF701FD00E000BF03B05DF804FB98
:108FF4008C25002000B583B003460091ADF80630FF
:109004000B4B1A78BDF8063011461846FFF7DCFB07
:10901400034683F00103DBB2002B04D0BDF8063015
:109024001846FFF7E9FE00BF03B05DF804FB00BF7C
:109034009325002008B5044B1B78002203491846E9
:10904400FFF750FC00BF08BD92250020F98F0200F5
:1090540000B583B00346ADF80630BDF806301846B7
:1090640000F018FD0346002B07D0064B1978BDF815
:10907400063001221846FFF7D7FB00BF03B05DF8A6
:1090840004FB00BF9225002000B587B00346009181
:10909400ADF8063004AB0422002118460DF026FF7B
:1090A40042F6A623ADF8103001238DF812300D4B93
:1090B4001B68039303AA04A9BDF806301846FFF7FA
:1090C40060FC0590059B002B07D1074B1978BDF870
:1090D400063001221846FFF7A7FB00BF07B05DF872
:1090E40004FB00BF307B03009525002000B585B04C
:1090F4000346ADF80630BDF80630184600F0F4FE1D
:109104000346184602AA0023092101F0EEF903469A
:10911400052B07D1054B1978BDF8063001221846F6
:10912400FFF782FB00BF05B05DF804FB9425002027
:1091340000B583B00B4B1B7800220B491846FFF790
:10914400D1FB0190019B002B07D1084B1B78002217
:1091540007491846FFF7C6FB019000BF03B05DF84E
:1091640004FB00BF90250020BD8F02009425002041
:109174008D90020000B583B00190019B1B78002BF9
:1091840011D1019B5B881846FFF7A6FC019B5B8805
:109194001846FFF75DFF019B5B881846FFF7A6FFA3
:1091A400FFF7C6FF00E000BF00BF03B05DF804FB9B
:1091B40000B589B00190019B1B78092B5ED1019BFE
:1091C4005B7A002B5AD1019B1B7A082B47D0082BC2
:1091D4004DDC012B1BD0072B49D1019B9B881846E2
:1091E40000F02CFF0346ADF81E30BDF81E304FF6DC
:1091F400FF7293423DD0BDF81E3001211846FFF79F
:10920400F3FCBDF81E301846FFF770FF31E0019BF8
:109214009B8803AA0121184601F0B0FE0690069B24
:10922400002B28D1049B1B78002B24D0019B9B8806
:10923400184600F003FF0346ADF81630BDF81630AB
:109244004FF6FF72934216D00F4B1978BDF81630C3
:1092540001221846FFF7E8FAFFF7ECFE0BE00B4B90
:109264001B68012B09D10948FFF7BEFB05E000BFCD
:1092740004E000BF02E000BF00E000BFFFF758FFBA
:1092840000BF09B05DF804FB922500208C25002066
:1092940010B586B003460A46ADF8063013468DF87D
:1092A400053003AB00221A605A600123ADF80C307C
:1092B40009238DF80E30194B1978BDF806300022B9
:1092C4001846FFF7B1FA9DF80530002B01D0144B76
:1092D40000E0144B0493BDF80630184600F004FE79
:1092E4000346184603AB0022194601F0C5F9059060
:1092F400059B002B0FD00C4A0C4BD31ADB081B0424
:1093040043F0020405980BF079FD03461A46084918
:1093140020460CF059FB00BF06B010BD9425002078
:10932400B87C0300BC7C03003C7103009470030010
:10933400A47B030000B58DB00190019B9B88ADF820
:109344002C30019B1B88353B1F2B00F2688101A246
:1093540052F823F0699402006B95020023960200F0
:10936400239602002396020023960200239602000D
:1093740023960200239602002396020023960200FD
:1093840023960200239602002396020023960200ED
:1093940023960200239602002396020023960200DD
:1093A40023960200239602002396020023960200CD
:1093B40023960200239602002396020023960200BD
:1093C4004594020023960200D993020023960200DA
:1093D400E5930200BDF82C301846FFF77DFB1EE133
:1093E40003AB00221A605A609A60DA601A61122391
:1093F4008DF80C30BDF82C30ADF80E30BDF82C30A3
:10940400184600F071FD0346ADF81030BDF8103079
:10941400184600F0ABFB864B1978BDF82C300022BF
:109424001846FFF701FA834B1978BDF82C30002257
:109434001846FFF7F9F903AB1846FFF7F3FAEEE025
:10944400019B06331846FFF70FFB0346002B00F081
:10945400DF80BDF82C3001211846FFF7C5FBFFF76C
:1094640067FED5E000238DF82F30019B9B88ADF873
:109474002C30019B0A3309936F4B1A78BDF82C30BA
:1094840011461846FFF7A0F9034683F00103DBB247
:10949400002B40F0BF80684B1978BDF82C300022B7
:1094A4001846FFF7C1F9019BDB88B3F5857F4CD0E3
:1094B400019BDB88002B0DD0604A614BD31ADB087B
:1094C4001B0443F00200019BDB881A465D490CF043
:1094D4007BFA3AE0099B1B88012B0CD0574A584B66
:1094E400D31ADB081B0443F00200099B1B881A46AD
:1094F40055490CF069FA099B5B88012B0DD04F4A42
:109504004F4BD31ADB081B0443F00200099B5B8812
:109514001A464E490CF058FA17E0099B043319888F
:10952400BDF82C3000221846FFF72FFA0890089B4C
:10953400002B0AD101238DF82F30454B1978BDF843
:109544002C3001221846FFF76FF99DF82F3083F075
:109554000103DBB2002B5FD0BDF82C30002118468C
:10956400FFF796FE58E000238DF82E30019B9B8870
:10957400ADF82C30019B0A330A93354B1A78BDF8A9
:109584002C3011461846FFF71FF9034683F00103F8
:10959400DBB2002B42D12E4B1978BDF82C300022BF
:1095A4001846FFF741F9019BDB88002B0DD0234AB5
:1095B400234BD31ADB081B0443F00200019BDB8816
:1095C4001A4620490CF000FA19E00A9B9B88012BEB
:1095D4000DD01A4A1A4BD31ADB081B0443F00200BD
:1095E4000A9B9B881A4619490CF0EEF907E00A9B7E
:1095F4009B79002B14BF012300238DF82E309DF896
:109604002E20BDF82C3011461846FFF741FE06E027
:1096140000BF04E000BF02E000BF00E000BFFFF7AE
:10962400BDFCFFF707FD00BF0DB05DF804FB00BFF4
:109634009325002092250020952500203C710300ED
:1096440094700300047C0300407C03007C7C0300D2
:1096540096250020AFDF704700BF1846B1DF704782
:1096640000BF1846B2DF704700BF1846B3DF70472B
:1096740000BF184600B585B00190019B9B88184631
:1096840000F0DCFC03461A46019B5A800023039336
:1096940008E0084A039B52F8233001989847039B3B
:1096A40001330393039B002BF3D000BF00BF05B02D
:1096B4005DF804FB8022002010B588B02D4A05AB6C
:1096C40092E8030083E8030048E02B4B1B8805A9BC
:1096D4000022184600F0D0FF0790079B002B34D0DF
:1096E4006B4600221A605A609A60DA601A61224B53
:1096F4001B88ADF80430079B112B36D0079B862BB3
:1097040007D107238DF800306B461846FFF7B2FFE8
:109714002BE01A4A1A4BD31ADB081B0443F001044A
:1097240007980BF06BFB03461A46134B1B8815492D
:1097340020460CF05AF908238DF80030079B029359
:109744006B461846FFF796FF0FE00B4B1B88184635
:1097540001F062F803461A46074B1A80064B1B8831
:109764004FF6FF729342B0D100E000BF00BF08B0D3
:1097740010BD00BF2C7D0300982500204471030018
:1097840094700300D47C030000B583B00190064BB1
:109794001B884FF6FF72934201D0FFF78DFF00BF85
:1097A40003B05DF804FB00BF9825002030B58DB0F0
:1097B4000346ADF80630BDF80630184600F094FBB9
:1097C4000346ADF82630BDF826304FF6FF729342BB
:1097D40002D143F20203C5E00123ADF82A3000238D
:1097E4008DF8293000238DF82930BDF82A305A1C11
:1097F400ADF82A201A4604ABBDF82600082101F072
:10980400D3FB0B900B9B002B40F0A180059B08938E
:10981400089B03221A60089B991D089B1A1D089B2C
:109824001B68BDF80600FFF71DFF0B900B9B002B78
:1098340062D102AABDF826300821184601F09EFB29
:109844000B900B9B002B16D00B9B052B13D0474A78
:10985400474BD31ADB081B0443F001040B980BF0AD
:10986400CDFA03461A46BDF80630424920460CF0AC
:10987400BCF8032376E00B9B052B11D0089B9A8838
:10988400039B9B889A420BD1089B981D039B991DAF
:10989400089B9B881A460DF0BCFA0346002B09D09E
:1098A400BDF82620BDF826300821184601F03BFCFF
:1098B4000B9051E0BDF826300821184601F014FC45
:1098C4000690069B002B02D10B230B9344E0274AFE
:1098D400274BD31ADB081B0443F00104BDF82650C0
:1098E40006980BF08BFA03462A46234920460CF0CF
:1098F4007CF803230B932FE00B9B0C2B03D1012348
:109904008DF8293004E00B9B052B01D100230B9328
:10991400BDF826300821184601F0E6FB0790079BA6
:10992400002B19D0114A124BD31ADB081B0443F045
:109934000104BDF8265007980BF060FA03462A4646
:109944000D4920460CF051F803230B9304E00B9BC4
:10995400072B01D10C230B939DF82930002B7FF4A6
:1099640041AF0B9B18460DB030BD00BF44710300DE
:1099740094700300347D03006C7D030000B58BB04C
:109984000346ADF80630BDF80630184600F0ACFAD0
:109994000346ADF81430002308930023ADF81E30BD
:1099A4000323069301238DF81730BDF814304FF6C6
:1099B400FF72934216D002AABDF81430082118464B
:1099C40001F0DCFA0990099B002B0BD1039B049353
:1099D400049B06330893049B9B88ADF81E30049BBC
:1099E4001B680693BDF81E20BDF80600069B089967
:1099F400FFF734FE0990099B042B02D1112309932C
:109A040031E0099B082B02D1002309932BE0099B29
:109A14000B2B28D100238DF81730069B03F002038B
:109A2400002B02D0012306931DE0089B002B03D1D9
:109A3400BDF81E30002B07D0002308930023ADF897
:109A44001E30032306930EE00F4A104BD31ADB0893
:109A54001B0443F00103BDF806200D4918460BF022
:109A6400B3FF03230993099B0B2BBBD09DF817303D
:109A740083F00103DBB2002B01D00B230993099B74
:109A840018460BB05DF804FB4471030094700300A6
:109A9400EC7D030000B589B00346ADF806300DF146
:109AA40017030493BDF80630184600F01DFA034668
:109AB400ADF81E3003AABDF81E300121184601F08E
:109AC4005DFA0690069B002B01D0002301E0049B65
:109AD4001B78184609B05DF804FB000010B584B08B
:109AE4000346ADF806304FF6FF73ADF80E301B4851
:109AF400FFF7BCFD0290029B002B11D0184A194BB2
:109B0400D31ADB081B0443F0010402980BF076F926
:109B140003461A46144920460BF056FF03231AE065
:109B24000E4B1988BDF80E20BDF806301846FFF715
:109B340091FD0290029B43F20302934205D1074B2D
:109B44001B8801339AB2054B1A80029B43F203022D
:109B54009342E5D0029B184604B010BD9A2500201C
:109B64004471030094700300647E030000B585B063
:109B74000346ADF80630084A02AB92E8030083E8D6
:109B8400030002A9BDF806300022184600F074FD57
:109B940000BF05B05DF804FBB07E030046DF7047EC
:109BA40000BF184600B585B001900023039308E078
:109BB400084A039B52F8233001989847039B0133CA
:109BC4000393039B012BF3D900BF00BF05B05DF8DD
:109BD40004FB00BFC07F030084B001900023039303
:109BE4000AE0019A039B13441B78002B01D0012344
:109BF40006E0039B01330393039B0F2BF1D900234E
:109C0400184604B0704700B583B001900091019BE1
:109C1400002B02D0009B002B01D100231BE0019BF1
:109C24001B78C3F34603DAB2009B1B78C3F34603E5
:109C3400DBB29A4201D000230DE0019B581C009B2B
:109C44000133062219460DF0E4F80346002B0CBF3D
:109C540001230023DBB2184603B05DF804FB0000C7
:109C640030B597B00190019B1B88102B40F0918078
:109C7400019B0AAC1D1D0FCD0FC40FCD0FC495E879
:109C8400070084E807004FF6FF73ADF856309DF8DF
:109C94002C3023F00103DBB2062B47D000F08EFCFE
:109CA4009DF82C30C3F34603DBB2012B02DC002BFE
:109CB40015DA3BE0022B2ED038E0089B03F11102A9
:109CC4000AAB043311461846FFF79DFF0346002BE9
:109CD40005D0BDF82630ADF8563000BF26E007AAFF
:109CE4000DF126031946072000F072FC0346002BF1
:109CF400E3D11BE0089B5A1C0AAB043311461846F7
:109D040000F08FFA0346002B05D0BDF82630ADF8DD
:109D1400563000BF09E007AA0DF1260319460720B3
:109D240000F056FC0346002BE4D100BFBDF82830F8
:109D34001946194A0B469B000B445B001344BDF8BB
:109D440056201A80BDF828301946134A0B469B004A
:109D54000B445B00134402330BAA1068186091880B
:109D6400927999809A71BDF856304FF6FF729342FA
:109D740010D0BDF82830ADF80A30BDF85630ADF833
:109D84000C3000238DF8083002AB1846FFF70AFFA9
:109D940000E000BF17B030BD9C25002000B587B09F
:109DA40001900091019B11330593009B113304939F
:109DB400019B581C009B0133102219460DF029F811
:109DC4000346002B11D1019B01331846FFF704FF12
:109DD4000346002B09D0009B01331846FFF7FCFE15
:109DE4000346002B01D0012300E000238DF80F303F
:109DF4009DF80F3003F001038DF80F300499059896
:109E0400FFF701FF03468DF80E30059B1B7823F006
:109E14000103DBB2042B16D0059B1B7823F001034E
:109E2400DBB2062B0FD0049B1B7823F00103DBB2BB
:109E3400042B08D0049B1B7823F00103DBB2062B10
:109E440001D0012300E000238DF80D309DF80D3082
:109E540003F001038DF80D309DF80E30002B03D074
:109E64009DF80D30002B0AD19DF80F30002B08D03F
:109E74009DF80D3083F00103DBB2002B01D00123E8
:109E840000E0002303F00103DBB2184607B05DF8DD
:109E940004FB00B587B001900B46ADF8023000F02A
:109EA4008DFB10E0BDF81630BDF802209A420AD0AE
:109EB400049B19460198FFF771FF0346002B02D05B
:109EC400BDF816300BE003AA0DF11603194607205E
:109ED40000F07EFB0346002BE4D14FF6FF731846D7
:109EE40007B05DF804FB000000B583B00346ADF88D
:109EF4000630BDF80630132B0AD8BDF806301846D4
:109F0400FEF7A2FB034683F00103DBB2002B02D071
:109F14004FF6FF7308E0BDF80620054913469B0081
:109F240013445B000B441B88184603B05DF804FB24
:109F34009C25002000B583B003460091ADF806309F
:109F4400BDF80630132B0AD8BDF806301846FEF7C4
:109F54007BFB034683F00103DBB2002B02D043F208
:109F6400020311E0BDF806200098094913469B003E
:109F740013445B000B44024602331968116099884C
:109F84009B79918093710023184603B05DF804FB1C
:109F94009C25002000B583B001900091019800F049
:109FA40089F8034683F00103DBB2002B01D00023C0
:109FB40015E0019B1A88009B1B889A4201D000235C
:109FC4000DE0019B981C009B0233082219460CF0FB
:109FD40020FF0346002B0CBF01230023DBB21846ED
:109FE40003B05DF804FB00B587B0019000F0E6FA19
:109FF40014E0049B463319460198FFF7CBFF034650
:10A00400002B08D1049B2A3319460198FFF7C2FF9D
:10A014000346002B02D0BDF816300BE003AA0DF165
:10A0240016031946072000F0D3FA0346002BE0D1AB
:10A034004FF6FF73184607B05DF804FB00B585B012
:10A044000346ADF80630BDF806304FF6FF72934272
:10A0540002D14FF6FF7326E00023ADF80E301CE06A
:10A06400BDF80E20124913469B0013445B000B44B9
:10A074001B88BDF806209A420AD1BDF80E30184656
:10A08400FEF7E2FA0346002B02D0BDF80E300AE0D8
:10A09400BDF80E300133ADF80E30BDF80E30132B81
:10A0A400DED94FF6FF73184605B05DF804FB00BF18
:10A0B4009C25002084B00190019B1B88002B01D0BB
:10A0C400012312E0002303930BE0019A039B134442
:10A0D40002331B78002B01D0012306E0039B0133DC
:10A0E4000393039B072BF0D90023184604B0704751
:10A0F40082B003460A46ADF806301346ADF8043084
:10A10400BDF80630132B0AD8BDF8062005491346BE
:10A114009B0013445B000B44BDF804201A8000BF6D
:10A1240002B070479C25002000B585B00346ADF809
:10A134000630BDF806301846FFF780FF0346ADF839
:10A144000E30BDF80630184600F0A6FE0290029BC1
:10A15400002B0ED1BDF80E30132B0AD8BDF80E20FB
:10A16400064913469B0013445B000B444FF6FF72F1
:10A174001A80029B184605B05DF804FB9C2500205C
:10A1840000B595B0039002910192002313930DE062
:10A19400139BC3F10F03039A1344197805AA139B65
:10A1A40013440A461A70139B01331393139B0F2B0A
:10A1B400EED905AB10330D22002118460CF096FEA3
:10A1C400002312930DE0029A129B1A44129BC3F1CE
:10A1D4000F03127850336B4403F82C2C129B013379
:10A1E4001293129B022BEED905AB1846FFF7D6FC4F
:10A1F400002311930DE0119BC3F10F020199119BF0
:10A204000B4450326A4412F81C2C1A70119B01330F
:10A214001193119B022BEED900BF00BF15B05DF85E
:10A2240004FB00B587B001900091019B1B7823F0DB
:10A234000103DBB2042B01D000231FE0019B5A1C55
:10A2440005AB1188927819809A70019B1A1D03AB93
:10A254001188927819809A70009B04AA03A9184661
:10A26400FFF78EFF04A905AB032218460CF0D1FDBD
:10A274000346002B0CBF01230023DBB2184607B0B2
:10A284005DF804FB00B585B00190019B4FF6FF72A9
:10A294005A800023039305E0064B01989847039BDB
:10A2A40001330393039B002BF6D000BF00BF05B01E
:10A2B4005DF804FBF1AD020082B00346ADF8063050
:10A2C400BDF80630A3F580439BB2184602B0704730
:10A2D40082B00346ADF80630BDF8063003F580437E
:10A2E4009BB2184602B0704782B003468DF807301F
:10A2F4009DF807309BB2A3F580439BB2184602B089
:10A30400704782B003468DF807309DF80730072B5D
:10A3140017D09DF80730012B13D09DF80730082B78
:10A324000FD09DF80730052B0BD09DF80730062B76
:10A3340007D09DF80730092B03D09DF80730042B74
:10A3440001D1012300E0002303F00103DBB218462E
:10A3540002B0704700B589B003460091ADF80630ED
:10A3640003AB00221A605A609A60DA601A6108230B
:10A374008DF80C30BDF80630ADF81030009B059315
:10A3840003AB1846FFF77EFF00BF09B05DF804FB7E
:10A3940000B589B0354B00221A7001AB08220021A8
:10A3A40018460CF0A3FD4FF6FF7001F045F8034684
:10A3B400ADF81E300CE0BDF81E30184600F08EFFDC
:10A3C400BDF81E30184601F037F80346ADF81E30CC
:10A3D400BDF81E304FF6FF72934210D0BDF81E3008
:10A3E4001846FFF769FF0346184601AA03AB19464E
:10A3F40008F0EFFE034648F209629342DBD0BDF851
:10A404001E304FF6FF7293422CD0BDF81E30184612
:10A41400FFF752FF0346ADF81C30BDF81C30184658
:10A4240008F072FE0690069B48F20762934203D13D
:10A434000E4B01221A7015E0069B002B12D00C4A19
:10A444000C4BD31ADB081B0443F00100BDF81E308B
:10A45400069A09490BF0C9FABDF81E300699184648
:10A46400FFF778FF00BF09B05DF804FB6426002005
:10A474006471030094700300A881030000B587B0E1
:10A4840003460092ADF806300B468DF805309DF872
:10A4940005301846FFF735FF02AB082200211846A5
:10A4A4000CF024FDBDF806301846FFF705FF0346FF
:10A4B400ADF816309DF805301846FFF715FF034632
:10A4C400ADF8143002ABBDF81410BDF81600009AB4
:10A4D40008F056FE0490049B002B01D0052300E0F5
:10A4E4000023184607B05DF804FB00B58DB0029256
:10A4F40001930346ADF80E300B468DF80D30BDF8D0
:10A504000E30FF2B01D9072354E09DF80D30184677
:10A51400FFF7F7FE034683F00103DBB2002B01D003
:10A52400072347E006AA9DF80D10BDF80E30184623
:10A53400FFF7A4FF0B900B9B002B01D0052339E000
:10A5440004AA06AB1146184608F030FD0B900B9B8D
:10A55400002B01D005232DE0029B9DF80D209A705D
:10A56400049B5A88029B1A80019B002B03D1059AF5
:10A57400029B5A6019E0029B1B889B000A93029B72
:10A584001B889A00019B1B68934228BF13460993BA
:10A59400029B5B680599099A18460CF075FC099AA8
:10A5A4000A9B9A4201D20C2304E006AB184608F039
:10A5B4003BFD002318460DB05DF804FB08B50822E6
:10A5C400002102480CF092FC00BF08BD6826002060
:10A5D40000B58DB00346029101928DF80F309DF8BD
:10A5E4000F301846FFF78DFE034683F00103DBB2FC
:10A5F400002B01D0012338E09DF80F301846FFF7F7
:10A6040073FE0346ADF82E3007A9BDF82E30194A63
:10A61400184608F0CBFD0346002B01D0002324E0AC
:10A6240005AA07AB1146184608F0C0FC0A900A9B1D
:10A63400002B01D0002318E0019B9DF80F209A7095
:10A64400059B5A88019B1A80069A019B5A60059BB8
:10A654009B881846FFF73CFE03461A46029B1A8065
:10A6640007AB184608F0E0FC012318460DB05DF86E
:10A6740004FB00BF6826002000B58DB0034602919C
:10A684000192ADF80E30BDF80E30FF2B01D907232F
:10A694008AE0029B9B781846FFF733FE034683F05B
:10A6A4000103DBB2002B01D007237DE0BDF80E309F
:10A6B4001846FFF701FE0346ADF82030029B9B7855
:10A6C4001846FFF711FE0346ADF82230029B5B6883
:10A6D4000993029B1B880A93029B997805AABDF8EB
:10A6E4000E301846FFF7CAFE0B900B9B052B07D1C3
:10A6F40008AA05AB1146184608F0E2FC0B9006E0E8
:10A7040008AA05AB1146184608F0E9FC0B900B9B10
:10A71400002B2BD00B9B48F20D62934236D80B9B37
:10A7240048F20262934231D30B9BA3F50643023BEA
:10A734000B2B2BD801A252F823F000BF8DA70200E7
:10A7440091A7020091A7020091A7020089A7020025
:10A7540085A7020091A7020091A7020091A7020019
:10A7640091A7020091A7020085A70200019B002B7C
:10A7740004D005AB0199184608F03EFD002313E010
:10A78400112311E086230FE010230DE0084A094B42
:10A79400D31ADB081B0443F00100BDF80E300B9AFA
:10A7A40005490BF022F9032318460DB05DF804FBAC
:10A7B40064710300947003007882030008B54FF6B7
:10A7C400FF7000F053FD0346184608BD00B583B082
:10A7D4000346ADF80630BDF80630FF2B01D9072338
:10A7E40007E0BDF80630184600F052FDFFF7D0FD33
:10A7F4000023184603B05DF804FB00B583B003469C
:10A80400ADF80630BDF80630184600F081FD034669
:10A81400184603B05DF804FB00B583B00346ADF8F9
:10A824000630BDF80630184600F0D2FD034618463F
:10A8340003B05DF804FB00B583B00346ADF8063001
:10A84400BDF80630184600F0F7FD0346184603B07D
:10A854005DF804FB82B00190019B4FF6FF721A80F1
:10A86400019BFF229A70019BFF225A72019A937AEC
:10A8740023F002039372019A937A23F001039372F3
:10A88400019B00221A72019B00225A6000BF02B091
:10A894007047000084B003460091ADF80630009B79
:10A8A4001B68039319E01049039A13465B00134491
:10A8B4009B000B441B88BDF806209A420AD1009BDA
:10A8C400039A1A60039A13465B0013449B00064ADA
:10A8D400134406E0039B01330393039B032BE2D948
:10A8E4000023184604B070478026002000B585B0C8
:10A8F40003460A46ADF8063013468DF805300023AA
:10A90400029302AABDF8063011461846FFF7C2FFAB
:10A9140003900AE0029B0133029302AABDF80630B9
:10A9240011461846FFF7B6FF0390039B002B17D080
:10A93400039B9B789DF805209A42EBD1039B9B7A5D
:10A9440003F00203DBB2002BE4D1039B9B7A03F0F8
:10A954000103DBB2002BDDD1039B5B68002BD9D153
:10A96400039B184605B05DF804FB000084B0019019
:10A974000023039316E00F49039A13465B00134424
:10A984009B000B4404331B68019A9A4207D1039A33
:10A9940013465B0013449B00064A134406E0039BE2
:10A9A40001330393039B032BE5DD0023184604B016
:10A9B400704700BF8026002008B5FF214FF6FF70C6
:10A9C400FFF794FF0346184608BD000000B585B0A4
:10A9D4000190002303930CE0019B5A7A039BDBB2A2
:10A9E4001344DBB21946094801F0AAF8039B01336A
:10A9F4000393019B1B7A1A46039B9342ECD3019861
:10AA0400FFF728FF00BF05B05DF804FB70260020A7
:10AA140000B583B001900B46ADF8023013468DF8B3
:10AA24000130019B002B13D0FFF7C6FF0246019BA8
:10AA34001A60019B1B68002B0CD0019B1B68BDF89E
:10AA440002201A80019B1B689DF801209A7002E085
:10AA540000BF00E000BF03B05DF804FB00B585B0A3
:10AA640001900023039308E0084A039B52F8233023
:10AA740001989847039B01330393039B032BF3D95A
:10AA840000BF00BF05B05DF804FB00BF48850300AC
:10AA940086B0039001921A460B468DF80B3013468C
:10AAA400ADF80830BDF808301A46920013441B0173
:10AAB400ADF81630039B9DF80B209A70039B019A06
:10AAC4005A60BDF8163003339B109AB2039B1A8068
:10AAD40000BF06B0704700B585B0039001920093A3
:10AAE4000B468DF80B30009B9BB29DF80B10019A1E
:10AAF4000398FFF7CDFF00BF05B05DF804FB00002D
:10AB040082B00190019B9B78013B072B27D801A2BF
:10AB140052F823F041AB020063AB020063AB0200C6
:10AB240063AB020063AB020049AB020039AB020025
:10AB340051AB0200019B14221A8011E0019B0122F7
:10AB44001A800DE0019B01221A8009E0019B5B68D9
:10AB54009B8809339B089AB2019B1A8000E000BFCE
:10AB640000BF02B0704700BF10B586B0019000234B
:10AB7400059302AB00221A605A60019B9B788DF802
:10AB84000A30019B5B7A1946404800F0A8FF049004
:10AB9400049B002B0ED13E4A3E4BD31ADB081B0408
:10ABA40043F00100019B5B7A1A463B490AF00CFF13
:10ABB400032367E0019B9978019B1B7A02A8049AFE
:10ABC400FFF789FF02AB1846FFF79AFF019B18882D
:10ABD400019B1A1D02AB1946FFF74EFD0590059B1C
:10ABE400862B2AD0059B862B35D8059B112B14D098
:10ABF400059B112B2FD8059B002B03D0059B072BFE
:10AC04003ED028E0019A937A23F002039372019ACA
:10AC1400937A23F00103937233E0019A937A43F019
:10AC240002039372019A937A23F0010393721B4BEC
:10AC340001221A700023059323E0019A937A23F0EA
:10AC440002039372019A937A43F001039372134BB4
:10AC540001221A7015E00E4A0E4BD31ADB081B04AE
:10AC640043F0010405980AF0C9F803461A46019B0B
:10AC74001B880B4920460AF0B8FE0323059300E025
:10AC840000BF059B184606B010BD00BF702600200B
:10AC94005C7103009470030038830300B026002025
:10ACA4007883030010B588B001900198FFF75CFF2A
:10ACB4000790079B002B2BD04FF6FF73ADF80A309B
:10ACC400019B1B88ADF80C30079B862B03D107230F
:10ACD4008DF8083016E008238DF80830079B04939C
:10ACE4000D4A0E4BD31ADB081B0443F001040798EA
:10ACF4000AF084F803461A46019B1B88084920463B
:10AD04000AF073FE02AB1846FFF7A8FE002300E02A
:10AD14000123184608B010BD5C7103009470030051
:10AD2400A883030000B585B003468DF807302D4B8A
:10AD34001B7883F00103DBB2002B4DD1294B002299
:10AD44001A700023039343E02749039A13465B00D8
:10AD540013449B000B4408339B78C3F34003DBB2DA
:10AD6400002B0DD12049039A13465B0013449B002A
:10AD74000B4408339B78C3F30003DBB2002B24D0CD
:10AD8400184B01221A701849039A13465B001344A6
:10AD94009B000B4408339B78C3F34003DBB2002BC6
:10ADA40003D19DF80730002B0FD0039A13465B00A4
:10ADB40013449B000C4A13441846FFF773FF0346E1
:10ADC40083F00103DBB2002B08D1039B013303930F
:10ADD400039B032BB8D902E000BF00E000BF05B01D
:10ADE4005DF804FBB02600208026002000B585B065
:10ADF400019001238DF80F3000238DF80E30019B54
:10AE0400DB681846FFF7B2FD0290019B1B78142BF8
:10AE140027D0142B29DC092B02D00A2B0BD024E0D9
:10AE2400019B5B7A002B22D1029B002B1FD002983E
:10AE3400FFF7CCFD1BE0019B5B7A002B19D1029B31
:10AE4400002B16D0029B00225A60029A937A43F098
:10AE5400020393720F4B01221A7000238DF80F30F6
:10AE640007E001238DF80E3004E000BF02E000BFCC
:10AE740000E000BF9DF80F30002B02D00198FFF7CF
:10AE8400EDFD9DF80E301846FFF74CFF00BF05B0EE
:10AE94005DF804FBB026002030B589B00346ADF858
:10AEA4000E300023059305AABDF80E30114618464E
:10AEB400FFF7F0FC079032E0079B9A78BDF80E305C
:10AEC4001146184600F010F90690069B002B1BD083
:10AED400069B052B18D0254A254BD31ADB081B04E7
:10AEE40043F00104069809F089FF03461946BDF8AA
:10AEF4000E20079B9B78009313460A461D49204663
:10AF04000AF087FD03232EE0059B0133059305AA70
:10AF1400BDF80E3011461846FFF7BCFC0790079B9E
:10AF2400002BC9D1BDF80E301846FFF74FFC069030
:10AF3400069B002B02D0069B072B01D1069B12E037
:10AF44000A4A0B4BD31ADB081B0443F00104BDF877
:10AF54000E50069809F052FF03462A460649204639
:10AF64000AF043FD0323184609B030BD5C710300A9
:10AF740094700300288403008084030000B583B028
:10AF840003460092ADF806300B468DF805309DF867
:10AF94000510BDF806000023009AFFF7A6FA034641
:10AFA400184603B05DF804FB10B588B00292019313
:10AFB4000346ADF80E300B468DF80D30019B002B87
:10AFC40001D10E2385E09DF80D30072B05D09DF8A7
:10AFD4000D30082B01D007237BE0029B002B02D00D
:10AFE400029B042B01D9072373E000238DF81F3043
:10AFF4009DF80D20BDF80E3011461846FFF776FC7B
:10B0040003460593059B002B0CD19DF80D20BDF83C
:10B014000E1005AB1846FFF7FBFC059B002B09D16E
:10B02400112356E0059B1B7A1A46029B934201D0DA
:10B034000F234EE0059B5B7AFF2B13D1059C0299ED
:10B04400254800F0E8FC03466372059B5B7AFF2BFE
:10B0540005D1059B1846FFF7FDFB112339E00123B9
:10B064008DF81F30059B029AD2B21A72059B5B7A47
:10B074001946194800F033FD0690069B002B0ED1AB
:10B08400164A174BD31ADB081B0443F00100059B37
:10B094005B7A1A4613490AF097FC032319E0029BD2
:10B0A4009BB29DF80D10069A0198FFF7F1FC9DF8EC
:10B0B4001F30002B0CD09DF80D30082B08D1019BBC
:10B0C4001B889B009AB2019B5B68063A92B29A80F5
:10B0D4000023184608B010BD702600205C710300E0
:10B0E40094700300D484030000B585B003460A4677
:10B0F400ADF8063013468DF805309DF80520BDF8EF
:10B10400063011461846FFF7F1FB0390039B002B12
:10B1140001D1052303E00398FFF758FC00231846E8
:10B1240005B05DF804FB00B585B00346ADF8063004
:10B134000B468DF805301346ADF802309DF8053006
:10B14400072B05D09DF80530082B01D0072326E0F6
:10B15400BDF802301846FFF750FB034683F00103A5
:10B16400DBB2002B01D0072319E09DF80520BDF8C0
:10B17400063011461846FFF7B9FB0390039B002BDA
:10B1840001D105230BE0039BBDF802201A80039B29
:10B194009DF805209A700398FFF7E6FC03461846CD
:10B1A40005B05DF804FB00B585B003460091ADF829
:10B1B40006304FF6FF73ADF80E30BDF806304FF68B
:10B1C400FF72934211D14FF48071009808F0ADF9E9
:10B1D4000346ADF80E30BDF80E30B3F5807F2AD1AA
:10B1E4004FF6FF73ADF80E3025E0BDF80630FF2BA7
:10B1F40021D8BDF806301946009808F041F90346F5
:10B20400002B14BF01230023DBB283F00103DBB264
:10B214008DF80D309DF80D3003F001038DF80D30DD
:10B224009DF80D30002B02D0BDF8063001E04FF63A
:10B23400FF73ADF80E30BDF80E30184605B05DF85A
:10B2440004FB00B583B003460091ADF80630BDF8A9
:10B254000630FF2B05D8BDF806301946009808F0D3
:10B2640033F900BF03B05DF804FB000000B583B000
:10B274000346ADF80630BDF8063004491846FFF71A
:10B2840092FF0346184603B05DF804FBB426002081
:10B2940000B585B00346ADF80630BDF806304FF66C
:10B2A400FF72934201D1002311E0BDF806300A4930
:10B2B4001846FFF778FF0346ADF80E30BDF80E20B0
:10B2C400BDF806309A420CBF01230023DBB21846B6
:10B2D40005B05DF804FB00BFD426002000B583B0A0
:10B2E4000346ADF80630BDF8063007491846FFF7A7
:10B2F400A8FFBDF8063005491846FFF7A2FF00BFB6
:10B3040003B05DF804FB00BFB4260020D42600205F
:10B3140000B583B00346ADF80630BDF80630FF2B08
:10B3240007D8BDF806301946044808F0E6F8034685
:10B3340000E00023184603B05DF804FBB4260020A7
:10B3440000B583B00346ADF80630BDF80630FF2BD8
:10B3540007D8BDF806301946044808F0CEF803466D
:10B3640000E00023184603B05DF804FBD426002057
:10B3740000B585B003460091ADF80630BDF806303F
:10B384004FF6FF72934204D0BDF8063001339BB2EE
:10B3940000E00023ADF80E3010E0BDF80E30194681
:10B3A400009808F0AAF80346002B02D0BDF80E302E
:10B3B4000AE0BDF80E300133ADF80E30BDF80E30A2
:10B3C400FF2BEAD94FF6FF73184605B05DF804FB6E
:10B3D40000B583B00346ADF80630BDF80630154914
:10B3E4001846FFF7C5FF0346ADF8063016E0BDF872
:10B3F40006301846FFF7A4FF034683F00103DBB2CF
:10B40400002B02D0BDF8063010E0BDF80630094923
:10B414001846FFF7ADFF0346ADF80630BDF8063019
:10B424004FF6FF729342E2D1BDF80630184603B0DE
:10B434005DF804FBB426002000B583B00346ADF8E4
:10B444000630BDF8063004491846FFF791FF03465D
:10B45400184603B05DF804FBD426002000B585B07F
:10B4640001900023039308E0094A039B52F8233018
:10B4740001989847039B01330393064B1B781A46A4
:10B48400039B9342F0DB00BF00BF05B05DF804FBF3
:10B49400042700201027002000B583B000230022D9
:10B4A4001049114800F0BCF90190019B052B06D10D
:10B4B4000D4B4FF6FF721A800A4B00221A60019B53
:10B4C400002B02D0019B052B01D1012300E00023B6
:10B4D40003F00103DAB2054B1A7000BF03B05DF844
:10B4E40004FB00BFFC26002000270020F5260020D6
:10B4F40000B58FB0019001238DF83730019B9B88F4
:10B504001846FEF79BFD03461A46019B5A80019B91
:10B514001B78093B032B00F2D58001A252F823F0DB
:10B5240035B50200C1B50200F7B502007DB60200D0
:10B53400019B5B7A002B28D16C4B1B68002B10D02D
:10B54400019BDA68694B1B689A420AD1674B002257
:10B554001A60019B9A88664B1A80019B0022DA606C
:10B56400B2E0644B1B78002B00F0AE80019B9A88FC
:10B574005F4B1B889A4240F0A780019B1B7A062BE5
:10B5840040F0A280FFF788FF9EE0019B5B7A012BCD
:10B5940040F09A80574B1B78002B00F09580019B5C
:10B5A4009A88534B1B889A4240F08E80019B1B7AE9
:10B5B400062B40F08980FFF76FFF85E0019B5B7AE3
:10B5C400002B40F08380494B1B68002B7ED0019BED
:10B5D400DA68464B1B689A4278D1444B00221A60C1
:10B5E400454B1B68013B444A1360019B0022DA600F
:10B5F4006CE0424B1B78002B31D04FF6FF70FFF705
:10B604000BF903461A464FF6FF739A4227D14FF6B9
:10B61400FF70FFF710F903461A464FF6FF739A427C
:10B624001DD1364B00221A7008AB14220021184693
:10B634000BF05CFC0D238DF820304FF6FF73ADF852
:10B6440024304FF6FF73ADF8223000238DF83730E5
:10B654000198FFF703FF08AB1846FFF7FFFE254BE1
:10B664001B78002B34D0019B9A88214B1B889A426B
:10B674002ED1FFF711FF2BE0204B1B78002B29D094
:10B684001E4B00221A7003AB1422002118460BF043
:10B694002DFC0E238DF80C304FF6FF73ADF81030EF
:10B6A4004FF6FF73ADF80E30019B9B6805930023A2
:10B6B4008DF837300198FFF7D1FE03AB1846FFF73A
:10B6C400CDFE07E000BF06E000BF04E000BF02E0DB
:10B6D40000BF00E000BF9DF83730002B02D0019876
:10B6E400FFF7BCFE00BF0FB05DF804FBF826002096
:10B6F40000270020F5260020FC260020F626002046
:10B7040000B583B00190019B002B02D00198FFF794
:10B71400A5FE03B05DF804FB00B583B00190019869
:10B72400FFF79CFE00BF03B05DF804FB00B583B0D7
:10B7340001900198FFF792FE00BF03B05DF804FB8F
:10B7440000B583B001900198FFF788FE00BF03B0F5
:10B754005DF804FB00B58BB00190019B9B88ADF8AC
:10B764002630019B1B88102B29D100238DF80F3024
:10B7740004AB1422002118460BF0B8FB01238DF80A
:10B7840010304FF6FF73ADF81430BDF82630ADF825
:10B794001230019B083306930DF10F03079304AB9A
:10B7A4001846FFF75BFE0C4B19789DF80F20BDF887
:10B7B40026301846FDF738F89DF80F3008E0064BA0
:10B7C4001A78BDF8263011461846FCF7FDFF0346EB
:10B7D40018460BB05DF804FB8422002000B583B04A
:10B7E400019000910D4B1B7883F00103DBB2002B19
:10B7F40010D10198FFF7AEFF0346002B09D1019841
:10B80400FEF72EFA019801F037FC0198FDF792FD3E
:10B8140000E000BF03B05DF804FB00BFF426002085
:10B8240010B58EB00390029101920093554B1B7892
:10B8340083F00103DBB2002B01D008239EE04FF616
:10B84400FF70FEF7E9FF0346ADF836300023089396
:10B854000423079305AB00221A605A6008AB0693D1
:10B8640007AB05AABDF836000621FEF73EFE0C9094
:10B8740000230B934FF0FF330A934FF6FF73ADF899
:10B8840026304FF6FF73ADF824300C9B072B28D1DC
:10B89400052373E00C9B002B13D1089B0B9A9A424F
:10B8A40005D8089B0B93BDF83630ADF82630089BBD
:10B8B4000A9A9A4205D9089B0A93BDF83630ADF826
:10B8C4002430BDF836301846FEF7A6FF0346ADF81F
:10B8D400363007AB05AABDF836000621FEF705FE93
:10B8E4000C900C9B002BD5D00C9B052BD2D0BDF813
:10B8F40036304FF6FF7293422BD1BDF826304FF607
:10B90400FF72934205D0BDF824304FF6FF72934284
:10B9140002D105230C9301E000230C93039B002B1D
:10B9240003D0039BBDF826201A80029B002B02D073
:10B93400029B0B9A1A60019B002B03D0019BBDF85C
:10B9440024201A80009B002B17D0009B0A9A1A60AF
:10B9540013E00D4A0D4BD31ADB081B0443F001041A
:10B964000C9809F04BFA03461A46BDF836300849DC
:10B9740020460AF03AF803230C930C9B18460EB0A9
:10B9840010BD00BFF426002034710300947003003E
:10B994001487030000B585B00190009100990198C7
:10B9A40007F06EFD0346002B14BF01230023DBB216
:10B9B40083F00103DBB28DF80F309DF80F3003F0F4
:10B9C40001038DF80F30BFF35F8F00BF9DF80F3078
:10B9D400184605B05DF804FB00B583B001900091F2
:10B9E400BFF35F8F00BF0099019807F06DFD00BFA2
:10B9F40003B05DF804FB00B583B001900091BFF380
:10BA04005F8F00BF0099019807F077FD0346184641
:10BA140003B05DF804FB00B585B001900091019B73
:10BA2400002B07D0019B1B68002B03D0019B5B6894
:10BA3400002B01D1FF234EE0FF238DF80F300023AC
:10BA44008DF80E3040E0019B5B689DF80E20114696
:10BA54001846FFF79FFF0346002B13D09DF80F30C5
:10BA6400FF2B03D19DF80E308DF80F309DF80E207A
:10BA74009DF80F30D31A0133009A9A421FD19DF8D2
:10BA84000F3028E09DF80F30FF2B18D09DF80F30B1
:10BA94008DF80D300AE09DF80D301946019800F03C
:10BAA4004FF89DF80D3001338DF80D309DF80D20C1
:10BAB4009DF80E309A42EED3FF238DF80F309DF897
:10BAC4000E3001338DF80E309DF80E20019B9B68DB
