:020000022000DC
:106000000000012019620200016202000362020026
:10601000056202000762020009620200000000003F
:106020000000000000000000000000000B62020001
:106030000D620200000000000F6202001162020007
:10604000B1E102001362020049E70200F1F102002F
:1060500009F202001362020045E602001362020028
:10606000A1640300B964030013620200136202001A
:106070001362020013620200136202001362020044
:106080001362020045110300136202001362020052
:106090001362020013620200215F03001362020018
:1060A0001362020013620200136202001362020014
:1060B00013620200136202000000000000000000F2
:1060C00013620200136202001362020013620200F4
:1060D000136202001362020013620200000000005B
:1060E00000000000000000000000000000000000B0
:1060F00000000000000000000000000000000000A0
:10610000000000000000000000000000000000008F
:10611000000000000000000000000000000000007F
:10612000000000000000000000000000000000006F
:10613000000000000000000000000000000000005F
:10614000000000000000000000000000000000004F
:10615000000000000000000000000000000000003F
:10616000000000000000000000000000000000002F
:10617000000000000000000000000000000000001F
:10618000000000000000000000000000000000000F
:1061900000000000000000000000000000000000FF
:1061A00000000000000000000000000000000000EF
:1061B00000000000000000000000000000000000DF
:1061C00000000000000000000000000000000000CF
:1061D00000000000000000000000000000000000BF
:1061E00000000000000000000000000000000000AF
:1061F000000000000000000000000000000000009F
:10620000FEE7FEE7FEE7FEE7FEE7FEE7FEE7FEE766
:10621000FEE7FEE700F002B8FFF7FCBF0F484FF0C3
:106220000701884385460E4880470E48016841F4BF
:1062300070010160BFF34F8FBFF36F8F00F01AB88A
:1062400009480A490A4A884207D0521A05D00378F9
:1062500001300B700131013AF9D170470000012083
:10626000657B020088ED00E0C06A03006022002028
:10627000742200203A493B480A1A02D0072291436F
:106280008D46394939480A1A06D00722914381F3CD
:106290000988022282F3148835483649364A00F0CC
:1062A00041F836483649374A00F03CF83648374915
:1062B000374A00F037F837483749384A00F032F8A3
:1062C00037483849384A00F02DF838483849394AB3
:1062D00000F028F838483949394A00F023F839489D
:1062E0003949002200F036F838483949002200F0D8
:1062F00031F838483849091A10F007FA374A9047F8
:1063000025482649884205D00268043003B49047E6
:1063100003BCF7E700208646EC4600200021304A07
:106320009047FEE7884214D0521A12D003460B431E
:1063300013430324234206D1036804300B60043165
:10634000043AF9D17047037801300B700131013AFA
:10635000F9D17047884202D002700130FAE77047E5
:106360000000012000E000200000012000000120CA
:106370009CB003007422002010230020E46302007C
:10638000E4630200326903009CB003007422002021
:1063900074220020D46A0300D46A0300D46A030084
:1063A000D46A0300D46A0300D46A0300D46A0300E9
:1063B000D46A030099B0030038B103001023002011
:1063C0001023002010230020745300207453002059
:1063D0007453002074530020747300204162020043
:0463E0005164020002
:1063E40072DF704773DF70477CDF70470388102BC0
:1063F40010B511D0112B00D010BD0F4B0F48104910
:10640400C01AC008000440F003000EF0EBFC0D4B72
:106414004FF6FF725A8110BD074B0B4904460748DB
:10642400C01AC008000440F003000EF0DBFC054B6A
:10643400A2885A8110BD00BFA8690300E069030067
:10644400E46A030068230020D46A03002DE9F04FB6
:106454004FF4004197B000200EF0F2F9002840F00C
:10646400D5800EF06FF9032000F058FA0FF076FC97
:10647400002840F0EE80002307A9012007930FF0C5
:1064840083FD002840F0E08007A80FF071FE00288B
:1064940040F0D580112371498DF81C30082207A8DB
:1064A400FFF7A2FF002840F0C5806D4BA022002119
:1064B4009A6001243C2207A8C3E90011C3E903112F
:1064C40059611C7010F098F9664BADF82C401A68AD
:1064D40002920221062302A88DF81C108DF81F30A9
:1064E4000C901F236049ADF806300DF1060207A891
:1064F40002F0FFF8002840F0988000235A49BDF8C4
:106504000620CDF81230CDF81630ADF81A300391CC
:10651400564BADF810205648514A059303A9FFF78E
:106524005FFF00287CD153480FF0E0FF504B01215E
:106534001878FFF757FF00286DD14F4BDFF85081D3
:106544004E4D4F494F4EA8EB03084FEAD8084FEA87
:10655400084848F0030738460EF044FC45F00105AE
:1065640000F0EAFA00F0F0FE70B9314638460EF059
:1065740039FC4FF47A744FF47A40A847013CFAD1BD
:1065840000F0E2FE0028F0D03F49DFF808A1DFF870
:10659400E490DFF804B138460EF024FC48F001081A
:1065A4000026002307A903A80393079300F05EFFC6
:1065B40070B90A244FF47A40A847013CFAD10EF08E
:1065C4009BFC0028EDD00EF097FC0028F7D1E8E7FB
:1065D400DDED037AB8EE670A00F016FB8642044646
:1065E4000BD00028E5D00246514638460EF008FC90
:1065F4002146484610F01EF808B92646D9E7024657
:10660400594640460EF0FCFB2646D2E71F4A942129
:106614000AF0D4FA25E71D4A8A210AF0CFFA8CE75A
:106624001A4A82210AF0CAFA7DE7184A73210AF04D
:10663400C5FA62E7154A55210AF0C0FA35E7134A4C
:1066440046210AF0BBFA25E7104A43210AF0B6FABC
:106654001AE70E4A3F210AF0B1FA0CE7786B0300FF
:1066640050230020386C0300302300201023002026
:106674007422002068230020A8690300306C030002
:10668400846B03009C6B0300C86B0300F46A030073
:10669400E0690300EC6B0300006C030000B583B0F9
:1066A4000190019B1B68184600F0B5F80346002BC7
:1066B40004D105494FF4F6700CF0A8F84FF0A0434C
:1066C400184603B05DF804FB3C6C030000B585B0CC
:1066D4000190084611461A4603468DF803300B46CE
:1066E4008DF8023013468DF8013001AB1846FFF7E0
:1066F400D5FF03909DF803209DF802305B001A43F8
:106704009DF801309B001A439DF818301B0242EAA1
:1067140003019DF81C301B04019A1943039B02F5E5
:10672400E07243F8221000BF05B05DF804FB00B529
:1067340085B00390002301930023009300230122DA
:1067440001210398FFF7C2FF00BF05B05DF804FB09
:1067540000B585B003900B468DF80B309DF80B30D7
:106764000022019200220092002200210398FFF7E8
:10677400ADFF00BF05B05DF804FB00B585B0019026
:1067840001AB1846FFF78AFF0390019B012202FA2E
:1067940003F31946039800F02AF800BF05B05DF82A
:1067A40004FB00B585B0019001AB1846FFF776FFF6
:1067B4000390019B012202FA03F31946039800F0A7
:1067C40020F800BF05B05DF804FB00B583B001906C
:1067D4000091009B002B03D10198FFF7E2FF02E038
:1067E4000198FFF7CAFF00BF03B05DF804FB82B055
:1067F40001900091019B009AC3F8082500BF02B0E4
:10680400704782B001900091019B009AC3F80C2557
:1068140000BF02B0704784B00190019B5B090293F2
:1068240000230393029B002B03D14FF0FF33039308
:1068340000BF019B03F01F030193039A019B22FAFB
:1068440003F303F00103002B14BF01230023DBB285
:10685400184604B07047000000B583B00190019B56
:10686400032B03D9074947200BF0D0FF064A019BAD
:1068740013441B7801211846FFF7A7FF00BF03B09C
:106884005DF804FB6C6C0300E46C030000B583B09A
:106894000023019305E00198FFF7DEFF019B01331C
:1068A4000193019B032BF6D900BF00BF03B05DF831
:1068B40004FB000000B583B00023019309E0094AFA
:1068C400019B13441B781846FFF731FF019B0133EA
:1068D4000193019B032BF2D9FFF7D8FF00BF03B04C
:1068E4005DF804FBE46C030000B583B0002301935E
:1068F4000AE0094A019B13441B7803211846FFF759
:1069040027FF019B01330193019B032BF1D900BFA6
:1069140000BF03B05DF804FBE86C030000B583B06E
:106924000190019B03F00103002B01D0FFF7C2FF8C
:10693400019B03F00203002B01D0FFF7D5FF00BF3A
:1069440003B05DF804FB000084B001900B468DF8A1
:10695400033013468DF8023000230393019B032B6D
:106964003CD89DF80230012B0BD19DF80330012B4C
:1069740004D1019BDBB20E33DBB200E000238DF8BF
:1069840002309DF80330022B0FD0022B23DC002BA6
:1069940016D0012B1FD11449019A13465B001344EE
:1069A4000B449DF802201A701AE00F49019A13460D
:1069B4005B0013440B4401339DF802201A700FE06E
:1069C4000949019A13465B0013440B4402339DF8B2
:1069D40002201A7004E00723039301E007230393C2
:1069E400039B184604B070477423002000B583B09D
:1069F400012200210020FFF7A7FF0190019B002B3B
:106A040004D0019B072B01D0019B1CE0072202212B
:106A14000120FFF799FF0190019B002B04D0019BFB
:106A2400072B01D0019B0EE0042202210020FFF776
:106A34008BFF0190019B002B04D0019B072B01D0FD
:106A4400019B00E00023184603B05DF804FB00B589
:106A540083B0012202210020FFF776FF0190019B01
:106A6400002B04D0019B072B01D0019B1CE00722C3
:106A740002210120FFF768FF0190019B002B04D045
:106A8400019B072B01D0019B0EE00A22002100206C
:106A9400FFF75AFF0190019B002B04D0019B072BA9
:106AA40001D0019B00E00023184603B05DF804FB0D
:106AB40000B585B001900091019B1B88102B02D07A
:106AC400112B18D02FE01A4B1B68002B0DD1FFF7A8
:106AD4008DFF0390039B002B07D0164B1B68002BE4
:106AE40003D0144B1B6803989847114B1B68013360
:106AF4000F4A136017E00E4B1B68013B0C4A1360EE
:106B04000B4B1B68002B0DD1FFF7A1FF0390039BD8
:106B1400002B07D0074B1B68002B03D0054B1B68C9
:106B24000398984700BF00BF05B05DF804FB00BFA1
:106B3400842300208023002000B583B0244A254B01
:106B4400D31ADB081B0443F00303234918460EF051
:106B540049F9224B00221A60214B00221A80214B52
:106B640000221A60204B00221A700023ADF8063070
:106B74000CE0BDF806301D4A9B0013444FF00002A0
:106B84001A60BDF806300133ADF80630BDF80630A2
:106B9400632BEED9164B4FF000021A60154B164AC0
:106BA4001A60164B4FF000021A60124B1B68144A0D
:106BB4001360074A074BD31ADB081B0443F0030393
:106BC400104918460EF00EF900BF03B05DF804FB3F
:106BD400E0690300A8690300EC6C0300882300202B
:106BE4008C2300209023002098230020A023002041
:106BF400342500207822002000E6AA499C230020A6
:106C040094230020106D030010B590B08DED030A9D
:106C1400AF4B1B680133AE4A1360AE4AAE4BD31A76
:106C2400DB081B0443F00303A94A1268AB49184666
:106C34000EF0E6F89DED030A0FF052FD0346002B1B
:106C440006D19DED030A0FF053FD0346002B0DD131
:106C5400A04AA14BD31ADB081B0443F00103A0494B
:106C640018460EF0BFF89F4B1B8890E2DDED037AC7
:106C74009FED9D7A27EE877A9C4BD3ED007ADFED6A
:106C84009C6A67EEA67A77EE277A984BC3ED007A72
:106C9400964BD3ED007AB0EE670A0FF021FD034660
:106CA400002B09D1914BD3ED007AB0EE670A0FF0B7
:106CB4001FFD0346002B0DD1864A874BD31ADB08F0
:106CC4001B0443F001038B4918460EF08BF8874BE5
:106CD400894A1A60894B93ED007A844BD3ED007A8C
:106CE40037EE277A864BD3ED007A77EE677A9FEDFD
:106CF400857A67EE877AF1EE677A804BC3ED007A86
:106D04007E4BD3ED007AB0EE670A0FF0E9FC034640
:106D1400002B09D1794BD3ED007AB0EE670A0FF05E
:106D2400E7FC0346002B12D16A4A6B4BD31ADB08EB
:106D34001B0443F00103744918460EF053F86F4BDB
:106D44004FF000021A60694B1B686D4A1360674B71
:106D54001B686B4A1360694B93ED007A6B4BD3ED60
:106D6400007A77EE677ACDED057A9DED050A0FF08E
:106D7400B7FC0346002B06D19DED050A0FF0B8FCC5
:106D84000346002B0DD1534A534BD31ADB081B0483
:106D940043F001035E4918460EF024F84FF0000357
:106DA4000593564B1B68594A136000238DF8133022
:106DB400DDED057AF5EEC07AF1EE10FA03DD01237C
:106DC4008DF8133009E0DDED057AF5EEC07AF1EEC9
:106DD40010FA02D5FF238DF8133000238DF82730E5
:106DE4004C4B93ED007A4C4B1B884C4A9B0013444C
:106DF400D3ED007A77EE677A464BC3ED007A464BC3
:106E04001B8818463D4B1A68444983000B441A609A
:106E1400404B93ED007A394BD3ED007A77EE277A25
:106E24003C4BC3ED007A3C4B1B8801333C4A82FB4C
:106E340003125111DA178A1A642101FB02F29A1A19
:106E440092B2354B1A80334B93ED007ADFED356AFD
:106E5400C7EE267ACDED067A9DED060A0FF040FCCA
:106E64000346002B06D19DED060A0FF041FC0346B4
:106E7400002B26D1174A184BD31ADB081B0443F006
:106E84000103294918460DF0ADFF4FF000030693A6
:106E9400204B4FF000021A600023ADF81E300CE0C6
:106EA400BDF81E301D4A9B0013444FF000021A60C7
:106EB400BDF81E300133ADF81E30BDF81E30632B13
:106EC400EED94FF000030E930023ADF8363049E0BD
:106ED40088230020E0690300A8690300346D0300DF
:106EE400546D03008C230020CDCC4C3D782200202F
:106EF4003333733F906D030000E6AA499C230020BE
:106F040094230020CDCCCC3DD06D03003825002047
:106F1400106E03003425002030250020A02300201B
:106F24001F85EB510000C842546E0300BDF8363093
:106F3400984A9B00134493ED007ADDED067A77EED0
:106F4400677ACDED0F7ADDED0F7A67EEA77A9DEDC6
:106F54000E7A77EE277ACDED0E7ABDF8363001330E
:106F6400ADF83630BDF83630632BDFD9DDED0E7A5F
:106F7400DFED896A87EEA67AB0EE470A0FF0C0FB10
:106F84008DED080A9DED080A0FF0AAFB0346002BBD
:106F940006D19DED080A0FF0ABFB0346002B0DD183
:106FA4007E4A7F4BD31ADB081B0443F001037D495F
:106FB40018460DF017FF4FF000030893DDED087A33
:106FC4009FED797A67EE877A9DED067A77EE277AD8
:106FD400CDED0A7A9DED0A0A0FF082FB0346002BE1
:106FE40006D19DED0A0A0FF083FB0346002B0CD15A
:106FF4006A4A6B4BD31ADB081B0443F001036B4949
:1070040018460DF0EFFE069B0A93694B93F9003086
:10701400002B63DD9DF91330002B5FDA654BD3ED54
:10702400007A9DED0A7AB4EEE77AF1EE10FA55D5BE
:1070340001238DF82730594A594BD31ADB081B0416
:1070440043F003005C4B1A685A4BD3ED007AF5EE1B
:10705400C07AF1EE10FA0BD5564BD3ED007ABFEEA1
:10706400007AF4EEC77AF1EE10FA01DD534B00E03A
:10707400534B5049D1ED007AFDEEE77A17EE904A72
:107084004C49D1ED007AF5EEC07AF1EE10FA0CDD40
:10709400484991ED007A4749D1ED007AFDEEE77A4F
:1070A400F8EEE77A77EE677A0BE04249D1ED007AA1
:1070B400FDEEE77AB8EEE77A3E49D1ED007A77EE55
:1070C400677A9FED357A67EE877AFDEEE77A17EEF9
:1070D400901A019100943B490DF0CDFE344A9DF87D
:1070E400133013709DF82730002B50D0324B1A68A0
:1070F400354B1B68D31A0C932F4B1B68324A136011
:107104000C9A13469B0013445B000B930B9BB3F543
:10711400967F39D30B9B40F2DC52934234D84EF61F
:1071240060220B9BB2FBF3F39AB2284B1A801B4AE2
:107134001B4BD31ADB081B0443F00303234A1288B6
:10714400234918460DF05CFE00F0BFF9034683F0B6
:107154000103DBB2002B0BD0104A114BD31ADB080E
:107164001B0443F001031B4918460DF03BFE0BE0E2
:107174000A4A0B4BD31ADB081B0443F002030B9A95
:10718400154918460DF03CFE104B1B88FFE71846C6
:1071940010B010BDA02300200000C842E069030025
:1071A400A8690300A06E03009A99D93FEC6E03000E
:1071B400982300209C23002088230020406F030094
:1071C400446F0300486F0300902300208C230020A9
:1071D4007C6F0300986F0300C46F030000B589B08F
:1071E400059003921A460B468DF8133013468DF81A
:1071F400123000230793059B181D9DF812209DF85B
:1072040013109DF8283000931346039A07F004FFE7
:107214000790079B184609B05DF804FB00B587B0DA
:10722400039001921A460B468DF80B3013468DF8E5
:107234000A3000230593039B181D9DF80A309DF81E
:107244000B10019A07F010FF0590059B184607B034
:107254005DF804FB00B587B003460A468DF80F308D
:1072640013468DF80E309DF80F308DF810309DF8D0
:107274000E308DF811300F4B00221A7004AA00232F
:107284000093022357210C48FFF7A8FF059000BF85
:10729400084B1B78DBB283F00103DBB2002BF7D180
:1072A400059B002B01D0002300E00123184607B002
:1072B4005DF804FB50530020F4AC030000B587B024
:1072C400034602918DF80F3013468DF80E301C4B97
:1072D40000221A700DF10F0201230093012357219C
:1072E4001848FFF77BFF059000BF154B1B78DBB2F6
:1072F40083F00103DBB2002BF7D1059B002B01D0F7
:10730400002319E00E4B00221A709DF80E30029AE9
:1073140057210C48FFF782FF059000BF084B1B78EC
:10732400DBB283F00103DBB2002BF7D1059B002B0A
:1073340001D0002300E00123184607B05DF804FBE8
:1073440050530020F4AC030000B583B001238DF842
:10735400073040210920FFF77DFF03461A469DF8B8
:1073640007301340002B14BF012300238DF807308E
:1073740000210420FFF76EFF03461A469DF80730EC
:107384001340002B14BF012300238DF80730002184
:107394000520FFF75FFF03461A469DF807301340A8
:1073A400002B14BF012300238DF807300021062091
:1073B400FFF750FF03461A469DF807301340002B91
:1073C40014BF012300238DF807301F210820FFF785
:1073D40041FF03461A469DF807301340002B14BFA3
:1073E400012300238DF8073003210920FFF732FF22
:1073F40003461A469DF807301340002B14BF01239F
:1074040000238DF8073047210A20FFF723FF0346A6
:107414001A469DF807301340002B14BF01230023A4
:107424008DF807303F210C20FFF714FF03461A465E
:107434009DF807301340002B14BF012300238DF85F
:1074440007303F210D20FFF705FF03461A469DF83C
:1074540007301340002B14BF012300238DF807309D
:107464009DF80730184603B05DF804FB00B585B0FD
:107474000190009102AB062219460720FFF71EFF78
:10748400034683F00103DBB2002B01D0002318E094
:107494009DF808301A049DF809301B0213439DF827
:1074A4000A201A43019B1A609DF80B301A049DF8B8
:1074B4000C301B0213439DF80D201A43009B1A60E5
:1074C4000123184605B05DF804FB00B583B0012321
:1074D4008DF8073000210420FFF7BCFE03461A464E
:1074E4009DF807301340002B14BF012300238DF8AF
:1074F400073000210520FFF7ADFE03461A469DF82C
:1075040007301340002B14BF012300238DF80730EC
:1075140000210620FFF79EFE03461A469DF8073019
:107524001340002B14BF012300238DF807309DF86E
:107534000730184603B05DF804FB0000BFF34F8F1B
:1075440000BF064BDB6803F4E0620449044B1343B9
:10755400CB60BFF34F8F00BF00BFFDE700ED00E03D
:107564000400FA0582B01D4B1B68B3F1FF3F0AD13A
:107574001B4B1B68DBB201931A4B1B681B0903F0FE
:107584000F03009305E0154B1B680193164B1B6812
:107594000093019B062B1DD1009B033B042B17D8A2
:1075A40001A252F823F000BFC1750200C5750200A4
:1075B400C9750200CD750200D175020001230AE0ED
:1075C400012308E0012306E0012304E0012302E093
:1075D400012300E00023184602B070473001001078
:1075E400E00F00F0E80F00F03401001082B0174BF8
:1075F4001B68DBB20193164B1B681B0903F00F03D6
:107604000093019B062B1DD1009B033B042B17D831
:1076140001A252F823F000BF317602003576020051
:10762400397602003D7602004176020001230AE029
:10763400002308E0002306E0002304E0002302E026
:10764400002300E00023184602B07047E00F00F06A
:10765400E80F00F082B01D4B1B68B3F1FF3F0AD165
:107664001B4B1B68DBB201931A4B1B681B0903F00D
:107674000F03009305E0154B1B680193164B1B6821
:107684000093019B062B1DD1009B033B042B17D8B1
:1076940001A252F823F000BFB1760200B5760200D1
:1076A400B9760200BD760200C176020001230AE029
:1076B400012308E0012306E0012304E0012302E0A2
:1076C400012300E00023184602B070473001001087
:1076D400E00F00F0E80F00F03401001082B0174B07
:1076E4001B68DBB20193164B1B681B0903F00F03E5
:1076F4000093019B062B1DD1009B033B042B17D841
:1077040001A252F823F000BF21770200257702007E
:10771400297702002D7702003177020001230AE065
:10772400002308E0002306E0002304E0002302E035
:10773400002300E00023184602B07047E00F00F079
:10774400E80F00F082B01D4B1B68B3F1FF3F0AD174
:107754001B4B1B68DBB201931A4B1B681B0903F01C
:107764000F03009305E0154B1B680193164B1B6830
:107774000093019B062B1DD1009B033B042B17D8C0
:1077840001A252F823F000BFA1770200A5770200FE
:10779400A9770200AD770200B177020001230AE065
:1077A400012308E0012306E0012304E0012302E0B1
:1077B400012300E00023184602B070473001001096
:1077C400E00F00F0E80F00F03401001082B0174B16
:1077D4001B68DBB20193164B1B681B0903F00F03F4
:1077E4000093019B062B1DD1009B033B042B17D850
:1077F40001A252F823F000BF1178020015780200AC
:10780400197802001D7802002178020001230AE0A1
:10781400002308E0002306E0002304E0002302E044
:10782400002300E00023184602B07047E00F00F088
:10783400E80F00F082B0174B1B68DBB20193164BC4
:107844001B681B0903F00F030093019B062B1DD13A
:10785400009B033B042B17D801A252F823F000BF6E
:10786400797802007D780200817802008578020030
:107874008978020001230AE0002308E0002306E0DF
:10788400002304E0002302E0002300E00023184664
:1078940002B07047E00F00F0E80F00F082B01D4B1B
:1078A4001B68B3F1FF3F0AD11B4B1B68DBB201938A
:1078B4001A4B1B681B0903F00F03009305E0154BDB
:1078C4001B680193164B1B680093019B062B1DD16B
:1078D400009B033B042B17D801A252F823F000BFEE
:1078E400F9780200FD7802000179020005790200AE
:1078F4000979020000230AE0002308E0012306E0DE
:10790400012304E0012302E0012300E000231846E0
:1079140002B0704730010010E00F00F0E80F00F0F3
:107924003401001082B01D4B1B68B3F1FF3F0AD134
:107934001B4B1B68DBB201931A4B1B681B0903F03A
:107944000F03009305E0154B1B680193164B1B684E
:107954000093019B062B1DD1009B033B042B17D8DE
:1079640001A252F823F000BF817902008579020058
:10797400897902008D7902009179020001230AE0DD
:10798400012308E0012306E0012304E0012302E0CF
:10799400012300E00023184602B0704730010010B4
:1079A400E00F00F0E80F00F03401001082B01D4B2E
:1079B4001B68B3F1FF3F0AD11B4B1B68DBB2019379
:1079C4001A4B1B681B0903F00F03009305E0154BCA
:1079D4001B680193164B1B680093019B062B1DD15A
:1079E400009B033B042B17D801A252F823F000BFDD
:1079F400097A02000D7A0200117A0200157A020057
:107A0400197A020001230AE0012308E0012306E0B9
:107A1400012304E0012302E0012300E000231846CF
:107A240002B0704730010010E00F00F0E80F00F0E2
:107A34003401001082B0154B1B680193144B1B6872
:107A44000093019B062B1DD1009B033B042B17D8ED
:107A540001A252F823F000BF717A0200757A020085
:107A6400797A02007D7A0200817A020000230AE01A
:107A7400002308E0002306E0012304E0012302E0E0
:107A8400012300E00023184602B0704730010010C3
:107A94003401001082B0154B1B680193144B1B6812
:107AA4000093019B062B1DD1009B033B042B17D88D
:107AB40001A252F823F000BFD17A0200D57A020065
:107AC400D97A0200DD7A0200E17A020000230AE09A
:107AD400002308E0002306E0002304E0012302E081
:107AE400012300E00023184602B070473001001063
:107AF4003401001008B5FFF7CDFF0346002B07D073
:107B04004FF010234FF08042D3F80832C2F85835B2
:107B140000BF08BD00BF044BD3F80034002BFAD0DB
:107B240000BF00BF704700BF00E0014000B583B054
:107B34000190054A019BC2F80435FFF7EBFF00BF33
:107B440003B05DF804FB00BF00E00140024B034AB0
:107B54001A6000BF704700BF7C2200200090D00351
:107B640008B5FFF7FFFC0346002B06D0964B1B68B5
:107B74001B0A964A03F01F031360FFF737FD034601
:107B8400002B02D0924B934A1A60FFF763FD034621
:107B9400002B06D0904B1B685B0B904A03F0070345
:107BA4001360FFF79BFD0346002B05D08C4BDB686D
:107BB4008B4A23F08073D360FFF7C4FD0346002B88
:107BC4000ED04FF080430022C3F80C214FF08043C5
:107BD4000022C3F810214FF080430022C3F8382557
:107BE400FFF7F4FD0346002B02D07E4B03221A60FC
:107BF400FFF720FE0346002B0BD07B4B05221A60B7
:107C04007A4B01221A607A4B00221A60794B3F2288
:107C14001A60FFF743FE0346002B76D04FF08053E3
:107C2400754AD3F80434C2F820354FF08053724AB1
:107C3400D3F80834C2F824354FF080536E4AD3F891
:107C44000C34C2F828354FF080536B4AD3F8103403
:107C5400C2F82C354FF08053674AD3F81434C2F875
:107C640030354FF08053644AD3F81834C2F83435B1
:107C74004FF08053604AD3F81C34C2F840354FF0BB
:107C840080535D4AD3F82034C2F844354FF0805312
:107C9400594AD3F82434C2F848354FF08053564A31
:107CA400D3F82834C2F84C354FF08053524AD3F8F5
:107CB4002C34C2F850354FF080534F4AD3F8303447
:107CC400C2F854354FF080534B4AD3F83434C2F8D9
:107CD40060354FF08053484AD3F83834C2F86435DD
:107CE4004FF08053444AD3F83C34C2F868354FF01F
:107CF4008053414AD3F84034C2F86C354FF0805376
:107D04003D4AD3F84434C2F87035FFF70BFE0346FE
:107D1400002B05D0394B1B68394A03F04F0313601D
:107D2400FFF744FE0346002B0DD04FF08043D3F8F9
:107D3400003403F00103002B05D04FF080436FF0B3
:107D44000102C3F80024FFF775FE0346002B05D09B
:107D54002C4B1B682B4A43F4806313602A4BD3F8E3
:107D64008830294A43F47003C2F88830BFF34F8F38
:107D740000BFBFF36F8F00BFFFF7BCFE4FF01023AF
:107D8400D3F80032002B05DB4FF01023D3F8043274
:107D9400002B15DA0120FFF7C9FE4FF0102315223E
:107DA400C3F80022FFF7B6FE4FF010231522C3F8E4
:107DB4000422FFF7AFFE0020FFF7B8FEFFF7BEFB7B
:107DC400FFF7C4FE00BF08BD240300104035014086
:107DD40074C007400DF0ADBA440200103C050040E9
:107DE400F0ED00E0A0050040105600408856004029
:107DF400185600401456004000C0004058020010BD
:107E0400E40E00403C17004000ED00E06DDF7047D9
:107E140000BF184679DF704700BF18467DDF704702
:107E240000BF184664DF704700BF184682B003469F
:107E34000091ADF80630BDF80630DAB2009B1A7036
:107E4400BDF806301B0A9AB2009B0133D2B21A70F5
:107E54000223184602B0704700B589B0039002911E
:107E64001346ADF80630029B1B8803F10902BDF8E6
:107E740006309A4201D90C2353E004AB1846FFF7AD
:107E8400C5FF0790079B0693069B002B01D0069B1A
:107E940047E0029B1B881A46039B134408221A706E
:107EA400029B1B8801339AB2029B1A80029B1B8897
:107EB4001A46039B13441B221A70029B1B8801332E
:107EC4009AB2029B1A80029B1B881A46039B98183D
:107ED40004AB0133062219460EF05CFC029B1B889E
:107EE40006339AB2029B1A809DF8103023F00103E6
:107EF400DBB2002B07D1029B1B881A46039B134459
:107F040000221A7006E0029B1B881A46039B134446
:107F140001221A70029B1B8801339AB2029B1A80B9
:107F24000023184609B05DF804FB00B589B003903E
:107F340002910192ADF80230039B1B78012B05D10D
:107F4400039B5B78002B01D1072391E0019B1B88E5
:107F54009A1CBDF802309A420ED8039B1B78012B61
:107F64000CD1019B1B881A46039B5B7813449A1C13
:107F7400BDF802309A4201D90C2379E0019B1B8899
:107F8400BDF80220D31A9BB2023BADF81C30BDF8F9
:107F94001C30ADF81230019B1B880233029A134443
:107FA4000DF1120211461846FFF738FF0690069BA2
:107FB4000593059B002B01D0059B59E0039B1B787F
:107FC400022B06D0039B5B781A46BDF812309A4206
:107FD40009D3BDF81230BDF81C209A4203D30923FB
:107FE4008DF81F3016E008238DF81F30039B1B7893
:107FF400012B0BD1039B5B781A46BDF81C309342CE
:1080040004D3039B5B78ADF8123003E0BDF81C3059
:10801400ADF81230BDF81230FE2B01D90C2327E045
:10802400BDF81230DAB2019B1B881946029B0B443F
:108034000132D2B21A70019B1B8801339AB2019BA0
:108044001A80019B1B881A46029B13449DF81F202B
:108054001A70019B1B8801339AB2019B1A80019B01
:108064001A88BDF8123013449AB2019B1A80002377
:10807400184609B05DF804FB00B589B0039002917D
:108084001346ADF80630029B1B881A1DBDF8063056
:108094009A4201D90C233AE00DF116031846FFF772
:1080A400B9FE0790079B0693069B002B01D0069B05
:1080B4002DE0029B1B881A46039B134403221A706B
:1080C400029B1B8801339AB2029B1A80029B1B8875
:1080D4001A46039B134419221A70029B1B8801330E
:1080E4009AB2029B1A80BDF81620029B1B8819467F
:1080F400039B0B4419461046FFF798FE03461A46A5
:10810400029B1B8813449AB2029B1A8000231846D0
:1081140009B05DF804FB84B0029101921A4603464B
:108124008DF80F301346ADF80C30019B1B88DA1C18
:10813400BDF80C309A4201D90C2328E0019B1B881E
:108144001A46029B134402221A70019B1B880133B6
:108154009AB2019B1A80019B1B881A46029B134406
:1081640001221A70019B1B8801339AB2019B1A8069
:10817400019B1B881A46029B13449DF80F201A701A
:10818400019B1B8801339AB2019B1A800023184675
:1081940004B0704784B0029101921A4603468DF8E8
:1081A4000F301346ADF80C30019B1B88DA1CBDF868
:1081B4000C309A4201D90C2328E0019B1B881A46F3
:1081C400029B134402221A70019B1B8801339AB24A
:1081D400019B1A80019B1B881A46029B13440A22A6
:1081E4001A70019B1B8801339AB2019B1A80019B70
:1081F4001B881A46029B13449DF80F201A70019B9A
:108204001B8801339AB2019B1A800023184604B0DC
:10821400704700B58FB0039001930B468DF80B3077
:1082240013468DF80A3000238DF83330109B1B88D9
:10823400ADF8303000230D9370E0039B5A680D9B1A
:108244009B001A4405AB106818600DF11B0105ABC7
:1082540000221846FFF7E6FD0A900A9B0993099B42
:10826400002B01D0099B7BE09DF81B309DF80A2070
:108274009A4250D19DF83330002B01D0002300E006
:1082840002238DF82330109B1B881A469DF81B305F
:108294001A449DF823301A44BDF844309A4201DD53
:1082A4000C235DE09DF8333083F00103DBB2002B37
:1082B40016D0109B1B8801339AB2109B1A80109B16
:1082C4001B881A46019B13449DF80B201A70109BBF
:1082D4001B8801339AB2109B1A8001238DF8333026
:1082E400109B1B881A46019B1A440DF11B0105AB18
:1082F4001846FFF797FD0A900A9B0793079B002BEC
:1083040001D0079B2CE0109B1B889DF81B20134475
:108314009AB2109B1A800D9B01330D93039B1B880B
:108324001A460D9B934288DB9DF83330002B16D000
:10833400109B1A88BDF83030D31A9BB2013BADF8BC
:108344002E30BDF82E30FF2B01D90C2308E0BDF8E8
:108354003030019A1344BDF82E20D2B21A70002393
:1083640018460FB05DF804FB00B58BB0059003937D
:108374000B468DF8133013468DF812309DF8131008
:10838400BDF8343001930C9B0093039B02220598A3
:10839400FFF73FFF0990099B0893089B002B01D02E
:1083A400089B14E09DF81210BDF8343001930C9B27
:1083B4000093039B10220598FFF72BFF0990099B5C
:1083C4000793079B002B01D0079B00E0002318466E
:1083D4000BB05DF804FB82B00190019B1B88052B58
:1083E4000AD9019B1B88B3F5486F07D9019B1B88E9
:1083F4004FF6FF72934201D0072325E0019B5B886F
:10840400052B0AD9019B5B88B3F5486F07D9019BFB
:108414005B884FF6FF72934201D0072314E0019B5F
:108424001B884FF6FF7293420DD0019B5B884FF679
:10843400FF72934207D0019B1A88019B5B889A4282
:1084440001D9072300E00023184602B0704700B5A5
:1084540087B0039002910192ADF80230019B1B8812
:108464009A1DBDF802309A4201D90C234BE00398BF
:10847400FFF7B1FF0590059B0493049B002B01D0EB
:10848400049B40E0019B1B881A46029B134405226F
:108494001A70019B1B8801339AB2019B1A80019BBD
:1084A4001B881A46029B134412221A70019B1B88D4
:1084B40001339AB2019B1A80039B1A88019B1B8883
:1084C4001946029B0B4419461046FFF7AFFC0346BE
:1084D4001A46019B1B8813449AB2019B1A80039B82
:1084E4005A88019B1B881946029B0B441946104667
:1084F400FFF79CFC03461A46019B1B8813449AB25F
:10850400019B1A800023184607B05DF804FB00B5F0
:1085140087B0039002910192ADF80230039B9B88CF
:1085240002330593019B1B881A46059B13449A1C2E
:10853400BDF802309A4201D90C2353E0059BFE2B6F
:1085440001D90C234EE0059BDAB2019B1B88194626
:10855400029B0B440132D2B21A70019B1B88013377
:108564009AB2019B1A80019B1B881A46029B1344F2
:10857400FF221A70019B1B8801339AB2019B1A8057
:10858400039B1A88019B1B881946029B0B441946BE
:108594001046FFF74BFC03461A46019B1B88134405
:1085A4009AB2019B1A80039B9B88002B19D0039BD2
:1085B4009B68002B01D1072314E0019B1B881A46FA
:1085C400029B9818039B9968039B9B881A460EF09C
:1085D400E1F8019B1A88039B9B8813449AB2019B80
:1085E4001A800023184607B05DF804FB00B589B073
:1085F400039002910192ADF80230039B9B6A002B19
:1086040001D1072371E000238DF81F3065E0039B3F
:10861400996A9DF81F2013465B0013449B000B448A
:108624000693069B9B8802330593059BFE2B01D979
:108634000C235AE0059BDAB2019B1B881946029B66
:108644000B440132D2B21A70019B1B8801339AB2D7
:10865400019B1A80019B1B881A46029B1344162215
:108664001A70019B1B8801339AB2019B1A80069BE6
:108674001A88019B1B881946029B0B441946104615
:10868400FFF7D4FB03461A46019B1B8813449AB296
:10869400019B1A80069B9B88002B19D0069B9B6824
:1086A400002B01D1072320E0019B1B881A46029B63
:1086B4009818069B9968069B9B881A460EF06AF8E0
:1086C400019B1A88069B9B8813449AB2019B1A80CB
:1086D4009DF81F3001338DF81F30039B93F82C3025
:1086E4009DF81F209A4292D30023184609B05DF8E2
:1086F40004FB00B595B005900491039200231393F5
:10870400039B1B88ADF84A30039B00221A80059B0B
:1087140093F82D30002B0ED0BDF84A301A46039939
:108724000498FFF799FB1390139B1193119B002B53
:1087340001D0119BD8E0059B9B78002B0ED0BDF88F
:108744004A301A4603990498FFF796FC1390139B3A
:108754001093109B002B01D0109BC5E0059BDB7888
:10876400002B10D0059BDB7858B2BDF84A30039A31
:108774000499FFF7D0FC1390139B0F930F9B002BCE
:1087840001D00F9BB0E0059B5B68002B11D0059BCB
:108794005B6893F90000BDF84A30039A0499FFF727
:1087A400F9FC1390139B0E930E9B002B01D00E9B90
:1087B4009AE0059B1B89002B14D0059B03F108004C
:1087C400BDF84A300193039B0093049B06220221C7
:1087D400FFF7CAFD1390139B0D930D9B002B01D043
:1087E4000D9B81E0059B1B8A002B14D0059B03F194
:1087F4001000BDF84A300193039B0093049B0722A9
:108804000321FFF7B1FD1390139B0C930C9B002BDA
:1088140001D00C9B68E0059B1B8B002B14D0059B9F
:1088240003F11800BDF84A300193039B0093049BA5
:1088340015221421FFF798FD1390139B0B930B9BA8
:10884400002B01D00B9B4FE0059B1B6A002B0FD024
:10885400059B186ABDF84A30039A0499FFF7F7FD9F
:108864001390139B0A930A9B002B01D00A9B3BE0B5
:10887400059B5B6A002B0FD0059B586ABDF84A30F4
:10888400039A0499FFF743FE1390139B0993099BE2
:10889400002B01D0099B27E0059B93F82C30002B7B
:1088A4000ED0BDF84A30039A04990598FFF79EFE4E
:1088B4001390139B0893089B002B01D0089B13E093
:1088C400059B1B78002B0ED0BDF84A30039A0499FF
:1088D4000598FFF72AFB1390139B0793079B002B24
:1088E40001D0079B00E0139B184615B05DF804FB0C
:1088F40084B00346ADF806300023039316E00F4915
:10890400039A13469B0013449B000B441B88BDF839
:1089140006209A4207D1039A13469B0013449B00F6
:10892400064A134406E0039B01330393039B002B85
:10893400E5D00023184604B0704700BF3C25002052
:1089440082B001900B46ADF80230019BBDF80220C5
:108954001A80019B00221A72019B054903F10A0245
:108964000B4603CB1060516000BF02B0704700BFDC
:108974006C25002082B00190019B4FF6FF721A8093
:1089840000BF02B0704788B00390029111461A46A6
:108994000B46ADF806301346ADF80430039B9B88B4
:1089A4001A46BDF8063013440793039B9B88194667
:1089B400039B9B88BDF80620934228BF13469BB2B5
:1089C400CB1A0693039BDB881A46BDF80430134484
:1089D4000593039BDB881946039BDB88BDF80420C1
:1089E400934228BF13469BB2CB1A0493029B5A8826
:1089F400039B1B889A4205D3029B5A88039B5B887E
:108A04009A4201D900231CE0029B9B881A46069BCC
:108A1400934205D8029B9B881A46079B934201D236
:108A240000230EE0029BDB881A46049B934205D880
:108A3400029BDB881A46059B934201D2002300E087
:108A44000123184608B0704700B583B00190064B67
:108A54009B69002B03D0044B9B690198984700BF86
:108A640003B05DF804FB00BF5025002000B587B0BB
:108A740003460091ADF80630009B5B7A002B1AD1B7
:108A8400009B1B7A002B03D1164B5B68059302E015
:108A9400144B9B680593009B5B68BDF80620059901
:108AA400184608F0AFF90490049B002B16D00498E4
:108AB400FFF7CAFF12E0009B00221A72094B5B69A0
:108AC400002B0BD001238DF80C30BDF80630ADF827
:108AD4000E30044B5B6903AA1046984700BF07B0E9
:108AE4005DF804FB5025002000B585B00190019B82
:108AF400DB7B8DF80F30019B9B88ADF80C309DF823
:108B04000F30012B2CD14FF6FF70FFF7F1FE0290CE
:108B1400029B002B03D10420FFF796FF21E0BDF850
:108B24000C3019460298FFF70BFF029B03F10A0071
:108B3400019B03F110014FF6FF7340F2F312FFF7AC
:108B440022FF03461A46029B5A72074BDB89002B0D
:108B540007D1BDF80C3002991846FFF787FF00E0F3
:108B640000BF05B05DF804FB5025002000B587B0B8
:108B74000190019B9B88ADF81630BDF8163018465D
:108B8400FFF7B6FE0490049B002B0ED0049B5B6899
:108B9400184608F08FF90390039B002B02D003982A
:108BA400FFF752FF0498FFF7E5FE00BF07B05DF83A
:108BB40004FB000000B587B00190019B06330593C8
:108BC400059B1A88194BDB899A422BD1059B5B893B
:108BD400022B27D1019B9B88ADF81230BDF81230CF
:108BE4001846FFF785FE0390039B002B1AD0059BC4
:108BF4000C33184600F083FB0346002B06D0BDF867
:108C0400123003991846FFF731FF0BE0039B5B68B2
:108C1400184608F04FF90290029B002B02D00298EC
:108C2400FFF712FF00BF07B05DF804FB50250020DA
:108C340000B585B00190019B9B88ADF80E30BDF85E
:108C44000E301846FFF754FE0290029B002B15D0FD
:108C5400029B03F10A00019B03F108014FF6FF7325
:108C640040F2F312FFF78FFE03461A46029B5A7234
:108C7400BDF80E3002991846FFF7F8FE00BF05B0A4
:108C84005DF804FB00B583B001900091019B1B8843
:108C9400502B12D0502B18DC122B12D0122B14DCB8
:108CA400102B02D0112B04D00FE00198FFF71CFF0A
:108CB4000CE00198FFF75AFF08E00198FFF77AFFEC
:108CC40004E00198FFF7B4FF00E000BF00BF03B069
:108CD4005DF804FB30B58FB001900091002302933E
:108CE400009B002B1AD000230D9314E06B460D99C2
:108CF400184609F0C5FE0346002B09D0029B5A1CF6
:108D040002920D9A92B25B0038336B4423F82C2CF8
:108D14000D9B01330D930D9B132BE7D9019B1D462E
:108D240002AC0FCC0FC50FCC0FC594E8070085E843
:108D3400070001980FB030BD00B583B00346ADF80D
:108D44000630BDF80630132B01D900230CE0BDF822
:108D540006301946064809F03EFEBDF806301946AD
:108D6400044809F038FE0123184603B05DF804FBFB
:108D74007C2500207825002000B585B00346ADF899
:108D84000630002303930DE0039B9B00094A134420
:108D94000433BDF806201146184609F058FE039B1B
:108DA40001330393039B1D2BEED900BF00BF05B015
:108DB4005DF804FB7425002000B583B00346ADF8CC
:108DC4000630BDF806301946034809F040FE00BFDE
:108DD40003B05DF804FB00BF7C25002030B59BB0D8
:108DE400184B9B68DB431893164B5A6818AB114613
:108DF400184609F01BFF189A6B4611461846FFF7F0
:108E040069FF0DAC6D460FCD0FC40FCD0FC495E8AF
:108E1400070084E80700002319930BE0199B5B000B
:108E240068336B4433F8303C1846FFF7A5FF199BB1
:108E3400013319930D9B199A9A42EFD300BF00BFD7
:108E44001BB030BD7425002000B583B003468DF8F7
:108E540007309DF807301946034809F011FE034610
:108E6400184603B05DF804FB7425002000B583B0F8
:108E740001900B46ADF8023013468DF801309DF891
:108E84000130002B06D0BDF802301946019809F0D4
:108E9400A2FD05E0BDF802301946019809F0D7FD9E
:108EA40000BF03B05DF804FB00B585B001900091EC
:108EB400019B9B88ADF80E30019B1B88103B0A2B4D
:108EC40000F2888001A252F823F000BFFD8E020058
:108ED400398F0200D98F0200D98F0200D98F020086
:108EE400D98F0200D98F0200D98F0200D98F0200D6
:108EF400A38F0200458F0200FFF770FFBDF80E300C
:108F04001846FFF719FF034683F00103DBB2002B79
:108F140005D0324AF021042007F050FE57E0019BAF
:108F2400DB7B022B53D1BDF80E3019462C4809F0D7
:108F340052FD4CE0BDF80E301846FFF73DFF49E006
:108F4400019B1B7AC3F30313DBB28DF80D309DF83C
:108F54000D30032B8CBF01230023DAB2BDF80E3091
:108F640019462048FFF782FF9DF80D30022B8CBF75
:108F740001230023DAB2BDF80E3019461A48FFF770
:108F840075FF9DF80D30012B8CBF01230023DAB24D
:108F9400BDF80E3019461548FFF768FF1AE0019B2B
:108FA4001B7A002B15D1019B5B7AC3F3C003DBB2A0
:108FB400002B14BF012300238DF80C309DF80C20E6
:108FC400BDF80E3019460748FFF750FF01E000BF17
:108FD40000E000BF00BF05B05DF804FBE86F0300CC
:108FE400802500208C250020882500208425002051
:108FF40000B583B00346ADF80630BDF80630132B38
:1090040001D9002306E0BDF806301946034809F0EB
:1090140037FD0346184603B05DF804FB78250020AD
:1090240000B585B00346ADF8063000238DF80F3047
:10903400BDF806301846FFF7DBFF0346002B11D0BE
:10904400BDF8063019460A4809F01AFD03468DF8A2
:109054000E309DF80E30002B01D0022300E00123D6
:109064008DF80F309DF80F30184605B05DF804FBFD
:109074008025002000B585B00346ADF806300023F6
:109084008DF80F30BDF806301846FFF7B1FF0346E0
:10909400002B11D0BDF8063019460A4809F0F0FC3F
:1090A40003468DF80E309DF80E30002B01D00223BC
:1090B40000E001238DF80F309DF80F30184605B0FD
:1090C4005DF804FB7C25002000B583B00346ADF8B1
:1090D4000630BDF806301846FFF78AFF0346002B1A
:1090E40007D0BDF806301946044809F0C9FC034608
:1090F40000E00023184603B05DF804FB842500203B
:1091040000B583B00346ADF80630BDF80630184606
:10911400FFF76EFF0346002B07D0BDF80630194653
:10912400044809F0ADFC034600E00023184603B0F0
:109134005DF804FB8825002000B583B00346ADF834
:109144000630BDF806301846FFF752FF0346002BE1
:1091540007D0BDF806301946044809F091FC0346CF
:1091640000E00023184603B05DF804FB8C250020C2
:1091740000B583B003460A46ADF8063013468DF8B1
:1091840005309DF805301846FFF75EFE0346002BB8
:1091940016D0BDF806301846FFF72AFF0346002B09
:1091A4000ED09DF8053006339B00084A134404335F
:1091B400BDF806201146184609F062FC034600E09B
:1091C4000023184603B05DF804FB00BF742500209B
:1091D40000B583B00346ADF806300B468DF8053074
:1091E40013468DF804309DF805301846FFF72CFE21
:1091F4000346002B15D0BDF806301846FFF7F8FEDD
:109204000346002B0DD09DF8053006339B00074A1A
:10921400134404339DF80420BDF806101846FFF7E4
:1092240025FE00BF03B05DF804FB00BF74250020D9
:1092340000B587B0039002910192029B002B01D1EB
:1092440000231FE000230593039B002B19D0002368
:10925400049313E003AB0499184609F011FC034688
:10926400002B08D0049B9AB2029B019910469847A0
:10927400059B01330593049B01330493049B132B37
:10928400E8D9059B184607B05DF804FB00B585B026
:109294000346029101928DF80F309DF80F30184665
:1092A400FFF7D2FD034683F00103DBB2002B01D0AC
:1092B40000230CE09DF80F30074A06339B0013444B
:1092C4005B68019A02991846FFF7B2FF03461846F5
:1092D40005B05DF804FB00BF7425002082B0019046
:1092E400019B1B781AB2019B01331B781BB21B0232
:1092F4001BB213431BB29BB2184602B0704700B5B1
:1093040085B001900198FFF7E9FF0346ADF80E30F0
:10931400BDF80E3003F00103002B14BF012300231A
:10932400DBB2184605B05DF804FBA0DF704700BF50
:109334001846A1DF704700BF1846ADDF704700BF75
:109344001846B3DF704700BF1846B4DF704700BF4C
:109354001846000000B585B00190019B002B03D195
:109364000A49852009F052FA0121019809F0FFFB0E
:109374000390BFF35F8F00BF039B002B0CBF01233F
:109384000023DBB2184605B05DF804FB84710300CA
:1093940000B583B00190019B002B03D10A499220B0
:1093A40009F034FA019B1B68012B03D00649932072
:1093B40009F02CFABFF35F8F00BF019B00221A60F3
:1093C40000BF03B05DF804FB8471030000B585B0F1
:1093D4000190019B5B88184601F05AFA03461A462D
:1093E400019B9A800023039308E0084A039B52F8E8
:1093F400233001989847039B01330393039B002B6D
:10940400F3D000BF00BF05B05DF804FB802200204C
:1094140082B00190019B9B79012B0BD1019B1B799D
:10942400012B07D1019B5B8842F60212934201D1C2
:10943400012300E0002303F00103DBB2184602B06D
:10944400704700B589B003460091ADF8063003AB10
:1094540000221A605A609A60DA601A6108238DF853
:109464000C30BDF80630ADF80E30009B059303AB0D
:109474001846FFF7ABFF00BF09B05DF804FB00001E
:1094840010B58AB00346ADF8063000238DF82730B6
:1094940003AB00221A605A609A60DA601A61BDF860
:1094A4000630ADF80E30BDF806304FF6FF72934229
:1094B40061D0BDF80630184600F034FF0890089BD0
:1094C40043F2020293424BD0089B43F202029342BE
:1094D4002DD8089B112B11D0089B112B27D8089B42
:1094E400002B03D0089B0B2B0CD020E00F238DF80E
:1094F4000C3003AB1846FFF769FF32E001238DF807
:1095040027302EE010238DF80C301C4A1C4BD31A44
:10951400DB081B0443F00203BDF806201949184672
:109524000BF06EFC03AB1846FFF750FF19E0134A2B
:10953400134BD31ADB081B0443F0010408980AF008
:1095440079FE03461A46BDF806300F4920460BF053
:1095540068FCBDF8063008991846FFF772FF00E072
:1095640000BF0A4B19789DF82720BDF8063018462D
:10957400FFF72EFE00E000BF0AB010BD506A0300E2
:10958400A8690300D071030050720300F525002080
:1095940000B583B003460A46ADF8063013468DF88D
:1095A4000530064B19789DF80520BDF8063018469D
:1095B400FFF70EFE00BF03B05DF804FBF4250020A6
:1095C40010B58AB00346ADF8063000238DF8273075
:1095D40000238DF82630BDF80630184600F0BAFD99
:1095E4000890089B43F20202934258D0089B43F22E
:1095F400020293423AD8089B862B17D0089B862BED
:1096040034D8089B112B0DD0089B112B2ED8089B06
:10961400002B03D0089B0B2B41D027E001238DF8AE
:1096240026303DE001238DF8273039E003AB0022DA
:109634001A605A609A60DA601A6107238DF80C3058
:10964400BDF80630ADF80E301C4A1D4BD31ADB08AA
:109654001B0443F00203BDF806201A4918460BF018
:10966400CFFB03AB1846FFF7B1FE19E0134A144BC6
:10967400D31ADB081B0443F0010408980AF0DAFD4E
:1096840003461A46BDF806300F4920460BF0C9FBC5
:10969400BDF8063008991846FFF7D3FE00E000BF76
:1096A4009DF82720BDF8063011461846FFF770FFD5
:1096B4009DF8263018460AB010BD00BF506A03005A
:1096C400A8690300A4720300DC72030000B589B02A
:1096D40003460091ADF8063000238DF81F300DF1DC
:1096E40016031846FFF72DFE0690069B002B04D0A8
:1096F4002A494FF4997009F089F80123ADF81C3018
:1097040040E00223ADF808300023ADF80A3004AB82
:10971400039304A9BDF81C3000221846FFF715FE78
:109724000690069B002B01D0069B32E09DF81F306B
:1097340083F00103DBB2002B09D0BDF8103042F6F0
:109744000522934203D101238DF81F3015E09DF8C3
:109754001F30002B11D0BDF8103042F60212934294
:109764000BD1009B039302AABDF81C10BDF8063070
:109774001846FFF7E2FD03460BE0BDF81C30013349
:10978400ADF81C30BDF81630BDF81C209A42B8D391
:109794000523184609B05DF804FB00BF1C730300E1
:1097A40010B58AB00346ADF8063001238DF8273092
:1097B40000238DF82630BDF80630184600F062FE0E
:1097C4000890089B43F2014293426AD0089B43F2FB
:1097D400014293426BD8089B112B29D8089B112B6B
:1097E40065D801A252F823F041980200B398020010
:1097F400B3980200B3980200B3980200B398020031
:109804008D980200B39802006D980200B39802008C
:10981400B3980200B3980200B3980200B398020010
:10982400B3980200B3980200B3980200E5980200CE
:10983400089B43F20202934254D038E003AB002267
:109844001A605A609A60DA601A6111238DF80C303C
:10985400BDF80630ADF80E3001238DF8263003AB89
:109864001846FFF7B3FD3EE00DF10A02BDF80630DD
:1098740011461846FFF72AFF0890089B002B03D1D6
:10988400BDF80A30002B2ED100238DF82730BDF807
:109894000630184600F0FCFF0346184600F03AFE76
:1098A40021E0BDF806301846FFF7EAFD1BE0184A30
:1098B400184BD31ADB081B0443F0010408980AF080
:1098C400B9FC03461A46BDF80630134920460BF08E
:1098D400A8FABDF8063008991846FFF7B2FD02E071
:1098E40000BF00E000BF0D4B19789DF82720BDF89C
:1098F40006301846FFF76CFC094B19789DF82620B2
:10990400BDF806301846FFF763FC00BF0AB010BD6F
:10991400506A0300A8690300AC730300F625002015
:10992400F725002000B583B003460091ADF806305A
:10993400BDF806301846FFF7A3FD00BF03B05DF87D
:1099440004FB000008B5044B1B78002203491846A9
:10995400FFF79CFC00BF08BDF525002029990200F3
:1099640000B583B003460091ADF806300A48FFF70E
:10997400F1FC0346002B0CD0BDF806301846FFF767
:109984001FFE0346002B03D10348FFF701FD00E04F
:1099940000BF03B05DF804FBF025002000B583B0E0
:1099A40003460091ADF806300B4B1A78BDF806302B
:1099B40011461846FFF7DCFB034683F00103DBB2D4
:1099C400002B04D0BDF806301846FFF7E9FE00BFAF
:1099D40003B05DF804FB00BFF725002008B5044B75
:1099E4001B78002203491846FFF750FC00BF08BD4E
:1099F400F6250020A199020000B583B00346ADF816
:109A04000630BDF80630184600F018FD0346002B5A
:109A140007D0064B1978BDF8063001221846FFF727
:109A2400D7FB00BF03B05DF804FB00BFF6250020A0
:109A340000B587B003460091ADF8063004AB0422AC
:109A4400002118460CF0D8FE42F6A623ADF81030DB
:109A540001238DF812300D4B1B68039303AA04A94C
:109A6400BDF806301846FFF760FC0590059B002BF7
:109A740007D1074B1978BDF8063001221846FFF7C5
:109A8400A7FB00BF07B05DF804FB00BFEC73030045
:109A9400F925002000B585B00346ADF80630BDF8C1
:109AA4000630184600F0F4FE0346184602AA0023C6
:109AB400092101F0EEF90346052B07D1054B19786E
:109AC400BDF8063001221846FFF782FB00BF05B03F
:109AD4005DF804FBF825002000B583B00B4B1B7820
:109AE40000220B491846FFF7D1FB0190019B002B84
:109AF40007D1084B1B78002207491846FFF7C6FB1D
:109B0400019000BF03B05DF804FB00BFF425002002
:109B140065990200F8250020359A020000B583B04B
:109B24000190019B1B78002B11D1019B5B88184687
:109B3400FFF7A6FC019B5B881846FFF75DFF019BBE
:109B44005B881846FFF7A6FFFFF7C6FF00E000BFDB
:109B540000BF03B05DF804FB00B589B00190019B20
:109B64001B78092B5ED1019B5B7A002B5AD1019B98
:109B74001B7A082B47D0082B4DDC012B1BD0072B5D
:109B840049D1019B9B88184600F02CFF0346ADF891
:109B94001E30BDF81E304FF6FF7293423DD0BDF823
:109BA4001E3001211846FFF7F3FCBDF81E3018469D
:109BB400FFF770FF31E0019B9B8803AA012118463F
:109BC40001F0B0FE0690069B002B28D1049B1B7865
:109BD400002B24D0019B9B88184600F003FF03460A
:109BE400ADF81630BDF816304FF6FF72934216D01A
:109BF4000F4B1978BDF8163001221846FFF7E8FA22
:109C0400FFF7ECFE0BE00B4B1B68012B09D1094855
:109C1400FFF7BEFB05E000BF04E000BF02E000BFA9
:109C240000E000BFFFF758FF00BF09B05DF804FB78
:109C3400F6250020F025002010B586B003460A461C
:109C4400ADF8063013468DF8053003AB00221A60D8
:109C54005A600123ADF80C3009238DF80E30194BEE
:109C64001978BDF8063000221846FFF7B1FA9DF8BE
:109C74000530002B01D0144B00E0144B0493BDF8C5
:109C84000630184600F004FE0346184603AB0022D3
:109C9400194601F0C5F90590059B002B0FD00C4A1D
:109CA4000C4BD31ADB081B0443F0020405980AF09A
:109CB400C1FA03461A46084920460BF0A1F800BF32
:109CC40006B010BDF82500207475030078750300F4
:109CD400506A0300A86903006074030000B58DB0E6
:109CE4000190019B9B88ADF82C30019B1B88353B70
:109CF4001F2B00F2688101A252F823F0119E02008A
:109D0400139F0200CB9F0200CB9F0200CB9F020057
:109D1400CB9F0200CB9F0200CB9F0200CB9F02008F
:109D2400CB9F0200CB9F0200CB9F0200CB9F02007F
:109D3400CB9F0200CB9F0200CB9F0200CB9F02006F
:109D4400CB9F0200CB9F0200CB9F0200CB9F02005F
:109D5400CB9F0200CB9F0200CB9F0200CB9F02004F
:109D6400CB9F0200CB9F0200ED9D0200CB9F02001F
:109D7400819D0200CB9F02008D9D0200BDF82C3016
:109D84001846FFF77DFB1EE103AB00221A605A6000
:109D94009A60DA601A6112238DF80C30BDF82C3009
:109DA400ADF80E30BDF82C30184600F071FD0346B6
:109DB400ADF81030BDF81030184600F0ABFB864B00
:109DC4001978BDF82C3000221846FFF701FA834BAE
:109DD4001978BDF82C3000221846FFF7F9F903ABC7
:109DE4001846FFF7F3FAEEE0019B06331846FFF737
:109DF4000FFB0346002B00F0DF80BDF82C3001215F
:109E04001846FFF7C5FBFFF767FED5E000238DF882
:109E14002F30019B9B88ADF82C30019B0A330993AA
:109E24006F4B1A78BDF82C3011461846FFF7A0F98D
:109E3400034683F00103DBB2002B40F0BF80684B84
:109E44001978BDF82C3000221846FFF7C1F9019BA0
:109E5400DB88B3F5857F4CD0019BDB88002B0DD0CC
:109E6400604A614BD31ADB081B0443F00200019BD8
:109E7400DB881A465D490AF0C3FF3AE0099B1B8858
:109E8400012B0CD0574A584BD31ADB081B0443F060
:109E94000200099B1B881A4655490AF0B1FF099B29
:109EA4005B88012B0DD04F4A4F4BD31ADB081B04A0
:109EB40043F00200099B5B881A464E490AF0A0FF52
:109EC40017E0099B04331988BDF82C30002218468A
:109ED400FFF72FFA0890089B002B0AD101238DF875
:109EE4002F30454B1978BDF82C3001221846FFF766
:109EF4006FF99DF82F3083F00103DBB2002B5FD0A4
:109F0400BDF82C3000211846FFF796FE58E00023D8
:109F14008DF82E30019B9B88ADF82C30019B0A33C1
:109F24000A93354B1A78BDF82C3011461846FFF7C2
:109F34001FF9034683F00103DBB2002B42D12E4B01
:109F44001978BDF82C3000221846FFF741F9019B1F
:109F5400DB88002B0DD0234A234BD31ADB081B04C8
:109F640043F00200019BDB881A4620490AF048FFAF
:109F740019E00A9B9B88012B0DD01A4A1A4BD31A5D
:109F8400DB081B0443F002000A9B9B881A4619490C
:109F94000AF036FF07E00A9B9B79002B14BF0123CC
:109FA40000238DF82E309DF82E20BDF82C3011465C
:109FB4001846FFF741FE06E000BF04E000BF02E0E0
:109FC40000BF00E000BFFFF7BDFCFFF707FD00BFC7
:109FD4000DB05DF804FB00BFF7250020F625002036
:109FE400F9250020506A0300A8690300C074030027
:109FF400FC74030038750300FA250020AFDF7047B6
:10A0040000BF1846B1DF704700BF1846B2DF704783
:10A0140000BF1846B3DF704700BF184600B585B0CF
:10A024000190019B9B88184600F0DCFC03461A460D
:10A03400019B5A800023039308E0084A039B52F8CB
:10A04400233001989847039B01330393039B002B10
:10A05400F3D000BF00BF05B05DF804FB84220020EC
:10A0640010B588B02D4A05AB92E8030083E80300DD
:10A0740048E02B4B1B8805A90022184600F0D0FFAE
:10A084000790079B002B34D06B4600221A605A605D
:10A094009A60DA601A61224B1B88ADF80430079B82
:10A0A400112B36D0079B862B07D107238DF8003060
:10A0B4006B461846FFF7B2FF2BE01A4A1A4BD31A25
:10A0C400DB081B0443F0010407980AF0B3F80346C5
:10A0D4001A46134B1B88154920460AF0A2FE082392
:10A0E4008DF80030079B02936B461846FFF796FFE6
:10A0F4000FE00B4B1B88184601F062F803461A4622
:10A10400074B1A80064B1B884FF6FF729342B0D15F
:10A1140000E000BF00BF08B010BD00BFE875030039
:10A12400FC250020586A0300A86903009075030009
:10A1340000B583B00190064B1B884FF6FF72934223
:10A1440001D0FFF78DFF00BF03B05DF804FB00BF33
:10A15400FC25002030B58DB00346ADF80630BDF8BF
:10A164000630184600F094FB0346ADF82630BDF8DF
:10A1740026304FF6FF72934202D143F20203C5E048
:10A184000123ADF82A3000238DF8293000238DF8FF
:10A194002930BDF82A305A1CADF82A201A4604ABDF
:10A1A400BDF82600082101F0D3FB0B900B9B002B7C
:10A1B40040F0A180059B0893089B03221A60089B2A
:10A1C400991D089B1A1D089B1B68BDF80600FFF724
:10A1D4001DFF0B900B9B002B62D102AABDF8263009
:10A1E4000821184601F09EFB0B900B9B002B16D008
:10A1F4000B9B052B13D0474A474BD31ADB081B0490
:10A2040043F001040B980AF015F803461A46BDF80A
:10A214000630424920460AF004FE032376E00B9BF5
:10A22400052B11D0089B9A88039B9B889A420BD1DB
:10A23400089B981D039B991D089B9B881A460CF04C
:10A244006EFA0346002B09D0BDF82620BDF826304F
:10A254000821184601F03BFC0B9051E0BDF8263074
:10A264000821184601F014FC0690069B002B02D12D
:10A274000B230B9344E0274A274BD31ADB081B0418
:10A2840043F00104BDF82650069809F0D3FF0346B5
:10A294002A46234920460AF0C4FD03230B932FE0EA
:10A2A4000B9B0C2B03D101238DF8293004E00B9B6D
:10A2B400052B01D100230B93BDF826300821184645
:10A2C40001F0E6FB0790079B002B19D0114A124BB3
:10A2D400D31ADB081B0443F00104BDF82650079889
:10A2E40009F0A8FF03462A460D4920460AF099FDC5
:10A2F40003230B9304E00B9B072B01D10C230B933B
:10A304009DF82930002B7FF441AF0B9B18460DB00C
:10A3140030BD00BF586A0300A8690300F07503004C
:10A324002876030000B58BB00346ADF80630BDF8BF
:10A334000630184600F0ACFA0346ADF8143000239A
:10A3440008930023ADF81E300323069301238DF8F0
:10A354001730BDF814304FF6FF72934216D002AA9C
:10A36400BDF814300821184601F0DCFA0990099B65
:10A37400002B0BD1039B0493049B06330893049B8B
:10A384009B88ADF81E30049B1B680693BDF81E2005
:10A39400BDF80600069B0899FFF734FE0990099B57
:10A3A400042B02D11123099331E0099B082B02D11C
:10A3B400002309932BE0099B0B2B28D100238DF854
:10A3C4001730069B03F00203002B02D001230693EF
:10A3D4001DE0089B002B03D1BDF81E30002B07D0D5
:10A3E400002308930023ADF81E30032306930EE0E8
:10A3F4000F4A104BD31ADB081B0443F00103BDF8CA
:10A4040006200D4918460AF0FBFC03230993099B17
:10A414000B2BBBD09DF8173083F00103DBB2002B6C
:10A4240001D00B230993099B18460BB05DF804FB7C
:10A43400586A0300A8690300A876030000B589B030
:10A444000346ADF806300DF117030493BDF806304A
:10A45400184600F01DFA0346ADF81E3003AABDF8F5
:10A464001E300121184601F05DFA0690069B002B70
:10A4740001D0002301E0049B1B78184609B05DF865
:10A4840004FB000010B584B00346ADF806304FF667
:10A49400FF73ADF80E301B48FFF7BCFD0290029B22
:10A4A400002B11D0184A194BD31ADB081B0443F0B4
:10A4B4000104029809F0BEFE03461A4614492046D8
:10A4C4000AF09EFC03231AE00E4B1988BDF80E20F7
:10A4D400BDF806301846FFF791FD0290029B43F247
:10A4E4000302934205D1074B1B8801339AB2054BF3
:10A4F4001A80029B43F203029342E5D0029B184662
:10A5040004B010BDFE250020586A0300A8690300AA
:10A514002077030000B585B00346ADF80630084A3D
:10A5240002AB92E8030083E8030002A9BDF80630F9
:10A534000022184600F074FD00BF05B05DF804FB6E
:10A544006C77030046DF704700BF184600B585B03E
:10A5540001900023039308E0084A039B52F8233038
:10A5640001989847039B01330393039B012BF3D971
:10A5740000BF00BF05B05DF804FB00BF7C7803009A
:10A5840084B00190002303930AE0019A039B1344CF
:10A594001B78002B01D0012306E0039B01330393B6
:10A5A400039B0F2BF1D90023184604B0704700B564
:10A5B40083B001900091019B002B02D0009B002BE3
:10A5C40001D100231BE0019B1B78C3F34603DAB2DD
:10A5D400009B1B78C3F34603DBB29A4201D00023ED
:10A5E4000DE0019B581C009B0133062219460CF018
:10A5F40096F80346002B0CBF01230023DBB2184658
:10A6040003B05DF804FB000030B597B00190019BE6
:10A614001B88102B40F09180019B0AAC1D1D0FCDAF
:10A624000FC40FCD0FC495E8070084E807004FF668
:10A63400FF73ADF856309DF82C3023F00103DBB2E4
:10A64400062B47D000F08EFC9DF82C30C3F3460354
:10A65400DBB2012B02DC002B15DA3BE0022B2ED0FF
:10A6640038E0089B03F111020AAB04331146184683
:10A67400FFF79DFF0346002B05D0BDF82630ADF84B
:10A68400563000BF26E007AA0DF12603194607201D
:10A6940000F072FC0346002BE3D11BE0089B5A1C1C
:10A6A4000AAB04331146184600F08FFA0346002B18
:10A6B40005D0BDF82630ADF8563000BF09E007AA32
:10A6C4000DF126031946072000F056FC0346002B23
:10A6D400E4D100BFBDF828301946194A0B469B0047
:10A6E4000B445B001344BDF856201A80BDF8283093
:10A6F4001946134A0B469B000B445B001344023378
:10A704000BAA106818609188927999809A71BDF8A3
:10A7140056304FF6FF72934210D0BDF82830ADF892
:10A724000A30BDF85630ADF80C3000238DF80830EF
:10A7340002AB1846FFF70AFF00E000BF17B030BDB8
:10A744000026002000B587B001900091019B1133D1
:10A754000593009B11330493019B581C009B013308
:10A76400102219460BF0DBFF0346002B11D1019B8D
:10A7740001331846FFF704FF0346002B09D0009B62
:10A7840001331846FFF7FCFE0346002B01D00123DA
:10A7940000E000238DF80F309DF80F3003F0010323
:10A7A4008DF80F3004990598FFF701FF03468DF8E3
:10A7B4000E30059B1B7823F00103DBB2042B16D06B
:10A7C400059B1B7823F00103DBB2062B0FD0049BFF
:10A7D4001B7823F00103DBB2042B08D0049B1B7805
:10A7E40023F00103DBB2062B01D0012300E0002398
:10A7F4008DF80D309DF80D3003F001038DF80D3008
:10A804009DF80E30002B03D09DF80D30002B0AD19B
:10A814009DF80F30002B08D09DF80D3083F0010314
:10A82400DBB2002B01D0012300E0002303F001037D
:10A83400DBB2184607B05DF804FB00B587B00190A1
:10A844000B46ADF8023000F08DFB10E0BDF8163079
:10A85400BDF802209A420AD0049B19460198FFF7DA
:10A8640071FF0346002B02D0BDF816300BE003AA9B
:10A874000DF116031946072000F07EFB0346002B5A
:10A88400E4D14FF6FF73184607B05DF804FB0000EF
:10A8940000B583B00346ADF80630BDF80630132B7F
:10A8A4000AD8BDF806301846FEF7A2FB034683F02B
:10A8B4000103DBB2002B02D04FF6FF7308E0BDF8B2
:10A8C4000620054913469B0013445B000B441B8878
:10A8D400184603B05DF804FB0026002000B583B0E1
:10A8E40003460091ADF80630BDF80630132B0AD8A4
:10A8F400BDF806301846FEF77BFB034683F00103E0
:10A90400DBB2002B02D043F2020311E0BDF80620B3
:10A914000098094913469B0013445B000B4402460C
:10A9240002331968116099889B799180937100238F
:10A93400184603B05DF804FB0026002000B583B080
:10A9440001900091019800F089F8034683F0010317
:10A95400DBB2002B01D0002315E0019B1A88009B79
:10A964001B889A4201D000230DE0019B981C009B98
:10A974000233082219460BF0D2FE0346002B0CBF0B
:10A9840001230023DBB2184603B05DF804FB00B5D5
:10A9940087B0019000F0E6FA14E0049B46331946B0
:10A9A4000198FFF7CBFF0346002B08D1049B2A3301
:10A9B40019460198FFF7C2FF0346002B02D0BDF8E9
:10A9C40016300BE003AA0DF116031946072000F018
:10A9D400D3FA0346002BE0D14FF6FF73184607B0B5
:10A9E4005DF804FB00B585B00346ADF80630BDF84C
:10A9F40006304FF6FF72934202D14FF6FF7326E002
:10AA04000023ADF80E301CE0BDF80E2012491346A9
:10AA14009B0013445B000B441B88BDF806209A423C
:10AA24000AD1BDF80E301846FEF7E2FA0346002BB1
:10AA340002D0BDF80E300AE0BDF80E300133ADF897
:10AA44000E30BDF80E30132BDED94FF6FF731846C7
:10AA540005B05DF804FB00BF0026002084B001901F
:10AA6400019B1B88002B01D0012312E000230393D8
:10AA74000BE0019A039B134402331B78002B01D093
:10AA8400012306E0039B01330393039B072BF0D9B7
:10AA94000023184604B0704782B003460A46ADF856
:10AAA40006301346ADF80430BDF80630132B0AD82F
:10AAB400BDF80620054913469B0013445B000B4474
:10AAC400BDF804201A8000BF02B0704700260020A1
:10AAD40000B585B00346ADF80630BDF8063018461B
:10AAE400FFF780FF0346ADF80E30BDF80630184678
:10AAF40000F0A6FE0290029B002B0ED1BDF80E3092
:10AB0400132B0AD8BDF80E20064913469B001344A4
:10AB14005B000B444FF6FF721A80029B184605B087
:10AB24005DF804FB0026002000B595B00390029167
:10AB34000192002313930DE0139BC3F10F03039AB7
:10AB44001344197805AA139B13440A461A70139BDD
:10AB540001331393139B0F2BEED905AB10330D2246
:10AB6400002118460BF048FE002312930DE0029AD0
:10AB7400129B1A44129BC3F10F03127850336B4497
:10AB840003F82C2C129B01331293129B022BEED947
:10AB940005AB1846FFF7D6FC002311930DE0119B7B
:10ABA400C3F10F020199119B0B4450326A4412F80D
:10ABB4001C2C1A70119B01331193119B022BEED99B
:10ABC40000BF00BF15B05DF804FB00B587B001906D
:10ABD4000091019B1B7823F00103DBB2042B01D00D
:10ABE40000231FE0019B5A1C05AB11889278198041
:10ABF4009A70019B1A1D03AB1188927819809A7080
:10AC0400009B04AA03A91846FFF78EFF04A905AB0D
:10AC1400032218460BF083FD0346002B0CBF0123CF
:10AC24000023DBB2184607B05DF804FB00B585B01D
:10AC34000190019B4FF6FF725A800023039305E0B5
:10AC4400064B01989847039B01330393039B002B06
:10AC5400F6D000BF00BF05B05DF804FB99B7020051
:10AC640082B00346ADF80630BDF80630A3F5804344
:10AC74009BB2184602B0704782B00346ADF8063066
:10AC8400BDF8063003F580439BB2184602B0704706
:10AC940082B003468DF807309DF807309BB2A3F5C8
:10ACA40080439BB2184602B0704782B003468DF8C9
:10ACB40007309DF80730072B17D09DF80730012B7C
:10ACC40013D09DF80730082B0FD09DF80730052BC3
:10ACD4000BD09DF80730062B07D09DF80730092BC1
:10ACE40003D09DF80730042B01D1012300E0002399
:10ACF40003F00103DBB2184602B0704700B589B017
:10AD040003460091ADF8063003AB00221A605A6086
:10AD14009A60DA601A6108238DF80C30BDF80630A9
:10AD2400ADF81030009B059303AB1846FFF77EFF88
:10AD340000BF09B05DF804FB00B589B0354B0022B3
:10AD44001A7001AB0822002118460BF055FD4FF68E
:10AD5400FF7001F045F80346ADF81E300CE0BDF875
:10AD64001E30184600F08EFFBDF81E30184601F064
:10AD740037F80346ADF81E30BDF81E304FF6FF72AB
:10AD8400934210D0BDF81E301846FFF769FF034602
:10AD9400184601AA03AB194607F011FD034648F211
:10ADA40009629342DBD0BDF81E304FF6FF72934226
:10ADB4002CD0BDF81E301846FFF752FF0346ADF8FD
:10ADC4001C30BDF81C30184607F094FC0690069B16
:10ADD40048F20762934203D10E4B01221A7015E028
:10ADE400069B002B12D00C4A0C4BD31ADB081B0415
:10ADF40043F00100BDF81E30069A09490AF011F823
:10AE0400BDF81E3006991846FFF778FF00BF09B059
:10AE14005DF804FBC8260020786A0300A8690300D3
:10AE2400647A030000B587B003460092ADF806309B
:10AE34000B468DF805309DF805301846FFF735FFB1
:10AE440002AB0822002118460BF0D6FCBDF80630F0
:10AE54001846FFF705FF0346ADF816309DF8053098
:10AE64001846FFF715FF0346ADF8143002ABBDF8E2
:10AE74001410BDF81600009A07F078FC0490049BA7
:10AE8400002B01D0052300E00023184607B05DF82D
:10AE940004FB00B58DB0029201930346ADF80E3069
:10AEA4000B468DF80D30BDF80E30FF2B01D907236A
:10AEB40054E09DF80D301846FFF7F7FE034683F083
:10AEC4000103DBB2002B01D0072347E006AA9DF85B
:10AED4000D10BDF80E301846FFF7A4FF0B900B9B26
:10AEE400002B01D0052339E004AA06AB114618460D
:10AEF40007F052FB0B900B9B002B01D005232DE098
:10AF0400029B9DF80D209A70049B5A88029B1A801C
:10AF1400019B002B03D1059A029B5A6019E0029B06
:10AF24001B889B000A93029B1B889A00019B1B6849
:10AF3400934228BF13460993029B5B680599099ABB
:10AF440018460BF027FC099A0A9B9A4201D20C235B
:10AF540004E006AB184607F05DFB002318460DB06D
:10AF64005DF804FB08B50822002102480BF044FCFC
:10AF740000BF08BDCC26002000B58DB00346029169
:10AF840001928DF80F309DF80F301846FFF78DFEB3
:10AF9400034683F00103DBB2002B01D0012338E028
:10AFA4009DF80F301846FFF773FE0346ADF82E30B8
:10AFB40007A9BDF82E30194A184607F0EDFB0346E1
:10AFC400002B01D0002324E005AA07AB1146184644
:10AFD40007F0E2FA0A900A9B002B01D0002318E044
:10AFE400019B9DF80F209A70059B5A88019B1A803B
:10AFF400069A019B5A60059B9B881846FFF73CFE06
:10B0040003461A46029B1A8007AB184607F002FB58
:10B01400012318460DB05DF804FB00BFCC260020C8
:10B0240000B58DB0034602910192ADF80E30BDF823
:10B034000E30FF2B01D907238AE0029B9B78184628
:10B04400FFF733FE034683F00103DBB2002B01D08C
:10B0540007237DE0BDF80E301846FFF701FE0346D6
:10B06400ADF82030029B9B781846FFF711FE03468B
:10B07400ADF82230029B5B680993029B1B880A93FC
:10B08400029B997805AABDF80E301846FFF7CAFE50
:10B094000B900B9B052B07D108AA05AB114618464C
:10B0A40007F004FB0B9006E008AA05AB114618460E
:10B0B40007F00BFB0B900B9B002B2BD00B9B48F248
:10B0C4000D62934236D80B9B48F20262934231D30D
:10B0D4000B9BA3F50643023B0B2B2BD801A252F882
:10B0E40023F000BF35B1020039B1020039B10200CA
:10B0F40039B1020031B102002DB1020039B10200B0
:10B1040039B1020039B1020039B1020039B102008B
:10B114002DB10200019B002B04D005AB0199184608
:10B1240007F060FB002313E0112311E086230FE0F6
:10B1340010230DE0084A094BD31ADB081B0443F023
:10B144000100BDF80E300B9A054909F06AFE03238D
:10B1540018460DB05DF804FB786A0300A869030083
:10B16400347B030008B54FF6FF7000F053FD03462F
:10B17400184608BD00B583B00346ADF80630BDF8E7
:10B184000630FF2B01D9072307E0BDF80630184627
:10B1940000F052FDFFF7D0FD0023184603B05DF820
:10B1A40004FB00B583B00346ADF80630BDF80630A5
:10B1B400184600F081FD0346184603B05DF804FB11
:10B1C40000B583B00346ADF80630BDF80630184626
:10B1D40000F0D2FD0346184603B05DF804FB00B549
:10B1E40083B00346ADF80630BDF80630184600F0CB
:10B1F400F7FD0346184603B05DF804FB82B00190E6
:10B20400019B4FF6FF721A80019BFF229A70019BEB
:10B21400FF225A72019A937A23F002039372019ADD
:10B22400937A23F001039372019B00221A72019B0B
:10B2340000225A6000BF02B07047000084B0034689
:10B244000091ADF80630009B1B68039319E0104988
:10B25400039A13465B0013449B000B441B88BDF800
:10B2640006209A420AD1009B039A1A60039A134655
:10B274005B0013449B00064A134406E0039B01331E
:10B284000393039B032BE2D90023184604B07047B1
:10B29400E426002000B585B003460A46ADF8063022
:10B2A40013468DF805300023029302AABDF8063038
:10B2B40011461846FFF7C2FF03900AE0029B0133D0
:10B2C400029302AABDF8063011461846FFF7B6FFEE
:10B2D4000390039B002B17D0039B9B789DF80520BC
:10B2E4009A42EBD1039B9B7A03F00203DBB2002B5F
:10B2F400E4D1039B9B7A03F00103DBB2002BDDD185
:10B30400039B5B68002BD9D1039B184605B05DF8FD
:10B3140004FB000084B001900023039316E00F495E
:10B32400039A13465B0013449B000B4404331B68CD
:10B33400019A9A4207D1039A13465B0013449B0077
:10B34400064A134406E0039B01330393039B032B38
:10B35400E5DD0023184604B0704700BFE426002052
:10B3640008B5FF214FF6FF70FFF794FF0346184618
:10B3740008BD000000B585B00190002303930CE0E4
:10B38400019B5A7A039BDBB21344DBB2194609488A
:10B3940001F0AAF8039B01330393019B1B7A1A461D
:10B3A400039B9342ECD30198FFF728FF00BF05B03D
:10B3B4005DF804FBD426002000B583B001900B4651
:10B3C400ADF8023013468DF80130019B002B13D0E9
:10B3D400FFF7C6FF0246019B1A60019B1B68002B06
:10B3E4000CD0019B1B68BDF802201A80019B1B68CE
:10B3F4009DF801209A7002E000BF00E000BF03B096
:10B404005DF804FB00B585B001900023039308E0C8
:10B41400084A039B52F8233001989847039B013351
:10B424000393039B032BF3D900BF00BF05B05DF862
:10B4340004FB00BF047E030086B0039001921A4609
:10B444000B468DF80B301346ADF80830BDF80830C4
:10B454001A46920013441B01ADF81630039B9DF865
:10B464000B209A70039B019A5A60BDF8163003337F
:10B474009B109AB2039B1A8000BF06B0704700B5B8
:10B4840085B00390019200930B468DF80B30009B1E
:10B494009BB29DF80B10019A0398FFF7CDFF00BFF4
:10B4A40005B05DF804FB000082B00190019B9B781D
:10B4B400013B072B27D801A252F823F0E9B402007C
:10B4C4000BB502000BB502000BB502000BB5020070
:10B4D400F1B40200E1B40200F9B40200019B1422A9
:10B4E4001A8011E0019B01221A800DE0019B0122C8
:10B4F4001A8009E0019B5B689B8809339B089AB218
:10B50400019B1A8000E000BF00BF02B0704700BF7B
:10B5140010B586B001900023059302AB00221A6097
:10B524005A60019B9B788DF80A30019B5B7A19461F
:10B53400404800F0A8FF0490049B002B0ED13E4A23
:10B544003E4BD31ADB081B0443F00100019B5B7ADA
:10B554001A463B4909F054FC032367E0019B9978A0
:10B56400019B1B7A02A8049AFFF789FF02AB1846D5
:10B57400FFF79AFF019B1888019B1A1D02AB19461D
:10B58400FFF74EFD0590059B862B2AD0059B862B45
:10B5940035D8059B112B14D0059B112B2FD8059B57
:10B5A400002B03D0059B072B3ED028E0019A937A09
:10B5B40023F002039372019A937A23F001039372A6
:10B5C40033E0019A937A43F002039372019A937AD7
:10B5D40023F0010393721B4B01221A70002305937D
:10B5E40023E0019A937A23F002039372019A937AE7
:10B5F40043F001039372134B01221A7015E00E4AB3
:10B604000E4BD31ADB081B0443F00104059808F021
:10B6140011FE03461A46019B1B880B49204609F07C
:10B6240000FC0323059300E000BF059B184606B009
:10B6340010BD00BFD4260020706A0300A86903006F
:10B64400F47B030014270020347C030010B588B079
:10B6540001900198FFF75CFF0790079B002B2BD00C
:10B664004FF6FF73ADF80A30019B1B88ADF80C3020
:10B67400079B862B03D107238DF8083016E0082397
:10B684008DF80830079B04930D4A0E4BD31ADB0840
:10B694001B0443F00104079808F0CCFD03461A4646
:10B6A400019B1B880849204609F0BBFB02AB1846E6
:10B6B400FFF7A8FE002300E00123184608B010BDE0
:10B6C400706A0300A8690300647C030000B585B0B8
:10B6D40003468DF807302D4B1B7883F00103DBB252
:10B6E400002B4DD1294B00221A700023039343E011
:10B6F4002749039A13465B0013449B000B44083309
:10B704009B78C3F34003DBB2002B0DD12049039A8D
:10B7140013465B0013449B000B4408339B78C3F32C
:10B724000003DBB2002B24D0184B01221A701849F5
:10B73400039A13465B0013449B000B4408339B7825
:10B74400C3F34003DBB2002B03D19DF80730002B79
:10B754000FD0039A13465B0013449B000C4A134416
:10B764001846FFF773FF034683F00103DBB2002B97
:10B7740008D1039B01330393039B032BB8D902E045
:10B7840000BF00E000BF05B05DF804FB14270020F3
:10B79400E426002000B585B0019001238DF80F3018
:10B7A40000238DF80E30019BDB681846FFF7B2FDCD
:10B7B4000290019B1B78142B27D0142B29DC092B16
:10B7C40002D00A2B0BD024E0019B5B7A002B22D100
:10B7D400029B002B1FD00298FFF7CCFD1BE0019BBE
:10B7E4005B7A002B19D1029B002B16D0029B0022FE
:10B7F4005A60029A937A43F0020393720F4B012228
:10B804001A7000238DF80F3007E001238DF80E30F5
:10B8140004E000BF02E000BF00E000BF9DF80F306D
:10B82400002B02D00198FFF7EDFD9DF80E3018466D
:10B83400FFF74CFF00BF05B05DF804FB14270020A0
:10B8440030B589B00346ADF80E300023059305AA40
:10B85400BDF80E3011461846FFF7F0FC079032E0B1
:10B86400079B9A78BDF80E301146184600F010F97F
:10B874000690069B002B1BD0069B052B18D0254A4F
:10B88400254BD31ADB081B0443F00104069808F087
:10B89400D1FC03461946BDF80E20079B9B78009304
:10B8A40013460A461D49204609F0CFFA03232EE029
:10B8B400059B0133059305AABDF80E3011461846C1
:10B8C400FFF7BCFC0790079B002BC9D1BDF80E30D5
:10B8D4001846FFF74FFC0690069B002B02D0069BF0
:10B8E400072B01D1069B12E00A4A0B4BD31ADB0843
:10B8F4001B0443F00104BDF80E50069808F09AFCAE
:10B9040003462A460649204609F08BFA03231846C3
:10B9140009B030BD706A0300A8690300E47C030029
:10B924003C7D030000B583B003460092ADF80630B9
:10B934000B468DF805309DF80510BDF80600002370
:10B94400009AFFF7A6FA0346184603B05DF804FB15
:10B9540010B588B0029201930346ADF80E300B4641
:10B964008DF80D30019B002B01D10E2385E09DF84D
:10B974000D30072B05D09DF80D30082B01D007237F
:10B984007BE0029B002B02D0029B042B01D90723EE
:10B9940073E000238DF81F309DF80D20BDF80E30A4
:10B9A40011461846FFF776FC03460593059B002BCA
:10B9B4000CD19DF80D20BDF80E1005AB1846FFF70D
:10B9C400FBFC059B002B09D1112356E0059B1B7A38
:10B9D4001A46029B934201D00F234EE0059B5B7AEB
:10B9E400FF2B13D1059C0299254800F0E8FC03467F
:10B9F4006372059B5B7AFF2B05D1059B1846FFF705
:10BA0400FDFB112339E001238DF81F30059B029AB9
:10BA1400D2B21A72059B5B7A1946194800F033FDBD
:10BA24000690069B002B0ED1164A174BD31ADB083F
:10BA34001B0443F00100059B5B7A1A46134909F085
:10BA4400DFF9032319E0029B9BB29DF80D10069ABF
:10BA54000198FFF7F1FC9DF81F30002B0CD09DF8E6
:10BA64000D30082B08D1019B1B889B009AB2019BC7
:10BA74005B68063A92B29A800023184608B010BD5B
:10BA8400D4260020706A0300A8690300907D030097
:10BA940000B585B003460A46ADF8063013468DF866
:10BAA40005309DF80520BDF8063011461846FFF70D
:10BAB400F1FB0390039B002B01D1052303E00398C2
:10BAC400FFF758FC0023184605B05DF804FB00B5E9
