:020000022000DC
:106000000000012019620200016202000362020026
:10601000056202000762020009620200000000003F
:106020000000000000000000000000000B62020001
:106030000D620200000000000F6202001162020007
:10604000F5FD0200136202008D030300ED11030051
:1060500005120300136202008902030013620200AA
:106060001362020013620200136202001362020054
:106070001362020013620200136202001362020044
:1060800013620200B53E03001362020013620200B5
:1060900013620200136202001D8E030013620200ED
:1060A0001362020013620200136202001362020014
:1060B00013620200136202000000000000000000F2
:1060C00013620200136202001362020013620200F4
:1060D000136202001362020013620200000000005B
:1060E00000000000000000000000000000000000B0
:1060F00000000000000000000000000000000000A0
:10610000000000000000000000000000000000008F
:10611000000000000000000000000000000000007F
:10612000000000000000000000000000000000006F
:10613000000000000000000000000000000000005F
:10614000000000000000000000000000000000004F
:10615000000000000000000000000000000000003F
:10616000000000000000000000000000000000002F
:10617000000000000000000000000000000000001F
:10618000000000000000000000000000000000000F
:1061900000000000000000000000000000000000FF
:1061A00000000000000000000000000000000000EF
:1061B00000000000000000000000000000000000DF
:1061C00000000000000000000000000000000000CF
:1061D00000000000000000000000000000000000BF
:1061E00000000000000000000000000000000000AF
:1061F000000000000000000000000000000000009F
:10620000FEE7FEE7FEE7FEE7FEE7FEE7FEE7FEE766
:10621000FEE7FEE700F002B8FFF7FCBF0F484FF0C3
:106220000701884385460E4880470E48016841F4BF
:1062300070010160BFF34F8FBFF36F8F00F01AB88A
:1062400009480A490A4A884207D0521A05D00378F9
:1062500001300B700131013AF9D170470000012083
:10626000B97F020088ED00E0D09703006022002093
:10627000742200203A493B480A1A02D0072291436F
:106280008D46394939480A1A06D00722914381F3CD
:106290000988022282F3148835483649364A00F0CC
:1062A00041F836483649374A00F03CF83648374915
:1062B000374A00F037F837483749384A00F032F8A3
:1062C00037483849384A00F02DF838483849394AB3
:1062D00000F028F838483949394A00F023F839489D
:1062E0003949002200F036F838483949002200F0D8
:1062F00031F838483849091A13F08AF8374A904774
:1063000025482649884205D00268043003B49047E6
:1063100003BCF7E700208646EC4600200021304A07
:106320009047FEE7884214D0521A12D003460B431E
:1063300013430324234206D1036804300B60043165
:10634000043AF9D17047037801300B700131013AFA
:10635000F9D17047884202D002700130FAE77047E5
:106360000000012000E000200000012000000120CA
:10637000F8DC03007422002058230020E4630200AC
:10638000E46302003A960300F8DC03007422002064
:1063900074220020E4970300E4970300E4970300CD
:1063A000E4970300E4970300E4970300E4970300F5
:1063B000E4970300F5DC0300DCDD03005823002034
:1063C00058230020582300203C7500203C750020F5
:1063D0003C7500203C7500203C9500204162020085
:0463E000796B0200D3
:1063E40000B585B00190019B002B0AD0074B43F008
:1063F40001030393019B9B010293039B029898471B
:1064040000E000BF05B05DF804FB00BF409A030044
:1064140000B583B00190019B002B0AD04FF47A7031
:10642400FFF7DEFF019B013B0193019B002BF5D19C
:1064340000E000BF03B05DF804FB78DF704700BFE5
:106444001846000000B583B001900091019B1B78B1
:10645400002B03D1174B00221A7026E0019B1B78F6
:10646400012B03D0019B1B78022B0ED1124A134B34
:10647400D31ADB081B0443F002031149184611F038
:1064840047FC0C4B00221A700FE00B4A0B4BD31A3B
:10649400DB081B0443F00200019B1B781A460949E0
:1064A40011F044FC034B00221A7000BF03B05DF8E6
:1064B40004FB00BF70230020F0960300C096030085
:1064C400F09703000498030000B585B02D4A2E4BC5
:1064D400D31ADB081B0443F003032C49184611F0BC
:1064E40017FC08238DF80F3038E020BF284B1B78A9
:1064F400DBB2002BF9D1264B01221A709DF80F1044
:10650400002300930023002222480AF083FD029016
:10651400029B002B15D100E020BF1D4B1B78DBB282
:10652400002BF9D1174A184BD31ADB081B0443F08C
:1065340003039DF80F201849184611F0F7FB05E0F6
:1065440020BF134B1B78DBB2002BF9D10A20FFF7D5
:106554005FFF9DF80F3001338DF80F309DF80F3039
:10656400772BC3D9074A084BD31ADB081B0443F023
:1065740003030A49184611F0CBFB00BF05B05DF8D0
:1065840004FB00BFF0960300C096030024980300A8
:1065940070230020E89703006498030088980300A0
:1065A40000B583B001900091019B1B88102B02D091
:1065B400112B10D021E0134A134BD31ADB081B0410
:1065C40043F003031149184611F0A2FB019B9A887A
:1065D4000F4B1A8011E00B4A0B4BD31ADB081B0438
:1065E40043F003030B49184611F092FB084B4FF696
:1065F400FF721A8000F010F900BF00BF03B05DF80D
:1066040004FB00BFF0960300C09603009C980300AF
:10661400BC220020A898030000B587B012F01CFB30
:106624000590059B0493049B002B04D0144ABE21BF
:1066340004980CF0C1FA0023019301AB1946012020
:1066440012F020FC0590059B0393039B002B04D0C0
:106654000B4AC22103980CF0AFFA01AB184612F0B2
:1066640005FD0590059B0293029B002B04D0044A70
:10667400C52102980CF0A0FA00BF07B05DF804FB36
:10668400B898030000B583B00021094805F046FE20
:106694000190019B0093009B002B04D0054AD62156
:1066A40000980CF089FA00BF03B05DF804FB00BF4A
:1066B4005C230020B898030000B583B00190019BCF
:1066C4001B78002B0ED1094A094BD31ADB081B0493
:1066D40043F00300019B9B8A1A46019B1B690549F1
:1066E40011F035FB00BF03B05DF804FBF096030026
:1066F400C09603004899030000B585B001AB04229D
:106704000021184612F0FCFE0A4B019301AB194616
:10671400094808F021FF0390039B0293029B002B7E
:1067240004D0064AEC2102980CF046FA00BF05B0EA
:106734005DF804FBBD660200A0220020B8980300A7
:1067440030B5CDB01FABAC220021184612F0D8FEF4
:1067540010AB3C220021184612F0D2FE02238DF821
:10676400403001238DF8423006238DF8433001ABCD
:106774003C220021184612F0C3FE4CABA3F59673DD
:1067840001221A824CABA3F59673204A5A611FACBE
:1067940010AD0FCD0FC40FCD0FC40FCD0FC495E8AE
:1067A400070084E807004CABA3F596732EAC1D4696
:1067B4000FCD0FC40FCD0FC40FCD0FC495E8070044
:1067C40084E8070000238DF8F53001238DF8F830B4
:1067D4004023419300234293002348931FAB19465F
:1067E4000B4802F00BFD4B904B9B4A934A9B002BAA
:1067F40005D0084A4FF487714A980CF0DDF901215D
:10680400034802F0EEFC00BF4DB030BDC0220020B2
:10681400B8420020B898030000B583B003210F48A4
:1068240002F0C4FD0190019B0093009B002B05D056
:106834000B4A4FF48B7100980CF0BEF9094A0A4BCD
:10684400D31ADB081B0443F003030849184611F06C
:106854005FFA00BF03B05DF804FB00BFB84200203C
:10686400B8980300F0960300C096030064990300EF
:1068740000B58BB001AB1C220021184612F040FE7B
:10688400002301934FF4203302934FF470230393B6
:1068940003238DF810300023ADF8123000238DF857
:1068A4001430002306930023079301AB184602F02B
:1068B400E1FF0990099B0893089B002B05D0054A2A
:1068C40040F2291108980CF077F900BF0BB05DF87D
:1068D40004FB00BFB898030010B586B0144B6C4697
:1068E4000FCB84E80F0069460023124A124809F0CE
:1068F400A1FF0590059B0493049B002B05D00F4A30
:1069040040F23B1104980CF057F90B480AF03CF89C
:106914000B4A0C4BD31ADB081B0443F003001A2365
:106924001B22094911F013FA00BF06B010BD00BFC5
:10693400AC99030049640200E8970300B898030087
:10694400F0960300C09603007C99030000B583B061
:10695400C120FFF772FD0190019B0093009B002B67
:1069640005D00B4A4FF4A47100980CF025F9094A9C
:10697400094BD31ADB081B0443F00303C122074964
:10698400184611F0D3F900BF03B05DF804FB00BF53
:10699400B8980300F0960300C0960300BC99030066
:1069A40000B58BB00390384800F0B4FD0990364828
:1069B40000F0D6FD0890354B1B68B3F57A7F10D2F2
:1069C400324B1B683249099A41F823202F4B1B682C
:1069D4003049089A41F823202C4B1B6801332B4A79
:1069E40013602A4B1B68B3F57A7F49D34FF0000339
:1069F40005934FF00003049304AB019305AB00939C
:106A040064234FF47A722349214800F0E5FD07908E
:106A1400079B002B25D10A2306931F4B1B680133C8
:106A24001D4A13601C4B1B68069A9A4225DC1A4BBC
:106A340000221A60194A1A4BD31ADB081B0443F0CC
:106A44000300DDED057ABCEEE77ADDED047AFCEEB9
:106A5400E77A17EE903A17EE102A124911F077F9F7
:106A64000BE00E4A0E4BD31ADB081B0443F0010360
:106A7400079A0D49184611F059F9044B00221A607F
:106A840000BF0BB05DF804FBE8970300B44200209C
:106A94007423002014330020EC460020F0960300F9
:106AA400C0960300DC990300F899030000B583B095
:106AB4000A4A01210A480CF06DFC0190019B0093E5
:106AC400009B002B05D0074A4FF4C77100980CF0C7
:106AD40073F800BF03B05DF804FB00BFA5690200B2
:106AE400E4970300B898030000B583B00B4B002271
:106AF4004FF4A47118460CF087FC0190019B00939D
:106B0400009B002B05D0064A4FF4CB7100980CF083
:106B140053F800BF03B05DF804FB00BF78220020E7
:106B2400B898030000B583B00CF0F6FB0190019B0C
:106B34000093009B002B05D00A4A40F29F11009855
:106B44000CF03AF8084A094BD31ADB081B0443F04B
:106B540003030749184611F0DBF800BF03B05DF8E2
:106B640004FB00BFB8980300F0960300C09603002E
:106B74000C9A030000B585B04FF40041002010F0DA
:106B8400F1FD0390039B0293029B002B05D0234A43
:106B940040F2AD1102980CF00FF810F065FD204A98
:106BA400204BD31ADB081B0443F003031E49184689
:106BB40011F0AEF8012000F07BF9FFF7B3FFFFF707
:106BC4002BFDFFF75FFDFFF797FDFFF7B9FDFFF71B
:106BD4004FFEFFF7BBFEFFF71FFEFFF77DFEFFF73B
:106BE40073FC124800F06EFBFFF760FFFFF77CFFB9
:106BF40000F0DCFC0390039B0193019B002B06D067
:106C0400064A40F2D11101980BF0D6FF00BF11F0F3
:106C1400F1F80346002BFAD120BFF8E7B898030037
:106C2400F0960300C0960300289A0300E897030037
:106C340000B583B00190019B1B68184600F0B5F8BD
:106C44000346002B04D105494FF4F6700EF096FC70
:106C54004FF0A043184603B05DF804FB489A0300C4
:106C640000B585B00190084611461A4603468DF8D2
:106C740003300B468DF8023013468DF8013001AB1A
:106C84001846FFF7D5FF03909DF803209DF80230C6
:106C94005B001A439DF801309B001A439DF818309D
:106CA4001B0242EA03019DF81C301B04019A19439C
:106CB400039B02F5E07243F8221000BF05B05DF8B3
:106CC40004FB00B585B003900023019300230093D7
:106CD4000023012201210398FFF7C2FF00BF05B082
:106CE4005DF804FB00B585B003900B468DF80B30BE
:106CF4009DF80B3000220192002200920022002114
:106D04000398FFF7ADFF00BF05B05DF804FB00B5C5
:106D140085B0019001AB1846FFF78AFF0390019BF1
:106D2400012202FA03F31946039800F02AF800BF7F
:106D340005B05DF804FB00B585B0019001AB1846C1
:106D4400FFF776FF0390019B012202FA03F3194631
:106D5400039800F020F800BF05B05DF804FB00B50F
:106D640083B001900091009B002B03D10198FFF7A1
:106D7400E2FF02E00198FFF7CAFF00BF03B05DF82D
:106D840004FB82B001900091019B009AC3F808258E
:106D940000BF02B0704782B001900091019B009A3D
:106DA400C3F80C2500BF02B0704784B00190019B6A
:106DB4005B09029300230393029B002B03D14FF042
:106DC400FF33039300BF019B03F01F030193039A56
:106DD400019B22FA03F303F00103002B14BF0123E8
:106DE4000023DBB2184604B07047000000B583B03E
:106DF4000190019B032B03D9074947200EF0BEFBEA
:106E0400064A019B13441B7801211846FFF7A7FF8C
:106E140000BF03B05DF804FB789A0300F09A030006
:106E240000B583B00023019305E00198FFF7DEFF6E
:106E3400019B01330193019B032BF6D900BF00BFD3
:106E440003B05DF804FB000000B583B00023019398
:106E540009E0094A019B13441B781846FFF731FFE8
:106E6400019B01330193019B032BF2D9FFF7D8FF58
:106E740000BF03B05DF804FBF09A030000B583B0D3
:106E8400002301930AE0094A019B13441B78032160
:106E94001846FFF727FF019B01330193019B032B46
:106EA400F1D900BF00BF03B05DF804FBF49A0300FE
:106EB40000B583B00190019B03F00103002B01D0C6
:106EC400FFF7C2FF019B03F00203002B01D0FFF781
:106ED400D5FF00BF03B05DF804FB000084B001904F
:106EE4000B468DF8033013468DF8023000230393CC
:106EF400019B032B3CD89DF80230012B0BD19DF84C
:106F04000330012B04D1019BDBB20E33DBB200E072
:106F140000238DF802309DF80330022B0FD0022B92
:106F240023DC002B16D0012B1FD11449019A1346E0
:106F34005B0013440B449DF802201A701AE00F49B9
:106F4400019A13465B0013440B4401339DF802205D
:106F54001A700FE00949019A13465B0013440B446D
:106F640002339DF802201A7004E00723039301E022
:106F740007230393039B184604B07047F046002090
:106F840000B583B0012200210020FFF7A7FF019084
:106F9400019B002B04D0019B072B01D0019B1CE01B
:106FA400072202210120FFF799FF0190019B002B8A
:106FB40004D0019B072B01D0019B0EE00422022187
:106FC4000020FFF78BFF0190019B002B04D0019B55
:106FD400072B01D0019B00E00023184603B05DF8A5
:106FE40004FB00B583B0012202210020FFF776FFE5
:106FF4000190019B002B04D0019B072B01D0019B26
:107004001CE0072202210120FFF768FF0190019B89
:10701400002B04D0019B072B01D0019B0EE00A2218
:1070240000210020FFF75AFF0190019B002B04D0A0
:10703400019B072B01D0019B00E00023184603B0FD
:107044005DF804FB00B585B001900091019B1B889D
:10705400102B02D0112B18D02FE01A4B1B68002BD9
:107064000DD1FFF78DFF0390039B002B07D0164B28
:107074001B68002B03D0144B1B6803989847114BD3
:107084001B6801330F4A136017E00E4B1B68013B6A
:107094000C4A13600B4B1B68002B0DD1FFF7A1FFAB
:1070A4000390039B002B07D0074B1B68002B03D0D6
:1070B400054B1B680398984700BF00BF05B05DF8F7
:1070C40004FB00BF00470020FC46002000B585B04B
:1070D4000190019B002B0AD0074B43F0010303935B
:1070E400019B9B010293039B0298984700E000BF19
:1070F40005B05DF804FB00BF409C030000B583B0FD
:107104000190019B002B0AD04FF47A70FFF7DEFF49
:10711400019B013B0193019B002BF5D100E000BFD3
:1071240003B05DF804FB000000B589B0059003923C
:1071340002930B468DF8133000E020BF184B1B78E8
:10714400DBB2002BF9D1164B01221A709DF81310F3
:1071540000230093029B039A059809F05BFF0790B4
:10716400079B002B11D00F4A0F4BD31ADB081B04CB
:1071740043F00103079A0D49184610F0D7FD084B58
:1071840000221A70079B06E020BF054B1B78DBB278
:10719400002BF9D10023184609B05DF804FB00BFA9
:1071A40070230020F0960300C0960300F89A0300B1
:1071B40000B587B00390019200930B468DF80B3015
:1071C40000E020BF174B1B78DBB2002BF9D1154B25
:1071D40001221A709DF80B10009B019A039809F084
:1071E40041FF0590059B002B11D00F4A0F4BD31A7A
:1071F400DB081B0443F00103059A0D49184610F0FF
:1072040095FD084B00221A70059B06E020BF054B34
:107214001B78DBB2002BF9D10023184607B05DF8C8
:1072240004FB00BF70230020F0960300C096030007
:10723400109B030000B585B00190084611461A461C
:1072440003468DF803300B468DF8023013468DF853
:1072540001309DF802308DF80C309DF801308DF826
:107264000D3003AA9DF8031002230198FFF75CFF79
:107274000346184605B05DF804FB00B587B00390DB
:1072840001930B468DF80B3013468DF80A300DF13F
:107294000A029DF80B1001230398FFF745FF0590A0
:1072A400059B002B01D0059B08E09DF80B10089B63
:1072B400019A0398FFF77CFF0590059B184607B0D9
:1072C4005DF804FB00B58BB00190494A494BD31AD1
:1072D400DB081B0443F003034749184610F018FD6C
:1072E400019800F08FF86420FFF708FFC023022202
:1072F40057210198FFF79EFF0990099B002B04D0AA
:107304003E4A8E2109980BF057FC00230322572193
:107314000198FFF78FFF0890089B002B04D0374A91
:107324008F2108980BF048FC002304225721019870
:10733400FFF780FF0790079B002B04D02F4A912171
:1073440007980BF039FC0023052257210198FFF719
:1073540071FF0690069B002B04D0284A92210698C0
:107364000BF02AFC0023062257210198FFF762FF45
:107374000590059B002B04D0204A932105980BF01F
:107384001BFC0323092257210198FFF753FF0490A4
:10739400049B002B04D0194A962104980BF00CFC92
:1073A40027230A2257210198FFF744FF0390039BE8
:1073B400002B04D0114A992103980BF0FDFB2422E1
:1073C4000121019800F04AF824220221019800F0DA
:1073D40045F8074A074BD31ADB081B0443F00303A1
:1073E4000749184610F094FC00BF0BB05DF804FB8D
:1073F400F0960300C0960300289B0300489B0300FB
:10740400C49B030000B585B0019040230922572195
:107414000198FFF70FFF0390039B0293029B002B3D
:1074240004D00A4AA62102980BF0C6FB084A094B6D
:10743400D31ADB081B0443F003030749184610F072
:1074440067FC00BF05B05DF804FB00BF489B030068
:10745400F0960300C0960300E49B030000B587B0D8
:1074640001900B468DF8033013468DF802309DF8D9
:107474000330032B0ED0032B10DC012B02D0022B84
:1074840004D00BE00C238DF8173015E00D238DF894
:10749400173011E00E238DF817300DE0184A194B00
:1074A400D31ADB081B0443F001039DF8032016499B
:1074B400184610F03BFC20E09DF802309DF81720A0
:1074C40057210198FFF7B6FE0490049B0393039B96
:1074D400002B04D00D4AB82103980BF06DFB084A29
:1074E400084BD31ADB081B0443F003009DF8032068
:1074F4009DF80230064910F02AFC07B05DF804FB41
:10750400F0960300C0960300049C0300489B03000C
:10751400149C030000B589B0039005AB03220092CC
:10752400072257210398FFF7A8FE0790079B002B1B
:1075340004D00A4AC02107980BF03EFB9DF8143092
:107544001A049DF815301B0213439DF816201343AB
:107554000693069B184609B05DF804FB489B03009C
:1075640000B589B0039005AB032200920A2257218B
:107574000398FFF782FE0790079B002B04D00A4A6A
:10758400CC2107980BF018FB9DF814301A049DF8D1
:1075940015301B0213439DF8162013430693069BD4
:1075A400184609B05DF804FB489B030008B5074A78
:1075B400074BD31ADB081B0443F0030305491846A1
:1075C40010F0A6FB0023184608BD00BFF096030088
:1075D400C0960300489C03002DE9F04F9DB000AF16
:1075E40078613961FA60BB606B461E46FB68002B0C
:1075F4000DD07B69002B0AD03B69002B07D0D7F84C
:107604009830002B03D0D7F89C30002B01D10E23E7
:10761400ABE10023FB660023BB6600237B6612E01C
:107624007B6E9B007A6913441B68FA6E1344FB66F5
:107634007B6E9B003A6913441B68BA6E1344BB66A5
:107644007B6E01337B667A6EFB689A42E8D3FA6EEE
:10765400FB68B2FBF3F3FB66BA6EFB68B2FBF3F3B1
:10766400BB66F9680B46013BFB63002339607B6012
:107674004FF000024FF0000378684301386843EA92
:10768400D0633868420100238A469B464FF00002CB
:107694004FF000034FEA4B1343EADA634FEA4A120E
:1076A4008B000733DB08DB00ADEB030D6B460333C4
:1076B4009B089B00BB63F9680B46013B7B6300237B
:1076C400884699464FF000024FF000034FEA4913F1
:1076D40043EAD8634FEA481200230C461D464FF094
:1076E40000024FF000036B0143EAD46362018B0094
:1076F4000733DB08DB00ADEB030D6B4603339B085C
:107704009B003B6300233B661AE03B6E9B007A6957
:1077140013441A68FB6ED31A1946BB6B3A6E43F8CE
:1077240022103B6E9B003A6913441A68BB6ED31A4D
:1077340019463B6B3A6E43F822103B6E01333B66AD
:107744003A6EFB689A42E0D30023FB650023BB65D5
:10775400BB685B08FB6201237B653BE03B6B7A6D96
:1077640053F822207B6D591E3B6B53F821309A420B
:107774002DDD3B6B7A6D53F822207B6D591C3B6BDE
:1077840053F821309A4222DD3B6B7A6D53F8224044
:10779400B86E11F02DFE4FF00002774B11F06AFD28
:1077A40002460B461046194611F0FCFD03469C4266
:1077B4000DDD7A6DBB6DD31AFA6A9A4207D2FB6D5E
:1077C4000133FB657B6DBB65FB6D092B08D87B6DB5
:1077D40001337B65FB68013B7A6D9A42BED300E0BE
:1077E40000BFFB6D002B05D1D7F898304FF0000295
:1077F4001A601AE0FB6807EE903AF8EE676ABB6815
:1078040007EE903AB8EE677AC6EE877AC7ED0A7A41
:10781400FB6D07EE903AF8EE676A97ED0A7AC6EECA
:10782400877AD7F89830C3ED007ABB6B1B683B6549
:10783400BB6B1B68FB643B6B1B68BB643B6B1B68CB
:107844007B6401233B6432E0BB6B3A6C53F8223017
:107854003A6D9A4204DABB6B3A6C53F822303B65BA
:10786400BB6B3A6C53F82230FA6C9A4204DDBB6B62
:107874003A6C53F82230FB643B6B3A6C53F8223079
:10788400BA6C9A4204DA3B6B3A6C53F82230BB640C
:107894003B6B3A6C53F822307A6C9A4204DD3B6BB2
:1078A4003A6C53F822307B643B6C01333B643A6C92
:1078B400FB689A42C8D33A6DFB6CD31A7B62BA6CEC
:1078C4007B6CD31A3B623B6A002B05D1D7F89C3002
:1078D4004FF000021A6047E07B6A07EE903AB8EE78
:1078E400E77AFB6E07EE903AF8EE677AC7EE276AFE
:1078F4003B6A07EE903AB8EEE76ABB6E07EE903A41
:10790400F8EE677A86EE277AC6EE877AC7ED077AAD
:10791400D7ED077AB3EE017A67EE877A9FED177A8F
:1079240077EE677AD7F89C30C3ED007AD7F89C30AD
:10793400D3ED007A9FED127AF4EEC77AF1EE10FAE5
:1079440003DDD7F89C300F4A1A60D7F89C30D3ED8A
:10795400007A9FED0D7AF4EEC77AF1EE10FA03D5B2
:10796400D7F89C30094A1A600023B5461846743784
:10797400BD46BDE8F08F00BF0000E03F0000D042EC
:107984000000C8420000C84200008C4200008C4243
:10799400BFF34F8F00BF064BDB6803F4E06204497A
:1079A400044B1343CB60BFF34F8F00BF00BFFDE711
:1079B40000ED00E00400FA0582B01D4B1B68B3F132
:1079C400FF3F0AD11B4B1B68DBB201931A4B1B68A8
:1079D4001B0903F00F03009305E0154B1B6801938B
:1079E400164B1B680093019B062B1DD1009B033B88
:1079F400042B17D801A252F823F000BF157A020015
:107A0400197A02001D7A0200217A0200257A020006
:107A140001230AE0012308E0012306E0012304E036
:107A2400012302E0012300E00023184602B070475E
:107A340030010010E00F00F0E80F00F034010010F6
:107A440082B0174B1B68DBB20193164B1B681B09F2
:107A540003F00F030093019B062B1DD1009B033BF6
:107A6400042B17D801A252F823F000BF857A020034
:107A7400897A02008D7A0200917A0200957A0200D6
:107A840001230AE0002308E0002306E0002304E0C9
:107A9400002302E0002300E00023184602B07047F0
:107AA400E00F00F0E80F00F082B01D4B1B68B3F14B
:107AB400FF3F0AD11B4B1B68DBB201931A4B1B68B7
:107AC4001B0903F00F03009305E0154B1B6801939A
:107AD400164B1B680093019B062B1DD1009B033B97
:107AE400042B17D801A252F823F000BF057B020033
:107AF400097B02000D7B0200117B0200157B020052
:107B040001230AE0012308E0012306E0012304E045
:107B1400012302E0012300E00023184602B070476D
:107B240030010010E00F00F0E80F00F03401001005
:107B340082B0174B1B68DBB20193164B1B681B0901
:107B440003F00F030093019B062B1DD1009B033B05
:107B5400042B17D801A252F823F000BF757B020052
:107B6400797B02007D7B0200817B0200857B020021
:107B740001230AE0002308E0002306E0002304E0D8
:107B8400002302E0002300E00023184602B07047FF
:107B9400E00F00F0E80F00F082B01D4B1B68B3F15A
:107BA400FF3F0AD11B4B1B68DBB201931A4B1B68C6
:107BB4001B0903F00F03009305E0154B1B680193A9
:107BC400164B1B680093019B062B1DD1009B033BA6
:107BD400042B17D801A252F823F000BFF57B020052
:107BE400F97B0200FD7B0200017C0200057C02009F
:107BF40001230AE0012308E0012306E0012304E055
:107C0400012302E0012300E00023184602B070477C
:107C140030010010E00F00F0E80F00F03401001014
:107C240082B0174B1B68DBB20193164B1B681B0910
:107C340003F00F030093019B062B1DD1009B033B14
:107C4400042B17D801A252F823F000BF657C020070
:107C5400697C02006D7C0200717C0200757C02006C
:107C640001230AE0002308E0002306E0002304E0E7
:107C7400002302E0002300E00023184602B070470E
:107C8400E00F00F0E80F00F082B0174B1B68DBB286
:107C94000193164B1B681B0903F00F030093019B10
:107CA400062B1DD1009B033B042B17D801A252F8CD
:107CB40023F000BFCD7C0200D17C0200D57C020001
:107CC400D97C0200DD7C020001230AE0002308E0E5
:107CD400002306E0002304E0002302E0002300E088
:107CE4000023184602B07047E00F00F0E80F00F0E0
:107CF40082B01D4B1B68B3F1FF3F0AD11B4B1B68BD
:107D0400DBB201931A4B1B681B0903F00F030093AA
:107D140005E0154B1B680193164B1B680093019BF0
:107D2400062B1DD1009B033B042B17D801A252F84C
:107D340023F000BF4D7D0200517D0200557D0200FD
:107D4400597D02005D7D020000230AE0002308E063
:107D5400012306E0012304E0012302E0012300E003
:107D64000023184602B0704730010010E00F00F005
:107D7400E80F00F03401001082B01D4B1B68B3F112
:107D8400FF3F0AD11B4B1B68DBB201931A4B1B68E4
:107D94001B0903F00F03009305E0154B1B680193C7
:107DA400164B1B680093019B062B1DD1009B033BC4
:107DB400042B17D801A252F823F000BFD57D02008E
:107DC400D97D0200DD7D0200E17D0200E57D020037
:107DD40001230AE0012308E0012306E0012304E073
:107DE400012302E0012300E00023184602B070479B
:107DF40030010010E00F00F0E80F00F03401001033
:107E040082B01D4B1B68B3F1FF3F0AD11B4B1B68AB
:107E1400DBB201931A4B1B681B0903F00F03009399
:107E240005E0154B1B680193164B1B680093019BDF
:107E3400062B1DD1009B033B042B17D801A252F83B
:107E440023F000BF5D7E0200617E0200657E0200B9
:107E5400697E02006D7E020001230AE0012308E02E
:107E6400012306E0012304E0012302E0012300E0F2
:107E74000023184602B0704730010010E00F00F0F4
:107E8400E80F00F03401001082B0154B1B68019319
:107E9400144B1B680093019B062B1DD1009B033BD5
:107EA400042B17D801A252F823F000BFC57E0200AC
:107EB400C97E0200CD7E0200D17E0200D57E020082
:107EC40000230AE0002308E0002306E0012304E085
:107ED400012302E0012300E00023184602B07047AA
:107EE400300100103401001082B0154B1B6801935F
:107EF400144B1B680093019B062B1DD1009B033B75
:107F0400042B17D801A252F823F000BF257F0200EA
:107F1400297F02002D7F0200317F0200357F02009D
:107F240000230AE0002308E0002306E0002304E025
:107F3400012302E0012300E00023184602B0704749
:107F4400300100103401001008B5FFF7CDFF0346DF
:107F5400002B07D04FF010234FF08042D3F80832A3
:107F6400C2F8583500BF08BD00BF044BD3F8003435
:107F7400002BFAD000BF00BF704700BF00E00140F3
:107F840000B583B00190054A019BC2F80435FFF7A0
:107F9400EBFF00BF03B05DF804FB00BF00E001404D
:107FA400024B034A1A6000BF704700BFC42200207E
:107FB4000090D00308B5FFF7FFFC0346002B06D062
:107FC400964B1B681B0A964A03F01F031360FFF7C6
:107FD40037FD0346002B02D0924B934A1A60FFF7F9
:107FE40063FD0346002B06D0904B1B685B0B904A45
:107FF40003F007031360FFF79BFD0346002B05D036
:108004008C4BDB688B4A23F08073D360FFF7C4FD8D
:108014000346002B0ED04FF080430022C3F80C21FE
:108024004FF080430022C3F810214FF08043002218
:10803400C3F83825FFF7F4FD0346002B02D07E4B2E
:1080440003221A60FFF720FE0346002B0BD07B4B64
:1080540005221A607A4B01221A607A4B00221A60B8
:10806400794B3F221A60FFF743FE0346002B76D07C
:108074004FF08053754AD3F80434C2F820354FF0DA
:108084008053724AD3F80834C2F824354FF0805331
:108094006E4AD3F80C34C2F828354FF080536B4A3B
:1080A400D3F81034C2F82C354FF08053674AD3F814
:1080B4001434C2F830354FF08053644AD3F818347E
:1080C400C2F834354FF08053604AD3F81C34C2F8F8
:1080D40040354FF080535D4AD3F82034C2F844351C
:1080E4004FF08053594AD3F82434C2F848354FF03E
:1080F4008053564AD3F82834C2F84C354FF0805395
:10810400524AD3F82C34C2F850354FF080534F4ABA
:10811400D3F83034C2F854354FF080534B4AD3F877
:108124003434C2F860354FF08053484AD3F83834B9
:10813400C2F864354FF08053444AD3F83C34C2F853
:1081440068354FF08053414AD3F84034C2F86C3557
:108154004FF080533D4AD3F84434C2F87035FFF7EA
:108164000BFE0346002B05D0394B1B68394A03F03C
:108174004F031360FFF744FE0346002B0DD04FF06E
:108184008043D3F8003403F00103002B05D04FF0F3
:1081940080436FF00102C3F80024FFF775FE034625
:1081A400002B05D02C4B1B682B4A43F480631360CF
:1081B4002A4BD3F88830294A43F47003C2F8883034
:1081C400BFF34F8F00BFBFF36F8F00BFFFF7BCFE3D
:1081D4004FF01023D3F80032002B05DB4FF01023AF
:1081E400D3F80432002B15DA0120FFF7C9FE4FF053
:1081F40010231522C3F80022FFF7B6FE4FF0102318
:108204001522C3F80422FFF7AFFE0020FFF7B8FEE3
:10821400FFF7BEFBFFF7C4FE00BF08BD2403001038
:108224004035014074C007400DF0ADBA440200105F
:108234003C050040F0ED00E0A00500401056004071
:1082440088560040185600401456004000C00040B4
:1082540058020010E40E00403C17004000ED00E01E
:108264006DDF704700BF184679DF704700BF1846BE
:108274007DDF704700BF184664DF704700BF1846B3
:1082840082B003460091ADF80630BDF80630DAB28C
:10829400009B1A70BDF806301B0A9AB2009B01338A
:1082A400D2B21A700223184602B0704700B589B0E2
:1082B400039002911346ADF80630029B1B8803F12C
:1082C4000902BDF806309A4201D90C2353E004ABED
:1082D4001846FFF7C5FF0790079B0693069B002BE4
:1082E40001D0069B47E0029B1B881A46039B13445C
:1082F40008221A70029B1B8801339AB2029B1A80CF
:10830400029B1B881A46039B13441B221A70029B70
:108314001B8801339AB2029B1A80029B1B881A465F
:10832400039B981804AB01330622194611F0B6F8E2
:10833400029B1B8806339AB2029B1A809DF8103068
:1083440023F00103DBB2002B07D1029B1B881A46E2
:10835400039B134400221A7006E0029B1B881A46F2
:10836400039B134401221A70029B1B8801339AB2A7
:10837400029B1A800023184609B05DF804FB00B57F
:1083840089B0039002910192ADF80230039B1B78EF
:10839400012B05D1039B5B78002B01D1072391E0CE
:1083A400019B1B889A1CBDF802309A420ED8039B8D
:1083B4001B78012B0CD1019B1B881A46039B5B780D
:1083C40013449A1CBDF802309A4201D90C2379E077
:1083D400019B1B88BDF80220D31A9BB2023BADF867
:1083E4001C30BDF81C30ADF81230019B1B880233E1
:1083F400029A13440DF1120211461846FFF738FF92
:108404000690069B0593059B002B01D0059B59E024
:10841400039B1B78022B06D0039B5B781A46BDF89E
:1084240012309A4209D3BDF81230BDF81C209A428A
:1084340003D309238DF81F3016E008238DF81F306D
:10844400039B1B78012B0BD1039B5B781A46BDF869
:108454001C30934204D3039B5B78ADF8123003E0E5
:10846400BDF81C30ADF81230BDF81230FE2B01D926
:108474000C2327E0BDF81230DAB2019B1B881946A1
:10848400029B0B440132D2B21A70019B1B88013348
:108494009AB2019B1A80019B1B881A46029B1344C3
:1084A4009DF81F201A70019B1B8801339AB2019B0F
:1084B4001A80019B1A88BDF8123013449AB2019BAA
:1084C4001A800023184609B05DF804FB00B589B092
:1084D400039002911346ADF80630029B1B881A1DC7
:1084E400BDF806309A4201D90C233AE00DF1160387
:1084F4001846FFF7B9FE0790079B0693069B002BCF
:1085040001D0069B2DE0029B1B881A46039B134453
:1085140003221A70029B1B8801339AB2029B1A80B1
:10852400029B1B881A46039B134419221A70029B50
:108534001B8801339AB2029B1A80BDF81620029B55
:108544001B881946039B0B4419461046FFF798FEF7
:1085540003461A46029B1B8813449AB2029B1A8054
:108564000023184609B05DF804FB84B0029101921F
:108574001A4603468DF80F301346ADF80C30019BB4
:108584001B88DA1CBDF80C309A4201D90C2328E070
:10859400019B1B881A46029B134402221A70019BFA
:1085A4001B8801339AB2019B1A80019B1B881A46CF
:1085B400029B134401221A70019B1B8801339AB257
:1085C400019B1A80019B1B881A46029B13449DF849
:1085D4000F201A70019B1B8801339AB2019B1A80E9
:1085E4000023184604B0704784B0029101921A46E1
:1085F40003468DF80F301346ADF80C30019B1B88F1
:10860400DA1CBDF80C309A4201D90C2328E0019BF6
:108614001B881A46029B134402221A70019B1B8872
:1086240001339AB2019B1A80019B1B881A46029B54
:1086340013440A221A70019B1B8801339AB2019BCE
:108644001A80019B1B881A46029B13449DF80F2035
:108654001A70019B1B8801339AB2019B1A80002374
:10866400184604B0704700B58FB0039001930B46D1
:108674008DF80B3013468DF80A3000238DF8333013
:10868400109B1B88ADF8303000230D9370E0039BE2
:108694005A680D9B9B001A4405AB106818600DF1D5
:1086A4001B0105AB00221846FFF7E6FD0A900A9B62
:1086B4000993099B002B01D0099B7BE09DF81B309B
:1086C4009DF80A209A4250D19DF83330002B01D0F6
:1086D400002300E002238DF82330109B1B881A46E8
:1086E4009DF81B301A449DF823301A44BDF84430D9
:1086F4009A4201DD0C235DE09DF8333083F00103E1
:10870400DBB2002B16D0109B1B8801339AB2109B4E
:108714001A80109B1B881A46019B13449DF80B205A
:108724001A70109B1B8801339AB2109B1A80012384
:108734008DF83330109B1B881A46019B1A440DF1A7
:108744001B0105AB1846FFF797FD0A900A9B079398
:10875400079B002B01D0079B2CE0109B1B889DF8E6
:108764001B2013449AB2109B1A800D9B01330D9366
:10877400039B1B881A460D9B934288DB9DF833307C
:10878400002B16D0109B1A88BDF83030D31A9BB238
:10879400013BADF82E30BDF82E30FF2B01D90C2350
:1087A40008E0BDF83030019A1344BDF82E20D2B24F
:1087B4001A70002318460FB05DF804FB00B58BB0A7
:1087C400059003930B468DF8133013468DF8123041
:1087D4009DF81310BDF8343001930C9B0093039B58
:1087E40002220598FFF73FFF0990099B0893089B15
:1087F400002B01D0089B14E09DF81210BDF8343012
:1088040001930C9B0093039B10220598FFF72BFF09
:108814000990099B0793079B002B01D0079B00E05D
:10882400002318460BB05DF804FB82B00190019B55
:108834001B88052B0AD9019B1B88B3F5486F07D900
:10884400019B1B884FF6FF72934201D0072325E05A
:10885400019B5B88052B0AD9019B5B88B3F5486FA4
:1088640007D9019B5B884FF6FF72934201D007231F
:1088740014E0019B1B884FF6FF7293420DD0019BBD
:108884005B884FF6FF72934207D0019B1A88019BC5
:108894005B889A4201D9072300E00023184602B0FE
:1088A400704700B587B0039002910192ADF8023091
:1088B400019B1B889A1DBDF802309A4201D90C23F2
:1088C4004BE00398FFF7B1FF0590059B0493049BCD
:1088D400002B01D0049B40E0019B1B881A46029B9D
:1088E400134405221A70019B1B8801339AB2019B21
:1088F4001A80019B1B881A46029B134412221A7089
:10890400019B1B8801339AB2019B1A80039B1A882E
:10891400019B1B881946029B0B4419461046FFF71E
:10892400AFFC03461A46019B1B8813449AB2019B71
:108934001A80039B5A88019B1B881946029B0B448F
:1089440019461046FFF79CFC03461A46019B1B88F8
:1089540013449AB2019B1A800023184607B05DF8AD
:1089640004FB00B587B0039002910192ADF8023088
:10897400039B9B8802330593019B1B881A46059B26
:1089840013449A1CBDF802309A4201D90C2353E0D7
:10899400059BFE2B01D90C234EE0059BDAB2019B0B
:1089A4001B881946029B0B440132D2B21A70019BF8
:1089B4001B8801339AB2019B1A80019B1B881A46BB
:1089C400029B1344FF221A70019B1B8801339AB245
:1089D400019B1A80039B1A88019B1B881946029BE2
:1089E4000B4419461046FFF74BFC03461A46019BFD
:1089F4001B8813449AB2019B1A80039B9B88002B0B
:108A040019D0039B9B68002B01D1072314E0019B21
:108A14001B881A46029B9818039B9968039B9B88A2
:108A24001A4610F03BFD019B1A88039B9B88134454
:108A34009AB2019B1A800023184607B05DF804FB24
:108A440000B589B0039002910192ADF80230039B06
:108A54009B6A002B01D1072371E000238DF81F309E
:108A640065E0039B996A9DF81F2013465B0013443D
:108A74009B000B440693069B9B8802330593059B3E
:108A8400FE2B01D90C235AE0059BDAB2019B1B880B
:108A94001946029B0B440132D2B21A70019B1B8807
:108AA40001339AB2019B1A80019B1B881A46029BD0
:108AB400134416221A70019B1B8801339AB2019B3E
:108AC4001A80069B1A88019B1B881946029B0B443B
:108AD40019461046FFF7D4FB03461A46019B1B8830
:108AE40013449AB2019B1A80069B9B88002B19D0D1
:108AF400069B9B68002B01D1072320E0019B1B8868
:108B04001A46029B9818069B9968069B9B881A46EE
:108B140010F0C4FC019B1A88069B9B8813449AB2EC
:108B2400019B1A809DF81F3001338DF81F30039B81
:108B340093F82C309DF81F209A4292D300231846B4
:108B440009B05DF804FB00B595B00590049103925B
:108B540000231393039B1B88ADF84A30039B002228
:108B64001A80059B93F82D30002B0ED0BDF84A30A7
:108B74001A4603990498FFF799FB1390139B1193DA
:108B8400119B002B01D0119BD8E0059B9B78002BF7
:108B94000ED0BDF84A301A4603990498FFF796FCA4
:108BA4001390139B1093109B002B01D0109BC5E0D6
:108BB400059BDB78002B10D0059BDB7858B2BDF801
:108BC4004A30039A0499FFF7D0FC1390139B0F9338
:108BD4000F9B002B01D00F9BB0E0059B5B68002B23
:108BE40011D0059B5B6893F90000BDF84A30039AE5
:108BF4000499FFF7F9FC1390139B0E930E9B002B23
:108C040001D00E9B9AE0059B1B89002B14D0059B79
:108C140003F10800BDF84A300193039B0093049BC1
:108C240006220221FFF7CAFD1390139B0D930D9B9F
:108C3400002B01D00D9B81E0059B1B8A002B14D0D7
:108C4400059B03F11000BDF84A300193039B009388
:108C5400049B07220321FFF7B1FD1390139B0C9390
:108C64000C9B002B01D00C9B68E0059B1B8B002BFD
:108C740014D0059B03F11800BDF84A300193039BFF
:108C84000093049B15221421FFF798FD1390139B66
:108C94000B930B9B002B01D00B9B4FE0059B1B6A96
:108CA400002B0FD0059B186ABDF84A30039A04992B
:108CB400FFF7F7FD1390139B0A930A9B002B01D037
:108CC4000A9B3BE0059B5B6A002B0FD0059B586A0F
:108CD400BDF84A30039A0499FFF743FE1390139B9F
:108CE4000993099B002B01D0099B27E0059B93F86E
:108CF4002C30002B0ED0BDF84A30039A0499059805
:108D0400FFF79EFE1390139B0893089B002B01D042
:108D1400089B13E0059B1B78002B0ED0BDF84A304E
:108D2400039A04990598FFF72AFB1390139B079362
:108D3400079B002B01D0079B00E0139B184615B03E
:108D44005DF804FB86B0039001921A460B46ADF819
:108D54000A3013468DF80930039B002B02D0019B87
:108D6400002B01D100235BE00023ADF816300CE0AA
:108D7400BDF81630039A13441B781A46BDF8163012
:108D840013449BB20133ADF81630BDF816305A1CAB
:108D9400BDF80A309A420FDA019B1B88BDF81620F1
:108DA4009A42E5D3BDF816300133039A13441B7875
:108DB4009DF809209A42DBD1BDF81620BDF80A308F
:108DC4009A4201D300232BE0BDF816300233ADF8EC
:108DD4001430BDF81630039A13441B78002B07D0C7
:108DE400BDF81630039A13441B78013B9BB200E094
:108DF4000023ADF81230BDF81230002B08D0BDF8B6
:108E04001420BDF812301A44BDF80A309A4201DD2C
:108E1400002305E0019BBDF814201A80BDF8123030
:108E2400184606B0704700B585B001900B46ADF802
:108E3400023013468DF801300023ADF80C309DF854
:108E4400013003AABDF802100198FFF77BFF034627
:108E5400ADF80E30BDF80E30002B01D1002304E034
:108E6400BDF80C301A46019B1344184605B05DF852
:108E740004FB72DF704700BF184673DF704700BF02
:108E8400184682B00190019B93F83034184602B022
:108E9400704784B00190002303930AE0019A039B76
:108EA40013441B78002B01D0012306E0039B0133FC
:108EB4000393039B052BF1D90023184604B0704794
:108EC40000B585B001900B468DF80330019B03F289
:108ED40027431846FFF7DDFF03468DF80F309DF852
:108EE4000330013B032B33D801A252F823F000BF17
:108EF400058F0200298F02003D8F0200498F020076
:108F0400019B9B79002B0DD0019B93F8243083F0B7
:108F14000103DBB2002B05D09DF80F30002B01D0EC
:108F2400012316E0019BDB79002B05D09DF80F305F
:108F3400002B01D002230CE0019B1B7A002B01D0F3
:108F4400032306E0019B5B7A002B01D0042300E09D
:108F54000023184605B05DF804FB00BF82B0019001
:108F64000091019B012283F83120019B0022C3F868
:108F74002024019B03F22642009B5A60009B00229E
:108F84009A60009B02221A70009B80229A8100231F
:108F9400184602B0704782B001900091019B0222F2
:108FA40083F83120019B93F82430002B03D0009BDD
:108FB40007221A7002E0009B03221A70019B1B69AE
:108FC4009AB2009B9A81019B0022C3F82024019B42
:108FD40003F22642009B5A60019BDA68009B9A6068
:108FE4000023184602B0704700B583B00190019B7E
:108FF4005B79002B0FD0019B93F82E3483F001038F
:10900400DBB2002B07D00198FFF73BFF0346002B90
:1090140001D0012300E0002303F00103DBB2184672
:1090240003B05DF804FB00B585B001900B468DF8E4
:109034000330019BD3F81004019BB3F814340122CC
:109044001946FFF7F0FE0390039B002B03D0039B0C
:109054009DF803201A70019B03F15400019B03F552
:109064008261019B3C331A46FFF703FF034618460F
:1090740005B05DF804FB00B585B001900091019B3B
:109084005A69009B9A60019B9B699AB2009B9A81E2
:10909400019B93F82430002B04D0019B062283F813
:1090A4003C2003E0019B012283F83C200198FFF758
:1090B4009BFF0346002B13D0009B02221A75042148
:1090C4000198FFF7B0FF0390039B0293029B002BD0
:1090D40001D0029B0FE0019B052283F8312003E0BD
:1090E400019B032283F83120019B03F58262019BDB
:1090F400C3F820240023184605B05DF804FB00B52E
:1091040085B001900091019BDA69009B9A60019BF4
:109114001B6A9AB2009B9A81019B93F82430002B1E
:1091240004D0019B062283F83C2003E0019B01222A
:1091340083F83C200198FFF757FF0346002B13D018
:10914400009B02221A7504210198FFF76CFF03901B
:10915400039B0293029B002B01D0029B0FE0019B17
:10916400062283F8312003E0019B042283F8312096
:10917400019B03F58262019BC3F820240023184657
:1091840005B05DF804FB82B00190019B9B78002B35
:1091940006D0019B93F82030002B01D000230AE075
:1091A400019B9B6A042B03D0019B5B6A042B01D1B6
:1091B400002300E00123184602B0704784B00190F8
:1091C400019B93F82430002B03D0EE23ADF80E302E
:1091D40002E01F23ADF80E30BDF80E30184604B07F
:1091E400704782B001900B468DF80330019B9DF8C7
:1091F400032083F8302000BF02B0704730B587B039
:1092040001900091009B002B02D0019B002B01D107
:109214000E23B8E0009B78331846FFF7B4FF0346EB
:1092240083F00103DBB2002B01D00723ABE0019BE9
:1092340000229A70019A009B141D03F178050FCD4A
:109244000FC40FCD0FC495E8070084E80700019B05
:10925400002283F83020009BD3F8A420019B5A639A
:10926400009BD3F8A820019B9A63019B4FF6FF72E1
:10927400A3F82424019B03F58262019BC3F82024F4
:10928400019B03F2264307220021184610F038F907
:10929400019B1B7883F00103DBB2002B03D0019BFD
:1092A400FF2283F85420019B03F15502019BC3F86C
:1092B40010240198FFF782FF03461A46019BA3F886
:1092C40014240098019B03F15501019B03F21443FC
:1092D4001A46FFF738FC0590059B0493049B002B6A
:1092E40001D0049B4FE0019B03F23122019BC3F8A0
:1092F40018240198FFF762FF03461A46019BA3F85E
:109304001C24009B03F13C00019BD3F81814019B1F
:1093140003F21C431A46FFF716FC0590059B0393C2
:10932400039B002B01D0039B2DE0019B012283F8BA
:109334005120019B9B699AB2019BA3F84820019B91
:10934400012283F83C20019B00221A64019B002225
:1093540083F85020019B5A69019B5A64019B03F1D5
:109364005400019B3C331A460021FFF782FD05900F
:10937400059B0293029B002B01D0029B03E0019BFF
:1093840001221A70059B184607B030BD82B00190C7
:10939400019B1B68012B03D0019B1B68022B01D18D
:1093A400012300E00023184602B0704700B585B0E1
:1093B40001900B468DF80330019B1B7883F0010369
:1093C400DBB2002B01D0082309E1019B9DF80320A7
:1093D4009A70019B03F2264307220021184610F0DD
:1093E4008FF8019B9B79002B03D0019B9B78012B69
:1093F4000FD0019BDB79002B03D0019B9B78012BC1
:1094040007D0019BDB79002B14D0019B9B78022BA6
:1094140010D1019B5B6B002B08D0019B012283F8C8
:109424002D24019B5B6B0820984703E0019B0022DD
:1094340083F82D249DF8033019460198FFF740FD69
:1094440003461A46019B9A70019B5B6B002B20D04C
:10945400019B9B78032B03D0019B9B78042B18D191
:10946400019B5B79002B14D0019B93F82E3483F07D
:109474000103DBB2002B0CD0019B002283F83024C3
:10948400019B012283F82F24019B5B6B07209847E3
:1094940003E0019B002283F82F24019B3C33182214
:1094A4000021184610F02CF8019B012283F83C207F
:1094B400019B2C331846FFF769FF0346002B06D0A7
:1094C400019BDB6ADAB2019B83F8512003E0019B24
:1094D400012283F85120019B93F82430002B12D0F1
:1094E400019B28331846FFF751FF0346002B06D093
:1094F400019B9B6ADAB2019B83F8522003E0019B33
:10950400012283F85220019B002283F85020019B02
:109514009B78042B31D801A252F823F075950200F0
:1095240035950200459502005595020065950200A7
:10953400019B3C3319460198FFF710FD03901DE091
:10954400019B3C3319460198FFF725FD039015E074
:10955400019B3C3319460198FFF78DFD03900DE004
:10956400019B3C3319460198FFF7C9FD039005E0C0
:10957400019B002283F8312000E000BF019B9B780F
:10958400002B20D0019B03F15400019BD3F820143D
:10959400019B3C331A46FFF76CFC0390039B002BA2
:1095A40001D0039B1BE0019B93F85420019B93F88B
:1095B400303019461046FFF760FC0390039B002BE4
:1095C40001D0039B0BE0019B5B6B002B06D0019B3E
:1095D4005B6B019A92F83120104698470023184695
:1095E40005B05DF804FB00BF75DF704700BF184687
:1095F40076DF704700BF18467ADF704700BF184611
:109604007BDF704700BF184684B00346ADF80630D0
:109614000023039316E00F49039A13469B00134457
:109624009B000B441B88BDF806209A4207D1039A7D
:1096340013469B0013449B00064A134406E0039B15
:1096440001330393039B002BE5D00023184604B099
:10965400704700BF2847002082B001900B46ADF848
:109664000230019BBDF802201A80019B00221A726D
:10967400019B054903F10A020B4603CB10605160BC
:1096840000BF02B0704700BF5847002082B001906D
:10969400019B4FF6FF721A8000BF02B0704788B07A
:1096A4000390029111461A460B46ADF80630134654
:1096B400ADF80430039B9B881A46BDF8063013446A
:1096C4000793039B9B881946039B9B88BDF8062040
:1096D400934228BF13469BB2CB1A0693039BDB88A5
:1096E4001A46BDF8043013440593039BDB881946DE
:1096F400039BDB88BDF80420934228BF13469BB22A
:10970400CB1A0493029B5A88039B1B889A4205D365
:10971400029B5A88039B5B889A4201D900231CE070
:10972400029B9B881A46069B934205D8029B9B8802
:109734001A46079B934201D200230EE0029BDB886A
:109744001A46049B934205D8029BDB881A46059B64
:10975400934201D2002300E00123184608B0704769
:1097640000B583B00190064B9B69002B03D0044BDA
:109774009B690198984700BF03B05DF804FB00BFE4
:109784003C47002000B585B003460091ADF8063093
:10979400BDF8063000991846FFF726FF0390039B97
:1097A400002B05D0039B112B02D00398FFF7D8FFA1
:1097B400039B002B0CBF01230023DBB2184605B02A
:1097C4005DF804FB00B589B00190019B0793079BEA
:1097D4009BB21846FFF718FF0690069B002B42D059
:1097E400069B1A7A224B1B7B9A4215D2079B9AB28C
:1097F400069B0A3319461046FFF7C4FF03468DF84B
:1098040013309DF81330002B2DD0069B1B7A0133A7
:10981400DAB2069B1A7226E0069B00221A72144BD7
:109824001B7C002B0FD0079B9BB23B211846FFF7F4
:10983400DFFE0590059B002B05D0059B082B02D06D
:109844000598FFF78DFF0A4B5B69002B0BD00023B3
:109854008DF80C30079B9BB2ADF80E30044B5B695E
:1098640003AA1046984700BF09B05DF804FB00BF87
:109874003C47002030B587B00190019B002B01D1FB
:109884000E2353E02B4A019B14461D460FCD0FC4F3
:1098940095E8070084E80700264B274A1A60019BD5
:1098A4001B68002B11D0019B1B681846FFF7A4FE10
:1098B4000490049B002B01D0049B37E0019B1A68A1
:1098C4001D4B1068516803C308E01B48FFF798FE5E
:1098D4000490049B002B01D0049B27E000230593F4
:1098E40020E0059A13469B0013449B00134A13443B
:1098F40003930398FFF7CAFE059B5B01104A1A44C1
:10990400039B5A60039B04330E4A0021184609F056
:1099140041FD0490049B002B01D0032306E0059B2A
:1099240001330593059B002BDBD00023184607B0B9
:1099340030BD00BF3C470020584700202847002086
:1099440008470020C997020000B587B0034600917C
:10995400ADF80630009B5B7A002B1AD1009B1B7A72
:10996400002B03D1164B5B68059302E0144B9B68F4
:109974000593009B5B68BDF806200599184609F01D
:1099840043FD0490049B002B16D00498FFF7E8FED7
:1099940012E0009B00221A72094B5B69002B0BD06A
:1099A40001238DF80C30BDF80630ADF80E30044BB1
:1099B4005B6903AA1046984700BF07B05DF804FB33
:1099C4003C47002000B585B00190019BDB7B8DF8FE
:1099D4000F30019B9B88ADF80C309DF80F30012BA4
:1099E4002CD14FF6FF70FFF70FFE0290029B002B65
:1099F40003D10420FFF7B4FE21E0BDF80C30194672
:109A04000298FFF729FE029B03F10A00019B03F170
:109A140010014FF6FF7340F2F312FFF740FE0346C6
:109A24001A46029B5A72074BDB89002B07D1BDF8FB
:109A34000C3002991846FFF787FF00E000BF05B01D
:109A44005DF804FB3C47002000B587B00190019B02
:109A54009B88ADF81630BDF816301846FFF7D4FDD4
:109A64000490049B002B0ED0049B5B68184609F0FD
:109A740023FD0390039B002B02D00398FFF770FE95
:109A84000498FFF703FE00BF07B05DF804FB000075
:109A940000B587B00190019B06330593059B1A8896
:109AA400194BDB899A422BD1059B5B89022B27D169
:109AB400019B9B88ADF81230BDF812301846FFF7B1
:109AC400A3FD0390039B002B1AD0059B0C3318466F
:109AD40000F0E6FB0346002B06D0BDF812300399D4
:109AE4001846FFF731FF0BE0039B5B68184609F04B
:109AF400E3FC0290029B002B02D00298FFF730FE99
:109B040000BF07B05DF804FB3C47002000B585B0FA
:109B14000190019B9B88ADF80E30BDF80E301846BD
:109B2400FFF772FD0290029B002B15D0029B03F1FC
:109B34000A00019B03F108014FF6FF7340F2F31290
:109B4400FFF7ADFD03461A46029B5A72BDF80E306C
:109B540002991846FFF7F8FE00BF05B05DF804FB54
:109B640000B583B001900091019B1B88502B12D04B
:109B7400502B18DC122B12D0122B14DC102B02D019
:109B8400112B04D00FE00198FFF71CFF0CE00198A3
:109B9400FFF75AFF08E00198FFF77AFF04E0019805
:109BA400FFF7B4FF00E000BF00BF03B05DF804FBA3
:109BB40030B58FB00190009100230293009B002BDD
:109BC4001AD000230D9314E06B460D9918460BF040
:109BD40042FE0346002B09D0029B5A1C02920D9AA6
:109BE40092B25B0038336B4423F82C2C0D9B013369
:109BF4000D930D9B132BE7D9019B1D4602AC0FCC93
:109C04000FC50FCC0FC594E8070085E8070001983D
:109C14000FB030BD00B583B00346ADF80630BDF8D3
:109C24000630132B01D900230CE0BDF80630194689
:109C340006480BF0BBFDBDF80630194604480BF08E
:109C4400B5FD0123184603B05DF804FB6847002006
:109C54006447002000B585B00346ADF80630002304
:109C640003930DE0039B9B00094A13440433BDF89E
:109C74000620114618460BF0D5FD039B01330393D0
:109C8400039B1D2BEED900BF00BF05B05DF804FB9C
:109C94006047002000B583B00346ADF80630BDF838
:109CA4000630194603480BF0BDFD00BF03B05DF854
:109CB40004FB00BF6847002030B59BB0184B9B687D
:109CC400DB431893164B5A6818AB114618460BF031
:109CD40098FE189A6B4611461846FFF769FF0DACBB
:109CE4006D460FCD0FC40FCD0FC495E8070084E86F
:109CF4000700002319930BE0199B5B0068336B4446
:109D040033F8303C1846FFF7A5FF199B013319932C
:109D14000D9B199A9A42EFD300BF00BF1BB030BD10
:109D24006047002000B583B003468DF807309DF8E6
:109D34000730194603480BF08EFD0346184603B05E
:109D44005DF804FB6047002000B583B001900B462A
:109D5400ADF8023013468DF801309DF80130002B28
:109D640006D0BDF80230194601980BF01FFD05E03E
:109D7400BDF80230194601980BF054FD00BF03B042
:109D84005DF804FB00B585B001900091019B9B88B0
:109D9400ADF80E30019B1B88103B0A2B00F2888023
:109DA40001A252F823F000BFD99D0200159E0200C3
:109DB400B59E0200B59E0200B59E0200B59E02004B
:109DC400B59E0200B59E0200B59E02007F9E020071
:109DD400219E0200FFF770FFBDF80E301846FFF712
:109DE40019FF034683F00103DBB2002B05D0324A8E
:109DF400F021042008F0E0FE57E0019BDB7B022BFE
:109E040053D1BDF80E3019462C480BF0CFFC4CE072
:109E1400BDF80E301846FFF73DFF49E0019B1B7A61
:109E2400C3F30313DBB28DF80D309DF80D30032B13
:109E34008CBF01230023DAB2BDF80E301946204846
:109E4400FFF782FF9DF80D30022B8CBF0123002306
:109E5400DAB2BDF80E3019461A48FFF775FF9DF8BF
:109E64000D30012B8CBF01230023DAB2BDF80E3074
:109E740019461548FFF768FF1AE0019B1B7A002B6F
:109E840015D1019B5B7AC3F3C003DBB2002B14BF73
:109E9400012300238DF80C309DF80C20BDF80E3002
:109EA40019460748FFF750FF01E000BF00E000BF7C
:109EB40000BF05B05DF804FB689C03006C470020FC
:109EC40078470020744700207047002000B583B015
:109ED4000346ADF80630BDF80630132B01D9002334
:109EE40006E0BDF80630194603480BF0B4FC0346FF
:109EF400184603B05DF804FB6447002000B585B044
:109F04000346ADF8063000238DF80F30BDF8063057
:109F14001846FFF7DBFF0346002B11D0BDF80630CF
:109F240019460A480BF097FC03468DF80E309DF84D
:109F34000E30002B01D0022300E001238DF80F30F6
:109F44009DF80F30184605B05DF804FB6C470020FF
:109F540000B585B00346ADF8063000238DF80F3008
:109F6400BDF806301846FFF7B1FF0346002B11D0A9
:109F7400BDF8063019460A480BF06DFC03468DF80F
:109F84000E309DF80E30002B01D0022300E0012397
:109F94008DF80F309DF80F30184605B05DF804FBBE
:109FA4006847002000B583B00346ADF80630BDF81D
:109FB40006301846FFF78AFF0346002B07D0BDF88A
:109FC4000630194604480BF046FC034600E0002323
:109FD400184603B05DF804FB7047002000B583B059
:109FE4000346ADF80630BDF806301846FFF76EFF9D
:109FF4000346002B07D0BDF80630194604480BF081
:10A004002AFC034600E00023184603B05DF804FB75
:10A014007447002000B583B00346ADF80630BDF8A0
:10A0240006301846FFF752FF0346002B07D0BDF851
:10A034000630194604480BF00EFC034600E00023EA
:10A04400184603B05DF804FB7847002000B583B0E0
:10A054000346ADF80630BDF806301846FFF736FF64
:10A064000346002B02D0BDF8063000E01423184646
:10A0740003B05DF804FB000000B583B003460A4654
:10A08400ADF8063013468DF805309DF805301846B6
:10A09400FFF748FE0346002B16D0BDF806301846DD
:10A0A400FFF714FF0346002B0ED09DF8053006334E
:10A0B4009B00084A13440433BDF806201146184691
:10A0C4000BF0C9FB034600E00023184603B05DF81B
:10A0D40004FB00BF6047002000B583B00346ADF821
:10A0E40006300B468DF8053013468DF804309DF884
:10A0F40005301846FFF716FE0346002B15D0BDF8B1
:10A1040006301846FFF7E2FE0346002B0DD09DF8FB
:10A11400053006339B00074A134404339DF804209A
:10A12400BDF806101846FFF70FFE00BF03B05DF838
:10A1340004FB00BF6047002000B587B00390029184
:10A144000192029B002B01D100231FE00023059301
:10A15400039B002B19D00023049313E003AB049951
:10A1640018460BF078FB0346002B08D0049B9AB2E8
:10A17400029B019910469847059B01330593049B64
:10A1840001330493049B132BE8D9059B184607B0AD
:10A194005DF804FB00B585B00346029101928DF889
:10A1A4000F309DF80F301846FFF7BCFD034683F0CF
:10A1B4000103DBB2002B01D000230CE09DF80F302B
:10A1C400074A06339B0013445B68019A02991846B8
:10A1D400FFF7B2FF0346184605B05DF804FB00BF65
:10A1E4006047002000B587B003900B460192ADF89C
:10A1F4000A30019B002B01D10E2338E0019B002281
:10A204001A60039B002B01D10E2330E0039B1B68D3
:10A21400002B01D10E232AE0039BDB8803F0030308
:10A224009BB2002B01D0072321E0BDF80A30184669
:10A23400FFF70CFF03468DF817309DF81730142BE9
:10A2440001D1052313E0039B1B799DF817209A4243
:10A2540001D304230BE0039B1B689DF8172003998B
:10A26400C98801FB02F21A44019B1A6000231846B4
:10A2740007B05DF804FB82B00190019B1B781AB211
:10A28400019B01331B781BB21B021BB213431BB28D
:10A294009BB2184602B07047AADF704700BF184649
:10A2A40000B585B001900198FFF7E5FF0346ADF8CE
:10A2B4000E30BDF80E3003F00103002B14BF012350
:10A2C4000023DBB2184605B05DF804FB82B00346F8
:10A2D40000918DF80730009A137823F00F03137060
:10A2E400009A137823F0F00313709DF80730052BC0
:10A2F4005BD801A252F823F015A302002BA302009D
:10A3040045A302005FA3020079A3020093A3020005
:10A31400009A137823F00F031370009A137823F034
:10A32400F003137040E0009A1378012161F30303F2
:10A334001370009A1378012161F30713137033E04B
:10A34400009A1378012161F303031370009A1378C0
:10A35400022161F30713137026E0009A1378012198
:10A3640061F303031370009A1378032161F3071355
:10A37400137019E0009A1378022161F30303137038
:10A38400009A1378012161F3071313700CE0009A0B
:10A394001378022161F303031370009A13780221E6
:10A3A40061F30713137000BF00BF00BF02B0704712
:10A3B40000B595B0034602910192ADF80E30029BB0
:10A3C4009B78002B03D101238DF81E3003E0029B00
:10A3D4009B788DF81E30029B1B88ADF81C3006ABB1
:10A3E4000322002118460FF08BF8029B5B7C06AA1F
:10A3F40011461846FFF76AFF029B9A7C06AB0133AD
:10A4040019461046FFF762FF029BDA7B9DF81A306B
:10A4140062F3C3038DF81A30029B1A7C9DF81A303C
:10A4240062F304138DF81A30029B1A7B9DF81A30DC
:10A4340062F300038DF81A30029B1B7D002B01D0C0
:10A44400022200E001229DF81A3062F342038DF8E3
:10A454001A300DAB1C22002118460FF051F8029B54
:10A464005B7B03F01003DBB2002B06D1029B5B7B0A
:10A4740003F02003DBB2002B24D004AB0322002121
:10A4840018460FF03DF8029BDA7C04AB0133194601
:10A494001046FFF71BFF9DF81030012262F30303FF
:10A4A4008DF810309DF81030012262F307138DF8F7
:10A4B40010309DF81230012262F342038DF81230FD
:10A4C40004AB1293029B5B7B8DF83430029B9B7B25
:10A4D4008DF8353008AB1422002118460FF010F81F
:10A4E40007AB089306AB0993029B9B88ADF82C300D
:10A4F400029B9B68002B06D0029BDB88ADF82830BA
:10A50400029B9B680C93029B9B69002B4FD005AB6D
:10A514000322002118460EF0F3FF029B9B691B885F
:10A52400ADF83C30029B9B695B88ADF83E30029BE2
:10A534009B695B680E9305AB1193029B9B691B7B24
:10A5440005AA11461846FFF7C1FE029B9B695A7B78
:10A5540005AB013319461046FFF7B8FE029B9B6911
:10A564009A7A9DF8163062F3C3038DF81630029B75
:10A574009B69DA7A9DF8163062F304138DF816306D
:10A58400029B9B691A7A9DF8163062F300038DF8DA
:10A594001630029B9B699B7B002B01D0022200E0BA
:10A5A40001229DF8163062F342038DF81630029BA7
:10A5B400DB69002B02D0029BDB69109308AA0DA96A
:10A5C400BDF80E00019BFFF767FE0346184615B061
:10A5D4005DF804FBA0DF704700BF1846A1DF704799
:10A5E40000BF1846ADDF704700BF1846B3DF7047A1
:10A5F40000BF1846B4DF704700BF184600B585B0E9
:10A604000190019B002B03D10A4985200AF0B6FF73
:10A61400012101980BF096F90390BFF35F8F00BFFF
:10A62400039B002B0CBF01230023DBB2184605B0AB
:10A634005DF804FB049E030000B583B00190019B08
:10A64400002B03D10A4992200AF098FF019B1B6852
:10A65400012B03D0064993200AF090FFBFF35F8FCC
:10A6640000BF019B00221A6000BF03B05DF804FB29
:10A67400049E030000B585B00190019B5B881846D9
:10A6840001F05AFA03461A46019B9A800023039369
:10A6940008E0084A039B52F8233001989847039B2B
:10A6A40001330393039B002BF3D000BF00BF05B01D
:10A6B4005DF804FBC822002082B00190019B9B79C5
:10A6C400012B0BD1019B1B79012B07D1019B5B88CB
:10A6D40042F60212934201D1012300E0002303F069
:10A6E4000103DBB2184602B0704700B589B00346D7
:10A6F4000091ADF8063003AB00221A605A609A60EC
:10A70400DA601A6108238DF80C30BDF80630ADF814
:10A714000E30009B059303AB1846FFF7ABFF00BF59
:10A7240009B05DF804FB000010B58AB00346ADF82B
:10A73400063000238DF8273003AB00221A605A60DC
:10A744009A60DA601A61BDF80630ADF80E30BDF8D3
:10A7540006304FF6FF72934261D0BDF806301846BA
:10A7640000F034FF0890089B43F2020293424BD05E
:10A77400089B43F2020293422DD8089B112B11D05F
:10A78400089B112B27D8089B002B03D0089B0B2B6D
:10A794000CD020E00F238DF80C3003AB1846FFF7E4
:10A7A40069FF32E001238DF827302EE010238DF865
:10A7B4000C301C4A1C4BD31ADB081B0443F0020365
:10A7C400BDF80620194918460DF0B0FA03AB184637
:10A7D400FFF750FF19E0134A134BD31ADB081B048D
:10A7E40043F0010408980CF0B7FC03461A46BDF880
:10A7F40006300F4920460DF0AAFABDF80630089934
:10A804001846FFF772FF00E000BF0A4B19789DF865
:10A814002720BDF806301846FFF75EFC00E000BFB5
:10A824000AB010BD60970300C0960300509E030059
:10A83400D09E0300E147002000B583B003460A46DA
:10A84400ADF8063013468DF80530064B19789DF89F
:10A854000520BDF806301846FFF73EFC00BF03B0E4
:10A864005DF804FBE047002010B58AB00346ADF85C
:10A87400063000238DF8273000238DF82630BDF8EC
:10A884000630184600F0BAFD0890089B43F2020215
:10A89400934258D0089B43F2020293423AD8089B51
:10A8A400862B17D0089B862B34D8089B112B0DD0F0
:10A8B400089B112B2ED8089B002B03D0089B0B2B35
:10A8C40041D027E001238DF826303DE001238DF8A7
:10A8D400273039E003AB00221A605A609A60DA60CC
:10A8E4001A6107238DF80C30BDF80630ADF80E3030
:10A8F4001C4A1D4BD31ADB081B0443F00203BDF8AA
:10A9040006201A4918460DF011FA03AB1846FFF752
:10A91400B1FE19E0134A144BD31ADB081B0443F0AD
:10A92400010408980CF018FC03461A46BDF80630DA
:10A934000F4920460DF00BFABDF806300899184669
:10A94400FFF7D3FE00E000BF9DF82720BDF80630D6
:10A9540011461846FFF770FF9DF8263018460AB0D6
:10A9640010BD00BF60970300C0960300249F03003E
:10A974005C9F030000B589B003460091ADF8063032
:10A9840000238DF81F300DF116031846FFF72EFE35
:10A994000690069B002B04D02A494FF499700AF0C4
:10A9A400EDFD0123ADF81C3040E00223ADF8083082
:10A9B4000023ADF80A3004AB039304A9BDF81C309E
:10A9C40000221846FFF716FE0690069B002B01D0C6
:10A9D400069B32E09DF81F3083F00103DBB2002BAD
:10A9E40009D0BDF8103042F60522934203D1012369
:10A9F4008DF81F3015E09DF81F30002B11D0BDF8E5
:10AA0400103042F6021293420BD1009B039302AA28
:10AA1400BDF81C10BDF806301846FFF7E3FD0346E9
:10AA24000BE0BDF81C300133ADF81C30BDF8163016
:10AA3400BDF81C209A42B8D30523184609B05DF826
:10AA440004FB00BF9C9F030010B58AB00346ADF819
:10AA5400063001238DF8273000238DF82630BDF809
:10AA64000630184600F062FE0890089B43F201424B
:10AA740093426AD0089B43F2014293426BD8089BED
:10AA8400112B29D8089B112B65D801A252F823F069
:10AA9400E9AA02005BAB02005BAB02005BAB020005
:10AAA4005BAB02005BAB020035AB02005BAB0200A8
:10AAB40015AB02005BAB02005BAB02005BAB0200B8
:10AAC4005BAB02005BAB02005BAB02005BAB020062
:10AAD4005BAB02008DAB0200089B43F2020293427F
:10AAE40054D038E003AB00221A605A609A60DA60EE
:10AAF4001A6111238DF80C30BDF80630ADF80E3014
:10AB040001238DF8263003AB1846FFF7B3FD3EE072
:10AB14000DF10A02BDF8063011461846FFF72AFF68
:10AB24000890089B002B03D1BDF80A30002B2ED1CE
:10AB340000238DF82730BDF80630184600F0FCFFDE
:10AB44000346184600F03AFE21E0BDF806301846E8
:10AB5400FFF7EAFD1BE0184A184BD31ADB081B0465
:10AB640043F0010408980CF0F7FA03461A46BDF8BE
:10AB74000630134920460DF0EAF8BDF8063008996E
:10AB84001846FFF7B2FD02E000BF00E000BF0D4B26
:10AB940019789DF82720BDF806301846FFF79CFA6F
:10ABA400094B19789DF82620BDF806301846FFF7A2
:10ABB40093FA00BF0AB010BD60970300C09603006B
:10ABC4002CA00300E2470020E347002000B583B037
:10ABD40003460091ADF80630BDF806301846FFF77D
:10ABE400A3FD00BF03B05DF804FB000008B5044BEF
:10ABF4001B78002203491846FFF7CCFA00BF08BDB2
:10AC0400E1470020D1AB020000B583B003460091B8
:10AC1400ADF806300A48FFF7F1FC0346002B0CD0D0
:10AC2400BDF806301846FFF71FFE0346002B03D17C
:10AC34000348FFF701FD00E000BF03B05DF804FB2B
:10AC4400DC47002000B583B003460091ADF8063020
:10AC54000B4B1A78BDF8063011461846FFF70CFA6C
:10AC6400034683F00103DBB2002B04D0BDF80630A9
:10AC74001846FFF7E9FE00BF03B05DF804FB00BF10
:10AC8400E347002008B5044B1B780022034918460B
:10AC9400FFF780FA00BF08BDE247002049AC02007C
:10ACA40000B583B00346ADF80630BDF8063018464B
:10ACB40000F018FD0346002B07D0064B1978BDF8A9
:10ACC400063001221846FFF707FA00BF03B05DF80B
:10ACD40004FB00BFE247002000B587B003460091A3
:10ACE400ADF8063004AB0422002118460EF008FC2F
:10ACF40042F6A623ADF8103001238DF812300D4B27
:10AD04001B68039303AA04A9BDF806301846FFF78D
:10AD140061FC0590059B002B07D1074B1978BDF802
:10AD2400063001221846FFF7D7F900BF07B05DF8D7
:10AD340004FB00BF6CA00300E547002000B585B00C
:10AD44000346ADF80630BDF80630184600F0F4FEB0
:10AD54000346184602AA0023092101F0EEFC03462B
:10AD6400052B07D1054B1978BDF80630012218468A
:10AD7400FFF7B2F900BF05B05DF804FBE44700201B
:10AD840000B583B00B4B1B7800220B491846FFF724
:10AD940001FA0190019B002B07D1084B1B7800227C
:10ADA40007491846FFF7F6F9019000BF03B05DF8B4
:10ADB40004FB00BFE04700200DAC0200E447002084
:10ADC400DDAC020000B583B00190019B1B78002B21
:10ADD40011D1019B5B881846FFF7A6FC019B5B8899
:10ADE4001846FFF75DFF019B5B881846FFF7A6FF37
:10ADF400FFF7C6FF00E000BF00BF03B05DF804FB2F
:10AE040000B589B00190019B1B78092B5ED1019B91
:10AE14005B7A002B5AD1019B1B7A082B47D0082B55
:10AE24004DDC012B1BD0072B49D1019B9B88184675
:10AE340000F02CFF0346ADF81E30BDF81E304FF66F
:10AE4400FF7293423DD0BDF81E3001211846FFF732
:10AE5400F3FCBDF81E301846FFF770FF31E0019B8C
:10AE64009B8803AA0121184602F0B0F90690069BBC
:10AE7400002B28D1049B1B78002B24D0019B9B889A
:10AE8400184600F003FF0346ADF81630BDF816303F
:10AE94004FF6FF72934216D00F4B1978BDF8163057
:10AEA40001221846FFF718F9FFF7ECFE0BE00B4BF5
:10AEB4001B68012B09D10948FFF7BEFB05E000BF61
:10AEC40004E000BF02E000BF00E000BFFFF758FF4E
:10AED40000BF09B05DF804FBE2470020DC47002016
:10AEE40010B586B003460A46ADF8063013468DF811
:10AEF400053003AB00221A605A600123ADF80C3010
:10AF040009238DF80E30194B1978BDF8063000224C
:10AF14001846FFF7E1F89DF80530002B01D0144BDB
:10AF240000E0144B0493BDF80630184600F004FE0C
:10AF34000346184603AB0022194601F0C5FC0590F0
:10AF4400059B002B0FD00C4A0C4BD31ADB081B04B7
:10AF540043F0020405980CF0FFF803461A4608492A
:10AF640020460CF0E3FE00BF06B010BDE44700200D
:10AF7400F4A10300F8A1030060970300C096030046
:10AF8400E0A0030000B58DB00190019B9B88ADF853
:10AF94002C30019B1B88353B1F2B00F2688101A2DA
:10AFA40052F823F0B9B00200BBB1020073B2020040
:10AFB40073B2020073B2020073B2020073B20200F1
:10AFC40073B2020073B2020073B2020073B20200E1
:10AFD40073B2020073B2020073B2020073B20200D1
:10AFE40073B2020073B2020073B2020073B20200C1
:10AFF40073B2020073B2020073B2020073B20200B1
:10B0040073B2020073B2020073B2020073B20200A0
:10B0140095B0020073B2020029B0020073B20200BC
:10B0240035B00200BDF82C301846FFF77DFB1EE159
:10B0340003AB00221A605A609A60DA601A61122324
:10B044008DF80C30BDF82C30ADF80E30BDF82C3036
:10B05400184600F071FD0346ADF81030BDF810300D
:10B06400184600F0ABFB864B1978BDF82C30002253
:10B074001846FFF731F8834B1978BDF82C300022BD
:10B084001846FFF729F803AB1846FFF7F3FAEEE08A
:10B09400019B06331846FFF70FFB0346002B00F015
:10B0A400DF80BDF82C3001211846FFF7C5FBFFF700
:10B0B40067FED5E000238DF82F30019B9B88ADF807
:10B0C4002C30019B0A3309936F4B1A78BDF82C304E
:10B0D40011461846FEF7D0FF034683F00103DBB2A6
:10B0E400002B40F0BF80684B1978BDF82C3000224B
:10B0F4001846FEF7F1FF019BDB88B3F5857F4CD042
:10B10400019BDB88002B0DD0604A614BD31ADB080E
:10B114001B0443F00200019BDB881A465D490CF0D6
:10B1240005FE3AE0099B1B88012B0CD0574A584B6B
:10B13400D31ADB081B0443F00200099B1B881A4640
:10B1440055490CF0F3FD099B5B88012B0DD04F4A48
:10B154004F4BD31ADB081B0443F00200099B5B88A6
:10B164001A464E490CF0E2FD17E0099B0433198896
:10B17400BDF82C3000221846FFF730FA0890089BDF
:10B18400002B0AD101238DF82F30454B1978BDF8D7
:10B194002C3001221846FEF79FFF9DF82F3083F0D4
:10B1A4000103DBB2002B5FD0BDF82C300021184620
:10B1B400FFF796FE58E000238DF82E30019B9B8804
:10B1C400ADF82C30019B0A330A93354B1A78BDF83D
:10B1D4002C3011461846FEF74FFF034683F0010357
:10B1E400DBB2002B42D12E4B1978BDF82C30002253
:10B1F4001846FEF771FF019BDB88002B0DD0234A14
:10B20400234BD31ADB081B0443F00200019BDB88A9
:10B214001A4620490CF08AFD19E00A9B9B88012BF1
:10B224000DD01A4A1A4BD31ADB081B0443F0020050
:10B234000A9B9B881A4619490CF078FD07E00A9B83
:10B244009B79002B14BF012300238DF82E309DF829
:10B254002E20BDF82C3011461846FFF741FE06E0BB
:10B2640000BF04E000BF02E000BF00E000BFFFF742
:10B27400BDFCFFF707FD00BF0DB05DF804FB00BF88
:10B28400E3470020E2470020E547002060970300E1
:10B29400C096030040A103007CA10300B8A10300F1
:10B2A400E6470020AFDF704700BF1846B1DF7047A4
:10B2B40000BF1846B2DF704700BF1846B3DF7047BF
:10B2C40000BF184600B585B00190019B9B881846C5
:10B2D40000F0DCFC03461A46019B5A8000230393CA
:10B2E40008E0084A039B52F8233001989847039BCF
:10B2F40001330393039B002BF3D000BF00BF05B0C1
:10B304005DF804FBCC22002010B588B02D4A05ABB3
:10B3140092E8030083E8030048E02B4B1B8805A94F
:10B324000022184601F0D0FA0790079B002B34D076
:10B334006B4600221A605A609A60DA601A61224BE6
:10B344001B88ADF80430079B112B36D0079B862B46
:10B3540007D107238DF800306B461846FFF7B2FF7C
:10B364002BE01A4A1A4BD31ADB081B0443F00104DE
:10B3740007980BF0F1FE03461A46134B1B88154938
:10B3840020460CF0E4FC08238DF80030079B029360
:10B394006B461846FFF796FF0FE00B4B1B881846C9
:10B3A40001F062FB03461A46074B1A80064B1B88C2
:10B3B4004FF6FF729342B0D100E000BF00BF08B067
:10B3C40010BD00BF68A20300E8470020689703008F
:10B3D400C096030010A2030000B583B00190064B91
:10B3E4001B884FF6FF72934201D0FFF78DFF00BF19
:10B3F40003B05DF804FB00BFE847002030B58DB012
:10B404000346ADF80630BDF80630184600F094FB4C
:10B414000346ADF82630BDF826304FF6FF7293424E
:10B4240002D143F20203C5E00123ADF82A30002320
:10B434008DF8293000238DF82930BDF82A305A1CA4
:10B44400ADF82A201A4604ABBDF82600082101F005
:10B45400D3FE0B900B9B002B40F0A180059B08931F
:10B46400089B03221A60089B991D089B1A1D089BC0
:10B474001B68BDF80600FFF71DFF0B900B9B002B0C
:10B4840062D102AABDF826300821184601F09EFEBA
:10B494000B900B9B002B16D00B9B052B13D0474A0C
:10B4A400474BD31ADB081B0443F001040B980BF041
:10B4B40053FE03461A46BDF80630424920460CF0B6
:10B4C40046FC032376E00B9B052B11D0089B9A883E
:10B4D400039B9B889A420BD1089B981D039B991D43
:10B4E400089B9B881A460DF09DFF0346002B09D04C
:10B4F400BDF82620BDF826300821184601F03BFF90
:10B504000B9051E0BDF826300821184601F014FFD5
:10B514000690069B002B02D10B230B9344E0274A91
:10B52400274BD31ADB081B0443F00104BDF8265053
:10B5340006980BF011FE03462A46234920460CF0D8
:10B5440006FC03230B932FE00B9B0C2B03D101234D
:10B554008DF8293004E00B9B052B01D100230B93BC
:10B56400BDF826300821184601F0E6FE0790079B37
:10B57400002B19D0114A124BD31ADB081B0443F0D9
:10B584000104BDF8265007980BF0E6FD03462A4651
:10B594000D4920460CF0DBFB03230B9304E00B9BCB
:10B5A400072B01D10C230B939DF82930002B7FF43A
:10B5B40041AF0B9B18460DB030BD00BF6897030028
:10B5C400C096030070A20300A8A2030000B58BB0CC
:10B5D4000346ADF80630BDF80630184600F0ACFA64
:10B5E4000346ADF81430002308930023ADF81E3051
:10B5F4000323069301238DF81730BDF814304FF65A
:10B60400FF72934216D002AABDF8143008211846DE
:10B6140001F0DCFD0990099B002B0BD1039B0493E3
:10B62400049B06330893049B9B88ADF81E30049B4F
:10B634001B680693BDF81E20BDF80600069B0899FA
:10B64400FFF734FE0990099B042B02D111230993BF
:10B6540031E0099B082B02D1002309932BE0099BBD
:10B664000B2B28D100238DF81730069B03F002031F
:10B67400002B02D0012306931DE0089B002B03D16D
:10B68400BDF81E30002B07D0002308930023ADF82B
:10B694001E30032306930EE00F4A104BD31ADB0827
:10B6A4001B0443F00103BDF806200D4918460CF0B5
:10B6B4003DFB03230993099B0B2BBBD09DF817304B
:10B6C40083F00103DBB2002B01D00B230993099B08
:10B6D40018460BB05DF804FB68970300C09603009E
:10B6E40028A3030000B589B00346ADF806300DF178
:10B6F40017030493BDF80630184600F01DFA0346FC
:10B70400ADF81E3003AABDF81E300121184601F021
:10B714005DFD0690069B002B01D0002301E0049BF5
:10B724001B78184609B05DF804FB000010B584B01E
:10B734000346ADF806304FF6FF73ADF80E301B48E4
:10B74400FFF7BCFD0290029B002B11D0184A194B45
:10B75400D31ADB081B0443F0010402980BF0FCFC31
:10B7640003461A46144920460CF0E0FA03231AE073
:10B774000E4B1988BDF80E20BDF806301846FFF7A9
:10B7840091FD0290029B43F20302934205D1074BC1
:10B794001B8801339AB2054B1A80029B43F20302C1
:10B7A4009342E5D0029B184604B010BDEA4700203E
:10B7B40068970300C0960300A0A3030000B585B0FA
:10B7C4000346ADF80630084A02AB92E8030083E86A
:10B7D400030002A9BDF806300022184601F074F8EF
:10B7E40000BF05B05DF804FBECA3030046DF70471F
:10B7F40000BF184600B585B001900023039308E00C
:10B80400084A039B52F8233001989847039B01335D
:10B814000393039B012BF3D900BF00BF05B05DF870
:10B8240004FB00BFFCA4030084B001900023039335
:10B834000AE0019A039B13441B78002B01D00123D7
:10B8440006E0039B01330393039B0F2BF1D90023E1
:10B85400184604B0704700B583B001900091019B75
:10B86400002B02D0009B002B01D100231BE0019B85
:10B874001B78C3F34603DAB2009B1B78C3F3460379
:10B88400DBB29A4201D000230DE0019B581C009BBF
:10B894000133062219460DF0C5FD0346002B0CBFEB
:10B8A40001230023DBB2184603B05DF804FB00005B
:10B8B40030B597B00190019B1B88102B40F091800C
:10B8C400019B0AAC1D1D0FCD0FC40FCD0FC495E80D
:10B8D400070084E807004FF6FF73ADF856309DF873
:10B8E4002C3023F00103DBB2062B47D000F08EFF8F
:10B8F4009DF82C30C3F34603DBB2012B02DC002B92
:10B9040015DA3BE0022B2ED038E0089B03F111023C
:10B914000AAB043311461846FFF79DFF0346002B7C
:10B9240005D0BDF82630ADF8563000BF26E007AA92
:10B934000DF126031946072000F072FF0346002B81
:10B94400E3D11BE0089B5A1C0AAB0433114618468A
:10B9540000F08FFA0346002B05D0BDF82630ADF871
:10B96400563000BF09E007AA0DF126031946072047
:10B9740000F056FF0346002BE4D100BFBDF8283089
:10B984001946194A0B469B000B445B001344BDF84F
:10B9940056201A80BDF828301946134A0B469B00DE
:10B9A4000B445B00134402330BAA1068186091889F
:10B9B400927999809A71BDF856304FF6FF7293428E
:10B9C40010D0BDF82830ADF80A30BDF85630ADF8C7
:10B9D4000C3000238DF8083002AB1846FFF70AFF3D
:10B9E40000E000BF17B030BDEC47002000B587B0C1
:10B9F40001900091019B11330593009B1133049333
:10BA0400019B581C009B0133102219460DF00AFDBE
:10BA14000346002B11D1019B01331846FFF704FFA5
:10BA24000346002B09D0009B01331846FFF7FCFEA8
:10BA34000346002B01D0012300E000238DF80F30D2
:10BA44009DF80F3003F001038DF80F300499059829
:10BA5400FFF701FF03468DF80E30059B1B7823F09A
:10BA64000103DBB2042B16D0059B1B7823F00103E2
:10BA7400DBB2062B0FD0049B1B7823F00103DBB24F
:10BA8400042B08D0049B1B7823F00103DBB2062BA4
:10BA940001D0012300E000238DF80D309DF80D3016
:10BAA40003F001038DF80D309DF80E30002B03D008
:10BAB4009DF80D30002B0AD19DF80F30002B08D0D3
:10BAC4009DF80D3083F00103DBB2002B01D001237C
